{
	"contracts/qlds/CandidateManager.sol": {
		"CandidateManager": {
			"abi": [
				{
					"inputs": [
						{
							"internalType": "string",
							"name": "_name",
							"type": "string"
						}
					],
					"name": "addCandidate",
					"outputs": [],
					"stateMutability": "nonpayable",
					"type": "function"
				},
				{
					"inputs": [
						{
							"internalType": "string",
							"name": "",
							"type": "string"
						}
					],
					"name": "candidates",
					"outputs": [
						{
							"internalType": "string",
							"name": "name",
							"type": "string"
						},
						{
							"internalType": "uint256",
							"name": "voteCount",
							"type": "uint256"
						}
					],
					"stateMutability": "view",
					"type": "function"
				},
				{
					"inputs": [
						{
							"internalType": "string",
							"name": "_name",
							"type": "string"
						}
					],
					"name": "getCandidateInfo",
					"outputs": [
						{
							"internalType": "string",
							"name": "",
							"type": "string"
						},
						{
							"internalType": "uint256",
							"name": "",
							"type": "uint256"
						}
					],
					"stateMutability": "view",
					"type": "function"
				},
				{
					"inputs": [],
					"name": "getHighestVote",
					"outputs": [
						{
							"internalType": "string",
							"name": "",
							"type": "string"
						},
						{
							"internalType": "uint256",
							"name": "",
							"type": "uint256"
						}
					],
					"stateMutability": "view",
					"type": "function"
				},
				{
					"inputs": [],
					"name": "getTotalVotes",
					"outputs": [
						{
							"internalType": "uint256",
							"name": "",
							"type": "uint256"
						}
					],
					"stateMutability": "view",
					"type": "function"
				},
				{
					"inputs": [],
					"name": "highestVote",
					"outputs": [
						{
							"internalType": "uint256",
							"name": "",
							"type": "uint256"
						}
					],
					"stateMutability": "view",
					"type": "function"
				},
				{
					"inputs": [
						{
							"internalType": "string",
							"name": "_name",
							"type": "string"
						}
					],
					"name": "isCandidateExist",
					"outputs": [
						{
							"internalType": "bool",
							"name": "",
							"type": "bool"
						}
					],
					"stateMutability": "view",
					"type": "function"
				},
				{
					"inputs": [],
					"name": "nameTop",
					"outputs": [
						{
							"internalType": "string",
							"name": "",
							"type": "string"
						}
					],
					"stateMutability": "view",
					"type": "function"
				},
				{
					"inputs": [],
					"name": "totalVotes",
					"outputs": [
						{
							"internalType": "uint256",
							"name": "",
							"type": "uint256"
						}
					],
					"stateMutability": "view",
					"type": "function"
				},
				{
					"inputs": [
						{
							"internalType": "string",
							"name": "_name",
							"type": "string"
						}
					],
					"name": "vote",
					"outputs": [],
					"stateMutability": "nonpayable",
					"type": "function"
				}
			],
			"devdoc": {
				"kind": "dev",
				"methods": {},
				"version": 1
			},
			"evm": {
				"assembly": "    /* \"contracts/qlds/CandidateManager.sol\":57:1496  contract CandidateManager {... */\n  mstore(0x40, 0x80)\n    /* \"contracts/qlds/CandidateManager.sol\":241:242  0 */\n  0x00\n    /* \"contracts/qlds/CandidateManager.sol\":216:242  uint public totalVotes = 0 */\n  0x01\n  sstore\n    /* \"contracts/qlds/CandidateManager.sol\":57:1496  contract CandidateManager {... */\n  callvalue\n  dup1\n  iszero\n  tag_1\n  jumpi\n  revert(0x00, 0x00)\ntag_1:\n  pop\n  dataSize(sub_0)\n  dup1\n  dataOffset(sub_0)\n  0x00\n  codecopy\n  0x00\n  return\nstop\n\nsub_0: assembly {\n        /* \"contracts/qlds/CandidateManager.sol\":57:1496  contract CandidateManager {... */\n      mstore(0x40, 0x80)\n      callvalue\n      dup1\n      iszero\n      tag_1\n      jumpi\n      revert(0x00, 0x00)\n    tag_1:\n      pop\n      jumpi(tag_2, lt(calldatasize, 0x04))\n      shr(0xe0, calldataload(0x00))\n      dup1\n      0xb3a4dc2f\n      gt\n      tag_13\n      jumpi\n      dup1\n      0xb3a4dc2f\n      eq\n      tag_8\n      jumpi\n      dup1\n      0xb61add9a\n      eq\n      tag_9\n      jumpi\n      dup1\n      0xc5539cc2\n      eq\n      tag_10\n      jumpi\n      dup1\n      0xf95fe2d6\n      eq\n      tag_11\n      jumpi\n      dup1\n      0xfc36e15b\n      eq\n      tag_12\n      jumpi\n      jump(tag_2)\n    tag_13:\n      dup1\n      0x0d15fd77\n      eq\n      tag_3\n      jumpi\n      dup1\n      0x462e91ec\n      eq\n      tag_4\n      jumpi\n      dup1\n      0x4c162f2a\n      eq\n      tag_5\n      jumpi\n      dup1\n      0x7e797dee\n      eq\n      tag_6\n      jumpi\n      dup1\n      0x9a0e7d66\n      eq\n      tag_7\n      jumpi\n    tag_2:\n      revert(0x00, 0x00)\n        /* \"contracts/qlds/CandidateManager.sol\":216:242  uint public totalVotes = 0 */\n    tag_3:\n      tag_14\n      tag_15\n      jump\t// in\n    tag_14:\n      mload(0x40)\n      tag_16\n      swap2\n      swap1\n      tag_17\n      jump\t// in\n    tag_16:\n      mload(0x40)\n      dup1\n      swap2\n      sub\n      swap1\n      return\n        /* \"contracts/qlds/CandidateManager.sol\":305:482  function addCandidate(string memory _name) public {... */\n    tag_4:\n      tag_18\n      0x04\n      dup1\n      calldatasize\n      sub\n      dup2\n      add\n      swap1\n      tag_19\n      swap2\n      swap1\n      tag_20\n      jump\t// in\n    tag_19:\n      tag_21\n      jump\t// in\n    tag_18:\n      stop\n        /* \"contracts/qlds/CandidateManager.sol\":277:298  string public nameTop */\n    tag_5:\n      tag_22\n      tag_23\n      jump\t// in\n    tag_22:\n      mload(0x40)\n      tag_24\n      swap2\n      swap1\n      tag_25\n      jump\t// in\n    tag_24:\n      mload(0x40)\n      dup1\n      swap2\n      sub\n      swap1\n      return\n        /* \"contracts/qlds/CandidateManager.sol\":488:627  function isCandidateExist(string memory _name) public view returns (bool) {... */\n    tag_6:\n      tag_26\n      0x04\n      dup1\n      calldatasize\n      sub\n      dup2\n      add\n      swap1\n      tag_27\n      swap2\n      swap1\n      tag_20\n      jump\t// in\n    tag_27:\n      tag_28\n      jump\t// in\n    tag_26:\n      mload(0x40)\n      tag_29\n      swap2\n      swap1\n      tag_30\n      jump\t// in\n    tag_29:\n      mload(0x40)\n      dup1\n      swap2\n      sub\n      swap1\n      return\n        /* \"contracts/qlds/CandidateManager.sol\":1227:1313  function getTotalVotes() public view returns (uint) {... */\n    tag_7:\n      tag_31\n      tag_32\n      jump\t// in\n    tag_31:\n      mload(0x40)\n      tag_33\n      swap2\n      swap1\n      tag_17\n      jump\t// in\n    tag_33:\n      mload(0x40)\n      dup1\n      swap2\n      sub\n      swap1\n      return\n        /* \"contracts/qlds/CandidateManager.sol\":248:271  uint public highestVote */\n    tag_8:\n      tag_34\n      tag_35\n      jump\t// in\n    tag_34:\n      mload(0x40)\n      tag_36\n      swap2\n      swap1\n      tag_17\n      jump\t// in\n    tag_36:\n      mload(0x40)\n      dup1\n      swap2\n      sub\n      swap1\n      return\n        /* \"contracts/qlds/CandidateManager.sol\":633:883  function getCandidateInfo(... */\n    tag_9:\n      tag_37\n      0x04\n      dup1\n      calldatasize\n      sub\n      dup2\n      add\n      swap1\n      tag_38\n      swap2\n      swap1\n      tag_20\n      jump\t// in\n    tag_38:\n      tag_39\n      jump\t// in\n    tag_37:\n      mload(0x40)\n      tag_40\n      swap3\n      swap2\n      swap1\n      tag_41\n      jump\t// in\n    tag_40:\n      mload(0x40)\n      dup1\n      swap2\n      sub\n      swap1\n      return\n        /* \"contracts/qlds/CandidateManager.sol\":164:210  mapping(string => Candidate) public candidates */\n    tag_10:\n      tag_42\n      0x04\n      dup1\n      calldatasize\n      sub\n      dup2\n      add\n      swap1\n      tag_43\n      swap2\n      swap1\n      tag_20\n      jump\t// in\n    tag_43:\n      tag_44\n      jump\t// in\n    tag_42:\n      mload(0x40)\n      tag_45\n      swap3\n      swap2\n      swap1\n      tag_41\n      jump\t// in\n    tag_45:\n      mload(0x40)\n      dup1\n      swap2\n      sub\n      swap1\n      return\n        /* \"contracts/qlds/CandidateManager.sol\":1319:1494  function getHighestVote() public view returns (string memory, uint) {... */\n    tag_11:\n      tag_46\n      tag_47\n      jump\t// in\n    tag_46:\n      mload(0x40)\n      tag_48\n      swap3\n      swap2\n      swap1\n      tag_41\n      jump\t// in\n    tag_48:\n      mload(0x40)\n      dup1\n      swap2\n      sub\n      swap1\n      return\n        /* \"contracts/qlds/CandidateManager.sol\":889:1221  function vote(string memory _name) public {... */\n    tag_12:\n      tag_49\n      0x04\n      dup1\n      calldatasize\n      sub\n      dup2\n      add\n      swap1\n      tag_50\n      swap2\n      swap1\n      tag_20\n      jump\t// in\n    tag_50:\n      tag_51\n      jump\t// in\n    tag_49:\n      stop\n        /* \"contracts/qlds/CandidateManager.sol\":216:242  uint public totalVotes = 0 */\n    tag_15:\n      sload(0x01)\n      dup2\n      jump\t// out\n        /* \"contracts/qlds/CandidateManager.sol\":305:482  function addCandidate(string memory _name) public {... */\n    tag_21:\n        /* \"contracts/qlds/CandidateManager.sol\":374:397  isCandidateExist(_name) */\n      tag_53\n        /* \"contracts/qlds/CandidateManager.sol\":391:396  _name */\n      dup2\n        /* \"contracts/qlds/CandidateManager.sol\":374:390  isCandidateExist */\n      tag_28\n        /* \"contracts/qlds/CandidateManager.sol\":374:397  isCandidateExist(_name) */\n      jump\t// in\n    tag_53:\n        /* \"contracts/qlds/CandidateManager.sol\":373:397  !isCandidateExist(_name) */\n      iszero\n        /* \"contracts/qlds/CandidateManager.sol\":365:426  require(!isCandidateExist(_name), \"Candidate already exists\") */\n      tag_54\n      jumpi\n      mload(0x40)\n      0x08c379a000000000000000000000000000000000000000000000000000000000\n      dup2\n      mstore\n      0x04\n      add\n      tag_55\n      swap1\n      tag_56\n      jump\t// in\n    tag_55:\n      mload(0x40)\n      dup1\n      swap2\n      sub\n      swap1\n      revert\n    tag_54:\n        /* \"contracts/qlds/CandidateManager.sol\":456:475  Candidate(_name, 0) */\n      mload(0x40)\n      dup1\n      0x40\n      add\n      0x40\n      mstore\n      dup1\n        /* \"contracts/qlds/CandidateManager.sol\":466:471  _name */\n      dup3\n        /* \"contracts/qlds/CandidateManager.sol\":456:475  Candidate(_name, 0) */\n      dup2\n      mstore\n      0x20\n      add\n        /* \"contracts/qlds/CandidateManager.sol\":473:474  0 */\n      0x00\n        /* \"contracts/qlds/CandidateManager.sol\":456:475  Candidate(_name, 0) */\n      dup2\n      mstore\n      pop\n        /* \"contracts/qlds/CandidateManager.sol\":436:446  candidates */\n      0x00\n        /* \"contracts/qlds/CandidateManager.sol\":447:452  _name */\n      dup3\n        /* \"contracts/qlds/CandidateManager.sol\":436:453  candidates[_name] */\n      mload(0x40)\n      tag_57\n      swap2\n      swap1\n      tag_58\n      jump\t// in\n    tag_57:\n      swap1\n      dup2\n      mstore\n      0x20\n      add\n      mload(0x40)\n      dup1\n      swap2\n      sub\n      swap1\n      keccak256\n        /* \"contracts/qlds/CandidateManager.sol\":436:475  candidates[_name] = Candidate(_name, 0) */\n      0x00\n      dup3\n      add\n      mload\n      dup2\n      0x00\n      add\n      swap1\n      dup2\n      tag_59\n      swap2\n      swap1\n      tag_60\n      jump\t// in\n    tag_59:\n      pop\n      0x20\n      dup3\n      add\n      mload\n      dup2\n      0x01\n      add\n      sstore\n      swap1\n      pop\n      pop\n        /* \"contracts/qlds/CandidateManager.sol\":305:482  function addCandidate(string memory _name) public {... */\n      pop\n      jump\t// out\n        /* \"contracts/qlds/CandidateManager.sol\":277:298  string public nameTop */\n    tag_23:\n      0x03\n      dup1\n      sload\n      tag_61\n      swap1\n      tag_62\n      jump\t// in\n    tag_61:\n      dup1\n      0x1f\n      add\n      0x20\n      dup1\n      swap2\n      div\n      mul\n      0x20\n      add\n      mload(0x40)\n      swap1\n      dup2\n      add\n      0x40\n      mstore\n      dup1\n      swap3\n      swap2\n      swap1\n      dup2\n      dup2\n      mstore\n      0x20\n      add\n      dup3\n      dup1\n      sload\n      tag_63\n      swap1\n      tag_62\n      jump\t// in\n    tag_63:\n      dup1\n      iszero\n      tag_64\n      jumpi\n      dup1\n      0x1f\n      lt\n      tag_65\n      jumpi\n      0x0100\n      dup1\n      dup4\n      sload\n      div\n      mul\n      dup4\n      mstore\n      swap2\n      0x20\n      add\n      swap2\n      jump(tag_64)\n    tag_65:\n      dup3\n      add\n      swap2\n      swap1\n      0x00\n      mstore\n      keccak256(0x00, 0x20)\n      swap1\n    tag_66:\n      dup2\n      sload\n      dup2\n      mstore\n      swap1\n      0x01\n      add\n      swap1\n      0x20\n      add\n      dup1\n      dup4\n      gt\n      tag_66\n      jumpi\n      dup3\n      swap1\n      sub\n      0x1f\n      and\n      dup3\n      add\n      swap2\n    tag_64:\n      pop\n      pop\n      pop\n      pop\n      pop\n      dup2\n      jump\t// out\n        /* \"contracts/qlds/CandidateManager.sol\":488:627  function isCandidateExist(string memory _name) public view returns (bool) {... */\n    tag_28:\n        /* \"contracts/qlds/CandidateManager.sol\":556:560  bool */\n      0x00\n        /* \"contracts/qlds/CandidateManager.sol\":619:620  0 */\n      0x00\n        /* \"contracts/qlds/CandidateManager.sol\":585:595  candidates */\n      0x00\n        /* \"contracts/qlds/CandidateManager.sol\":596:601  _name */\n      dup4\n        /* \"contracts/qlds/CandidateManager.sol\":585:602  candidates[_name] */\n      mload(0x40)\n      tag_68\n      swap2\n      swap1\n      tag_58\n      jump\t// in\n    tag_68:\n      swap1\n      dup2\n      mstore\n      0x20\n      add\n      mload(0x40)\n      dup1\n      swap2\n      sub\n      swap1\n      keccak256\n        /* \"contracts/qlds/CandidateManager.sol\":585:607  candidates[_name].name */\n      0x00\n      add\n        /* \"contracts/qlds/CandidateManager.sol\":579:615  bytes(candidates[_name].name).length */\n      dup1\n      sload\n      tag_69\n      swap1\n      tag_62\n      jump\t// in\n    tag_69:\n      swap1\n      pop\n        /* \"contracts/qlds/CandidateManager.sol\":579:620  bytes(candidates[_name].name).length != 0 */\n      eq\n      iszero\n        /* \"contracts/qlds/CandidateManager.sol\":572:620  return bytes(candidates[_name].name).length != 0 */\n      swap1\n      pop\n        /* \"contracts/qlds/CandidateManager.sol\":488:627  function isCandidateExist(string memory _name) public view returns (bool) {... */\n      swap2\n      swap1\n      pop\n      jump\t// out\n        /* \"contracts/qlds/CandidateManager.sol\":1227:1313  function getTotalVotes() public view returns (uint) {... */\n    tag_32:\n        /* \"contracts/qlds/CandidateManager.sol\":1273:1277  uint */\n      0x00\n        /* \"contracts/qlds/CandidateManager.sol\":1296:1306  totalVotes */\n      sload(0x01)\n        /* \"contracts/qlds/CandidateManager.sol\":1289:1306  return totalVotes */\n      swap1\n      pop\n        /* \"contracts/qlds/CandidateManager.sol\":1227:1313  function getTotalVotes() public view returns (uint) {... */\n      swap1\n      jump\t// out\n        /* \"contracts/qlds/CandidateManager.sol\":248:271  uint public highestVote */\n    tag_35:\n      sload(0x02)\n      dup2\n      jump\t// out\n        /* \"contracts/qlds/CandidateManager.sol\":633:883  function getCandidateInfo(... */\n    tag_39:\n        /* \"contracts/qlds/CandidateManager.sol\":715:728  string memory */\n      0x60\n        /* \"contracts/qlds/CandidateManager.sol\":730:734  uint */\n      0x00\n        /* \"contracts/qlds/CandidateManager.sol\":754:777  isCandidateExist(_name) */\n      tag_72\n        /* \"contracts/qlds/CandidateManager.sol\":771:776  _name */\n      dup4\n        /* \"contracts/qlds/CandidateManager.sol\":754:770  isCandidateExist */\n      tag_28\n        /* \"contracts/qlds/CandidateManager.sol\":754:777  isCandidateExist(_name) */\n      jump\t// in\n    tag_72:\n        /* \"contracts/qlds/CandidateManager.sol\":746:806  require(isCandidateExist(_name), \"Candidate does not exist\") */\n      tag_73\n      jumpi\n      mload(0x40)\n      0x08c379a000000000000000000000000000000000000000000000000000000000\n      dup2\n      mstore\n      0x04\n      add\n      tag_74\n      swap1\n      tag_75\n      jump\t// in\n    tag_74:\n      mload(0x40)\n      dup1\n      swap2\n      sub\n      swap1\n      revert\n    tag_73:\n        /* \"contracts/qlds/CandidateManager.sol\":824:834  candidates */\n      0x00\n        /* \"contracts/qlds/CandidateManager.sol\":835:840  _name */\n      dup4\n        /* \"contracts/qlds/CandidateManager.sol\":824:841  candidates[_name] */\n      mload(0x40)\n      tag_76\n      swap2\n      swap1\n      tag_58\n      jump\t// in\n    tag_76:\n      swap1\n      dup2\n      mstore\n      0x20\n      add\n      mload(0x40)\n      dup1\n      swap2\n      sub\n      swap1\n      keccak256\n        /* \"contracts/qlds/CandidateManager.sol\":824:846  candidates[_name].name */\n      0x00\n      add\n        /* \"contracts/qlds/CandidateManager.sol\":848:858  candidates */\n      0x00\n        /* \"contracts/qlds/CandidateManager.sol\":859:864  _name */\n      dup5\n        /* \"contracts/qlds/CandidateManager.sol\":848:865  candidates[_name] */\n      mload(0x40)\n      tag_77\n      swap2\n      swap1\n      tag_58\n      jump\t// in\n    tag_77:\n      swap1\n      dup2\n      mstore\n      0x20\n      add\n      mload(0x40)\n      dup1\n      swap2\n      sub\n      swap1\n      keccak256\n        /* \"contracts/qlds/CandidateManager.sol\":848:875  candidates[_name].voteCount */\n      0x01\n      add\n      sload\n        /* \"contracts/qlds/CandidateManager.sol\":816:876  return (candidates[_name].name, candidates[_name].voteCount) */\n      dup2\n      dup1\n      sload\n      tag_78\n      swap1\n      tag_62\n      jump\t// in\n    tag_78:\n      dup1\n      0x1f\n      add\n      0x20\n      dup1\n      swap2\n      div\n      mul\n      0x20\n      add\n      mload(0x40)\n      swap1\n      dup2\n      add\n      0x40\n      mstore\n      dup1\n      swap3\n      swap2\n      swap1\n      dup2\n      dup2\n      mstore\n      0x20\n      add\n      dup3\n      dup1\n      sload\n      tag_79\n      swap1\n      tag_62\n      jump\t// in\n    tag_79:\n      dup1\n      iszero\n      tag_80\n      jumpi\n      dup1\n      0x1f\n      lt\n      tag_81\n      jumpi\n      0x0100\n      dup1\n      dup4\n      sload\n      div\n      mul\n      dup4\n      mstore\n      swap2\n      0x20\n      add\n      swap2\n      jump(tag_80)\n    tag_81:\n      dup3\n      add\n      swap2\n      swap1\n      0x00\n      mstore\n      keccak256(0x00, 0x20)\n      swap1\n    tag_82:\n      dup2\n      sload\n      dup2\n      mstore\n      swap1\n      0x01\n      add\n      swap1\n      0x20\n      add\n      dup1\n      dup4\n      gt\n      tag_82\n      jumpi\n      dup3\n      swap1\n      sub\n      0x1f\n      and\n      dup3\n      add\n      swap2\n    tag_80:\n      pop\n      pop\n      pop\n      pop\n      pop\n      swap2\n      pop\n      swap2\n      pop\n      swap2\n      pop\n        /* \"contracts/qlds/CandidateManager.sol\":633:883  function getCandidateInfo(... */\n      swap2\n      pop\n      swap2\n      jump\t// out\n        /* \"contracts/qlds/CandidateManager.sol\":164:210  mapping(string => Candidate) public candidates */\n    tag_44:\n      0x00\n      dup2\n      dup1\n      mload\n      0x20\n      dup2\n      add\n      dup3\n      add\n      dup1\n      mload\n      dup5\n      dup3\n      mstore\n      0x20\n      dup4\n      add\n      0x20\n      dup6\n      add\n      keccak256\n      dup2\n      dup4\n      mstore\n      dup1\n      swap6\n      pop\n      pop\n      pop\n      pop\n      pop\n      pop\n      0x00\n      swap2\n      pop\n      swap1\n      pop\n      dup1\n      0x00\n      add\n      dup1\n      sload\n      tag_83\n      swap1\n      tag_62\n      jump\t// in\n    tag_83:\n      dup1\n      0x1f\n      add\n      0x20\n      dup1\n      swap2\n      div\n      mul\n      0x20\n      add\n      mload(0x40)\n      swap1\n      dup2\n      add\n      0x40\n      mstore\n      dup1\n      swap3\n      swap2\n      swap1\n      dup2\n      dup2\n      mstore\n      0x20\n      add\n      dup3\n      dup1\n      sload\n      tag_84\n      swap1\n      tag_62\n      jump\t// in\n    tag_84:\n      dup1\n      iszero\n      tag_85\n      jumpi\n      dup1\n      0x1f\n      lt\n      tag_86\n      jumpi\n      0x0100\n      dup1\n      dup4\n      sload\n      div\n      mul\n      dup4\n      mstore\n      swap2\n      0x20\n      add\n      swap2\n      jump(tag_85)\n    tag_86:\n      dup3\n      add\n      swap2\n      swap1\n      0x00\n      mstore\n      keccak256(0x00, 0x20)\n      swap1\n    tag_87:\n      dup2\n      sload\n      dup2\n      mstore\n      swap1\n      0x01\n      add\n      swap1\n      0x20\n      add\n      dup1\n      dup4\n      gt\n      tag_87\n      jumpi\n      dup3\n      swap1\n      sub\n      0x1f\n      and\n      dup3\n      add\n      swap2\n    tag_85:\n      pop\n      pop\n      pop\n      pop\n      pop\n      swap1\n      dup1\n      0x01\n      add\n      sload\n      swap1\n      pop\n      dup3\n      jump\t// out\n        /* \"contracts/qlds/CandidateManager.sol\":1319:1494  function getHighestVote() public view returns (string memory, uint) {... */\n    tag_47:\n        /* \"contracts/qlds/CandidateManager.sol\":1366:1379  string memory */\n      0x60\n        /* \"contracts/qlds/CandidateManager.sol\":1381:1385  uint */\n      0x00\n        /* \"contracts/qlds/CandidateManager.sol\":1430:1431  0 */\n      0x00\n        /* \"contracts/qlds/CandidateManager.sol\":1411:1418  nameTop */\n      0x03\n        /* \"contracts/qlds/CandidateManager.sol\":1405:1426  bytes(nameTop).length */\n      dup1\n      sload\n      tag_89\n      swap1\n      tag_62\n      jump\t// in\n    tag_89:\n      swap1\n      pop\n        /* \"contracts/qlds/CandidateManager.sol\":1405:1431  bytes(nameTop).length != 0 */\n      sub\n        /* \"contracts/qlds/CandidateManager.sol\":1397:1448  require(bytes(nameTop).length != 0, \"No votes yet\") */\n      tag_90\n      jumpi\n      mload(0x40)\n      0x08c379a000000000000000000000000000000000000000000000000000000000\n      dup2\n      mstore\n      0x04\n      add\n      tag_91\n      swap1\n      tag_92\n      jump\t// in\n    tag_91:\n      mload(0x40)\n      dup1\n      swap2\n      sub\n      swap1\n      revert\n    tag_90:\n        /* \"contracts/qlds/CandidateManager.sol\":1466:1473  nameTop */\n      0x03\n        /* \"contracts/qlds/CandidateManager.sol\":1475:1486  highestVote */\n      sload(0x02)\n        /* \"contracts/qlds/CandidateManager.sol\":1458:1487  return (nameTop, highestVote) */\n      dup2\n      dup1\n      sload\n      tag_93\n      swap1\n      tag_62\n      jump\t// in\n    tag_93:\n      dup1\n      0x1f\n      add\n      0x20\n      dup1\n      swap2\n      div\n      mul\n      0x20\n      add\n      mload(0x40)\n      swap1\n      dup2\n      add\n      0x40\n      mstore\n      dup1\n      swap3\n      swap2\n      swap1\n      dup2\n      dup2\n      mstore\n      0x20\n      add\n      dup3\n      dup1\n      sload\n      tag_94\n      swap1\n      tag_62\n      jump\t// in\n    tag_94:\n      dup1\n      iszero\n      tag_95\n      jumpi\n      dup1\n      0x1f\n      lt\n      tag_96\n      jumpi\n      0x0100\n      dup1\n      dup4\n      sload\n      div\n      mul\n      dup4\n      mstore\n      swap2\n      0x20\n      add\n      swap2\n      jump(tag_95)\n    tag_96:\n      dup3\n      add\n      swap2\n      swap1\n      0x00\n      mstore\n      keccak256(0x00, 0x20)\n      swap1\n    tag_97:\n      dup2\n      sload\n      dup2\n      mstore\n      swap1\n      0x01\n      add\n      swap1\n      0x20\n      add\n      dup1\n      dup4\n      gt\n      tag_97\n      jumpi\n      dup3\n      swap1\n      sub\n      0x1f\n      and\n      dup3\n      add\n      swap2\n    tag_95:\n      pop\n      pop\n      pop\n      pop\n      pop\n      swap2\n      pop\n      swap2\n      pop\n      swap2\n      pop\n        /* \"contracts/qlds/CandidateManager.sol\":1319:1494  function getHighestVote() public view returns (string memory, uint) {... */\n      swap1\n      swap2\n      jump\t// out\n        /* \"contracts/qlds/CandidateManager.sol\":889:1221  function vote(string memory _name) public {... */\n    tag_51:\n        /* \"contracts/qlds/CandidateManager.sol\":949:972  isCandidateExist(_name) */\n      tag_99\n        /* \"contracts/qlds/CandidateManager.sol\":966:971  _name */\n      dup2\n        /* \"contracts/qlds/CandidateManager.sol\":949:965  isCandidateExist */\n      tag_28\n        /* \"contracts/qlds/CandidateManager.sol\":949:972  isCandidateExist(_name) */\n      jump\t// in\n    tag_99:\n        /* \"contracts/qlds/CandidateManager.sol\":941:1001  require(isCandidateExist(_name), \"Candidate does not exist\") */\n      tag_100\n      jumpi\n      mload(0x40)\n      0x08c379a000000000000000000000000000000000000000000000000000000000\n      dup2\n      mstore\n      0x04\n      add\n      tag_101\n      swap1\n      tag_75\n      jump\t// in\n    tag_101:\n      mload(0x40)\n      dup1\n      swap2\n      sub\n      swap1\n      revert\n    tag_100:\n        /* \"contracts/qlds/CandidateManager.sol\":1011:1021  candidates */\n      0x00\n        /* \"contracts/qlds/CandidateManager.sol\":1022:1027  _name */\n      dup2\n        /* \"contracts/qlds/CandidateManager.sol\":1011:1028  candidates[_name] */\n      mload(0x40)\n      tag_102\n      swap2\n      swap1\n      tag_58\n      jump\t// in\n    tag_102:\n      swap1\n      dup2\n      mstore\n      0x20\n      add\n      mload(0x40)\n      dup1\n      swap2\n      sub\n      swap1\n      keccak256\n        /* \"contracts/qlds/CandidateManager.sol\":1011:1038  candidates[_name].voteCount */\n      0x01\n      add\n      0x00\n        /* \"contracts/qlds/CandidateManager.sol\":1011:1040  candidates[_name].voteCount++ */\n      dup2\n      sload\n      dup1\n      swap3\n      swap2\n      swap1\n      tag_103\n      swap1\n      tag_104\n      jump\t// in\n    tag_103:\n      swap2\n      swap1\n      pop\n      sstore\n      pop\n        /* \"contracts/qlds/CandidateManager.sol\":1050:1060  totalVotes */\n      0x01\n      0x00\n        /* \"contracts/qlds/CandidateManager.sol\":1050:1062  totalVotes++ */\n      dup2\n      sload\n      dup1\n      swap3\n      swap2\n      swap1\n      tag_105\n      swap1\n      tag_104\n      jump\t// in\n    tag_105:\n      swap2\n      swap1\n      pop\n      sstore\n      pop\n        /* \"contracts/qlds/CandidateManager.sol\":1107:1118  highestVote */\n      sload(0x02)\n        /* \"contracts/qlds/CandidateManager.sol\":1077:1087  candidates */\n      0x00\n        /* \"contracts/qlds/CandidateManager.sol\":1088:1093  _name */\n      dup3\n        /* \"contracts/qlds/CandidateManager.sol\":1077:1094  candidates[_name] */\n      mload(0x40)\n      tag_106\n      swap2\n      swap1\n      tag_58\n      jump\t// in\n    tag_106:\n      swap1\n      dup2\n      mstore\n      0x20\n      add\n      mload(0x40)\n      dup1\n      swap2\n      sub\n      swap1\n      keccak256\n        /* \"contracts/qlds/CandidateManager.sol\":1077:1104  candidates[_name].voteCount */\n      0x01\n      add\n      sload\n        /* \"contracts/qlds/CandidateManager.sol\":1077:1118  candidates[_name].voteCount > highestVote */\n      gt\n        /* \"contracts/qlds/CandidateManager.sol\":1073:1215  if (candidates[_name].voteCount > highestVote) {... */\n      iszero\n      tag_107\n      jumpi\n        /* \"contracts/qlds/CandidateManager.sol\":1148:1158  candidates */\n      0x00\n        /* \"contracts/qlds/CandidateManager.sol\":1159:1164  _name */\n      dup2\n        /* \"contracts/qlds/CandidateManager.sol\":1148:1165  candidates[_name] */\n      mload(0x40)\n      tag_108\n      swap2\n      swap1\n      tag_58\n      jump\t// in\n    tag_108:\n      swap1\n      dup2\n      mstore\n      0x20\n      add\n      mload(0x40)\n      dup1\n      swap2\n      sub\n      swap1\n      keccak256\n        /* \"contracts/qlds/CandidateManager.sol\":1148:1175  candidates[_name].voteCount */\n      0x01\n      add\n      sload\n        /* \"contracts/qlds/CandidateManager.sol\":1134:1145  highestVote */\n      0x02\n        /* \"contracts/qlds/CandidateManager.sol\":1134:1175  highestVote = candidates[_name].voteCount */\n      dup2\n      swap1\n      sstore\n      pop\n        /* \"contracts/qlds/CandidateManager.sol\":1199:1204  _name */\n      dup1\n        /* \"contracts/qlds/CandidateManager.sol\":1189:1196  nameTop */\n      0x03\n        /* \"contracts/qlds/CandidateManager.sol\":1189:1204  nameTop = _name */\n      swap1\n      dup2\n      tag_109\n      swap2\n      swap1\n      tag_60\n      jump\t// in\n    tag_109:\n      pop\n        /* \"contracts/qlds/CandidateManager.sol\":1073:1215  if (candidates[_name].voteCount > highestVote) {... */\n    tag_107:\n        /* \"contracts/qlds/CandidateManager.sol\":889:1221  function vote(string memory _name) public {... */\n      pop\n      jump\t// out\n        /* \"#utility.yul\":7:84   */\n    tag_110:\n        /* \"#utility.yul\":44:51   */\n      0x00\n        /* \"#utility.yul\":73:78   */\n      dup2\n        /* \"#utility.yul\":62:78   */\n      swap1\n      pop\n        /* \"#utility.yul\":7:84   */\n      swap2\n      swap1\n      pop\n      jump\t// out\n        /* \"#utility.yul\":90:208   */\n    tag_111:\n        /* \"#utility.yul\":177:201   */\n      tag_159\n        /* \"#utility.yul\":195:200   */\n      dup2\n        /* \"#utility.yul\":177:201   */\n      tag_110\n      jump\t// in\n    tag_159:\n        /* \"#utility.yul\":172:175   */\n      dup3\n        /* \"#utility.yul\":165:202   */\n      mstore\n        /* \"#utility.yul\":90:208   */\n      pop\n      pop\n      jump\t// out\n        /* \"#utility.yul\":214:436   */\n    tag_17:\n        /* \"#utility.yul\":307:311   */\n      0x00\n        /* \"#utility.yul\":345:347   */\n      0x20\n        /* \"#utility.yul\":334:343   */\n      dup3\n        /* \"#utility.yul\":330:348   */\n      add\n        /* \"#utility.yul\":322:348   */\n      swap1\n      pop\n        /* \"#utility.yul\":358:429   */\n      tag_161\n        /* \"#utility.yul\":426:427   */\n      0x00\n        /* \"#utility.yul\":415:424   */\n      dup4\n        /* \"#utility.yul\":411:428   */\n      add\n        /* \"#utility.yul\":402:408   */\n      dup5\n        /* \"#utility.yul\":358:429   */\n      tag_111\n      jump\t// in\n    tag_161:\n        /* \"#utility.yul\":214:436   */\n      swap3\n      swap2\n      pop\n      pop\n      jump\t// out\n        /* \"#utility.yul\":442:517   */\n    tag_112:\n        /* \"#utility.yul\":475:481   */\n      0x00\n        /* \"#utility.yul\":508:510   */\n      0x40\n        /* \"#utility.yul\":502:511   */\n      mload\n        /* \"#utility.yul\":492:511   */\n      swap1\n      pop\n        /* \"#utility.yul\":442:517   */\n      swap1\n      jump\t// out\n        /* \"#utility.yul\":523:640   */\n    tag_113:\n        /* \"#utility.yul\":632:633   */\n      0x00\n        /* \"#utility.yul\":629:630   */\n      0x00\n        /* \"#utility.yul\":622:634   */\n      revert\n        /* \"#utility.yul\":646:763   */\n    tag_114:\n        /* \"#utility.yul\":755:756   */\n      0x00\n        /* \"#utility.yul\":752:753   */\n      0x00\n        /* \"#utility.yul\":745:757   */\n      revert\n        /* \"#utility.yul\":769:886   */\n    tag_115:\n        /* \"#utility.yul\":878:879   */\n      0x00\n        /* \"#utility.yul\":875:876   */\n      0x00\n        /* \"#utility.yul\":868:880   */\n      revert\n        /* \"#utility.yul\":892:1009   */\n    tag_116:\n        /* \"#utility.yul\":1001:1002   */\n      0x00\n        /* \"#utility.yul\":998:999   */\n      0x00\n        /* \"#utility.yul\":991:1003   */\n      revert\n        /* \"#utility.yul\":1015:1117   */\n    tag_117:\n        /* \"#utility.yul\":1056:1062   */\n      0x00\n        /* \"#utility.yul\":1107:1109   */\n      0x1f\n        /* \"#utility.yul\":1103:1110   */\n      not\n        /* \"#utility.yul\":1098:1100   */\n      0x1f\n        /* \"#utility.yul\":1091:1096   */\n      dup4\n        /* \"#utility.yul\":1087:1101   */\n      add\n        /* \"#utility.yul\":1083:1111   */\n      and\n        /* \"#utility.yul\":1073:1111   */\n      swap1\n      pop\n        /* \"#utility.yul\":1015:1117   */\n      swap2\n      swap1\n      pop\n      jump\t// out\n        /* \"#utility.yul\":1123:1303   */\n    tag_118:\n        /* \"#utility.yul\":1171:1248   */\n      0x4e487b7100000000000000000000000000000000000000000000000000000000\n        /* \"#utility.yul\":1168:1169   */\n      0x00\n        /* \"#utility.yul\":1161:1249   */\n      mstore\n        /* \"#utility.yul\":1268:1272   */\n      0x41\n        /* \"#utility.yul\":1265:1266   */\n      0x04\n        /* \"#utility.yul\":1258:1273   */\n      mstore\n        /* \"#utility.yul\":1292:1296   */\n      0x24\n        /* \"#utility.yul\":1289:1290   */\n      0x00\n        /* \"#utility.yul\":1282:1297   */\n      revert\n        /* \"#utility.yul\":1309:1590   */\n    tag_119:\n        /* \"#utility.yul\":1392:1419   */\n      tag_170\n        /* \"#utility.yul\":1414:1418   */\n      dup3\n        /* \"#utility.yul\":1392:1419   */\n      tag_117\n      jump\t// in\n    tag_170:\n        /* \"#utility.yul\":1384:1390   */\n      dup2\n        /* \"#utility.yul\":1380:1420   */\n      add\n        /* \"#utility.yul\":1522:1528   */\n      dup2\n        /* \"#utility.yul\":1510:1520   */\n      dup2\n        /* \"#utility.yul\":1507:1529   */\n      lt\n        /* \"#utility.yul\":1486:1504   */\n      0xffffffffffffffff\n        /* \"#utility.yul\":1474:1484   */\n      dup3\n        /* \"#utility.yul\":1471:1505   */\n      gt\n        /* \"#utility.yul\":1468:1530   */\n      or\n        /* \"#utility.yul\":1465:1553   */\n      iszero\n      tag_171\n      jumpi\n        /* \"#utility.yul\":1533:1551   */\n      tag_172\n      tag_118\n      jump\t// in\n    tag_172:\n        /* \"#utility.yul\":1465:1553   */\n    tag_171:\n        /* \"#utility.yul\":1573:1583   */\n      dup1\n        /* \"#utility.yul\":1569:1571   */\n      0x40\n        /* \"#utility.yul\":1562:1584   */\n      mstore\n        /* \"#utility.yul\":1352:1590   */\n      pop\n        /* \"#utility.yul\":1309:1590   */\n      pop\n      pop\n      jump\t// out\n        /* \"#utility.yul\":1596:1725   */\n    tag_120:\n        /* \"#utility.yul\":1630:1636   */\n      0x00\n        /* \"#utility.yul\":1657:1677   */\n      tag_174\n      tag_112\n      jump\t// in\n    tag_174:\n        /* \"#utility.yul\":1647:1677   */\n      swap1\n      pop\n        /* \"#utility.yul\":1686:1719   */\n      tag_175\n        /* \"#utility.yul\":1714:1718   */\n      dup3\n        /* \"#utility.yul\":1706:1712   */\n      dup3\n        /* \"#utility.yul\":1686:1719   */\n      tag_119\n      jump\t// in\n    tag_175:\n        /* \"#utility.yul\":1596:1725   */\n      swap2\n      swap1\n      pop\n      jump\t// out\n        /* \"#utility.yul\":1731:2039   */\n    tag_121:\n        /* \"#utility.yul\":1793:1797   */\n      0x00\n        /* \"#utility.yul\":1883:1901   */\n      0xffffffffffffffff\n        /* \"#utility.yul\":1875:1881   */\n      dup3\n        /* \"#utility.yul\":1872:1902   */\n      gt\n        /* \"#utility.yul\":1869:1925   */\n      iszero\n      tag_177\n      jumpi\n        /* \"#utility.yul\":1905:1923   */\n      tag_178\n      tag_118\n      jump\t// in\n    tag_178:\n        /* \"#utility.yul\":1869:1925   */\n    tag_177:\n        /* \"#utility.yul\":1943:1972   */\n      tag_179\n        /* \"#utility.yul\":1965:1971   */\n      dup3\n        /* \"#utility.yul\":1943:1972   */\n      tag_117\n      jump\t// in\n    tag_179:\n        /* \"#utility.yul\":1935:1972   */\n      swap1\n      pop\n        /* \"#utility.yul\":2027:2031   */\n      0x20\n        /* \"#utility.yul\":2021:2025   */\n      dup2\n        /* \"#utility.yul\":2017:2032   */\n      add\n        /* \"#utility.yul\":2009:2032   */\n      swap1\n      pop\n        /* \"#utility.yul\":1731:2039   */\n      swap2\n      swap1\n      pop\n      jump\t// out\n        /* \"#utility.yul\":2045:2193   */\n    tag_122:\n        /* \"#utility.yul\":2143:2149   */\n      dup3\n        /* \"#utility.yul\":2138:2141   */\n      dup2\n        /* \"#utility.yul\":2133:2136   */\n      dup4\n        /* \"#utility.yul\":2120:2150   */\n      calldatacopy\n        /* \"#utility.yul\":2184:2185   */\n      0x00\n        /* \"#utility.yul\":2175:2181   */\n      dup4\n        /* \"#utility.yul\":2170:2173   */\n      dup4\n        /* \"#utility.yul\":2166:2182   */\n      add\n        /* \"#utility.yul\":2159:2186   */\n      mstore\n        /* \"#utility.yul\":2045:2193   */\n      pop\n      pop\n      pop\n      jump\t// out\n        /* \"#utility.yul\":2199:2624   */\n    tag_123:\n        /* \"#utility.yul\":2277:2282   */\n      0x00\n        /* \"#utility.yul\":2302:2368   */\n      tag_182\n        /* \"#utility.yul\":2318:2367   */\n      tag_183\n        /* \"#utility.yul\":2360:2366   */\n      dup5\n        /* \"#utility.yul\":2318:2367   */\n      tag_121\n      jump\t// in\n    tag_183:\n        /* \"#utility.yul\":2302:2368   */\n      tag_120\n      jump\t// in\n    tag_182:\n        /* \"#utility.yul\":2293:2368   */\n      swap1\n      pop\n        /* \"#utility.yul\":2391:2397   */\n      dup3\n        /* \"#utility.yul\":2384:2389   */\n      dup2\n        /* \"#utility.yul\":2377:2398   */\n      mstore\n        /* \"#utility.yul\":2429:2433   */\n      0x20\n        /* \"#utility.yul\":2422:2427   */\n      dup2\n        /* \"#utility.yul\":2418:2434   */\n      add\n        /* \"#utility.yul\":2467:2470   */\n      dup5\n        /* \"#utility.yul\":2458:2464   */\n      dup5\n        /* \"#utility.yul\":2453:2456   */\n      dup5\n        /* \"#utility.yul\":2449:2465   */\n      add\n        /* \"#utility.yul\":2446:2471   */\n      gt\n        /* \"#utility.yul\":2443:2555   */\n      iszero\n      tag_184\n      jumpi\n        /* \"#utility.yul\":2474:2553   */\n      tag_185\n      tag_116\n      jump\t// in\n    tag_185:\n        /* \"#utility.yul\":2443:2555   */\n    tag_184:\n        /* \"#utility.yul\":2564:2618   */\n      tag_186\n        /* \"#utility.yul\":2611:2617   */\n      dup5\n        /* \"#utility.yul\":2606:2609   */\n      dup3\n        /* \"#utility.yul\":2601:2604   */\n      dup6\n        /* \"#utility.yul\":2564:2618   */\n      tag_122\n      jump\t// in\n    tag_186:\n        /* \"#utility.yul\":2283:2624   */\n      pop\n        /* \"#utility.yul\":2199:2624   */\n      swap4\n      swap3\n      pop\n      pop\n      pop\n      jump\t// out\n        /* \"#utility.yul\":2644:2984   */\n    tag_124:\n        /* \"#utility.yul\":2700:2705   */\n      0x00\n        /* \"#utility.yul\":2749:2752   */\n      dup3\n        /* \"#utility.yul\":2742:2746   */\n      0x1f\n        /* \"#utility.yul\":2734:2740   */\n      dup4\n        /* \"#utility.yul\":2730:2747   */\n      add\n        /* \"#utility.yul\":2726:2753   */\n      slt\n        /* \"#utility.yul\":2716:2838   */\n      tag_188\n      jumpi\n        /* \"#utility.yul\":2757:2836   */\n      tag_189\n      tag_115\n      jump\t// in\n    tag_189:\n        /* \"#utility.yul\":2716:2838   */\n    tag_188:\n        /* \"#utility.yul\":2874:2880   */\n      dup2\n        /* \"#utility.yul\":2861:2881   */\n      calldataload\n        /* \"#utility.yul\":2899:2978   */\n      tag_190\n        /* \"#utility.yul\":2974:2977   */\n      dup5\n        /* \"#utility.yul\":2966:2972   */\n      dup3\n        /* \"#utility.yul\":2959:2963   */\n      0x20\n        /* \"#utility.yul\":2951:2957   */\n      dup7\n        /* \"#utility.yul\":2947:2964   */\n      add\n        /* \"#utility.yul\":2899:2978   */\n      tag_123\n      jump\t// in\n    tag_190:\n        /* \"#utility.yul\":2890:2978   */\n      swap2\n      pop\n        /* \"#utility.yul\":2706:2984   */\n      pop\n        /* \"#utility.yul\":2644:2984   */\n      swap3\n      swap2\n      pop\n      pop\n      jump\t// out\n        /* \"#utility.yul\":2990:3499   */\n    tag_20:\n        /* \"#utility.yul\":3059:3065   */\n      0x00\n        /* \"#utility.yul\":3108:3110   */\n      0x20\n        /* \"#utility.yul\":3096:3105   */\n      dup3\n        /* \"#utility.yul\":3087:3094   */\n      dup5\n        /* \"#utility.yul\":3083:3106   */\n      sub\n        /* \"#utility.yul\":3079:3111   */\n      slt\n        /* \"#utility.yul\":3076:3195   */\n      iszero\n      tag_192\n      jumpi\n        /* \"#utility.yul\":3114:3193   */\n      tag_193\n      tag_113\n      jump\t// in\n    tag_193:\n        /* \"#utility.yul\":3076:3195   */\n    tag_192:\n        /* \"#utility.yul\":3262:3263   */\n      0x00\n        /* \"#utility.yul\":3251:3260   */\n      dup3\n        /* \"#utility.yul\":3247:3264   */\n      add\n        /* \"#utility.yul\":3234:3265   */\n      calldataload\n        /* \"#utility.yul\":3292:3310   */\n      0xffffffffffffffff\n        /* \"#utility.yul\":3284:3290   */\n      dup2\n        /* \"#utility.yul\":3281:3311   */\n      gt\n        /* \"#utility.yul\":3278:3395   */\n      iszero\n      tag_194\n      jumpi\n        /* \"#utility.yul\":3314:3393   */\n      tag_195\n      tag_114\n      jump\t// in\n    tag_195:\n        /* \"#utility.yul\":3278:3395   */\n    tag_194:\n        /* \"#utility.yul\":3419:3482   */\n      tag_196\n        /* \"#utility.yul\":3474:3481   */\n      dup5\n        /* \"#utility.yul\":3465:3471   */\n      dup3\n        /* \"#utility.yul\":3454:3463   */\n      dup6\n        /* \"#utility.yul\":3450:3472   */\n      add\n        /* \"#utility.yul\":3419:3482   */\n      tag_124\n      jump\t// in\n    tag_196:\n        /* \"#utility.yul\":3409:3482   */\n      swap2\n      pop\n        /* \"#utility.yul\":3205:3492   */\n      pop\n        /* \"#utility.yul\":2990:3499   */\n      swap3\n      swap2\n      pop\n      pop\n      jump\t// out\n        /* \"#utility.yul\":3505:3604   */\n    tag_125:\n        /* \"#utility.yul\":3557:3563   */\n      0x00\n        /* \"#utility.yul\":3591:3596   */\n      dup2\n        /* \"#utility.yul\":3585:3597   */\n      mload\n        /* \"#utility.yul\":3575:3597   */\n      swap1\n      pop\n        /* \"#utility.yul\":3505:3604   */\n      swap2\n      swap1\n      pop\n      jump\t// out\n        /* \"#utility.yul\":3610:3779   */\n    tag_126:\n        /* \"#utility.yul\":3694:3705   */\n      0x00\n        /* \"#utility.yul\":3728:3734   */\n      dup3\n        /* \"#utility.yul\":3723:3726   */\n      dup3\n        /* \"#utility.yul\":3716:3735   */\n      mstore\n        /* \"#utility.yul\":3768:3772   */\n      0x20\n        /* \"#utility.yul\":3763:3766   */\n      dup3\n        /* \"#utility.yul\":3759:3773   */\n      add\n        /* \"#utility.yul\":3744:3773   */\n      swap1\n      pop\n        /* \"#utility.yul\":3610:3779   */\n      swap3\n      swap2\n      pop\n      pop\n      jump\t// out\n        /* \"#utility.yul\":3785:3924   */\n    tag_127:\n        /* \"#utility.yul\":3874:3880   */\n      dup3\n        /* \"#utility.yul\":3869:3872   */\n      dup2\n        /* \"#utility.yul\":3864:3867   */\n      dup4\n        /* \"#utility.yul\":3858:3881   */\n      mcopy\n        /* \"#utility.yul\":3915:3916   */\n      0x00\n        /* \"#utility.yul\":3906:3912   */\n      dup4\n        /* \"#utility.yul\":3901:3904   */\n      dup4\n        /* \"#utility.yul\":3897:3913   */\n      add\n        /* \"#utility.yul\":3890:3917   */\n      mstore\n        /* \"#utility.yul\":3785:3924   */\n      pop\n      pop\n      pop\n      jump\t// out\n        /* \"#utility.yul\":3930:4307   */\n    tag_128:\n        /* \"#utility.yul\":4018:4021   */\n      0x00\n        /* \"#utility.yul\":4046:4085   */\n      tag_201\n        /* \"#utility.yul\":4079:4084   */\n      dup3\n        /* \"#utility.yul\":4046:4085   */\n      tag_125\n      jump\t// in\n    tag_201:\n        /* \"#utility.yul\":4101:4172   */\n      tag_202\n        /* \"#utility.yul\":4165:4171   */\n      dup2\n        /* \"#utility.yul\":4160:4163   */\n      dup6\n        /* \"#utility.yul\":4101:4172   */\n      tag_126\n      jump\t// in\n    tag_202:\n        /* \"#utility.yul\":4094:4172   */\n      swap4\n      pop\n        /* \"#utility.yul\":4181:4246   */\n      tag_203\n        /* \"#utility.yul\":4239:4245   */\n      dup2\n        /* \"#utility.yul\":4234:4237   */\n      dup6\n        /* \"#utility.yul\":4227:4231   */\n      0x20\n        /* \"#utility.yul\":4220:4225   */\n      dup7\n        /* \"#utility.yul\":4216:4232   */\n      add\n        /* \"#utility.yul\":4181:4246   */\n      tag_127\n      jump\t// in\n    tag_203:\n        /* \"#utility.yul\":4271:4300   */\n      tag_204\n        /* \"#utility.yul\":4293:4299   */\n      dup2\n        /* \"#utility.yul\":4271:4300   */\n      tag_117\n      jump\t// in\n    tag_204:\n        /* \"#utility.yul\":4266:4269   */\n      dup5\n        /* \"#utility.yul\":4262:4301   */\n      add\n        /* \"#utility.yul\":4255:4301   */\n      swap2\n      pop\n        /* \"#utility.yul\":4022:4307   */\n      pop\n        /* \"#utility.yul\":3930:4307   */\n      swap3\n      swap2\n      pop\n      pop\n      jump\t// out\n        /* \"#utility.yul\":4313:4626   */\n    tag_25:\n        /* \"#utility.yul\":4426:4430   */\n      0x00\n        /* \"#utility.yul\":4464:4466   */\n      0x20\n        /* \"#utility.yul\":4453:4462   */\n      dup3\n        /* \"#utility.yul\":4449:4467   */\n      add\n        /* \"#utility.yul\":4441:4467   */\n      swap1\n      pop\n        /* \"#utility.yul\":4513:4522   */\n      dup2\n        /* \"#utility.yul\":4507:4511   */\n      dup2\n        /* \"#utility.yul\":4503:4523   */\n      sub\n        /* \"#utility.yul\":4499:4500   */\n      0x00\n        /* \"#utility.yul\":4488:4497   */\n      dup4\n        /* \"#utility.yul\":4484:4501   */\n      add\n        /* \"#utility.yul\":4477:4524   */\n      mstore\n        /* \"#utility.yul\":4541:4619   */\n      tag_206\n        /* \"#utility.yul\":4614:4618   */\n      dup2\n        /* \"#utility.yul\":4605:4611   */\n      dup5\n        /* \"#utility.yul\":4541:4619   */\n      tag_128\n      jump\t// in\n    tag_206:\n        /* \"#utility.yul\":4533:4619   */\n      swap1\n      pop\n        /* \"#utility.yul\":4313:4626   */\n      swap3\n      swap2\n      pop\n      pop\n      jump\t// out\n        /* \"#utility.yul\":4632:4722   */\n    tag_129:\n        /* \"#utility.yul\":4666:4673   */\n      0x00\n        /* \"#utility.yul\":4709:4714   */\n      dup2\n        /* \"#utility.yul\":4702:4715   */\n      iszero\n        /* \"#utility.yul\":4695:4716   */\n      iszero\n        /* \"#utility.yul\":4684:4716   */\n      swap1\n      pop\n        /* \"#utility.yul\":4632:4722   */\n      swap2\n      swap1\n      pop\n      jump\t// out\n        /* \"#utility.yul\":4728:4837   */\n    tag_130:\n        /* \"#utility.yul\":4809:4830   */\n      tag_209\n        /* \"#utility.yul\":4824:4829   */\n      dup2\n        /* \"#utility.yul\":4809:4830   */\n      tag_129\n      jump\t// in\n    tag_209:\n        /* \"#utility.yul\":4804:4807   */\n      dup3\n        /* \"#utility.yul\":4797:4831   */\n      mstore\n        /* \"#utility.yul\":4728:4837   */\n      pop\n      pop\n      jump\t// out\n        /* \"#utility.yul\":4843:5053   */\n    tag_30:\n        /* \"#utility.yul\":4930:4934   */\n      0x00\n        /* \"#utility.yul\":4968:4970   */\n      0x20\n        /* \"#utility.yul\":4957:4966   */\n      dup3\n        /* \"#utility.yul\":4953:4971   */\n      add\n        /* \"#utility.yul\":4945:4971   */\n      swap1\n      pop\n        /* \"#utility.yul\":4981:5046   */\n      tag_211\n        /* \"#utility.yul\":5043:5044   */\n      0x00\n        /* \"#utility.yul\":5032:5041   */\n      dup4\n        /* \"#utility.yul\":5028:5045   */\n      add\n        /* \"#utility.yul\":5019:5025   */\n      dup5\n        /* \"#utility.yul\":4981:5046   */\n      tag_130\n      jump\t// in\n    tag_211:\n        /* \"#utility.yul\":4843:5053   */\n      swap3\n      swap2\n      pop\n      pop\n      jump\t// out\n        /* \"#utility.yul\":5059:5482   */\n    tag_41:\n        /* \"#utility.yul\":5200:5204   */\n      0x00\n        /* \"#utility.yul\":5238:5240   */\n      0x40\n        /* \"#utility.yul\":5227:5236   */\n      dup3\n        /* \"#utility.yul\":5223:5241   */\n      add\n        /* \"#utility.yul\":5215:5241   */\n      swap1\n      pop\n        /* \"#utility.yul\":5287:5296   */\n      dup2\n        /* \"#utility.yul\":5281:5285   */\n      dup2\n        /* \"#utility.yul\":5277:5297   */\n      sub\n        /* \"#utility.yul\":5273:5274   */\n      0x00\n        /* \"#utility.yul\":5262:5271   */\n      dup4\n        /* \"#utility.yul\":5258:5275   */\n      add\n        /* \"#utility.yul\":5251:5298   */\n      mstore\n        /* \"#utility.yul\":5315:5393   */\n      tag_213\n        /* \"#utility.yul\":5388:5392   */\n      dup2\n        /* \"#utility.yul\":5379:5385   */\n      dup6\n        /* \"#utility.yul\":5315:5393   */\n      tag_128\n      jump\t// in\n    tag_213:\n        /* \"#utility.yul\":5307:5393   */\n      swap1\n      pop\n        /* \"#utility.yul\":5403:5475   */\n      tag_214\n        /* \"#utility.yul\":5471:5473   */\n      0x20\n        /* \"#utility.yul\":5460:5469   */\n      dup4\n        /* \"#utility.yul\":5456:5474   */\n      add\n        /* \"#utility.yul\":5447:5453   */\n      dup5\n        /* \"#utility.yul\":5403:5475   */\n      tag_111\n      jump\t// in\n    tag_214:\n        /* \"#utility.yul\":5059:5482   */\n      swap4\n      swap3\n      pop\n      pop\n      pop\n      jump\t// out\n        /* \"#utility.yul\":5488:5662   */\n    tag_131:\n        /* \"#utility.yul\":5628:5654   */\n      0x43616e64696461746520616c7265616479206578697374730000000000000000\n        /* \"#utility.yul\":5624:5625   */\n      0x00\n        /* \"#utility.yul\":5616:5622   */\n      dup3\n        /* \"#utility.yul\":5612:5626   */\n      add\n        /* \"#utility.yul\":5605:5655   */\n      mstore\n        /* \"#utility.yul\":5488:5662   */\n      pop\n      jump\t// out\n        /* \"#utility.yul\":5668:6034   */\n    tag_132:\n        /* \"#utility.yul\":5810:5813   */\n      0x00\n        /* \"#utility.yul\":5831:5898   */\n      tag_217\n        /* \"#utility.yul\":5895:5897   */\n      0x18\n        /* \"#utility.yul\":5890:5893   */\n      dup4\n        /* \"#utility.yul\":5831:5898   */\n      tag_126\n      jump\t// in\n    tag_217:\n        /* \"#utility.yul\":5824:5898   */\n      swap2\n      pop\n        /* \"#utility.yul\":5907:6000   */\n      tag_218\n        /* \"#utility.yul\":5996:5999   */\n      dup3\n        /* \"#utility.yul\":5907:6000   */\n      tag_131\n      jump\t// in\n    tag_218:\n        /* \"#utility.yul\":6025:6027   */\n      0x20\n        /* \"#utility.yul\":6020:6023   */\n      dup3\n        /* \"#utility.yul\":6016:6028   */\n      add\n        /* \"#utility.yul\":6009:6028   */\n      swap1\n      pop\n        /* \"#utility.yul\":5668:6034   */\n      swap2\n      swap1\n      pop\n      jump\t// out\n        /* \"#utility.yul\":6040:6459   */\n    tag_56:\n        /* \"#utility.yul\":6206:6210   */\n      0x00\n        /* \"#utility.yul\":6244:6246   */\n      0x20\n        /* \"#utility.yul\":6233:6242   */\n      dup3\n        /* \"#utility.yul\":6229:6247   */\n      add\n        /* \"#utility.yul\":6221:6247   */\n      swap1\n      pop\n        /* \"#utility.yul\":6293:6302   */\n      dup2\n        /* \"#utility.yul\":6287:6291   */\n      dup2\n        /* \"#utility.yul\":6283:6303   */\n      sub\n        /* \"#utility.yul\":6279:6280   */\n      0x00\n        /* \"#utility.yul\":6268:6277   */\n      dup4\n        /* \"#utility.yul\":6264:6281   */\n      add\n        /* \"#utility.yul\":6257:6304   */\n      mstore\n        /* \"#utility.yul\":6321:6452   */\n      tag_220\n        /* \"#utility.yul\":6447:6451   */\n      dup2\n        /* \"#utility.yul\":6321:6452   */\n      tag_132\n      jump\t// in\n    tag_220:\n        /* \"#utility.yul\":6313:6452   */\n      swap1\n      pop\n        /* \"#utility.yul\":6040:6459   */\n      swap2\n      swap1\n      pop\n      jump\t// out\n        /* \"#utility.yul\":6465:6613   */\n    tag_133:\n        /* \"#utility.yul\":6567:6578   */\n      0x00\n        /* \"#utility.yul\":6604:6607   */\n      dup2\n        /* \"#utility.yul\":6589:6607   */\n      swap1\n      pop\n        /* \"#utility.yul\":6465:6613   */\n      swap3\n      swap2\n      pop\n      pop\n      jump\t// out\n        /* \"#utility.yul\":6619:7009   */\n    tag_134:\n        /* \"#utility.yul\":6725:6728   */\n      0x00\n        /* \"#utility.yul\":6753:6792   */\n      tag_223\n        /* \"#utility.yul\":6786:6791   */\n      dup3\n        /* \"#utility.yul\":6753:6792   */\n      tag_125\n      jump\t// in\n    tag_223:\n        /* \"#utility.yul\":6808:6897   */\n      tag_224\n        /* \"#utility.yul\":6890:6896   */\n      dup2\n        /* \"#utility.yul\":6885:6888   */\n      dup6\n        /* \"#utility.yul\":6808:6897   */\n      tag_133\n      jump\t// in\n    tag_224:\n        /* \"#utility.yul\":6801:6897   */\n      swap4\n      pop\n        /* \"#utility.yul\":6906:6971   */\n      tag_225\n        /* \"#utility.yul\":6964:6970   */\n      dup2\n        /* \"#utility.yul\":6959:6962   */\n      dup6\n        /* \"#utility.yul\":6952:6956   */\n      0x20\n        /* \"#utility.yul\":6945:6950   */\n      dup7\n        /* \"#utility.yul\":6941:6957   */\n      add\n        /* \"#utility.yul\":6906:6971   */\n      tag_127\n      jump\t// in\n    tag_225:\n        /* \"#utility.yul\":6996:7002   */\n      dup1\n        /* \"#utility.yul\":6991:6994   */\n      dup5\n        /* \"#utility.yul\":6987:7003   */\n      add\n        /* \"#utility.yul\":6980:7003   */\n      swap2\n      pop\n        /* \"#utility.yul\":6729:7009   */\n      pop\n        /* \"#utility.yul\":6619:7009   */\n      swap3\n      swap2\n      pop\n      pop\n      jump\t// out\n        /* \"#utility.yul\":7015:7290   */\n    tag_58:\n        /* \"#utility.yul\":7147:7150   */\n      0x00\n        /* \"#utility.yul\":7169:7264   */\n      tag_227\n        /* \"#utility.yul\":7260:7263   */\n      dup3\n        /* \"#utility.yul\":7251:7257   */\n      dup5\n        /* \"#utility.yul\":7169:7264   */\n      tag_134\n      jump\t// in\n    tag_227:\n        /* \"#utility.yul\":7162:7264   */\n      swap2\n      pop\n        /* \"#utility.yul\":7281:7284   */\n      dup2\n        /* \"#utility.yul\":7274:7284   */\n      swap1\n      pop\n        /* \"#utility.yul\":7015:7290   */\n      swap3\n      swap2\n      pop\n      pop\n      jump\t// out\n        /* \"#utility.yul\":7296:7476   */\n    tag_135:\n        /* \"#utility.yul\":7344:7421   */\n      0x4e487b7100000000000000000000000000000000000000000000000000000000\n        /* \"#utility.yul\":7341:7342   */\n      0x00\n        /* \"#utility.yul\":7334:7422   */\n      mstore\n        /* \"#utility.yul\":7441:7445   */\n      0x22\n        /* \"#utility.yul\":7438:7439   */\n      0x04\n        /* \"#utility.yul\":7431:7446   */\n      mstore\n        /* \"#utility.yul\":7465:7469   */\n      0x24\n        /* \"#utility.yul\":7462:7463   */\n      0x00\n        /* \"#utility.yul\":7455:7470   */\n      revert\n        /* \"#utility.yul\":7482:7802   */\n    tag_62:\n        /* \"#utility.yul\":7526:7532   */\n      0x00\n        /* \"#utility.yul\":7563:7564   */\n      0x02\n        /* \"#utility.yul\":7557:7561   */\n      dup3\n        /* \"#utility.yul\":7553:7565   */\n      div\n        /* \"#utility.yul\":7543:7565   */\n      swap1\n      pop\n        /* \"#utility.yul\":7610:7611   */\n      0x01\n        /* \"#utility.yul\":7604:7608   */\n      dup3\n        /* \"#utility.yul\":7600:7612   */\n      and\n        /* \"#utility.yul\":7631:7649   */\n      dup1\n        /* \"#utility.yul\":7621:7702   */\n      tag_230\n      jumpi\n        /* \"#utility.yul\":7687:7691   */\n      0x7f\n        /* \"#utility.yul\":7679:7685   */\n      dup3\n        /* \"#utility.yul\":7675:7692   */\n      and\n        /* \"#utility.yul\":7665:7692   */\n      swap2\n      pop\n        /* \"#utility.yul\":7621:7702   */\n    tag_230:\n        /* \"#utility.yul\":7749:7751   */\n      0x20\n        /* \"#utility.yul\":7741:7747   */\n      dup3\n        /* \"#utility.yul\":7738:7752   */\n      lt\n        /* \"#utility.yul\":7718:7736   */\n      dup2\n        /* \"#utility.yul\":7715:7753   */\n      sub\n        /* \"#utility.yul\":7712:7796   */\n      tag_231\n      jumpi\n        /* \"#utility.yul\":7768:7786   */\n      tag_232\n      tag_135\n      jump\t// in\n    tag_232:\n        /* \"#utility.yul\":7712:7796   */\n    tag_231:\n        /* \"#utility.yul\":7533:7802   */\n      pop\n        /* \"#utility.yul\":7482:7802   */\n      swap2\n      swap1\n      pop\n      jump\t// out\n        /* \"#utility.yul\":7808:7949   */\n    tag_136:\n        /* \"#utility.yul\":7857:7861   */\n      0x00\n        /* \"#utility.yul\":7880:7883   */\n      dup2\n        /* \"#utility.yul\":7872:7883   */\n      swap1\n      pop\n        /* \"#utility.yul\":7903:7906   */\n      dup2\n        /* \"#utility.yul\":7900:7901   */\n      0x00\n        /* \"#utility.yul\":7893:7907   */\n      mstore\n        /* \"#utility.yul\":7937:7941   */\n      0x20\n        /* \"#utility.yul\":7934:7935   */\n      0x00\n        /* \"#utility.yul\":7924:7942   */\n      keccak256\n        /* \"#utility.yul\":7916:7942   */\n      swap1\n      pop\n        /* \"#utility.yul\":7808:7949   */\n      swap2\n      swap1\n      pop\n      jump\t// out\n        /* \"#utility.yul\":7955:8048   */\n    tag_137:\n        /* \"#utility.yul\":7992:7998   */\n      0x00\n        /* \"#utility.yul\":8039:8041   */\n      0x20\n        /* \"#utility.yul\":8034:8036   */\n      0x1f\n        /* \"#utility.yul\":8027:8032   */\n      dup4\n        /* \"#utility.yul\":8023:8037   */\n      add\n        /* \"#utility.yul\":8019:8042   */\n      div\n        /* \"#utility.yul\":8009:8042   */\n      swap1\n      pop\n        /* \"#utility.yul\":7955:8048   */\n      swap2\n      swap1\n      pop\n      jump\t// out\n        /* \"#utility.yul\":8054:8161   */\n    tag_138:\n        /* \"#utility.yul\":8098:8106   */\n      0x00\n        /* \"#utility.yul\":8148:8153   */\n      dup3\n        /* \"#utility.yul\":8142:8146   */\n      dup3\n        /* \"#utility.yul\":8138:8154   */\n      shl\n        /* \"#utility.yul\":8117:8154   */\n      swap1\n      pop\n        /* \"#utility.yul\":8054:8161   */\n      swap3\n      swap2\n      pop\n      pop\n      jump\t// out\n        /* \"#utility.yul\":8167:8560   */\n    tag_139:\n        /* \"#utility.yul\":8236:8242   */\n      0x00\n        /* \"#utility.yul\":8286:8287   */\n      0x08\n        /* \"#utility.yul\":8274:8284   */\n      dup4\n        /* \"#utility.yul\":8270:8288   */\n      mul\n        /* \"#utility.yul\":8309:8406   */\n      tag_237\n        /* \"#utility.yul\":8339:8405   */\n      0xffffffffffffffffffffffffffffffffffffffffffffffffffffffffffffffff\n        /* \"#utility.yul\":8328:8337   */\n      dup3\n        /* \"#utility.yul\":8309:8406   */\n      tag_138\n      jump\t// in\n    tag_237:\n        /* \"#utility.yul\":8427:8466   */\n      tag_238\n        /* \"#utility.yul\":8457:8465   */\n      dup7\n        /* \"#utility.yul\":8446:8455   */\n      dup4\n        /* \"#utility.yul\":8427:8466   */\n      tag_138\n      jump\t// in\n    tag_238:\n        /* \"#utility.yul\":8415:8466   */\n      swap6\n      pop\n        /* \"#utility.yul\":8499:8503   */\n      dup1\n        /* \"#utility.yul\":8495:8504   */\n      not\n        /* \"#utility.yul\":8488:8493   */\n      dup5\n        /* \"#utility.yul\":8484:8505   */\n      and\n        /* \"#utility.yul\":8475:8505   */\n      swap4\n      pop\n        /* \"#utility.yul\":8548:8552   */\n      dup1\n        /* \"#utility.yul\":8538:8546   */\n      dup7\n        /* \"#utility.yul\":8534:8553   */\n      and\n        /* \"#utility.yul\":8527:8532   */\n      dup5\n        /* \"#utility.yul\":8524:8554   */\n      or\n        /* \"#utility.yul\":8514:8554   */\n      swap3\n      pop\n        /* \"#utility.yul\":8243:8560   */\n      pop\n      pop\n        /* \"#utility.yul\":8167:8560   */\n      swap4\n      swap3\n      pop\n      pop\n      pop\n      jump\t// out\n        /* \"#utility.yul\":8566:8626   */\n    tag_140:\n        /* \"#utility.yul\":8594:8597   */\n      0x00\n        /* \"#utility.yul\":8615:8620   */\n      dup2\n        /* \"#utility.yul\":8608:8620   */\n      swap1\n      pop\n        /* \"#utility.yul\":8566:8626   */\n      swap2\n      swap1\n      pop\n      jump\t// out\n        /* \"#utility.yul\":8632:8774   */\n    tag_141:\n        /* \"#utility.yul\":8682:8691   */\n      0x00\n        /* \"#utility.yul\":8715:8768   */\n      tag_241\n        /* \"#utility.yul\":8733:8767   */\n      tag_242\n        /* \"#utility.yul\":8742:8766   */\n      tag_243\n        /* \"#utility.yul\":8760:8765   */\n      dup5\n        /* \"#utility.yul\":8742:8766   */\n      tag_110\n      jump\t// in\n    tag_243:\n        /* \"#utility.yul\":8733:8767   */\n      tag_140\n      jump\t// in\n    tag_242:\n        /* \"#utility.yul\":8715:8768   */\n      tag_110\n      jump\t// in\n    tag_241:\n        /* \"#utility.yul\":8702:8768   */\n      swap1\n      pop\n        /* \"#utility.yul\":8632:8774   */\n      swap2\n      swap1\n      pop\n      jump\t// out\n        /* \"#utility.yul\":8780:8855   */\n    tag_142:\n        /* \"#utility.yul\":8823:8826   */\n      0x00\n        /* \"#utility.yul\":8844:8849   */\n      dup2\n        /* \"#utility.yul\":8837:8849   */\n      swap1\n      pop\n        /* \"#utility.yul\":8780:8855   */\n      swap2\n      swap1\n      pop\n      jump\t// out\n        /* \"#utility.yul\":8861:9130   */\n    tag_143:\n        /* \"#utility.yul\":8971:9010   */\n      tag_246\n        /* \"#utility.yul\":9002:9009   */\n      dup4\n        /* \"#utility.yul\":8971:9010   */\n      tag_141\n      jump\t// in\n    tag_246:\n        /* \"#utility.yul\":9032:9123   */\n      tag_247\n        /* \"#utility.yul\":9081:9122   */\n      tag_248\n        /* \"#utility.yul\":9105:9121   */\n      dup3\n        /* \"#utility.yul\":9081:9122   */\n      tag_142\n      jump\t// in\n    tag_248:\n        /* \"#utility.yul\":9073:9079   */\n      dup5\n        /* \"#utility.yul\":9066:9070   */\n      dup5\n        /* \"#utility.yul\":9060:9071   */\n      sload\n        /* \"#utility.yul\":9032:9123   */\n      tag_139\n      jump\t// in\n    tag_247:\n        /* \"#utility.yul\":9026:9030   */\n      dup3\n        /* \"#utility.yul\":9019:9124   */\n      sstore\n        /* \"#utility.yul\":8937:9130   */\n      pop\n        /* \"#utility.yul\":8861:9130   */\n      pop\n      pop\n      pop\n      jump\t// out\n        /* \"#utility.yul\":9136:9209   */\n    tag_144:\n        /* \"#utility.yul\":9181:9184   */\n      0x00\n        /* \"#utility.yul\":9202:9203   */\n      0x00\n        /* \"#utility.yul\":9195:9203   */\n      swap1\n      pop\n        /* \"#utility.yul\":9136:9209   */\n      swap1\n      jump\t// out\n        /* \"#utility.yul\":9215:9404   */\n    tag_145:\n        /* \"#utility.yul\":9292:9324   */\n      tag_251\n      tag_144\n      jump\t// in\n    tag_251:\n        /* \"#utility.yul\":9333:9398   */\n      tag_252\n        /* \"#utility.yul\":9391:9397   */\n      dup2\n        /* \"#utility.yul\":9383:9389   */\n      dup5\n        /* \"#utility.yul\":9377:9381   */\n      dup5\n        /* \"#utility.yul\":9333:9398   */\n      tag_143\n      jump\t// in\n    tag_252:\n        /* \"#utility.yul\":9268:9404   */\n      pop\n        /* \"#utility.yul\":9215:9404   */\n      pop\n      pop\n      jump\t// out\n        /* \"#utility.yul\":9410:9596   */\n    tag_146:\n        /* \"#utility.yul\":9470:9590   */\n    tag_254:\n        /* \"#utility.yul\":9487:9490   */\n      dup2\n        /* \"#utility.yul\":9480:9485   */\n      dup2\n        /* \"#utility.yul\":9477:9491   */\n      lt\n        /* \"#utility.yul\":9470:9590   */\n      iszero\n      tag_256\n      jumpi\n        /* \"#utility.yul\":9541:9580   */\n      tag_257\n        /* \"#utility.yul\":9578:9579   */\n      0x00\n        /* \"#utility.yul\":9571:9576   */\n      dup3\n        /* \"#utility.yul\":9541:9580   */\n      tag_145\n      jump\t// in\n    tag_257:\n        /* \"#utility.yul\":9514:9515   */\n      0x01\n        /* \"#utility.yul\":9507:9512   */\n      dup2\n        /* \"#utility.yul\":9503:9516   */\n      add\n        /* \"#utility.yul\":9494:9516   */\n      swap1\n      pop\n        /* \"#utility.yul\":9470:9590   */\n      jump(tag_254)\n    tag_256:\n        /* \"#utility.yul\":9410:9596   */\n      pop\n      pop\n      jump\t// out\n        /* \"#utility.yul\":9602:10145   */\n    tag_147:\n        /* \"#utility.yul\":9703:9705   */\n      0x1f\n        /* \"#utility.yul\":9698:9701   */\n      dup3\n        /* \"#utility.yul\":9695:9706   */\n      gt\n        /* \"#utility.yul\":9692:10138   */\n      iszero\n      tag_259\n      jumpi\n        /* \"#utility.yul\":9737:9775   */\n      tag_260\n        /* \"#utility.yul\":9769:9774   */\n      dup2\n        /* \"#utility.yul\":9737:9775   */\n      tag_136\n      jump\t// in\n    tag_260:\n        /* \"#utility.yul\":9821:9850   */\n      tag_261\n        /* \"#utility.yul\":9839:9849   */\n      dup5\n        /* \"#utility.yul\":9821:9850   */\n      tag_137\n      jump\t// in\n    tag_261:\n        /* \"#utility.yul\":9811:9819   */\n      dup2\n        /* \"#utility.yul\":9807:9851   */\n      add\n        /* \"#utility.yul\":10004:10006   */\n      0x20\n        /* \"#utility.yul\":9992:10002   */\n      dup6\n        /* \"#utility.yul\":9989:10007   */\n      lt\n        /* \"#utility.yul\":9986:10035   */\n      iszero\n      tag_262\n      jumpi\n        /* \"#utility.yul\":10025:10033   */\n      dup2\n        /* \"#utility.yul\":10010:10033   */\n      swap1\n      pop\n        /* \"#utility.yul\":9986:10035   */\n    tag_262:\n        /* \"#utility.yul\":10048:10128   */\n      tag_263\n        /* \"#utility.yul\":10104:10126   */\n      tag_264\n        /* \"#utility.yul\":10122:10125   */\n      dup6\n        /* \"#utility.yul\":10104:10126   */\n      tag_137\n      jump\t// in\n    tag_264:\n        /* \"#utility.yul\":10094:10102   */\n      dup4\n        /* \"#utility.yul\":10090:10127   */\n      add\n        /* \"#utility.yul\":10077:10088   */\n      dup3\n        /* \"#utility.yul\":10048:10128   */\n      tag_146\n      jump\t// in\n    tag_263:\n        /* \"#utility.yul\":9707:10138   */\n      pop\n      pop\n        /* \"#utility.yul\":9692:10138   */\n    tag_259:\n        /* \"#utility.yul\":9602:10145   */\n      pop\n      pop\n      pop\n      jump\t// out\n        /* \"#utility.yul\":10151:10268   */\n    tag_148:\n        /* \"#utility.yul\":10205:10213   */\n      0x00\n        /* \"#utility.yul\":10255:10260   */\n      dup3\n        /* \"#utility.yul\":10249:10253   */\n      dup3\n        /* \"#utility.yul\":10245:10261   */\n      shr\n        /* \"#utility.yul\":10224:10261   */\n      swap1\n      pop\n        /* \"#utility.yul\":10151:10268   */\n      swap3\n      swap2\n      pop\n      pop\n      jump\t// out\n        /* \"#utility.yul\":10274:10443   */\n    tag_149:\n        /* \"#utility.yul\":10318:10324   */\n      0x00\n        /* \"#utility.yul\":10351:10402   */\n      tag_267\n        /* \"#utility.yul\":10399:10400   */\n      0x00\n        /* \"#utility.yul\":10395:10401   */\n      not\n        /* \"#utility.yul\":10387:10392   */\n      dup5\n        /* \"#utility.yul\":10384:10385   */\n      0x08\n        /* \"#utility.yul\":10380:10393   */\n      mul\n        /* \"#utility.yul\":10351:10402   */\n      tag_148\n      jump\t// in\n    tag_267:\n        /* \"#utility.yul\":10347:10403   */\n      not\n        /* \"#utility.yul\":10432:10436   */\n      dup1\n        /* \"#utility.yul\":10426:10430   */\n      dup4\n        /* \"#utility.yul\":10422:10437   */\n      and\n        /* \"#utility.yul\":10412:10437   */\n      swap2\n      pop\n        /* \"#utility.yul\":10325:10443   */\n      pop\n        /* \"#utility.yul\":10274:10443   */\n      swap3\n      swap2\n      pop\n      pop\n      jump\t// out\n        /* \"#utility.yul\":10448:10743   */\n    tag_150:\n        /* \"#utility.yul\":10524:10528   */\n      0x00\n        /* \"#utility.yul\":10670:10699   */\n      tag_269\n        /* \"#utility.yul\":10695:10698   */\n      dup4\n        /* \"#utility.yul\":10689:10693   */\n      dup4\n        /* \"#utility.yul\":10670:10699   */\n      tag_149\n      jump\t// in\n    tag_269:\n        /* \"#utility.yul\":10662:10699   */\n      swap2\n      pop\n        /* \"#utility.yul\":10732:10735   */\n      dup3\n        /* \"#utility.yul\":10729:10730   */\n      0x02\n        /* \"#utility.yul\":10725:10736   */\n      mul\n        /* \"#utility.yul\":10719:10723   */\n      dup3\n        /* \"#utility.yul\":10716:10737   */\n      or\n        /* \"#utility.yul\":10708:10737   */\n      swap1\n      pop\n        /* \"#utility.yul\":10448:10743   */\n      swap3\n      swap2\n      pop\n      pop\n      jump\t// out\n        /* \"#utility.yul\":10748:12143   */\n    tag_60:\n        /* \"#utility.yul\":10865:10902   */\n      tag_271\n        /* \"#utility.yul\":10898:10901   */\n      dup3\n        /* \"#utility.yul\":10865:10902   */\n      tag_125\n      jump\t// in\n    tag_271:\n        /* \"#utility.yul\":10967:10985   */\n      0xffffffffffffffff\n        /* \"#utility.yul\":10959:10965   */\n      dup2\n        /* \"#utility.yul\":10956:10986   */\n      gt\n        /* \"#utility.yul\":10953:11009   */\n      iszero\n      tag_272\n      jumpi\n        /* \"#utility.yul\":10989:11007   */\n      tag_273\n      tag_118\n      jump\t// in\n    tag_273:\n        /* \"#utility.yul\":10953:11009   */\n    tag_272:\n        /* \"#utility.yul\":11033:11071   */\n      tag_274\n        /* \"#utility.yul\":11065:11069   */\n      dup3\n        /* \"#utility.yul\":11059:11070   */\n      sload\n        /* \"#utility.yul\":11033:11071   */\n      tag_62\n      jump\t// in\n    tag_274:\n        /* \"#utility.yul\":11118:11185   */\n      tag_275\n        /* \"#utility.yul\":11178:11184   */\n      dup3\n        /* \"#utility.yul\":11170:11176   */\n      dup3\n        /* \"#utility.yul\":11164:11168   */\n      dup6\n        /* \"#utility.yul\":11118:11185   */\n      tag_147\n      jump\t// in\n    tag_275:\n        /* \"#utility.yul\":11212:11213   */\n      0x00\n        /* \"#utility.yul\":11236:11240   */\n      0x20\n        /* \"#utility.yul\":11223:11240   */\n      swap1\n      pop\n        /* \"#utility.yul\":11268:11270   */\n      0x1f\n        /* \"#utility.yul\":11260:11266   */\n      dup4\n        /* \"#utility.yul\":11257:11271   */\n      gt\n        /* \"#utility.yul\":11285:11286   */\n      0x01\n        /* \"#utility.yul\":11280:11898   */\n      dup2\n      eq\n      tag_277\n      jumpi\n        /* \"#utility.yul\":11942:11943   */\n      0x00\n        /* \"#utility.yul\":11959:11965   */\n      dup5\n        /* \"#utility.yul\":11956:12033   */\n      iszero\n      tag_278\n      jumpi\n        /* \"#utility.yul\":12008:12017   */\n      dup3\n        /* \"#utility.yul\":12003:12006   */\n      dup8\n        /* \"#utility.yul\":11999:12018   */\n      add\n        /* \"#utility.yul\":11993:12019   */\n      mload\n        /* \"#utility.yul\":11984:12019   */\n      swap1\n      pop\n        /* \"#utility.yul\":11956:12033   */\n    tag_278:\n        /* \"#utility.yul\":12059:12126   */\n      tag_279\n        /* \"#utility.yul\":12119:12125   */\n      dup6\n        /* \"#utility.yul\":12112:12117   */\n      dup3\n        /* \"#utility.yul\":12059:12126   */\n      tag_150\n      jump\t// in\n    tag_279:\n        /* \"#utility.yul\":12053:12057   */\n      dup7\n        /* \"#utility.yul\":12046:12127   */\n      sstore\n        /* \"#utility.yul\":11915:12137   */\n      pop\n        /* \"#utility.yul\":11250:12137   */\n      jump(tag_276)\n        /* \"#utility.yul\":11280:11898   */\n    tag_277:\n        /* \"#utility.yul\":11332:11336   */\n      0x1f\n        /* \"#utility.yul\":11328:11337   */\n      not\n        /* \"#utility.yul\":11320:11326   */\n      dup5\n        /* \"#utility.yul\":11316:11338   */\n      and\n        /* \"#utility.yul\":11366:11403   */\n      tag_280\n        /* \"#utility.yul\":11398:11402   */\n      dup7\n        /* \"#utility.yul\":11366:11403   */\n      tag_136\n      jump\t// in\n    tag_280:\n        /* \"#utility.yul\":11425:11426   */\n      0x00\n        /* \"#utility.yul\":11439:11647   */\n    tag_281:\n        /* \"#utility.yul\":11453:11460   */\n      dup3\n        /* \"#utility.yul\":11450:11451   */\n      dup2\n        /* \"#utility.yul\":11447:11461   */\n      lt\n        /* \"#utility.yul\":11439:11647   */\n      iszero\n      tag_283\n      jumpi\n        /* \"#utility.yul\":11532:11541   */\n      dup5\n        /* \"#utility.yul\":11527:11530   */\n      dup10\n        /* \"#utility.yul\":11523:11542   */\n      add\n        /* \"#utility.yul\":11517:11543   */\n      mload\n        /* \"#utility.yul\":11509:11515   */\n      dup3\n        /* \"#utility.yul\":11502:11544   */\n      sstore\n        /* \"#utility.yul\":11583:11584   */\n      0x01\n        /* \"#utility.yul\":11575:11581   */\n      dup3\n        /* \"#utility.yul\":11571:11585   */\n      add\n        /* \"#utility.yul\":11561:11585   */\n      swap2\n      pop\n        /* \"#utility.yul\":11630:11632   */\n      0x20\n        /* \"#utility.yul\":11619:11628   */\n      dup6\n        /* \"#utility.yul\":11615:11633   */\n      add\n        /* \"#utility.yul\":11602:11633   */\n      swap5\n      pop\n        /* \"#utility.yul\":11476:11480   */\n      0x20\n        /* \"#utility.yul\":11473:11474   */\n      dup2\n        /* \"#utility.yul\":11469:11481   */\n      add\n        /* \"#utility.yul\":11464:11481   */\n      swap1\n      pop\n        /* \"#utility.yul\":11439:11647   */\n      jump(tag_281)\n    tag_283:\n        /* \"#utility.yul\":11675:11681   */\n      dup7\n        /* \"#utility.yul\":11666:11673   */\n      dup4\n        /* \"#utility.yul\":11663:11682   */\n      lt\n        /* \"#utility.yul\":11660:11839   */\n      iszero\n      tag_284\n      jumpi\n        /* \"#utility.yul\":11733:11742   */\n      dup5\n        /* \"#utility.yul\":11728:11731   */\n      dup10\n        /* \"#utility.yul\":11724:11743   */\n      add\n        /* \"#utility.yul\":11718:11744   */\n      mload\n        /* \"#utility.yul\":11776:11824   */\n      tag_285\n        /* \"#utility.yul\":11818:11822   */\n      0x1f\n        /* \"#utility.yul\":11810:11816   */\n      dup10\n        /* \"#utility.yul\":11806:11823   */\n      and\n        /* \"#utility.yul\":11795:11804   */\n      dup3\n        /* \"#utility.yul\":11776:11824   */\n      tag_149\n      jump\t// in\n    tag_285:\n        /* \"#utility.yul\":11768:11774   */\n      dup4\n        /* \"#utility.yul\":11761:11825   */\n      sstore\n        /* \"#utility.yul\":11683:11839   */\n      pop\n        /* \"#utility.yul\":11660:11839   */\n    tag_284:\n        /* \"#utility.yul\":11885:11886   */\n      0x01\n        /* \"#utility.yul\":11881:11882   */\n      0x02\n        /* \"#utility.yul\":11873:11879   */\n      dup9\n        /* \"#utility.yul\":11869:11883   */\n      mul\n        /* \"#utility.yul\":11865:11887   */\n      add\n        /* \"#utility.yul\":11859:11863   */\n      dup9\n        /* \"#utility.yul\":11852:11888   */\n      sstore\n        /* \"#utility.yul\":11287:11898   */\n      pop\n      pop\n      pop\n        /* \"#utility.yul\":11250:12137   */\n    tag_276:\n      pop\n        /* \"#utility.yul\":10840:12143   */\n      pop\n      pop\n      pop\n        /* \"#utility.yul\":10748:12143   */\n      pop\n      pop\n      jump\t// out\n        /* \"#utility.yul\":12149:12323   */\n    tag_151:\n        /* \"#utility.yul\":12289:12315   */\n      0x43616e64696461746520646f6573206e6f742065786973740000000000000000\n        /* \"#utility.yul\":12285:12286   */\n      0x00\n        /* \"#utility.yul\":12277:12283   */\n      dup3\n        /* \"#utility.yul\":12273:12287   */\n      add\n        /* \"#utility.yul\":12266:12316   */\n      mstore\n        /* \"#utility.yul\":12149:12323   */\n      pop\n      jump\t// out\n        /* \"#utility.yul\":12329:12695   */\n    tag_152:\n        /* \"#utility.yul\":12471:12474   */\n      0x00\n        /* \"#utility.yul\":12492:12559   */\n      tag_288\n        /* \"#utility.yul\":12556:12558   */\n      0x18\n        /* \"#utility.yul\":12551:12554   */\n      dup4\n        /* \"#utility.yul\":12492:12559   */\n      tag_126\n      jump\t// in\n    tag_288:\n        /* \"#utility.yul\":12485:12559   */\n      swap2\n      pop\n        /* \"#utility.yul\":12568:12661   */\n      tag_289\n        /* \"#utility.yul\":12657:12660   */\n      dup3\n        /* \"#utility.yul\":12568:12661   */\n      tag_151\n      jump\t// in\n    tag_289:\n        /* \"#utility.yul\":12686:12688   */\n      0x20\n        /* \"#utility.yul\":12681:12684   */\n      dup3\n        /* \"#utility.yul\":12677:12689   */\n      add\n        /* \"#utility.yul\":12670:12689   */\n      swap1\n      pop\n        /* \"#utility.yul\":12329:12695   */\n      swap2\n      swap1\n      pop\n      jump\t// out\n        /* \"#utility.yul\":12701:13120   */\n    tag_75:\n        /* \"#utility.yul\":12867:12871   */\n      0x00\n        /* \"#utility.yul\":12905:12907   */\n      0x20\n        /* \"#utility.yul\":12894:12903   */\n      dup3\n        /* \"#utility.yul\":12890:12908   */\n      add\n        /* \"#utility.yul\":12882:12908   */\n      swap1\n      pop\n        /* \"#utility.yul\":12954:12963   */\n      dup2\n        /* \"#utility.yul\":12948:12952   */\n      dup2\n        /* \"#utility.yul\":12944:12964   */\n      sub\n        /* \"#utility.yul\":12940:12941   */\n      0x00\n        /* \"#utility.yul\":12929:12938   */\n      dup4\n        /* \"#utility.yul\":12925:12942   */\n      add\n        /* \"#utility.yul\":12918:12965   */\n      mstore\n        /* \"#utility.yul\":12982:13113   */\n      tag_291\n        /* \"#utility.yul\":13108:13112   */\n      dup2\n        /* \"#utility.yul\":12982:13113   */\n      tag_152\n      jump\t// in\n    tag_291:\n        /* \"#utility.yul\":12974:13113   */\n      swap1\n      pop\n        /* \"#utility.yul\":12701:13120   */\n      swap2\n      swap1\n      pop\n      jump\t// out\n        /* \"#utility.yul\":13126:13288   */\n    tag_153:\n        /* \"#utility.yul\":13266:13280   */\n      0x4e6f20766f746573207965740000000000000000000000000000000000000000\n        /* \"#utility.yul\":13262:13263   */\n      0x00\n        /* \"#utility.yul\":13254:13260   */\n      dup3\n        /* \"#utility.yul\":13250:13264   */\n      add\n        /* \"#utility.yul\":13243:13281   */\n      mstore\n        /* \"#utility.yul\":13126:13288   */\n      pop\n      jump\t// out\n        /* \"#utility.yul\":13294:13660   */\n    tag_154:\n        /* \"#utility.yul\":13436:13439   */\n      0x00\n        /* \"#utility.yul\":13457:13524   */\n      tag_294\n        /* \"#utility.yul\":13521:13523   */\n      0x0c\n        /* \"#utility.yul\":13516:13519   */\n      dup4\n        /* \"#utility.yul\":13457:13524   */\n      tag_126\n      jump\t// in\n    tag_294:\n        /* \"#utility.yul\":13450:13524   */\n      swap2\n      pop\n        /* \"#utility.yul\":13533:13626   */\n      tag_295\n        /* \"#utility.yul\":13622:13625   */\n      dup3\n        /* \"#utility.yul\":13533:13626   */\n      tag_153\n      jump\t// in\n    tag_295:\n        /* \"#utility.yul\":13651:13653   */\n      0x20\n        /* \"#utility.yul\":13646:13649   */\n      dup3\n        /* \"#utility.yul\":13642:13654   */\n      add\n        /* \"#utility.yul\":13635:13654   */\n      swap1\n      pop\n        /* \"#utility.yul\":13294:13660   */\n      swap2\n      swap1\n      pop\n      jump\t// out\n        /* \"#utility.yul\":13666:14085   */\n    tag_92:\n        /* \"#utility.yul\":13832:13836   */\n      0x00\n        /* \"#utility.yul\":13870:13872   */\n      0x20\n        /* \"#utility.yul\":13859:13868   */\n      dup3\n        /* \"#utility.yul\":13855:13873   */\n      add\n        /* \"#utility.yul\":13847:13873   */\n      swap1\n      pop\n        /* \"#utility.yul\":13919:13928   */\n      dup2\n        /* \"#utility.yul\":13913:13917   */\n      dup2\n        /* \"#utility.yul\":13909:13929   */\n      sub\n        /* \"#utility.yul\":13905:13906   */\n      0x00\n        /* \"#utility.yul\":13894:13903   */\n      dup4\n        /* \"#utility.yul\":13890:13907   */\n      add\n        /* \"#utility.yul\":13883:13930   */\n      mstore\n        /* \"#utility.yul\":13947:14078   */\n      tag_297\n        /* \"#utility.yul\":14073:14077   */\n      dup2\n        /* \"#utility.yul\":13947:14078   */\n      tag_154\n      jump\t// in\n    tag_297:\n        /* \"#utility.yul\":13939:14078   */\n      swap1\n      pop\n        /* \"#utility.yul\":13666:14085   */\n      swap2\n      swap1\n      pop\n      jump\t// out\n        /* \"#utility.yul\":14091:14271   */\n    tag_155:\n        /* \"#utility.yul\":14139:14216   */\n      0x4e487b7100000000000000000000000000000000000000000000000000000000\n        /* \"#utility.yul\":14136:14137   */\n      0x00\n        /* \"#utility.yul\":14129:14217   */\n      mstore\n        /* \"#utility.yul\":14236:14240   */\n      0x11\n        /* \"#utility.yul\":14233:14234   */\n      0x04\n        /* \"#utility.yul\":14226:14241   */\n      mstore\n        /* \"#utility.yul\":14260:14264   */\n      0x24\n        /* \"#utility.yul\":14257:14258   */\n      0x00\n        /* \"#utility.yul\":14250:14265   */\n      revert\n        /* \"#utility.yul\":14277:14510   */\n    tag_104:\n        /* \"#utility.yul\":14316:14319   */\n      0x00\n        /* \"#utility.yul\":14339:14363   */\n      tag_300\n        /* \"#utility.yul\":14357:14362   */\n      dup3\n        /* \"#utility.yul\":14339:14363   */\n      tag_110\n      jump\t// in\n    tag_300:\n        /* \"#utility.yul\":14330:14363   */\n      swap2\n      pop\n        /* \"#utility.yul\":14385:14451   */\n      0xffffffffffffffffffffffffffffffffffffffffffffffffffffffffffffffff\n        /* \"#utility.yul\":14378:14383   */\n      dup3\n        /* \"#utility.yul\":14375:14452   */\n      sub\n        /* \"#utility.yul\":14372:14475   */\n      tag_301\n      jumpi\n        /* \"#utility.yul\":14455:14473   */\n      tag_302\n      tag_155\n      jump\t// in\n    tag_302:\n        /* \"#utility.yul\":14372:14475   */\n    tag_301:\n        /* \"#utility.yul\":14502:14503   */\n      0x01\n        /* \"#utility.yul\":14495:14500   */\n      dup3\n        /* \"#utility.yul\":14491:14504   */\n      add\n        /* \"#utility.yul\":14484:14504   */\n      swap1\n      pop\n        /* \"#utility.yul\":14277:14510   */\n      swap2\n      swap1\n      pop\n      jump\t// out\n\n    auxdata: 0xa26469706673582212205c023f97a093179d3fec8f7cd1ae16cf0f4dbf494a1089d9ac3f42fb3daff06864736f6c634300081e0033\n}\n",
				"bytecode": {
					"linkReferences": {},
					"object": "60806040525f6001553480156012575f5ffd5b50610eda806100205f395ff3fe608060405234801561000f575f5ffd5b506004361061009c575f3560e01c8063b3a4dc2f11610064578063b3a4dc2f14610146578063b61add9a14610164578063c5539cc214610195578063f95fe2d6146101c6578063fc36e15b146101e55761009c565b80630d15fd77146100a0578063462e91ec146100be5780634c162f2a146100da5780637e797dee146100f85780639a0e7d6614610128575b5f5ffd5b6100a8610201565b6040516100b5919061074e565b60405180910390f35b6100d860048036038101906100d391906108b4565b610207565b005b6100e26102a6565b6040516100ef919061095b565b60405180910390f35b610112600480360381019061010d91906108b4565b610332565b60405161011f9190610995565b60405180910390f35b610130610369565b60405161013d919061074e565b60405180910390f35b61014e610372565b60405161015b919061074e565b60405180910390f35b61017e600480360381019061017991906108b4565b610378565b60405161018c9291906109ae565b60405180910390f35b6101af60048036038101906101aa91906108b4565b610496565b6040516101bd9291906109ae565b60405180910390f35b6101ce610553565b6040516101dc9291906109ae565b60405180910390f35b6101ff60048036038101906101fa91906108b4565b61063d565b005b60015481565b61021081610332565b15610250576040517f08c379a000000000000000000000000000000000000000000000000000000000815260040161024790610a26565b60405180910390fd5b60405180604001604052808281526020015f8152505f826040516102749190610a7e565b90815260200160405180910390205f820151815f0190816102959190610c91565b506020820151816001015590505050565b600380546102b390610ac1565b80601f01602080910402602001604051908101604052809291908181526020018280546102df90610ac1565b801561032a5780601f106103015761010080835404028352916020019161032a565b820191905f5260205f20905b81548152906001019060200180831161030d57829003601f168201915b505050505081565b5f5f5f836040516103439190610a7e565b90815260200160405180910390205f01805461035e90610ac1565b905014159050919050565b5f600154905090565b60025481565b60605f61038483610332565b6103c3576040517f08c379a00000000000000000000000000000000000000000000000000000000081526004016103ba90610daa565b60405180910390fd5b5f836040516103d29190610a7e565b90815260200160405180910390205f015f846040516103f19190610a7e565b90815260200160405180910390206001015481805461040f90610ac1565b80601f016020809104026020016040519081016040528092919081815260200182805461043b90610ac1565b80156104865780601f1061045d57610100808354040283529160200191610486565b820191905f5260205f20905b81548152906001019060200180831161046957829003601f168201915b5050505050915091509150915091565b5f818051602081018201805184825260208301602085012081835280955050505050505f91509050805f0180546104cc90610ac1565b80601f01602080910402602001604051908101604052809291908181526020018280546104f890610ac1565b80156105435780601f1061051a57610100808354040283529160200191610543565b820191905f5260205f20905b81548152906001019060200180831161052657829003601f168201915b5050505050908060010154905082565b60605f5f6003805461056490610ac1565b9050036105a6576040517f08c379a000000000000000000000000000000000000000000000000000000000815260040161059d90610e12565b60405180910390fd5b60036002548180546105b790610ac1565b80601f01602080910402602001604051908101604052809291908181526020018280546105e390610ac1565b801561062e5780601f106106055761010080835404028352916020019161062e565b820191905f5260205f20905b81548152906001019060200180831161061157829003601f168201915b50505050509150915091509091565b61064681610332565b610685576040517f08c379a000000000000000000000000000000000000000000000000000000000815260040161067c90610daa565b60405180910390fd5b5f816040516106949190610a7e565b90815260200160405180910390206001015f8154809291906106b590610e5d565b919050555060015f8154809291906106cc90610e5d565b91905055506002545f826040516106e39190610a7e565b9081526020016040518091039020600101541115610733575f8160405161070a9190610a7e565b90815260200160405180910390206001015460028190555080600390816107319190610c91565b505b50565b5f819050919050565b61074881610736565b82525050565b5f6020820190506107615f83018461073f565b92915050565b5f604051905090565b5f5ffd5b5f5ffd5b5f5ffd5b5f5ffd5b5f601f19601f8301169050919050565b7f4e487b71000000000000000000000000000000000000000000000000000000005f52604160045260245ffd5b6107c682610780565b810181811067ffffffffffffffff821117156107e5576107e4610790565b5b80604052505050565b5f6107f7610767565b905061080382826107bd565b919050565b5f67ffffffffffffffff82111561082257610821610790565b5b61082b82610780565b9050602081019050919050565b828183375f83830152505050565b5f61085861085384610808565b6107ee565b9050828152602081018484840111156108745761087361077c565b5b61087f848285610838565b509392505050565b5f82601f83011261089b5761089a610778565b5b81356108ab848260208601610846565b91505092915050565b5f602082840312156108c9576108c8610770565b5b5f82013567ffffffffffffffff8111156108e6576108e5610774565b5b6108f284828501610887565b91505092915050565b5f81519050919050565b5f82825260208201905092915050565b8281835e5f83830152505050565b5f61092d826108fb565b6109378185610905565b9350610947818560208601610915565b61095081610780565b840191505092915050565b5f6020820190508181035f8301526109738184610923565b905092915050565b5f8115159050919050565b61098f8161097b565b82525050565b5f6020820190506109a85f830184610986565b92915050565b5f6040820190508181035f8301526109c68185610923565b90506109d5602083018461073f565b9392505050565b7f43616e64696461746520616c72656164792065786973747300000000000000005f82015250565b5f610a10601883610905565b9150610a1b826109dc565b602082019050919050565b5f6020820190508181035f830152610a3d81610a04565b9050919050565b5f81905092915050565b5f610a58826108fb565b610a628185610a44565b9350610a72818560208601610915565b80840191505092915050565b5f610a898284610a4e565b915081905092915050565b7f4e487b71000000000000000000000000000000000000000000000000000000005f52602260045260245ffd5b5f6002820490506001821680610ad857607f821691505b602082108103610aeb57610aea610a94565b5b50919050565b5f819050815f5260205f209050919050565b5f6020601f8301049050919050565b5f82821b905092915050565b5f60088302610b4d7fffffffffffffffffffffffffffffffffffffffffffffffffffffffffffffffff82610b12565b610b578683610b12565b95508019841693508086168417925050509392505050565b5f819050919050565b5f610b92610b8d610b8884610736565b610b6f565b610736565b9050919050565b5f819050919050565b610bab83610b78565b610bbf610bb782610b99565b848454610b1e565b825550505050565b5f5f905090565b610bd6610bc7565b610be1818484610ba2565b505050565b5b81811015610c0457610bf95f82610bce565b600181019050610be7565b5050565b601f821115610c4957610c1a81610af1565b610c2384610b03565b81016020851015610c32578190505b610c46610c3e85610b03565b830182610be6565b50505b505050565b5f82821c905092915050565b5f610c695f1984600802610c4e565b1980831691505092915050565b5f610c818383610c5a565b9150826002028217905092915050565b610c9a826108fb565b67ffffffffffffffff811115610cb357610cb2610790565b5b610cbd8254610ac1565b610cc8828285610c08565b5f60209050601f831160018114610cf9575f8415610ce7578287015190505b610cf18582610c76565b865550610d58565b601f198416610d0786610af1565b5f5b82811015610d2e57848901518255600182019150602085019450602081019050610d09565b86831015610d4b5784890151610d47601f891682610c5a565b8355505b6001600288020188555050505b505050505050565b7f43616e64696461746520646f6573206e6f7420657869737400000000000000005f82015250565b5f610d94601883610905565b9150610d9f82610d60565b602082019050919050565b5f6020820190508181035f830152610dc181610d88565b9050919050565b7f4e6f20766f7465732079657400000000000000000000000000000000000000005f82015250565b5f610dfc600c83610905565b9150610e0782610dc8565b602082019050919050565b5f6020820190508181035f830152610e2981610df0565b9050919050565b7f4e487b71000000000000000000000000000000000000000000000000000000005f52601160045260245ffd5b5f610e6782610736565b91507fffffffffffffffffffffffffffffffffffffffffffffffffffffffffffffffff8203610e9957610e98610e30565b5b60018201905091905056fea26469706673582212205c023f97a093179d3fec8f7cd1ae16cf0f4dbf494a1089d9ac3f42fb3daff06864736f6c634300081e0033",
					"opcodes": "PUSH1 0x80 PUSH1 0x40 MSTORE PUSH0 PUSH1 0x1 SSTORE CALLVALUE DUP1 ISZERO PUSH1 0x12 JUMPI PUSH0 PUSH0 REVERT JUMPDEST POP PUSH2 0xEDA DUP1 PUSH2 0x20 PUSH0 CODECOPY PUSH0 RETURN INVALID PUSH1 0x80 PUSH1 0x40 MSTORE CALLVALUE DUP1 ISZERO PUSH2 0xF JUMPI PUSH0 PUSH0 REVERT JUMPDEST POP PUSH1 0x4 CALLDATASIZE LT PUSH2 0x9C JUMPI PUSH0 CALLDATALOAD PUSH1 0xE0 SHR DUP1 PUSH4 0xB3A4DC2F GT PUSH2 0x64 JUMPI DUP1 PUSH4 0xB3A4DC2F EQ PUSH2 0x146 JUMPI DUP1 PUSH4 0xB61ADD9A EQ PUSH2 0x164 JUMPI DUP1 PUSH4 0xC5539CC2 EQ PUSH2 0x195 JUMPI DUP1 PUSH4 0xF95FE2D6 EQ PUSH2 0x1C6 JUMPI DUP1 PUSH4 0xFC36E15B EQ PUSH2 0x1E5 JUMPI PUSH2 0x9C JUMP JUMPDEST DUP1 PUSH4 0xD15FD77 EQ PUSH2 0xA0 JUMPI DUP1 PUSH4 0x462E91EC EQ PUSH2 0xBE JUMPI DUP1 PUSH4 0x4C162F2A EQ PUSH2 0xDA JUMPI DUP1 PUSH4 0x7E797DEE EQ PUSH2 0xF8 JUMPI DUP1 PUSH4 0x9A0E7D66 EQ PUSH2 0x128 JUMPI JUMPDEST PUSH0 PUSH0 REVERT JUMPDEST PUSH2 0xA8 PUSH2 0x201 JUMP JUMPDEST PUSH1 0x40 MLOAD PUSH2 0xB5 SWAP2 SWAP1 PUSH2 0x74E JUMP JUMPDEST PUSH1 0x40 MLOAD DUP1 SWAP2 SUB SWAP1 RETURN JUMPDEST PUSH2 0xD8 PUSH1 0x4 DUP1 CALLDATASIZE SUB DUP2 ADD SWAP1 PUSH2 0xD3 SWAP2 SWAP1 PUSH2 0x8B4 JUMP JUMPDEST PUSH2 0x207 JUMP JUMPDEST STOP JUMPDEST PUSH2 0xE2 PUSH2 0x2A6 JUMP JUMPDEST PUSH1 0x40 MLOAD PUSH2 0xEF SWAP2 SWAP1 PUSH2 0x95B JUMP JUMPDEST PUSH1 0x40 MLOAD DUP1 SWAP2 SUB SWAP1 RETURN JUMPDEST PUSH2 0x112 PUSH1 0x4 DUP1 CALLDATASIZE SUB DUP2 ADD SWAP1 PUSH2 0x10D SWAP2 SWAP1 PUSH2 0x8B4 JUMP JUMPDEST PUSH2 0x332 JUMP JUMPDEST PUSH1 0x40 MLOAD PUSH2 0x11F SWAP2 SWAP1 PUSH2 0x995 JUMP JUMPDEST PUSH1 0x40 MLOAD DUP1 SWAP2 SUB SWAP1 RETURN JUMPDEST PUSH2 0x130 PUSH2 0x369 JUMP JUMPDEST PUSH1 0x40 MLOAD PUSH2 0x13D SWAP2 SWAP1 PUSH2 0x74E JUMP JUMPDEST PUSH1 0x40 MLOAD DUP1 SWAP2 SUB SWAP1 RETURN JUMPDEST PUSH2 0x14E PUSH2 0x372 JUMP JUMPDEST PUSH1 0x40 MLOAD PUSH2 0x15B SWAP2 SWAP1 PUSH2 0x74E JUMP JUMPDEST PUSH1 0x40 MLOAD DUP1 SWAP2 SUB SWAP1 RETURN JUMPDEST PUSH2 0x17E PUSH1 0x4 DUP1 CALLDATASIZE SUB DUP2 ADD SWAP1 PUSH2 0x179 SWAP2 SWAP1 PUSH2 0x8B4 JUMP JUMPDEST PUSH2 0x378 JUMP JUMPDEST PUSH1 0x40 MLOAD PUSH2 0x18C SWAP3 SWAP2 SWAP1 PUSH2 0x9AE JUMP JUMPDEST PUSH1 0x40 MLOAD DUP1 SWAP2 SUB SWAP1 RETURN JUMPDEST PUSH2 0x1AF PUSH1 0x4 DUP1 CALLDATASIZE SUB DUP2 ADD SWAP1 PUSH2 0x1AA SWAP2 SWAP1 PUSH2 0x8B4 JUMP JUMPDEST PUSH2 0x496 JUMP JUMPDEST PUSH1 0x40 MLOAD PUSH2 0x1BD SWAP3 SWAP2 SWAP1 PUSH2 0x9AE JUMP JUMPDEST PUSH1 0x40 MLOAD DUP1 SWAP2 SUB SWAP1 RETURN JUMPDEST PUSH2 0x1CE PUSH2 0x553 JUMP JUMPDEST PUSH1 0x40 MLOAD PUSH2 0x1DC SWAP3 SWAP2 SWAP1 PUSH2 0x9AE JUMP JUMPDEST PUSH1 0x40 MLOAD DUP1 SWAP2 SUB SWAP1 RETURN JUMPDEST PUSH2 0x1FF PUSH1 0x4 DUP1 CALLDATASIZE SUB DUP2 ADD SWAP1 PUSH2 0x1FA SWAP2 SWAP1 PUSH2 0x8B4 JUMP JUMPDEST PUSH2 0x63D JUMP JUMPDEST STOP JUMPDEST PUSH1 0x1 SLOAD DUP2 JUMP JUMPDEST PUSH2 0x210 DUP2 PUSH2 0x332 JUMP JUMPDEST ISZERO PUSH2 0x250 JUMPI PUSH1 0x40 MLOAD PUSH32 0x8C379A000000000000000000000000000000000000000000000000000000000 DUP2 MSTORE PUSH1 0x4 ADD PUSH2 0x247 SWAP1 PUSH2 0xA26 JUMP JUMPDEST PUSH1 0x40 MLOAD DUP1 SWAP2 SUB SWAP1 REVERT JUMPDEST PUSH1 0x40 MLOAD DUP1 PUSH1 0x40 ADD PUSH1 0x40 MSTORE DUP1 DUP3 DUP2 MSTORE PUSH1 0x20 ADD PUSH0 DUP2 MSTORE POP PUSH0 DUP3 PUSH1 0x40 MLOAD PUSH2 0x274 SWAP2 SWAP1 PUSH2 0xA7E JUMP JUMPDEST SWAP1 DUP2 MSTORE PUSH1 0x20 ADD PUSH1 0x40 MLOAD DUP1 SWAP2 SUB SWAP1 KECCAK256 PUSH0 DUP3 ADD MLOAD DUP2 PUSH0 ADD SWAP1 DUP2 PUSH2 0x295 SWAP2 SWAP1 PUSH2 0xC91 JUMP JUMPDEST POP PUSH1 0x20 DUP3 ADD MLOAD DUP2 PUSH1 0x1 ADD SSTORE SWAP1 POP POP POP JUMP JUMPDEST PUSH1 0x3 DUP1 SLOAD PUSH2 0x2B3 SWAP1 PUSH2 0xAC1 JUMP JUMPDEST DUP1 PUSH1 0x1F ADD PUSH1 0x20 DUP1 SWAP2 DIV MUL PUSH1 0x20 ADD PUSH1 0x40 MLOAD SWAP1 DUP2 ADD PUSH1 0x40 MSTORE DUP1 SWAP3 SWAP2 SWAP1 DUP2 DUP2 MSTORE PUSH1 0x20 ADD DUP3 DUP1 SLOAD PUSH2 0x2DF SWAP1 PUSH2 0xAC1 JUMP JUMPDEST DUP1 ISZERO PUSH2 0x32A JUMPI DUP1 PUSH1 0x1F LT PUSH2 0x301 JUMPI PUSH2 0x100 DUP1 DUP4 SLOAD DIV MUL DUP4 MSTORE SWAP2 PUSH1 0x20 ADD SWAP2 PUSH2 0x32A JUMP JUMPDEST DUP3 ADD SWAP2 SWAP1 PUSH0 MSTORE PUSH1 0x20 PUSH0 KECCAK256 SWAP1 JUMPDEST DUP2 SLOAD DUP2 MSTORE SWAP1 PUSH1 0x1 ADD SWAP1 PUSH1 0x20 ADD DUP1 DUP4 GT PUSH2 0x30D JUMPI DUP3 SWAP1 SUB PUSH1 0x1F AND DUP3 ADD SWAP2 JUMPDEST POP POP POP POP POP DUP2 JUMP JUMPDEST PUSH0 PUSH0 PUSH0 DUP4 PUSH1 0x40 MLOAD PUSH2 0x343 SWAP2 SWAP1 PUSH2 0xA7E JUMP JUMPDEST SWAP1 DUP2 MSTORE PUSH1 0x20 ADD PUSH1 0x40 MLOAD DUP1 SWAP2 SUB SWAP1 KECCAK256 PUSH0 ADD DUP1 SLOAD PUSH2 0x35E SWAP1 PUSH2 0xAC1 JUMP JUMPDEST SWAP1 POP EQ ISZERO SWAP1 POP SWAP2 SWAP1 POP JUMP JUMPDEST PUSH0 PUSH1 0x1 SLOAD SWAP1 POP SWAP1 JUMP JUMPDEST PUSH1 0x2 SLOAD DUP2 JUMP JUMPDEST PUSH1 0x60 PUSH0 PUSH2 0x384 DUP4 PUSH2 0x332 JUMP JUMPDEST PUSH2 0x3C3 JUMPI PUSH1 0x40 MLOAD PUSH32 0x8C379A000000000000000000000000000000000000000000000000000000000 DUP2 MSTORE PUSH1 0x4 ADD PUSH2 0x3BA SWAP1 PUSH2 0xDAA JUMP JUMPDEST PUSH1 0x40 MLOAD DUP1 SWAP2 SUB SWAP1 REVERT JUMPDEST PUSH0 DUP4 PUSH1 0x40 MLOAD PUSH2 0x3D2 SWAP2 SWAP1 PUSH2 0xA7E JUMP JUMPDEST SWAP1 DUP2 MSTORE PUSH1 0x20 ADD PUSH1 0x40 MLOAD DUP1 SWAP2 SUB SWAP1 KECCAK256 PUSH0 ADD PUSH0 DUP5 PUSH1 0x40 MLOAD PUSH2 0x3F1 SWAP2 SWAP1 PUSH2 0xA7E JUMP JUMPDEST SWAP1 DUP2 MSTORE PUSH1 0x20 ADD PUSH1 0x40 MLOAD DUP1 SWAP2 SUB SWAP1 KECCAK256 PUSH1 0x1 ADD SLOAD DUP2 DUP1 SLOAD PUSH2 0x40F SWAP1 PUSH2 0xAC1 JUMP JUMPDEST DUP1 PUSH1 0x1F ADD PUSH1 0x20 DUP1 SWAP2 DIV MUL PUSH1 0x20 ADD PUSH1 0x40 MLOAD SWAP1 DUP2 ADD PUSH1 0x40 MSTORE DUP1 SWAP3 SWAP2 SWAP1 DUP2 DUP2 MSTORE PUSH1 0x20 ADD DUP3 DUP1 SLOAD PUSH2 0x43B SWAP1 PUSH2 0xAC1 JUMP JUMPDEST DUP1 ISZERO PUSH2 0x486 JUMPI DUP1 PUSH1 0x1F LT PUSH2 0x45D JUMPI PUSH2 0x100 DUP1 DUP4 SLOAD DIV MUL DUP4 MSTORE SWAP2 PUSH1 0x20 ADD SWAP2 PUSH2 0x486 JUMP JUMPDEST DUP3 ADD SWAP2 SWAP1 PUSH0 MSTORE PUSH1 0x20 PUSH0 KECCAK256 SWAP1 JUMPDEST DUP2 SLOAD DUP2 MSTORE SWAP1 PUSH1 0x1 ADD SWAP1 PUSH1 0x20 ADD DUP1 DUP4 GT PUSH2 0x469 JUMPI DUP3 SWAP1 SUB PUSH1 0x1F AND DUP3 ADD SWAP2 JUMPDEST POP POP POP POP POP SWAP2 POP SWAP2 POP SWAP2 POP SWAP2 POP SWAP2 JUMP JUMPDEST PUSH0 DUP2 DUP1 MLOAD PUSH1 0x20 DUP2 ADD DUP3 ADD DUP1 MLOAD DUP5 DUP3 MSTORE PUSH1 0x20 DUP4 ADD PUSH1 0x20 DUP6 ADD KECCAK256 DUP2 DUP4 MSTORE DUP1 SWAP6 POP POP POP POP POP POP PUSH0 SWAP2 POP SWAP1 POP DUP1 PUSH0 ADD DUP1 SLOAD PUSH2 0x4CC SWAP1 PUSH2 0xAC1 JUMP JUMPDEST DUP1 PUSH1 0x1F ADD PUSH1 0x20 DUP1 SWAP2 DIV MUL PUSH1 0x20 ADD PUSH1 0x40 MLOAD SWAP1 DUP2 ADD PUSH1 0x40 MSTORE DUP1 SWAP3 SWAP2 SWAP1 DUP2 DUP2 MSTORE PUSH1 0x20 ADD DUP3 DUP1 SLOAD PUSH2 0x4F8 SWAP1 PUSH2 0xAC1 JUMP JUMPDEST DUP1 ISZERO PUSH2 0x543 JUMPI DUP1 PUSH1 0x1F LT PUSH2 0x51A JUMPI PUSH2 0x100 DUP1 DUP4 SLOAD DIV MUL DUP4 MSTORE SWAP2 PUSH1 0x20 ADD SWAP2 PUSH2 0x543 JUMP JUMPDEST DUP3 ADD SWAP2 SWAP1 PUSH0 MSTORE PUSH1 0x20 PUSH0 KECCAK256 SWAP1 JUMPDEST DUP2 SLOAD DUP2 MSTORE SWAP1 PUSH1 0x1 ADD SWAP1 PUSH1 0x20 ADD DUP1 DUP4 GT PUSH2 0x526 JUMPI DUP3 SWAP1 SUB PUSH1 0x1F AND DUP3 ADD SWAP2 JUMPDEST POP POP POP POP POP SWAP1 DUP1 PUSH1 0x1 ADD SLOAD SWAP1 POP DUP3 JUMP JUMPDEST PUSH1 0x60 PUSH0 PUSH0 PUSH1 0x3 DUP1 SLOAD PUSH2 0x564 SWAP1 PUSH2 0xAC1 JUMP JUMPDEST SWAP1 POP SUB PUSH2 0x5A6 JUMPI PUSH1 0x40 MLOAD PUSH32 0x8C379A000000000000000000000000000000000000000000000000000000000 DUP2 MSTORE PUSH1 0x4 ADD PUSH2 0x59D SWAP1 PUSH2 0xE12 JUMP JUMPDEST PUSH1 0x40 MLOAD DUP1 SWAP2 SUB SWAP1 REVERT JUMPDEST PUSH1 0x3 PUSH1 0x2 SLOAD DUP2 DUP1 SLOAD PUSH2 0x5B7 SWAP1 PUSH2 0xAC1 JUMP JUMPDEST DUP1 PUSH1 0x1F ADD PUSH1 0x20 DUP1 SWAP2 DIV MUL PUSH1 0x20 ADD PUSH1 0x40 MLOAD SWAP1 DUP2 ADD PUSH1 0x40 MSTORE DUP1 SWAP3 SWAP2 SWAP1 DUP2 DUP2 MSTORE PUSH1 0x20 ADD DUP3 DUP1 SLOAD PUSH2 0x5E3 SWAP1 PUSH2 0xAC1 JUMP JUMPDEST DUP1 ISZERO PUSH2 0x62E JUMPI DUP1 PUSH1 0x1F LT PUSH2 0x605 JUMPI PUSH2 0x100 DUP1 DUP4 SLOAD DIV MUL DUP4 MSTORE SWAP2 PUSH1 0x20 ADD SWAP2 PUSH2 0x62E JUMP JUMPDEST DUP3 ADD SWAP2 SWAP1 PUSH0 MSTORE PUSH1 0x20 PUSH0 KECCAK256 SWAP1 JUMPDEST DUP2 SLOAD DUP2 MSTORE SWAP1 PUSH1 0x1 ADD SWAP1 PUSH1 0x20 ADD DUP1 DUP4 GT PUSH2 0x611 JUMPI DUP3 SWAP1 SUB PUSH1 0x1F AND DUP3 ADD SWAP2 JUMPDEST POP POP POP POP POP SWAP2 POP SWAP2 POP SWAP2 POP SWAP1 SWAP2 JUMP JUMPDEST PUSH2 0x646 DUP2 PUSH2 0x332 JUMP JUMPDEST PUSH2 0x685 JUMPI PUSH1 0x40 MLOAD PUSH32 0x8C379A000000000000000000000000000000000000000000000000000000000 DUP2 MSTORE PUSH1 0x4 ADD PUSH2 0x67C SWAP1 PUSH2 0xDAA JUMP JUMPDEST PUSH1 0x40 MLOAD DUP1 SWAP2 SUB SWAP1 REVERT JUMPDEST PUSH0 DUP2 PUSH1 0x40 MLOAD PUSH2 0x694 SWAP2 SWAP1 PUSH2 0xA7E JUMP JUMPDEST SWAP1 DUP2 MSTORE PUSH1 0x20 ADD PUSH1 0x40 MLOAD DUP1 SWAP2 SUB SWAP1 KECCAK256 PUSH1 0x1 ADD PUSH0 DUP2 SLOAD DUP1 SWAP3 SWAP2 SWAP1 PUSH2 0x6B5 SWAP1 PUSH2 0xE5D JUMP JUMPDEST SWAP2 SWAP1 POP SSTORE POP PUSH1 0x1 PUSH0 DUP2 SLOAD DUP1 SWAP3 SWAP2 SWAP1 PUSH2 0x6CC SWAP1 PUSH2 0xE5D JUMP JUMPDEST SWAP2 SWAP1 POP SSTORE POP PUSH1 0x2 SLOAD PUSH0 DUP3 PUSH1 0x40 MLOAD PUSH2 0x6E3 SWAP2 SWAP1 PUSH2 0xA7E JUMP JUMPDEST SWAP1 DUP2 MSTORE PUSH1 0x20 ADD PUSH1 0x40 MLOAD DUP1 SWAP2 SUB SWAP1 KECCAK256 PUSH1 0x1 ADD SLOAD GT ISZERO PUSH2 0x733 JUMPI PUSH0 DUP2 PUSH1 0x40 MLOAD PUSH2 0x70A SWAP2 SWAP1 PUSH2 0xA7E JUMP JUMPDEST SWAP1 DUP2 MSTORE PUSH1 0x20 ADD PUSH1 0x40 MLOAD DUP1 SWAP2 SUB SWAP1 KECCAK256 PUSH1 0x1 ADD SLOAD PUSH1 0x2 DUP2 SWAP1 SSTORE POP DUP1 PUSH1 0x3 SWAP1 DUP2 PUSH2 0x731 SWAP2 SWAP1 PUSH2 0xC91 JUMP JUMPDEST POP JUMPDEST POP JUMP JUMPDEST PUSH0 DUP2 SWAP1 POP SWAP2 SWAP1 POP JUMP JUMPDEST PUSH2 0x748 DUP2 PUSH2 0x736 JUMP JUMPDEST DUP3 MSTORE POP POP JUMP JUMPDEST PUSH0 PUSH1 0x20 DUP3 ADD SWAP1 POP PUSH2 0x761 PUSH0 DUP4 ADD DUP5 PUSH2 0x73F JUMP JUMPDEST SWAP3 SWAP2 POP POP JUMP JUMPDEST PUSH0 PUSH1 0x40 MLOAD SWAP1 POP SWAP1 JUMP JUMPDEST PUSH0 PUSH0 REVERT JUMPDEST PUSH0 PUSH0 REVERT JUMPDEST PUSH0 PUSH0 REVERT JUMPDEST PUSH0 PUSH0 REVERT JUMPDEST PUSH0 PUSH1 0x1F NOT PUSH1 0x1F DUP4 ADD AND SWAP1 POP SWAP2 SWAP1 POP JUMP JUMPDEST PUSH32 0x4E487B7100000000000000000000000000000000000000000000000000000000 PUSH0 MSTORE PUSH1 0x41 PUSH1 0x4 MSTORE PUSH1 0x24 PUSH0 REVERT JUMPDEST PUSH2 0x7C6 DUP3 PUSH2 0x780 JUMP JUMPDEST DUP2 ADD DUP2 DUP2 LT PUSH8 0xFFFFFFFFFFFFFFFF DUP3 GT OR ISZERO PUSH2 0x7E5 JUMPI PUSH2 0x7E4 PUSH2 0x790 JUMP JUMPDEST JUMPDEST DUP1 PUSH1 0x40 MSTORE POP POP POP JUMP JUMPDEST PUSH0 PUSH2 0x7F7 PUSH2 0x767 JUMP JUMPDEST SWAP1 POP PUSH2 0x803 DUP3 DUP3 PUSH2 0x7BD JUMP JUMPDEST SWAP2 SWAP1 POP JUMP JUMPDEST PUSH0 PUSH8 0xFFFFFFFFFFFFFFFF DUP3 GT ISZERO PUSH2 0x822 JUMPI PUSH2 0x821 PUSH2 0x790 JUMP JUMPDEST JUMPDEST PUSH2 0x82B DUP3 PUSH2 0x780 JUMP JUMPDEST SWAP1 POP PUSH1 0x20 DUP2 ADD SWAP1 POP SWAP2 SWAP1 POP JUMP JUMPDEST DUP3 DUP2 DUP4 CALLDATACOPY PUSH0 DUP4 DUP4 ADD MSTORE POP POP POP JUMP JUMPDEST PUSH0 PUSH2 0x858 PUSH2 0x853 DUP5 PUSH2 0x808 JUMP JUMPDEST PUSH2 0x7EE JUMP JUMPDEST SWAP1 POP DUP3 DUP2 MSTORE PUSH1 0x20 DUP2 ADD DUP5 DUP5 DUP5 ADD GT ISZERO PUSH2 0x874 JUMPI PUSH2 0x873 PUSH2 0x77C JUMP JUMPDEST JUMPDEST PUSH2 0x87F DUP5 DUP3 DUP6 PUSH2 0x838 JUMP JUMPDEST POP SWAP4 SWAP3 POP POP POP JUMP JUMPDEST PUSH0 DUP3 PUSH1 0x1F DUP4 ADD SLT PUSH2 0x89B JUMPI PUSH2 0x89A PUSH2 0x778 JUMP JUMPDEST JUMPDEST DUP2 CALLDATALOAD PUSH2 0x8AB DUP5 DUP3 PUSH1 0x20 DUP7 ADD PUSH2 0x846 JUMP JUMPDEST SWAP2 POP POP SWAP3 SWAP2 POP POP JUMP JUMPDEST PUSH0 PUSH1 0x20 DUP3 DUP5 SUB SLT ISZERO PUSH2 0x8C9 JUMPI PUSH2 0x8C8 PUSH2 0x770 JUMP JUMPDEST JUMPDEST PUSH0 DUP3 ADD CALLDATALOAD PUSH8 0xFFFFFFFFFFFFFFFF DUP2 GT ISZERO PUSH2 0x8E6 JUMPI PUSH2 0x8E5 PUSH2 0x774 JUMP JUMPDEST JUMPDEST PUSH2 0x8F2 DUP5 DUP3 DUP6 ADD PUSH2 0x887 JUMP JUMPDEST SWAP2 POP POP SWAP3 SWAP2 POP POP JUMP JUMPDEST PUSH0 DUP2 MLOAD SWAP1 POP SWAP2 SWAP1 POP JUMP JUMPDEST PUSH0 DUP3 DUP3 MSTORE PUSH1 0x20 DUP3 ADD SWAP1 POP SWAP3 SWAP2 POP POP JUMP JUMPDEST DUP3 DUP2 DUP4 MCOPY PUSH0 DUP4 DUP4 ADD MSTORE POP POP POP JUMP JUMPDEST PUSH0 PUSH2 0x92D DUP3 PUSH2 0x8FB JUMP JUMPDEST PUSH2 0x937 DUP2 DUP6 PUSH2 0x905 JUMP JUMPDEST SWAP4 POP PUSH2 0x947 DUP2 DUP6 PUSH1 0x20 DUP7 ADD PUSH2 0x915 JUMP JUMPDEST PUSH2 0x950 DUP2 PUSH2 0x780 JUMP JUMPDEST DUP5 ADD SWAP2 POP POP SWAP3 SWAP2 POP POP JUMP JUMPDEST PUSH0 PUSH1 0x20 DUP3 ADD SWAP1 POP DUP2 DUP2 SUB PUSH0 DUP4 ADD MSTORE PUSH2 0x973 DUP2 DUP5 PUSH2 0x923 JUMP JUMPDEST SWAP1 POP SWAP3 SWAP2 POP POP JUMP JUMPDEST PUSH0 DUP2 ISZERO ISZERO SWAP1 POP SWAP2 SWAP1 POP JUMP JUMPDEST PUSH2 0x98F DUP2 PUSH2 0x97B JUMP JUMPDEST DUP3 MSTORE POP POP JUMP JUMPDEST PUSH0 PUSH1 0x20 DUP3 ADD SWAP1 POP PUSH2 0x9A8 PUSH0 DUP4 ADD DUP5 PUSH2 0x986 JUMP JUMPDEST SWAP3 SWAP2 POP POP JUMP JUMPDEST PUSH0 PUSH1 0x40 DUP3 ADD SWAP1 POP DUP2 DUP2 SUB PUSH0 DUP4 ADD MSTORE PUSH2 0x9C6 DUP2 DUP6 PUSH2 0x923 JUMP JUMPDEST SWAP1 POP PUSH2 0x9D5 PUSH1 0x20 DUP4 ADD DUP5 PUSH2 0x73F JUMP JUMPDEST SWAP4 SWAP3 POP POP POP JUMP JUMPDEST PUSH32 0x43616E64696461746520616C7265616479206578697374730000000000000000 PUSH0 DUP3 ADD MSTORE POP JUMP JUMPDEST PUSH0 PUSH2 0xA10 PUSH1 0x18 DUP4 PUSH2 0x905 JUMP JUMPDEST SWAP2 POP PUSH2 0xA1B DUP3 PUSH2 0x9DC JUMP JUMPDEST PUSH1 0x20 DUP3 ADD SWAP1 POP SWAP2 SWAP1 POP JUMP JUMPDEST PUSH0 PUSH1 0x20 DUP3 ADD SWAP1 POP DUP2 DUP2 SUB PUSH0 DUP4 ADD MSTORE PUSH2 0xA3D DUP2 PUSH2 0xA04 JUMP JUMPDEST SWAP1 POP SWAP2 SWAP1 POP JUMP JUMPDEST PUSH0 DUP2 SWAP1 POP SWAP3 SWAP2 POP POP JUMP JUMPDEST PUSH0 PUSH2 0xA58 DUP3 PUSH2 0x8FB JUMP JUMPDEST PUSH2 0xA62 DUP2 DUP6 PUSH2 0xA44 JUMP JUMPDEST SWAP4 POP PUSH2 0xA72 DUP2 DUP6 PUSH1 0x20 DUP7 ADD PUSH2 0x915 JUMP JUMPDEST DUP1 DUP5 ADD SWAP2 POP POP SWAP3 SWAP2 POP POP JUMP JUMPDEST PUSH0 PUSH2 0xA89 DUP3 DUP5 PUSH2 0xA4E JUMP JUMPDEST SWAP2 POP DUP2 SWAP1 POP SWAP3 SWAP2 POP POP JUMP JUMPDEST PUSH32 0x4E487B7100000000000000000000000000000000000000000000000000000000 PUSH0 MSTORE PUSH1 0x22 PUSH1 0x4 MSTORE PUSH1 0x24 PUSH0 REVERT JUMPDEST PUSH0 PUSH1 0x2 DUP3 DIV SWAP1 POP PUSH1 0x1 DUP3 AND DUP1 PUSH2 0xAD8 JUMPI PUSH1 0x7F DUP3 AND SWAP2 POP JUMPDEST PUSH1 0x20 DUP3 LT DUP2 SUB PUSH2 0xAEB JUMPI PUSH2 0xAEA PUSH2 0xA94 JUMP JUMPDEST JUMPDEST POP SWAP2 SWAP1 POP JUMP JUMPDEST PUSH0 DUP2 SWAP1 POP DUP2 PUSH0 MSTORE PUSH1 0x20 PUSH0 KECCAK256 SWAP1 POP SWAP2 SWAP1 POP JUMP JUMPDEST PUSH0 PUSH1 0x20 PUSH1 0x1F DUP4 ADD DIV SWAP1 POP SWAP2 SWAP1 POP JUMP JUMPDEST PUSH0 DUP3 DUP3 SHL SWAP1 POP SWAP3 SWAP2 POP POP JUMP JUMPDEST PUSH0 PUSH1 0x8 DUP4 MUL PUSH2 0xB4D PUSH32 0xFFFFFFFFFFFFFFFFFFFFFFFFFFFFFFFFFFFFFFFFFFFFFFFFFFFFFFFFFFFFFFFF DUP3 PUSH2 0xB12 JUMP JUMPDEST PUSH2 0xB57 DUP7 DUP4 PUSH2 0xB12 JUMP JUMPDEST SWAP6 POP DUP1 NOT DUP5 AND SWAP4 POP DUP1 DUP7 AND DUP5 OR SWAP3 POP POP POP SWAP4 SWAP3 POP POP POP JUMP JUMPDEST PUSH0 DUP2 SWAP1 POP SWAP2 SWAP1 POP JUMP JUMPDEST PUSH0 PUSH2 0xB92 PUSH2 0xB8D PUSH2 0xB88 DUP5 PUSH2 0x736 JUMP JUMPDEST PUSH2 0xB6F JUMP JUMPDEST PUSH2 0x736 JUMP JUMPDEST SWAP1 POP SWAP2 SWAP1 POP JUMP JUMPDEST PUSH0 DUP2 SWAP1 POP SWAP2 SWAP1 POP JUMP JUMPDEST PUSH2 0xBAB DUP4 PUSH2 0xB78 JUMP JUMPDEST PUSH2 0xBBF PUSH2 0xBB7 DUP3 PUSH2 0xB99 JUMP JUMPDEST DUP5 DUP5 SLOAD PUSH2 0xB1E JUMP JUMPDEST DUP3 SSTORE POP POP POP POP JUMP JUMPDEST PUSH0 PUSH0 SWAP1 POP SWAP1 JUMP JUMPDEST PUSH2 0xBD6 PUSH2 0xBC7 JUMP JUMPDEST PUSH2 0xBE1 DUP2 DUP5 DUP5 PUSH2 0xBA2 JUMP JUMPDEST POP POP POP JUMP JUMPDEST JUMPDEST DUP2 DUP2 LT ISZERO PUSH2 0xC04 JUMPI PUSH2 0xBF9 PUSH0 DUP3 PUSH2 0xBCE JUMP JUMPDEST PUSH1 0x1 DUP2 ADD SWAP1 POP PUSH2 0xBE7 JUMP JUMPDEST POP POP JUMP JUMPDEST PUSH1 0x1F DUP3 GT ISZERO PUSH2 0xC49 JUMPI PUSH2 0xC1A DUP2 PUSH2 0xAF1 JUMP JUMPDEST PUSH2 0xC23 DUP5 PUSH2 0xB03 JUMP JUMPDEST DUP2 ADD PUSH1 0x20 DUP6 LT ISZERO PUSH2 0xC32 JUMPI DUP2 SWAP1 POP JUMPDEST PUSH2 0xC46 PUSH2 0xC3E DUP6 PUSH2 0xB03 JUMP JUMPDEST DUP4 ADD DUP3 PUSH2 0xBE6 JUMP JUMPDEST POP POP JUMPDEST POP POP POP JUMP JUMPDEST PUSH0 DUP3 DUP3 SHR SWAP1 POP SWAP3 SWAP2 POP POP JUMP JUMPDEST PUSH0 PUSH2 0xC69 PUSH0 NOT DUP5 PUSH1 0x8 MUL PUSH2 0xC4E JUMP JUMPDEST NOT DUP1 DUP4 AND SWAP2 POP POP SWAP3 SWAP2 POP POP JUMP JUMPDEST PUSH0 PUSH2 0xC81 DUP4 DUP4 PUSH2 0xC5A JUMP JUMPDEST SWAP2 POP DUP3 PUSH1 0x2 MUL DUP3 OR SWAP1 POP SWAP3 SWAP2 POP POP JUMP JUMPDEST PUSH2 0xC9A DUP3 PUSH2 0x8FB JUMP JUMPDEST PUSH8 0xFFFFFFFFFFFFFFFF DUP2 GT ISZERO PUSH2 0xCB3 JUMPI PUSH2 0xCB2 PUSH2 0x790 JUMP JUMPDEST JUMPDEST PUSH2 0xCBD DUP3 SLOAD PUSH2 0xAC1 JUMP JUMPDEST PUSH2 0xCC8 DUP3 DUP3 DUP6 PUSH2 0xC08 JUMP JUMPDEST PUSH0 PUSH1 0x20 SWAP1 POP PUSH1 0x1F DUP4 GT PUSH1 0x1 DUP2 EQ PUSH2 0xCF9 JUMPI PUSH0 DUP5 ISZERO PUSH2 0xCE7 JUMPI DUP3 DUP8 ADD MLOAD SWAP1 POP JUMPDEST PUSH2 0xCF1 DUP6 DUP3 PUSH2 0xC76 JUMP JUMPDEST DUP7 SSTORE POP PUSH2 0xD58 JUMP JUMPDEST PUSH1 0x1F NOT DUP5 AND PUSH2 0xD07 DUP7 PUSH2 0xAF1 JUMP JUMPDEST PUSH0 JUMPDEST DUP3 DUP2 LT ISZERO PUSH2 0xD2E JUMPI DUP5 DUP10 ADD MLOAD DUP3 SSTORE PUSH1 0x1 DUP3 ADD SWAP2 POP PUSH1 0x20 DUP6 ADD SWAP5 POP PUSH1 0x20 DUP2 ADD SWAP1 POP PUSH2 0xD09 JUMP JUMPDEST DUP7 DUP4 LT ISZERO PUSH2 0xD4B JUMPI DUP5 DUP10 ADD MLOAD PUSH2 0xD47 PUSH1 0x1F DUP10 AND DUP3 PUSH2 0xC5A JUMP JUMPDEST DUP4 SSTORE POP JUMPDEST PUSH1 0x1 PUSH1 0x2 DUP9 MUL ADD DUP9 SSTORE POP POP POP JUMPDEST POP POP POP POP POP POP JUMP JUMPDEST PUSH32 0x43616E64696461746520646F6573206E6F742065786973740000000000000000 PUSH0 DUP3 ADD MSTORE POP JUMP JUMPDEST PUSH0 PUSH2 0xD94 PUSH1 0x18 DUP4 PUSH2 0x905 JUMP JUMPDEST SWAP2 POP PUSH2 0xD9F DUP3 PUSH2 0xD60 JUMP JUMPDEST PUSH1 0x20 DUP3 ADD SWAP1 POP SWAP2 SWAP1 POP JUMP JUMPDEST PUSH0 PUSH1 0x20 DUP3 ADD SWAP1 POP DUP2 DUP2 SUB PUSH0 DUP4 ADD MSTORE PUSH2 0xDC1 DUP2 PUSH2 0xD88 JUMP JUMPDEST SWAP1 POP SWAP2 SWAP1 POP JUMP JUMPDEST PUSH32 0x4E6F20766F746573207965740000000000000000000000000000000000000000 PUSH0 DUP3 ADD MSTORE POP JUMP JUMPDEST PUSH0 PUSH2 0xDFC PUSH1 0xC DUP4 PUSH2 0x905 JUMP JUMPDEST SWAP2 POP PUSH2 0xE07 DUP3 PUSH2 0xDC8 JUMP JUMPDEST PUSH1 0x20 DUP3 ADD SWAP1 POP SWAP2 SWAP1 POP JUMP JUMPDEST PUSH0 PUSH1 0x20 DUP3 ADD SWAP1 POP DUP2 DUP2 SUB PUSH0 DUP4 ADD MSTORE PUSH2 0xE29 DUP2 PUSH2 0xDF0 JUMP JUMPDEST SWAP1 POP SWAP2 SWAP1 POP JUMP JUMPDEST PUSH32 0x4E487B7100000000000000000000000000000000000000000000000000000000 PUSH0 MSTORE PUSH1 0x11 PUSH1 0x4 MSTORE PUSH1 0x24 PUSH0 REVERT JUMPDEST PUSH0 PUSH2 0xE67 DUP3 PUSH2 0x736 JUMP JUMPDEST SWAP2 POP PUSH32 0xFFFFFFFFFFFFFFFFFFFFFFFFFFFFFFFFFFFFFFFFFFFFFFFFFFFFFFFFFFFFFFFF DUP3 SUB PUSH2 0xE99 JUMPI PUSH2 0xE98 PUSH2 0xE30 JUMP JUMPDEST JUMPDEST PUSH1 0x1 DUP3 ADD SWAP1 POP SWAP2 SWAP1 POP JUMP INVALID LOG2 PUSH5 0x6970667358 0x22 SLT KECCAK256 TLOAD MUL EXTCODEHASH SWAP8 LOG0 SWAP4 OR SWAP14 EXTCODEHASH EOFCREATE 0x8F PUSH29 0xD1AE16CF0F4DBF494A1089D9AC3F42FB3DAFF06864736F6C634300081E STOP CALLER "
				},
				"gasEstimates": {
					"creation": {
						"codeDepositCost": "760400",
						"executionCost": "5795",
						"totalCost": "766195"
					},
					"external": {
						"addCandidate(string)": "infinite",
						"candidates(string)": "infinite",
						"getCandidateInfo(string)": "infinite",
						"getHighestVote()": "infinite",
						"getTotalVotes()": "2521",
						"highestVote()": "2425",
						"isCandidateExist(string)": "infinite",
						"nameTop()": "infinite",
						"totalVotes()": "2426",
						"vote(string)": "infinite"
					}
				},
				"methodIdentifiers": {
					"addCandidate(string)": "462e91ec",
					"candidates(string)": "c5539cc2",
					"getCandidateInfo(string)": "b61add9a",
					"getHighestVote()": "f95fe2d6",
					"getTotalVotes()": "9a0e7d66",
					"highestVote()": "b3a4dc2f",
					"isCandidateExist(string)": "7e797dee",
					"nameTop()": "4c162f2a",
					"totalVotes()": "0d15fd77",
					"vote(string)": "fc36e15b"
				}
			},
			"storageLayout": {
				"storage": [
					{
						"astId": 11,
						"contract": "contracts/qlds/CandidateManager.sol:CandidateManager",
						"label": "candidates",
						"offset": 0,
						"slot": "0",
						"type": "t_mapping(t_string_memory_ptr,t_struct(Candidate)6_storage)"
					},
					{
						"astId": 14,
						"contract": "contracts/qlds/CandidateManager.sol:CandidateManager",
						"label": "totalVotes",
						"offset": 0,
						"slot": "1",
						"type": "t_uint256"
					},
					{
						"astId": 16,
						"contract": "contracts/qlds/CandidateManager.sol:CandidateManager",
						"label": "highestVote",
						"offset": 0,
						"slot": "2",
						"type": "t_uint256"
					},
					{
						"astId": 18,
						"contract": "contracts/qlds/CandidateManager.sol:CandidateManager",
						"label": "nameTop",
						"offset": 0,
						"slot": "3",
						"type": "t_string_storage"
					}
				],
				"types": {
					"t_mapping(t_string_memory_ptr,t_struct(Candidate)6_storage)": {
						"encoding": "mapping",
						"key": "t_string_memory_ptr",
						"label": "mapping(string => struct CandidateManager.Candidate)",
						"numberOfBytes": "32",
						"value": "t_struct(Candidate)6_storage"
					},
					"t_string_memory_ptr": {
						"encoding": "bytes",
						"label": "string",
						"numberOfBytes": "32"
					},
					"t_string_storage": {
						"encoding": "bytes",
						"label": "string",
						"numberOfBytes": "32"
					},
					"t_struct(Candidate)6_storage": {
						"encoding": "inplace",
						"label": "struct CandidateManager.Candidate",
						"members": [
							{
								"astId": 3,
								"contract": "contracts/qlds/CandidateManager.sol:CandidateManager",
								"label": "name",
								"offset": 0,
								"slot": "0",
								"type": "t_string_storage"
							},
							{
								"astId": 5,
								"contract": "contracts/qlds/CandidateManager.sol:CandidateManager",
								"label": "voteCount",
								"offset": 0,
								"slot": "1",
								"type": "t_uint256"
							}
						],
						"numberOfBytes": "64"
					},
					"t_uint256": {
						"encoding": "inplace",
						"label": "uint256",
						"numberOfBytes": "32"
					}
				}
			},
			"userdoc": {
				"kind": "user",
				"methods": {},
				"version": 1
			}
		}
	}
}