{
	"contracts/qlds/CandidateManager.sol": {
		"CandidateManager": {
			"abi": [
				{
					"inputs": [
						{
							"internalType": "string",
							"name": "_name",
							"type": "string"
						}
					],
					"name": "addCandidate",
					"outputs": [],
					"stateMutability": "nonpayable",
					"type": "function"
				},
				{
					"inputs": [
						{
							"internalType": "string",
							"name": "_name",
							"type": "string"
						}
					],
					"name": "addValue",
					"outputs": [],
					"stateMutability": "nonpayable",
					"type": "function"
				},
				{
					"inputs": [
						{
							"internalType": "string",
							"name": "",
							"type": "string"
						}
					],
					"name": "candidates",
					"outputs": [
						{
							"internalType": "string",
							"name": "name",
							"type": "string"
						},
						{
							"internalType": "uint256",
							"name": "voteCount",
							"type": "uint256"
						}
					],
					"stateMutability": "view",
					"type": "function"
				},
				{
					"inputs": [
						{
							"internalType": "string",
							"name": "_name",
							"type": "string"
						}
					],
					"name": "getCandidateInfo",
					"outputs": [
						{
							"internalType": "string",
							"name": "",
							"type": "string"
						},
						{
							"internalType": "uint256",
							"name": "",
							"type": "uint256"
						}
					],
					"stateMutability": "view",
					"type": "function"
				},
				{
					"inputs": [],
					"name": "getMaxValue",
					"outputs": [
						{
							"internalType": "string",
							"name": "",
							"type": "string"
						},
						{
							"internalType": "uint256",
							"name": "",
							"type": "uint256"
						}
					],
					"stateMutability": "view",
					"type": "function"
				},
				{
					"inputs": [],
					"name": "getTotalVotes",
					"outputs": [
						{
							"internalType": "uint8",
							"name": "",
							"type": "uint8"
						}
					],
					"stateMutability": "view",
					"type": "function"
				},
				{
					"inputs": [
						{
							"internalType": "string",
							"name": "_name",
							"type": "string"
						}
					],
					"name": "isCandidateExit",
					"outputs": [
						{
							"internalType": "bool",
							"name": "",
							"type": "bool"
						}
					],
					"stateMutability": "view",
					"type": "function"
				},
				{
					"inputs": [],
					"name": "maxValue",
					"outputs": [
						{
							"internalType": "uint256",
							"name": "",
							"type": "uint256"
						}
					],
					"stateMutability": "view",
					"type": "function"
				},
				{
					"inputs": [],
					"name": "nameTop",
					"outputs": [
						{
							"internalType": "string",
							"name": "",
							"type": "string"
						}
					],
					"stateMutability": "view",
					"type": "function"
				},
				{
					"inputs": [],
					"name": "totalVotes",
					"outputs": [
						{
							"internalType": "uint8",
							"name": "",
							"type": "uint8"
						}
					],
					"stateMutability": "view",
					"type": "function"
				},
				{
					"inputs": [
						{
							"internalType": "string",
							"name": "_name",
							"type": "string"
						}
					],
					"name": "unVote",
					"outputs": [],
					"stateMutability": "nonpayable",
					"type": "function"
				},
				{
					"inputs": [
						{
							"internalType": "string",
							"name": "_name",
							"type": "string"
						}
					],
					"name": "vote",
					"outputs": [],
					"stateMutability": "nonpayable",
					"type": "function"
				}
			],
			"devdoc": {
				"kind": "dev",
				"methods": {},
				"version": 1
			},
			"evm": {
				"assembly": "    /* \"contracts/qlds/CandidateManager.sol\":60:1789  contract CandidateManager{... */\n  mstore(0x40, 0x80)\n    /* \"contracts/qlds/CandidateManager.sol\":249:250  0 */\n  0x00\n    /* \"contracts/qlds/CandidateManager.sol\":223:250  uint8 public totalVotes = 0 */\n  0x01\n  exp(0x0100, 0x00)\n  dup2\n  sload\n  dup2\n  0xff\n  mul\n  not\n  and\n  swap1\n  dup4\n  0xff\n  and\n  mul\n  or\n  swap1\n  sstore\n  pop\n    /* \"contracts/qlds/CandidateManager.sol\":60:1789  contract CandidateManager{... */\n  callvalue\n  dup1\n  iszero\n  tag_1\n  jumpi\n  revert(0x00, 0x00)\ntag_1:\n  pop\n  dataSize(sub_0)\n  dup1\n  dataOffset(sub_0)\n  0x00\n  codecopy\n  0x00\n  return\nstop\n\nsub_0: assembly {\n        /* \"contracts/qlds/CandidateManager.sol\":60:1789  contract CandidateManager{... */\n      mstore(0x40, 0x80)\n      callvalue\n      dup1\n      iszero\n      tag_1\n      jumpi\n      revert(0x00, 0x00)\n    tag_1:\n      pop\n      jumpi(tag_2, lt(calldatasize, 0x04))\n      shr(0xe0, calldataload(0x00))\n      dup1\n      0x8cbef3f1\n      gt\n      tag_15\n      jumpi\n      dup1\n      0x8cbef3f1\n      eq\n      tag_9\n      jumpi\n      dup1\n      0x94a5c2e4\n      eq\n      tag_10\n      jumpi\n      dup1\n      0x9a0e7d66\n      eq\n      tag_11\n      jumpi\n      dup1\n      0xb61add9a\n      eq\n      tag_12\n      jumpi\n      dup1\n      0xc5539cc2\n      eq\n      tag_13\n      jumpi\n      dup1\n      0xfc36e15b\n      eq\n      tag_14\n      jumpi\n      jump(tag_2)\n    tag_15:\n      dup1\n      0x0d15fd77\n      eq\n      tag_3\n      jumpi\n      dup1\n      0x3a5fbaaa\n      eq\n      tag_4\n      jumpi\n      dup1\n      0x462e91ec\n      eq\n      tag_5\n      jumpi\n      dup1\n      0x4c162f2a\n      eq\n      tag_6\n      jumpi\n      dup1\n      0x4c9eb4d4\n      eq\n      tag_7\n      jumpi\n      dup1\n      0x85453ea7\n      eq\n      tag_8\n      jumpi\n    tag_2:\n      revert(0x00, 0x00)\n        /* \"contracts/qlds/CandidateManager.sol\":223:250  uint8 public totalVotes = 0 */\n    tag_3:\n      tag_16\n      tag_17\n      jump\t// in\n    tag_16:\n      mload(0x40)\n      tag_18\n      swap2\n      swap1\n      tag_19\n      jump\t// in\n    tag_18:\n      mload(0x40)\n      dup1\n      swap2\n      sub\n      swap1\n      return\n        /* \"contracts/qlds/CandidateManager.sol\":1294:1604  function addValue(string memory _name) public {... */\n    tag_4:\n      tag_20\n      0x04\n      dup1\n      calldatasize\n      sub\n      dup2\n      add\n      swap1\n      tag_21\n      swap2\n      swap1\n      tag_22\n      jump\t// in\n    tag_21:\n      tag_23\n      jump\t// in\n    tag_20:\n      stop\n        /* \"contracts/qlds/CandidateManager.sol\":312:490  function addCandidate(string memory _name) public {... */\n    tag_5:\n      tag_24\n      0x04\n      dup1\n      calldatasize\n      sub\n      dup2\n      add\n      swap1\n      tag_25\n      swap2\n      swap1\n      tag_22\n      jump\t// in\n    tag_25:\n      tag_26\n      jump\t// in\n    tag_24:\n      stop\n        /* \"contracts/qlds/CandidateManager.sol\":284:305  string public nameTop */\n    tag_6:\n      tag_27\n      tag_28\n      jump\t// in\n    tag_27:\n      mload(0x40)\n      tag_29\n      swap2\n      swap1\n      tag_30\n      jump\t// in\n    tag_29:\n      mload(0x40)\n      dup1\n      swap2\n      sub\n      swap1\n      return\n        /* \"contracts/qlds/CandidateManager.sol\":1610:1778  function getMaxValue() public view returns(string memory,uint){... */\n    tag_7:\n      tag_31\n      tag_32\n      jump\t// in\n    tag_31:\n      mload(0x40)\n      tag_33\n      swap3\n      swap2\n      swap1\n      tag_34\n      jump\t// in\n    tag_33:\n      mload(0x40)\n      dup1\n      swap2\n      sub\n      swap1\n      return\n        /* \"contracts/qlds/CandidateManager.sol\":496:635  function isCandidateExit(string memory _name) public view returns(bool) {... */\n    tag_8:\n      tag_35\n      0x04\n      dup1\n      calldatasize\n      sub\n      dup2\n      add\n      swap1\n      tag_36\n      swap2\n      swap1\n      tag_22\n      jump\t// in\n    tag_36:\n      tag_37\n      jump\t// in\n    tag_35:\n      mload(0x40)\n      tag_38\n      swap2\n      swap1\n      tag_39\n      jump\t// in\n    tag_38:\n      mload(0x40)\n      dup1\n      swap2\n      sub\n      swap1\n      return\n        /* \"contracts/qlds/CandidateManager.sol\":957:1171  function unVote(string memory _name) public {... */\n    tag_9:\n      tag_40\n      0x04\n      dup1\n      calldatasize\n      sub\n      dup2\n      add\n      swap1\n      tag_41\n      swap2\n      swap1\n      tag_22\n      jump\t// in\n    tag_41:\n      tag_42\n      jump\t// in\n    tag_40:\n      stop\n        /* \"contracts/qlds/CandidateManager.sol\":257:277  uint public maxValue */\n    tag_10:\n      tag_43\n      tag_44\n      jump\t// in\n    tag_43:\n      mload(0x40)\n      tag_45\n      swap2\n      swap1\n      tag_46\n      jump\t// in\n    tag_45:\n      mload(0x40)\n      dup1\n      swap2\n      sub\n      swap1\n      return\n        /* \"contracts/qlds/CandidateManager.sol\":1177:1264  function getTotalVotes() public view returns(uint8){... */\n    tag_11:\n      tag_47\n      tag_48\n      jump\t// in\n    tag_47:\n      mload(0x40)\n      tag_49\n      swap2\n      swap1\n      tag_19\n      jump\t// in\n    tag_49:\n      mload(0x40)\n      dup1\n      swap2\n      sub\n      swap1\n      return\n        /* \"contracts/qlds/CandidateManager.sol\":641:806  function getCandidateInfo(string memory _name) public view returns(string memory,uint) {... */\n    tag_12:\n      tag_50\n      0x04\n      dup1\n      calldatasize\n      sub\n      dup2\n      add\n      swap1\n      tag_51\n      swap2\n      swap1\n      tag_22\n      jump\t// in\n    tag_51:\n      tag_52\n      jump\t// in\n    tag_50:\n      mload(0x40)\n      tag_53\n      swap3\n      swap2\n      swap1\n      tag_34\n      jump\t// in\n    tag_53:\n      mload(0x40)\n      dup1\n      swap2\n      sub\n      swap1\n      return\n        /* \"contracts/qlds/CandidateManager.sol\":170:216  mapping(string => Candidate) public candidates */\n    tag_13:\n      tag_54\n      0x04\n      dup1\n      calldatasize\n      sub\n      dup2\n      add\n      swap1\n      tag_55\n      swap2\n      swap1\n      tag_22\n      jump\t// in\n    tag_55:\n      tag_56\n      jump\t// in\n    tag_54:\n      mload(0x40)\n      tag_57\n      swap3\n      swap2\n      swap1\n      tag_34\n      jump\t// in\n    tag_57:\n      mload(0x40)\n      dup1\n      swap2\n      sub\n      swap1\n      return\n        /* \"contracts/qlds/CandidateManager.sol\":812:951  function vote(string memory _name) public {... */\n    tag_14:\n      tag_58\n      0x04\n      dup1\n      calldatasize\n      sub\n      dup2\n      add\n      swap1\n      tag_59\n      swap2\n      swap1\n      tag_22\n      jump\t// in\n    tag_59:\n      tag_60\n      jump\t// in\n    tag_58:\n      stop\n        /* \"contracts/qlds/CandidateManager.sol\":223:250  uint8 public totalVotes = 0 */\n    tag_17:\n      0x01\n      0x00\n      swap1\n      sload\n      swap1\n      0x0100\n      exp\n      swap1\n      div\n      0xff\n      and\n      dup2\n      jump\t// out\n        /* \"contracts/qlds/CandidateManager.sol\":1294:1604  function addValue(string memory _name) public {... */\n    tag_23:\n        /* \"contracts/qlds/CandidateManager.sol\":1365:1375  candidates */\n      0x00\n        /* \"contracts/qlds/CandidateManager.sol\":1376:1381  _name */\n      dup2\n        /* \"contracts/qlds/CandidateManager.sol\":1365:1382  candidates[_name] */\n      mload(0x40)\n      tag_62\n      swap2\n      swap1\n      tag_63\n      jump\t// in\n    tag_62:\n      swap1\n      dup2\n      mstore\n      0x20\n      add\n      mload(0x40)\n      dup1\n      swap2\n      sub\n      swap1\n      keccak256\n        /* \"contracts/qlds/CandidateManager.sol\":1365:1392  candidates[_name].voteCount */\n      0x01\n      add\n      sload\n        /* \"contracts/qlds/CandidateManager.sol\":1354:1362  maxValue */\n      sload(0x02)\n        /* \"contracts/qlds/CandidateManager.sol\":1354:1392  maxValue < candidates[_name].voteCount */\n      lt\n        /* \"contracts/qlds/CandidateManager.sol\":1351:1595  if(maxValue < candidates[_name].voteCount){... */\n      iszero\n      tag_64\n      jumpi\n        /* \"contracts/qlds/CandidateManager.sol\":1419:1429  candidates */\n      0x00\n        /* \"contracts/qlds/CandidateManager.sol\":1430:1435  _name */\n      dup2\n        /* \"contracts/qlds/CandidateManager.sol\":1419:1436  candidates[_name] */\n      mload(0x40)\n      tag_65\n      swap2\n      swap1\n      tag_63\n      jump\t// in\n    tag_65:\n      swap1\n      dup2\n      mstore\n      0x20\n      add\n      mload(0x40)\n      dup1\n      swap2\n      sub\n      swap1\n      keccak256\n        /* \"contracts/qlds/CandidateManager.sol\":1419:1446  candidates[_name].voteCount */\n      0x01\n      add\n      sload\n        /* \"contracts/qlds/CandidateManager.sol\":1408:1416  maxValue */\n      0x02\n        /* \"contracts/qlds/CandidateManager.sol\":1408:1446  maxValue = candidates[_name].voteCount */\n      dup2\n      swap1\n      sstore\n      pop\n        /* \"contracts/qlds/CandidateManager.sol\":1471:1476  _name */\n      dup1\n        /* \"contracts/qlds/CandidateManager.sol\":1461:1468  nameTop */\n      0x03\n        /* \"contracts/qlds/CandidateManager.sol\":1461:1476  nameTop = _name */\n      swap1\n      dup2\n      tag_66\n      swap2\n      swap1\n      tag_67\n      jump\t// in\n    tag_66:\n      pop\n        /* \"contracts/qlds/CandidateManager.sol\":1351:1595  if(maxValue < candidates[_name].voteCount){... */\n      jump(tag_68)\n    tag_64:\n        /* \"contracts/qlds/CandidateManager.sol\":1527:1528  0 */\n      0x00\n        /* \"contracts/qlds/CandidateManager.sol\":1496:1506  candidates */\n      0x00\n        /* \"contracts/qlds/CandidateManager.sol\":1507:1512  _name */\n      dup3\n        /* \"contracts/qlds/CandidateManager.sol\":1496:1513  candidates[_name] */\n      mload(0x40)\n      tag_69\n      swap2\n      swap1\n      tag_63\n      jump\t// in\n    tag_69:\n      swap1\n      dup2\n      mstore\n      0x20\n      add\n      mload(0x40)\n      dup1\n      swap2\n      sub\n      swap1\n      keccak256\n        /* \"contracts/qlds/CandidateManager.sol\":1496:1523  candidates[_name].voteCount */\n      0x01\n      add\n      sload\n        /* \"contracts/qlds/CandidateManager.sol\":1496:1528  candidates[_name].voteCount == 0 */\n      sub\n        /* \"contracts/qlds/CandidateManager.sol\":1493:1595  if(candidates[_name].voteCount == 0){... */\n      tag_70\n      jumpi\n        /* \"contracts/qlds/CandidateManager.sol\":1555:1556  0 */\n      0x00\n        /* \"contracts/qlds/CandidateManager.sol\":1544:1552  maxValue */\n      0x02\n        /* \"contracts/qlds/CandidateManager.sol\":1544:1556  maxValue = 0 */\n      dup2\n      swap1\n      sstore\n      pop\n        /* \"contracts/qlds/CandidateManager.sol\":1571:1583  nameTop = \"\" */\n      mload(0x40)\n      dup1\n      0x20\n      add\n      0x40\n      mstore\n      dup1\n      0x00\n      dup2\n      mstore\n      pop\n        /* \"contracts/qlds/CandidateManager.sol\":1571:1578  nameTop */\n      0x03\n        /* \"contracts/qlds/CandidateManager.sol\":1571:1583  nameTop = \"\" */\n      swap1\n      dup2\n      tag_71\n      swap2\n      swap1\n      tag_67\n      jump\t// in\n    tag_71:\n      pop\n        /* \"contracts/qlds/CandidateManager.sol\":1493:1595  if(candidates[_name].voteCount == 0){... */\n    tag_70:\n        /* \"contracts/qlds/CandidateManager.sol\":1351:1595  if(maxValue < candidates[_name].voteCount){... */\n    tag_68:\n        /* \"contracts/qlds/CandidateManager.sol\":1294:1604  function addValue(string memory _name) public {... */\n      pop\n      jump\t// out\n        /* \"contracts/qlds/CandidateManager.sol\":312:490  function addCandidate(string memory _name) public {... */\n    tag_26:\n        /* \"contracts/qlds/CandidateManager.sol\":382:404  isCandidateExit(_name) */\n      tag_73\n        /* \"contracts/qlds/CandidateManager.sol\":398:403  _name */\n      dup2\n        /* \"contracts/qlds/CandidateManager.sol\":382:397  isCandidateExit */\n      tag_37\n        /* \"contracts/qlds/CandidateManager.sol\":382:404  isCandidateExit(_name) */\n      jump\t// in\n    tag_73:\n        /* \"contracts/qlds/CandidateManager.sol\":381:404  !isCandidateExit(_name) */\n      iszero\n        /* \"contracts/qlds/CandidateManager.sol\":373:433  require(!isCandidateExit(_name), \"Candidate already exists\") */\n      tag_74\n      jumpi\n      mload(0x40)\n      0x08c379a000000000000000000000000000000000000000000000000000000000\n      dup2\n      mstore\n      0x04\n      add\n      tag_75\n      swap1\n      tag_76\n      jump\t// in\n    tag_75:\n      mload(0x40)\n      dup1\n      swap2\n      sub\n      swap1\n      revert\n    tag_74:\n        /* \"contracts/qlds/CandidateManager.sol\":464:482  Candidate(_name,0) */\n      mload(0x40)\n      dup1\n      0x40\n      add\n      0x40\n      mstore\n      dup1\n        /* \"contracts/qlds/CandidateManager.sol\":474:479  _name */\n      dup3\n        /* \"contracts/qlds/CandidateManager.sol\":464:482  Candidate(_name,0) */\n      dup2\n      mstore\n      0x20\n      add\n        /* \"contracts/qlds/CandidateManager.sol\":480:481  0 */\n      0x00\n        /* \"contracts/qlds/CandidateManager.sol\":464:482  Candidate(_name,0) */\n      dup2\n      mstore\n      pop\n        /* \"contracts/qlds/CandidateManager.sol\":444:454  candidates */\n      0x00\n        /* \"contracts/qlds/CandidateManager.sol\":455:460  _name */\n      dup3\n        /* \"contracts/qlds/CandidateManager.sol\":444:461  candidates[_name] */\n      mload(0x40)\n      tag_77\n      swap2\n      swap1\n      tag_63\n      jump\t// in\n    tag_77:\n      swap1\n      dup2\n      mstore\n      0x20\n      add\n      mload(0x40)\n      dup1\n      swap2\n      sub\n      swap1\n      keccak256\n        /* \"contracts/qlds/CandidateManager.sol\":444:482  candidates[_name] = Candidate(_name,0) */\n      0x00\n      dup3\n      add\n      mload\n      dup2\n      0x00\n      add\n      swap1\n      dup2\n      tag_78\n      swap2\n      swap1\n      tag_67\n      jump\t// in\n    tag_78:\n      pop\n      0x20\n      dup3\n      add\n      mload\n      dup2\n      0x01\n      add\n      sstore\n      swap1\n      pop\n      pop\n        /* \"contracts/qlds/CandidateManager.sol\":312:490  function addCandidate(string memory _name) public {... */\n      pop\n      jump\t// out\n        /* \"contracts/qlds/CandidateManager.sol\":284:305  string public nameTop */\n    tag_28:\n      0x03\n      dup1\n      sload\n      tag_79\n      swap1\n      tag_80\n      jump\t// in\n    tag_79:\n      dup1\n      0x1f\n      add\n      0x20\n      dup1\n      swap2\n      div\n      mul\n      0x20\n      add\n      mload(0x40)\n      swap1\n      dup2\n      add\n      0x40\n      mstore\n      dup1\n      swap3\n      swap2\n      swap1\n      dup2\n      dup2\n      mstore\n      0x20\n      add\n      dup3\n      dup1\n      sload\n      tag_81\n      swap1\n      tag_80\n      jump\t// in\n    tag_81:\n      dup1\n      iszero\n      tag_82\n      jumpi\n      dup1\n      0x1f\n      lt\n      tag_83\n      jumpi\n      0x0100\n      dup1\n      dup4\n      sload\n      div\n      mul\n      dup4\n      mstore\n      swap2\n      0x20\n      add\n      swap2\n      jump(tag_82)\n    tag_83:\n      dup3\n      add\n      swap2\n      swap1\n      0x00\n      mstore\n      keccak256(0x00, 0x20)\n      swap1\n    tag_84:\n      dup2\n      sload\n      dup2\n      mstore\n      swap1\n      0x01\n      add\n      swap1\n      0x20\n      add\n      dup1\n      dup4\n      gt\n      tag_84\n      jumpi\n      dup3\n      swap1\n      sub\n      0x1f\n      and\n      dup3\n      add\n      swap2\n    tag_82:\n      pop\n      pop\n      pop\n      pop\n      pop\n      dup2\n      jump\t// out\n        /* \"contracts/qlds/CandidateManager.sol\":1610:1778  function getMaxValue() public view returns(string memory,uint){... */\n    tag_32:\n        /* \"contracts/qlds/CandidateManager.sol\":1653:1666  string memory */\n      0x60\n        /* \"contracts/qlds/CandidateManager.sol\":1667:1671  uint */\n      0x00\n        /* \"contracts/qlds/CandidateManager.sol\":1716:1717  0 */\n      0x00\n        /* \"contracts/qlds/CandidateManager.sol\":1697:1704  nameTop */\n      0x03\n        /* \"contracts/qlds/CandidateManager.sol\":1691:1712  bytes(nameTop).length */\n      dup1\n      sload\n      tag_86\n      swap1\n      tag_80\n      jump\t// in\n    tag_86:\n      swap1\n      pop\n        /* \"contracts/qlds/CandidateManager.sol\":1691:1717  bytes(nameTop).length != 0 */\n      sub\n        /* \"contracts/qlds/CandidateManager.sol\":1683:1734  require(bytes(nameTop).length != 0, \"No votes yet\") */\n      tag_87\n      jumpi\n      mload(0x40)\n      0x08c379a000000000000000000000000000000000000000000000000000000000\n      dup2\n      mstore\n      0x04\n      add\n      tag_88\n      swap1\n      tag_89\n      jump\t// in\n    tag_88:\n      mload(0x40)\n      dup1\n      swap2\n      sub\n      swap1\n      revert\n    tag_87:\n        /* \"contracts/qlds/CandidateManager.sol\":1753:1760  nameTop */\n      0x03\n        /* \"contracts/qlds/CandidateManager.sol\":1761:1769  maxValue */\n      sload(0x02)\n        /* \"contracts/qlds/CandidateManager.sol\":1745:1770  return (nameTop,maxValue) */\n      dup2\n      dup1\n      sload\n      tag_90\n      swap1\n      tag_80\n      jump\t// in\n    tag_90:\n      dup1\n      0x1f\n      add\n      0x20\n      dup1\n      swap2\n      div\n      mul\n      0x20\n      add\n      mload(0x40)\n      swap1\n      dup2\n      add\n      0x40\n      mstore\n      dup1\n      swap3\n      swap2\n      swap1\n      dup2\n      dup2\n      mstore\n      0x20\n      add\n      dup3\n      dup1\n      sload\n      tag_91\n      swap1\n      tag_80\n      jump\t// in\n    tag_91:\n      dup1\n      iszero\n      tag_92\n      jumpi\n      dup1\n      0x1f\n      lt\n      tag_93\n      jumpi\n      0x0100\n      dup1\n      dup4\n      sload\n      div\n      mul\n      dup4\n      mstore\n      swap2\n      0x20\n      add\n      swap2\n      jump(tag_92)\n    tag_93:\n      dup3\n      add\n      swap2\n      swap1\n      0x00\n      mstore\n      keccak256(0x00, 0x20)\n      swap1\n    tag_94:\n      dup2\n      sload\n      dup2\n      mstore\n      swap1\n      0x01\n      add\n      swap1\n      0x20\n      add\n      dup1\n      dup4\n      gt\n      tag_94\n      jumpi\n      dup3\n      swap1\n      sub\n      0x1f\n      and\n      dup3\n      add\n      swap2\n    tag_92:\n      pop\n      pop\n      pop\n      pop\n      pop\n      swap2\n      pop\n      swap2\n      pop\n      swap2\n      pop\n        /* \"contracts/qlds/CandidateManager.sol\":1610:1778  function getMaxValue() public view returns(string memory,uint){... */\n      swap1\n      swap2\n      jump\t// out\n        /* \"contracts/qlds/CandidateManager.sol\":496:635  function isCandidateExit(string memory _name) public view returns(bool) {... */\n    tag_37:\n        /* \"contracts/qlds/CandidateManager.sol\":562:566  bool */\n      0x00\n        /* \"contracts/qlds/CandidateManager.sol\":626:627  0 */\n      0x00\n        /* \"contracts/qlds/CandidateManager.sol\":592:602  candidates */\n      0x00\n        /* \"contracts/qlds/CandidateManager.sol\":603:608  _name */\n      dup4\n        /* \"contracts/qlds/CandidateManager.sol\":592:609  candidates[_name] */\n      mload(0x40)\n      tag_96\n      swap2\n      swap1\n      tag_63\n      jump\t// in\n    tag_96:\n      swap1\n      dup2\n      mstore\n      0x20\n      add\n      mload(0x40)\n      dup1\n      swap2\n      sub\n      swap1\n      keccak256\n        /* \"contracts/qlds/CandidateManager.sol\":592:614  candidates[_name].name */\n      0x00\n      add\n        /* \"contracts/qlds/CandidateManager.sol\":586:622  bytes(candidates[_name].name).length */\n      dup1\n      sload\n      tag_97\n      swap1\n      tag_80\n      jump\t// in\n    tag_97:\n      swap1\n      pop\n        /* \"contracts/qlds/CandidateManager.sol\":586:627  bytes(candidates[_name].name).length != 0 */\n      eq\n      iszero\n        /* \"contracts/qlds/CandidateManager.sol\":579:627  return bytes(candidates[_name].name).length != 0 */\n      swap1\n      pop\n        /* \"contracts/qlds/CandidateManager.sol\":496:635  function isCandidateExit(string memory _name) public view returns(bool) {... */\n      swap2\n      swap1\n      pop\n      jump\t// out\n        /* \"contracts/qlds/CandidateManager.sol\":957:1171  function unVote(string memory _name) public {... */\n    tag_42:\n        /* \"contracts/qlds/CandidateManager.sol\":1050:1051  0 */\n      0x00\n        /* \"contracts/qlds/CandidateManager.sol\":1020:1030  candidates */\n      0x00\n        /* \"contracts/qlds/CandidateManager.sol\":1031:1036  _name */\n      dup3\n        /* \"contracts/qlds/CandidateManager.sol\":1020:1037  candidates[_name] */\n      mload(0x40)\n      tag_99\n      swap2\n      swap1\n      tag_63\n      jump\t// in\n    tag_99:\n      swap1\n      dup2\n      mstore\n      0x20\n      add\n      mload(0x40)\n      dup1\n      swap2\n      sub\n      swap1\n      keccak256\n        /* \"contracts/qlds/CandidateManager.sol\":1020:1047  candidates[_name].voteCount */\n      0x01\n      add\n      sload\n        /* \"contracts/qlds/CandidateManager.sol\":1020:1051  candidates[_name].voteCount > 0 */\n      gt\n        /* \"contracts/qlds/CandidateManager.sol\":1012:1074  require(candidates[_name].voteCount > 0, \"No votes to remove\") */\n      tag_100\n      jumpi\n      mload(0x40)\n      0x08c379a000000000000000000000000000000000000000000000000000000000\n      dup2\n      mstore\n      0x04\n      add\n      tag_101\n      swap1\n      tag_102\n      jump\t// in\n    tag_101:\n      mload(0x40)\n      dup1\n      swap2\n      sub\n      swap1\n      revert\n    tag_100:\n        /* \"contracts/qlds/CandidateManager.sol\":1085:1095  candidates */\n      0x00\n        /* \"contracts/qlds/CandidateManager.sol\":1096:1101  _name */\n      dup2\n        /* \"contracts/qlds/CandidateManager.sol\":1085:1102  candidates[_name] */\n      mload(0x40)\n      tag_103\n      swap2\n      swap1\n      tag_63\n      jump\t// in\n    tag_103:\n      swap1\n      dup2\n      mstore\n      0x20\n      add\n      mload(0x40)\n      dup1\n      swap2\n      sub\n      swap1\n      keccak256\n        /* \"contracts/qlds/CandidateManager.sol\":1085:1112  candidates[_name].voteCount */\n      0x01\n      add\n      0x00\n        /* \"contracts/qlds/CandidateManager.sol\":1085:1114  candidates[_name].voteCount-- */\n      dup2\n      sload\n      dup1\n      swap3\n      swap2\n      swap1\n      tag_104\n      swap1\n      tag_105\n      jump\t// in\n    tag_104:\n      swap2\n      swap1\n      pop\n      sstore\n      pop\n        /* \"contracts/qlds/CandidateManager.sol\":1125:1140  addValue(_name) */\n      tag_106\n        /* \"contracts/qlds/CandidateManager.sol\":1134:1139  _name */\n      dup2\n        /* \"contracts/qlds/CandidateManager.sol\":1125:1133  addValue */\n      tag_23\n        /* \"contracts/qlds/CandidateManager.sol\":1125:1140  addValue(_name) */\n      jump\t// in\n    tag_106:\n        /* \"contracts/qlds/CandidateManager.sol\":1151:1161  totalVotes */\n      0x01\n      0x00\n        /* \"contracts/qlds/CandidateManager.sol\":1151:1163  totalVotes-- */\n      dup2\n      dup2\n      swap1\n      sload\n      swap1\n      0x0100\n      exp\n      swap1\n      div\n      0xff\n      and\n      dup1\n      swap3\n      swap2\n      swap1\n      tag_107\n      swap1\n      tag_108\n      jump\t// in\n    tag_107:\n      swap2\n      swap1\n      0x0100\n      exp\n      dup2\n      sload\n      dup2\n      0xff\n      mul\n      not\n      and\n      swap1\n      dup4\n      0xff\n      and\n      mul\n      or\n      swap1\n      sstore\n      pop\n      pop\n        /* \"contracts/qlds/CandidateManager.sol\":957:1171  function unVote(string memory _name) public {... */\n      pop\n      jump\t// out\n        /* \"contracts/qlds/CandidateManager.sol\":257:277  uint public maxValue */\n    tag_44:\n      sload(0x02)\n      dup2\n      jump\t// out\n        /* \"contracts/qlds/CandidateManager.sol\":1177:1264  function getTotalVotes() public view returns(uint8){... */\n    tag_48:\n        /* \"contracts/qlds/CandidateManager.sol\":1222:1227  uint8 */\n      0x00\n        /* \"contracts/qlds/CandidateManager.sol\":1246:1256  totalVotes */\n      0x01\n      0x00\n      swap1\n      sload\n      swap1\n      0x0100\n      exp\n      swap1\n      div\n      0xff\n      and\n        /* \"contracts/qlds/CandidateManager.sol\":1239:1256  return totalVotes */\n      swap1\n      pop\n        /* \"contracts/qlds/CandidateManager.sol\":1177:1264  function getTotalVotes() public view returns(uint8){... */\n      swap1\n      jump\t// out\n        /* \"contracts/qlds/CandidateManager.sol\":641:806  function getCandidateInfo(string memory _name) public view returns(string memory,uint) {... */\n    tag_52:\n        /* \"contracts/qlds/CandidateManager.sol\":708:721  string memory */\n      0x60\n        /* \"contracts/qlds/CandidateManager.sol\":722:726  uint */\n      0x00\n        /* \"contracts/qlds/CandidateManager.sol\":747:757  candidates */\n      0x00\n        /* \"contracts/qlds/CandidateManager.sol\":758:763  _name */\n      dup4\n        /* \"contracts/qlds/CandidateManager.sol\":747:764  candidates[_name] */\n      mload(0x40)\n      tag_111\n      swap2\n      swap1\n      tag_63\n      jump\t// in\n    tag_111:\n      swap1\n      dup2\n      mstore\n      0x20\n      add\n      mload(0x40)\n      dup1\n      swap2\n      sub\n      swap1\n      keccak256\n        /* \"contracts/qlds/CandidateManager.sol\":747:769  candidates[_name].name */\n      0x00\n      add\n        /* \"contracts/qlds/CandidateManager.sol\":770:780  candidates */\n      0x00\n        /* \"contracts/qlds/CandidateManager.sol\":781:786  _name */\n      dup5\n        /* \"contracts/qlds/CandidateManager.sol\":770:787  candidates[_name] */\n      mload(0x40)\n      tag_112\n      swap2\n      swap1\n      tag_63\n      jump\t// in\n    tag_112:\n      swap1\n      dup2\n      mstore\n      0x20\n      add\n      mload(0x40)\n      dup1\n      swap2\n      sub\n      swap1\n      keccak256\n        /* \"contracts/qlds/CandidateManager.sol\":770:797  candidates[_name].voteCount */\n      0x01\n      add\n      sload\n        /* \"contracts/qlds/CandidateManager.sol\":739:798  return (candidates[_name].name,candidates[_name].voteCount) */\n      dup2\n      dup1\n      sload\n      tag_113\n      swap1\n      tag_80\n      jump\t// in\n    tag_113:\n      dup1\n      0x1f\n      add\n      0x20\n      dup1\n      swap2\n      div\n      mul\n      0x20\n      add\n      mload(0x40)\n      swap1\n      dup2\n      add\n      0x40\n      mstore\n      dup1\n      swap3\n      swap2\n      swap1\n      dup2\n      dup2\n      mstore\n      0x20\n      add\n      dup3\n      dup1\n      sload\n      tag_114\n      swap1\n      tag_80\n      jump\t// in\n    tag_114:\n      dup1\n      iszero\n      tag_115\n      jumpi\n      dup1\n      0x1f\n      lt\n      tag_116\n      jumpi\n      0x0100\n      dup1\n      dup4\n      sload\n      div\n      mul\n      dup4\n      mstore\n      swap2\n      0x20\n      add\n      swap2\n      jump(tag_115)\n    tag_116:\n      dup3\n      add\n      swap2\n      swap1\n      0x00\n      mstore\n      keccak256(0x00, 0x20)\n      swap1\n    tag_117:\n      dup2\n      sload\n      dup2\n      mstore\n      swap1\n      0x01\n      add\n      swap1\n      0x20\n      add\n      dup1\n      dup4\n      gt\n      tag_117\n      jumpi\n      dup3\n      swap1\n      sub\n      0x1f\n      and\n      dup3\n      add\n      swap2\n    tag_115:\n      pop\n      pop\n      pop\n      pop\n      pop\n      swap2\n      pop\n      swap2\n      pop\n      swap2\n      pop\n        /* \"contracts/qlds/CandidateManager.sol\":641:806  function getCandidateInfo(string memory _name) public view returns(string memory,uint) {... */\n      swap2\n      pop\n      swap2\n      jump\t// out\n        /* \"contracts/qlds/CandidateManager.sol\":170:216  mapping(string => Candidate) public candidates */\n    tag_56:\n      0x00\n      dup2\n      dup1\n      mload\n      0x20\n      dup2\n      add\n      dup3\n      add\n      dup1\n      mload\n      dup5\n      dup3\n      mstore\n      0x20\n      dup4\n      add\n      0x20\n      dup6\n      add\n      keccak256\n      dup2\n      dup4\n      mstore\n      dup1\n      swap6\n      pop\n      pop\n      pop\n      pop\n      pop\n      pop\n      0x00\n      swap2\n      pop\n      swap1\n      pop\n      dup1\n      0x00\n      add\n      dup1\n      sload\n      tag_118\n      swap1\n      tag_80\n      jump\t// in\n    tag_118:\n      dup1\n      0x1f\n      add\n      0x20\n      dup1\n      swap2\n      div\n      mul\n      0x20\n      add\n      mload(0x40)\n      swap1\n      dup2\n      add\n      0x40\n      mstore\n      dup1\n      swap3\n      swap2\n      swap1\n      dup2\n      dup2\n      mstore\n      0x20\n      add\n      dup3\n      dup1\n      sload\n      tag_119\n      swap1\n      tag_80\n      jump\t// in\n    tag_119:\n      dup1\n      iszero\n      tag_120\n      jumpi\n      dup1\n      0x1f\n      lt\n      tag_121\n      jumpi\n      0x0100\n      dup1\n      dup4\n      sload\n      div\n      mul\n      dup4\n      mstore\n      swap2\n      0x20\n      add\n      swap2\n      jump(tag_120)\n    tag_121:\n      dup3\n      add\n      swap2\n      swap1\n      0x00\n      mstore\n      keccak256(0x00, 0x20)\n      swap1\n    tag_122:\n      dup2\n      sload\n      dup2\n      mstore\n      swap1\n      0x01\n      add\n      swap1\n      0x20\n      add\n      dup1\n      dup4\n      gt\n      tag_122\n      jumpi\n      dup3\n      swap1\n      sub\n      0x1f\n      and\n      dup3\n      add\n      swap2\n    tag_120:\n      pop\n      pop\n      pop\n      pop\n      pop\n      swap1\n      dup1\n      0x01\n      add\n      sload\n      swap1\n      pop\n      dup3\n      jump\t// out\n        /* \"contracts/qlds/CandidateManager.sol\":812:951  function vote(string memory _name) public {... */\n    tag_60:\n        /* \"contracts/qlds/CandidateManager.sol\":865:875  candidates */\n      0x00\n        /* \"contracts/qlds/CandidateManager.sol\":876:881  _name */\n      dup2\n        /* \"contracts/qlds/CandidateManager.sol\":865:882  candidates[_name] */\n      mload(0x40)\n      tag_124\n      swap2\n      swap1\n      tag_63\n      jump\t// in\n    tag_124:\n      swap1\n      dup2\n      mstore\n      0x20\n      add\n      mload(0x40)\n      dup1\n      swap2\n      sub\n      swap1\n      keccak256\n        /* \"contracts/qlds/CandidateManager.sol\":865:892  candidates[_name].voteCount */\n      0x01\n      add\n      0x00\n        /* \"contracts/qlds/CandidateManager.sol\":865:894  candidates[_name].voteCount++ */\n      dup2\n      sload\n      dup1\n      swap3\n      swap2\n      swap1\n      tag_125\n      swap1\n      tag_126\n      jump\t// in\n    tag_125:\n      swap2\n      swap1\n      pop\n      sstore\n      pop\n        /* \"contracts/qlds/CandidateManager.sol\":905:920  addValue(_name) */\n      tag_127\n        /* \"contracts/qlds/CandidateManager.sol\":914:919  _name */\n      dup2\n        /* \"contracts/qlds/CandidateManager.sol\":905:913  addValue */\n      tag_23\n        /* \"contracts/qlds/CandidateManager.sol\":905:920  addValue(_name) */\n      jump\t// in\n    tag_127:\n        /* \"contracts/qlds/CandidateManager.sol\":931:941  totalVotes */\n      0x01\n      0x00\n        /* \"contracts/qlds/CandidateManager.sol\":931:943  totalVotes++ */\n      dup2\n      dup2\n      swap1\n      sload\n      swap1\n      0x0100\n      exp\n      swap1\n      div\n      0xff\n      and\n      dup1\n      swap3\n      swap2\n      swap1\n      tag_128\n      swap1\n      tag_129\n      jump\t// in\n    tag_128:\n      swap2\n      swap1\n      0x0100\n      exp\n      dup2\n      sload\n      dup2\n      0xff\n      mul\n      not\n      and\n      swap1\n      dup4\n      0xff\n      and\n      mul\n      or\n      swap1\n      sstore\n      pop\n      pop\n        /* \"contracts/qlds/CandidateManager.sol\":812:951  function vote(string memory _name) public {... */\n      pop\n      jump\t// out\n        /* \"#utility.yul\":7:93   */\n    tag_130:\n        /* \"#utility.yul\":42:49   */\n      0x00\n        /* \"#utility.yul\":82:86   */\n      0xff\n        /* \"#utility.yul\":75:80   */\n      dup3\n        /* \"#utility.yul\":71:87   */\n      and\n        /* \"#utility.yul\":60:87   */\n      swap1\n      pop\n        /* \"#utility.yul\":7:93   */\n      swap2\n      swap1\n      pop\n      jump\t// out\n        /* \"#utility.yul\":99:211   */\n    tag_131:\n        /* \"#utility.yul\":182:204   */\n      tag_181\n        /* \"#utility.yul\":198:203   */\n      dup2\n        /* \"#utility.yul\":182:204   */\n      tag_130\n      jump\t// in\n    tag_181:\n        /* \"#utility.yul\":177:180   */\n      dup3\n        /* \"#utility.yul\":170:205   */\n      mstore\n        /* \"#utility.yul\":99:211   */\n      pop\n      pop\n      jump\t// out\n        /* \"#utility.yul\":217:431   */\n    tag_19:\n        /* \"#utility.yul\":306:310   */\n      0x00\n        /* \"#utility.yul\":344:346   */\n      0x20\n        /* \"#utility.yul\":333:342   */\n      dup3\n        /* \"#utility.yul\":329:347   */\n      add\n        /* \"#utility.yul\":321:347   */\n      swap1\n      pop\n        /* \"#utility.yul\":357:424   */\n      tag_183\n        /* \"#utility.yul\":421:422   */\n      0x00\n        /* \"#utility.yul\":410:419   */\n      dup4\n        /* \"#utility.yul\":406:423   */\n      add\n        /* \"#utility.yul\":397:403   */\n      dup5\n        /* \"#utility.yul\":357:424   */\n      tag_131\n      jump\t// in\n    tag_183:\n        /* \"#utility.yul\":217:431   */\n      swap3\n      swap2\n      pop\n      pop\n      jump\t// out\n        /* \"#utility.yul\":437:512   */\n    tag_132:\n        /* \"#utility.yul\":470:476   */\n      0x00\n        /* \"#utility.yul\":503:505   */\n      0x40\n        /* \"#utility.yul\":497:506   */\n      mload\n        /* \"#utility.yul\":487:506   */\n      swap1\n      pop\n        /* \"#utility.yul\":437:512   */\n      swap1\n      jump\t// out\n        /* \"#utility.yul\":518:635   */\n    tag_133:\n        /* \"#utility.yul\":627:628   */\n      0x00\n        /* \"#utility.yul\":624:625   */\n      0x00\n        /* \"#utility.yul\":617:629   */\n      revert\n        /* \"#utility.yul\":641:758   */\n    tag_134:\n        /* \"#utility.yul\":750:751   */\n      0x00\n        /* \"#utility.yul\":747:748   */\n      0x00\n        /* \"#utility.yul\":740:752   */\n      revert\n        /* \"#utility.yul\":764:881   */\n    tag_135:\n        /* \"#utility.yul\":873:874   */\n      0x00\n        /* \"#utility.yul\":870:871   */\n      0x00\n        /* \"#utility.yul\":863:875   */\n      revert\n        /* \"#utility.yul\":887:1004   */\n    tag_136:\n        /* \"#utility.yul\":996:997   */\n      0x00\n        /* \"#utility.yul\":993:994   */\n      0x00\n        /* \"#utility.yul\":986:998   */\n      revert\n        /* \"#utility.yul\":1010:1112   */\n    tag_137:\n        /* \"#utility.yul\":1051:1057   */\n      0x00\n        /* \"#utility.yul\":1102:1104   */\n      0x1f\n        /* \"#utility.yul\":1098:1105   */\n      not\n        /* \"#utility.yul\":1093:1095   */\n      0x1f\n        /* \"#utility.yul\":1086:1091   */\n      dup4\n        /* \"#utility.yul\":1082:1096   */\n      add\n        /* \"#utility.yul\":1078:1106   */\n      and\n        /* \"#utility.yul\":1068:1106   */\n      swap1\n      pop\n        /* \"#utility.yul\":1010:1112   */\n      swap2\n      swap1\n      pop\n      jump\t// out\n        /* \"#utility.yul\":1118:1298   */\n    tag_138:\n        /* \"#utility.yul\":1166:1243   */\n      0x4e487b7100000000000000000000000000000000000000000000000000000000\n        /* \"#utility.yul\":1163:1164   */\n      0x00\n        /* \"#utility.yul\":1156:1244   */\n      mstore\n        /* \"#utility.yul\":1263:1267   */\n      0x41\n        /* \"#utility.yul\":1260:1261   */\n      0x04\n        /* \"#utility.yul\":1253:1268   */\n      mstore\n        /* \"#utility.yul\":1287:1291   */\n      0x24\n        /* \"#utility.yul\":1284:1285   */\n      0x00\n        /* \"#utility.yul\":1277:1292   */\n      revert\n        /* \"#utility.yul\":1304:1585   */\n    tag_139:\n        /* \"#utility.yul\":1387:1414   */\n      tag_192\n        /* \"#utility.yul\":1409:1413   */\n      dup3\n        /* \"#utility.yul\":1387:1414   */\n      tag_137\n      jump\t// in\n    tag_192:\n        /* \"#utility.yul\":1379:1385   */\n      dup2\n        /* \"#utility.yul\":1375:1415   */\n      add\n        /* \"#utility.yul\":1517:1523   */\n      dup2\n        /* \"#utility.yul\":1505:1515   */\n      dup2\n        /* \"#utility.yul\":1502:1524   */\n      lt\n        /* \"#utility.yul\":1481:1499   */\n      0xffffffffffffffff\n        /* \"#utility.yul\":1469:1479   */\n      dup3\n        /* \"#utility.yul\":1466:1500   */\n      gt\n        /* \"#utility.yul\":1463:1525   */\n      or\n        /* \"#utility.yul\":1460:1548   */\n      iszero\n      tag_193\n      jumpi\n        /* \"#utility.yul\":1528:1546   */\n      tag_194\n      tag_138\n      jump\t// in\n    tag_194:\n        /* \"#utility.yul\":1460:1548   */\n    tag_193:\n        /* \"#utility.yul\":1568:1578   */\n      dup1\n        /* \"#utility.yul\":1564:1566   */\n      0x40\n        /* \"#utility.yul\":1557:1579   */\n      mstore\n        /* \"#utility.yul\":1347:1585   */\n      pop\n        /* \"#utility.yul\":1304:1585   */\n      pop\n      pop\n      jump\t// out\n        /* \"#utility.yul\":1591:1720   */\n    tag_140:\n        /* \"#utility.yul\":1625:1631   */\n      0x00\n        /* \"#utility.yul\":1652:1672   */\n      tag_196\n      tag_132\n      jump\t// in\n    tag_196:\n        /* \"#utility.yul\":1642:1672   */\n      swap1\n      pop\n        /* \"#utility.yul\":1681:1714   */\n      tag_197\n        /* \"#utility.yul\":1709:1713   */\n      dup3\n        /* \"#utility.yul\":1701:1707   */\n      dup3\n        /* \"#utility.yul\":1681:1714   */\n      tag_139\n      jump\t// in\n    tag_197:\n        /* \"#utility.yul\":1591:1720   */\n      swap2\n      swap1\n      pop\n      jump\t// out\n        /* \"#utility.yul\":1726:2034   */\n    tag_141:\n        /* \"#utility.yul\":1788:1792   */\n      0x00\n        /* \"#utility.yul\":1878:1896   */\n      0xffffffffffffffff\n        /* \"#utility.yul\":1870:1876   */\n      dup3\n        /* \"#utility.yul\":1867:1897   */\n      gt\n        /* \"#utility.yul\":1864:1920   */\n      iszero\n      tag_199\n      jumpi\n        /* \"#utility.yul\":1900:1918   */\n      tag_200\n      tag_138\n      jump\t// in\n    tag_200:\n        /* \"#utility.yul\":1864:1920   */\n    tag_199:\n        /* \"#utility.yul\":1938:1967   */\n      tag_201\n        /* \"#utility.yul\":1960:1966   */\n      dup3\n        /* \"#utility.yul\":1938:1967   */\n      tag_137\n      jump\t// in\n    tag_201:\n        /* \"#utility.yul\":1930:1967   */\n      swap1\n      pop\n        /* \"#utility.yul\":2022:2026   */\n      0x20\n        /* \"#utility.yul\":2016:2020   */\n      dup2\n        /* \"#utility.yul\":2012:2027   */\n      add\n        /* \"#utility.yul\":2004:2027   */\n      swap1\n      pop\n        /* \"#utility.yul\":1726:2034   */\n      swap2\n      swap1\n      pop\n      jump\t// out\n        /* \"#utility.yul\":2040:2188   */\n    tag_142:\n        /* \"#utility.yul\":2138:2144   */\n      dup3\n        /* \"#utility.yul\":2133:2136   */\n      dup2\n        /* \"#utility.yul\":2128:2131   */\n      dup4\n        /* \"#utility.yul\":2115:2145   */\n      calldatacopy\n        /* \"#utility.yul\":2179:2180   */\n      0x00\n        /* \"#utility.yul\":2170:2176   */\n      dup4\n        /* \"#utility.yul\":2165:2168   */\n      dup4\n        /* \"#utility.yul\":2161:2177   */\n      add\n        /* \"#utility.yul\":2154:2181   */\n      mstore\n        /* \"#utility.yul\":2040:2188   */\n      pop\n      pop\n      pop\n      jump\t// out\n        /* \"#utility.yul\":2194:2619   */\n    tag_143:\n        /* \"#utility.yul\":2272:2277   */\n      0x00\n        /* \"#utility.yul\":2297:2363   */\n      tag_204\n        /* \"#utility.yul\":2313:2362   */\n      tag_205\n        /* \"#utility.yul\":2355:2361   */\n      dup5\n        /* \"#utility.yul\":2313:2362   */\n      tag_141\n      jump\t// in\n    tag_205:\n        /* \"#utility.yul\":2297:2363   */\n      tag_140\n      jump\t// in\n    tag_204:\n        /* \"#utility.yul\":2288:2363   */\n      swap1\n      pop\n        /* \"#utility.yul\":2386:2392   */\n      dup3\n        /* \"#utility.yul\":2379:2384   */\n      dup2\n        /* \"#utility.yul\":2372:2393   */\n      mstore\n        /* \"#utility.yul\":2424:2428   */\n      0x20\n        /* \"#utility.yul\":2417:2422   */\n      dup2\n        /* \"#utility.yul\":2413:2429   */\n      add\n        /* \"#utility.yul\":2462:2465   */\n      dup5\n        /* \"#utility.yul\":2453:2459   */\n      dup5\n        /* \"#utility.yul\":2448:2451   */\n      dup5\n        /* \"#utility.yul\":2444:2460   */\n      add\n        /* \"#utility.yul\":2441:2466   */\n      gt\n        /* \"#utility.yul\":2438:2550   */\n      iszero\n      tag_206\n      jumpi\n        /* \"#utility.yul\":2469:2548   */\n      tag_207\n      tag_136\n      jump\t// in\n    tag_207:\n        /* \"#utility.yul\":2438:2550   */\n    tag_206:\n        /* \"#utility.yul\":2559:2613   */\n      tag_208\n        /* \"#utility.yul\":2606:2612   */\n      dup5\n        /* \"#utility.yul\":2601:2604   */\n      dup3\n        /* \"#utility.yul\":2596:2599   */\n      dup6\n        /* \"#utility.yul\":2559:2613   */\n      tag_142\n      jump\t// in\n    tag_208:\n        /* \"#utility.yul\":2278:2619   */\n      pop\n        /* \"#utility.yul\":2194:2619   */\n      swap4\n      swap3\n      pop\n      pop\n      pop\n      jump\t// out\n        /* \"#utility.yul\":2639:2979   */\n    tag_144:\n        /* \"#utility.yul\":2695:2700   */\n      0x00\n        /* \"#utility.yul\":2744:2747   */\n      dup3\n        /* \"#utility.yul\":2737:2741   */\n      0x1f\n        /* \"#utility.yul\":2729:2735   */\n      dup4\n        /* \"#utility.yul\":2725:2742   */\n      add\n        /* \"#utility.yul\":2721:2748   */\n      slt\n        /* \"#utility.yul\":2711:2833   */\n      tag_210\n      jumpi\n        /* \"#utility.yul\":2752:2831   */\n      tag_211\n      tag_135\n      jump\t// in\n    tag_211:\n        /* \"#utility.yul\":2711:2833   */\n    tag_210:\n        /* \"#utility.yul\":2869:2875   */\n      dup2\n        /* \"#utility.yul\":2856:2876   */\n      calldataload\n        /* \"#utility.yul\":2894:2973   */\n      tag_212\n        /* \"#utility.yul\":2969:2972   */\n      dup5\n        /* \"#utility.yul\":2961:2967   */\n      dup3\n        /* \"#utility.yul\":2954:2958   */\n      0x20\n        /* \"#utility.yul\":2946:2952   */\n      dup7\n        /* \"#utility.yul\":2942:2959   */\n      add\n        /* \"#utility.yul\":2894:2973   */\n      tag_143\n      jump\t// in\n    tag_212:\n        /* \"#utility.yul\":2885:2973   */\n      swap2\n      pop\n        /* \"#utility.yul\":2701:2979   */\n      pop\n        /* \"#utility.yul\":2639:2979   */\n      swap3\n      swap2\n      pop\n      pop\n      jump\t// out\n        /* \"#utility.yul\":2985:3494   */\n    tag_22:\n        /* \"#utility.yul\":3054:3060   */\n      0x00\n        /* \"#utility.yul\":3103:3105   */\n      0x20\n        /* \"#utility.yul\":3091:3100   */\n      dup3\n        /* \"#utility.yul\":3082:3089   */\n      dup5\n        /* \"#utility.yul\":3078:3101   */\n      sub\n        /* \"#utility.yul\":3074:3106   */\n      slt\n        /* \"#utility.yul\":3071:3190   */\n      iszero\n      tag_214\n      jumpi\n        /* \"#utility.yul\":3109:3188   */\n      tag_215\n      tag_133\n      jump\t// in\n    tag_215:\n        /* \"#utility.yul\":3071:3190   */\n    tag_214:\n        /* \"#utility.yul\":3257:3258   */\n      0x00\n        /* \"#utility.yul\":3246:3255   */\n      dup3\n        /* \"#utility.yul\":3242:3259   */\n      add\n        /* \"#utility.yul\":3229:3260   */\n      calldataload\n        /* \"#utility.yul\":3287:3305   */\n      0xffffffffffffffff\n        /* \"#utility.yul\":3279:3285   */\n      dup2\n        /* \"#utility.yul\":3276:3306   */\n      gt\n        /* \"#utility.yul\":3273:3390   */\n      iszero\n      tag_216\n      jumpi\n        /* \"#utility.yul\":3309:3388   */\n      tag_217\n      tag_134\n      jump\t// in\n    tag_217:\n        /* \"#utility.yul\":3273:3390   */\n    tag_216:\n        /* \"#utility.yul\":3414:3477   */\n      tag_218\n        /* \"#utility.yul\":3469:3476   */\n      dup5\n        /* \"#utility.yul\":3460:3466   */\n      dup3\n        /* \"#utility.yul\":3449:3458   */\n      dup6\n        /* \"#utility.yul\":3445:3467   */\n      add\n        /* \"#utility.yul\":3414:3477   */\n      tag_144\n      jump\t// in\n    tag_218:\n        /* \"#utility.yul\":3404:3477   */\n      swap2\n      pop\n        /* \"#utility.yul\":3200:3487   */\n      pop\n        /* \"#utility.yul\":2985:3494   */\n      swap3\n      swap2\n      pop\n      pop\n      jump\t// out\n        /* \"#utility.yul\":3500:3599   */\n    tag_145:\n        /* \"#utility.yul\":3552:3558   */\n      0x00\n        /* \"#utility.yul\":3586:3591   */\n      dup2\n        /* \"#utility.yul\":3580:3592   */\n      mload\n        /* \"#utility.yul\":3570:3592   */\n      swap1\n      pop\n        /* \"#utility.yul\":3500:3599   */\n      swap2\n      swap1\n      pop\n      jump\t// out\n        /* \"#utility.yul\":3605:3774   */\n    tag_146:\n        /* \"#utility.yul\":3689:3700   */\n      0x00\n        /* \"#utility.yul\":3723:3729   */\n      dup3\n        /* \"#utility.yul\":3718:3721   */\n      dup3\n        /* \"#utility.yul\":3711:3730   */\n      mstore\n        /* \"#utility.yul\":3763:3767   */\n      0x20\n        /* \"#utility.yul\":3758:3761   */\n      dup3\n        /* \"#utility.yul\":3754:3768   */\n      add\n        /* \"#utility.yul\":3739:3768   */\n      swap1\n      pop\n        /* \"#utility.yul\":3605:3774   */\n      swap3\n      swap2\n      pop\n      pop\n      jump\t// out\n        /* \"#utility.yul\":3780:3919   */\n    tag_147:\n        /* \"#utility.yul\":3869:3875   */\n      dup3\n        /* \"#utility.yul\":3864:3867   */\n      dup2\n        /* \"#utility.yul\":3859:3862   */\n      dup4\n        /* \"#utility.yul\":3853:3876   */\n      mcopy\n        /* \"#utility.yul\":3910:3911   */\n      0x00\n        /* \"#utility.yul\":3901:3907   */\n      dup4\n        /* \"#utility.yul\":3896:3899   */\n      dup4\n        /* \"#utility.yul\":3892:3908   */\n      add\n        /* \"#utility.yul\":3885:3912   */\n      mstore\n        /* \"#utility.yul\":3780:3919   */\n      pop\n      pop\n      pop\n      jump\t// out\n        /* \"#utility.yul\":3925:4302   */\n    tag_148:\n        /* \"#utility.yul\":4013:4016   */\n      0x00\n        /* \"#utility.yul\":4041:4080   */\n      tag_223\n        /* \"#utility.yul\":4074:4079   */\n      dup3\n        /* \"#utility.yul\":4041:4080   */\n      tag_145\n      jump\t// in\n    tag_223:\n        /* \"#utility.yul\":4096:4167   */\n      tag_224\n        /* \"#utility.yul\":4160:4166   */\n      dup2\n        /* \"#utility.yul\":4155:4158   */\n      dup6\n        /* \"#utility.yul\":4096:4167   */\n      tag_146\n      jump\t// in\n    tag_224:\n        /* \"#utility.yul\":4089:4167   */\n      swap4\n      pop\n        /* \"#utility.yul\":4176:4241   */\n      tag_225\n        /* \"#utility.yul\":4234:4240   */\n      dup2\n        /* \"#utility.yul\":4229:4232   */\n      dup6\n        /* \"#utility.yul\":4222:4226   */\n      0x20\n        /* \"#utility.yul\":4215:4220   */\n      dup7\n        /* \"#utility.yul\":4211:4227   */\n      add\n        /* \"#utility.yul\":4176:4241   */\n      tag_147\n      jump\t// in\n    tag_225:\n        /* \"#utility.yul\":4266:4295   */\n      tag_226\n        /* \"#utility.yul\":4288:4294   */\n      dup2\n        /* \"#utility.yul\":4266:4295   */\n      tag_137\n      jump\t// in\n    tag_226:\n        /* \"#utility.yul\":4261:4264   */\n      dup5\n        /* \"#utility.yul\":4257:4296   */\n      add\n        /* \"#utility.yul\":4250:4296   */\n      swap2\n      pop\n        /* \"#utility.yul\":4017:4302   */\n      pop\n        /* \"#utility.yul\":3925:4302   */\n      swap3\n      swap2\n      pop\n      pop\n      jump\t// out\n        /* \"#utility.yul\":4308:4621   */\n    tag_30:\n        /* \"#utility.yul\":4421:4425   */\n      0x00\n        /* \"#utility.yul\":4459:4461   */\n      0x20\n        /* \"#utility.yul\":4448:4457   */\n      dup3\n        /* \"#utility.yul\":4444:4462   */\n      add\n        /* \"#utility.yul\":4436:4462   */\n      swap1\n      pop\n        /* \"#utility.yul\":4508:4517   */\n      dup2\n        /* \"#utility.yul\":4502:4506   */\n      dup2\n        /* \"#utility.yul\":4498:4518   */\n      sub\n        /* \"#utility.yul\":4494:4495   */\n      0x00\n        /* \"#utility.yul\":4483:4492   */\n      dup4\n        /* \"#utility.yul\":4479:4496   */\n      add\n        /* \"#utility.yul\":4472:4519   */\n      mstore\n        /* \"#utility.yul\":4536:4614   */\n      tag_228\n        /* \"#utility.yul\":4609:4613   */\n      dup2\n        /* \"#utility.yul\":4600:4606   */\n      dup5\n        /* \"#utility.yul\":4536:4614   */\n      tag_148\n      jump\t// in\n    tag_228:\n        /* \"#utility.yul\":4528:4614   */\n      swap1\n      pop\n        /* \"#utility.yul\":4308:4621   */\n      swap3\n      swap2\n      pop\n      pop\n      jump\t// out\n        /* \"#utility.yul\":4627:4704   */\n    tag_149:\n        /* \"#utility.yul\":4664:4671   */\n      0x00\n        /* \"#utility.yul\":4693:4698   */\n      dup2\n        /* \"#utility.yul\":4682:4698   */\n      swap1\n      pop\n        /* \"#utility.yul\":4627:4704   */\n      swap2\n      swap1\n      pop\n      jump\t// out\n        /* \"#utility.yul\":4710:4828   */\n    tag_150:\n        /* \"#utility.yul\":4797:4821   */\n      tag_231\n        /* \"#utility.yul\":4815:4820   */\n      dup2\n        /* \"#utility.yul\":4797:4821   */\n      tag_149\n      jump\t// in\n    tag_231:\n        /* \"#utility.yul\":4792:4795   */\n      dup3\n        /* \"#utility.yul\":4785:4822   */\n      mstore\n        /* \"#utility.yul\":4710:4828   */\n      pop\n      pop\n      jump\t// out\n        /* \"#utility.yul\":4834:5257   */\n    tag_34:\n        /* \"#utility.yul\":4975:4979   */\n      0x00\n        /* \"#utility.yul\":5013:5015   */\n      0x40\n        /* \"#utility.yul\":5002:5011   */\n      dup3\n        /* \"#utility.yul\":4998:5016   */\n      add\n        /* \"#utility.yul\":4990:5016   */\n      swap1\n      pop\n        /* \"#utility.yul\":5062:5071   */\n      dup2\n        /* \"#utility.yul\":5056:5060   */\n      dup2\n        /* \"#utility.yul\":5052:5072   */\n      sub\n        /* \"#utility.yul\":5048:5049   */\n      0x00\n        /* \"#utility.yul\":5037:5046   */\n      dup4\n        /* \"#utility.yul\":5033:5050   */\n      add\n        /* \"#utility.yul\":5026:5073   */\n      mstore\n        /* \"#utility.yul\":5090:5168   */\n      tag_233\n        /* \"#utility.yul\":5163:5167   */\n      dup2\n        /* \"#utility.yul\":5154:5160   */\n      dup6\n        /* \"#utility.yul\":5090:5168   */\n      tag_148\n      jump\t// in\n    tag_233:\n        /* \"#utility.yul\":5082:5168   */\n      swap1\n      pop\n        /* \"#utility.yul\":5178:5250   */\n      tag_234\n        /* \"#utility.yul\":5246:5248   */\n      0x20\n        /* \"#utility.yul\":5235:5244   */\n      dup4\n        /* \"#utility.yul\":5231:5249   */\n      add\n        /* \"#utility.yul\":5222:5228   */\n      dup5\n        /* \"#utility.yul\":5178:5250   */\n      tag_150\n      jump\t// in\n    tag_234:\n        /* \"#utility.yul\":4834:5257   */\n      swap4\n      swap3\n      pop\n      pop\n      pop\n      jump\t// out\n        /* \"#utility.yul\":5263:5353   */\n    tag_151:\n        /* \"#utility.yul\":5297:5304   */\n      0x00\n        /* \"#utility.yul\":5340:5345   */\n      dup2\n        /* \"#utility.yul\":5333:5346   */\n      iszero\n        /* \"#utility.yul\":5326:5347   */\n      iszero\n        /* \"#utility.yul\":5315:5347   */\n      swap1\n      pop\n        /* \"#utility.yul\":5263:5353   */\n      swap2\n      swap1\n      pop\n      jump\t// out\n        /* \"#utility.yul\":5359:5468   */\n    tag_152:\n        /* \"#utility.yul\":5440:5461   */\n      tag_237\n        /* \"#utility.yul\":5455:5460   */\n      dup2\n        /* \"#utility.yul\":5440:5461   */\n      tag_151\n      jump\t// in\n    tag_237:\n        /* \"#utility.yul\":5435:5438   */\n      dup3\n        /* \"#utility.yul\":5428:5462   */\n      mstore\n        /* \"#utility.yul\":5359:5468   */\n      pop\n      pop\n      jump\t// out\n        /* \"#utility.yul\":5474:5684   */\n    tag_39:\n        /* \"#utility.yul\":5561:5565   */\n      0x00\n        /* \"#utility.yul\":5599:5601   */\n      0x20\n        /* \"#utility.yul\":5588:5597   */\n      dup3\n        /* \"#utility.yul\":5584:5602   */\n      add\n        /* \"#utility.yul\":5576:5602   */\n      swap1\n      pop\n        /* \"#utility.yul\":5612:5677   */\n      tag_239\n        /* \"#utility.yul\":5674:5675   */\n      0x00\n        /* \"#utility.yul\":5663:5672   */\n      dup4\n        /* \"#utility.yul\":5659:5676   */\n      add\n        /* \"#utility.yul\":5650:5656   */\n      dup5\n        /* \"#utility.yul\":5612:5677   */\n      tag_152\n      jump\t// in\n    tag_239:\n        /* \"#utility.yul\":5474:5684   */\n      swap3\n      swap2\n      pop\n      pop\n      jump\t// out\n        /* \"#utility.yul\":5690:5912   */\n    tag_46:\n        /* \"#utility.yul\":5783:5787   */\n      0x00\n        /* \"#utility.yul\":5821:5823   */\n      0x20\n        /* \"#utility.yul\":5810:5819   */\n      dup3\n        /* \"#utility.yul\":5806:5824   */\n      add\n        /* \"#utility.yul\":5798:5824   */\n      swap1\n      pop\n        /* \"#utility.yul\":5834:5905   */\n      tag_241\n        /* \"#utility.yul\":5902:5903   */\n      0x00\n        /* \"#utility.yul\":5891:5900   */\n      dup4\n        /* \"#utility.yul\":5887:5904   */\n      add\n        /* \"#utility.yul\":5878:5884   */\n      dup5\n        /* \"#utility.yul\":5834:5905   */\n      tag_150\n      jump\t// in\n    tag_241:\n        /* \"#utility.yul\":5690:5912   */\n      swap3\n      swap2\n      pop\n      pop\n      jump\t// out\n        /* \"#utility.yul\":5918:6066   */\n    tag_153:\n        /* \"#utility.yul\":6020:6031   */\n      0x00\n        /* \"#utility.yul\":6057:6060   */\n      dup2\n        /* \"#utility.yul\":6042:6060   */\n      swap1\n      pop\n        /* \"#utility.yul\":5918:6066   */\n      swap3\n      swap2\n      pop\n      pop\n      jump\t// out\n        /* \"#utility.yul\":6072:6462   */\n    tag_154:\n        /* \"#utility.yul\":6178:6181   */\n      0x00\n        /* \"#utility.yul\":6206:6245   */\n      tag_244\n        /* \"#utility.yul\":6239:6244   */\n      dup3\n        /* \"#utility.yul\":6206:6245   */\n      tag_145\n      jump\t// in\n    tag_244:\n        /* \"#utility.yul\":6261:6350   */\n      tag_245\n        /* \"#utility.yul\":6343:6349   */\n      dup2\n        /* \"#utility.yul\":6338:6341   */\n      dup6\n        /* \"#utility.yul\":6261:6350   */\n      tag_153\n      jump\t// in\n    tag_245:\n        /* \"#utility.yul\":6254:6350   */\n      swap4\n      pop\n        /* \"#utility.yul\":6359:6424   */\n      tag_246\n        /* \"#utility.yul\":6417:6423   */\n      dup2\n        /* \"#utility.yul\":6412:6415   */\n      dup6\n        /* \"#utility.yul\":6405:6409   */\n      0x20\n        /* \"#utility.yul\":6398:6403   */\n      dup7\n        /* \"#utility.yul\":6394:6410   */\n      add\n        /* \"#utility.yul\":6359:6424   */\n      tag_147\n      jump\t// in\n    tag_246:\n        /* \"#utility.yul\":6449:6455   */\n      dup1\n        /* \"#utility.yul\":6444:6447   */\n      dup5\n        /* \"#utility.yul\":6440:6456   */\n      add\n        /* \"#utility.yul\":6433:6456   */\n      swap2\n      pop\n        /* \"#utility.yul\":6182:6462   */\n      pop\n        /* \"#utility.yul\":6072:6462   */\n      swap3\n      swap2\n      pop\n      pop\n      jump\t// out\n        /* \"#utility.yul\":6468:6743   */\n    tag_63:\n        /* \"#utility.yul\":6600:6603   */\n      0x00\n        /* \"#utility.yul\":6622:6717   */\n      tag_248\n        /* \"#utility.yul\":6713:6716   */\n      dup3\n        /* \"#utility.yul\":6704:6710   */\n      dup5\n        /* \"#utility.yul\":6622:6717   */\n      tag_154\n      jump\t// in\n    tag_248:\n        /* \"#utility.yul\":6615:6717   */\n      swap2\n      pop\n        /* \"#utility.yul\":6734:6737   */\n      dup2\n        /* \"#utility.yul\":6727:6737   */\n      swap1\n      pop\n        /* \"#utility.yul\":6468:6743   */\n      swap3\n      swap2\n      pop\n      pop\n      jump\t// out\n        /* \"#utility.yul\":6749:6929   */\n    tag_155:\n        /* \"#utility.yul\":6797:6874   */\n      0x4e487b7100000000000000000000000000000000000000000000000000000000\n        /* \"#utility.yul\":6794:6795   */\n      0x00\n        /* \"#utility.yul\":6787:6875   */\n      mstore\n        /* \"#utility.yul\":6894:6898   */\n      0x22\n        /* \"#utility.yul\":6891:6892   */\n      0x04\n        /* \"#utility.yul\":6884:6899   */\n      mstore\n        /* \"#utility.yul\":6918:6922   */\n      0x24\n        /* \"#utility.yul\":6915:6916   */\n      0x00\n        /* \"#utility.yul\":6908:6923   */\n      revert\n        /* \"#utility.yul\":6935:7255   */\n    tag_80:\n        /* \"#utility.yul\":6979:6985   */\n      0x00\n        /* \"#utility.yul\":7016:7017   */\n      0x02\n        /* \"#utility.yul\":7010:7014   */\n      dup3\n        /* \"#utility.yul\":7006:7018   */\n      div\n        /* \"#utility.yul\":6996:7018   */\n      swap1\n      pop\n        /* \"#utility.yul\":7063:7064   */\n      0x01\n        /* \"#utility.yul\":7057:7061   */\n      dup3\n        /* \"#utility.yul\":7053:7065   */\n      and\n        /* \"#utility.yul\":7084:7102   */\n      dup1\n        /* \"#utility.yul\":7074:7155   */\n      tag_251\n      jumpi\n        /* \"#utility.yul\":7140:7144   */\n      0x7f\n        /* \"#utility.yul\":7132:7138   */\n      dup3\n        /* \"#utility.yul\":7128:7145   */\n      and\n        /* \"#utility.yul\":7118:7145   */\n      swap2\n      pop\n        /* \"#utility.yul\":7074:7155   */\n    tag_251:\n        /* \"#utility.yul\":7202:7204   */\n      0x20\n        /* \"#utility.yul\":7194:7200   */\n      dup3\n        /* \"#utility.yul\":7191:7205   */\n      lt\n        /* \"#utility.yul\":7171:7189   */\n      dup2\n        /* \"#utility.yul\":7168:7206   */\n      sub\n        /* \"#utility.yul\":7165:7249   */\n      tag_252\n      jumpi\n        /* \"#utility.yul\":7221:7239   */\n      tag_253\n      tag_155\n      jump\t// in\n    tag_253:\n        /* \"#utility.yul\":7165:7249   */\n    tag_252:\n        /* \"#utility.yul\":6986:7255   */\n      pop\n        /* \"#utility.yul\":6935:7255   */\n      swap2\n      swap1\n      pop\n      jump\t// out\n        /* \"#utility.yul\":7261:7402   */\n    tag_156:\n        /* \"#utility.yul\":7310:7314   */\n      0x00\n        /* \"#utility.yul\":7333:7336   */\n      dup2\n        /* \"#utility.yul\":7325:7336   */\n      swap1\n      pop\n        /* \"#utility.yul\":7356:7359   */\n      dup2\n        /* \"#utility.yul\":7353:7354   */\n      0x00\n        /* \"#utility.yul\":7346:7360   */\n      mstore\n        /* \"#utility.yul\":7390:7394   */\n      0x20\n        /* \"#utility.yul\":7387:7388   */\n      0x00\n        /* \"#utility.yul\":7377:7395   */\n      keccak256\n        /* \"#utility.yul\":7369:7395   */\n      swap1\n      pop\n        /* \"#utility.yul\":7261:7402   */\n      swap2\n      swap1\n      pop\n      jump\t// out\n        /* \"#utility.yul\":7408:7501   */\n    tag_157:\n        /* \"#utility.yul\":7445:7451   */\n      0x00\n        /* \"#utility.yul\":7492:7494   */\n      0x20\n        /* \"#utility.yul\":7487:7489   */\n      0x1f\n        /* \"#utility.yul\":7480:7485   */\n      dup4\n        /* \"#utility.yul\":7476:7490   */\n      add\n        /* \"#utility.yul\":7472:7495   */\n      div\n        /* \"#utility.yul\":7462:7495   */\n      swap1\n      pop\n        /* \"#utility.yul\":7408:7501   */\n      swap2\n      swap1\n      pop\n      jump\t// out\n        /* \"#utility.yul\":7507:7614   */\n    tag_158:\n        /* \"#utility.yul\":7551:7559   */\n      0x00\n        /* \"#utility.yul\":7601:7606   */\n      dup3\n        /* \"#utility.yul\":7595:7599   */\n      dup3\n        /* \"#utility.yul\":7591:7607   */\n      shl\n        /* \"#utility.yul\":7570:7607   */\n      swap1\n      pop\n        /* \"#utility.yul\":7507:7614   */\n      swap3\n      swap2\n      pop\n      pop\n      jump\t// out\n        /* \"#utility.yul\":7620:8013   */\n    tag_159:\n        /* \"#utility.yul\":7689:7695   */\n      0x00\n        /* \"#utility.yul\":7739:7740   */\n      0x08\n        /* \"#utility.yul\":7727:7737   */\n      dup4\n        /* \"#utility.yul\":7723:7741   */\n      mul\n        /* \"#utility.yul\":7762:7859   */\n      tag_258\n        /* \"#utility.yul\":7792:7858   */\n      0xffffffffffffffffffffffffffffffffffffffffffffffffffffffffffffffff\n        /* \"#utility.yul\":7781:7790   */\n      dup3\n        /* \"#utility.yul\":7762:7859   */\n      tag_158\n      jump\t// in\n    tag_258:\n        /* \"#utility.yul\":7880:7919   */\n      tag_259\n        /* \"#utility.yul\":7910:7918   */\n      dup7\n        /* \"#utility.yul\":7899:7908   */\n      dup4\n        /* \"#utility.yul\":7880:7919   */\n      tag_158\n      jump\t// in\n    tag_259:\n        /* \"#utility.yul\":7868:7919   */\n      swap6\n      pop\n        /* \"#utility.yul\":7952:7956   */\n      dup1\n        /* \"#utility.yul\":7948:7957   */\n      not\n        /* \"#utility.yul\":7941:7946   */\n      dup5\n        /* \"#utility.yul\":7937:7958   */\n      and\n        /* \"#utility.yul\":7928:7958   */\n      swap4\n      pop\n        /* \"#utility.yul\":8001:8005   */\n      dup1\n        /* \"#utility.yul\":7991:7999   */\n      dup7\n        /* \"#utility.yul\":7987:8006   */\n      and\n        /* \"#utility.yul\":7980:7985   */\n      dup5\n        /* \"#utility.yul\":7977:8007   */\n      or\n        /* \"#utility.yul\":7967:8007   */\n      swap3\n      pop\n        /* \"#utility.yul\":7696:8013   */\n      pop\n      pop\n        /* \"#utility.yul\":7620:8013   */\n      swap4\n      swap3\n      pop\n      pop\n      pop\n      jump\t// out\n        /* \"#utility.yul\":8019:8079   */\n    tag_160:\n        /* \"#utility.yul\":8047:8050   */\n      0x00\n        /* \"#utility.yul\":8068:8073   */\n      dup2\n        /* \"#utility.yul\":8061:8073   */\n      swap1\n      pop\n        /* \"#utility.yul\":8019:8079   */\n      swap2\n      swap1\n      pop\n      jump\t// out\n        /* \"#utility.yul\":8085:8227   */\n    tag_161:\n        /* \"#utility.yul\":8135:8144   */\n      0x00\n        /* \"#utility.yul\":8168:8221   */\n      tag_262\n        /* \"#utility.yul\":8186:8220   */\n      tag_263\n        /* \"#utility.yul\":8195:8219   */\n      tag_264\n        /* \"#utility.yul\":8213:8218   */\n      dup5\n        /* \"#utility.yul\":8195:8219   */\n      tag_149\n      jump\t// in\n    tag_264:\n        /* \"#utility.yul\":8186:8220   */\n      tag_160\n      jump\t// in\n    tag_263:\n        /* \"#utility.yul\":8168:8221   */\n      tag_149\n      jump\t// in\n    tag_262:\n        /* \"#utility.yul\":8155:8221   */\n      swap1\n      pop\n        /* \"#utility.yul\":8085:8227   */\n      swap2\n      swap1\n      pop\n      jump\t// out\n        /* \"#utility.yul\":8233:8308   */\n    tag_162:\n        /* \"#utility.yul\":8276:8279   */\n      0x00\n        /* \"#utility.yul\":8297:8302   */\n      dup2\n        /* \"#utility.yul\":8290:8302   */\n      swap1\n      pop\n        /* \"#utility.yul\":8233:8308   */\n      swap2\n      swap1\n      pop\n      jump\t// out\n        /* \"#utility.yul\":8314:8583   */\n    tag_163:\n        /* \"#utility.yul\":8424:8463   */\n      tag_267\n        /* \"#utility.yul\":8455:8462   */\n      dup4\n        /* \"#utility.yul\":8424:8463   */\n      tag_161\n      jump\t// in\n    tag_267:\n        /* \"#utility.yul\":8485:8576   */\n      tag_268\n        /* \"#utility.yul\":8534:8575   */\n      tag_269\n        /* \"#utility.yul\":8558:8574   */\n      dup3\n        /* \"#utility.yul\":8534:8575   */\n      tag_162\n      jump\t// in\n    tag_269:\n        /* \"#utility.yul\":8526:8532   */\n      dup5\n        /* \"#utility.yul\":8519:8523   */\n      dup5\n        /* \"#utility.yul\":8513:8524   */\n      sload\n        /* \"#utility.yul\":8485:8576   */\n      tag_159\n      jump\t// in\n    tag_268:\n        /* \"#utility.yul\":8479:8483   */\n      dup3\n        /* \"#utility.yul\":8472:8577   */\n      sstore\n        /* \"#utility.yul\":8390:8583   */\n      pop\n        /* \"#utility.yul\":8314:8583   */\n      pop\n      pop\n      pop\n      jump\t// out\n        /* \"#utility.yul\":8589:8662   */\n    tag_164:\n        /* \"#utility.yul\":8634:8637   */\n      0x00\n        /* \"#utility.yul\":8655:8656   */\n      0x00\n        /* \"#utility.yul\":8648:8656   */\n      swap1\n      pop\n        /* \"#utility.yul\":8589:8662   */\n      swap1\n      jump\t// out\n        /* \"#utility.yul\":8668:8857   */\n    tag_165:\n        /* \"#utility.yul\":8745:8777   */\n      tag_272\n      tag_164\n      jump\t// in\n    tag_272:\n        /* \"#utility.yul\":8786:8851   */\n      tag_273\n        /* \"#utility.yul\":8844:8850   */\n      dup2\n        /* \"#utility.yul\":8836:8842   */\n      dup5\n        /* \"#utility.yul\":8830:8834   */\n      dup5\n        /* \"#utility.yul\":8786:8851   */\n      tag_163\n      jump\t// in\n    tag_273:\n        /* \"#utility.yul\":8721:8857   */\n      pop\n        /* \"#utility.yul\":8668:8857   */\n      pop\n      pop\n      jump\t// out\n        /* \"#utility.yul\":8863:9049   */\n    tag_166:\n        /* \"#utility.yul\":8923:9043   */\n    tag_275:\n        /* \"#utility.yul\":8940:8943   */\n      dup2\n        /* \"#utility.yul\":8933:8938   */\n      dup2\n        /* \"#utility.yul\":8930:8944   */\n      lt\n        /* \"#utility.yul\":8923:9043   */\n      iszero\n      tag_277\n      jumpi\n        /* \"#utility.yul\":8994:9033   */\n      tag_278\n        /* \"#utility.yul\":9031:9032   */\n      0x00\n        /* \"#utility.yul\":9024:9029   */\n      dup3\n        /* \"#utility.yul\":8994:9033   */\n      tag_165\n      jump\t// in\n    tag_278:\n        /* \"#utility.yul\":8967:8968   */\n      0x01\n        /* \"#utility.yul\":8960:8965   */\n      dup2\n        /* \"#utility.yul\":8956:8969   */\n      add\n        /* \"#utility.yul\":8947:8969   */\n      swap1\n      pop\n        /* \"#utility.yul\":8923:9043   */\n      jump(tag_275)\n    tag_277:\n        /* \"#utility.yul\":8863:9049   */\n      pop\n      pop\n      jump\t// out\n        /* \"#utility.yul\":9055:9598   */\n    tag_167:\n        /* \"#utility.yul\":9156:9158   */\n      0x1f\n        /* \"#utility.yul\":9151:9154   */\n      dup3\n        /* \"#utility.yul\":9148:9159   */\n      gt\n        /* \"#utility.yul\":9145:9591   */\n      iszero\n      tag_280\n      jumpi\n        /* \"#utility.yul\":9190:9228   */\n      tag_281\n        /* \"#utility.yul\":9222:9227   */\n      dup2\n        /* \"#utility.yul\":9190:9228   */\n      tag_156\n      jump\t// in\n    tag_281:\n        /* \"#utility.yul\":9274:9303   */\n      tag_282\n        /* \"#utility.yul\":9292:9302   */\n      dup5\n        /* \"#utility.yul\":9274:9303   */\n      tag_157\n      jump\t// in\n    tag_282:\n        /* \"#utility.yul\":9264:9272   */\n      dup2\n        /* \"#utility.yul\":9260:9304   */\n      add\n        /* \"#utility.yul\":9457:9459   */\n      0x20\n        /* \"#utility.yul\":9445:9455   */\n      dup6\n        /* \"#utility.yul\":9442:9460   */\n      lt\n        /* \"#utility.yul\":9439:9488   */\n      iszero\n      tag_283\n      jumpi\n        /* \"#utility.yul\":9478:9486   */\n      dup2\n        /* \"#utility.yul\":9463:9486   */\n      swap1\n      pop\n        /* \"#utility.yul\":9439:9488   */\n    tag_283:\n        /* \"#utility.yul\":9501:9581   */\n      tag_284\n        /* \"#utility.yul\":9557:9579   */\n      tag_285\n        /* \"#utility.yul\":9575:9578   */\n      dup6\n        /* \"#utility.yul\":9557:9579   */\n      tag_157\n      jump\t// in\n    tag_285:\n        /* \"#utility.yul\":9547:9555   */\n      dup4\n        /* \"#utility.yul\":9543:9580   */\n      add\n        /* \"#utility.yul\":9530:9541   */\n      dup3\n        /* \"#utility.yul\":9501:9581   */\n      tag_166\n      jump\t// in\n    tag_284:\n        /* \"#utility.yul\":9160:9591   */\n      pop\n      pop\n        /* \"#utility.yul\":9145:9591   */\n    tag_280:\n        /* \"#utility.yul\":9055:9598   */\n      pop\n      pop\n      pop\n      jump\t// out\n        /* \"#utility.yul\":9604:9721   */\n    tag_168:\n        /* \"#utility.yul\":9658:9666   */\n      0x00\n        /* \"#utility.yul\":9708:9713   */\n      dup3\n        /* \"#utility.yul\":9702:9706   */\n      dup3\n        /* \"#utility.yul\":9698:9714   */\n      shr\n        /* \"#utility.yul\":9677:9714   */\n      swap1\n      pop\n        /* \"#utility.yul\":9604:9721   */\n      swap3\n      swap2\n      pop\n      pop\n      jump\t// out\n        /* \"#utility.yul\":9727:9896   */\n    tag_169:\n        /* \"#utility.yul\":9771:9777   */\n      0x00\n        /* \"#utility.yul\":9804:9855   */\n      tag_288\n        /* \"#utility.yul\":9852:9853   */\n      0x00\n        /* \"#utility.yul\":9848:9854   */\n      not\n        /* \"#utility.yul\":9840:9845   */\n      dup5\n        /* \"#utility.yul\":9837:9838   */\n      0x08\n        /* \"#utility.yul\":9833:9846   */\n      mul\n        /* \"#utility.yul\":9804:9855   */\n      tag_168\n      jump\t// in\n    tag_288:\n        /* \"#utility.yul\":9800:9856   */\n      not\n        /* \"#utility.yul\":9885:9889   */\n      dup1\n        /* \"#utility.yul\":9879:9883   */\n      dup4\n        /* \"#utility.yul\":9875:9890   */\n      and\n        /* \"#utility.yul\":9865:9890   */\n      swap2\n      pop\n        /* \"#utility.yul\":9778:9896   */\n      pop\n        /* \"#utility.yul\":9727:9896   */\n      swap3\n      swap2\n      pop\n      pop\n      jump\t// out\n        /* \"#utility.yul\":9901:10196   */\n    tag_170:\n        /* \"#utility.yul\":9977:9981   */\n      0x00\n        /* \"#utility.yul\":10123:10152   */\n      tag_290\n        /* \"#utility.yul\":10148:10151   */\n      dup4\n        /* \"#utility.yul\":10142:10146   */\n      dup4\n        /* \"#utility.yul\":10123:10152   */\n      tag_169\n      jump\t// in\n    tag_290:\n        /* \"#utility.yul\":10115:10152   */\n      swap2\n      pop\n        /* \"#utility.yul\":10185:10188   */\n      dup3\n        /* \"#utility.yul\":10182:10183   */\n      0x02\n        /* \"#utility.yul\":10178:10189   */\n      mul\n        /* \"#utility.yul\":10172:10176   */\n      dup3\n        /* \"#utility.yul\":10169:10190   */\n      or\n        /* \"#utility.yul\":10161:10190   */\n      swap1\n      pop\n        /* \"#utility.yul\":9901:10196   */\n      swap3\n      swap2\n      pop\n      pop\n      jump\t// out\n        /* \"#utility.yul\":10201:11596   */\n    tag_67:\n        /* \"#utility.yul\":10318:10355   */\n      tag_292\n        /* \"#utility.yul\":10351:10354   */\n      dup3\n        /* \"#utility.yul\":10318:10355   */\n      tag_145\n      jump\t// in\n    tag_292:\n        /* \"#utility.yul\":10420:10438   */\n      0xffffffffffffffff\n        /* \"#utility.yul\":10412:10418   */\n      dup2\n        /* \"#utility.yul\":10409:10439   */\n      gt\n        /* \"#utility.yul\":10406:10462   */\n      iszero\n      tag_293\n      jumpi\n        /* \"#utility.yul\":10442:10460   */\n      tag_294\n      tag_138\n      jump\t// in\n    tag_294:\n        /* \"#utility.yul\":10406:10462   */\n    tag_293:\n        /* \"#utility.yul\":10486:10524   */\n      tag_295\n        /* \"#utility.yul\":10518:10522   */\n      dup3\n        /* \"#utility.yul\":10512:10523   */\n      sload\n        /* \"#utility.yul\":10486:10524   */\n      tag_80\n      jump\t// in\n    tag_295:\n        /* \"#utility.yul\":10571:10638   */\n      tag_296\n        /* \"#utility.yul\":10631:10637   */\n      dup3\n        /* \"#utility.yul\":10623:10629   */\n      dup3\n        /* \"#utility.yul\":10617:10621   */\n      dup6\n        /* \"#utility.yul\":10571:10638   */\n      tag_167\n      jump\t// in\n    tag_296:\n        /* \"#utility.yul\":10665:10666   */\n      0x00\n        /* \"#utility.yul\":10689:10693   */\n      0x20\n        /* \"#utility.yul\":10676:10693   */\n      swap1\n      pop\n        /* \"#utility.yul\":10721:10723   */\n      0x1f\n        /* \"#utility.yul\":10713:10719   */\n      dup4\n        /* \"#utility.yul\":10710:10724   */\n      gt\n        /* \"#utility.yul\":10738:10739   */\n      0x01\n        /* \"#utility.yul\":10733:11351   */\n      dup2\n      eq\n      tag_298\n      jumpi\n        /* \"#utility.yul\":11395:11396   */\n      0x00\n        /* \"#utility.yul\":11412:11418   */\n      dup5\n        /* \"#utility.yul\":11409:11486   */\n      iszero\n      tag_299\n      jumpi\n        /* \"#utility.yul\":11461:11470   */\n      dup3\n        /* \"#utility.yul\":11456:11459   */\n      dup8\n        /* \"#utility.yul\":11452:11471   */\n      add\n        /* \"#utility.yul\":11446:11472   */\n      mload\n        /* \"#utility.yul\":11437:11472   */\n      swap1\n      pop\n        /* \"#utility.yul\":11409:11486   */\n    tag_299:\n        /* \"#utility.yul\":11512:11579   */\n      tag_300\n        /* \"#utility.yul\":11572:11578   */\n      dup6\n        /* \"#utility.yul\":11565:11570   */\n      dup3\n        /* \"#utility.yul\":11512:11579   */\n      tag_170\n      jump\t// in\n    tag_300:\n        /* \"#utility.yul\":11506:11510   */\n      dup7\n        /* \"#utility.yul\":11499:11580   */\n      sstore\n        /* \"#utility.yul\":11368:11590   */\n      pop\n        /* \"#utility.yul\":10703:11590   */\n      jump(tag_297)\n        /* \"#utility.yul\":10733:11351   */\n    tag_298:\n        /* \"#utility.yul\":10785:10789   */\n      0x1f\n        /* \"#utility.yul\":10781:10790   */\n      not\n        /* \"#utility.yul\":10773:10779   */\n      dup5\n        /* \"#utility.yul\":10769:10791   */\n      and\n        /* \"#utility.yul\":10819:10856   */\n      tag_301\n        /* \"#utility.yul\":10851:10855   */\n      dup7\n        /* \"#utility.yul\":10819:10856   */\n      tag_156\n      jump\t// in\n    tag_301:\n        /* \"#utility.yul\":10878:10879   */\n      0x00\n        /* \"#utility.yul\":10892:11100   */\n    tag_302:\n        /* \"#utility.yul\":10906:10913   */\n      dup3\n        /* \"#utility.yul\":10903:10904   */\n      dup2\n        /* \"#utility.yul\":10900:10914   */\n      lt\n        /* \"#utility.yul\":10892:11100   */\n      iszero\n      tag_304\n      jumpi\n        /* \"#utility.yul\":10985:10994   */\n      dup5\n        /* \"#utility.yul\":10980:10983   */\n      dup10\n        /* \"#utility.yul\":10976:10995   */\n      add\n        /* \"#utility.yul\":10970:10996   */\n      mload\n        /* \"#utility.yul\":10962:10968   */\n      dup3\n        /* \"#utility.yul\":10955:10997   */\n      sstore\n        /* \"#utility.yul\":11036:11037   */\n      0x01\n        /* \"#utility.yul\":11028:11034   */\n      dup3\n        /* \"#utility.yul\":11024:11038   */\n      add\n        /* \"#utility.yul\":11014:11038   */\n      swap2\n      pop\n        /* \"#utility.yul\":11083:11085   */\n      0x20\n        /* \"#utility.yul\":11072:11081   */\n      dup6\n        /* \"#utility.yul\":11068:11086   */\n      add\n        /* \"#utility.yul\":11055:11086   */\n      swap5\n      pop\n        /* \"#utility.yul\":10929:10933   */\n      0x20\n        /* \"#utility.yul\":10926:10927   */\n      dup2\n        /* \"#utility.yul\":10922:10934   */\n      add\n        /* \"#utility.yul\":10917:10934   */\n      swap1\n      pop\n        /* \"#utility.yul\":10892:11100   */\n      jump(tag_302)\n    tag_304:\n        /* \"#utility.yul\":11128:11134   */\n      dup7\n        /* \"#utility.yul\":11119:11126   */\n      dup4\n        /* \"#utility.yul\":11116:11135   */\n      lt\n        /* \"#utility.yul\":11113:11292   */\n      iszero\n      tag_305\n      jumpi\n        /* \"#utility.yul\":11186:11195   */\n      dup5\n        /* \"#utility.yul\":11181:11184   */\n      dup10\n        /* \"#utility.yul\":11177:11196   */\n      add\n        /* \"#utility.yul\":11171:11197   */\n      mload\n        /* \"#utility.yul\":11229:11277   */\n      tag_306\n        /* \"#utility.yul\":11271:11275   */\n      0x1f\n        /* \"#utility.yul\":11263:11269   */\n      dup10\n        /* \"#utility.yul\":11259:11276   */\n      and\n        /* \"#utility.yul\":11248:11257   */\n      dup3\n        /* \"#utility.yul\":11229:11277   */\n      tag_169\n      jump\t// in\n    tag_306:\n        /* \"#utility.yul\":11221:11227   */\n      dup4\n        /* \"#utility.yul\":11214:11278   */\n      sstore\n        /* \"#utility.yul\":11136:11292   */\n      pop\n        /* \"#utility.yul\":11113:11292   */\n    tag_305:\n        /* \"#utility.yul\":11338:11339   */\n      0x01\n        /* \"#utility.yul\":11334:11335   */\n      0x02\n        /* \"#utility.yul\":11326:11332   */\n      dup9\n        /* \"#utility.yul\":11322:11336   */\n      mul\n        /* \"#utility.yul\":11318:11340   */\n      add\n        /* \"#utility.yul\":11312:11316   */\n      dup9\n        /* \"#utility.yul\":11305:11341   */\n      sstore\n        /* \"#utility.yul\":10740:11351   */\n      pop\n      pop\n      pop\n        /* \"#utility.yul\":10703:11590   */\n    tag_297:\n      pop\n        /* \"#utility.yul\":10293:11596   */\n      pop\n      pop\n      pop\n        /* \"#utility.yul\":10201:11596   */\n      pop\n      pop\n      jump\t// out\n        /* \"#utility.yul\":11602:11776   */\n    tag_171:\n        /* \"#utility.yul\":11742:11768   */\n      0x43616e64696461746520616c7265616479206578697374730000000000000000\n        /* \"#utility.yul\":11738:11739   */\n      0x00\n        /* \"#utility.yul\":11730:11736   */\n      dup3\n        /* \"#utility.yul\":11726:11740   */\n      add\n        /* \"#utility.yul\":11719:11769   */\n      mstore\n        /* \"#utility.yul\":11602:11776   */\n      pop\n      jump\t// out\n        /* \"#utility.yul\":11782:12148   */\n    tag_172:\n        /* \"#utility.yul\":11924:11927   */\n      0x00\n        /* \"#utility.yul\":11945:12012   */\n      tag_309\n        /* \"#utility.yul\":12009:12011   */\n      0x18\n        /* \"#utility.yul\":12004:12007   */\n      dup4\n        /* \"#utility.yul\":11945:12012   */\n      tag_146\n      jump\t// in\n    tag_309:\n        /* \"#utility.yul\":11938:12012   */\n      swap2\n      pop\n        /* \"#utility.yul\":12021:12114   */\n      tag_310\n        /* \"#utility.yul\":12110:12113   */\n      dup3\n        /* \"#utility.yul\":12021:12114   */\n      tag_171\n      jump\t// in\n    tag_310:\n        /* \"#utility.yul\":12139:12141   */\n      0x20\n        /* \"#utility.yul\":12134:12137   */\n      dup3\n        /* \"#utility.yul\":12130:12142   */\n      add\n        /* \"#utility.yul\":12123:12142   */\n      swap1\n      pop\n        /* \"#utility.yul\":11782:12148   */\n      swap2\n      swap1\n      pop\n      jump\t// out\n        /* \"#utility.yul\":12154:12573   */\n    tag_76:\n        /* \"#utility.yul\":12320:12324   */\n      0x00\n        /* \"#utility.yul\":12358:12360   */\n      0x20\n        /* \"#utility.yul\":12347:12356   */\n      dup3\n        /* \"#utility.yul\":12343:12361   */\n      add\n        /* \"#utility.yul\":12335:12361   */\n      swap1\n      pop\n        /* \"#utility.yul\":12407:12416   */\n      dup2\n        /* \"#utility.yul\":12401:12405   */\n      dup2\n        /* \"#utility.yul\":12397:12417   */\n      sub\n        /* \"#utility.yul\":12393:12394   */\n      0x00\n        /* \"#utility.yul\":12382:12391   */\n      dup4\n        /* \"#utility.yul\":12378:12395   */\n      add\n        /* \"#utility.yul\":12371:12418   */\n      mstore\n        /* \"#utility.yul\":12435:12566   */\n      tag_312\n        /* \"#utility.yul\":12561:12565   */\n      dup2\n        /* \"#utility.yul\":12435:12566   */\n      tag_172\n      jump\t// in\n    tag_312:\n        /* \"#utility.yul\":12427:12566   */\n      swap1\n      pop\n        /* \"#utility.yul\":12154:12573   */\n      swap2\n      swap1\n      pop\n      jump\t// out\n        /* \"#utility.yul\":12579:12741   */\n    tag_173:\n        /* \"#utility.yul\":12719:12733   */\n      0x4e6f20766f746573207965740000000000000000000000000000000000000000\n        /* \"#utility.yul\":12715:12716   */\n      0x00\n        /* \"#utility.yul\":12707:12713   */\n      dup3\n        /* \"#utility.yul\":12703:12717   */\n      add\n        /* \"#utility.yul\":12696:12734   */\n      mstore\n        /* \"#utility.yul\":12579:12741   */\n      pop\n      jump\t// out\n        /* \"#utility.yul\":12747:13113   */\n    tag_174:\n        /* \"#utility.yul\":12889:12892   */\n      0x00\n        /* \"#utility.yul\":12910:12977   */\n      tag_315\n        /* \"#utility.yul\":12974:12976   */\n      0x0c\n        /* \"#utility.yul\":12969:12972   */\n      dup4\n        /* \"#utility.yul\":12910:12977   */\n      tag_146\n      jump\t// in\n    tag_315:\n        /* \"#utility.yul\":12903:12977   */\n      swap2\n      pop\n        /* \"#utility.yul\":12986:13079   */\n      tag_316\n        /* \"#utility.yul\":13075:13078   */\n      dup3\n        /* \"#utility.yul\":12986:13079   */\n      tag_173\n      jump\t// in\n    tag_316:\n        /* \"#utility.yul\":13104:13106   */\n      0x20\n        /* \"#utility.yul\":13099:13102   */\n      dup3\n        /* \"#utility.yul\":13095:13107   */\n      add\n        /* \"#utility.yul\":13088:13107   */\n      swap1\n      pop\n        /* \"#utility.yul\":12747:13113   */\n      swap2\n      swap1\n      pop\n      jump\t// out\n        /* \"#utility.yul\":13119:13538   */\n    tag_89:\n        /* \"#utility.yul\":13285:13289   */\n      0x00\n        /* \"#utility.yul\":13323:13325   */\n      0x20\n        /* \"#utility.yul\":13312:13321   */\n      dup3\n        /* \"#utility.yul\":13308:13326   */\n      add\n        /* \"#utility.yul\":13300:13326   */\n      swap1\n      pop\n        /* \"#utility.yul\":13372:13381   */\n      dup2\n        /* \"#utility.yul\":13366:13370   */\n      dup2\n        /* \"#utility.yul\":13362:13382   */\n      sub\n        /* \"#utility.yul\":13358:13359   */\n      0x00\n        /* \"#utility.yul\":13347:13356   */\n      dup4\n        /* \"#utility.yul\":13343:13360   */\n      add\n        /* \"#utility.yul\":13336:13383   */\n      mstore\n        /* \"#utility.yul\":13400:13531   */\n      tag_318\n        /* \"#utility.yul\":13526:13530   */\n      dup2\n        /* \"#utility.yul\":13400:13531   */\n      tag_174\n      jump\t// in\n    tag_318:\n        /* \"#utility.yul\":13392:13531   */\n      swap1\n      pop\n        /* \"#utility.yul\":13119:13538   */\n      swap2\n      swap1\n      pop\n      jump\t// out\n        /* \"#utility.yul\":13544:13712   */\n    tag_175:\n        /* \"#utility.yul\":13684:13704   */\n      0x4e6f20766f74657320746f2072656d6f76650000000000000000000000000000\n        /* \"#utility.yul\":13680:13681   */\n      0x00\n        /* \"#utility.yul\":13672:13678   */\n      dup3\n        /* \"#utility.yul\":13668:13682   */\n      add\n        /* \"#utility.yul\":13661:13705   */\n      mstore\n        /* \"#utility.yul\":13544:13712   */\n      pop\n      jump\t// out\n        /* \"#utility.yul\":13718:14084   */\n    tag_176:\n        /* \"#utility.yul\":13860:13863   */\n      0x00\n        /* \"#utility.yul\":13881:13948   */\n      tag_321\n        /* \"#utility.yul\":13945:13947   */\n      0x12\n        /* \"#utility.yul\":13940:13943   */\n      dup4\n        /* \"#utility.yul\":13881:13948   */\n      tag_146\n      jump\t// in\n    tag_321:\n        /* \"#utility.yul\":13874:13948   */\n      swap2\n      pop\n        /* \"#utility.yul\":13957:14050   */\n      tag_322\n        /* \"#utility.yul\":14046:14049   */\n      dup3\n        /* \"#utility.yul\":13957:14050   */\n      tag_175\n      jump\t// in\n    tag_322:\n        /* \"#utility.yul\":14075:14077   */\n      0x20\n        /* \"#utility.yul\":14070:14073   */\n      dup3\n        /* \"#utility.yul\":14066:14078   */\n      add\n        /* \"#utility.yul\":14059:14078   */\n      swap1\n      pop\n        /* \"#utility.yul\":13718:14084   */\n      swap2\n      swap1\n      pop\n      jump\t// out\n        /* \"#utility.yul\":14090:14509   */\n    tag_102:\n        /* \"#utility.yul\":14256:14260   */\n      0x00\n        /* \"#utility.yul\":14294:14296   */\n      0x20\n        /* \"#utility.yul\":14283:14292   */\n      dup3\n        /* \"#utility.yul\":14279:14297   */\n      add\n        /* \"#utility.yul\":14271:14297   */\n      swap1\n      pop\n        /* \"#utility.yul\":14343:14352   */\n      dup2\n        /* \"#utility.yul\":14337:14341   */\n      dup2\n        /* \"#utility.yul\":14333:14353   */\n      sub\n        /* \"#utility.yul\":14329:14330   */\n      0x00\n        /* \"#utility.yul\":14318:14327   */\n      dup4\n        /* \"#utility.yul\":14314:14331   */\n      add\n        /* \"#utility.yul\":14307:14354   */\n      mstore\n        /* \"#utility.yul\":14371:14502   */\n      tag_324\n        /* \"#utility.yul\":14497:14501   */\n      dup2\n        /* \"#utility.yul\":14371:14502   */\n      tag_176\n      jump\t// in\n    tag_324:\n        /* \"#utility.yul\":14363:14502   */\n      swap1\n      pop\n        /* \"#utility.yul\":14090:14509   */\n      swap2\n      swap1\n      pop\n      jump\t// out\n        /* \"#utility.yul\":14515:14695   */\n    tag_177:\n        /* \"#utility.yul\":14563:14640   */\n      0x4e487b7100000000000000000000000000000000000000000000000000000000\n        /* \"#utility.yul\":14560:14561   */\n      0x00\n        /* \"#utility.yul\":14553:14641   */\n      mstore\n        /* \"#utility.yul\":14660:14664   */\n      0x11\n        /* \"#utility.yul\":14657:14658   */\n      0x04\n        /* \"#utility.yul\":14650:14665   */\n      mstore\n        /* \"#utility.yul\":14684:14688   */\n      0x24\n        /* \"#utility.yul\":14681:14682   */\n      0x00\n        /* \"#utility.yul\":14674:14689   */\n      revert\n        /* \"#utility.yul\":14701:14872   */\n    tag_105:\n        /* \"#utility.yul\":14740:14743   */\n      0x00\n        /* \"#utility.yul\":14763:14787   */\n      tag_327\n        /* \"#utility.yul\":14781:14786   */\n      dup3\n        /* \"#utility.yul\":14763:14787   */\n      tag_149\n      jump\t// in\n    tag_327:\n        /* \"#utility.yul\":14754:14787   */\n      swap2\n      pop\n        /* \"#utility.yul\":14809:14813   */\n      0x00\n        /* \"#utility.yul\":14802:14807   */\n      dup3\n        /* \"#utility.yul\":14799:14814   */\n      sub\n        /* \"#utility.yul\":14796:14837   */\n      tag_328\n      jumpi\n        /* \"#utility.yul\":14817:14835   */\n      tag_329\n      tag_177\n      jump\t// in\n    tag_329:\n        /* \"#utility.yul\":14796:14837   */\n    tag_328:\n        /* \"#utility.yul\":14864:14865   */\n      0x01\n        /* \"#utility.yul\":14857:14862   */\n      dup3\n        /* \"#utility.yul\":14853:14866   */\n      sub\n        /* \"#utility.yul\":14846:14866   */\n      swap1\n      pop\n        /* \"#utility.yul\":14701:14872   */\n      swap2\n      swap1\n      pop\n      jump\t// out\n        /* \"#utility.yul\":14878:15045   */\n    tag_108:\n        /* \"#utility.yul\":14915:14918   */\n      0x00\n        /* \"#utility.yul\":14938:14960   */\n      tag_331\n        /* \"#utility.yul\":14954:14959   */\n      dup3\n        /* \"#utility.yul\":14938:14960   */\n      tag_130\n      jump\t// in\n    tag_331:\n        /* \"#utility.yul\":14929:14960   */\n      swap2\n      pop\n        /* \"#utility.yul\":14982:14986   */\n      0x00\n        /* \"#utility.yul\":14975:14980   */\n      dup3\n        /* \"#utility.yul\":14972:14987   */\n      sub\n        /* \"#utility.yul\":14969:15010   */\n      tag_332\n      jumpi\n        /* \"#utility.yul\":14990:15008   */\n      tag_333\n      tag_177\n      jump\t// in\n    tag_333:\n        /* \"#utility.yul\":14969:15010   */\n    tag_332:\n        /* \"#utility.yul\":15037:15038   */\n      0x01\n        /* \"#utility.yul\":15030:15035   */\n      dup3\n        /* \"#utility.yul\":15026:15039   */\n      sub\n        /* \"#utility.yul\":15019:15039   */\n      swap1\n      pop\n        /* \"#utility.yul\":14878:15045   */\n      swap2\n      swap1\n      pop\n      jump\t// out\n        /* \"#utility.yul\":15051:15284   */\n    tag_126:\n        /* \"#utility.yul\":15090:15093   */\n      0x00\n        /* \"#utility.yul\":15113:15137   */\n      tag_335\n        /* \"#utility.yul\":15131:15136   */\n      dup3\n        /* \"#utility.yul\":15113:15137   */\n      tag_149\n      jump\t// in\n    tag_335:\n        /* \"#utility.yul\":15104:15137   */\n      swap2\n      pop\n        /* \"#utility.yul\":15159:15225   */\n      0xffffffffffffffffffffffffffffffffffffffffffffffffffffffffffffffff\n        /* \"#utility.yul\":15152:15157   */\n      dup3\n        /* \"#utility.yul\":15149:15226   */\n      sub\n        /* \"#utility.yul\":15146:15249   */\n      tag_336\n      jumpi\n        /* \"#utility.yul\":15229:15247   */\n      tag_337\n      tag_177\n      jump\t// in\n    tag_337:\n        /* \"#utility.yul\":15146:15249   */\n    tag_336:\n        /* \"#utility.yul\":15276:15277   */\n      0x01\n        /* \"#utility.yul\":15269:15274   */\n      dup3\n        /* \"#utility.yul\":15265:15278   */\n      add\n        /* \"#utility.yul\":15258:15278   */\n      swap1\n      pop\n        /* \"#utility.yul\":15051:15284   */\n      swap2\n      swap1\n      pop\n      jump\t// out\n        /* \"#utility.yul\":15290:15457   */\n    tag_129:\n        /* \"#utility.yul\":15327:15330   */\n      0x00\n        /* \"#utility.yul\":15350:15372   */\n      tag_339\n        /* \"#utility.yul\":15366:15371   */\n      dup3\n        /* \"#utility.yul\":15350:15372   */\n      tag_130\n      jump\t// in\n    tag_339:\n        /* \"#utility.yul\":15341:15372   */\n      swap2\n      pop\n        /* \"#utility.yul\":15394:15398   */\n      0xff\n        /* \"#utility.yul\":15387:15392   */\n      dup3\n        /* \"#utility.yul\":15384:15399   */\n      sub\n        /* \"#utility.yul\":15381:15422   */\n      tag_340\n      jumpi\n        /* \"#utility.yul\":15402:15420   */\n      tag_341\n      tag_177\n      jump\t// in\n    tag_341:\n        /* \"#utility.yul\":15381:15422   */\n    tag_340:\n        /* \"#utility.yul\":15449:15450   */\n      0x01\n        /* \"#utility.yul\":15442:15447   */\n      dup3\n        /* \"#utility.yul\":15438:15451   */\n      add\n        /* \"#utility.yul\":15431:15451   */\n      swap1\n      pop\n        /* \"#utility.yul\":15290:15457   */\n      swap2\n      swap1\n      pop\n      jump\t// out\n\n    auxdata: 0xa2646970667358221220985294f4128ba3419ec225c276cfd6f849279484b175207a372be46857abd22f64736f6c634300081e0033\n}\n",
				"bytecode": {
					"linkReferences": {},
					"object": "60806040525f60015f6101000a81548160ff021916908360ff1602179055503480156028575f5ffd5b506110b2806100365f395ff3fe608060405234801561000f575f5ffd5b50600436106100b2575f3560e01c80638cbef3f11161006f5780638cbef3f11461017957806394a5c2e4146101955780639a0e7d66146101b3578063b61add9a146101d1578063c5539cc214610202578063fc36e15b14610233576100b2565b80630d15fd77146100b65780633a5fbaaa146100d4578063462e91ec146100f05780634c162f2a1461010c5780634c9eb4d41461012a57806385453ea714610149575b5f5ffd5b6100be61024f565b6040516100cb919061087f565b60405180910390f35b6100ee60048036038101906100e991906109e5565b610261565b005b61010a600480360381019061010591906109e5565b610318565b005b6101146103b7565b6040516101219190610a8c565b60405180910390f35b610132610443565b604051610140929190610ac4565b60405180910390f35b610163600480360381019061015e91906109e5565b61052d565b6040516101709190610b0c565b60405180910390f35b610193600480360381019061018e91906109e5565b610564565b005b61019d61063e565b6040516101aa9190610b25565b60405180910390f35b6101bb610644565b6040516101c8919061087f565b60405180910390f35b6101eb60048036038101906101e691906109e5565b610659565b6040516101f9929190610ac4565b60405180910390f35b61021c600480360381019061021791906109e5565b61072f565b60405161022a929190610ac4565b60405180910390f35b61024d600480360381019061024891906109e5565b6107ec565b005b60015f9054906101000a900460ff1681565b5f816040516102709190610b78565b90815260200160405180910390206001015460025410156102c7575f8160405161029a9190610b78565b90815260200160405180910390206001015460028190555080600390816102c19190610d8b565b50610315565b5f5f826040516102d79190610b78565b90815260200160405180910390206001015403610314575f60028190555060405180602001604052805f815250600390816103129190610d8b565b505b5b50565b6103218161052d565b15610361576040517f08c379a000000000000000000000000000000000000000000000000000000000815260040161035890610ea4565b60405180910390fd5b60405180604001604052808281526020015f8152505f826040516103859190610b78565b90815260200160405180910390205f820151815f0190816103a69190610d8b565b506020820151816001015590505050565b600380546103c490610bbb565b80601f01602080910402602001604051908101604052809291908181526020018280546103f090610bbb565b801561043b5780601f106104125761010080835404028352916020019161043b565b820191905f5260205f20905b81548152906001019060200180831161041e57829003601f168201915b505050505081565b60605f5f6003805461045490610bbb565b905003610496576040517f08c379a000000000000000000000000000000000000000000000000000000000815260040161048d90610f0c565b60405180910390fd5b60036002548180546104a790610bbb565b80601f01602080910402602001604051908101604052809291908181526020018280546104d390610bbb565b801561051e5780601f106104f55761010080835404028352916020019161051e565b820191905f5260205f20905b81548152906001019060200180831161050157829003601f168201915b50505050509150915091509091565b5f5f5f8360405161053e9190610b78565b90815260200160405180910390205f01805461055990610bbb565b905014159050919050565b5f5f826040516105749190610b78565b908152602001604051809103902060010154116105c6576040517f08c379a00000000000000000000000000000000000000000000000000000000081526004016105bd90610f74565b60405180910390fd5b5f816040516105d59190610b78565b90815260200160405180910390206001015f8154809291906105f690610fbf565b919050555061060481610261565b60015f81819054906101000a900460ff168092919061062290610fe6565b91906101000a81548160ff021916908360ff1602179055505050565b60025481565b5f60015f9054906101000a900460ff16905090565b60605f5f8360405161066b9190610b78565b90815260200160405180910390205f015f8460405161068a9190610b78565b9081526020016040518091039020600101548180546106a890610bbb565b80601f01602080910402602001604051908101604052809291908181526020018280546106d490610bbb565b801561071f5780601f106106f65761010080835404028352916020019161071f565b820191905f5260205f20905b81548152906001019060200180831161070257829003601f168201915b5050505050915091509150915091565b5f818051602081018201805184825260208301602085012081835280955050505050505f91509050805f01805461076590610bbb565b80601f016020809104026020016040519081016040528092919081815260200182805461079190610bbb565b80156107dc5780601f106107b3576101008083540402835291602001916107dc565b820191905f5260205f20905b8154815290600101906020018083116107bf57829003601f168201915b5050505050908060010154905082565b5f816040516107fb9190610b78565b90815260200160405180910390206001015f81548092919061081c9061100d565b919050555061082a81610261565b60015f81819054906101000a900460ff168092919061084890611054565b91906101000a81548160ff021916908360ff1602179055505050565b5f60ff82169050919050565b61087981610864565b82525050565b5f6020820190506108925f830184610870565b92915050565b5f604051905090565b5f5ffd5b5f5ffd5b5f5ffd5b5f5ffd5b5f601f19601f8301169050919050565b7f4e487b71000000000000000000000000000000000000000000000000000000005f52604160045260245ffd5b6108f7826108b1565b810181811067ffffffffffffffff82111715610916576109156108c1565b5b80604052505050565b5f610928610898565b905061093482826108ee565b919050565b5f67ffffffffffffffff821115610953576109526108c1565b5b61095c826108b1565b9050602081019050919050565b828183375f83830152505050565b5f61098961098484610939565b61091f565b9050828152602081018484840111156109a5576109a46108ad565b5b6109b0848285610969565b509392505050565b5f82601f8301126109cc576109cb6108a9565b5b81356109dc848260208601610977565b91505092915050565b5f602082840312156109fa576109f96108a1565b5b5f82013567ffffffffffffffff811115610a1757610a166108a5565b5b610a23848285016109b8565b91505092915050565b5f81519050919050565b5f82825260208201905092915050565b8281835e5f83830152505050565b5f610a5e82610a2c565b610a688185610a36565b9350610a78818560208601610a46565b610a81816108b1565b840191505092915050565b5f6020820190508181035f830152610aa48184610a54565b905092915050565b5f819050919050565b610abe81610aac565b82525050565b5f6040820190508181035f830152610adc8185610a54565b9050610aeb6020830184610ab5565b9392505050565b5f8115159050919050565b610b0681610af2565b82525050565b5f602082019050610b1f5f830184610afd565b92915050565b5f602082019050610b385f830184610ab5565b92915050565b5f81905092915050565b5f610b5282610a2c565b610b5c8185610b3e565b9350610b6c818560208601610a46565b80840191505092915050565b5f610b838284610b48565b915081905092915050565b7f4e487b71000000000000000000000000000000000000000000000000000000005f52602260045260245ffd5b5f6002820490506001821680610bd257607f821691505b602082108103610be557610be4610b8e565b5b50919050565b5f819050815f5260205f209050919050565b5f6020601f8301049050919050565b5f82821b905092915050565b5f60088302610c477fffffffffffffffffffffffffffffffffffffffffffffffffffffffffffffffff82610c0c565b610c518683610c0c565b95508019841693508086168417925050509392505050565b5f819050919050565b5f610c8c610c87610c8284610aac565b610c69565b610aac565b9050919050565b5f819050919050565b610ca583610c72565b610cb9610cb182610c93565b848454610c18565b825550505050565b5f5f905090565b610cd0610cc1565b610cdb818484610c9c565b505050565b5b81811015610cfe57610cf35f82610cc8565b600181019050610ce1565b5050565b601f821115610d4357610d1481610beb565b610d1d84610bfd565b81016020851015610d2c578190505b610d40610d3885610bfd565b830182610ce0565b50505b505050565b5f82821c905092915050565b5f610d635f1984600802610d48565b1980831691505092915050565b5f610d7b8383610d54565b9150826002028217905092915050565b610d9482610a2c565b67ffffffffffffffff811115610dad57610dac6108c1565b5b610db78254610bbb565b610dc2828285610d02565b5f60209050601f831160018114610df3575f8415610de1578287015190505b610deb8582610d70565b865550610e52565b601f198416610e0186610beb565b5f5b82811015610e2857848901518255600182019150602085019450602081019050610e03565b86831015610e455784890151610e41601f891682610d54565b8355505b6001600288020188555050505b505050505050565b7f43616e64696461746520616c72656164792065786973747300000000000000005f82015250565b5f610e8e601883610a36565b9150610e9982610e5a565b602082019050919050565b5f6020820190508181035f830152610ebb81610e82565b9050919050565b7f4e6f20766f7465732079657400000000000000000000000000000000000000005f82015250565b5f610ef6600c83610a36565b9150610f0182610ec2565b602082019050919050565b5f6020820190508181035f830152610f2381610eea565b9050919050565b7f4e6f20766f74657320746f2072656d6f766500000000000000000000000000005f82015250565b5f610f5e601283610a36565b9150610f6982610f2a565b602082019050919050565b5f6020820190508181035f830152610f8b81610f52565b9050919050565b7f4e487b71000000000000000000000000000000000000000000000000000000005f52601160045260245ffd5b5f610fc982610aac565b91505f8203610fdb57610fda610f92565b5b600182039050919050565b5f610ff082610864565b91505f820361100257611001610f92565b5b600182039050919050565b5f61101782610aac565b91507fffffffffffffffffffffffffffffffffffffffffffffffffffffffffffffffff820361104957611048610f92565b5b600182019050919050565b5f61105e82610864565b915060ff820361107157611070610f92565b5b60018201905091905056fea2646970667358221220985294f4128ba3419ec225c276cfd6f849279484b175207a372be46857abd22f64736f6c634300081e0033",
					"opcodes": "PUSH1 0x80 PUSH1 0x40 MSTORE PUSH0 PUSH1 0x1 PUSH0 PUSH2 0x100 EXP DUP2 SLOAD DUP2 PUSH1 0xFF MUL NOT AND SWAP1 DUP4 PUSH1 0xFF AND MUL OR SWAP1 SSTORE POP CALLVALUE DUP1 ISZERO PUSH1 0x28 JUMPI PUSH0 PUSH0 REVERT JUMPDEST POP PUSH2 0x10B2 DUP1 PUSH2 0x36 PUSH0 CODECOPY PUSH0 RETURN INVALID PUSH1 0x80 PUSH1 0x40 MSTORE CALLVALUE DUP1 ISZERO PUSH2 0xF JUMPI PUSH0 PUSH0 REVERT JUMPDEST POP PUSH1 0x4 CALLDATASIZE LT PUSH2 0xB2 JUMPI PUSH0 CALLDATALOAD PUSH1 0xE0 SHR DUP1 PUSH4 0x8CBEF3F1 GT PUSH2 0x6F JUMPI DUP1 PUSH4 0x8CBEF3F1 EQ PUSH2 0x179 JUMPI DUP1 PUSH4 0x94A5C2E4 EQ PUSH2 0x195 JUMPI DUP1 PUSH4 0x9A0E7D66 EQ PUSH2 0x1B3 JUMPI DUP1 PUSH4 0xB61ADD9A EQ PUSH2 0x1D1 JUMPI DUP1 PUSH4 0xC5539CC2 EQ PUSH2 0x202 JUMPI DUP1 PUSH4 0xFC36E15B EQ PUSH2 0x233 JUMPI PUSH2 0xB2 JUMP JUMPDEST DUP1 PUSH4 0xD15FD77 EQ PUSH2 0xB6 JUMPI DUP1 PUSH4 0x3A5FBAAA EQ PUSH2 0xD4 JUMPI DUP1 PUSH4 0x462E91EC EQ PUSH2 0xF0 JUMPI DUP1 PUSH4 0x4C162F2A EQ PUSH2 0x10C JUMPI DUP1 PUSH4 0x4C9EB4D4 EQ PUSH2 0x12A JUMPI DUP1 PUSH4 0x85453EA7 EQ PUSH2 0x149 JUMPI JUMPDEST PUSH0 PUSH0 REVERT JUMPDEST PUSH2 0xBE PUSH2 0x24F JUMP JUMPDEST PUSH1 0x40 MLOAD PUSH2 0xCB SWAP2 SWAP1 PUSH2 0x87F JUMP JUMPDEST PUSH1 0x40 MLOAD DUP1 SWAP2 SUB SWAP1 RETURN JUMPDEST PUSH2 0xEE PUSH1 0x4 DUP1 CALLDATASIZE SUB DUP2 ADD SWAP1 PUSH2 0xE9 SWAP2 SWAP1 PUSH2 0x9E5 JUMP JUMPDEST PUSH2 0x261 JUMP JUMPDEST STOP JUMPDEST PUSH2 0x10A PUSH1 0x4 DUP1 CALLDATASIZE SUB DUP2 ADD SWAP1 PUSH2 0x105 SWAP2 SWAP1 PUSH2 0x9E5 JUMP JUMPDEST PUSH2 0x318 JUMP JUMPDEST STOP JUMPDEST PUSH2 0x114 PUSH2 0x3B7 JUMP JUMPDEST PUSH1 0x40 MLOAD PUSH2 0x121 SWAP2 SWAP1 PUSH2 0xA8C JUMP JUMPDEST PUSH1 0x40 MLOAD DUP1 SWAP2 SUB SWAP1 RETURN JUMPDEST PUSH2 0x132 PUSH2 0x443 JUMP JUMPDEST PUSH1 0x40 MLOAD PUSH2 0x140 SWAP3 SWAP2 SWAP1 PUSH2 0xAC4 JUMP JUMPDEST PUSH1 0x40 MLOAD DUP1 SWAP2 SUB SWAP1 RETURN JUMPDEST PUSH2 0x163 PUSH1 0x4 DUP1 CALLDATASIZE SUB DUP2 ADD SWAP1 PUSH2 0x15E SWAP2 SWAP1 PUSH2 0x9E5 JUMP JUMPDEST PUSH2 0x52D JUMP JUMPDEST PUSH1 0x40 MLOAD PUSH2 0x170 SWAP2 SWAP1 PUSH2 0xB0C JUMP JUMPDEST PUSH1 0x40 MLOAD DUP1 SWAP2 SUB SWAP1 RETURN JUMPDEST PUSH2 0x193 PUSH1 0x4 DUP1 CALLDATASIZE SUB DUP2 ADD SWAP1 PUSH2 0x18E SWAP2 SWAP1 PUSH2 0x9E5 JUMP JUMPDEST PUSH2 0x564 JUMP JUMPDEST STOP JUMPDEST PUSH2 0x19D PUSH2 0x63E JUMP JUMPDEST PUSH1 0x40 MLOAD PUSH2 0x1AA SWAP2 SWAP1 PUSH2 0xB25 JUMP JUMPDEST PUSH1 0x40 MLOAD DUP1 SWAP2 SUB SWAP1 RETURN JUMPDEST PUSH2 0x1BB PUSH2 0x644 JUMP JUMPDEST PUSH1 0x40 MLOAD PUSH2 0x1C8 SWAP2 SWAP1 PUSH2 0x87F JUMP JUMPDEST PUSH1 0x40 MLOAD DUP1 SWAP2 SUB SWAP1 RETURN JUMPDEST PUSH2 0x1EB PUSH1 0x4 DUP1 CALLDATASIZE SUB DUP2 ADD SWAP1 PUSH2 0x1E6 SWAP2 SWAP1 PUSH2 0x9E5 JUMP JUMPDEST PUSH2 0x659 JUMP JUMPDEST PUSH1 0x40 MLOAD PUSH2 0x1F9 SWAP3 SWAP2 SWAP1 PUSH2 0xAC4 JUMP JUMPDEST PUSH1 0x40 MLOAD DUP1 SWAP2 SUB SWAP1 RETURN JUMPDEST PUSH2 0x21C PUSH1 0x4 DUP1 CALLDATASIZE SUB DUP2 ADD SWAP1 PUSH2 0x217 SWAP2 SWAP1 PUSH2 0x9E5 JUMP JUMPDEST PUSH2 0x72F JUMP JUMPDEST PUSH1 0x40 MLOAD PUSH2 0x22A SWAP3 SWAP2 SWAP1 PUSH2 0xAC4 JUMP JUMPDEST PUSH1 0x40 MLOAD DUP1 SWAP2 SUB SWAP1 RETURN JUMPDEST PUSH2 0x24D PUSH1 0x4 DUP1 CALLDATASIZE SUB DUP2 ADD SWAP1 PUSH2 0x248 SWAP2 SWAP1 PUSH2 0x9E5 JUMP JUMPDEST PUSH2 0x7EC JUMP JUMPDEST STOP JUMPDEST PUSH1 0x1 PUSH0 SWAP1 SLOAD SWAP1 PUSH2 0x100 EXP SWAP1 DIV PUSH1 0xFF AND DUP2 JUMP JUMPDEST PUSH0 DUP2 PUSH1 0x40 MLOAD PUSH2 0x270 SWAP2 SWAP1 PUSH2 0xB78 JUMP JUMPDEST SWAP1 DUP2 MSTORE PUSH1 0x20 ADD PUSH1 0x40 MLOAD DUP1 SWAP2 SUB SWAP1 KECCAK256 PUSH1 0x1 ADD SLOAD PUSH1 0x2 SLOAD LT ISZERO PUSH2 0x2C7 JUMPI PUSH0 DUP2 PUSH1 0x40 MLOAD PUSH2 0x29A SWAP2 SWAP1 PUSH2 0xB78 JUMP JUMPDEST SWAP1 DUP2 MSTORE PUSH1 0x20 ADD PUSH1 0x40 MLOAD DUP1 SWAP2 SUB SWAP1 KECCAK256 PUSH1 0x1 ADD SLOAD PUSH1 0x2 DUP2 SWAP1 SSTORE POP DUP1 PUSH1 0x3 SWAP1 DUP2 PUSH2 0x2C1 SWAP2 SWAP1 PUSH2 0xD8B JUMP JUMPDEST POP PUSH2 0x315 JUMP JUMPDEST PUSH0 PUSH0 DUP3 PUSH1 0x40 MLOAD PUSH2 0x2D7 SWAP2 SWAP1 PUSH2 0xB78 JUMP JUMPDEST SWAP1 DUP2 MSTORE PUSH1 0x20 ADD PUSH1 0x40 MLOAD DUP1 SWAP2 SUB SWAP1 KECCAK256 PUSH1 0x1 ADD SLOAD SUB PUSH2 0x314 JUMPI PUSH0 PUSH1 0x2 DUP2 SWAP1 SSTORE POP PUSH1 0x40 MLOAD DUP1 PUSH1 0x20 ADD PUSH1 0x40 MSTORE DUP1 PUSH0 DUP2 MSTORE POP PUSH1 0x3 SWAP1 DUP2 PUSH2 0x312 SWAP2 SWAP1 PUSH2 0xD8B JUMP JUMPDEST POP JUMPDEST JUMPDEST POP JUMP JUMPDEST PUSH2 0x321 DUP2 PUSH2 0x52D JUMP JUMPDEST ISZERO PUSH2 0x361 JUMPI PUSH1 0x40 MLOAD PUSH32 0x8C379A000000000000000000000000000000000000000000000000000000000 DUP2 MSTORE PUSH1 0x4 ADD PUSH2 0x358 SWAP1 PUSH2 0xEA4 JUMP JUMPDEST PUSH1 0x40 MLOAD DUP1 SWAP2 SUB SWAP1 REVERT JUMPDEST PUSH1 0x40 MLOAD DUP1 PUSH1 0x40 ADD PUSH1 0x40 MSTORE DUP1 DUP3 DUP2 MSTORE PUSH1 0x20 ADD PUSH0 DUP2 MSTORE POP PUSH0 DUP3 PUSH1 0x40 MLOAD PUSH2 0x385 SWAP2 SWAP1 PUSH2 0xB78 JUMP JUMPDEST SWAP1 DUP2 MSTORE PUSH1 0x20 ADD PUSH1 0x40 MLOAD DUP1 SWAP2 SUB SWAP1 KECCAK256 PUSH0 DUP3 ADD MLOAD DUP2 PUSH0 ADD SWAP1 DUP2 PUSH2 0x3A6 SWAP2 SWAP1 PUSH2 0xD8B JUMP JUMPDEST POP PUSH1 0x20 DUP3 ADD MLOAD DUP2 PUSH1 0x1 ADD SSTORE SWAP1 POP POP POP JUMP JUMPDEST PUSH1 0x3 DUP1 SLOAD PUSH2 0x3C4 SWAP1 PUSH2 0xBBB JUMP JUMPDEST DUP1 PUSH1 0x1F ADD PUSH1 0x20 DUP1 SWAP2 DIV MUL PUSH1 0x20 ADD PUSH1 0x40 MLOAD SWAP1 DUP2 ADD PUSH1 0x40 MSTORE DUP1 SWAP3 SWAP2 SWAP1 DUP2 DUP2 MSTORE PUSH1 0x20 ADD DUP3 DUP1 SLOAD PUSH2 0x3F0 SWAP1 PUSH2 0xBBB JUMP JUMPDEST DUP1 ISZERO PUSH2 0x43B JUMPI DUP1 PUSH1 0x1F LT PUSH2 0x412 JUMPI PUSH2 0x100 DUP1 DUP4 SLOAD DIV MUL DUP4 MSTORE SWAP2 PUSH1 0x20 ADD SWAP2 PUSH2 0x43B JUMP JUMPDEST DUP3 ADD SWAP2 SWAP1 PUSH0 MSTORE PUSH1 0x20 PUSH0 KECCAK256 SWAP1 JUMPDEST DUP2 SLOAD DUP2 MSTORE SWAP1 PUSH1 0x1 ADD SWAP1 PUSH1 0x20 ADD DUP1 DUP4 GT PUSH2 0x41E JUMPI DUP3 SWAP1 SUB PUSH1 0x1F AND DUP3 ADD SWAP2 JUMPDEST POP POP POP POP POP DUP2 JUMP JUMPDEST PUSH1 0x60 PUSH0 PUSH0 PUSH1 0x3 DUP1 SLOAD PUSH2 0x454 SWAP1 PUSH2 0xBBB JUMP JUMPDEST SWAP1 POP SUB PUSH2 0x496 JUMPI PUSH1 0x40 MLOAD PUSH32 0x8C379A000000000000000000000000000000000000000000000000000000000 DUP2 MSTORE PUSH1 0x4 ADD PUSH2 0x48D SWAP1 PUSH2 0xF0C JUMP JUMPDEST PUSH1 0x40 MLOAD DUP1 SWAP2 SUB SWAP1 REVERT JUMPDEST PUSH1 0x3 PUSH1 0x2 SLOAD DUP2 DUP1 SLOAD PUSH2 0x4A7 SWAP1 PUSH2 0xBBB JUMP JUMPDEST DUP1 PUSH1 0x1F ADD PUSH1 0x20 DUP1 SWAP2 DIV MUL PUSH1 0x20 ADD PUSH1 0x40 MLOAD SWAP1 DUP2 ADD PUSH1 0x40 MSTORE DUP1 SWAP3 SWAP2 SWAP1 DUP2 DUP2 MSTORE PUSH1 0x20 ADD DUP3 DUP1 SLOAD PUSH2 0x4D3 SWAP1 PUSH2 0xBBB JUMP JUMPDEST DUP1 ISZERO PUSH2 0x51E JUMPI DUP1 PUSH1 0x1F LT PUSH2 0x4F5 JUMPI PUSH2 0x100 DUP1 DUP4 SLOAD DIV MUL DUP4 MSTORE SWAP2 PUSH1 0x20 ADD SWAP2 PUSH2 0x51E JUMP JUMPDEST DUP3 ADD SWAP2 SWAP1 PUSH0 MSTORE PUSH1 0x20 PUSH0 KECCAK256 SWAP1 JUMPDEST DUP2 SLOAD DUP2 MSTORE SWAP1 PUSH1 0x1 ADD SWAP1 PUSH1 0x20 ADD DUP1 DUP4 GT PUSH2 0x501 JUMPI DUP3 SWAP1 SUB PUSH1 0x1F AND DUP3 ADD SWAP2 JUMPDEST POP POP POP POP POP SWAP2 POP SWAP2 POP SWAP2 POP SWAP1 SWAP2 JUMP JUMPDEST PUSH0 PUSH0 PUSH0 DUP4 PUSH1 0x40 MLOAD PUSH2 0x53E SWAP2 SWAP1 PUSH2 0xB78 JUMP JUMPDEST SWAP1 DUP2 MSTORE PUSH1 0x20 ADD PUSH1 0x40 MLOAD DUP1 SWAP2 SUB SWAP1 KECCAK256 PUSH0 ADD DUP1 SLOAD PUSH2 0x559 SWAP1 PUSH2 0xBBB JUMP JUMPDEST SWAP1 POP EQ ISZERO SWAP1 POP SWAP2 SWAP1 POP JUMP JUMPDEST PUSH0 PUSH0 DUP3 PUSH1 0x40 MLOAD PUSH2 0x574 SWAP2 SWAP1 PUSH2 0xB78 JUMP JUMPDEST SWAP1 DUP2 MSTORE PUSH1 0x20 ADD PUSH1 0x40 MLOAD DUP1 SWAP2 SUB SWAP1 KECCAK256 PUSH1 0x1 ADD SLOAD GT PUSH2 0x5C6 JUMPI PUSH1 0x40 MLOAD PUSH32 0x8C379A000000000000000000000000000000000000000000000000000000000 DUP2 MSTORE PUSH1 0x4 ADD PUSH2 0x5BD SWAP1 PUSH2 0xF74 JUMP JUMPDEST PUSH1 0x40 MLOAD DUP1 SWAP2 SUB SWAP1 REVERT JUMPDEST PUSH0 DUP2 PUSH1 0x40 MLOAD PUSH2 0x5D5 SWAP2 SWAP1 PUSH2 0xB78 JUMP JUMPDEST SWAP1 DUP2 MSTORE PUSH1 0x20 ADD PUSH1 0x40 MLOAD DUP1 SWAP2 SUB SWAP1 KECCAK256 PUSH1 0x1 ADD PUSH0 DUP2 SLOAD DUP1 SWAP3 SWAP2 SWAP1 PUSH2 0x5F6 SWAP1 PUSH2 0xFBF JUMP JUMPDEST SWAP2 SWAP1 POP SSTORE POP PUSH2 0x604 DUP2 PUSH2 0x261 JUMP JUMPDEST PUSH1 0x1 PUSH0 DUP2 DUP2 SWAP1 SLOAD SWAP1 PUSH2 0x100 EXP SWAP1 DIV PUSH1 0xFF AND DUP1 SWAP3 SWAP2 SWAP1 PUSH2 0x622 SWAP1 PUSH2 0xFE6 JUMP JUMPDEST SWAP2 SWAP1 PUSH2 0x100 EXP DUP2 SLOAD DUP2 PUSH1 0xFF MUL NOT AND SWAP1 DUP4 PUSH1 0xFF AND MUL OR SWAP1 SSTORE POP POP POP JUMP JUMPDEST PUSH1 0x2 SLOAD DUP2 JUMP JUMPDEST PUSH0 PUSH1 0x1 PUSH0 SWAP1 SLOAD SWAP1 PUSH2 0x100 EXP SWAP1 DIV PUSH1 0xFF AND SWAP1 POP SWAP1 JUMP JUMPDEST PUSH1 0x60 PUSH0 PUSH0 DUP4 PUSH1 0x40 MLOAD PUSH2 0x66B SWAP2 SWAP1 PUSH2 0xB78 JUMP JUMPDEST SWAP1 DUP2 MSTORE PUSH1 0x20 ADD PUSH1 0x40 MLOAD DUP1 SWAP2 SUB SWAP1 KECCAK256 PUSH0 ADD PUSH0 DUP5 PUSH1 0x40 MLOAD PUSH2 0x68A SWAP2 SWAP1 PUSH2 0xB78 JUMP JUMPDEST SWAP1 DUP2 MSTORE PUSH1 0x20 ADD PUSH1 0x40 MLOAD DUP1 SWAP2 SUB SWAP1 KECCAK256 PUSH1 0x1 ADD SLOAD DUP2 DUP1 SLOAD PUSH2 0x6A8 SWAP1 PUSH2 0xBBB JUMP JUMPDEST DUP1 PUSH1 0x1F ADD PUSH1 0x20 DUP1 SWAP2 DIV MUL PUSH1 0x20 ADD PUSH1 0x40 MLOAD SWAP1 DUP2 ADD PUSH1 0x40 MSTORE DUP1 SWAP3 SWAP2 SWAP1 DUP2 DUP2 MSTORE PUSH1 0x20 ADD DUP3 DUP1 SLOAD PUSH2 0x6D4 SWAP1 PUSH2 0xBBB JUMP JUMPDEST DUP1 ISZERO PUSH2 0x71F JUMPI DUP1 PUSH1 0x1F LT PUSH2 0x6F6 JUMPI PUSH2 0x100 DUP1 DUP4 SLOAD DIV MUL DUP4 MSTORE SWAP2 PUSH1 0x20 ADD SWAP2 PUSH2 0x71F JUMP JUMPDEST DUP3 ADD SWAP2 SWAP1 PUSH0 MSTORE PUSH1 0x20 PUSH0 KECCAK256 SWAP1 JUMPDEST DUP2 SLOAD DUP2 MSTORE SWAP1 PUSH1 0x1 ADD SWAP1 PUSH1 0x20 ADD DUP1 DUP4 GT PUSH2 0x702 JUMPI DUP3 SWAP1 SUB PUSH1 0x1F AND DUP3 ADD SWAP2 JUMPDEST POP POP POP POP POP SWAP2 POP SWAP2 POP SWAP2 POP SWAP2 POP SWAP2 JUMP JUMPDEST PUSH0 DUP2 DUP1 MLOAD PUSH1 0x20 DUP2 ADD DUP3 ADD DUP1 MLOAD DUP5 DUP3 MSTORE PUSH1 0x20 DUP4 ADD PUSH1 0x20 DUP6 ADD KECCAK256 DUP2 DUP4 MSTORE DUP1 SWAP6 POP POP POP POP POP POP PUSH0 SWAP2 POP SWAP1 POP DUP1 PUSH0 ADD DUP1 SLOAD PUSH2 0x765 SWAP1 PUSH2 0xBBB JUMP JUMPDEST DUP1 PUSH1 0x1F ADD PUSH1 0x20 DUP1 SWAP2 DIV MUL PUSH1 0x20 ADD PUSH1 0x40 MLOAD SWAP1 DUP2 ADD PUSH1 0x40 MSTORE DUP1 SWAP3 SWAP2 SWAP1 DUP2 DUP2 MSTORE PUSH1 0x20 ADD DUP3 DUP1 SLOAD PUSH2 0x791 SWAP1 PUSH2 0xBBB JUMP JUMPDEST DUP1 ISZERO PUSH2 0x7DC JUMPI DUP1 PUSH1 0x1F LT PUSH2 0x7B3 JUMPI PUSH2 0x100 DUP1 DUP4 SLOAD DIV MUL DUP4 MSTORE SWAP2 PUSH1 0x20 ADD SWAP2 PUSH2 0x7DC JUMP JUMPDEST DUP3 ADD SWAP2 SWAP1 PUSH0 MSTORE PUSH1 0x20 PUSH0 KECCAK256 SWAP1 JUMPDEST DUP2 SLOAD DUP2 MSTORE SWAP1 PUSH1 0x1 ADD SWAP1 PUSH1 0x20 ADD DUP1 DUP4 GT PUSH2 0x7BF JUMPI DUP3 SWAP1 SUB PUSH1 0x1F AND DUP3 ADD SWAP2 JUMPDEST POP POP POP POP POP SWAP1 DUP1 PUSH1 0x1 ADD SLOAD SWAP1 POP DUP3 JUMP JUMPDEST PUSH0 DUP2 PUSH1 0x40 MLOAD PUSH2 0x7FB SWAP2 SWAP1 PUSH2 0xB78 JUMP JUMPDEST SWAP1 DUP2 MSTORE PUSH1 0x20 ADD PUSH1 0x40 MLOAD DUP1 SWAP2 SUB SWAP1 KECCAK256 PUSH1 0x1 ADD PUSH0 DUP2 SLOAD DUP1 SWAP3 SWAP2 SWAP1 PUSH2 0x81C SWAP1 PUSH2 0x100D JUMP JUMPDEST SWAP2 SWAP1 POP SSTORE POP PUSH2 0x82A DUP2 PUSH2 0x261 JUMP JUMPDEST PUSH1 0x1 PUSH0 DUP2 DUP2 SWAP1 SLOAD SWAP1 PUSH2 0x100 EXP SWAP1 DIV PUSH1 0xFF AND DUP1 SWAP3 SWAP2 SWAP1 PUSH2 0x848 SWAP1 PUSH2 0x1054 JUMP JUMPDEST SWAP2 SWAP1 PUSH2 0x100 EXP DUP2 SLOAD DUP2 PUSH1 0xFF MUL NOT AND SWAP1 DUP4 PUSH1 0xFF AND MUL OR SWAP1 SSTORE POP POP POP JUMP JUMPDEST PUSH0 PUSH1 0xFF DUP3 AND SWAP1 POP SWAP2 SWAP1 POP JUMP JUMPDEST PUSH2 0x879 DUP2 PUSH2 0x864 JUMP JUMPDEST DUP3 MSTORE POP POP JUMP JUMPDEST PUSH0 PUSH1 0x20 DUP3 ADD SWAP1 POP PUSH2 0x892 PUSH0 DUP4 ADD DUP5 PUSH2 0x870 JUMP JUMPDEST SWAP3 SWAP2 POP POP JUMP JUMPDEST PUSH0 PUSH1 0x40 MLOAD SWAP1 POP SWAP1 JUMP JUMPDEST PUSH0 PUSH0 REVERT JUMPDEST PUSH0 PUSH0 REVERT JUMPDEST PUSH0 PUSH0 REVERT JUMPDEST PUSH0 PUSH0 REVERT JUMPDEST PUSH0 PUSH1 0x1F NOT PUSH1 0x1F DUP4 ADD AND SWAP1 POP SWAP2 SWAP1 POP JUMP JUMPDEST PUSH32 0x4E487B7100000000000000000000000000000000000000000000000000000000 PUSH0 MSTORE PUSH1 0x41 PUSH1 0x4 MSTORE PUSH1 0x24 PUSH0 REVERT JUMPDEST PUSH2 0x8F7 DUP3 PUSH2 0x8B1 JUMP JUMPDEST DUP2 ADD DUP2 DUP2 LT PUSH8 0xFFFFFFFFFFFFFFFF DUP3 GT OR ISZERO PUSH2 0x916 JUMPI PUSH2 0x915 PUSH2 0x8C1 JUMP JUMPDEST JUMPDEST DUP1 PUSH1 0x40 MSTORE POP POP POP JUMP JUMPDEST PUSH0 PUSH2 0x928 PUSH2 0x898 JUMP JUMPDEST SWAP1 POP PUSH2 0x934 DUP3 DUP3 PUSH2 0x8EE JUMP JUMPDEST SWAP2 SWAP1 POP JUMP JUMPDEST PUSH0 PUSH8 0xFFFFFFFFFFFFFFFF DUP3 GT ISZERO PUSH2 0x953 JUMPI PUSH2 0x952 PUSH2 0x8C1 JUMP JUMPDEST JUMPDEST PUSH2 0x95C DUP3 PUSH2 0x8B1 JUMP JUMPDEST SWAP1 POP PUSH1 0x20 DUP2 ADD SWAP1 POP SWAP2 SWAP1 POP JUMP JUMPDEST DUP3 DUP2 DUP4 CALLDATACOPY PUSH0 DUP4 DUP4 ADD MSTORE POP POP POP JUMP JUMPDEST PUSH0 PUSH2 0x989 PUSH2 0x984 DUP5 PUSH2 0x939 JUMP JUMPDEST PUSH2 0x91F JUMP JUMPDEST SWAP1 POP DUP3 DUP2 MSTORE PUSH1 0x20 DUP2 ADD DUP5 DUP5 DUP5 ADD GT ISZERO PUSH2 0x9A5 JUMPI PUSH2 0x9A4 PUSH2 0x8AD JUMP JUMPDEST JUMPDEST PUSH2 0x9B0 DUP5 DUP3 DUP6 PUSH2 0x969 JUMP JUMPDEST POP SWAP4 SWAP3 POP POP POP JUMP JUMPDEST PUSH0 DUP3 PUSH1 0x1F DUP4 ADD SLT PUSH2 0x9CC JUMPI PUSH2 0x9CB PUSH2 0x8A9 JUMP JUMPDEST JUMPDEST DUP2 CALLDATALOAD PUSH2 0x9DC DUP5 DUP3 PUSH1 0x20 DUP7 ADD PUSH2 0x977 JUMP JUMPDEST SWAP2 POP POP SWAP3 SWAP2 POP POP JUMP JUMPDEST PUSH0 PUSH1 0x20 DUP3 DUP5 SUB SLT ISZERO PUSH2 0x9FA JUMPI PUSH2 0x9F9 PUSH2 0x8A1 JUMP JUMPDEST JUMPDEST PUSH0 DUP3 ADD CALLDATALOAD PUSH8 0xFFFFFFFFFFFFFFFF DUP2 GT ISZERO PUSH2 0xA17 JUMPI PUSH2 0xA16 PUSH2 0x8A5 JUMP JUMPDEST JUMPDEST PUSH2 0xA23 DUP5 DUP3 DUP6 ADD PUSH2 0x9B8 JUMP JUMPDEST SWAP2 POP POP SWAP3 SWAP2 POP POP JUMP JUMPDEST PUSH0 DUP2 MLOAD SWAP1 POP SWAP2 SWAP1 POP JUMP JUMPDEST PUSH0 DUP3 DUP3 MSTORE PUSH1 0x20 DUP3 ADD SWAP1 POP SWAP3 SWAP2 POP POP JUMP JUMPDEST DUP3 DUP2 DUP4 MCOPY PUSH0 DUP4 DUP4 ADD MSTORE POP POP POP JUMP JUMPDEST PUSH0 PUSH2 0xA5E DUP3 PUSH2 0xA2C JUMP JUMPDEST PUSH2 0xA68 DUP2 DUP6 PUSH2 0xA36 JUMP JUMPDEST SWAP4 POP PUSH2 0xA78 DUP2 DUP6 PUSH1 0x20 DUP7 ADD PUSH2 0xA46 JUMP JUMPDEST PUSH2 0xA81 DUP2 PUSH2 0x8B1 JUMP JUMPDEST DUP5 ADD SWAP2 POP POP SWAP3 SWAP2 POP POP JUMP JUMPDEST PUSH0 PUSH1 0x20 DUP3 ADD SWAP1 POP DUP2 DUP2 SUB PUSH0 DUP4 ADD MSTORE PUSH2 0xAA4 DUP2 DUP5 PUSH2 0xA54 JUMP JUMPDEST SWAP1 POP SWAP3 SWAP2 POP POP JUMP JUMPDEST PUSH0 DUP2 SWAP1 POP SWAP2 SWAP1 POP JUMP JUMPDEST PUSH2 0xABE DUP2 PUSH2 0xAAC JUMP JUMPDEST DUP3 MSTORE POP POP JUMP JUMPDEST PUSH0 PUSH1 0x40 DUP3 ADD SWAP1 POP DUP2 DUP2 SUB PUSH0 DUP4 ADD MSTORE PUSH2 0xADC DUP2 DUP6 PUSH2 0xA54 JUMP JUMPDEST SWAP1 POP PUSH2 0xAEB PUSH1 0x20 DUP4 ADD DUP5 PUSH2 0xAB5 JUMP JUMPDEST SWAP4 SWAP3 POP POP POP JUMP JUMPDEST PUSH0 DUP2 ISZERO ISZERO SWAP1 POP SWAP2 SWAP1 POP JUMP JUMPDEST PUSH2 0xB06 DUP2 PUSH2 0xAF2 JUMP JUMPDEST DUP3 MSTORE POP POP JUMP JUMPDEST PUSH0 PUSH1 0x20 DUP3 ADD SWAP1 POP PUSH2 0xB1F PUSH0 DUP4 ADD DUP5 PUSH2 0xAFD JUMP JUMPDEST SWAP3 SWAP2 POP POP JUMP JUMPDEST PUSH0 PUSH1 0x20 DUP3 ADD SWAP1 POP PUSH2 0xB38 PUSH0 DUP4 ADD DUP5 PUSH2 0xAB5 JUMP JUMPDEST SWAP3 SWAP2 POP POP JUMP JUMPDEST PUSH0 DUP2 SWAP1 POP SWAP3 SWAP2 POP POP JUMP JUMPDEST PUSH0 PUSH2 0xB52 DUP3 PUSH2 0xA2C JUMP JUMPDEST PUSH2 0xB5C DUP2 DUP6 PUSH2 0xB3E JUMP JUMPDEST SWAP4 POP PUSH2 0xB6C DUP2 DUP6 PUSH1 0x20 DUP7 ADD PUSH2 0xA46 JUMP JUMPDEST DUP1 DUP5 ADD SWAP2 POP POP SWAP3 SWAP2 POP POP JUMP JUMPDEST PUSH0 PUSH2 0xB83 DUP3 DUP5 PUSH2 0xB48 JUMP JUMPDEST SWAP2 POP DUP2 SWAP1 POP SWAP3 SWAP2 POP POP JUMP JUMPDEST PUSH32 0x4E487B7100000000000000000000000000000000000000000000000000000000 PUSH0 MSTORE PUSH1 0x22 PUSH1 0x4 MSTORE PUSH1 0x24 PUSH0 REVERT JUMPDEST PUSH0 PUSH1 0x2 DUP3 DIV SWAP1 POP PUSH1 0x1 DUP3 AND DUP1 PUSH2 0xBD2 JUMPI PUSH1 0x7F DUP3 AND SWAP2 POP JUMPDEST PUSH1 0x20 DUP3 LT DUP2 SUB PUSH2 0xBE5 JUMPI PUSH2 0xBE4 PUSH2 0xB8E JUMP JUMPDEST JUMPDEST POP SWAP2 SWAP1 POP JUMP JUMPDEST PUSH0 DUP2 SWAP1 POP DUP2 PUSH0 MSTORE PUSH1 0x20 PUSH0 KECCAK256 SWAP1 POP SWAP2 SWAP1 POP JUMP JUMPDEST PUSH0 PUSH1 0x20 PUSH1 0x1F DUP4 ADD DIV SWAP1 POP SWAP2 SWAP1 POP JUMP JUMPDEST PUSH0 DUP3 DUP3 SHL SWAP1 POP SWAP3 SWAP2 POP POP JUMP JUMPDEST PUSH0 PUSH1 0x8 DUP4 MUL PUSH2 0xC47 PUSH32 0xFFFFFFFFFFFFFFFFFFFFFFFFFFFFFFFFFFFFFFFFFFFFFFFFFFFFFFFFFFFFFFFF DUP3 PUSH2 0xC0C JUMP JUMPDEST PUSH2 0xC51 DUP7 DUP4 PUSH2 0xC0C JUMP JUMPDEST SWAP6 POP DUP1 NOT DUP5 AND SWAP4 POP DUP1 DUP7 AND DUP5 OR SWAP3 POP POP POP SWAP4 SWAP3 POP POP POP JUMP JUMPDEST PUSH0 DUP2 SWAP1 POP SWAP2 SWAP1 POP JUMP JUMPDEST PUSH0 PUSH2 0xC8C PUSH2 0xC87 PUSH2 0xC82 DUP5 PUSH2 0xAAC JUMP JUMPDEST PUSH2 0xC69 JUMP JUMPDEST PUSH2 0xAAC JUMP JUMPDEST SWAP1 POP SWAP2 SWAP1 POP JUMP JUMPDEST PUSH0 DUP2 SWAP1 POP SWAP2 SWAP1 POP JUMP JUMPDEST PUSH2 0xCA5 DUP4 PUSH2 0xC72 JUMP JUMPDEST PUSH2 0xCB9 PUSH2 0xCB1 DUP3 PUSH2 0xC93 JUMP JUMPDEST DUP5 DUP5 SLOAD PUSH2 0xC18 JUMP JUMPDEST DUP3 SSTORE POP POP POP POP JUMP JUMPDEST PUSH0 PUSH0 SWAP1 POP SWAP1 JUMP JUMPDEST PUSH2 0xCD0 PUSH2 0xCC1 JUMP JUMPDEST PUSH2 0xCDB DUP2 DUP5 DUP5 PUSH2 0xC9C JUMP JUMPDEST POP POP POP JUMP JUMPDEST JUMPDEST DUP2 DUP2 LT ISZERO PUSH2 0xCFE JUMPI PUSH2 0xCF3 PUSH0 DUP3 PUSH2 0xCC8 JUMP JUMPDEST PUSH1 0x1 DUP2 ADD SWAP1 POP PUSH2 0xCE1 JUMP JUMPDEST POP POP JUMP JUMPDEST PUSH1 0x1F DUP3 GT ISZERO PUSH2 0xD43 JUMPI PUSH2 0xD14 DUP2 PUSH2 0xBEB JUMP JUMPDEST PUSH2 0xD1D DUP5 PUSH2 0xBFD JUMP JUMPDEST DUP2 ADD PUSH1 0x20 DUP6 LT ISZERO PUSH2 0xD2C JUMPI DUP2 SWAP1 POP JUMPDEST PUSH2 0xD40 PUSH2 0xD38 DUP6 PUSH2 0xBFD JUMP JUMPDEST DUP4 ADD DUP3 PUSH2 0xCE0 JUMP JUMPDEST POP POP JUMPDEST POP POP POP JUMP JUMPDEST PUSH0 DUP3 DUP3 SHR SWAP1 POP SWAP3 SWAP2 POP POP JUMP JUMPDEST PUSH0 PUSH2 0xD63 PUSH0 NOT DUP5 PUSH1 0x8 MUL PUSH2 0xD48 JUMP JUMPDEST NOT DUP1 DUP4 AND SWAP2 POP POP SWAP3 SWAP2 POP POP JUMP JUMPDEST PUSH0 PUSH2 0xD7B DUP4 DUP4 PUSH2 0xD54 JUMP JUMPDEST SWAP2 POP DUP3 PUSH1 0x2 MUL DUP3 OR SWAP1 POP SWAP3 SWAP2 POP POP JUMP JUMPDEST PUSH2 0xD94 DUP3 PUSH2 0xA2C JUMP JUMPDEST PUSH8 0xFFFFFFFFFFFFFFFF DUP2 GT ISZERO PUSH2 0xDAD JUMPI PUSH2 0xDAC PUSH2 0x8C1 JUMP JUMPDEST JUMPDEST PUSH2 0xDB7 DUP3 SLOAD PUSH2 0xBBB JUMP JUMPDEST PUSH2 0xDC2 DUP3 DUP3 DUP6 PUSH2 0xD02 JUMP JUMPDEST PUSH0 PUSH1 0x20 SWAP1 POP PUSH1 0x1F DUP4 GT PUSH1 0x1 DUP2 EQ PUSH2 0xDF3 JUMPI PUSH0 DUP5 ISZERO PUSH2 0xDE1 JUMPI DUP3 DUP8 ADD MLOAD SWAP1 POP JUMPDEST PUSH2 0xDEB DUP6 DUP3 PUSH2 0xD70 JUMP JUMPDEST DUP7 SSTORE POP PUSH2 0xE52 JUMP JUMPDEST PUSH1 0x1F NOT DUP5 AND PUSH2 0xE01 DUP7 PUSH2 0xBEB JUMP JUMPDEST PUSH0 JUMPDEST DUP3 DUP2 LT ISZERO PUSH2 0xE28 JUMPI DUP5 DUP10 ADD MLOAD DUP3 SSTORE PUSH1 0x1 DUP3 ADD SWAP2 POP PUSH1 0x20 DUP6 ADD SWAP5 POP PUSH1 0x20 DUP2 ADD SWAP1 POP PUSH2 0xE03 JUMP JUMPDEST DUP7 DUP4 LT ISZERO PUSH2 0xE45 JUMPI DUP5 DUP10 ADD MLOAD PUSH2 0xE41 PUSH1 0x1F DUP10 AND DUP3 PUSH2 0xD54 JUMP JUMPDEST DUP4 SSTORE POP JUMPDEST PUSH1 0x1 PUSH1 0x2 DUP9 MUL ADD DUP9 SSTORE POP POP POP JUMPDEST POP POP POP POP POP POP JUMP JUMPDEST PUSH32 0x43616E64696461746520616C7265616479206578697374730000000000000000 PUSH0 DUP3 ADD MSTORE POP JUMP JUMPDEST PUSH0 PUSH2 0xE8E PUSH1 0x18 DUP4 PUSH2 0xA36 JUMP JUMPDEST SWAP2 POP PUSH2 0xE99 DUP3 PUSH2 0xE5A JUMP JUMPDEST PUSH1 0x20 DUP3 ADD SWAP1 POP SWAP2 SWAP1 POP JUMP JUMPDEST PUSH0 PUSH1 0x20 DUP3 ADD SWAP1 POP DUP2 DUP2 SUB PUSH0 DUP4 ADD MSTORE PUSH2 0xEBB DUP2 PUSH2 0xE82 JUMP JUMPDEST SWAP1 POP SWAP2 SWAP1 POP JUMP JUMPDEST PUSH32 0x4E6F20766F746573207965740000000000000000000000000000000000000000 PUSH0 DUP3 ADD MSTORE POP JUMP JUMPDEST PUSH0 PUSH2 0xEF6 PUSH1 0xC DUP4 PUSH2 0xA36 JUMP JUMPDEST SWAP2 POP PUSH2 0xF01 DUP3 PUSH2 0xEC2 JUMP JUMPDEST PUSH1 0x20 DUP3 ADD SWAP1 POP SWAP2 SWAP1 POP JUMP JUMPDEST PUSH0 PUSH1 0x20 DUP3 ADD SWAP1 POP DUP2 DUP2 SUB PUSH0 DUP4 ADD MSTORE PUSH2 0xF23 DUP2 PUSH2 0xEEA JUMP JUMPDEST SWAP1 POP SWAP2 SWAP1 POP JUMP JUMPDEST PUSH32 0x4E6F20766F74657320746F2072656D6F76650000000000000000000000000000 PUSH0 DUP3 ADD MSTORE POP JUMP JUMPDEST PUSH0 PUSH2 0xF5E PUSH1 0x12 DUP4 PUSH2 0xA36 JUMP JUMPDEST SWAP2 POP PUSH2 0xF69 DUP3 PUSH2 0xF2A JUMP JUMPDEST PUSH1 0x20 DUP3 ADD SWAP1 POP SWAP2 SWAP1 POP JUMP JUMPDEST PUSH0 PUSH1 0x20 DUP3 ADD SWAP1 POP DUP2 DUP2 SUB PUSH0 DUP4 ADD MSTORE PUSH2 0xF8B DUP2 PUSH2 0xF52 JUMP JUMPDEST SWAP1 POP SWAP2 SWAP1 POP JUMP JUMPDEST PUSH32 0x4E487B7100000000000000000000000000000000000000000000000000000000 PUSH0 MSTORE PUSH1 0x11 PUSH1 0x4 MSTORE PUSH1 0x24 PUSH0 REVERT JUMPDEST PUSH0 PUSH2 0xFC9 DUP3 PUSH2 0xAAC JUMP JUMPDEST SWAP2 POP PUSH0 DUP3 SUB PUSH2 0xFDB JUMPI PUSH2 0xFDA PUSH2 0xF92 JUMP JUMPDEST JUMPDEST PUSH1 0x1 DUP3 SUB SWAP1 POP SWAP2 SWAP1 POP JUMP JUMPDEST PUSH0 PUSH2 0xFF0 DUP3 PUSH2 0x864 JUMP JUMPDEST SWAP2 POP PUSH0 DUP3 SUB PUSH2 0x1002 JUMPI PUSH2 0x1001 PUSH2 0xF92 JUMP JUMPDEST JUMPDEST PUSH1 0x1 DUP3 SUB SWAP1 POP SWAP2 SWAP1 POP JUMP JUMPDEST PUSH0 PUSH2 0x1017 DUP3 PUSH2 0xAAC JUMP JUMPDEST SWAP2 POP PUSH32 0xFFFFFFFFFFFFFFFFFFFFFFFFFFFFFFFFFFFFFFFFFFFFFFFFFFFFFFFFFFFFFFFF DUP3 SUB PUSH2 0x1049 JUMPI PUSH2 0x1048 PUSH2 0xF92 JUMP JUMPDEST JUMPDEST PUSH1 0x1 DUP3 ADD SWAP1 POP SWAP2 SWAP1 POP JUMP JUMPDEST PUSH0 PUSH2 0x105E DUP3 PUSH2 0x864 JUMP JUMPDEST SWAP2 POP PUSH1 0xFF DUP3 SUB PUSH2 0x1071 JUMPI PUSH2 0x1070 PUSH2 0xF92 JUMP JUMPDEST JUMPDEST PUSH1 0x1 DUP3 ADD SWAP1 POP SWAP2 SWAP1 POP JUMP INVALID LOG2 PUSH5 0x6970667358 0x22 SLT KECCAK256 SWAP9 MSTORE SWAP5 DELEGATECALL SLT DUP12 LOG3 COINBASE SWAP15 0xC2 0x25 0xC2 PUSH23 0xCFD6F849279484B175207A372BE46857ABD22F64736F6C PUSH4 0x4300081E STOP CALLER "
				},
				"gasEstimates": {
					"creation": {
						"codeDepositCost": "854800",
						"executionCost": "25153",
						"totalCost": "879953"
					},
					"external": {
						"addCandidate(string)": "infinite",
						"addValue(string)": "infinite",
						"candidates(string)": "infinite",
						"getCandidateInfo(string)": "infinite",
						"getMaxValue()": "infinite",
						"getTotalVotes()": "2517",
						"isCandidateExit(string)": "infinite",
						"maxValue()": "2447",
						"nameTop()": "infinite",
						"totalVotes()": "2467",
						"unVote(string)": "infinite",
						"vote(string)": "infinite"
					}
				},
				"methodIdentifiers": {
					"addCandidate(string)": "462e91ec",
					"addValue(string)": "3a5fbaaa",
					"candidates(string)": "c5539cc2",
					"getCandidateInfo(string)": "b61add9a",
					"getMaxValue()": "4c9eb4d4",
					"getTotalVotes()": "9a0e7d66",
					"isCandidateExit(string)": "85453ea7",
					"maxValue()": "94a5c2e4",
					"nameTop()": "4c162f2a",
					"totalVotes()": "0d15fd77",
					"unVote(string)": "8cbef3f1",
					"vote(string)": "fc36e15b"
				}
			},
			"storageLayout": {
				"storage": [
					{
						"astId": 11,
						"contract": "contracts/qlds/CandidateManager.sol:CandidateManager",
						"label": "candidates",
						"offset": 0,
						"slot": "0",
						"type": "t_mapping(t_string_memory_ptr,t_struct(Candidate)6_storage)"
					},
					{
						"astId": 14,
						"contract": "contracts/qlds/CandidateManager.sol:CandidateManager",
						"label": "totalVotes",
						"offset": 0,
						"slot": "1",
						"type": "t_uint8"
					},
					{
						"astId": 16,
						"contract": "contracts/qlds/CandidateManager.sol:CandidateManager",
						"label": "maxValue",
						"offset": 0,
						"slot": "2",
						"type": "t_uint256"
					},
					{
						"astId": 18,
						"contract": "contracts/qlds/CandidateManager.sol:CandidateManager",
						"label": "nameTop",
						"offset": 0,
						"slot": "3",
						"type": "t_string_storage"
					}
				],
				"types": {
					"t_mapping(t_string_memory_ptr,t_struct(Candidate)6_storage)": {
						"encoding": "mapping",
						"key": "t_string_memory_ptr",
						"label": "mapping(string => struct CandidateManager.Candidate)",
						"numberOfBytes": "32",
						"value": "t_struct(Candidate)6_storage"
					},
					"t_string_memory_ptr": {
						"encoding": "bytes",
						"label": "string",
						"numberOfBytes": "32"
					},
					"t_string_storage": {
						"encoding": "bytes",
						"label": "string",
						"numberOfBytes": "32"
					},
					"t_struct(Candidate)6_storage": {
						"encoding": "inplace",
						"label": "struct CandidateManager.Candidate",
						"members": [
							{
								"astId": 3,
								"contract": "contracts/qlds/CandidateManager.sol:CandidateManager",
								"label": "name",
								"offset": 0,
								"slot": "0",
								"type": "t_string_storage"
							},
							{
								"astId": 5,
								"contract": "contracts/qlds/CandidateManager.sol:CandidateManager",
								"label": "voteCount",
								"offset": 0,
								"slot": "1",
								"type": "t_uint256"
							}
						],
						"numberOfBytes": "64"
					},
					"t_uint256": {
						"encoding": "inplace",
						"label": "uint256",
						"numberOfBytes": "32"
					},
					"t_uint8": {
						"encoding": "inplace",
						"label": "uint8",
						"numberOfBytes": "1"
					}
				}
			},
			"userdoc": {
				"kind": "user",
				"methods": {},
				"version": 1
			}
		}
	}
}