{
	"contracts/qlds/CandidateManager.sol": {
		"CandidateManager": {
			"abi": [
				{
					"inputs": [
						{
							"internalType": "string",
							"name": "_name",
							"type": "string"
						}
					],
					"name": "addCandidate",
					"outputs": [],
					"stateMutability": "nonpayable",
					"type": "function"
				},
				{
					"inputs": [
						{
							"internalType": "string",
							"name": "",
							"type": "string"
						}
					],
					"name": "candidates",
					"outputs": [
						{
							"internalType": "string",
							"name": "name",
							"type": "string"
						},
						{
							"internalType": "uint256",
							"name": "voteCount",
							"type": "uint256"
						}
					],
					"stateMutability": "view",
					"type": "function"
				},
				{
					"inputs": [
						{
							"internalType": "string",
							"name": "_name",
							"type": "string"
						}
					],
					"name": "getCandidateInfo",
					"outputs": [
						{
							"internalType": "string",
							"name": "",
							"type": "string"
						},
						{
							"internalType": "uint256",
							"name": "",
							"type": "uint256"
						}
					],
					"stateMutability": "view",
					"type": "function"
				},
				{
					"inputs": [],
					"name": "getMaxValue",
					"outputs": [
						{
							"internalType": "string",
							"name": "",
							"type": "string"
						},
						{
							"internalType": "uint256",
							"name": "",
							"type": "uint256"
						}
					],
					"stateMutability": "view",
					"type": "function"
				},
				{
					"inputs": [],
					"name": "getTotalVotes",
					"outputs": [
						{
							"internalType": "uint8",
							"name": "",
							"type": "uint8"
						}
					],
					"stateMutability": "view",
					"type": "function"
				},
				{
					"inputs": [
						{
							"internalType": "string",
							"name": "_name",
							"type": "string"
						}
					],
					"name": "isCandidateExit",
					"outputs": [
						{
							"internalType": "bool",
							"name": "",
							"type": "bool"
						}
					],
					"stateMutability": "view",
					"type": "function"
				},
				{
					"inputs": [],
					"name": "maxValue",
					"outputs": [
						{
							"internalType": "uint256",
							"name": "",
							"type": "uint256"
						}
					],
					"stateMutability": "view",
					"type": "function"
				},
				{
					"inputs": [],
					"name": "nameTop",
					"outputs": [
						{
							"internalType": "string",
							"name": "",
							"type": "string"
						}
					],
					"stateMutability": "view",
					"type": "function"
				},
				{
					"inputs": [],
					"name": "totalVotes",
					"outputs": [
						{
							"internalType": "uint8",
							"name": "",
							"type": "uint8"
						}
					],
					"stateMutability": "view",
					"type": "function"
				},
				{
					"inputs": [
						{
							"internalType": "string",
							"name": "_name",
							"type": "string"
						}
					],
					"name": "vote",
					"outputs": [],
					"stateMutability": "nonpayable",
					"type": "function"
				}
			],
			"devdoc": {
				"kind": "dev",
				"methods": {},
				"version": 1
			},
			"evm": {
				"assembly": "    /* \"contracts/qlds/CandidateManager.sol\":60:1494  contract CandidateManager{... */\n  mstore(0x40, 0x80)\n    /* \"contracts/qlds/CandidateManager.sol\":249:250  0 */\n  0x00\n    /* \"contracts/qlds/CandidateManager.sol\":223:250  uint8 public totalVotes = 0 */\n  0x01\n  exp(0x0100, 0x00)\n  dup2\n  sload\n  dup2\n  0xff\n  mul\n  not\n  and\n  swap1\n  dup4\n  0xff\n  and\n  mul\n  or\n  swap1\n  sstore\n  pop\n    /* \"contracts/qlds/CandidateManager.sol\":60:1494  contract CandidateManager{... */\n  callvalue\n  dup1\n  iszero\n  tag_1\n  jumpi\n  revert(0x00, 0x00)\ntag_1:\n  pop\n  dataSize(sub_0)\n  dup1\n  dataOffset(sub_0)\n  0x00\n  codecopy\n  0x00\n  return\nstop\n\nsub_0: assembly {\n        /* \"contracts/qlds/CandidateManager.sol\":60:1494  contract CandidateManager{... */\n      mstore(0x40, 0x80)\n      callvalue\n      dup1\n      iszero\n      tag_1\n      jumpi\n      revert(0x00, 0x00)\n    tag_1:\n      pop\n      jumpi(tag_2, lt(calldatasize, 0x04))\n      shr(0xe0, calldataload(0x00))\n      dup1\n      0x94a5c2e4\n      gt\n      tag_13\n      jumpi\n      dup1\n      0x94a5c2e4\n      eq\n      tag_8\n      jumpi\n      dup1\n      0x9a0e7d66\n      eq\n      tag_9\n      jumpi\n      dup1\n      0xb61add9a\n      eq\n      tag_10\n      jumpi\n      dup1\n      0xc5539cc2\n      eq\n      tag_11\n      jumpi\n      dup1\n      0xfc36e15b\n      eq\n      tag_12\n      jumpi\n      jump(tag_2)\n    tag_13:\n      dup1\n      0x0d15fd77\n      eq\n      tag_3\n      jumpi\n      dup1\n      0x462e91ec\n      eq\n      tag_4\n      jumpi\n      dup1\n      0x4c162f2a\n      eq\n      tag_5\n      jumpi\n      dup1\n      0x4c9eb4d4\n      eq\n      tag_6\n      jumpi\n      dup1\n      0x85453ea7\n      eq\n      tag_7\n      jumpi\n    tag_2:\n      revert(0x00, 0x00)\n        /* \"contracts/qlds/CandidateManager.sol\":223:250  uint8 public totalVotes = 0 */\n    tag_3:\n      tag_14\n      tag_15\n      jump\t// in\n    tag_14:\n      mload(0x40)\n      tag_16\n      swap2\n      swap1\n      tag_17\n      jump\t// in\n    tag_16:\n      mload(0x40)\n      dup1\n      swap2\n      sub\n      swap1\n      return\n        /* \"contracts/qlds/CandidateManager.sol\":312:490  function addCandidate(string memory _name) public {... */\n    tag_4:\n      tag_18\n      0x04\n      dup1\n      calldatasize\n      sub\n      dup2\n      add\n      swap1\n      tag_19\n      swap2\n      swap1\n      tag_20\n      jump\t// in\n    tag_19:\n      tag_21\n      jump\t// in\n    tag_18:\n      stop\n        /* \"contracts/qlds/CandidateManager.sol\":284:305  string public nameTop */\n    tag_5:\n      tag_22\n      tag_23\n      jump\t// in\n    tag_22:\n      mload(0x40)\n      tag_24\n      swap2\n      swap1\n      tag_25\n      jump\t// in\n    tag_24:\n      mload(0x40)\n      dup1\n      swap2\n      sub\n      swap1\n      return\n        /* \"contracts/qlds/CandidateManager.sol\":1315:1483  function getMaxValue() public view returns(string memory,uint){... */\n    tag_6:\n      tag_26\n      tag_27\n      jump\t// in\n    tag_26:\n      mload(0x40)\n      tag_28\n      swap3\n      swap2\n      swap1\n      tag_29\n      jump\t// in\n    tag_28:\n      mload(0x40)\n      dup1\n      swap2\n      sub\n      swap1\n      return\n        /* \"contracts/qlds/CandidateManager.sol\":496:635  function isCandidateExit(string memory _name) public view returns(bool) {... */\n    tag_7:\n      tag_30\n      0x04\n      dup1\n      calldatasize\n      sub\n      dup2\n      add\n      swap1\n      tag_31\n      swap2\n      swap1\n      tag_20\n      jump\t// in\n    tag_31:\n      tag_32\n      jump\t// in\n    tag_30:\n      mload(0x40)\n      tag_33\n      swap2\n      swap1\n      tag_34\n      jump\t// in\n    tag_33:\n      mload(0x40)\n      dup1\n      swap2\n      sub\n      swap1\n      return\n        /* \"contracts/qlds/CandidateManager.sol\":257:277  uint public maxValue */\n    tag_8:\n      tag_35\n      tag_36\n      jump\t// in\n    tag_35:\n      mload(0x40)\n      tag_37\n      swap2\n      swap1\n      tag_38\n      jump\t// in\n    tag_37:\n      mload(0x40)\n      dup1\n      swap2\n      sub\n      swap1\n      return\n        /* \"contracts/qlds/CandidateManager.sol\":1220:1307  function getTotalVotes() public view returns(uint8){... */\n    tag_9:\n      tag_39\n      tag_40\n      jump\t// in\n    tag_39:\n      mload(0x40)\n      tag_41\n      swap2\n      swap1\n      tag_17\n      jump\t// in\n    tag_41:\n      mload(0x40)\n      dup1\n      swap2\n      sub\n      swap1\n      return\n        /* \"contracts/qlds/CandidateManager.sol\":641:876  function getCandidateInfo(string memory _name) public view returns(string memory,uint) {... */\n    tag_10:\n      tag_42\n      0x04\n      dup1\n      calldatasize\n      sub\n      dup2\n      add\n      swap1\n      tag_43\n      swap2\n      swap1\n      tag_20\n      jump\t// in\n    tag_43:\n      tag_44\n      jump\t// in\n    tag_42:\n      mload(0x40)\n      tag_45\n      swap3\n      swap2\n      swap1\n      tag_29\n      jump\t// in\n    tag_45:\n      mload(0x40)\n      dup1\n      swap2\n      sub\n      swap1\n      return\n        /* \"contracts/qlds/CandidateManager.sol\":170:216  mapping(string => Candidate) public candidates */\n    tag_11:\n      tag_46\n      0x04\n      dup1\n      calldatasize\n      sub\n      dup2\n      add\n      swap1\n      tag_47\n      swap2\n      swap1\n      tag_20\n      jump\t// in\n    tag_47:\n      tag_48\n      jump\t// in\n    tag_46:\n      mload(0x40)\n      tag_49\n      swap3\n      swap2\n      swap1\n      tag_29\n      jump\t// in\n    tag_49:\n      mload(0x40)\n      dup1\n      swap2\n      sub\n      swap1\n      return\n        /* \"contracts/qlds/CandidateManager.sol\":882:1214  function vote(string memory _name) public {... */\n    tag_12:\n      tag_50\n      0x04\n      dup1\n      calldatasize\n      sub\n      dup2\n      add\n      swap1\n      tag_51\n      swap2\n      swap1\n      tag_20\n      jump\t// in\n    tag_51:\n      tag_52\n      jump\t// in\n    tag_50:\n      stop\n        /* \"contracts/qlds/CandidateManager.sol\":223:250  uint8 public totalVotes = 0 */\n    tag_15:\n      0x01\n      0x00\n      swap1\n      sload\n      swap1\n      0x0100\n      exp\n      swap1\n      div\n      0xff\n      and\n      dup2\n      jump\t// out\n        /* \"contracts/qlds/CandidateManager.sol\":312:490  function addCandidate(string memory _name) public {... */\n    tag_21:\n        /* \"contracts/qlds/CandidateManager.sol\":382:404  isCandidateExit(_name) */\n      tag_54\n        /* \"contracts/qlds/CandidateManager.sol\":398:403  _name */\n      dup2\n        /* \"contracts/qlds/CandidateManager.sol\":382:397  isCandidateExit */\n      tag_32\n        /* \"contracts/qlds/CandidateManager.sol\":382:404  isCandidateExit(_name) */\n      jump\t// in\n    tag_54:\n        /* \"contracts/qlds/CandidateManager.sol\":381:404  !isCandidateExit(_name) */\n      iszero\n        /* \"contracts/qlds/CandidateManager.sol\":373:433  require(!isCandidateExit(_name), \"Candidate already exists\") */\n      tag_55\n      jumpi\n      mload(0x40)\n      0x08c379a000000000000000000000000000000000000000000000000000000000\n      dup2\n      mstore\n      0x04\n      add\n      tag_56\n      swap1\n      tag_57\n      jump\t// in\n    tag_56:\n      mload(0x40)\n      dup1\n      swap2\n      sub\n      swap1\n      revert\n    tag_55:\n        /* \"contracts/qlds/CandidateManager.sol\":464:482  Candidate(_name,0) */\n      mload(0x40)\n      dup1\n      0x40\n      add\n      0x40\n      mstore\n      dup1\n        /* \"contracts/qlds/CandidateManager.sol\":474:479  _name */\n      dup3\n        /* \"contracts/qlds/CandidateManager.sol\":464:482  Candidate(_name,0) */\n      dup2\n      mstore\n      0x20\n      add\n        /* \"contracts/qlds/CandidateManager.sol\":480:481  0 */\n      0x00\n        /* \"contracts/qlds/CandidateManager.sol\":464:482  Candidate(_name,0) */\n      dup2\n      mstore\n      pop\n        /* \"contracts/qlds/CandidateManager.sol\":444:454  candidates */\n      0x00\n        /* \"contracts/qlds/CandidateManager.sol\":455:460  _name */\n      dup3\n        /* \"contracts/qlds/CandidateManager.sol\":444:461  candidates[_name] */\n      mload(0x40)\n      tag_58\n      swap2\n      swap1\n      tag_59\n      jump\t// in\n    tag_58:\n      swap1\n      dup2\n      mstore\n      0x20\n      add\n      mload(0x40)\n      dup1\n      swap2\n      sub\n      swap1\n      keccak256\n        /* \"contracts/qlds/CandidateManager.sol\":444:482  candidates[_name] = Candidate(_name,0) */\n      0x00\n      dup3\n      add\n      mload\n      dup2\n      0x00\n      add\n      swap1\n      dup2\n      tag_60\n      swap2\n      swap1\n      tag_61\n      jump\t// in\n    tag_60:\n      pop\n      0x20\n      dup3\n      add\n      mload\n      dup2\n      0x01\n      add\n      sstore\n      swap1\n      pop\n      pop\n        /* \"contracts/qlds/CandidateManager.sol\":312:490  function addCandidate(string memory _name) public {... */\n      pop\n      jump\t// out\n        /* \"contracts/qlds/CandidateManager.sol\":284:305  string public nameTop */\n    tag_23:\n      0x03\n      dup1\n      sload\n      tag_62\n      swap1\n      tag_63\n      jump\t// in\n    tag_62:\n      dup1\n      0x1f\n      add\n      0x20\n      dup1\n      swap2\n      div\n      mul\n      0x20\n      add\n      mload(0x40)\n      swap1\n      dup2\n      add\n      0x40\n      mstore\n      dup1\n      swap3\n      swap2\n      swap1\n      dup2\n      dup2\n      mstore\n      0x20\n      add\n      dup3\n      dup1\n      sload\n      tag_64\n      swap1\n      tag_63\n      jump\t// in\n    tag_64:\n      dup1\n      iszero\n      tag_65\n      jumpi\n      dup1\n      0x1f\n      lt\n      tag_66\n      jumpi\n      0x0100\n      dup1\n      dup4\n      sload\n      div\n      mul\n      dup4\n      mstore\n      swap2\n      0x20\n      add\n      swap2\n      jump(tag_65)\n    tag_66:\n      dup3\n      add\n      swap2\n      swap1\n      0x00\n      mstore\n      keccak256(0x00, 0x20)\n      swap1\n    tag_67:\n      dup2\n      sload\n      dup2\n      mstore\n      swap1\n      0x01\n      add\n      swap1\n      0x20\n      add\n      dup1\n      dup4\n      gt\n      tag_67\n      jumpi\n      dup3\n      swap1\n      sub\n      0x1f\n      and\n      dup3\n      add\n      swap2\n    tag_65:\n      pop\n      pop\n      pop\n      pop\n      pop\n      dup2\n      jump\t// out\n        /* \"contracts/qlds/CandidateManager.sol\":1315:1483  function getMaxValue() public view returns(string memory,uint){... */\n    tag_27:\n        /* \"contracts/qlds/CandidateManager.sol\":1358:1371  string memory */\n      0x60\n        /* \"contracts/qlds/CandidateManager.sol\":1372:1376  uint */\n      0x00\n        /* \"contracts/qlds/CandidateManager.sol\":1421:1422  0 */\n      0x00\n        /* \"contracts/qlds/CandidateManager.sol\":1402:1409  nameTop */\n      0x03\n        /* \"contracts/qlds/CandidateManager.sol\":1396:1417  bytes(nameTop).length */\n      dup1\n      sload\n      tag_69\n      swap1\n      tag_63\n      jump\t// in\n    tag_69:\n      swap1\n      pop\n        /* \"contracts/qlds/CandidateManager.sol\":1396:1422  bytes(nameTop).length != 0 */\n      sub\n        /* \"contracts/qlds/CandidateManager.sol\":1388:1439  require(bytes(nameTop).length != 0, \"No votes yet\") */\n      tag_70\n      jumpi\n      mload(0x40)\n      0x08c379a000000000000000000000000000000000000000000000000000000000\n      dup2\n      mstore\n      0x04\n      add\n      tag_71\n      swap1\n      tag_72\n      jump\t// in\n    tag_71:\n      mload(0x40)\n      dup1\n      swap2\n      sub\n      swap1\n      revert\n    tag_70:\n        /* \"contracts/qlds/CandidateManager.sol\":1458:1465  nameTop */\n      0x03\n        /* \"contracts/qlds/CandidateManager.sol\":1466:1474  maxValue */\n      sload(0x02)\n        /* \"contracts/qlds/CandidateManager.sol\":1450:1475  return (nameTop,maxValue) */\n      dup2\n      dup1\n      sload\n      tag_73\n      swap1\n      tag_63\n      jump\t// in\n    tag_73:\n      dup1\n      0x1f\n      add\n      0x20\n      dup1\n      swap2\n      div\n      mul\n      0x20\n      add\n      mload(0x40)\n      swap1\n      dup2\n      add\n      0x40\n      mstore\n      dup1\n      swap3\n      swap2\n      swap1\n      dup2\n      dup2\n      mstore\n      0x20\n      add\n      dup3\n      dup1\n      sload\n      tag_74\n      swap1\n      tag_63\n      jump\t// in\n    tag_74:\n      dup1\n      iszero\n      tag_75\n      jumpi\n      dup1\n      0x1f\n      lt\n      tag_76\n      jumpi\n      0x0100\n      dup1\n      dup4\n      sload\n      div\n      mul\n      dup4\n      mstore\n      swap2\n      0x20\n      add\n      swap2\n      jump(tag_75)\n    tag_76:\n      dup3\n      add\n      swap2\n      swap1\n      0x00\n      mstore\n      keccak256(0x00, 0x20)\n      swap1\n    tag_77:\n      dup2\n      sload\n      dup2\n      mstore\n      swap1\n      0x01\n      add\n      swap1\n      0x20\n      add\n      dup1\n      dup4\n      gt\n      tag_77\n      jumpi\n      dup3\n      swap1\n      sub\n      0x1f\n      and\n      dup3\n      add\n      swap2\n    tag_75:\n      pop\n      pop\n      pop\n      pop\n      pop\n      swap2\n      pop\n      swap2\n      pop\n      swap2\n      pop\n        /* \"contracts/qlds/CandidateManager.sol\":1315:1483  function getMaxValue() public view returns(string memory,uint){... */\n      swap1\n      swap2\n      jump\t// out\n        /* \"contracts/qlds/CandidateManager.sol\":496:635  function isCandidateExit(string memory _name) public view returns(bool) {... */\n    tag_32:\n        /* \"contracts/qlds/CandidateManager.sol\":562:566  bool */\n      0x00\n        /* \"contracts/qlds/CandidateManager.sol\":626:627  0 */\n      0x00\n        /* \"contracts/qlds/CandidateManager.sol\":592:602  candidates */\n      0x00\n        /* \"contracts/qlds/CandidateManager.sol\":603:608  _name */\n      dup4\n        /* \"contracts/qlds/CandidateManager.sol\":592:609  candidates[_name] */\n      mload(0x40)\n      tag_79\n      swap2\n      swap1\n      tag_59\n      jump\t// in\n    tag_79:\n      swap1\n      dup2\n      mstore\n      0x20\n      add\n      mload(0x40)\n      dup1\n      swap2\n      sub\n      swap1\n      keccak256\n        /* \"contracts/qlds/CandidateManager.sol\":592:614  candidates[_name].name */\n      0x00\n      add\n        /* \"contracts/qlds/CandidateManager.sol\":586:622  bytes(candidates[_name].name).length */\n      dup1\n      sload\n      tag_80\n      swap1\n      tag_63\n      jump\t// in\n    tag_80:\n      swap1\n      pop\n        /* \"contracts/qlds/CandidateManager.sol\":586:627  bytes(candidates[_name].name).length != 0 */\n      eq\n      iszero\n        /* \"contracts/qlds/CandidateManager.sol\":579:627  return bytes(candidates[_name].name).length != 0 */\n      swap1\n      pop\n        /* \"contracts/qlds/CandidateManager.sol\":496:635  function isCandidateExit(string memory _name) public view returns(bool) {... */\n      swap2\n      swap1\n      pop\n      jump\t// out\n        /* \"contracts/qlds/CandidateManager.sol\":257:277  uint public maxValue */\n    tag_36:\n      sload(0x02)\n      dup2\n      jump\t// out\n        /* \"contracts/qlds/CandidateManager.sol\":1220:1307  function getTotalVotes() public view returns(uint8){... */\n    tag_40:\n        /* \"contracts/qlds/CandidateManager.sol\":1265:1270  uint8 */\n      0x00\n        /* \"contracts/qlds/CandidateManager.sol\":1289:1299  totalVotes */\n      0x01\n      0x00\n      swap1\n      sload\n      swap1\n      0x0100\n      exp\n      swap1\n      div\n      0xff\n      and\n        /* \"contracts/qlds/CandidateManager.sol\":1282:1299  return totalVotes */\n      swap1\n      pop\n        /* \"contracts/qlds/CandidateManager.sol\":1220:1307  function getTotalVotes() public view returns(uint8){... */\n      swap1\n      jump\t// out\n        /* \"contracts/qlds/CandidateManager.sol\":641:876  function getCandidateInfo(string memory _name) public view returns(string memory,uint) {... */\n    tag_44:\n        /* \"contracts/qlds/CandidateManager.sol\":708:721  string memory */\n      0x60\n        /* \"contracts/qlds/CandidateManager.sol\":722:726  uint */\n      0x00\n        /* \"contracts/qlds/CandidateManager.sol\":747:769  isCandidateExit(_name) */\n      tag_83\n        /* \"contracts/qlds/CandidateManager.sol\":763:768  _name */\n      dup4\n        /* \"contracts/qlds/CandidateManager.sol\":747:762  isCandidateExit */\n      tag_32\n        /* \"contracts/qlds/CandidateManager.sol\":747:769  isCandidateExit(_name) */\n      jump\t// in\n    tag_83:\n        /* \"contracts/qlds/CandidateManager.sol\":739:798  require(isCandidateExit(_name), \"Candidate does not exist\") */\n      tag_84\n      jumpi\n      mload(0x40)\n      0x08c379a000000000000000000000000000000000000000000000000000000000\n      dup2\n      mstore\n      0x04\n      add\n      tag_85\n      swap1\n      tag_86\n      jump\t// in\n    tag_85:\n      mload(0x40)\n      dup1\n      swap2\n      sub\n      swap1\n      revert\n    tag_84:\n        /* \"contracts/qlds/CandidateManager.sol\":817:827  candidates */\n      0x00\n        /* \"contracts/qlds/CandidateManager.sol\":828:833  _name */\n      dup4\n        /* \"contracts/qlds/CandidateManager.sol\":817:834  candidates[_name] */\n      mload(0x40)\n      tag_87\n      swap2\n      swap1\n      tag_59\n      jump\t// in\n    tag_87:\n      swap1\n      dup2\n      mstore\n      0x20\n      add\n      mload(0x40)\n      dup1\n      swap2\n      sub\n      swap1\n      keccak256\n        /* \"contracts/qlds/CandidateManager.sol\":817:839  candidates[_name].name */\n      0x00\n      add\n        /* \"contracts/qlds/CandidateManager.sol\":840:850  candidates */\n      0x00\n        /* \"contracts/qlds/CandidateManager.sol\":851:856  _name */\n      dup5\n        /* \"contracts/qlds/CandidateManager.sol\":840:857  candidates[_name] */\n      mload(0x40)\n      tag_88\n      swap2\n      swap1\n      tag_59\n      jump\t// in\n    tag_88:\n      swap1\n      dup2\n      mstore\n      0x20\n      add\n      mload(0x40)\n      dup1\n      swap2\n      sub\n      swap1\n      keccak256\n        /* \"contracts/qlds/CandidateManager.sol\":840:867  candidates[_name].voteCount */\n      0x01\n      add\n      sload\n        /* \"contracts/qlds/CandidateManager.sol\":809:868  return (candidates[_name].name,candidates[_name].voteCount) */\n      dup2\n      dup1\n      sload\n      tag_89\n      swap1\n      tag_63\n      jump\t// in\n    tag_89:\n      dup1\n      0x1f\n      add\n      0x20\n      dup1\n      swap2\n      div\n      mul\n      0x20\n      add\n      mload(0x40)\n      swap1\n      dup2\n      add\n      0x40\n      mstore\n      dup1\n      swap3\n      swap2\n      swap1\n      dup2\n      dup2\n      mstore\n      0x20\n      add\n      dup3\n      dup1\n      sload\n      tag_90\n      swap1\n      tag_63\n      jump\t// in\n    tag_90:\n      dup1\n      iszero\n      tag_91\n      jumpi\n      dup1\n      0x1f\n      lt\n      tag_92\n      jumpi\n      0x0100\n      dup1\n      dup4\n      sload\n      div\n      mul\n      dup4\n      mstore\n      swap2\n      0x20\n      add\n      swap2\n      jump(tag_91)\n    tag_92:\n      dup3\n      add\n      swap2\n      swap1\n      0x00\n      mstore\n      keccak256(0x00, 0x20)\n      swap1\n    tag_93:\n      dup2\n      sload\n      dup2\n      mstore\n      swap1\n      0x01\n      add\n      swap1\n      0x20\n      add\n      dup1\n      dup4\n      gt\n      tag_93\n      jumpi\n      dup3\n      swap1\n      sub\n      0x1f\n      and\n      dup3\n      add\n      swap2\n    tag_91:\n      pop\n      pop\n      pop\n      pop\n      pop\n      swap2\n      pop\n      swap2\n      pop\n      swap2\n      pop\n        /* \"contracts/qlds/CandidateManager.sol\":641:876  function getCandidateInfo(string memory _name) public view returns(string memory,uint) {... */\n      swap2\n      pop\n      swap2\n      jump\t// out\n        /* \"contracts/qlds/CandidateManager.sol\":170:216  mapping(string => Candidate) public candidates */\n    tag_48:\n      0x00\n      dup2\n      dup1\n      mload\n      0x20\n      dup2\n      add\n      dup3\n      add\n      dup1\n      mload\n      dup5\n      dup3\n      mstore\n      0x20\n      dup4\n      add\n      0x20\n      dup6\n      add\n      keccak256\n      dup2\n      dup4\n      mstore\n      dup1\n      swap6\n      pop\n      pop\n      pop\n      pop\n      pop\n      pop\n      0x00\n      swap2\n      pop\n      swap1\n      pop\n      dup1\n      0x00\n      add\n      dup1\n      sload\n      tag_94\n      swap1\n      tag_63\n      jump\t// in\n    tag_94:\n      dup1\n      0x1f\n      add\n      0x20\n      dup1\n      swap2\n      div\n      mul\n      0x20\n      add\n      mload(0x40)\n      swap1\n      dup2\n      add\n      0x40\n      mstore\n      dup1\n      swap3\n      swap2\n      swap1\n      dup2\n      dup2\n      mstore\n      0x20\n      add\n      dup3\n      dup1\n      sload\n      tag_95\n      swap1\n      tag_63\n      jump\t// in\n    tag_95:\n      dup1\n      iszero\n      tag_96\n      jumpi\n      dup1\n      0x1f\n      lt\n      tag_97\n      jumpi\n      0x0100\n      dup1\n      dup4\n      sload\n      div\n      mul\n      dup4\n      mstore\n      swap2\n      0x20\n      add\n      swap2\n      jump(tag_96)\n    tag_97:\n      dup3\n      add\n      swap2\n      swap1\n      0x00\n      mstore\n      keccak256(0x00, 0x20)\n      swap1\n    tag_98:\n      dup2\n      sload\n      dup2\n      mstore\n      swap1\n      0x01\n      add\n      swap1\n      0x20\n      add\n      dup1\n      dup4\n      gt\n      tag_98\n      jumpi\n      dup3\n      swap1\n      sub\n      0x1f\n      and\n      dup3\n      add\n      swap2\n    tag_96:\n      pop\n      pop\n      pop\n      pop\n      pop\n      swap1\n      dup1\n      0x01\n      add\n      sload\n      swap1\n      pop\n      dup3\n      jump\t// out\n        /* \"contracts/qlds/CandidateManager.sol\":882:1214  function vote(string memory _name) public {... */\n    tag_52:\n        /* \"contracts/qlds/CandidateManager.sol\":943:965  isCandidateExit(_name) */\n      tag_100\n        /* \"contracts/qlds/CandidateManager.sol\":959:964  _name */\n      dup2\n        /* \"contracts/qlds/CandidateManager.sol\":943:958  isCandidateExit */\n      tag_32\n        /* \"contracts/qlds/CandidateManager.sol\":943:965  isCandidateExit(_name) */\n      jump\t// in\n    tag_100:\n        /* \"contracts/qlds/CandidateManager.sol\":935:994  require(isCandidateExit(_name), \"Candidate does not exist\") */\n      tag_101\n      jumpi\n      mload(0x40)\n      0x08c379a000000000000000000000000000000000000000000000000000000000\n      dup2\n      mstore\n      0x04\n      add\n      tag_102\n      swap1\n      tag_86\n      jump\t// in\n    tag_102:\n      mload(0x40)\n      dup1\n      swap2\n      sub\n      swap1\n      revert\n    tag_101:\n        /* \"contracts/qlds/CandidateManager.sol\":1005:1015  candidates */\n      0x00\n        /* \"contracts/qlds/CandidateManager.sol\":1016:1021  _name */\n      dup2\n        /* \"contracts/qlds/CandidateManager.sol\":1005:1022  candidates[_name] */\n      mload(0x40)\n      tag_103\n      swap2\n      swap1\n      tag_59\n      jump\t// in\n    tag_103:\n      swap1\n      dup2\n      mstore\n      0x20\n      add\n      mload(0x40)\n      dup1\n      swap2\n      sub\n      swap1\n      keccak256\n        /* \"contracts/qlds/CandidateManager.sol\":1005:1032  candidates[_name].voteCount */\n      0x01\n      add\n      0x00\n        /* \"contracts/qlds/CandidateManager.sol\":1005:1034  candidates[_name].voteCount++ */\n      dup2\n      sload\n      dup1\n      swap3\n      swap2\n      swap1\n      tag_104\n      swap1\n      tag_105\n      jump\t// in\n    tag_104:\n      swap2\n      swap1\n      pop\n      sstore\n      pop\n        /* \"contracts/qlds/CandidateManager.sol\":1045:1055  totalVotes */\n      0x01\n      0x00\n        /* \"contracts/qlds/CandidateManager.sol\":1045:1057  totalVotes++ */\n      dup2\n      dup2\n      swap1\n      sload\n      swap1\n      0x0100\n      exp\n      swap1\n      div\n      0xff\n      and\n      dup1\n      swap3\n      swap2\n      swap1\n      tag_106\n      swap1\n      tag_107\n      jump\t// in\n    tag_106:\n      swap2\n      swap1\n      0x0100\n      exp\n      dup2\n      sload\n      dup2\n      0xff\n      mul\n      not\n      and\n      swap1\n      dup4\n      0xff\n      and\n      mul\n      or\n      swap1\n      sstore\n      pop\n      pop\n        /* \"contracts/qlds/CandidateManager.sol\":1102:1110  maxValue */\n      sload(0x02)\n        /* \"contracts/qlds/CandidateManager.sol\":1072:1082  candidates */\n      0x00\n        /* \"contracts/qlds/CandidateManager.sol\":1083:1088  _name */\n      dup3\n        /* \"contracts/qlds/CandidateManager.sol\":1072:1089  candidates[_name] */\n      mload(0x40)\n      tag_108\n      swap2\n      swap1\n      tag_59\n      jump\t// in\n    tag_108:\n      swap1\n      dup2\n      mstore\n      0x20\n      add\n      mload(0x40)\n      dup1\n      swap2\n      sub\n      swap1\n      keccak256\n        /* \"contracts/qlds/CandidateManager.sol\":1072:1099  candidates[_name].voteCount */\n      0x01\n      add\n      sload\n        /* \"contracts/qlds/CandidateManager.sol\":1072:1110  candidates[_name].voteCount > maxValue */\n      gt\n        /* \"contracts/qlds/CandidateManager.sol\":1068:1207  if (candidates[_name].voteCount > maxValue) {... */\n      iszero\n      tag_109\n      jumpi\n        /* \"contracts/qlds/CandidateManager.sol\":1138:1148  candidates */\n      0x00\n        /* \"contracts/qlds/CandidateManager.sol\":1149:1154  _name */\n      dup2\n        /* \"contracts/qlds/CandidateManager.sol\":1138:1155  candidates[_name] */\n      mload(0x40)\n      tag_110\n      swap2\n      swap1\n      tag_59\n      jump\t// in\n    tag_110:\n      swap1\n      dup2\n      mstore\n      0x20\n      add\n      mload(0x40)\n      dup1\n      swap2\n      sub\n      swap1\n      keccak256\n        /* \"contracts/qlds/CandidateManager.sol\":1138:1165  candidates[_name].voteCount */\n      0x01\n      add\n      sload\n        /* \"contracts/qlds/CandidateManager.sol\":1127:1135  maxValue */\n      0x02\n        /* \"contracts/qlds/CandidateManager.sol\":1127:1165  maxValue = candidates[_name].voteCount */\n      dup2\n      swap1\n      sstore\n      pop\n        /* \"contracts/qlds/CandidateManager.sol\":1190:1195  _name */\n      dup1\n        /* \"contracts/qlds/CandidateManager.sol\":1180:1187  nameTop */\n      0x03\n        /* \"contracts/qlds/CandidateManager.sol\":1180:1195  nameTop = _name */\n      swap1\n      dup2\n      tag_111\n      swap2\n      swap1\n      tag_61\n      jump\t// in\n    tag_111:\n      pop\n        /* \"contracts/qlds/CandidateManager.sol\":1068:1207  if (candidates[_name].voteCount > maxValue) {... */\n    tag_109:\n        /* \"contracts/qlds/CandidateManager.sol\":882:1214  function vote(string memory _name) public {... */\n      pop\n      jump\t// out\n        /* \"#utility.yul\":7:93   */\n    tag_112:\n        /* \"#utility.yul\":42:49   */\n      0x00\n        /* \"#utility.yul\":82:86   */\n      0xff\n        /* \"#utility.yul\":75:80   */\n      dup3\n        /* \"#utility.yul\":71:87   */\n      and\n        /* \"#utility.yul\":60:87   */\n      swap1\n      pop\n        /* \"#utility.yul\":7:93   */\n      swap2\n      swap1\n      pop\n      jump\t// out\n        /* \"#utility.yul\":99:211   */\n    tag_113:\n        /* \"#utility.yul\":182:204   */\n      tag_163\n        /* \"#utility.yul\":198:203   */\n      dup2\n        /* \"#utility.yul\":182:204   */\n      tag_112\n      jump\t// in\n    tag_163:\n        /* \"#utility.yul\":177:180   */\n      dup3\n        /* \"#utility.yul\":170:205   */\n      mstore\n        /* \"#utility.yul\":99:211   */\n      pop\n      pop\n      jump\t// out\n        /* \"#utility.yul\":217:431   */\n    tag_17:\n        /* \"#utility.yul\":306:310   */\n      0x00\n        /* \"#utility.yul\":344:346   */\n      0x20\n        /* \"#utility.yul\":333:342   */\n      dup3\n        /* \"#utility.yul\":329:347   */\n      add\n        /* \"#utility.yul\":321:347   */\n      swap1\n      pop\n        /* \"#utility.yul\":357:424   */\n      tag_165\n        /* \"#utility.yul\":421:422   */\n      0x00\n        /* \"#utility.yul\":410:419   */\n      dup4\n        /* \"#utility.yul\":406:423   */\n      add\n        /* \"#utility.yul\":397:403   */\n      dup5\n        /* \"#utility.yul\":357:424   */\n      tag_113\n      jump\t// in\n    tag_165:\n        /* \"#utility.yul\":217:431   */\n      swap3\n      swap2\n      pop\n      pop\n      jump\t// out\n        /* \"#utility.yul\":437:512   */\n    tag_114:\n        /* \"#utility.yul\":470:476   */\n      0x00\n        /* \"#utility.yul\":503:505   */\n      0x40\n        /* \"#utility.yul\":497:506   */\n      mload\n        /* \"#utility.yul\":487:506   */\n      swap1\n      pop\n        /* \"#utility.yul\":437:512   */\n      swap1\n      jump\t// out\n        /* \"#utility.yul\":518:635   */\n    tag_115:\n        /* \"#utility.yul\":627:628   */\n      0x00\n        /* \"#utility.yul\":624:625   */\n      0x00\n        /* \"#utility.yul\":617:629   */\n      revert\n        /* \"#utility.yul\":641:758   */\n    tag_116:\n        /* \"#utility.yul\":750:751   */\n      0x00\n        /* \"#utility.yul\":747:748   */\n      0x00\n        /* \"#utility.yul\":740:752   */\n      revert\n        /* \"#utility.yul\":764:881   */\n    tag_117:\n        /* \"#utility.yul\":873:874   */\n      0x00\n        /* \"#utility.yul\":870:871   */\n      0x00\n        /* \"#utility.yul\":863:875   */\n      revert\n        /* \"#utility.yul\":887:1004   */\n    tag_118:\n        /* \"#utility.yul\":996:997   */\n      0x00\n        /* \"#utility.yul\":993:994   */\n      0x00\n        /* \"#utility.yul\":986:998   */\n      revert\n        /* \"#utility.yul\":1010:1112   */\n    tag_119:\n        /* \"#utility.yul\":1051:1057   */\n      0x00\n        /* \"#utility.yul\":1102:1104   */\n      0x1f\n        /* \"#utility.yul\":1098:1105   */\n      not\n        /* \"#utility.yul\":1093:1095   */\n      0x1f\n        /* \"#utility.yul\":1086:1091   */\n      dup4\n        /* \"#utility.yul\":1082:1096   */\n      add\n        /* \"#utility.yul\":1078:1106   */\n      and\n        /* \"#utility.yul\":1068:1106   */\n      swap1\n      pop\n        /* \"#utility.yul\":1010:1112   */\n      swap2\n      swap1\n      pop\n      jump\t// out\n        /* \"#utility.yul\":1118:1298   */\n    tag_120:\n        /* \"#utility.yul\":1166:1243   */\n      0x4e487b7100000000000000000000000000000000000000000000000000000000\n        /* \"#utility.yul\":1163:1164   */\n      0x00\n        /* \"#utility.yul\":1156:1244   */\n      mstore\n        /* \"#utility.yul\":1263:1267   */\n      0x41\n        /* \"#utility.yul\":1260:1261   */\n      0x04\n        /* \"#utility.yul\":1253:1268   */\n      mstore\n        /* \"#utility.yul\":1287:1291   */\n      0x24\n        /* \"#utility.yul\":1284:1285   */\n      0x00\n        /* \"#utility.yul\":1277:1292   */\n      revert\n        /* \"#utility.yul\":1304:1585   */\n    tag_121:\n        /* \"#utility.yul\":1387:1414   */\n      tag_174\n        /* \"#utility.yul\":1409:1413   */\n      dup3\n        /* \"#utility.yul\":1387:1414   */\n      tag_119\n      jump\t// in\n    tag_174:\n        /* \"#utility.yul\":1379:1385   */\n      dup2\n        /* \"#utility.yul\":1375:1415   */\n      add\n        /* \"#utility.yul\":1517:1523   */\n      dup2\n        /* \"#utility.yul\":1505:1515   */\n      dup2\n        /* \"#utility.yul\":1502:1524   */\n      lt\n        /* \"#utility.yul\":1481:1499   */\n      0xffffffffffffffff\n        /* \"#utility.yul\":1469:1479   */\n      dup3\n        /* \"#utility.yul\":1466:1500   */\n      gt\n        /* \"#utility.yul\":1463:1525   */\n      or\n        /* \"#utility.yul\":1460:1548   */\n      iszero\n      tag_175\n      jumpi\n        /* \"#utility.yul\":1528:1546   */\n      tag_176\n      tag_120\n      jump\t// in\n    tag_176:\n        /* \"#utility.yul\":1460:1548   */\n    tag_175:\n        /* \"#utility.yul\":1568:1578   */\n      dup1\n        /* \"#utility.yul\":1564:1566   */\n      0x40\n        /* \"#utility.yul\":1557:1579   */\n      mstore\n        /* \"#utility.yul\":1347:1585   */\n      pop\n        /* \"#utility.yul\":1304:1585   */\n      pop\n      pop\n      jump\t// out\n        /* \"#utility.yul\":1591:1720   */\n    tag_122:\n        /* \"#utility.yul\":1625:1631   */\n      0x00\n        /* \"#utility.yul\":1652:1672   */\n      tag_178\n      tag_114\n      jump\t// in\n    tag_178:\n        /* \"#utility.yul\":1642:1672   */\n      swap1\n      pop\n        /* \"#utility.yul\":1681:1714   */\n      tag_179\n        /* \"#utility.yul\":1709:1713   */\n      dup3\n        /* \"#utility.yul\":1701:1707   */\n      dup3\n        /* \"#utility.yul\":1681:1714   */\n      tag_121\n      jump\t// in\n    tag_179:\n        /* \"#utility.yul\":1591:1720   */\n      swap2\n      swap1\n      pop\n      jump\t// out\n        /* \"#utility.yul\":1726:2034   */\n    tag_123:\n        /* \"#utility.yul\":1788:1792   */\n      0x00\n        /* \"#utility.yul\":1878:1896   */\n      0xffffffffffffffff\n        /* \"#utility.yul\":1870:1876   */\n      dup3\n        /* \"#utility.yul\":1867:1897   */\n      gt\n        /* \"#utility.yul\":1864:1920   */\n      iszero\n      tag_181\n      jumpi\n        /* \"#utility.yul\":1900:1918   */\n      tag_182\n      tag_120\n      jump\t// in\n    tag_182:\n        /* \"#utility.yul\":1864:1920   */\n    tag_181:\n        /* \"#utility.yul\":1938:1967   */\n      tag_183\n        /* \"#utility.yul\":1960:1966   */\n      dup3\n        /* \"#utility.yul\":1938:1967   */\n      tag_119\n      jump\t// in\n    tag_183:\n        /* \"#utility.yul\":1930:1967   */\n      swap1\n      pop\n        /* \"#utility.yul\":2022:2026   */\n      0x20\n        /* \"#utility.yul\":2016:2020   */\n      dup2\n        /* \"#utility.yul\":2012:2027   */\n      add\n        /* \"#utility.yul\":2004:2027   */\n      swap1\n      pop\n        /* \"#utility.yul\":1726:2034   */\n      swap2\n      swap1\n      pop\n      jump\t// out\n        /* \"#utility.yul\":2040:2188   */\n    tag_124:\n        /* \"#utility.yul\":2138:2144   */\n      dup3\n        /* \"#utility.yul\":2133:2136   */\n      dup2\n        /* \"#utility.yul\":2128:2131   */\n      dup4\n        /* \"#utility.yul\":2115:2145   */\n      calldatacopy\n        /* \"#utility.yul\":2179:2180   */\n      0x00\n        /* \"#utility.yul\":2170:2176   */\n      dup4\n        /* \"#utility.yul\":2165:2168   */\n      dup4\n        /* \"#utility.yul\":2161:2177   */\n      add\n        /* \"#utility.yul\":2154:2181   */\n      mstore\n        /* \"#utility.yul\":2040:2188   */\n      pop\n      pop\n      pop\n      jump\t// out\n        /* \"#utility.yul\":2194:2619   */\n    tag_125:\n        /* \"#utility.yul\":2272:2277   */\n      0x00\n        /* \"#utility.yul\":2297:2363   */\n      tag_186\n        /* \"#utility.yul\":2313:2362   */\n      tag_187\n        /* \"#utility.yul\":2355:2361   */\n      dup5\n        /* \"#utility.yul\":2313:2362   */\n      tag_123\n      jump\t// in\n    tag_187:\n        /* \"#utility.yul\":2297:2363   */\n      tag_122\n      jump\t// in\n    tag_186:\n        /* \"#utility.yul\":2288:2363   */\n      swap1\n      pop\n        /* \"#utility.yul\":2386:2392   */\n      dup3\n        /* \"#utility.yul\":2379:2384   */\n      dup2\n        /* \"#utility.yul\":2372:2393   */\n      mstore\n        /* \"#utility.yul\":2424:2428   */\n      0x20\n        /* \"#utility.yul\":2417:2422   */\n      dup2\n        /* \"#utility.yul\":2413:2429   */\n      add\n        /* \"#utility.yul\":2462:2465   */\n      dup5\n        /* \"#utility.yul\":2453:2459   */\n      dup5\n        /* \"#utility.yul\":2448:2451   */\n      dup5\n        /* \"#utility.yul\":2444:2460   */\n      add\n        /* \"#utility.yul\":2441:2466   */\n      gt\n        /* \"#utility.yul\":2438:2550   */\n      iszero\n      tag_188\n      jumpi\n        /* \"#utility.yul\":2469:2548   */\n      tag_189\n      tag_118\n      jump\t// in\n    tag_189:\n        /* \"#utility.yul\":2438:2550   */\n    tag_188:\n        /* \"#utility.yul\":2559:2613   */\n      tag_190\n        /* \"#utility.yul\":2606:2612   */\n      dup5\n        /* \"#utility.yul\":2601:2604   */\n      dup3\n        /* \"#utility.yul\":2596:2599   */\n      dup6\n        /* \"#utility.yul\":2559:2613   */\n      tag_124\n      jump\t// in\n    tag_190:\n        /* \"#utility.yul\":2278:2619   */\n      pop\n        /* \"#utility.yul\":2194:2619   */\n      swap4\n      swap3\n      pop\n      pop\n      pop\n      jump\t// out\n        /* \"#utility.yul\":2639:2979   */\n    tag_126:\n        /* \"#utility.yul\":2695:2700   */\n      0x00\n        /* \"#utility.yul\":2744:2747   */\n      dup3\n        /* \"#utility.yul\":2737:2741   */\n      0x1f\n        /* \"#utility.yul\":2729:2735   */\n      dup4\n        /* \"#utility.yul\":2725:2742   */\n      add\n        /* \"#utility.yul\":2721:2748   */\n      slt\n        /* \"#utility.yul\":2711:2833   */\n      tag_192\n      jumpi\n        /* \"#utility.yul\":2752:2831   */\n      tag_193\n      tag_117\n      jump\t// in\n    tag_193:\n        /* \"#utility.yul\":2711:2833   */\n    tag_192:\n        /* \"#utility.yul\":2869:2875   */\n      dup2\n        /* \"#utility.yul\":2856:2876   */\n      calldataload\n        /* \"#utility.yul\":2894:2973   */\n      tag_194\n        /* \"#utility.yul\":2969:2972   */\n      dup5\n        /* \"#utility.yul\":2961:2967   */\n      dup3\n        /* \"#utility.yul\":2954:2958   */\n      0x20\n        /* \"#utility.yul\":2946:2952   */\n      dup7\n        /* \"#utility.yul\":2942:2959   */\n      add\n        /* \"#utility.yul\":2894:2973   */\n      tag_125\n      jump\t// in\n    tag_194:\n        /* \"#utility.yul\":2885:2973   */\n      swap2\n      pop\n        /* \"#utility.yul\":2701:2979   */\n      pop\n        /* \"#utility.yul\":2639:2979   */\n      swap3\n      swap2\n      pop\n      pop\n      jump\t// out\n        /* \"#utility.yul\":2985:3494   */\n    tag_20:\n        /* \"#utility.yul\":3054:3060   */\n      0x00\n        /* \"#utility.yul\":3103:3105   */\n      0x20\n        /* \"#utility.yul\":3091:3100   */\n      dup3\n        /* \"#utility.yul\":3082:3089   */\n      dup5\n        /* \"#utility.yul\":3078:3101   */\n      sub\n        /* \"#utility.yul\":3074:3106   */\n      slt\n        /* \"#utility.yul\":3071:3190   */\n      iszero\n      tag_196\n      jumpi\n        /* \"#utility.yul\":3109:3188   */\n      tag_197\n      tag_115\n      jump\t// in\n    tag_197:\n        /* \"#utility.yul\":3071:3190   */\n    tag_196:\n        /* \"#utility.yul\":3257:3258   */\n      0x00\n        /* \"#utility.yul\":3246:3255   */\n      dup3\n        /* \"#utility.yul\":3242:3259   */\n      add\n        /* \"#utility.yul\":3229:3260   */\n      calldataload\n        /* \"#utility.yul\":3287:3305   */\n      0xffffffffffffffff\n        /* \"#utility.yul\":3279:3285   */\n      dup2\n        /* \"#utility.yul\":3276:3306   */\n      gt\n        /* \"#utility.yul\":3273:3390   */\n      iszero\n      tag_198\n      jumpi\n        /* \"#utility.yul\":3309:3388   */\n      tag_199\n      tag_116\n      jump\t// in\n    tag_199:\n        /* \"#utility.yul\":3273:3390   */\n    tag_198:\n        /* \"#utility.yul\":3414:3477   */\n      tag_200\n        /* \"#utility.yul\":3469:3476   */\n      dup5\n        /* \"#utility.yul\":3460:3466   */\n      dup3\n        /* \"#utility.yul\":3449:3458   */\n      dup6\n        /* \"#utility.yul\":3445:3467   */\n      add\n        /* \"#utility.yul\":3414:3477   */\n      tag_126\n      jump\t// in\n    tag_200:\n        /* \"#utility.yul\":3404:3477   */\n      swap2\n      pop\n        /* \"#utility.yul\":3200:3487   */\n      pop\n        /* \"#utility.yul\":2985:3494   */\n      swap3\n      swap2\n      pop\n      pop\n      jump\t// out\n        /* \"#utility.yul\":3500:3599   */\n    tag_127:\n        /* \"#utility.yul\":3552:3558   */\n      0x00\n        /* \"#utility.yul\":3586:3591   */\n      dup2\n        /* \"#utility.yul\":3580:3592   */\n      mload\n        /* \"#utility.yul\":3570:3592   */\n      swap1\n      pop\n        /* \"#utility.yul\":3500:3599   */\n      swap2\n      swap1\n      pop\n      jump\t// out\n        /* \"#utility.yul\":3605:3774   */\n    tag_128:\n        /* \"#utility.yul\":3689:3700   */\n      0x00\n        /* \"#utility.yul\":3723:3729   */\n      dup3\n        /* \"#utility.yul\":3718:3721   */\n      dup3\n        /* \"#utility.yul\":3711:3730   */\n      mstore\n        /* \"#utility.yul\":3763:3767   */\n      0x20\n        /* \"#utility.yul\":3758:3761   */\n      dup3\n        /* \"#utility.yul\":3754:3768   */\n      add\n        /* \"#utility.yul\":3739:3768   */\n      swap1\n      pop\n        /* \"#utility.yul\":3605:3774   */\n      swap3\n      swap2\n      pop\n      pop\n      jump\t// out\n        /* \"#utility.yul\":3780:3919   */\n    tag_129:\n        /* \"#utility.yul\":3869:3875   */\n      dup3\n        /* \"#utility.yul\":3864:3867   */\n      dup2\n        /* \"#utility.yul\":3859:3862   */\n      dup4\n        /* \"#utility.yul\":3853:3876   */\n      mcopy\n        /* \"#utility.yul\":3910:3911   */\n      0x00\n        /* \"#utility.yul\":3901:3907   */\n      dup4\n        /* \"#utility.yul\":3896:3899   */\n      dup4\n        /* \"#utility.yul\":3892:3908   */\n      add\n        /* \"#utility.yul\":3885:3912   */\n      mstore\n        /* \"#utility.yul\":3780:3919   */\n      pop\n      pop\n      pop\n      jump\t// out\n        /* \"#utility.yul\":3925:4302   */\n    tag_130:\n        /* \"#utility.yul\":4013:4016   */\n      0x00\n        /* \"#utility.yul\":4041:4080   */\n      tag_205\n        /* \"#utility.yul\":4074:4079   */\n      dup3\n        /* \"#utility.yul\":4041:4080   */\n      tag_127\n      jump\t// in\n    tag_205:\n        /* \"#utility.yul\":4096:4167   */\n      tag_206\n        /* \"#utility.yul\":4160:4166   */\n      dup2\n        /* \"#utility.yul\":4155:4158   */\n      dup6\n        /* \"#utility.yul\":4096:4167   */\n      tag_128\n      jump\t// in\n    tag_206:\n        /* \"#utility.yul\":4089:4167   */\n      swap4\n      pop\n        /* \"#utility.yul\":4176:4241   */\n      tag_207\n        /* \"#utility.yul\":4234:4240   */\n      dup2\n        /* \"#utility.yul\":4229:4232   */\n      dup6\n        /* \"#utility.yul\":4222:4226   */\n      0x20\n        /* \"#utility.yul\":4215:4220   */\n      dup7\n        /* \"#utility.yul\":4211:4227   */\n      add\n        /* \"#utility.yul\":4176:4241   */\n      tag_129\n      jump\t// in\n    tag_207:\n        /* \"#utility.yul\":4266:4295   */\n      tag_208\n        /* \"#utility.yul\":4288:4294   */\n      dup2\n        /* \"#utility.yul\":4266:4295   */\n      tag_119\n      jump\t// in\n    tag_208:\n        /* \"#utility.yul\":4261:4264   */\n      dup5\n        /* \"#utility.yul\":4257:4296   */\n      add\n        /* \"#utility.yul\":4250:4296   */\n      swap2\n      pop\n        /* \"#utility.yul\":4017:4302   */\n      pop\n        /* \"#utility.yul\":3925:4302   */\n      swap3\n      swap2\n      pop\n      pop\n      jump\t// out\n        /* \"#utility.yul\":4308:4621   */\n    tag_25:\n        /* \"#utility.yul\":4421:4425   */\n      0x00\n        /* \"#utility.yul\":4459:4461   */\n      0x20\n        /* \"#utility.yul\":4448:4457   */\n      dup3\n        /* \"#utility.yul\":4444:4462   */\n      add\n        /* \"#utility.yul\":4436:4462   */\n      swap1\n      pop\n        /* \"#utility.yul\":4508:4517   */\n      dup2\n        /* \"#utility.yul\":4502:4506   */\n      dup2\n        /* \"#utility.yul\":4498:4518   */\n      sub\n        /* \"#utility.yul\":4494:4495   */\n      0x00\n        /* \"#utility.yul\":4483:4492   */\n      dup4\n        /* \"#utility.yul\":4479:4496   */\n      add\n        /* \"#utility.yul\":4472:4519   */\n      mstore\n        /* \"#utility.yul\":4536:4614   */\n      tag_210\n        /* \"#utility.yul\":4609:4613   */\n      dup2\n        /* \"#utility.yul\":4600:4606   */\n      dup5\n        /* \"#utility.yul\":4536:4614   */\n      tag_130\n      jump\t// in\n    tag_210:\n        /* \"#utility.yul\":4528:4614   */\n      swap1\n      pop\n        /* \"#utility.yul\":4308:4621   */\n      swap3\n      swap2\n      pop\n      pop\n      jump\t// out\n        /* \"#utility.yul\":4627:4704   */\n    tag_131:\n        /* \"#utility.yul\":4664:4671   */\n      0x00\n        /* \"#utility.yul\":4693:4698   */\n      dup2\n        /* \"#utility.yul\":4682:4698   */\n      swap1\n      pop\n        /* \"#utility.yul\":4627:4704   */\n      swap2\n      swap1\n      pop\n      jump\t// out\n        /* \"#utility.yul\":4710:4828   */\n    tag_132:\n        /* \"#utility.yul\":4797:4821   */\n      tag_213\n        /* \"#utility.yul\":4815:4820   */\n      dup2\n        /* \"#utility.yul\":4797:4821   */\n      tag_131\n      jump\t// in\n    tag_213:\n        /* \"#utility.yul\":4792:4795   */\n      dup3\n        /* \"#utility.yul\":4785:4822   */\n      mstore\n        /* \"#utility.yul\":4710:4828   */\n      pop\n      pop\n      jump\t// out\n        /* \"#utility.yul\":4834:5257   */\n    tag_29:\n        /* \"#utility.yul\":4975:4979   */\n      0x00\n        /* \"#utility.yul\":5013:5015   */\n      0x40\n        /* \"#utility.yul\":5002:5011   */\n      dup3\n        /* \"#utility.yul\":4998:5016   */\n      add\n        /* \"#utility.yul\":4990:5016   */\n      swap1\n      pop\n        /* \"#utility.yul\":5062:5071   */\n      dup2\n        /* \"#utility.yul\":5056:5060   */\n      dup2\n        /* \"#utility.yul\":5052:5072   */\n      sub\n        /* \"#utility.yul\":5048:5049   */\n      0x00\n        /* \"#utility.yul\":5037:5046   */\n      dup4\n        /* \"#utility.yul\":5033:5050   */\n      add\n        /* \"#utility.yul\":5026:5073   */\n      mstore\n        /* \"#utility.yul\":5090:5168   */\n      tag_215\n        /* \"#utility.yul\":5163:5167   */\n      dup2\n        /* \"#utility.yul\":5154:5160   */\n      dup6\n        /* \"#utility.yul\":5090:5168   */\n      tag_130\n      jump\t// in\n    tag_215:\n        /* \"#utility.yul\":5082:5168   */\n      swap1\n      pop\n        /* \"#utility.yul\":5178:5250   */\n      tag_216\n        /* \"#utility.yul\":5246:5248   */\n      0x20\n        /* \"#utility.yul\":5235:5244   */\n      dup4\n        /* \"#utility.yul\":5231:5249   */\n      add\n        /* \"#utility.yul\":5222:5228   */\n      dup5\n        /* \"#utility.yul\":5178:5250   */\n      tag_132\n      jump\t// in\n    tag_216:\n        /* \"#utility.yul\":4834:5257   */\n      swap4\n      swap3\n      pop\n      pop\n      pop\n      jump\t// out\n        /* \"#utility.yul\":5263:5353   */\n    tag_133:\n        /* \"#utility.yul\":5297:5304   */\n      0x00\n        /* \"#utility.yul\":5340:5345   */\n      dup2\n        /* \"#utility.yul\":5333:5346   */\n      iszero\n        /* \"#utility.yul\":5326:5347   */\n      iszero\n        /* \"#utility.yul\":5315:5347   */\n      swap1\n      pop\n        /* \"#utility.yul\":5263:5353   */\n      swap2\n      swap1\n      pop\n      jump\t// out\n        /* \"#utility.yul\":5359:5468   */\n    tag_134:\n        /* \"#utility.yul\":5440:5461   */\n      tag_219\n        /* \"#utility.yul\":5455:5460   */\n      dup2\n        /* \"#utility.yul\":5440:5461   */\n      tag_133\n      jump\t// in\n    tag_219:\n        /* \"#utility.yul\":5435:5438   */\n      dup3\n        /* \"#utility.yul\":5428:5462   */\n      mstore\n        /* \"#utility.yul\":5359:5468   */\n      pop\n      pop\n      jump\t// out\n        /* \"#utility.yul\":5474:5684   */\n    tag_34:\n        /* \"#utility.yul\":5561:5565   */\n      0x00\n        /* \"#utility.yul\":5599:5601   */\n      0x20\n        /* \"#utility.yul\":5588:5597   */\n      dup3\n        /* \"#utility.yul\":5584:5602   */\n      add\n        /* \"#utility.yul\":5576:5602   */\n      swap1\n      pop\n        /* \"#utility.yul\":5612:5677   */\n      tag_221\n        /* \"#utility.yul\":5674:5675   */\n      0x00\n        /* \"#utility.yul\":5663:5672   */\n      dup4\n        /* \"#utility.yul\":5659:5676   */\n      add\n        /* \"#utility.yul\":5650:5656   */\n      dup5\n        /* \"#utility.yul\":5612:5677   */\n      tag_134\n      jump\t// in\n    tag_221:\n        /* \"#utility.yul\":5474:5684   */\n      swap3\n      swap2\n      pop\n      pop\n      jump\t// out\n        /* \"#utility.yul\":5690:5912   */\n    tag_38:\n        /* \"#utility.yul\":5783:5787   */\n      0x00\n        /* \"#utility.yul\":5821:5823   */\n      0x20\n        /* \"#utility.yul\":5810:5819   */\n      dup3\n        /* \"#utility.yul\":5806:5824   */\n      add\n        /* \"#utility.yul\":5798:5824   */\n      swap1\n      pop\n        /* \"#utility.yul\":5834:5905   */\n      tag_223\n        /* \"#utility.yul\":5902:5903   */\n      0x00\n        /* \"#utility.yul\":5891:5900   */\n      dup4\n        /* \"#utility.yul\":5887:5904   */\n      add\n        /* \"#utility.yul\":5878:5884   */\n      dup5\n        /* \"#utility.yul\":5834:5905   */\n      tag_132\n      jump\t// in\n    tag_223:\n        /* \"#utility.yul\":5690:5912   */\n      swap3\n      swap2\n      pop\n      pop\n      jump\t// out\n        /* \"#utility.yul\":5918:6092   */\n    tag_135:\n        /* \"#utility.yul\":6058:6084   */\n      0x43616e64696461746520616c7265616479206578697374730000000000000000\n        /* \"#utility.yul\":6054:6055   */\n      0x00\n        /* \"#utility.yul\":6046:6052   */\n      dup3\n        /* \"#utility.yul\":6042:6056   */\n      add\n        /* \"#utility.yul\":6035:6085   */\n      mstore\n        /* \"#utility.yul\":5918:6092   */\n      pop\n      jump\t// out\n        /* \"#utility.yul\":6098:6464   */\n    tag_136:\n        /* \"#utility.yul\":6240:6243   */\n      0x00\n        /* \"#utility.yul\":6261:6328   */\n      tag_226\n        /* \"#utility.yul\":6325:6327   */\n      0x18\n        /* \"#utility.yul\":6320:6323   */\n      dup4\n        /* \"#utility.yul\":6261:6328   */\n      tag_128\n      jump\t// in\n    tag_226:\n        /* \"#utility.yul\":6254:6328   */\n      swap2\n      pop\n        /* \"#utility.yul\":6337:6430   */\n      tag_227\n        /* \"#utility.yul\":6426:6429   */\n      dup3\n        /* \"#utility.yul\":6337:6430   */\n      tag_135\n      jump\t// in\n    tag_227:\n        /* \"#utility.yul\":6455:6457   */\n      0x20\n        /* \"#utility.yul\":6450:6453   */\n      dup3\n        /* \"#utility.yul\":6446:6458   */\n      add\n        /* \"#utility.yul\":6439:6458   */\n      swap1\n      pop\n        /* \"#utility.yul\":6098:6464   */\n      swap2\n      swap1\n      pop\n      jump\t// out\n        /* \"#utility.yul\":6470:6889   */\n    tag_57:\n        /* \"#utility.yul\":6636:6640   */\n      0x00\n        /* \"#utility.yul\":6674:6676   */\n      0x20\n        /* \"#utility.yul\":6663:6672   */\n      dup3\n        /* \"#utility.yul\":6659:6677   */\n      add\n        /* \"#utility.yul\":6651:6677   */\n      swap1\n      pop\n        /* \"#utility.yul\":6723:6732   */\n      dup2\n        /* \"#utility.yul\":6717:6721   */\n      dup2\n        /* \"#utility.yul\":6713:6733   */\n      sub\n        /* \"#utility.yul\":6709:6710   */\n      0x00\n        /* \"#utility.yul\":6698:6707   */\n      dup4\n        /* \"#utility.yul\":6694:6711   */\n      add\n        /* \"#utility.yul\":6687:6734   */\n      mstore\n        /* \"#utility.yul\":6751:6882   */\n      tag_229\n        /* \"#utility.yul\":6877:6881   */\n      dup2\n        /* \"#utility.yul\":6751:6882   */\n      tag_136\n      jump\t// in\n    tag_229:\n        /* \"#utility.yul\":6743:6882   */\n      swap1\n      pop\n        /* \"#utility.yul\":6470:6889   */\n      swap2\n      swap1\n      pop\n      jump\t// out\n        /* \"#utility.yul\":6895:7043   */\n    tag_137:\n        /* \"#utility.yul\":6997:7008   */\n      0x00\n        /* \"#utility.yul\":7034:7037   */\n      dup2\n        /* \"#utility.yul\":7019:7037   */\n      swap1\n      pop\n        /* \"#utility.yul\":6895:7043   */\n      swap3\n      swap2\n      pop\n      pop\n      jump\t// out\n        /* \"#utility.yul\":7049:7439   */\n    tag_138:\n        /* \"#utility.yul\":7155:7158   */\n      0x00\n        /* \"#utility.yul\":7183:7222   */\n      tag_232\n        /* \"#utility.yul\":7216:7221   */\n      dup3\n        /* \"#utility.yul\":7183:7222   */\n      tag_127\n      jump\t// in\n    tag_232:\n        /* \"#utility.yul\":7238:7327   */\n      tag_233\n        /* \"#utility.yul\":7320:7326   */\n      dup2\n        /* \"#utility.yul\":7315:7318   */\n      dup6\n        /* \"#utility.yul\":7238:7327   */\n      tag_137\n      jump\t// in\n    tag_233:\n        /* \"#utility.yul\":7231:7327   */\n      swap4\n      pop\n        /* \"#utility.yul\":7336:7401   */\n      tag_234\n        /* \"#utility.yul\":7394:7400   */\n      dup2\n        /* \"#utility.yul\":7389:7392   */\n      dup6\n        /* \"#utility.yul\":7382:7386   */\n      0x20\n        /* \"#utility.yul\":7375:7380   */\n      dup7\n        /* \"#utility.yul\":7371:7387   */\n      add\n        /* \"#utility.yul\":7336:7401   */\n      tag_129\n      jump\t// in\n    tag_234:\n        /* \"#utility.yul\":7426:7432   */\n      dup1\n        /* \"#utility.yul\":7421:7424   */\n      dup5\n        /* \"#utility.yul\":7417:7433   */\n      add\n        /* \"#utility.yul\":7410:7433   */\n      swap2\n      pop\n        /* \"#utility.yul\":7159:7439   */\n      pop\n        /* \"#utility.yul\":7049:7439   */\n      swap3\n      swap2\n      pop\n      pop\n      jump\t// out\n        /* \"#utility.yul\":7445:7720   */\n    tag_59:\n        /* \"#utility.yul\":7577:7580   */\n      0x00\n        /* \"#utility.yul\":7599:7694   */\n      tag_236\n        /* \"#utility.yul\":7690:7693   */\n      dup3\n        /* \"#utility.yul\":7681:7687   */\n      dup5\n        /* \"#utility.yul\":7599:7694   */\n      tag_138\n      jump\t// in\n    tag_236:\n        /* \"#utility.yul\":7592:7694   */\n      swap2\n      pop\n        /* \"#utility.yul\":7711:7714   */\n      dup2\n        /* \"#utility.yul\":7704:7714   */\n      swap1\n      pop\n        /* \"#utility.yul\":7445:7720   */\n      swap3\n      swap2\n      pop\n      pop\n      jump\t// out\n        /* \"#utility.yul\":7726:7906   */\n    tag_139:\n        /* \"#utility.yul\":7774:7851   */\n      0x4e487b7100000000000000000000000000000000000000000000000000000000\n        /* \"#utility.yul\":7771:7772   */\n      0x00\n        /* \"#utility.yul\":7764:7852   */\n      mstore\n        /* \"#utility.yul\":7871:7875   */\n      0x22\n        /* \"#utility.yul\":7868:7869   */\n      0x04\n        /* \"#utility.yul\":7861:7876   */\n      mstore\n        /* \"#utility.yul\":7895:7899   */\n      0x24\n        /* \"#utility.yul\":7892:7893   */\n      0x00\n        /* \"#utility.yul\":7885:7900   */\n      revert\n        /* \"#utility.yul\":7912:8232   */\n    tag_63:\n        /* \"#utility.yul\":7956:7962   */\n      0x00\n        /* \"#utility.yul\":7993:7994   */\n      0x02\n        /* \"#utility.yul\":7987:7991   */\n      dup3\n        /* \"#utility.yul\":7983:7995   */\n      div\n        /* \"#utility.yul\":7973:7995   */\n      swap1\n      pop\n        /* \"#utility.yul\":8040:8041   */\n      0x01\n        /* \"#utility.yul\":8034:8038   */\n      dup3\n        /* \"#utility.yul\":8030:8042   */\n      and\n        /* \"#utility.yul\":8061:8079   */\n      dup1\n        /* \"#utility.yul\":8051:8132   */\n      tag_239\n      jumpi\n        /* \"#utility.yul\":8117:8121   */\n      0x7f\n        /* \"#utility.yul\":8109:8115   */\n      dup3\n        /* \"#utility.yul\":8105:8122   */\n      and\n        /* \"#utility.yul\":8095:8122   */\n      swap2\n      pop\n        /* \"#utility.yul\":8051:8132   */\n    tag_239:\n        /* \"#utility.yul\":8179:8181   */\n      0x20\n        /* \"#utility.yul\":8171:8177   */\n      dup3\n        /* \"#utility.yul\":8168:8182   */\n      lt\n        /* \"#utility.yul\":8148:8166   */\n      dup2\n        /* \"#utility.yul\":8145:8183   */\n      sub\n        /* \"#utility.yul\":8142:8226   */\n      tag_240\n      jumpi\n        /* \"#utility.yul\":8198:8216   */\n      tag_241\n      tag_139\n      jump\t// in\n    tag_241:\n        /* \"#utility.yul\":8142:8226   */\n    tag_240:\n        /* \"#utility.yul\":7963:8232   */\n      pop\n        /* \"#utility.yul\":7912:8232   */\n      swap2\n      swap1\n      pop\n      jump\t// out\n        /* \"#utility.yul\":8238:8379   */\n    tag_140:\n        /* \"#utility.yul\":8287:8291   */\n      0x00\n        /* \"#utility.yul\":8310:8313   */\n      dup2\n        /* \"#utility.yul\":8302:8313   */\n      swap1\n      pop\n        /* \"#utility.yul\":8333:8336   */\n      dup2\n        /* \"#utility.yul\":8330:8331   */\n      0x00\n        /* \"#utility.yul\":8323:8337   */\n      mstore\n        /* \"#utility.yul\":8367:8371   */\n      0x20\n        /* \"#utility.yul\":8364:8365   */\n      0x00\n        /* \"#utility.yul\":8354:8372   */\n      keccak256\n        /* \"#utility.yul\":8346:8372   */\n      swap1\n      pop\n        /* \"#utility.yul\":8238:8379   */\n      swap2\n      swap1\n      pop\n      jump\t// out\n        /* \"#utility.yul\":8385:8478   */\n    tag_141:\n        /* \"#utility.yul\":8422:8428   */\n      0x00\n        /* \"#utility.yul\":8469:8471   */\n      0x20\n        /* \"#utility.yul\":8464:8466   */\n      0x1f\n        /* \"#utility.yul\":8457:8462   */\n      dup4\n        /* \"#utility.yul\":8453:8467   */\n      add\n        /* \"#utility.yul\":8449:8472   */\n      div\n        /* \"#utility.yul\":8439:8472   */\n      swap1\n      pop\n        /* \"#utility.yul\":8385:8478   */\n      swap2\n      swap1\n      pop\n      jump\t// out\n        /* \"#utility.yul\":8484:8591   */\n    tag_142:\n        /* \"#utility.yul\":8528:8536   */\n      0x00\n        /* \"#utility.yul\":8578:8583   */\n      dup3\n        /* \"#utility.yul\":8572:8576   */\n      dup3\n        /* \"#utility.yul\":8568:8584   */\n      shl\n        /* \"#utility.yul\":8547:8584   */\n      swap1\n      pop\n        /* \"#utility.yul\":8484:8591   */\n      swap3\n      swap2\n      pop\n      pop\n      jump\t// out\n        /* \"#utility.yul\":8597:8990   */\n    tag_143:\n        /* \"#utility.yul\":8666:8672   */\n      0x00\n        /* \"#utility.yul\":8716:8717   */\n      0x08\n        /* \"#utility.yul\":8704:8714   */\n      dup4\n        /* \"#utility.yul\":8700:8718   */\n      mul\n        /* \"#utility.yul\":8739:8836   */\n      tag_246\n        /* \"#utility.yul\":8769:8835   */\n      0xffffffffffffffffffffffffffffffffffffffffffffffffffffffffffffffff\n        /* \"#utility.yul\":8758:8767   */\n      dup3\n        /* \"#utility.yul\":8739:8836   */\n      tag_142\n      jump\t// in\n    tag_246:\n        /* \"#utility.yul\":8857:8896   */\n      tag_247\n        /* \"#utility.yul\":8887:8895   */\n      dup7\n        /* \"#utility.yul\":8876:8885   */\n      dup4\n        /* \"#utility.yul\":8857:8896   */\n      tag_142\n      jump\t// in\n    tag_247:\n        /* \"#utility.yul\":8845:8896   */\n      swap6\n      pop\n        /* \"#utility.yul\":8929:8933   */\n      dup1\n        /* \"#utility.yul\":8925:8934   */\n      not\n        /* \"#utility.yul\":8918:8923   */\n      dup5\n        /* \"#utility.yul\":8914:8935   */\n      and\n        /* \"#utility.yul\":8905:8935   */\n      swap4\n      pop\n        /* \"#utility.yul\":8978:8982   */\n      dup1\n        /* \"#utility.yul\":8968:8976   */\n      dup7\n        /* \"#utility.yul\":8964:8983   */\n      and\n        /* \"#utility.yul\":8957:8962   */\n      dup5\n        /* \"#utility.yul\":8954:8984   */\n      or\n        /* \"#utility.yul\":8944:8984   */\n      swap3\n      pop\n        /* \"#utility.yul\":8673:8990   */\n      pop\n      pop\n        /* \"#utility.yul\":8597:8990   */\n      swap4\n      swap3\n      pop\n      pop\n      pop\n      jump\t// out\n        /* \"#utility.yul\":8996:9056   */\n    tag_144:\n        /* \"#utility.yul\":9024:9027   */\n      0x00\n        /* \"#utility.yul\":9045:9050   */\n      dup2\n        /* \"#utility.yul\":9038:9050   */\n      swap1\n      pop\n        /* \"#utility.yul\":8996:9056   */\n      swap2\n      swap1\n      pop\n      jump\t// out\n        /* \"#utility.yul\":9062:9204   */\n    tag_145:\n        /* \"#utility.yul\":9112:9121   */\n      0x00\n        /* \"#utility.yul\":9145:9198   */\n      tag_250\n        /* \"#utility.yul\":9163:9197   */\n      tag_251\n        /* \"#utility.yul\":9172:9196   */\n      tag_252\n        /* \"#utility.yul\":9190:9195   */\n      dup5\n        /* \"#utility.yul\":9172:9196   */\n      tag_131\n      jump\t// in\n    tag_252:\n        /* \"#utility.yul\":9163:9197   */\n      tag_144\n      jump\t// in\n    tag_251:\n        /* \"#utility.yul\":9145:9198   */\n      tag_131\n      jump\t// in\n    tag_250:\n        /* \"#utility.yul\":9132:9198   */\n      swap1\n      pop\n        /* \"#utility.yul\":9062:9204   */\n      swap2\n      swap1\n      pop\n      jump\t// out\n        /* \"#utility.yul\":9210:9285   */\n    tag_146:\n        /* \"#utility.yul\":9253:9256   */\n      0x00\n        /* \"#utility.yul\":9274:9279   */\n      dup2\n        /* \"#utility.yul\":9267:9279   */\n      swap1\n      pop\n        /* \"#utility.yul\":9210:9285   */\n      swap2\n      swap1\n      pop\n      jump\t// out\n        /* \"#utility.yul\":9291:9560   */\n    tag_147:\n        /* \"#utility.yul\":9401:9440   */\n      tag_255\n        /* \"#utility.yul\":9432:9439   */\n      dup4\n        /* \"#utility.yul\":9401:9440   */\n      tag_145\n      jump\t// in\n    tag_255:\n        /* \"#utility.yul\":9462:9553   */\n      tag_256\n        /* \"#utility.yul\":9511:9552   */\n      tag_257\n        /* \"#utility.yul\":9535:9551   */\n      dup3\n        /* \"#utility.yul\":9511:9552   */\n      tag_146\n      jump\t// in\n    tag_257:\n        /* \"#utility.yul\":9503:9509   */\n      dup5\n        /* \"#utility.yul\":9496:9500   */\n      dup5\n        /* \"#utility.yul\":9490:9501   */\n      sload\n        /* \"#utility.yul\":9462:9553   */\n      tag_143\n      jump\t// in\n    tag_256:\n        /* \"#utility.yul\":9456:9460   */\n      dup3\n        /* \"#utility.yul\":9449:9554   */\n      sstore\n        /* \"#utility.yul\":9367:9560   */\n      pop\n        /* \"#utility.yul\":9291:9560   */\n      pop\n      pop\n      pop\n      jump\t// out\n        /* \"#utility.yul\":9566:9639   */\n    tag_148:\n        /* \"#utility.yul\":9611:9614   */\n      0x00\n        /* \"#utility.yul\":9632:9633   */\n      0x00\n        /* \"#utility.yul\":9625:9633   */\n      swap1\n      pop\n        /* \"#utility.yul\":9566:9639   */\n      swap1\n      jump\t// out\n        /* \"#utility.yul\":9645:9834   */\n    tag_149:\n        /* \"#utility.yul\":9722:9754   */\n      tag_260\n      tag_148\n      jump\t// in\n    tag_260:\n        /* \"#utility.yul\":9763:9828   */\n      tag_261\n        /* \"#utility.yul\":9821:9827   */\n      dup2\n        /* \"#utility.yul\":9813:9819   */\n      dup5\n        /* \"#utility.yul\":9807:9811   */\n      dup5\n        /* \"#utility.yul\":9763:9828   */\n      tag_147\n      jump\t// in\n    tag_261:\n        /* \"#utility.yul\":9698:9834   */\n      pop\n        /* \"#utility.yul\":9645:9834   */\n      pop\n      pop\n      jump\t// out\n        /* \"#utility.yul\":9840:10026   */\n    tag_150:\n        /* \"#utility.yul\":9900:10020   */\n    tag_263:\n        /* \"#utility.yul\":9917:9920   */\n      dup2\n        /* \"#utility.yul\":9910:9915   */\n      dup2\n        /* \"#utility.yul\":9907:9921   */\n      lt\n        /* \"#utility.yul\":9900:10020   */\n      iszero\n      tag_265\n      jumpi\n        /* \"#utility.yul\":9971:10010   */\n      tag_266\n        /* \"#utility.yul\":10008:10009   */\n      0x00\n        /* \"#utility.yul\":10001:10006   */\n      dup3\n        /* \"#utility.yul\":9971:10010   */\n      tag_149\n      jump\t// in\n    tag_266:\n        /* \"#utility.yul\":9944:9945   */\n      0x01\n        /* \"#utility.yul\":9937:9942   */\n      dup2\n        /* \"#utility.yul\":9933:9946   */\n      add\n        /* \"#utility.yul\":9924:9946   */\n      swap1\n      pop\n        /* \"#utility.yul\":9900:10020   */\n      jump(tag_263)\n    tag_265:\n        /* \"#utility.yul\":9840:10026   */\n      pop\n      pop\n      jump\t// out\n        /* \"#utility.yul\":10032:10575   */\n    tag_151:\n        /* \"#utility.yul\":10133:10135   */\n      0x1f\n        /* \"#utility.yul\":10128:10131   */\n      dup3\n        /* \"#utility.yul\":10125:10136   */\n      gt\n        /* \"#utility.yul\":10122:10568   */\n      iszero\n      tag_268\n      jumpi\n        /* \"#utility.yul\":10167:10205   */\n      tag_269\n        /* \"#utility.yul\":10199:10204   */\n      dup2\n        /* \"#utility.yul\":10167:10205   */\n      tag_140\n      jump\t// in\n    tag_269:\n        /* \"#utility.yul\":10251:10280   */\n      tag_270\n        /* \"#utility.yul\":10269:10279   */\n      dup5\n        /* \"#utility.yul\":10251:10280   */\n      tag_141\n      jump\t// in\n    tag_270:\n        /* \"#utility.yul\":10241:10249   */\n      dup2\n        /* \"#utility.yul\":10237:10281   */\n      add\n        /* \"#utility.yul\":10434:10436   */\n      0x20\n        /* \"#utility.yul\":10422:10432   */\n      dup6\n        /* \"#utility.yul\":10419:10437   */\n      lt\n        /* \"#utility.yul\":10416:10465   */\n      iszero\n      tag_271\n      jumpi\n        /* \"#utility.yul\":10455:10463   */\n      dup2\n        /* \"#utility.yul\":10440:10463   */\n      swap1\n      pop\n        /* \"#utility.yul\":10416:10465   */\n    tag_271:\n        /* \"#utility.yul\":10478:10558   */\n      tag_272\n        /* \"#utility.yul\":10534:10556   */\n      tag_273\n        /* \"#utility.yul\":10552:10555   */\n      dup6\n        /* \"#utility.yul\":10534:10556   */\n      tag_141\n      jump\t// in\n    tag_273:\n        /* \"#utility.yul\":10524:10532   */\n      dup4\n        /* \"#utility.yul\":10520:10557   */\n      add\n        /* \"#utility.yul\":10507:10518   */\n      dup3\n        /* \"#utility.yul\":10478:10558   */\n      tag_150\n      jump\t// in\n    tag_272:\n        /* \"#utility.yul\":10137:10568   */\n      pop\n      pop\n        /* \"#utility.yul\":10122:10568   */\n    tag_268:\n        /* \"#utility.yul\":10032:10575   */\n      pop\n      pop\n      pop\n      jump\t// out\n        /* \"#utility.yul\":10581:10698   */\n    tag_152:\n        /* \"#utility.yul\":10635:10643   */\n      0x00\n        /* \"#utility.yul\":10685:10690   */\n      dup3\n        /* \"#utility.yul\":10679:10683   */\n      dup3\n        /* \"#utility.yul\":10675:10691   */\n      shr\n        /* \"#utility.yul\":10654:10691   */\n      swap1\n      pop\n        /* \"#utility.yul\":10581:10698   */\n      swap3\n      swap2\n      pop\n      pop\n      jump\t// out\n        /* \"#utility.yul\":10704:10873   */\n    tag_153:\n        /* \"#utility.yul\":10748:10754   */\n      0x00\n        /* \"#utility.yul\":10781:10832   */\n      tag_276\n        /* \"#utility.yul\":10829:10830   */\n      0x00\n        /* \"#utility.yul\":10825:10831   */\n      not\n        /* \"#utility.yul\":10817:10822   */\n      dup5\n        /* \"#utility.yul\":10814:10815   */\n      0x08\n        /* \"#utility.yul\":10810:10823   */\n      mul\n        /* \"#utility.yul\":10781:10832   */\n      tag_152\n      jump\t// in\n    tag_276:\n        /* \"#utility.yul\":10777:10833   */\n      not\n        /* \"#utility.yul\":10862:10866   */\n      dup1\n        /* \"#utility.yul\":10856:10860   */\n      dup4\n        /* \"#utility.yul\":10852:10867   */\n      and\n        /* \"#utility.yul\":10842:10867   */\n      swap2\n      pop\n        /* \"#utility.yul\":10755:10873   */\n      pop\n        /* \"#utility.yul\":10704:10873   */\n      swap3\n      swap2\n      pop\n      pop\n      jump\t// out\n        /* \"#utility.yul\":10878:11173   */\n    tag_154:\n        /* \"#utility.yul\":10954:10958   */\n      0x00\n        /* \"#utility.yul\":11100:11129   */\n      tag_278\n        /* \"#utility.yul\":11125:11128   */\n      dup4\n        /* \"#utility.yul\":11119:11123   */\n      dup4\n        /* \"#utility.yul\":11100:11129   */\n      tag_153\n      jump\t// in\n    tag_278:\n        /* \"#utility.yul\":11092:11129   */\n      swap2\n      pop\n        /* \"#utility.yul\":11162:11165   */\n      dup3\n        /* \"#utility.yul\":11159:11160   */\n      0x02\n        /* \"#utility.yul\":11155:11166   */\n      mul\n        /* \"#utility.yul\":11149:11153   */\n      dup3\n        /* \"#utility.yul\":11146:11167   */\n      or\n        /* \"#utility.yul\":11138:11167   */\n      swap1\n      pop\n        /* \"#utility.yul\":10878:11173   */\n      swap3\n      swap2\n      pop\n      pop\n      jump\t// out\n        /* \"#utility.yul\":11178:12573   */\n    tag_61:\n        /* \"#utility.yul\":11295:11332   */\n      tag_280\n        /* \"#utility.yul\":11328:11331   */\n      dup3\n        /* \"#utility.yul\":11295:11332   */\n      tag_127\n      jump\t// in\n    tag_280:\n        /* \"#utility.yul\":11397:11415   */\n      0xffffffffffffffff\n        /* \"#utility.yul\":11389:11395   */\n      dup2\n        /* \"#utility.yul\":11386:11416   */\n      gt\n        /* \"#utility.yul\":11383:11439   */\n      iszero\n      tag_281\n      jumpi\n        /* \"#utility.yul\":11419:11437   */\n      tag_282\n      tag_120\n      jump\t// in\n    tag_282:\n        /* \"#utility.yul\":11383:11439   */\n    tag_281:\n        /* \"#utility.yul\":11463:11501   */\n      tag_283\n        /* \"#utility.yul\":11495:11499   */\n      dup3\n        /* \"#utility.yul\":11489:11500   */\n      sload\n        /* \"#utility.yul\":11463:11501   */\n      tag_63\n      jump\t// in\n    tag_283:\n        /* \"#utility.yul\":11548:11615   */\n      tag_284\n        /* \"#utility.yul\":11608:11614   */\n      dup3\n        /* \"#utility.yul\":11600:11606   */\n      dup3\n        /* \"#utility.yul\":11594:11598   */\n      dup6\n        /* \"#utility.yul\":11548:11615   */\n      tag_151\n      jump\t// in\n    tag_284:\n        /* \"#utility.yul\":11642:11643   */\n      0x00\n        /* \"#utility.yul\":11666:11670   */\n      0x20\n        /* \"#utility.yul\":11653:11670   */\n      swap1\n      pop\n        /* \"#utility.yul\":11698:11700   */\n      0x1f\n        /* \"#utility.yul\":11690:11696   */\n      dup4\n        /* \"#utility.yul\":11687:11701   */\n      gt\n        /* \"#utility.yul\":11715:11716   */\n      0x01\n        /* \"#utility.yul\":11710:12328   */\n      dup2\n      eq\n      tag_286\n      jumpi\n        /* \"#utility.yul\":12372:12373   */\n      0x00\n        /* \"#utility.yul\":12389:12395   */\n      dup5\n        /* \"#utility.yul\":12386:12463   */\n      iszero\n      tag_287\n      jumpi\n        /* \"#utility.yul\":12438:12447   */\n      dup3\n        /* \"#utility.yul\":12433:12436   */\n      dup8\n        /* \"#utility.yul\":12429:12448   */\n      add\n        /* \"#utility.yul\":12423:12449   */\n      mload\n        /* \"#utility.yul\":12414:12449   */\n      swap1\n      pop\n        /* \"#utility.yul\":12386:12463   */\n    tag_287:\n        /* \"#utility.yul\":12489:12556   */\n      tag_288\n        /* \"#utility.yul\":12549:12555   */\n      dup6\n        /* \"#utility.yul\":12542:12547   */\n      dup3\n        /* \"#utility.yul\":12489:12556   */\n      tag_154\n      jump\t// in\n    tag_288:\n        /* \"#utility.yul\":12483:12487   */\n      dup7\n        /* \"#utility.yul\":12476:12557   */\n      sstore\n        /* \"#utility.yul\":12345:12567   */\n      pop\n        /* \"#utility.yul\":11680:12567   */\n      jump(tag_285)\n        /* \"#utility.yul\":11710:12328   */\n    tag_286:\n        /* \"#utility.yul\":11762:11766   */\n      0x1f\n        /* \"#utility.yul\":11758:11767   */\n      not\n        /* \"#utility.yul\":11750:11756   */\n      dup5\n        /* \"#utility.yul\":11746:11768   */\n      and\n        /* \"#utility.yul\":11796:11833   */\n      tag_289\n        /* \"#utility.yul\":11828:11832   */\n      dup7\n        /* \"#utility.yul\":11796:11833   */\n      tag_140\n      jump\t// in\n    tag_289:\n        /* \"#utility.yul\":11855:11856   */\n      0x00\n        /* \"#utility.yul\":11869:12077   */\n    tag_290:\n        /* \"#utility.yul\":11883:11890   */\n      dup3\n        /* \"#utility.yul\":11880:11881   */\n      dup2\n        /* \"#utility.yul\":11877:11891   */\n      lt\n        /* \"#utility.yul\":11869:12077   */\n      iszero\n      tag_292\n      jumpi\n        /* \"#utility.yul\":11962:11971   */\n      dup5\n        /* \"#utility.yul\":11957:11960   */\n      dup10\n        /* \"#utility.yul\":11953:11972   */\n      add\n        /* \"#utility.yul\":11947:11973   */\n      mload\n        /* \"#utility.yul\":11939:11945   */\n      dup3\n        /* \"#utility.yul\":11932:11974   */\n      sstore\n        /* \"#utility.yul\":12013:12014   */\n      0x01\n        /* \"#utility.yul\":12005:12011   */\n      dup3\n        /* \"#utility.yul\":12001:12015   */\n      add\n        /* \"#utility.yul\":11991:12015   */\n      swap2\n      pop\n        /* \"#utility.yul\":12060:12062   */\n      0x20\n        /* \"#utility.yul\":12049:12058   */\n      dup6\n        /* \"#utility.yul\":12045:12063   */\n      add\n        /* \"#utility.yul\":12032:12063   */\n      swap5\n      pop\n        /* \"#utility.yul\":11906:11910   */\n      0x20\n        /* \"#utility.yul\":11903:11904   */\n      dup2\n        /* \"#utility.yul\":11899:11911   */\n      add\n        /* \"#utility.yul\":11894:11911   */\n      swap1\n      pop\n        /* \"#utility.yul\":11869:12077   */\n      jump(tag_290)\n    tag_292:\n        /* \"#utility.yul\":12105:12111   */\n      dup7\n        /* \"#utility.yul\":12096:12103   */\n      dup4\n        /* \"#utility.yul\":12093:12112   */\n      lt\n        /* \"#utility.yul\":12090:12269   */\n      iszero\n      tag_293\n      jumpi\n        /* \"#utility.yul\":12163:12172   */\n      dup5\n        /* \"#utility.yul\":12158:12161   */\n      dup10\n        /* \"#utility.yul\":12154:12173   */\n      add\n        /* \"#utility.yul\":12148:12174   */\n      mload\n        /* \"#utility.yul\":12206:12254   */\n      tag_294\n        /* \"#utility.yul\":12248:12252   */\n      0x1f\n        /* \"#utility.yul\":12240:12246   */\n      dup10\n        /* \"#utility.yul\":12236:12253   */\n      and\n        /* \"#utility.yul\":12225:12234   */\n      dup3\n        /* \"#utility.yul\":12206:12254   */\n      tag_153\n      jump\t// in\n    tag_294:\n        /* \"#utility.yul\":12198:12204   */\n      dup4\n        /* \"#utility.yul\":12191:12255   */\n      sstore\n        /* \"#utility.yul\":12113:12269   */\n      pop\n        /* \"#utility.yul\":12090:12269   */\n    tag_293:\n        /* \"#utility.yul\":12315:12316   */\n      0x01\n        /* \"#utility.yul\":12311:12312   */\n      0x02\n        /* \"#utility.yul\":12303:12309   */\n      dup9\n        /* \"#utility.yul\":12299:12313   */\n      mul\n        /* \"#utility.yul\":12295:12317   */\n      add\n        /* \"#utility.yul\":12289:12293   */\n      dup9\n        /* \"#utility.yul\":12282:12318   */\n      sstore\n        /* \"#utility.yul\":11717:12328   */\n      pop\n      pop\n      pop\n        /* \"#utility.yul\":11680:12567   */\n    tag_285:\n      pop\n        /* \"#utility.yul\":11270:12573   */\n      pop\n      pop\n      pop\n        /* \"#utility.yul\":11178:12573   */\n      pop\n      pop\n      jump\t// out\n        /* \"#utility.yul\":12579:12741   */\n    tag_155:\n        /* \"#utility.yul\":12719:12733   */\n      0x4e6f20766f746573207965740000000000000000000000000000000000000000\n        /* \"#utility.yul\":12715:12716   */\n      0x00\n        /* \"#utility.yul\":12707:12713   */\n      dup3\n        /* \"#utility.yul\":12703:12717   */\n      add\n        /* \"#utility.yul\":12696:12734   */\n      mstore\n        /* \"#utility.yul\":12579:12741   */\n      pop\n      jump\t// out\n        /* \"#utility.yul\":12747:13113   */\n    tag_156:\n        /* \"#utility.yul\":12889:12892   */\n      0x00\n        /* \"#utility.yul\":12910:12977   */\n      tag_297\n        /* \"#utility.yul\":12974:12976   */\n      0x0c\n        /* \"#utility.yul\":12969:12972   */\n      dup4\n        /* \"#utility.yul\":12910:12977   */\n      tag_128\n      jump\t// in\n    tag_297:\n        /* \"#utility.yul\":12903:12977   */\n      swap2\n      pop\n        /* \"#utility.yul\":12986:13079   */\n      tag_298\n        /* \"#utility.yul\":13075:13078   */\n      dup3\n        /* \"#utility.yul\":12986:13079   */\n      tag_155\n      jump\t// in\n    tag_298:\n        /* \"#utility.yul\":13104:13106   */\n      0x20\n        /* \"#utility.yul\":13099:13102   */\n      dup3\n        /* \"#utility.yul\":13095:13107   */\n      add\n        /* \"#utility.yul\":13088:13107   */\n      swap1\n      pop\n        /* \"#utility.yul\":12747:13113   */\n      swap2\n      swap1\n      pop\n      jump\t// out\n        /* \"#utility.yul\":13119:13538   */\n    tag_72:\n        /* \"#utility.yul\":13285:13289   */\n      0x00\n        /* \"#utility.yul\":13323:13325   */\n      0x20\n        /* \"#utility.yul\":13312:13321   */\n      dup3\n        /* \"#utility.yul\":13308:13326   */\n      add\n        /* \"#utility.yul\":13300:13326   */\n      swap1\n      pop\n        /* \"#utility.yul\":13372:13381   */\n      dup2\n        /* \"#utility.yul\":13366:13370   */\n      dup2\n        /* \"#utility.yul\":13362:13382   */\n      sub\n        /* \"#utility.yul\":13358:13359   */\n      0x00\n        /* \"#utility.yul\":13347:13356   */\n      dup4\n        /* \"#utility.yul\":13343:13360   */\n      add\n        /* \"#utility.yul\":13336:13383   */\n      mstore\n        /* \"#utility.yul\":13400:13531   */\n      tag_300\n        /* \"#utility.yul\":13526:13530   */\n      dup2\n        /* \"#utility.yul\":13400:13531   */\n      tag_156\n      jump\t// in\n    tag_300:\n        /* \"#utility.yul\":13392:13531   */\n      swap1\n      pop\n        /* \"#utility.yul\":13119:13538   */\n      swap2\n      swap1\n      pop\n      jump\t// out\n        /* \"#utility.yul\":13544:13718   */\n    tag_157:\n        /* \"#utility.yul\":13684:13710   */\n      0x43616e64696461746520646f6573206e6f742065786973740000000000000000\n        /* \"#utility.yul\":13680:13681   */\n      0x00\n        /* \"#utility.yul\":13672:13678   */\n      dup3\n        /* \"#utility.yul\":13668:13682   */\n      add\n        /* \"#utility.yul\":13661:13711   */\n      mstore\n        /* \"#utility.yul\":13544:13718   */\n      pop\n      jump\t// out\n        /* \"#utility.yul\":13724:14090   */\n    tag_158:\n        /* \"#utility.yul\":13866:13869   */\n      0x00\n        /* \"#utility.yul\":13887:13954   */\n      tag_303\n        /* \"#utility.yul\":13951:13953   */\n      0x18\n        /* \"#utility.yul\":13946:13949   */\n      dup4\n        /* \"#utility.yul\":13887:13954   */\n      tag_128\n      jump\t// in\n    tag_303:\n        /* \"#utility.yul\":13880:13954   */\n      swap2\n      pop\n        /* \"#utility.yul\":13963:14056   */\n      tag_304\n        /* \"#utility.yul\":14052:14055   */\n      dup3\n        /* \"#utility.yul\":13963:14056   */\n      tag_157\n      jump\t// in\n    tag_304:\n        /* \"#utility.yul\":14081:14083   */\n      0x20\n        /* \"#utility.yul\":14076:14079   */\n      dup3\n        /* \"#utility.yul\":14072:14084   */\n      add\n        /* \"#utility.yul\":14065:14084   */\n      swap1\n      pop\n        /* \"#utility.yul\":13724:14090   */\n      swap2\n      swap1\n      pop\n      jump\t// out\n        /* \"#utility.yul\":14096:14515   */\n    tag_86:\n        /* \"#utility.yul\":14262:14266   */\n      0x00\n        /* \"#utility.yul\":14300:14302   */\n      0x20\n        /* \"#utility.yul\":14289:14298   */\n      dup3\n        /* \"#utility.yul\":14285:14303   */\n      add\n        /* \"#utility.yul\":14277:14303   */\n      swap1\n      pop\n        /* \"#utility.yul\":14349:14358   */\n      dup2\n        /* \"#utility.yul\":14343:14347   */\n      dup2\n        /* \"#utility.yul\":14339:14359   */\n      sub\n        /* \"#utility.yul\":14335:14336   */\n      0x00\n        /* \"#utility.yul\":14324:14333   */\n      dup4\n        /* \"#utility.yul\":14320:14337   */\n      add\n        /* \"#utility.yul\":14313:14360   */\n      mstore\n        /* \"#utility.yul\":14377:14508   */\n      tag_306\n        /* \"#utility.yul\":14503:14507   */\n      dup2\n        /* \"#utility.yul\":14377:14508   */\n      tag_158\n      jump\t// in\n    tag_306:\n        /* \"#utility.yul\":14369:14508   */\n      swap1\n      pop\n        /* \"#utility.yul\":14096:14515   */\n      swap2\n      swap1\n      pop\n      jump\t// out\n        /* \"#utility.yul\":14521:14701   */\n    tag_159:\n        /* \"#utility.yul\":14569:14646   */\n      0x4e487b7100000000000000000000000000000000000000000000000000000000\n        /* \"#utility.yul\":14566:14567   */\n      0x00\n        /* \"#utility.yul\":14559:14647   */\n      mstore\n        /* \"#utility.yul\":14666:14670   */\n      0x11\n        /* \"#utility.yul\":14663:14664   */\n      0x04\n        /* \"#utility.yul\":14656:14671   */\n      mstore\n        /* \"#utility.yul\":14690:14694   */\n      0x24\n        /* \"#utility.yul\":14687:14688   */\n      0x00\n        /* \"#utility.yul\":14680:14695   */\n      revert\n        /* \"#utility.yul\":14707:14940   */\n    tag_105:\n        /* \"#utility.yul\":14746:14749   */\n      0x00\n        /* \"#utility.yul\":14769:14793   */\n      tag_309\n        /* \"#utility.yul\":14787:14792   */\n      dup3\n        /* \"#utility.yul\":14769:14793   */\n      tag_131\n      jump\t// in\n    tag_309:\n        /* \"#utility.yul\":14760:14793   */\n      swap2\n      pop\n        /* \"#utility.yul\":14815:14881   */\n      0xffffffffffffffffffffffffffffffffffffffffffffffffffffffffffffffff\n        /* \"#utility.yul\":14808:14813   */\n      dup3\n        /* \"#utility.yul\":14805:14882   */\n      sub\n        /* \"#utility.yul\":14802:14905   */\n      tag_310\n      jumpi\n        /* \"#utility.yul\":14885:14903   */\n      tag_311\n      tag_159\n      jump\t// in\n    tag_311:\n        /* \"#utility.yul\":14802:14905   */\n    tag_310:\n        /* \"#utility.yul\":14932:14933   */\n      0x01\n        /* \"#utility.yul\":14925:14930   */\n      dup3\n        /* \"#utility.yul\":14921:14934   */\n      add\n        /* \"#utility.yul\":14914:14934   */\n      swap1\n      pop\n        /* \"#utility.yul\":14707:14940   */\n      swap2\n      swap1\n      pop\n      jump\t// out\n        /* \"#utility.yul\":14946:15113   */\n    tag_107:\n        /* \"#utility.yul\":14983:14986   */\n      0x00\n        /* \"#utility.yul\":15006:15028   */\n      tag_313\n        /* \"#utility.yul\":15022:15027   */\n      dup3\n        /* \"#utility.yul\":15006:15028   */\n      tag_112\n      jump\t// in\n    tag_313:\n        /* \"#utility.yul\":14997:15028   */\n      swap2\n      pop\n        /* \"#utility.yul\":15050:15054   */\n      0xff\n        /* \"#utility.yul\":15043:15048   */\n      dup3\n        /* \"#utility.yul\":15040:15055   */\n      sub\n        /* \"#utility.yul\":15037:15078   */\n      tag_314\n      jumpi\n        /* \"#utility.yul\":15058:15076   */\n      tag_315\n      tag_159\n      jump\t// in\n    tag_315:\n        /* \"#utility.yul\":15037:15078   */\n    tag_314:\n        /* \"#utility.yul\":15105:15106   */\n      0x01\n        /* \"#utility.yul\":15098:15103   */\n      dup3\n        /* \"#utility.yul\":15094:15107   */\n      add\n        /* \"#utility.yul\":15087:15107   */\n      swap1\n      pop\n        /* \"#utility.yul\":14946:15113   */\n      swap2\n      swap1\n      pop\n      jump\t// out\n\n    auxdata: 0xa264697066735822122015ddbf6479ca471ed676fcebe43df56bbfc3417abe15add2bf71224b1ad7b43b64736f6c634300081e0033\n}\n",
				"bytecode": {
					"linkReferences": {},
					"object": "60806040525f60015f6101000a81548160ff021916908360ff1602179055503480156028575f5ffd5b50610f6e806100365f395ff3fe608060405234801561000f575f5ffd5b506004361061009c575f3560e01c806394a5c2e41161006457806394a5c2e4146101475780639a0e7d6614610165578063b61add9a14610183578063c5539cc2146101b4578063fc36e15b146101e55761009c565b80630d15fd77146100a0578063462e91ec146100be5780634c162f2a146100da5780634c9eb4d4146100f857806385453ea714610117575b5f5ffd5b6100a8610201565b6040516100b59190610789565b60405180910390f35b6100d860048036038101906100d391906108ef565b610213565b005b6100e26102b2565b6040516100ef9190610996565b60405180910390f35b61010061033e565b60405161010e9291906109ce565b60405180910390f35b610131600480360381019061012c91906108ef565b610428565b60405161013e9190610a16565b60405180910390f35b61014f61045f565b60405161015c9190610a2f565b60405180910390f35b61016d610465565b60405161017a9190610789565b60405180910390f35b61019d600480360381019061019891906108ef565b61047a565b6040516101ab9291906109ce565b60405180910390f35b6101ce60048036038101906101c991906108ef565b610598565b6040516101dc9291906109ce565b60405180910390f35b6101ff60048036038101906101fa91906108ef565b610655565b005b60015f9054906101000a900460ff1681565b61021c81610428565b1561025c576040517f08c379a000000000000000000000000000000000000000000000000000000000815260040161025390610a92565b60405180910390fd5b60405180604001604052808281526020015f8152505f826040516102809190610aea565b90815260200160405180910390205f820151815f0190816102a19190610cfd565b506020820151816001015590505050565b600380546102bf90610b2d565b80601f01602080910402602001604051908101604052809291908181526020018280546102eb90610b2d565b80156103365780601f1061030d57610100808354040283529160200191610336565b820191905f5260205f20905b81548152906001019060200180831161031957829003601f168201915b505050505081565b60605f5f6003805461034f90610b2d565b905003610391576040517f08c379a000000000000000000000000000000000000000000000000000000000815260040161038890610e16565b60405180910390fd5b60036002548180546103a290610b2d565b80601f01602080910402602001604051908101604052809291908181526020018280546103ce90610b2d565b80156104195780601f106103f057610100808354040283529160200191610419565b820191905f5260205f20905b8154815290600101906020018083116103fc57829003601f168201915b50505050509150915091509091565b5f5f5f836040516104399190610aea565b90815260200160405180910390205f01805461045490610b2d565b905014159050919050565b60025481565b5f60015f9054906101000a900460ff16905090565b60605f61048683610428565b6104c5576040517f08c379a00000000000000000000000000000000000000000000000000000000081526004016104bc90610e7e565b60405180910390fd5b5f836040516104d49190610aea565b90815260200160405180910390205f015f846040516104f39190610aea565b90815260200160405180910390206001015481805461051190610b2d565b80601f016020809104026020016040519081016040528092919081815260200182805461053d90610b2d565b80156105885780601f1061055f57610100808354040283529160200191610588565b820191905f5260205f20905b81548152906001019060200180831161056b57829003601f168201915b5050505050915091509150915091565b5f818051602081018201805184825260208301602085012081835280955050505050505f91509050805f0180546105ce90610b2d565b80601f01602080910402602001604051908101604052809291908181526020018280546105fa90610b2d565b80156106455780601f1061061c57610100808354040283529160200191610645565b820191905f5260205f20905b81548152906001019060200180831161062857829003601f168201915b5050505050908060010154905082565b61065e81610428565b61069d576040517f08c379a000000000000000000000000000000000000000000000000000000000815260040161069490610e7e565b60405180910390fd5b5f816040516106ac9190610aea565b90815260200160405180910390206001015f8154809291906106cd90610ec9565b919050555060015f81819054906101000a900460ff16809291906106f090610f10565b91906101000a81548160ff021916908360ff160217905550506002545f8260405161071b9190610aea565b908152602001604051809103902060010154111561076b575f816040516107429190610aea565b90815260200160405180910390206001015460028190555080600390816107699190610cfd565b505b50565b5f60ff82169050919050565b6107838161076e565b82525050565b5f60208201905061079c5f83018461077a565b92915050565b5f604051905090565b5f5ffd5b5f5ffd5b5f5ffd5b5f5ffd5b5f601f19601f8301169050919050565b7f4e487b71000000000000000000000000000000000000000000000000000000005f52604160045260245ffd5b610801826107bb565b810181811067ffffffffffffffff821117156108205761081f6107cb565b5b80604052505050565b5f6108326107a2565b905061083e82826107f8565b919050565b5f67ffffffffffffffff82111561085d5761085c6107cb565b5b610866826107bb565b9050602081019050919050565b828183375f83830152505050565b5f61089361088e84610843565b610829565b9050828152602081018484840111156108af576108ae6107b7565b5b6108ba848285610873565b509392505050565b5f82601f8301126108d6576108d56107b3565b5b81356108e6848260208601610881565b91505092915050565b5f60208284031215610904576109036107ab565b5b5f82013567ffffffffffffffff811115610921576109206107af565b5b61092d848285016108c2565b91505092915050565b5f81519050919050565b5f82825260208201905092915050565b8281835e5f83830152505050565b5f61096882610936565b6109728185610940565b9350610982818560208601610950565b61098b816107bb565b840191505092915050565b5f6020820190508181035f8301526109ae818461095e565b905092915050565b5f819050919050565b6109c8816109b6565b82525050565b5f6040820190508181035f8301526109e6818561095e565b90506109f560208301846109bf565b9392505050565b5f8115159050919050565b610a10816109fc565b82525050565b5f602082019050610a295f830184610a07565b92915050565b5f602082019050610a425f8301846109bf565b92915050565b7f43616e64696461746520616c72656164792065786973747300000000000000005f82015250565b5f610a7c601883610940565b9150610a8782610a48565b602082019050919050565b5f6020820190508181035f830152610aa981610a70565b9050919050565b5f81905092915050565b5f610ac482610936565b610ace8185610ab0565b9350610ade818560208601610950565b80840191505092915050565b5f610af58284610aba565b915081905092915050565b7f4e487b71000000000000000000000000000000000000000000000000000000005f52602260045260245ffd5b5f6002820490506001821680610b4457607f821691505b602082108103610b5757610b56610b00565b5b50919050565b5f819050815f5260205f209050919050565b5f6020601f8301049050919050565b5f82821b905092915050565b5f60088302610bb97fffffffffffffffffffffffffffffffffffffffffffffffffffffffffffffffff82610b7e565b610bc38683610b7e565b95508019841693508086168417925050509392505050565b5f819050919050565b5f610bfe610bf9610bf4846109b6565b610bdb565b6109b6565b9050919050565b5f819050919050565b610c1783610be4565b610c2b610c2382610c05565b848454610b8a565b825550505050565b5f5f905090565b610c42610c33565b610c4d818484610c0e565b505050565b5b81811015610c7057610c655f82610c3a565b600181019050610c53565b5050565b601f821115610cb557610c8681610b5d565b610c8f84610b6f565b81016020851015610c9e578190505b610cb2610caa85610b6f565b830182610c52565b50505b505050565b5f82821c905092915050565b5f610cd55f1984600802610cba565b1980831691505092915050565b5f610ced8383610cc6565b9150826002028217905092915050565b610d0682610936565b67ffffffffffffffff811115610d1f57610d1e6107cb565b5b610d298254610b2d565b610d34828285610c74565b5f60209050601f831160018114610d65575f8415610d53578287015190505b610d5d8582610ce2565b865550610dc4565b601f198416610d7386610b5d565b5f5b82811015610d9a57848901518255600182019150602085019450602081019050610d75565b86831015610db75784890151610db3601f891682610cc6565b8355505b6001600288020188555050505b505050505050565b7f4e6f20766f7465732079657400000000000000000000000000000000000000005f82015250565b5f610e00600c83610940565b9150610e0b82610dcc565b602082019050919050565b5f6020820190508181035f830152610e2d81610df4565b9050919050565b7f43616e64696461746520646f6573206e6f7420657869737400000000000000005f82015250565b5f610e68601883610940565b9150610e7382610e34565b602082019050919050565b5f6020820190508181035f830152610e9581610e5c565b9050919050565b7f4e487b71000000000000000000000000000000000000000000000000000000005f52601160045260245ffd5b5f610ed3826109b6565b91507fffffffffffffffffffffffffffffffffffffffffffffffffffffffffffffffff8203610f0557610f04610e9c565b5b600182019050919050565b5f610f1a8261076e565b915060ff8203610f2d57610f2c610e9c565b5b60018201905091905056fea264697066735822122015ddbf6479ca471ed676fcebe43df56bbfc3417abe15add2bf71224b1ad7b43b64736f6c634300081e0033",
					"opcodes": "PUSH1 0x80 PUSH1 0x40 MSTORE PUSH0 PUSH1 0x1 PUSH0 PUSH2 0x100 EXP DUP2 SLOAD DUP2 PUSH1 0xFF MUL NOT AND SWAP1 DUP4 PUSH1 0xFF AND MUL OR SWAP1 SSTORE POP CALLVALUE DUP1 ISZERO PUSH1 0x28 JUMPI PUSH0 PUSH0 REVERT JUMPDEST POP PUSH2 0xF6E DUP1 PUSH2 0x36 PUSH0 CODECOPY PUSH0 RETURN INVALID PUSH1 0x80 PUSH1 0x40 MSTORE CALLVALUE DUP1 ISZERO PUSH2 0xF JUMPI PUSH0 PUSH0 REVERT JUMPDEST POP PUSH1 0x4 CALLDATASIZE LT PUSH2 0x9C JUMPI PUSH0 CALLDATALOAD PUSH1 0xE0 SHR DUP1 PUSH4 0x94A5C2E4 GT PUSH2 0x64 JUMPI DUP1 PUSH4 0x94A5C2E4 EQ PUSH2 0x147 JUMPI DUP1 PUSH4 0x9A0E7D66 EQ PUSH2 0x165 JUMPI DUP1 PUSH4 0xB61ADD9A EQ PUSH2 0x183 JUMPI DUP1 PUSH4 0xC5539CC2 EQ PUSH2 0x1B4 JUMPI DUP1 PUSH4 0xFC36E15B EQ PUSH2 0x1E5 JUMPI PUSH2 0x9C JUMP JUMPDEST DUP1 PUSH4 0xD15FD77 EQ PUSH2 0xA0 JUMPI DUP1 PUSH4 0x462E91EC EQ PUSH2 0xBE JUMPI DUP1 PUSH4 0x4C162F2A EQ PUSH2 0xDA JUMPI DUP1 PUSH4 0x4C9EB4D4 EQ PUSH2 0xF8 JUMPI DUP1 PUSH4 0x85453EA7 EQ PUSH2 0x117 JUMPI JUMPDEST PUSH0 PUSH0 REVERT JUMPDEST PUSH2 0xA8 PUSH2 0x201 JUMP JUMPDEST PUSH1 0x40 MLOAD PUSH2 0xB5 SWAP2 SWAP1 PUSH2 0x789 JUMP JUMPDEST PUSH1 0x40 MLOAD DUP1 SWAP2 SUB SWAP1 RETURN JUMPDEST PUSH2 0xD8 PUSH1 0x4 DUP1 CALLDATASIZE SUB DUP2 ADD SWAP1 PUSH2 0xD3 SWAP2 SWAP1 PUSH2 0x8EF JUMP JUMPDEST PUSH2 0x213 JUMP JUMPDEST STOP JUMPDEST PUSH2 0xE2 PUSH2 0x2B2 JUMP JUMPDEST PUSH1 0x40 MLOAD PUSH2 0xEF SWAP2 SWAP1 PUSH2 0x996 JUMP JUMPDEST PUSH1 0x40 MLOAD DUP1 SWAP2 SUB SWAP1 RETURN JUMPDEST PUSH2 0x100 PUSH2 0x33E JUMP JUMPDEST PUSH1 0x40 MLOAD PUSH2 0x10E SWAP3 SWAP2 SWAP1 PUSH2 0x9CE JUMP JUMPDEST PUSH1 0x40 MLOAD DUP1 SWAP2 SUB SWAP1 RETURN JUMPDEST PUSH2 0x131 PUSH1 0x4 DUP1 CALLDATASIZE SUB DUP2 ADD SWAP1 PUSH2 0x12C SWAP2 SWAP1 PUSH2 0x8EF JUMP JUMPDEST PUSH2 0x428 JUMP JUMPDEST PUSH1 0x40 MLOAD PUSH2 0x13E SWAP2 SWAP1 PUSH2 0xA16 JUMP JUMPDEST PUSH1 0x40 MLOAD DUP1 SWAP2 SUB SWAP1 RETURN JUMPDEST PUSH2 0x14F PUSH2 0x45F JUMP JUMPDEST PUSH1 0x40 MLOAD PUSH2 0x15C SWAP2 SWAP1 PUSH2 0xA2F JUMP JUMPDEST PUSH1 0x40 MLOAD DUP1 SWAP2 SUB SWAP1 RETURN JUMPDEST PUSH2 0x16D PUSH2 0x465 JUMP JUMPDEST PUSH1 0x40 MLOAD PUSH2 0x17A SWAP2 SWAP1 PUSH2 0x789 JUMP JUMPDEST PUSH1 0x40 MLOAD DUP1 SWAP2 SUB SWAP1 RETURN JUMPDEST PUSH2 0x19D PUSH1 0x4 DUP1 CALLDATASIZE SUB DUP2 ADD SWAP1 PUSH2 0x198 SWAP2 SWAP1 PUSH2 0x8EF JUMP JUMPDEST PUSH2 0x47A JUMP JUMPDEST PUSH1 0x40 MLOAD PUSH2 0x1AB SWAP3 SWAP2 SWAP1 PUSH2 0x9CE JUMP JUMPDEST PUSH1 0x40 MLOAD DUP1 SWAP2 SUB SWAP1 RETURN JUMPDEST PUSH2 0x1CE PUSH1 0x4 DUP1 CALLDATASIZE SUB DUP2 ADD SWAP1 PUSH2 0x1C9 SWAP2 SWAP1 PUSH2 0x8EF JUMP JUMPDEST PUSH2 0x598 JUMP JUMPDEST PUSH1 0x40 MLOAD PUSH2 0x1DC SWAP3 SWAP2 SWAP1 PUSH2 0x9CE JUMP JUMPDEST PUSH1 0x40 MLOAD DUP1 SWAP2 SUB SWAP1 RETURN JUMPDEST PUSH2 0x1FF PUSH1 0x4 DUP1 CALLDATASIZE SUB DUP2 ADD SWAP1 PUSH2 0x1FA SWAP2 SWAP1 PUSH2 0x8EF JUMP JUMPDEST PUSH2 0x655 JUMP JUMPDEST STOP JUMPDEST PUSH1 0x1 PUSH0 SWAP1 SLOAD SWAP1 PUSH2 0x100 EXP SWAP1 DIV PUSH1 0xFF AND DUP2 JUMP JUMPDEST PUSH2 0x21C DUP2 PUSH2 0x428 JUMP JUMPDEST ISZERO PUSH2 0x25C JUMPI PUSH1 0x40 MLOAD PUSH32 0x8C379A000000000000000000000000000000000000000000000000000000000 DUP2 MSTORE PUSH1 0x4 ADD PUSH2 0x253 SWAP1 PUSH2 0xA92 JUMP JUMPDEST PUSH1 0x40 MLOAD DUP1 SWAP2 SUB SWAP1 REVERT JUMPDEST PUSH1 0x40 MLOAD DUP1 PUSH1 0x40 ADD PUSH1 0x40 MSTORE DUP1 DUP3 DUP2 MSTORE PUSH1 0x20 ADD PUSH0 DUP2 MSTORE POP PUSH0 DUP3 PUSH1 0x40 MLOAD PUSH2 0x280 SWAP2 SWAP1 PUSH2 0xAEA JUMP JUMPDEST SWAP1 DUP2 MSTORE PUSH1 0x20 ADD PUSH1 0x40 MLOAD DUP1 SWAP2 SUB SWAP1 KECCAK256 PUSH0 DUP3 ADD MLOAD DUP2 PUSH0 ADD SWAP1 DUP2 PUSH2 0x2A1 SWAP2 SWAP1 PUSH2 0xCFD JUMP JUMPDEST POP PUSH1 0x20 DUP3 ADD MLOAD DUP2 PUSH1 0x1 ADD SSTORE SWAP1 POP POP POP JUMP JUMPDEST PUSH1 0x3 DUP1 SLOAD PUSH2 0x2BF SWAP1 PUSH2 0xB2D JUMP JUMPDEST DUP1 PUSH1 0x1F ADD PUSH1 0x20 DUP1 SWAP2 DIV MUL PUSH1 0x20 ADD PUSH1 0x40 MLOAD SWAP1 DUP2 ADD PUSH1 0x40 MSTORE DUP1 SWAP3 SWAP2 SWAP1 DUP2 DUP2 MSTORE PUSH1 0x20 ADD DUP3 DUP1 SLOAD PUSH2 0x2EB SWAP1 PUSH2 0xB2D JUMP JUMPDEST DUP1 ISZERO PUSH2 0x336 JUMPI DUP1 PUSH1 0x1F LT PUSH2 0x30D JUMPI PUSH2 0x100 DUP1 DUP4 SLOAD DIV MUL DUP4 MSTORE SWAP2 PUSH1 0x20 ADD SWAP2 PUSH2 0x336 JUMP JUMPDEST DUP3 ADD SWAP2 SWAP1 PUSH0 MSTORE PUSH1 0x20 PUSH0 KECCAK256 SWAP1 JUMPDEST DUP2 SLOAD DUP2 MSTORE SWAP1 PUSH1 0x1 ADD SWAP1 PUSH1 0x20 ADD DUP1 DUP4 GT PUSH2 0x319 JUMPI DUP3 SWAP1 SUB PUSH1 0x1F AND DUP3 ADD SWAP2 JUMPDEST POP POP POP POP POP DUP2 JUMP JUMPDEST PUSH1 0x60 PUSH0 PUSH0 PUSH1 0x3 DUP1 SLOAD PUSH2 0x34F SWAP1 PUSH2 0xB2D JUMP JUMPDEST SWAP1 POP SUB PUSH2 0x391 JUMPI PUSH1 0x40 MLOAD PUSH32 0x8C379A000000000000000000000000000000000000000000000000000000000 DUP2 MSTORE PUSH1 0x4 ADD PUSH2 0x388 SWAP1 PUSH2 0xE16 JUMP JUMPDEST PUSH1 0x40 MLOAD DUP1 SWAP2 SUB SWAP1 REVERT JUMPDEST PUSH1 0x3 PUSH1 0x2 SLOAD DUP2 DUP1 SLOAD PUSH2 0x3A2 SWAP1 PUSH2 0xB2D JUMP JUMPDEST DUP1 PUSH1 0x1F ADD PUSH1 0x20 DUP1 SWAP2 DIV MUL PUSH1 0x20 ADD PUSH1 0x40 MLOAD SWAP1 DUP2 ADD PUSH1 0x40 MSTORE DUP1 SWAP3 SWAP2 SWAP1 DUP2 DUP2 MSTORE PUSH1 0x20 ADD DUP3 DUP1 SLOAD PUSH2 0x3CE SWAP1 PUSH2 0xB2D JUMP JUMPDEST DUP1 ISZERO PUSH2 0x419 JUMPI DUP1 PUSH1 0x1F LT PUSH2 0x3F0 JUMPI PUSH2 0x100 DUP1 DUP4 SLOAD DIV MUL DUP4 MSTORE SWAP2 PUSH1 0x20 ADD SWAP2 PUSH2 0x419 JUMP JUMPDEST DUP3 ADD SWAP2 SWAP1 PUSH0 MSTORE PUSH1 0x20 PUSH0 KECCAK256 SWAP1 JUMPDEST DUP2 SLOAD DUP2 MSTORE SWAP1 PUSH1 0x1 ADD SWAP1 PUSH1 0x20 ADD DUP1 DUP4 GT PUSH2 0x3FC JUMPI DUP3 SWAP1 SUB PUSH1 0x1F AND DUP3 ADD SWAP2 JUMPDEST POP POP POP POP POP SWAP2 POP SWAP2 POP SWAP2 POP SWAP1 SWAP2 JUMP JUMPDEST PUSH0 PUSH0 PUSH0 DUP4 PUSH1 0x40 MLOAD PUSH2 0x439 SWAP2 SWAP1 PUSH2 0xAEA JUMP JUMPDEST SWAP1 DUP2 MSTORE PUSH1 0x20 ADD PUSH1 0x40 MLOAD DUP1 SWAP2 SUB SWAP1 KECCAK256 PUSH0 ADD DUP1 SLOAD PUSH2 0x454 SWAP1 PUSH2 0xB2D JUMP JUMPDEST SWAP1 POP EQ ISZERO SWAP1 POP SWAP2 SWAP1 POP JUMP JUMPDEST PUSH1 0x2 SLOAD DUP2 JUMP JUMPDEST PUSH0 PUSH1 0x1 PUSH0 SWAP1 SLOAD SWAP1 PUSH2 0x100 EXP SWAP1 DIV PUSH1 0xFF AND SWAP1 POP SWAP1 JUMP JUMPDEST PUSH1 0x60 PUSH0 PUSH2 0x486 DUP4 PUSH2 0x428 JUMP JUMPDEST PUSH2 0x4C5 JUMPI PUSH1 0x40 MLOAD PUSH32 0x8C379A000000000000000000000000000000000000000000000000000000000 DUP2 MSTORE PUSH1 0x4 ADD PUSH2 0x4BC SWAP1 PUSH2 0xE7E JUMP JUMPDEST PUSH1 0x40 MLOAD DUP1 SWAP2 SUB SWAP1 REVERT JUMPDEST PUSH0 DUP4 PUSH1 0x40 MLOAD PUSH2 0x4D4 SWAP2 SWAP1 PUSH2 0xAEA JUMP JUMPDEST SWAP1 DUP2 MSTORE PUSH1 0x20 ADD PUSH1 0x40 MLOAD DUP1 SWAP2 SUB SWAP1 KECCAK256 PUSH0 ADD PUSH0 DUP5 PUSH1 0x40 MLOAD PUSH2 0x4F3 SWAP2 SWAP1 PUSH2 0xAEA JUMP JUMPDEST SWAP1 DUP2 MSTORE PUSH1 0x20 ADD PUSH1 0x40 MLOAD DUP1 SWAP2 SUB SWAP1 KECCAK256 PUSH1 0x1 ADD SLOAD DUP2 DUP1 SLOAD PUSH2 0x511 SWAP1 PUSH2 0xB2D JUMP JUMPDEST DUP1 PUSH1 0x1F ADD PUSH1 0x20 DUP1 SWAP2 DIV MUL PUSH1 0x20 ADD PUSH1 0x40 MLOAD SWAP1 DUP2 ADD PUSH1 0x40 MSTORE DUP1 SWAP3 SWAP2 SWAP1 DUP2 DUP2 MSTORE PUSH1 0x20 ADD DUP3 DUP1 SLOAD PUSH2 0x53D SWAP1 PUSH2 0xB2D JUMP JUMPDEST DUP1 ISZERO PUSH2 0x588 JUMPI DUP1 PUSH1 0x1F LT PUSH2 0x55F JUMPI PUSH2 0x100 DUP1 DUP4 SLOAD DIV MUL DUP4 MSTORE SWAP2 PUSH1 0x20 ADD SWAP2 PUSH2 0x588 JUMP JUMPDEST DUP3 ADD SWAP2 SWAP1 PUSH0 MSTORE PUSH1 0x20 PUSH0 KECCAK256 SWAP1 JUMPDEST DUP2 SLOAD DUP2 MSTORE SWAP1 PUSH1 0x1 ADD SWAP1 PUSH1 0x20 ADD DUP1 DUP4 GT PUSH2 0x56B JUMPI DUP3 SWAP1 SUB PUSH1 0x1F AND DUP3 ADD SWAP2 JUMPDEST POP POP POP POP POP SWAP2 POP SWAP2 POP SWAP2 POP SWAP2 POP SWAP2 JUMP JUMPDEST PUSH0 DUP2 DUP1 MLOAD PUSH1 0x20 DUP2 ADD DUP3 ADD DUP1 MLOAD DUP5 DUP3 MSTORE PUSH1 0x20 DUP4 ADD PUSH1 0x20 DUP6 ADD KECCAK256 DUP2 DUP4 MSTORE DUP1 SWAP6 POP POP POP POP POP POP PUSH0 SWAP2 POP SWAP1 POP DUP1 PUSH0 ADD DUP1 SLOAD PUSH2 0x5CE SWAP1 PUSH2 0xB2D JUMP JUMPDEST DUP1 PUSH1 0x1F ADD PUSH1 0x20 DUP1 SWAP2 DIV MUL PUSH1 0x20 ADD PUSH1 0x40 MLOAD SWAP1 DUP2 ADD PUSH1 0x40 MSTORE DUP1 SWAP3 SWAP2 SWAP1 DUP2 DUP2 MSTORE PUSH1 0x20 ADD DUP3 DUP1 SLOAD PUSH2 0x5FA SWAP1 PUSH2 0xB2D JUMP JUMPDEST DUP1 ISZERO PUSH2 0x645 JUMPI DUP1 PUSH1 0x1F LT PUSH2 0x61C JUMPI PUSH2 0x100 DUP1 DUP4 SLOAD DIV MUL DUP4 MSTORE SWAP2 PUSH1 0x20 ADD SWAP2 PUSH2 0x645 JUMP JUMPDEST DUP3 ADD SWAP2 SWAP1 PUSH0 MSTORE PUSH1 0x20 PUSH0 KECCAK256 SWAP1 JUMPDEST DUP2 SLOAD DUP2 MSTORE SWAP1 PUSH1 0x1 ADD SWAP1 PUSH1 0x20 ADD DUP1 DUP4 GT PUSH2 0x628 JUMPI DUP3 SWAP1 SUB PUSH1 0x1F AND DUP3 ADD SWAP2 JUMPDEST POP POP POP POP POP SWAP1 DUP1 PUSH1 0x1 ADD SLOAD SWAP1 POP DUP3 JUMP JUMPDEST PUSH2 0x65E DUP2 PUSH2 0x428 JUMP JUMPDEST PUSH2 0x69D JUMPI PUSH1 0x40 MLOAD PUSH32 0x8C379A000000000000000000000000000000000000000000000000000000000 DUP2 MSTORE PUSH1 0x4 ADD PUSH2 0x694 SWAP1 PUSH2 0xE7E JUMP JUMPDEST PUSH1 0x40 MLOAD DUP1 SWAP2 SUB SWAP1 REVERT JUMPDEST PUSH0 DUP2 PUSH1 0x40 MLOAD PUSH2 0x6AC SWAP2 SWAP1 PUSH2 0xAEA JUMP JUMPDEST SWAP1 DUP2 MSTORE PUSH1 0x20 ADD PUSH1 0x40 MLOAD DUP1 SWAP2 SUB SWAP1 KECCAK256 PUSH1 0x1 ADD PUSH0 DUP2 SLOAD DUP1 SWAP3 SWAP2 SWAP1 PUSH2 0x6CD SWAP1 PUSH2 0xEC9 JUMP JUMPDEST SWAP2 SWAP1 POP SSTORE POP PUSH1 0x1 PUSH0 DUP2 DUP2 SWAP1 SLOAD SWAP1 PUSH2 0x100 EXP SWAP1 DIV PUSH1 0xFF AND DUP1 SWAP3 SWAP2 SWAP1 PUSH2 0x6F0 SWAP1 PUSH2 0xF10 JUMP JUMPDEST SWAP2 SWAP1 PUSH2 0x100 EXP DUP2 SLOAD DUP2 PUSH1 0xFF MUL NOT AND SWAP1 DUP4 PUSH1 0xFF AND MUL OR SWAP1 SSTORE POP POP PUSH1 0x2 SLOAD PUSH0 DUP3 PUSH1 0x40 MLOAD PUSH2 0x71B SWAP2 SWAP1 PUSH2 0xAEA JUMP JUMPDEST SWAP1 DUP2 MSTORE PUSH1 0x20 ADD PUSH1 0x40 MLOAD DUP1 SWAP2 SUB SWAP1 KECCAK256 PUSH1 0x1 ADD SLOAD GT ISZERO PUSH2 0x76B JUMPI PUSH0 DUP2 PUSH1 0x40 MLOAD PUSH2 0x742 SWAP2 SWAP1 PUSH2 0xAEA JUMP JUMPDEST SWAP1 DUP2 MSTORE PUSH1 0x20 ADD PUSH1 0x40 MLOAD DUP1 SWAP2 SUB SWAP1 KECCAK256 PUSH1 0x1 ADD SLOAD PUSH1 0x2 DUP2 SWAP1 SSTORE POP DUP1 PUSH1 0x3 SWAP1 DUP2 PUSH2 0x769 SWAP2 SWAP1 PUSH2 0xCFD JUMP JUMPDEST POP JUMPDEST POP JUMP JUMPDEST PUSH0 PUSH1 0xFF DUP3 AND SWAP1 POP SWAP2 SWAP1 POP JUMP JUMPDEST PUSH2 0x783 DUP2 PUSH2 0x76E JUMP JUMPDEST DUP3 MSTORE POP POP JUMP JUMPDEST PUSH0 PUSH1 0x20 DUP3 ADD SWAP1 POP PUSH2 0x79C PUSH0 DUP4 ADD DUP5 PUSH2 0x77A JUMP JUMPDEST SWAP3 SWAP2 POP POP JUMP JUMPDEST PUSH0 PUSH1 0x40 MLOAD SWAP1 POP SWAP1 JUMP JUMPDEST PUSH0 PUSH0 REVERT JUMPDEST PUSH0 PUSH0 REVERT JUMPDEST PUSH0 PUSH0 REVERT JUMPDEST PUSH0 PUSH0 REVERT JUMPDEST PUSH0 PUSH1 0x1F NOT PUSH1 0x1F DUP4 ADD AND SWAP1 POP SWAP2 SWAP1 POP JUMP JUMPDEST PUSH32 0x4E487B7100000000000000000000000000000000000000000000000000000000 PUSH0 MSTORE PUSH1 0x41 PUSH1 0x4 MSTORE PUSH1 0x24 PUSH0 REVERT JUMPDEST PUSH2 0x801 DUP3 PUSH2 0x7BB JUMP JUMPDEST DUP2 ADD DUP2 DUP2 LT PUSH8 0xFFFFFFFFFFFFFFFF DUP3 GT OR ISZERO PUSH2 0x820 JUMPI PUSH2 0x81F PUSH2 0x7CB JUMP JUMPDEST JUMPDEST DUP1 PUSH1 0x40 MSTORE POP POP POP JUMP JUMPDEST PUSH0 PUSH2 0x832 PUSH2 0x7A2 JUMP JUMPDEST SWAP1 POP PUSH2 0x83E DUP3 DUP3 PUSH2 0x7F8 JUMP JUMPDEST SWAP2 SWAP1 POP JUMP JUMPDEST PUSH0 PUSH8 0xFFFFFFFFFFFFFFFF DUP3 GT ISZERO PUSH2 0x85D JUMPI PUSH2 0x85C PUSH2 0x7CB JUMP JUMPDEST JUMPDEST PUSH2 0x866 DUP3 PUSH2 0x7BB JUMP JUMPDEST SWAP1 POP PUSH1 0x20 DUP2 ADD SWAP1 POP SWAP2 SWAP1 POP JUMP JUMPDEST DUP3 DUP2 DUP4 CALLDATACOPY PUSH0 DUP4 DUP4 ADD MSTORE POP POP POP JUMP JUMPDEST PUSH0 PUSH2 0x893 PUSH2 0x88E DUP5 PUSH2 0x843 JUMP JUMPDEST PUSH2 0x829 JUMP JUMPDEST SWAP1 POP DUP3 DUP2 MSTORE PUSH1 0x20 DUP2 ADD DUP5 DUP5 DUP5 ADD GT ISZERO PUSH2 0x8AF JUMPI PUSH2 0x8AE PUSH2 0x7B7 JUMP JUMPDEST JUMPDEST PUSH2 0x8BA DUP5 DUP3 DUP6 PUSH2 0x873 JUMP JUMPDEST POP SWAP4 SWAP3 POP POP POP JUMP JUMPDEST PUSH0 DUP3 PUSH1 0x1F DUP4 ADD SLT PUSH2 0x8D6 JUMPI PUSH2 0x8D5 PUSH2 0x7B3 JUMP JUMPDEST JUMPDEST DUP2 CALLDATALOAD PUSH2 0x8E6 DUP5 DUP3 PUSH1 0x20 DUP7 ADD PUSH2 0x881 JUMP JUMPDEST SWAP2 POP POP SWAP3 SWAP2 POP POP JUMP JUMPDEST PUSH0 PUSH1 0x20 DUP3 DUP5 SUB SLT ISZERO PUSH2 0x904 JUMPI PUSH2 0x903 PUSH2 0x7AB JUMP JUMPDEST JUMPDEST PUSH0 DUP3 ADD CALLDATALOAD PUSH8 0xFFFFFFFFFFFFFFFF DUP2 GT ISZERO PUSH2 0x921 JUMPI PUSH2 0x920 PUSH2 0x7AF JUMP JUMPDEST JUMPDEST PUSH2 0x92D DUP5 DUP3 DUP6 ADD PUSH2 0x8C2 JUMP JUMPDEST SWAP2 POP POP SWAP3 SWAP2 POP POP JUMP JUMPDEST PUSH0 DUP2 MLOAD SWAP1 POP SWAP2 SWAP1 POP JUMP JUMPDEST PUSH0 DUP3 DUP3 MSTORE PUSH1 0x20 DUP3 ADD SWAP1 POP SWAP3 SWAP2 POP POP JUMP JUMPDEST DUP3 DUP2 DUP4 MCOPY PUSH0 DUP4 DUP4 ADD MSTORE POP POP POP JUMP JUMPDEST PUSH0 PUSH2 0x968 DUP3 PUSH2 0x936 JUMP JUMPDEST PUSH2 0x972 DUP2 DUP6 PUSH2 0x940 JUMP JUMPDEST SWAP4 POP PUSH2 0x982 DUP2 DUP6 PUSH1 0x20 DUP7 ADD PUSH2 0x950 JUMP JUMPDEST PUSH2 0x98B DUP2 PUSH2 0x7BB JUMP JUMPDEST DUP5 ADD SWAP2 POP POP SWAP3 SWAP2 POP POP JUMP JUMPDEST PUSH0 PUSH1 0x20 DUP3 ADD SWAP1 POP DUP2 DUP2 SUB PUSH0 DUP4 ADD MSTORE PUSH2 0x9AE DUP2 DUP5 PUSH2 0x95E JUMP JUMPDEST SWAP1 POP SWAP3 SWAP2 POP POP JUMP JUMPDEST PUSH0 DUP2 SWAP1 POP SWAP2 SWAP1 POP JUMP JUMPDEST PUSH2 0x9C8 DUP2 PUSH2 0x9B6 JUMP JUMPDEST DUP3 MSTORE POP POP JUMP JUMPDEST PUSH0 PUSH1 0x40 DUP3 ADD SWAP1 POP DUP2 DUP2 SUB PUSH0 DUP4 ADD MSTORE PUSH2 0x9E6 DUP2 DUP6 PUSH2 0x95E JUMP JUMPDEST SWAP1 POP PUSH2 0x9F5 PUSH1 0x20 DUP4 ADD DUP5 PUSH2 0x9BF JUMP JUMPDEST SWAP4 SWAP3 POP POP POP JUMP JUMPDEST PUSH0 DUP2 ISZERO ISZERO SWAP1 POP SWAP2 SWAP1 POP JUMP JUMPDEST PUSH2 0xA10 DUP2 PUSH2 0x9FC JUMP JUMPDEST DUP3 MSTORE POP POP JUMP JUMPDEST PUSH0 PUSH1 0x20 DUP3 ADD SWAP1 POP PUSH2 0xA29 PUSH0 DUP4 ADD DUP5 PUSH2 0xA07 JUMP JUMPDEST SWAP3 SWAP2 POP POP JUMP JUMPDEST PUSH0 PUSH1 0x20 DUP3 ADD SWAP1 POP PUSH2 0xA42 PUSH0 DUP4 ADD DUP5 PUSH2 0x9BF JUMP JUMPDEST SWAP3 SWAP2 POP POP JUMP JUMPDEST PUSH32 0x43616E64696461746520616C7265616479206578697374730000000000000000 PUSH0 DUP3 ADD MSTORE POP JUMP JUMPDEST PUSH0 PUSH2 0xA7C PUSH1 0x18 DUP4 PUSH2 0x940 JUMP JUMPDEST SWAP2 POP PUSH2 0xA87 DUP3 PUSH2 0xA48 JUMP JUMPDEST PUSH1 0x20 DUP3 ADD SWAP1 POP SWAP2 SWAP1 POP JUMP JUMPDEST PUSH0 PUSH1 0x20 DUP3 ADD SWAP1 POP DUP2 DUP2 SUB PUSH0 DUP4 ADD MSTORE PUSH2 0xAA9 DUP2 PUSH2 0xA70 JUMP JUMPDEST SWAP1 POP SWAP2 SWAP1 POP JUMP JUMPDEST PUSH0 DUP2 SWAP1 POP SWAP3 SWAP2 POP POP JUMP JUMPDEST PUSH0 PUSH2 0xAC4 DUP3 PUSH2 0x936 JUMP JUMPDEST PUSH2 0xACE DUP2 DUP6 PUSH2 0xAB0 JUMP JUMPDEST SWAP4 POP PUSH2 0xADE DUP2 DUP6 PUSH1 0x20 DUP7 ADD PUSH2 0x950 JUMP JUMPDEST DUP1 DUP5 ADD SWAP2 POP POP SWAP3 SWAP2 POP POP JUMP JUMPDEST PUSH0 PUSH2 0xAF5 DUP3 DUP5 PUSH2 0xABA JUMP JUMPDEST SWAP2 POP DUP2 SWAP1 POP SWAP3 SWAP2 POP POP JUMP JUMPDEST PUSH32 0x4E487B7100000000000000000000000000000000000000000000000000000000 PUSH0 MSTORE PUSH1 0x22 PUSH1 0x4 MSTORE PUSH1 0x24 PUSH0 REVERT JUMPDEST PUSH0 PUSH1 0x2 DUP3 DIV SWAP1 POP PUSH1 0x1 DUP3 AND DUP1 PUSH2 0xB44 JUMPI PUSH1 0x7F DUP3 AND SWAP2 POP JUMPDEST PUSH1 0x20 DUP3 LT DUP2 SUB PUSH2 0xB57 JUMPI PUSH2 0xB56 PUSH2 0xB00 JUMP JUMPDEST JUMPDEST POP SWAP2 SWAP1 POP JUMP JUMPDEST PUSH0 DUP2 SWAP1 POP DUP2 PUSH0 MSTORE PUSH1 0x20 PUSH0 KECCAK256 SWAP1 POP SWAP2 SWAP1 POP JUMP JUMPDEST PUSH0 PUSH1 0x20 PUSH1 0x1F DUP4 ADD DIV SWAP1 POP SWAP2 SWAP1 POP JUMP JUMPDEST PUSH0 DUP3 DUP3 SHL SWAP1 POP SWAP3 SWAP2 POP POP JUMP JUMPDEST PUSH0 PUSH1 0x8 DUP4 MUL PUSH2 0xBB9 PUSH32 0xFFFFFFFFFFFFFFFFFFFFFFFFFFFFFFFFFFFFFFFFFFFFFFFFFFFFFFFFFFFFFFFF DUP3 PUSH2 0xB7E JUMP JUMPDEST PUSH2 0xBC3 DUP7 DUP4 PUSH2 0xB7E JUMP JUMPDEST SWAP6 POP DUP1 NOT DUP5 AND SWAP4 POP DUP1 DUP7 AND DUP5 OR SWAP3 POP POP POP SWAP4 SWAP3 POP POP POP JUMP JUMPDEST PUSH0 DUP2 SWAP1 POP SWAP2 SWAP1 POP JUMP JUMPDEST PUSH0 PUSH2 0xBFE PUSH2 0xBF9 PUSH2 0xBF4 DUP5 PUSH2 0x9B6 JUMP JUMPDEST PUSH2 0xBDB JUMP JUMPDEST PUSH2 0x9B6 JUMP JUMPDEST SWAP1 POP SWAP2 SWAP1 POP JUMP JUMPDEST PUSH0 DUP2 SWAP1 POP SWAP2 SWAP1 POP JUMP JUMPDEST PUSH2 0xC17 DUP4 PUSH2 0xBE4 JUMP JUMPDEST PUSH2 0xC2B PUSH2 0xC23 DUP3 PUSH2 0xC05 JUMP JUMPDEST DUP5 DUP5 SLOAD PUSH2 0xB8A JUMP JUMPDEST DUP3 SSTORE POP POP POP POP JUMP JUMPDEST PUSH0 PUSH0 SWAP1 POP SWAP1 JUMP JUMPDEST PUSH2 0xC42 PUSH2 0xC33 JUMP JUMPDEST PUSH2 0xC4D DUP2 DUP5 DUP5 PUSH2 0xC0E JUMP JUMPDEST POP POP POP JUMP JUMPDEST JUMPDEST DUP2 DUP2 LT ISZERO PUSH2 0xC70 JUMPI PUSH2 0xC65 PUSH0 DUP3 PUSH2 0xC3A JUMP JUMPDEST PUSH1 0x1 DUP2 ADD SWAP1 POP PUSH2 0xC53 JUMP JUMPDEST POP POP JUMP JUMPDEST PUSH1 0x1F DUP3 GT ISZERO PUSH2 0xCB5 JUMPI PUSH2 0xC86 DUP2 PUSH2 0xB5D JUMP JUMPDEST PUSH2 0xC8F DUP5 PUSH2 0xB6F JUMP JUMPDEST DUP2 ADD PUSH1 0x20 DUP6 LT ISZERO PUSH2 0xC9E JUMPI DUP2 SWAP1 POP JUMPDEST PUSH2 0xCB2 PUSH2 0xCAA DUP6 PUSH2 0xB6F JUMP JUMPDEST DUP4 ADD DUP3 PUSH2 0xC52 JUMP JUMPDEST POP POP JUMPDEST POP POP POP JUMP JUMPDEST PUSH0 DUP3 DUP3 SHR SWAP1 POP SWAP3 SWAP2 POP POP JUMP JUMPDEST PUSH0 PUSH2 0xCD5 PUSH0 NOT DUP5 PUSH1 0x8 MUL PUSH2 0xCBA JUMP JUMPDEST NOT DUP1 DUP4 AND SWAP2 POP POP SWAP3 SWAP2 POP POP JUMP JUMPDEST PUSH0 PUSH2 0xCED DUP4 DUP4 PUSH2 0xCC6 JUMP JUMPDEST SWAP2 POP DUP3 PUSH1 0x2 MUL DUP3 OR SWAP1 POP SWAP3 SWAP2 POP POP JUMP JUMPDEST PUSH2 0xD06 DUP3 PUSH2 0x936 JUMP JUMPDEST PUSH8 0xFFFFFFFFFFFFFFFF DUP2 GT ISZERO PUSH2 0xD1F JUMPI PUSH2 0xD1E PUSH2 0x7CB JUMP JUMPDEST JUMPDEST PUSH2 0xD29 DUP3 SLOAD PUSH2 0xB2D JUMP JUMPDEST PUSH2 0xD34 DUP3 DUP3 DUP6 PUSH2 0xC74 JUMP JUMPDEST PUSH0 PUSH1 0x20 SWAP1 POP PUSH1 0x1F DUP4 GT PUSH1 0x1 DUP2 EQ PUSH2 0xD65 JUMPI PUSH0 DUP5 ISZERO PUSH2 0xD53 JUMPI DUP3 DUP8 ADD MLOAD SWAP1 POP JUMPDEST PUSH2 0xD5D DUP6 DUP3 PUSH2 0xCE2 JUMP JUMPDEST DUP7 SSTORE POP PUSH2 0xDC4 JUMP JUMPDEST PUSH1 0x1F NOT DUP5 AND PUSH2 0xD73 DUP7 PUSH2 0xB5D JUMP JUMPDEST PUSH0 JUMPDEST DUP3 DUP2 LT ISZERO PUSH2 0xD9A JUMPI DUP5 DUP10 ADD MLOAD DUP3 SSTORE PUSH1 0x1 DUP3 ADD SWAP2 POP PUSH1 0x20 DUP6 ADD SWAP5 POP PUSH1 0x20 DUP2 ADD SWAP1 POP PUSH2 0xD75 JUMP JUMPDEST DUP7 DUP4 LT ISZERO PUSH2 0xDB7 JUMPI DUP5 DUP10 ADD MLOAD PUSH2 0xDB3 PUSH1 0x1F DUP10 AND DUP3 PUSH2 0xCC6 JUMP JUMPDEST DUP4 SSTORE POP JUMPDEST PUSH1 0x1 PUSH1 0x2 DUP9 MUL ADD DUP9 SSTORE POP POP POP JUMPDEST POP POP POP POP POP POP JUMP JUMPDEST PUSH32 0x4E6F20766F746573207965740000000000000000000000000000000000000000 PUSH0 DUP3 ADD MSTORE POP JUMP JUMPDEST PUSH0 PUSH2 0xE00 PUSH1 0xC DUP4 PUSH2 0x940 JUMP JUMPDEST SWAP2 POP PUSH2 0xE0B DUP3 PUSH2 0xDCC JUMP JUMPDEST PUSH1 0x20 DUP3 ADD SWAP1 POP SWAP2 SWAP1 POP JUMP JUMPDEST PUSH0 PUSH1 0x20 DUP3 ADD SWAP1 POP DUP2 DUP2 SUB PUSH0 DUP4 ADD MSTORE PUSH2 0xE2D DUP2 PUSH2 0xDF4 JUMP JUMPDEST SWAP1 POP SWAP2 SWAP1 POP JUMP JUMPDEST PUSH32 0x43616E64696461746520646F6573206E6F742065786973740000000000000000 PUSH0 DUP3 ADD MSTORE POP JUMP JUMPDEST PUSH0 PUSH2 0xE68 PUSH1 0x18 DUP4 PUSH2 0x940 JUMP JUMPDEST SWAP2 POP PUSH2 0xE73 DUP3 PUSH2 0xE34 JUMP JUMPDEST PUSH1 0x20 DUP3 ADD SWAP1 POP SWAP2 SWAP1 POP JUMP JUMPDEST PUSH0 PUSH1 0x20 DUP3 ADD SWAP1 POP DUP2 DUP2 SUB PUSH0 DUP4 ADD MSTORE PUSH2 0xE95 DUP2 PUSH2 0xE5C JUMP JUMPDEST SWAP1 POP SWAP2 SWAP1 POP JUMP JUMPDEST PUSH32 0x4E487B7100000000000000000000000000000000000000000000000000000000 PUSH0 MSTORE PUSH1 0x11 PUSH1 0x4 MSTORE PUSH1 0x24 PUSH0 REVERT JUMPDEST PUSH0 PUSH2 0xED3 DUP3 PUSH2 0x9B6 JUMP JUMPDEST SWAP2 POP PUSH32 0xFFFFFFFFFFFFFFFFFFFFFFFFFFFFFFFFFFFFFFFFFFFFFFFFFFFFFFFFFFFFFFFF DUP3 SUB PUSH2 0xF05 JUMPI PUSH2 0xF04 PUSH2 0xE9C JUMP JUMPDEST JUMPDEST PUSH1 0x1 DUP3 ADD SWAP1 POP SWAP2 SWAP1 POP JUMP JUMPDEST PUSH0 PUSH2 0xF1A DUP3 PUSH2 0x76E JUMP JUMPDEST SWAP2 POP PUSH1 0xFF DUP3 SUB PUSH2 0xF2D JUMPI PUSH2 0xF2C PUSH2 0xE9C JUMP JUMPDEST JUMPDEST PUSH1 0x1 DUP3 ADD SWAP1 POP SWAP2 SWAP1 POP JUMP INVALID LOG2 PUSH5 0x6970667358 0x22 SLT KECCAK256 ISZERO 0xDD 0xBF PUSH5 0x79CA471ED6 PUSH23 0xFCEBE43DF56BBFC3417ABE15ADD2BF71224B1AD7B43B64 PUSH20 0x6F6C634300081E00330000000000000000000000 "
				},
				"gasEstimates": {
					"creation": {
						"codeDepositCost": "790000",
						"executionCost": "25088",
						"totalCost": "815088"
					},
					"external": {
						"addCandidate(string)": "infinite",
						"candidates(string)": "infinite",
						"getCandidateInfo(string)": "infinite",
						"getMaxValue()": "infinite",
						"getTotalVotes()": "2495",
						"isCandidateExit(string)": "infinite",
						"maxValue()": "2425",
						"nameTop()": "infinite",
						"totalVotes()": "2467",
						"vote(string)": "infinite"
					}
				},
				"methodIdentifiers": {
					"addCandidate(string)": "462e91ec",
					"candidates(string)": "c5539cc2",
					"getCandidateInfo(string)": "b61add9a",
					"getMaxValue()": "4c9eb4d4",
					"getTotalVotes()": "9a0e7d66",
					"isCandidateExit(string)": "85453ea7",
					"maxValue()": "94a5c2e4",
					"nameTop()": "4c162f2a",
					"totalVotes()": "0d15fd77",
					"vote(string)": "fc36e15b"
				}
			},
			"storageLayout": {
				"storage": [
					{
						"astId": 11,
						"contract": "contracts/qlds/CandidateManager.sol:CandidateManager",
						"label": "candidates",
						"offset": 0,
						"slot": "0",
						"type": "t_mapping(t_string_memory_ptr,t_struct(Candidate)6_storage)"
					},
					{
						"astId": 14,
						"contract": "contracts/qlds/CandidateManager.sol:CandidateManager",
						"label": "totalVotes",
						"offset": 0,
						"slot": "1",
						"type": "t_uint8"
					},
					{
						"astId": 16,
						"contract": "contracts/qlds/CandidateManager.sol:CandidateManager",
						"label": "maxValue",
						"offset": 0,
						"slot": "2",
						"type": "t_uint256"
					},
					{
						"astId": 18,
						"contract": "contracts/qlds/CandidateManager.sol:CandidateManager",
						"label": "nameTop",
						"offset": 0,
						"slot": "3",
						"type": "t_string_storage"
					}
				],
				"types": {
					"t_mapping(t_string_memory_ptr,t_struct(Candidate)6_storage)": {
						"encoding": "mapping",
						"key": "t_string_memory_ptr",
						"label": "mapping(string => struct CandidateManager.Candidate)",
						"numberOfBytes": "32",
						"value": "t_struct(Candidate)6_storage"
					},
					"t_string_memory_ptr": {
						"encoding": "bytes",
						"label": "string",
						"numberOfBytes": "32"
					},
					"t_string_storage": {
						"encoding": "bytes",
						"label": "string",
						"numberOfBytes": "32"
					},
					"t_struct(Candidate)6_storage": {
						"encoding": "inplace",
						"label": "struct CandidateManager.Candidate",
						"members": [
							{
								"astId": 3,
								"contract": "contracts/qlds/CandidateManager.sol:CandidateManager",
								"label": "name",
								"offset": 0,
								"slot": "0",
								"type": "t_string_storage"
							},
							{
								"astId": 5,
								"contract": "contracts/qlds/CandidateManager.sol:CandidateManager",
								"label": "voteCount",
								"offset": 0,
								"slot": "1",
								"type": "t_uint256"
							}
						],
						"numberOfBytes": "64"
					},
					"t_uint256": {
						"encoding": "inplace",
						"label": "uint256",
						"numberOfBytes": "32"
					},
					"t_uint8": {
						"encoding": "inplace",
						"label": "uint8",
						"numberOfBytes": "1"
					}
				}
			},
			"userdoc": {
				"kind": "user",
				"methods": {},
				"version": 1
			}
		}
	}
}