{
	"contracts/qlds/UserManager.sol": {
		"UserManager": {
			"abi": [
				{
					"inputs": [
						{
							"internalType": "uint256",
							"name": "_id",
							"type": "uint256"
						},
						{
							"internalType": "string",
							"name": "_name",
							"type": "string"
						},
						{
							"internalType": "bool",
							"name": "isVote",
							"type": "bool"
						}
					],
					"name": "addUser",
					"outputs": [],
					"stateMutability": "nonpayable",
					"type": "function"
				},
				{
					"inputs": [
						{
							"internalType": "uint256",
							"name": "_id",
							"type": "uint256"
						}
					],
					"name": "getUserById",
					"outputs": [
						{
							"components": [
								{
									"internalType": "uint256",
									"name": "id",
									"type": "uint256"
								},
								{
									"internalType": "string",
									"name": "name",
									"type": "string"
								},
								{
									"internalType": "address",
									"name": "userAddress",
									"type": "address"
								},
								{
									"internalType": "bool",
									"name": "isVote",
									"type": "bool"
								}
							],
							"internalType": "struct UserManager.User",
							"name": "",
							"type": "tuple"
						}
					],
					"stateMutability": "view",
					"type": "function"
				},
				{
					"inputs": [],
					"name": "getUserCount",
					"outputs": [
						{
							"internalType": "uint8",
							"name": "",
							"type": "uint8"
						}
					],
					"stateMutability": "view",
					"type": "function"
				},
				{
					"inputs": [],
					"name": "userCount",
					"outputs": [
						{
							"internalType": "uint8",
							"name": "",
							"type": "uint8"
						}
					],
					"stateMutability": "view",
					"type": "function"
				},
				{
					"inputs": [
						{
							"internalType": "uint256",
							"name": "",
							"type": "uint256"
						}
					],
					"name": "users",
					"outputs": [
						{
							"internalType": "uint256",
							"name": "id",
							"type": "uint256"
						},
						{
							"internalType": "string",
							"name": "name",
							"type": "string"
						},
						{
							"internalType": "address",
							"name": "userAddress",
							"type": "address"
						},
						{
							"internalType": "bool",
							"name": "isVote",
							"type": "bool"
						}
					],
					"stateMutability": "view",
					"type": "function"
				},
				{
					"inputs": [
						{
							"internalType": "uint256",
							"name": "_idCandidate",
							"type": "uint256"
						}
					],
					"name": "voteCandidate",
					"outputs": [],
					"stateMutability": "nonpayable",
					"type": "function"
				}
			],
			"devdoc": {
				"kind": "dev",
				"methods": {},
				"version": 1
			},
			"evm": {
				"assembly": "    /* \"contracts/qlds/UserManager.sol\":189:1143  contract UserManager{... */\n  mstore(0x40, 0x80)\n    /* \"contracts/qlds/UserManager.sol\":429:430  0 */\n  0x00\n    /* \"contracts/qlds/UserManager.sol\":404:430  uint8 public userCount = 0 */\n  0x01\n  exp(0x0100, 0x00)\n  dup2\n  sload\n  dup2\n  0xff\n  mul\n  not\n  and\n  swap1\n  dup4\n  0xff\n  and\n  mul\n  or\n  swap1\n  sstore\n  pop\n    /* \"contracts/qlds/UserManager.sol\":189:1143  contract UserManager{... */\n  callvalue\n  dup1\n  iszero\n  tag_1\n  jumpi\n  revert(0x00, 0x00)\ntag_1:\n  pop\n  dataSize(sub_0)\n  dup1\n  dataOffset(sub_0)\n  0x00\n  codecopy\n  0x00\n  return\nstop\n\nsub_0: assembly {\n        /* \"contracts/qlds/UserManager.sol\":189:1143  contract UserManager{... */\n      mstore(0x40, 0x80)\n      callvalue\n      dup1\n      iszero\n      tag_1\n      jumpi\n      revert(0x00, 0x00)\n    tag_1:\n      pop\n      jumpi(tag_2, lt(calldatasize, 0x04))\n      shr(0xe0, calldataload(0x00))\n      dup1\n      0x07973ccf\n      eq\n      tag_3\n      jumpi\n      dup1\n      0x365b98b2\n      eq\n      tag_4\n      jumpi\n      dup1\n      0x6ed6da9e\n      eq\n      tag_5\n      jumpi\n      dup1\n      0x8c08a4dc\n      eq\n      tag_6\n      jumpi\n      dup1\n      0xb5cb15f7\n      eq\n      tag_7\n      jumpi\n      dup1\n      0xc7439491\n      eq\n      tag_8\n      jumpi\n    tag_2:\n      revert(0x00, 0x00)\n        /* \"contracts/qlds/UserManager.sol\":404:430  uint8 public userCount = 0 */\n    tag_3:\n      tag_9\n      tag_10\n      jump\t// in\n    tag_9:\n      mload(0x40)\n      tag_11\n      swap2\n      swap1\n      tag_12\n      jump\t// in\n    tag_11:\n      mload(0x40)\n      dup1\n      swap2\n      sub\n      swap1\n      return\n        /* \"contracts/qlds/UserManager.sol\":363:397  mapping(uint => User) public users */\n    tag_4:\n      tag_13\n      0x04\n      dup1\n      calldatasize\n      sub\n      dup2\n      add\n      swap1\n      tag_14\n      swap2\n      swap1\n      tag_15\n      jump\t// in\n    tag_14:\n      tag_16\n      jump\t// in\n    tag_13:\n      mload(0x40)\n      tag_17\n      swap5\n      swap4\n      swap3\n      swap2\n      swap1\n      tag_18\n      jump\t// in\n    tag_17:\n      mload(0x40)\n      dup1\n      swap2\n      sub\n      swap1\n      return\n        /* \"contracts/qlds/UserManager.sol\":775:876  function getUserById(uint _id) public view returns (User memory) {... */\n    tag_5:\n      tag_19\n      0x04\n      dup1\n      calldatasize\n      sub\n      dup2\n      add\n      swap1\n      tag_20\n      swap2\n      swap1\n      tag_15\n      jump\t// in\n    tag_20:\n      tag_21\n      jump\t// in\n    tag_19:\n      mload(0x40)\n      tag_22\n      swap2\n      swap1\n      tag_23\n      jump\t// in\n    tag_22:\n      mload(0x40)\n      dup1\n      swap2\n      sub\n      swap1\n      return\n        /* \"contracts/qlds/UserManager.sol\":919:1093  function voteCandidate(uint _idCandidate) public {... */\n    tag_6:\n      tag_24\n      0x04\n      dup1\n      calldatasize\n      sub\n      dup2\n      add\n      swap1\n      tag_25\n      swap2\n      swap1\n      tag_15\n      jump\t// in\n    tag_25:\n      tag_26\n      jump\t// in\n    tag_24:\n      stop\n        /* \"contracts/qlds/UserManager.sol\":682:769  function getUserCount() public view returns (uint8) {... */\n    tag_7:\n      tag_27\n      tag_28\n      jump\t// in\n    tag_27:\n      mload(0x40)\n      tag_29\n      swap2\n      swap1\n      tag_12\n      jump\t// in\n    tag_29:\n      mload(0x40)\n      dup1\n      swap2\n      sub\n      swap1\n      return\n        /* \"contracts/qlds/UserManager.sol\":437:676  function addUser(uint _id, string memory _name, bool isVote) public {... */\n    tag_8:\n      tag_30\n      0x04\n      dup1\n      calldatasize\n      sub\n      dup2\n      add\n      swap1\n      tag_31\n      swap2\n      swap1\n      tag_32\n      jump\t// in\n    tag_31:\n      tag_33\n      jump\t// in\n    tag_30:\n      stop\n        /* \"contracts/qlds/UserManager.sol\":404:430  uint8 public userCount = 0 */\n    tag_10:\n      0x01\n      0x00\n      swap1\n      sload\n      swap1\n      0x0100\n      exp\n      swap1\n      div\n      0xff\n      and\n      dup2\n      jump\t// out\n        /* \"contracts/qlds/UserManager.sol\":363:397  mapping(uint => User) public users */\n    tag_16:\n      mstore(0x20, 0x00)\n      dup1\n      0x00\n      mstore\n      keccak256(0x00, 0x40)\n      0x00\n      swap2\n      pop\n      swap1\n      pop\n      dup1\n      0x00\n      add\n      sload\n      swap1\n      dup1\n      0x01\n      add\n      dup1\n      sload\n      tag_34\n      swap1\n      tag_35\n      jump\t// in\n    tag_34:\n      dup1\n      0x1f\n      add\n      0x20\n      dup1\n      swap2\n      div\n      mul\n      0x20\n      add\n      mload(0x40)\n      swap1\n      dup2\n      add\n      0x40\n      mstore\n      dup1\n      swap3\n      swap2\n      swap1\n      dup2\n      dup2\n      mstore\n      0x20\n      add\n      dup3\n      dup1\n      sload\n      tag_36\n      swap1\n      tag_35\n      jump\t// in\n    tag_36:\n      dup1\n      iszero\n      tag_37\n      jumpi\n      dup1\n      0x1f\n      lt\n      tag_38\n      jumpi\n      0x0100\n      dup1\n      dup4\n      sload\n      div\n      mul\n      dup4\n      mstore\n      swap2\n      0x20\n      add\n      swap2\n      jump(tag_37)\n    tag_38:\n      dup3\n      add\n      swap2\n      swap1\n      0x00\n      mstore\n      keccak256(0x00, 0x20)\n      swap1\n    tag_39:\n      dup2\n      sload\n      dup2\n      mstore\n      swap1\n      0x01\n      add\n      swap1\n      0x20\n      add\n      dup1\n      dup4\n      gt\n      tag_39\n      jumpi\n      dup3\n      swap1\n      sub\n      0x1f\n      and\n      dup3\n      add\n      swap2\n    tag_37:\n      pop\n      pop\n      pop\n      pop\n      pop\n      swap1\n      dup1\n      0x02\n      add\n      0x00\n      swap1\n      sload\n      swap1\n      0x0100\n      exp\n      swap1\n      div\n      0xffffffffffffffffffffffffffffffffffffffff\n      and\n      swap1\n      dup1\n      0x02\n      add\n      0x14\n      swap1\n      sload\n      swap1\n      0x0100\n      exp\n      swap1\n      div\n      0xff\n      and\n      swap1\n      pop\n      dup5\n      jump\t// out\n        /* \"contracts/qlds/UserManager.sol\":775:876  function getUserById(uint _id) public view returns (User memory) {... */\n    tag_21:\n        /* \"contracts/qlds/UserManager.sol\":827:838  User memory */\n      tag_40\n      tag_41\n      jump\t// in\n    tag_40:\n        /* \"contracts/qlds/UserManager.sol\":858:863  users */\n      0x00\n        /* \"contracts/qlds/UserManager.sol\":858:868  users[_id] */\n      0x00\n        /* \"contracts/qlds/UserManager.sol\":864:867  _id */\n      dup4\n        /* \"contracts/qlds/UserManager.sol\":858:868  users[_id] */\n      dup2\n      mstore\n      0x20\n      add\n      swap1\n      dup2\n      mstore\n      0x20\n      add\n      0x00\n      keccak256\n        /* \"contracts/qlds/UserManager.sol\":851:868  return users[_id] */\n      mload(0x40)\n      dup1\n      0x80\n      add\n      0x40\n      mstore\n      swap1\n      dup2\n      0x00\n      dup3\n      add\n      sload\n      dup2\n      mstore\n      0x20\n      add\n      0x01\n      dup3\n      add\n      dup1\n      sload\n      tag_43\n      swap1\n      tag_35\n      jump\t// in\n    tag_43:\n      dup1\n      0x1f\n      add\n      0x20\n      dup1\n      swap2\n      div\n      mul\n      0x20\n      add\n      mload(0x40)\n      swap1\n      dup2\n      add\n      0x40\n      mstore\n      dup1\n      swap3\n      swap2\n      swap1\n      dup2\n      dup2\n      mstore\n      0x20\n      add\n      dup3\n      dup1\n      sload\n      tag_44\n      swap1\n      tag_35\n      jump\t// in\n    tag_44:\n      dup1\n      iszero\n      tag_45\n      jumpi\n      dup1\n      0x1f\n      lt\n      tag_46\n      jumpi\n      0x0100\n      dup1\n      dup4\n      sload\n      div\n      mul\n      dup4\n      mstore\n      swap2\n      0x20\n      add\n      swap2\n      jump(tag_45)\n    tag_46:\n      dup3\n      add\n      swap2\n      swap1\n      0x00\n      mstore\n      keccak256(0x00, 0x20)\n      swap1\n    tag_47:\n      dup2\n      sload\n      dup2\n      mstore\n      swap1\n      0x01\n      add\n      swap1\n      0x20\n      add\n      dup1\n      dup4\n      gt\n      tag_47\n      jumpi\n      dup3\n      swap1\n      sub\n      0x1f\n      and\n      dup3\n      add\n      swap2\n    tag_45:\n      pop\n      pop\n      pop\n      pop\n      pop\n      dup2\n      mstore\n      0x20\n      add\n      0x02\n      dup3\n      add\n      0x00\n      swap1\n      sload\n      swap1\n      0x0100\n      exp\n      swap1\n      div\n      0xffffffffffffffffffffffffffffffffffffffff\n      and\n      0xffffffffffffffffffffffffffffffffffffffff\n      and\n      0xffffffffffffffffffffffffffffffffffffffff\n      and\n      dup2\n      mstore\n      0x20\n      add\n      0x02\n      dup3\n      add\n      0x14\n      swap1\n      sload\n      swap1\n      0x0100\n      exp\n      swap1\n      div\n      0xff\n      and\n      iszero\n      iszero\n      iszero\n      iszero\n      dup2\n      mstore\n      pop\n      pop\n      swap1\n      pop\n        /* \"contracts/qlds/UserManager.sol\":775:876  function getUserById(uint _id) public view returns (User memory) {... */\n      swap2\n      swap1\n      pop\n      jump\t// out\n        /* \"contracts/qlds/UserManager.sol\":919:1093  function voteCandidate(uint _idCandidate) public {... */\n    tag_26:\n        /* \"contracts/qlds/UserManager.sol\":1017:1021  true */\n      0x01\n        /* \"contracts/qlds/UserManager.sol\":987:1021  users[_idCandidate].isVote == true */\n      iszero\n      iszero\n        /* \"contracts/qlds/UserManager.sol\":987:992  users */\n      0x00\n        /* \"contracts/qlds/UserManager.sol\":987:1006  users[_idCandidate] */\n      0x00\n        /* \"contracts/qlds/UserManager.sol\":993:1005  _idCandidate */\n      dup4\n        /* \"contracts/qlds/UserManager.sol\":987:1006  users[_idCandidate] */\n      dup2\n      mstore\n      0x20\n      add\n      swap1\n      dup2\n      mstore\n      0x20\n      add\n      0x00\n      keccak256\n        /* \"contracts/qlds/UserManager.sol\":987:1013  users[_idCandidate].isVote */\n      0x02\n      add\n      0x14\n      swap1\n      sload\n      swap1\n      0x0100\n      exp\n      swap1\n      div\n      0xff\n      and\n        /* \"contracts/qlds/UserManager.sol\":987:1021  users[_idCandidate].isVote == true */\n      iszero\n      iszero\n      eq\n        /* \"contracts/qlds/UserManager.sol\":979:1040  require(users[_idCandidate].isVote == true, \"User has voted\") */\n      tag_49\n      jumpi\n      mload(0x40)\n      0x08c379a000000000000000000000000000000000000000000000000000000000\n      dup2\n      mstore\n      0x04\n      add\n      tag_50\n      swap1\n      tag_51\n      jump\t// in\n    tag_50:\n      mload(0x40)\n      dup1\n      swap2\n      sub\n      swap1\n      revert\n    tag_49:\n        /* \"contracts/qlds/UserManager.sol\":1080:1085  false */\n      0x00\n        /* \"contracts/qlds/UserManager.sol\":1051:1056  users */\n      0x00\n        /* \"contracts/qlds/UserManager.sol\":1051:1070  users[_idCandidate] */\n      0x00\n        /* \"contracts/qlds/UserManager.sol\":1057:1069  _idCandidate */\n      dup4\n        /* \"contracts/qlds/UserManager.sol\":1051:1070  users[_idCandidate] */\n      dup2\n      mstore\n      0x20\n      add\n      swap1\n      dup2\n      mstore\n      0x20\n      add\n      0x00\n      keccak256\n        /* \"contracts/qlds/UserManager.sol\":1051:1077  users[_idCandidate].isVote */\n      0x02\n      add\n      0x14\n        /* \"contracts/qlds/UserManager.sol\":1051:1085  users[_idCandidate].isVote = false */\n      0x0100\n      exp\n      dup2\n      sload\n      dup2\n      0xff\n      mul\n      not\n      and\n      swap1\n      dup4\n      iszero\n      iszero\n      mul\n      or\n      swap1\n      sstore\n      pop\n        /* \"contracts/qlds/UserManager.sol\":919:1093  function voteCandidate(uint _idCandidate) public {... */\n      pop\n      jump\t// out\n        /* \"contracts/qlds/UserManager.sol\":682:769  function getUserCount() public view returns (uint8) {... */\n    tag_28:\n        /* \"contracts/qlds/UserManager.sol\":727:732  uint8 */\n      0x00\n        /* \"contracts/qlds/UserManager.sol\":752:761  userCount */\n      0x01\n      0x00\n      swap1\n      sload\n      swap1\n      0x0100\n      exp\n      swap1\n      div\n      0xff\n      and\n        /* \"contracts/qlds/UserManager.sol\":745:761  return userCount */\n      swap1\n      pop\n        /* \"contracts/qlds/UserManager.sol\":682:769  function getUserCount() public view returns (uint8) {... */\n      swap1\n      jump\t// out\n        /* \"contracts/qlds/UserManager.sol\":437:676  function addUser(uint _id, string memory _name, bool isVote) public {... */\n    tag_33:\n        /* \"contracts/qlds/UserManager.sol\":558:559  0 */\n      0x00\n        /* \"contracts/qlds/UserManager.sol\":524:560  users[_id].userAddress == address(0) */\n      0xffffffffffffffffffffffffffffffffffffffff\n      and\n        /* \"contracts/qlds/UserManager.sol\":524:529  users */\n      0x00\n        /* \"contracts/qlds/UserManager.sol\":524:534  users[_id] */\n      0x00\n        /* \"contracts/qlds/UserManager.sol\":530:533  _id */\n      dup6\n        /* \"contracts/qlds/UserManager.sol\":524:534  users[_id] */\n      dup2\n      mstore\n      0x20\n      add\n      swap1\n      dup2\n      mstore\n      0x20\n      add\n      0x00\n      keccak256\n        /* \"contracts/qlds/UserManager.sol\":524:546  users[_id].userAddress */\n      0x02\n      add\n      0x00\n      swap1\n      sload\n      swap1\n      0x0100\n      exp\n      swap1\n      div\n      0xffffffffffffffffffffffffffffffffffffffff\n      and\n        /* \"contracts/qlds/UserManager.sol\":524:560  users[_id].userAddress == address(0) */\n      0xffffffffffffffffffffffffffffffffffffffff\n      and\n      eq\n        /* \"contracts/qlds/UserManager.sol\":516:587  require(users[_id].userAddress == address(0), \"User id already exists\") */\n      tag_54\n      jumpi\n      mload(0x40)\n      0x08c379a000000000000000000000000000000000000000000000000000000000\n      dup2\n      mstore\n      0x04\n      add\n      tag_55\n      swap1\n      tag_56\n      jump\t// in\n    tag_55:\n      mload(0x40)\n      dup1\n      swap2\n      sub\n      swap1\n      revert\n    tag_54:\n        /* \"contracts/qlds/UserManager.sol\":611:646  User(_id, _name, msg.sender, false) */\n      mload(0x40)\n      dup1\n      0x80\n      add\n      0x40\n      mstore\n      dup1\n        /* \"contracts/qlds/UserManager.sol\":616:619  _id */\n      dup5\n        /* \"contracts/qlds/UserManager.sol\":611:646  User(_id, _name, msg.sender, false) */\n      dup2\n      mstore\n      0x20\n      add\n        /* \"contracts/qlds/UserManager.sol\":621:626  _name */\n      dup4\n        /* \"contracts/qlds/UserManager.sol\":611:646  User(_id, _name, msg.sender, false) */\n      dup2\n      mstore\n      0x20\n      add\n        /* \"contracts/qlds/UserManager.sol\":628:638  msg.sender */\n      caller\n        /* \"contracts/qlds/UserManager.sol\":611:646  User(_id, _name, msg.sender, false) */\n      0xffffffffffffffffffffffffffffffffffffffff\n      and\n      dup2\n      mstore\n      0x20\n      add\n        /* \"contracts/qlds/UserManager.sol\":640:645  false */\n      0x00\n        /* \"contracts/qlds/UserManager.sol\":611:646  User(_id, _name, msg.sender, false) */\n      iszero\n      iszero\n      dup2\n      mstore\n      pop\n        /* \"contracts/qlds/UserManager.sol\":598:603  users */\n      0x00\n        /* \"contracts/qlds/UserManager.sol\":598:608  users[_id] */\n      0x00\n        /* \"contracts/qlds/UserManager.sol\":604:607  _id */\n      dup6\n        /* \"contracts/qlds/UserManager.sol\":598:608  users[_id] */\n      dup2\n      mstore\n      0x20\n      add\n      swap1\n      dup2\n      mstore\n      0x20\n      add\n      0x00\n      keccak256\n        /* \"contracts/qlds/UserManager.sol\":598:646  users[_id] = User(_id, _name, msg.sender, false) */\n      0x00\n      dup3\n      add\n      mload\n      dup2\n      0x00\n      add\n      sstore\n      0x20\n      dup3\n      add\n      mload\n      dup2\n      0x01\n      add\n      swap1\n      dup2\n      tag_57\n      swap2\n      swap1\n      tag_58\n      jump\t// in\n    tag_57:\n      pop\n      0x40\n      dup3\n      add\n      mload\n      dup2\n      0x02\n      add\n      exp(0x0100, 0x00)\n      dup2\n      sload\n      dup2\n      0xffffffffffffffffffffffffffffffffffffffff\n      mul\n      not\n      and\n      swap1\n      dup4\n      0xffffffffffffffffffffffffffffffffffffffff\n      and\n      mul\n      or\n      swap1\n      sstore\n      pop\n      0x60\n      dup3\n      add\n      mload\n      dup2\n      0x02\n      add\n      exp(0x0100, 0x14)\n      dup2\n      sload\n      dup2\n      0xff\n      mul\n      not\n      and\n      swap1\n      dup4\n      iszero\n      iszero\n      mul\n      or\n      swap1\n      sstore\n      pop\n      swap1\n      pop\n      pop\n        /* \"contracts/qlds/UserManager.sol\":657:666  userCount */\n      0x01\n      0x00\n        /* \"contracts/qlds/UserManager.sol\":657:668  userCount++ */\n      dup2\n      dup2\n      swap1\n      sload\n      swap1\n      0x0100\n      exp\n      swap1\n      div\n      0xff\n      and\n      dup1\n      swap3\n      swap2\n      swap1\n      tag_59\n      swap1\n      tag_60\n      jump\t// in\n    tag_59:\n      swap2\n      swap1\n      0x0100\n      exp\n      dup2\n      sload\n      dup2\n      0xff\n      mul\n      not\n      and\n      swap1\n      dup4\n      0xff\n      and\n      mul\n      or\n      swap1\n      sstore\n      pop\n      pop\n        /* \"contracts/qlds/UserManager.sol\":437:676  function addUser(uint _id, string memory _name, bool isVote) public {... */\n      pop\n      pop\n      pop\n      jump\t// out\n    tag_41:\n      mload(0x40)\n      dup1\n      0x80\n      add\n      0x40\n      mstore\n      dup1\n      0x00\n      dup2\n      mstore\n      0x20\n      add\n      0x60\n      dup2\n      mstore\n      0x20\n      add\n      and(0xffffffffffffffffffffffffffffffffffffffff, 0x00)\n      dup2\n      mstore\n      0x20\n      add\n      iszero(iszero(0x00))\n      dup2\n      mstore\n      pop\n      swap1\n      jump\t// out\n        /* \"#utility.yul\":7:93   */\n    tag_61:\n        /* \"#utility.yul\":42:49   */\n      0x00\n        /* \"#utility.yul\":82:86   */\n      0xff\n        /* \"#utility.yul\":75:80   */\n      dup3\n        /* \"#utility.yul\":71:87   */\n      and\n        /* \"#utility.yul\":60:87   */\n      swap1\n      pop\n        /* \"#utility.yul\":7:93   */\n      swap2\n      swap1\n      pop\n      jump\t// out\n        /* \"#utility.yul\":99:211   */\n    tag_62:\n        /* \"#utility.yul\":182:204   */\n      tag_121\n        /* \"#utility.yul\":198:203   */\n      dup2\n        /* \"#utility.yul\":182:204   */\n      tag_61\n      jump\t// in\n    tag_121:\n        /* \"#utility.yul\":177:180   */\n      dup3\n        /* \"#utility.yul\":170:205   */\n      mstore\n        /* \"#utility.yul\":99:211   */\n      pop\n      pop\n      jump\t// out\n        /* \"#utility.yul\":217:431   */\n    tag_12:\n        /* \"#utility.yul\":306:310   */\n      0x00\n        /* \"#utility.yul\":344:346   */\n      0x20\n        /* \"#utility.yul\":333:342   */\n      dup3\n        /* \"#utility.yul\":329:347   */\n      add\n        /* \"#utility.yul\":321:347   */\n      swap1\n      pop\n        /* \"#utility.yul\":357:424   */\n      tag_123\n        /* \"#utility.yul\":421:422   */\n      0x00\n        /* \"#utility.yul\":410:419   */\n      dup4\n        /* \"#utility.yul\":406:423   */\n      add\n        /* \"#utility.yul\":397:403   */\n      dup5\n        /* \"#utility.yul\":357:424   */\n      tag_62\n      jump\t// in\n    tag_123:\n        /* \"#utility.yul\":217:431   */\n      swap3\n      swap2\n      pop\n      pop\n      jump\t// out\n        /* \"#utility.yul\":437:512   */\n    tag_63:\n        /* \"#utility.yul\":470:476   */\n      0x00\n        /* \"#utility.yul\":503:505   */\n      0x40\n        /* \"#utility.yul\":497:506   */\n      mload\n        /* \"#utility.yul\":487:506   */\n      swap1\n      pop\n        /* \"#utility.yul\":437:512   */\n      swap1\n      jump\t// out\n        /* \"#utility.yul\":518:635   */\n    tag_64:\n        /* \"#utility.yul\":627:628   */\n      0x00\n        /* \"#utility.yul\":624:625   */\n      0x00\n        /* \"#utility.yul\":617:629   */\n      revert\n        /* \"#utility.yul\":641:758   */\n    tag_65:\n        /* \"#utility.yul\":750:751   */\n      0x00\n        /* \"#utility.yul\":747:748   */\n      0x00\n        /* \"#utility.yul\":740:752   */\n      revert\n        /* \"#utility.yul\":764:841   */\n    tag_66:\n        /* \"#utility.yul\":801:808   */\n      0x00\n        /* \"#utility.yul\":830:835   */\n      dup2\n        /* \"#utility.yul\":819:835   */\n      swap1\n      pop\n        /* \"#utility.yul\":764:841   */\n      swap2\n      swap1\n      pop\n      jump\t// out\n        /* \"#utility.yul\":847:969   */\n    tag_67:\n        /* \"#utility.yul\":920:944   */\n      tag_129\n        /* \"#utility.yul\":938:943   */\n      dup2\n        /* \"#utility.yul\":920:944   */\n      tag_66\n      jump\t// in\n    tag_129:\n        /* \"#utility.yul\":913:918   */\n      dup2\n        /* \"#utility.yul\":910:945   */\n      eq\n        /* \"#utility.yul\":900:963   */\n      tag_130\n      jumpi\n        /* \"#utility.yul\":959:960   */\n      0x00\n        /* \"#utility.yul\":956:957   */\n      0x00\n        /* \"#utility.yul\":949:961   */\n      revert\n        /* \"#utility.yul\":900:963   */\n    tag_130:\n        /* \"#utility.yul\":847:969   */\n      pop\n      jump\t// out\n        /* \"#utility.yul\":975:1114   */\n    tag_68:\n        /* \"#utility.yul\":1021:1026   */\n      0x00\n        /* \"#utility.yul\":1059:1065   */\n      dup2\n        /* \"#utility.yul\":1046:1066   */\n      calldataload\n        /* \"#utility.yul\":1037:1066   */\n      swap1\n      pop\n        /* \"#utility.yul\":1075:1108   */\n      tag_132\n        /* \"#utility.yul\":1102:1107   */\n      dup2\n        /* \"#utility.yul\":1075:1108   */\n      tag_67\n      jump\t// in\n    tag_132:\n        /* \"#utility.yul\":975:1114   */\n      swap3\n      swap2\n      pop\n      pop\n      jump\t// out\n        /* \"#utility.yul\":1120:1449   */\n    tag_15:\n        /* \"#utility.yul\":1179:1185   */\n      0x00\n        /* \"#utility.yul\":1228:1230   */\n      0x20\n        /* \"#utility.yul\":1216:1225   */\n      dup3\n        /* \"#utility.yul\":1207:1214   */\n      dup5\n        /* \"#utility.yul\":1203:1226   */\n      sub\n        /* \"#utility.yul\":1199:1231   */\n      slt\n        /* \"#utility.yul\":1196:1315   */\n      iszero\n      tag_134\n      jumpi\n        /* \"#utility.yul\":1234:1313   */\n      tag_135\n      tag_64\n      jump\t// in\n    tag_135:\n        /* \"#utility.yul\":1196:1315   */\n    tag_134:\n        /* \"#utility.yul\":1354:1355   */\n      0x00\n        /* \"#utility.yul\":1379:1432   */\n      tag_136\n        /* \"#utility.yul\":1424:1431   */\n      dup5\n        /* \"#utility.yul\":1415:1421   */\n      dup3\n        /* \"#utility.yul\":1404:1413   */\n      dup6\n        /* \"#utility.yul\":1400:1422   */\n      add\n        /* \"#utility.yul\":1379:1432   */\n      tag_68\n      jump\t// in\n    tag_136:\n        /* \"#utility.yul\":1369:1432   */\n      swap2\n      pop\n        /* \"#utility.yul\":1325:1442   */\n      pop\n        /* \"#utility.yul\":1120:1449   */\n      swap3\n      swap2\n      pop\n      pop\n      jump\t// out\n        /* \"#utility.yul\":1455:1573   */\n    tag_69:\n        /* \"#utility.yul\":1542:1566   */\n      tag_138\n        /* \"#utility.yul\":1560:1565   */\n      dup2\n        /* \"#utility.yul\":1542:1566   */\n      tag_66\n      jump\t// in\n    tag_138:\n        /* \"#utility.yul\":1537:1540   */\n      dup3\n        /* \"#utility.yul\":1530:1567   */\n      mstore\n        /* \"#utility.yul\":1455:1573   */\n      pop\n      pop\n      jump\t// out\n        /* \"#utility.yul\":1579:1678   */\n    tag_70:\n        /* \"#utility.yul\":1631:1637   */\n      0x00\n        /* \"#utility.yul\":1665:1670   */\n      dup2\n        /* \"#utility.yul\":1659:1671   */\n      mload\n        /* \"#utility.yul\":1649:1671   */\n      swap1\n      pop\n        /* \"#utility.yul\":1579:1678   */\n      swap2\n      swap1\n      pop\n      jump\t// out\n        /* \"#utility.yul\":1684:1853   */\n    tag_71:\n        /* \"#utility.yul\":1768:1779   */\n      0x00\n        /* \"#utility.yul\":1802:1808   */\n      dup3\n        /* \"#utility.yul\":1797:1800   */\n      dup3\n        /* \"#utility.yul\":1790:1809   */\n      mstore\n        /* \"#utility.yul\":1842:1846   */\n      0x20\n        /* \"#utility.yul\":1837:1840   */\n      dup3\n        /* \"#utility.yul\":1833:1847   */\n      add\n        /* \"#utility.yul\":1818:1847   */\n      swap1\n      pop\n        /* \"#utility.yul\":1684:1853   */\n      swap3\n      swap2\n      pop\n      pop\n      jump\t// out\n        /* \"#utility.yul\":1859:1998   */\n    tag_72:\n        /* \"#utility.yul\":1948:1954   */\n      dup3\n        /* \"#utility.yul\":1943:1946   */\n      dup2\n        /* \"#utility.yul\":1938:1941   */\n      dup4\n        /* \"#utility.yul\":1932:1955   */\n      mcopy\n        /* \"#utility.yul\":1989:1990   */\n      0x00\n        /* \"#utility.yul\":1980:1986   */\n      dup4\n        /* \"#utility.yul\":1975:1978   */\n      dup4\n        /* \"#utility.yul\":1971:1987   */\n      add\n        /* \"#utility.yul\":1964:1991   */\n      mstore\n        /* \"#utility.yul\":1859:1998   */\n      pop\n      pop\n      pop\n      jump\t// out\n        /* \"#utility.yul\":2004:2106   */\n    tag_73:\n        /* \"#utility.yul\":2045:2051   */\n      0x00\n        /* \"#utility.yul\":2096:2098   */\n      0x1f\n        /* \"#utility.yul\":2092:2099   */\n      not\n        /* \"#utility.yul\":2087:2089   */\n      0x1f\n        /* \"#utility.yul\":2080:2085   */\n      dup4\n        /* \"#utility.yul\":2076:2090   */\n      add\n        /* \"#utility.yul\":2072:2100   */\n      and\n        /* \"#utility.yul\":2062:2100   */\n      swap1\n      pop\n        /* \"#utility.yul\":2004:2106   */\n      swap2\n      swap1\n      pop\n      jump\t// out\n        /* \"#utility.yul\":2112:2489   */\n    tag_74:\n        /* \"#utility.yul\":2200:2203   */\n      0x00\n        /* \"#utility.yul\":2228:2267   */\n      tag_144\n        /* \"#utility.yul\":2261:2266   */\n      dup3\n        /* \"#utility.yul\":2228:2267   */\n      tag_70\n      jump\t// in\n    tag_144:\n        /* \"#utility.yul\":2283:2354   */\n      tag_145\n        /* \"#utility.yul\":2347:2353   */\n      dup2\n        /* \"#utility.yul\":2342:2345   */\n      dup6\n        /* \"#utility.yul\":2283:2354   */\n      tag_71\n      jump\t// in\n    tag_145:\n        /* \"#utility.yul\":2276:2354   */\n      swap4\n      pop\n        /* \"#utility.yul\":2363:2428   */\n      tag_146\n        /* \"#utility.yul\":2421:2427   */\n      dup2\n        /* \"#utility.yul\":2416:2419   */\n      dup6\n        /* \"#utility.yul\":2409:2413   */\n      0x20\n        /* \"#utility.yul\":2402:2407   */\n      dup7\n        /* \"#utility.yul\":2398:2414   */\n      add\n        /* \"#utility.yul\":2363:2428   */\n      tag_72\n      jump\t// in\n    tag_146:\n        /* \"#utility.yul\":2453:2482   */\n      tag_147\n        /* \"#utility.yul\":2475:2481   */\n      dup2\n        /* \"#utility.yul\":2453:2482   */\n      tag_73\n      jump\t// in\n    tag_147:\n        /* \"#utility.yul\":2448:2451   */\n      dup5\n        /* \"#utility.yul\":2444:2483   */\n      add\n        /* \"#utility.yul\":2437:2483   */\n      swap2\n      pop\n        /* \"#utility.yul\":2204:2489   */\n      pop\n        /* \"#utility.yul\":2112:2489   */\n      swap3\n      swap2\n      pop\n      pop\n      jump\t// out\n        /* \"#utility.yul\":2495:2621   */\n    tag_75:\n        /* \"#utility.yul\":2532:2539   */\n      0x00\n        /* \"#utility.yul\":2572:2614   */\n      0xffffffffffffffffffffffffffffffffffffffff\n        /* \"#utility.yul\":2565:2570   */\n      dup3\n        /* \"#utility.yul\":2561:2615   */\n      and\n        /* \"#utility.yul\":2550:2615   */\n      swap1\n      pop\n        /* \"#utility.yul\":2495:2621   */\n      swap2\n      swap1\n      pop\n      jump\t// out\n        /* \"#utility.yul\":2627:2723   */\n    tag_76:\n        /* \"#utility.yul\":2664:2671   */\n      0x00\n        /* \"#utility.yul\":2693:2717   */\n      tag_150\n        /* \"#utility.yul\":2711:2716   */\n      dup3\n        /* \"#utility.yul\":2693:2717   */\n      tag_75\n      jump\t// in\n    tag_150:\n        /* \"#utility.yul\":2682:2717   */\n      swap1\n      pop\n        /* \"#utility.yul\":2627:2723   */\n      swap2\n      swap1\n      pop\n      jump\t// out\n        /* \"#utility.yul\":2729:2847   */\n    tag_77:\n        /* \"#utility.yul\":2816:2840   */\n      tag_152\n        /* \"#utility.yul\":2834:2839   */\n      dup2\n        /* \"#utility.yul\":2816:2840   */\n      tag_76\n      jump\t// in\n    tag_152:\n        /* \"#utility.yul\":2811:2814   */\n      dup3\n        /* \"#utility.yul\":2804:2841   */\n      mstore\n        /* \"#utility.yul\":2729:2847   */\n      pop\n      pop\n      jump\t// out\n        /* \"#utility.yul\":2853:2943   */\n    tag_78:\n        /* \"#utility.yul\":2887:2894   */\n      0x00\n        /* \"#utility.yul\":2930:2935   */\n      dup2\n        /* \"#utility.yul\":2923:2936   */\n      iszero\n        /* \"#utility.yul\":2916:2937   */\n      iszero\n        /* \"#utility.yul\":2905:2937   */\n      swap1\n      pop\n        /* \"#utility.yul\":2853:2943   */\n      swap2\n      swap1\n      pop\n      jump\t// out\n        /* \"#utility.yul\":2949:3058   */\n    tag_79:\n        /* \"#utility.yul\":3030:3051   */\n      tag_155\n        /* \"#utility.yul\":3045:3050   */\n      dup2\n        /* \"#utility.yul\":3030:3051   */\n      tag_78\n      jump\t// in\n    tag_155:\n        /* \"#utility.yul\":3025:3028   */\n      dup3\n        /* \"#utility.yul\":3018:3052   */\n      mstore\n        /* \"#utility.yul\":2949:3058   */\n      pop\n      pop\n      jump\t// out\n        /* \"#utility.yul\":3064:3696   */\n    tag_18:\n        /* \"#utility.yul\":3255:3259   */\n      0x00\n        /* \"#utility.yul\":3293:3296   */\n      0x80\n        /* \"#utility.yul\":3282:3291   */\n      dup3\n        /* \"#utility.yul\":3278:3297   */\n      add\n        /* \"#utility.yul\":3270:3297   */\n      swap1\n      pop\n        /* \"#utility.yul\":3307:3378   */\n      tag_157\n        /* \"#utility.yul\":3375:3376   */\n      0x00\n        /* \"#utility.yul\":3364:3373   */\n      dup4\n        /* \"#utility.yul\":3360:3377   */\n      add\n        /* \"#utility.yul\":3351:3357   */\n      dup8\n        /* \"#utility.yul\":3307:3378   */\n      tag_69\n      jump\t// in\n    tag_157:\n        /* \"#utility.yul\":3425:3434   */\n      dup2\n        /* \"#utility.yul\":3419:3423   */\n      dup2\n        /* \"#utility.yul\":3415:3435   */\n      sub\n        /* \"#utility.yul\":3410:3412   */\n      0x20\n        /* \"#utility.yul\":3399:3408   */\n      dup4\n        /* \"#utility.yul\":3395:3413   */\n      add\n        /* \"#utility.yul\":3388:3436   */\n      mstore\n        /* \"#utility.yul\":3453:3531   */\n      tag_158\n        /* \"#utility.yul\":3526:3530   */\n      dup2\n        /* \"#utility.yul\":3517:3523   */\n      dup7\n        /* \"#utility.yul\":3453:3531   */\n      tag_74\n      jump\t// in\n    tag_158:\n        /* \"#utility.yul\":3445:3531   */\n      swap1\n      pop\n        /* \"#utility.yul\":3541:3613   */\n      tag_159\n        /* \"#utility.yul\":3609:3611   */\n      0x40\n        /* \"#utility.yul\":3598:3607   */\n      dup4\n        /* \"#utility.yul\":3594:3612   */\n      add\n        /* \"#utility.yul\":3585:3591   */\n      dup6\n        /* \"#utility.yul\":3541:3613   */\n      tag_77\n      jump\t// in\n    tag_159:\n        /* \"#utility.yul\":3623:3689   */\n      tag_160\n        /* \"#utility.yul\":3685:3687   */\n      0x60\n        /* \"#utility.yul\":3674:3683   */\n      dup4\n        /* \"#utility.yul\":3670:3688   */\n      add\n        /* \"#utility.yul\":3661:3667   */\n      dup5\n        /* \"#utility.yul\":3623:3689   */\n      tag_79\n      jump\t// in\n    tag_160:\n        /* \"#utility.yul\":3064:3696   */\n      swap6\n      swap5\n      pop\n      pop\n      pop\n      pop\n      pop\n      jump\t// out\n        /* \"#utility.yul\":3702:3810   */\n    tag_80:\n        /* \"#utility.yul\":3779:3803   */\n      tag_162\n        /* \"#utility.yul\":3797:3802   */\n      dup2\n        /* \"#utility.yul\":3779:3803   */\n      tag_66\n      jump\t// in\n    tag_162:\n        /* \"#utility.yul\":3774:3777   */\n      dup3\n        /* \"#utility.yul\":3767:3804   */\n      mstore\n        /* \"#utility.yul\":3702:3810   */\n      pop\n      pop\n      jump\t// out\n        /* \"#utility.yul\":3816:3975   */\n    tag_81:\n        /* \"#utility.yul\":3890:3901   */\n      0x00\n        /* \"#utility.yul\":3924:3930   */\n      dup3\n        /* \"#utility.yul\":3919:3922   */\n      dup3\n        /* \"#utility.yul\":3912:3931   */\n      mstore\n        /* \"#utility.yul\":3964:3968   */\n      0x20\n        /* \"#utility.yul\":3959:3962   */\n      dup3\n        /* \"#utility.yul\":3955:3969   */\n      add\n        /* \"#utility.yul\":3940:3969   */\n      swap1\n      pop\n        /* \"#utility.yul\":3816:3975   */\n      swap3\n      swap2\n      pop\n      pop\n      jump\t// out\n        /* \"#utility.yul\":3981:4338   */\n    tag_82:\n        /* \"#utility.yul\":4059:4062   */\n      0x00\n        /* \"#utility.yul\":4087:4126   */\n      tag_165\n        /* \"#utility.yul\":4120:4125   */\n      dup3\n        /* \"#utility.yul\":4087:4126   */\n      tag_70\n      jump\t// in\n    tag_165:\n        /* \"#utility.yul\":4142:4203   */\n      tag_166\n        /* \"#utility.yul\":4196:4202   */\n      dup2\n        /* \"#utility.yul\":4191:4194   */\n      dup6\n        /* \"#utility.yul\":4142:4203   */\n      tag_81\n      jump\t// in\n    tag_166:\n        /* \"#utility.yul\":4135:4203   */\n      swap4\n      pop\n        /* \"#utility.yul\":4212:4277   */\n      tag_167\n        /* \"#utility.yul\":4270:4276   */\n      dup2\n        /* \"#utility.yul\":4265:4268   */\n      dup6\n        /* \"#utility.yul\":4258:4262   */\n      0x20\n        /* \"#utility.yul\":4251:4256   */\n      dup7\n        /* \"#utility.yul\":4247:4263   */\n      add\n        /* \"#utility.yul\":4212:4277   */\n      tag_72\n      jump\t// in\n    tag_167:\n        /* \"#utility.yul\":4302:4331   */\n      tag_168\n        /* \"#utility.yul\":4324:4330   */\n      dup2\n        /* \"#utility.yul\":4302:4331   */\n      tag_73\n      jump\t// in\n    tag_168:\n        /* \"#utility.yul\":4297:4300   */\n      dup5\n        /* \"#utility.yul\":4293:4332   */\n      add\n        /* \"#utility.yul\":4286:4332   */\n      swap2\n      pop\n        /* \"#utility.yul\":4063:4338   */\n      pop\n        /* \"#utility.yul\":3981:4338   */\n      swap3\n      swap2\n      pop\n      pop\n      jump\t// out\n        /* \"#utility.yul\":4344:4452   */\n    tag_83:\n        /* \"#utility.yul\":4421:4445   */\n      tag_170\n        /* \"#utility.yul\":4439:4444   */\n      dup2\n        /* \"#utility.yul\":4421:4445   */\n      tag_76\n      jump\t// in\n    tag_170:\n        /* \"#utility.yul\":4416:4419   */\n      dup3\n        /* \"#utility.yul\":4409:4446   */\n      mstore\n        /* \"#utility.yul\":4344:4452   */\n      pop\n      pop\n      jump\t// out\n        /* \"#utility.yul\":4458:4557   */\n    tag_84:\n        /* \"#utility.yul\":4529:4550   */\n      tag_172\n        /* \"#utility.yul\":4544:4549   */\n      dup2\n        /* \"#utility.yul\":4529:4550   */\n      tag_78\n      jump\t// in\n    tag_172:\n        /* \"#utility.yul\":4524:4527   */\n      dup3\n        /* \"#utility.yul\":4517:4551   */\n      mstore\n        /* \"#utility.yul\":4458:4557   */\n      pop\n      pop\n      jump\t// out\n        /* \"#utility.yul\":4621:5566   */\n    tag_85:\n        /* \"#utility.yul\":4730:4733   */\n      0x00\n        /* \"#utility.yul\":4766:4770   */\n      0x80\n        /* \"#utility.yul\":4761:4764   */\n      dup4\n        /* \"#utility.yul\":4757:4771   */\n      add\n        /* \"#utility.yul\":4851:4855   */\n      0x00\n        /* \"#utility.yul\":4844:4849   */\n      dup4\n        /* \"#utility.yul\":4840:4856   */\n      add\n        /* \"#utility.yul\":4834:4857   */\n      mload\n        /* \"#utility.yul\":4870:4933   */\n      tag_174\n        /* \"#utility.yul\":4927:4931   */\n      0x00\n        /* \"#utility.yul\":4922:4925   */\n      dup7\n        /* \"#utility.yul\":4918:4932   */\n      add\n        /* \"#utility.yul\":4904:4916   */\n      dup3\n        /* \"#utility.yul\":4870:4933   */\n      tag_80\n      jump\t// in\n    tag_174:\n        /* \"#utility.yul\":4781:4943   */\n      pop\n        /* \"#utility.yul\":5025:5029   */\n      0x20\n        /* \"#utility.yul\":5018:5023   */\n      dup4\n        /* \"#utility.yul\":5014:5030   */\n      add\n        /* \"#utility.yul\":5008:5031   */\n      mload\n        /* \"#utility.yul\":5078:5081   */\n      dup5\n        /* \"#utility.yul\":5072:5076   */\n      dup3\n        /* \"#utility.yul\":5068:5082   */\n      sub\n        /* \"#utility.yul\":5061:5065   */\n      0x20\n        /* \"#utility.yul\":5056:5059   */\n      dup7\n        /* \"#utility.yul\":5052:5066   */\n      add\n        /* \"#utility.yul\":5045:5083   */\n      mstore\n        /* \"#utility.yul\":5104:5177   */\n      tag_175\n        /* \"#utility.yul\":5172:5176   */\n      dup3\n        /* \"#utility.yul\":5158:5170   */\n      dup3\n        /* \"#utility.yul\":5104:5177   */\n      tag_82\n      jump\t// in\n    tag_175:\n        /* \"#utility.yul\":5096:5177   */\n      swap2\n      pop\n        /* \"#utility.yul\":4953:5188   */\n      pop\n        /* \"#utility.yul\":5277:5281   */\n      0x40\n        /* \"#utility.yul\":5270:5275   */\n      dup4\n        /* \"#utility.yul\":5266:5282   */\n      add\n        /* \"#utility.yul\":5260:5283   */\n      mload\n        /* \"#utility.yul\":5296:5359   */\n      tag_176\n        /* \"#utility.yul\":5353:5357   */\n      0x40\n        /* \"#utility.yul\":5348:5351   */\n      dup7\n        /* \"#utility.yul\":5344:5358   */\n      add\n        /* \"#utility.yul\":5330:5342   */\n      dup3\n        /* \"#utility.yul\":5296:5359   */\n      tag_83\n      jump\t// in\n    tag_176:\n        /* \"#utility.yul\":5198:5369   */\n      pop\n        /* \"#utility.yul\":5453:5457   */\n      0x60\n        /* \"#utility.yul\":5446:5451   */\n      dup4\n        /* \"#utility.yul\":5442:5458   */\n      add\n        /* \"#utility.yul\":5436:5459   */\n      mload\n        /* \"#utility.yul\":5472:5529   */\n      tag_177\n        /* \"#utility.yul\":5523:5527   */\n      0x60\n        /* \"#utility.yul\":5518:5521   */\n      dup7\n        /* \"#utility.yul\":5514:5528   */\n      add\n        /* \"#utility.yul\":5500:5512   */\n      dup3\n        /* \"#utility.yul\":5472:5529   */\n      tag_84\n      jump\t// in\n    tag_177:\n        /* \"#utility.yul\":5379:5539   */\n      pop\n        /* \"#utility.yul\":5556:5560   */\n      dup1\n        /* \"#utility.yul\":5549:5560   */\n      swap2\n      pop\n        /* \"#utility.yul\":4735:5566   */\n      pop\n        /* \"#utility.yul\":4621:5566   */\n      swap3\n      swap2\n      pop\n      pop\n      jump\t// out\n        /* \"#utility.yul\":5572:5925   */\n    tag_23:\n        /* \"#utility.yul\":5705:5709   */\n      0x00\n        /* \"#utility.yul\":5743:5745   */\n      0x20\n        /* \"#utility.yul\":5732:5741   */\n      dup3\n        /* \"#utility.yul\":5728:5746   */\n      add\n        /* \"#utility.yul\":5720:5746   */\n      swap1\n      pop\n        /* \"#utility.yul\":5792:5801   */\n      dup2\n        /* \"#utility.yul\":5786:5790   */\n      dup2\n        /* \"#utility.yul\":5782:5802   */\n      sub\n        /* \"#utility.yul\":5778:5779   */\n      0x00\n        /* \"#utility.yul\":5767:5776   */\n      dup4\n        /* \"#utility.yul\":5763:5780   */\n      add\n        /* \"#utility.yul\":5756:5803   */\n      mstore\n        /* \"#utility.yul\":5820:5918   */\n      tag_179\n        /* \"#utility.yul\":5913:5917   */\n      dup2\n        /* \"#utility.yul\":5904:5910   */\n      dup5\n        /* \"#utility.yul\":5820:5918   */\n      tag_85\n      jump\t// in\n    tag_179:\n        /* \"#utility.yul\":5812:5918   */\n      swap1\n      pop\n        /* \"#utility.yul\":5572:5925   */\n      swap3\n      swap2\n      pop\n      pop\n      jump\t// out\n        /* \"#utility.yul\":5931:6048   */\n    tag_86:\n        /* \"#utility.yul\":6040:6041   */\n      0x00\n        /* \"#utility.yul\":6037:6038   */\n      0x00\n        /* \"#utility.yul\":6030:6042   */\n      revert\n        /* \"#utility.yul\":6054:6171   */\n    tag_87:\n        /* \"#utility.yul\":6163:6164   */\n      0x00\n        /* \"#utility.yul\":6160:6161   */\n      0x00\n        /* \"#utility.yul\":6153:6165   */\n      revert\n        /* \"#utility.yul\":6177:6357   */\n    tag_88:\n        /* \"#utility.yul\":6225:6302   */\n      0x4e487b7100000000000000000000000000000000000000000000000000000000\n        /* \"#utility.yul\":6222:6223   */\n      0x00\n        /* \"#utility.yul\":6215:6303   */\n      mstore\n        /* \"#utility.yul\":6322:6326   */\n      0x41\n        /* \"#utility.yul\":6319:6320   */\n      0x04\n        /* \"#utility.yul\":6312:6327   */\n      mstore\n        /* \"#utility.yul\":6346:6350   */\n      0x24\n        /* \"#utility.yul\":6343:6344   */\n      0x00\n        /* \"#utility.yul\":6336:6351   */\n      revert\n        /* \"#utility.yul\":6363:6644   */\n    tag_89:\n        /* \"#utility.yul\":6446:6473   */\n      tag_184\n        /* \"#utility.yul\":6468:6472   */\n      dup3\n        /* \"#utility.yul\":6446:6473   */\n      tag_73\n      jump\t// in\n    tag_184:\n        /* \"#utility.yul\":6438:6444   */\n      dup2\n        /* \"#utility.yul\":6434:6474   */\n      add\n        /* \"#utility.yul\":6576:6582   */\n      dup2\n        /* \"#utility.yul\":6564:6574   */\n      dup2\n        /* \"#utility.yul\":6561:6583   */\n      lt\n        /* \"#utility.yul\":6540:6558   */\n      0xffffffffffffffff\n        /* \"#utility.yul\":6528:6538   */\n      dup3\n        /* \"#utility.yul\":6525:6559   */\n      gt\n        /* \"#utility.yul\":6522:6584   */\n      or\n        /* \"#utility.yul\":6519:6607   */\n      iszero\n      tag_185\n      jumpi\n        /* \"#utility.yul\":6587:6605   */\n      tag_186\n      tag_88\n      jump\t// in\n    tag_186:\n        /* \"#utility.yul\":6519:6607   */\n    tag_185:\n        /* \"#utility.yul\":6627:6637   */\n      dup1\n        /* \"#utility.yul\":6623:6625   */\n      0x40\n        /* \"#utility.yul\":6616:6638   */\n      mstore\n        /* \"#utility.yul\":6406:6644   */\n      pop\n        /* \"#utility.yul\":6363:6644   */\n      pop\n      pop\n      jump\t// out\n        /* \"#utility.yul\":6650:6779   */\n    tag_90:\n        /* \"#utility.yul\":6684:6690   */\n      0x00\n        /* \"#utility.yul\":6711:6731   */\n      tag_188\n      tag_63\n      jump\t// in\n    tag_188:\n        /* \"#utility.yul\":6701:6731   */\n      swap1\n      pop\n        /* \"#utility.yul\":6740:6773   */\n      tag_189\n        /* \"#utility.yul\":6768:6772   */\n      dup3\n        /* \"#utility.yul\":6760:6766   */\n      dup3\n        /* \"#utility.yul\":6740:6773   */\n      tag_89\n      jump\t// in\n    tag_189:\n        /* \"#utility.yul\":6650:6779   */\n      swap2\n      swap1\n      pop\n      jump\t// out\n        /* \"#utility.yul\":6785:7093   */\n    tag_91:\n        /* \"#utility.yul\":6847:6851   */\n      0x00\n        /* \"#utility.yul\":6937:6955   */\n      0xffffffffffffffff\n        /* \"#utility.yul\":6929:6935   */\n      dup3\n        /* \"#utility.yul\":6926:6956   */\n      gt\n        /* \"#utility.yul\":6923:6979   */\n      iszero\n      tag_191\n      jumpi\n        /* \"#utility.yul\":6959:6977   */\n      tag_192\n      tag_88\n      jump\t// in\n    tag_192:\n        /* \"#utility.yul\":6923:6979   */\n    tag_191:\n        /* \"#utility.yul\":6997:7026   */\n      tag_193\n        /* \"#utility.yul\":7019:7025   */\n      dup3\n        /* \"#utility.yul\":6997:7026   */\n      tag_73\n      jump\t// in\n    tag_193:\n        /* \"#utility.yul\":6989:7026   */\n      swap1\n      pop\n        /* \"#utility.yul\":7081:7085   */\n      0x20\n        /* \"#utility.yul\":7075:7079   */\n      dup2\n        /* \"#utility.yul\":7071:7086   */\n      add\n        /* \"#utility.yul\":7063:7086   */\n      swap1\n      pop\n        /* \"#utility.yul\":6785:7093   */\n      swap2\n      swap1\n      pop\n      jump\t// out\n        /* \"#utility.yul\":7099:7247   */\n    tag_92:\n        /* \"#utility.yul\":7197:7203   */\n      dup3\n        /* \"#utility.yul\":7192:7195   */\n      dup2\n        /* \"#utility.yul\":7187:7190   */\n      dup4\n        /* \"#utility.yul\":7174:7204   */\n      calldatacopy\n        /* \"#utility.yul\":7238:7239   */\n      0x00\n        /* \"#utility.yul\":7229:7235   */\n      dup4\n        /* \"#utility.yul\":7224:7227   */\n      dup4\n        /* \"#utility.yul\":7220:7236   */\n      add\n        /* \"#utility.yul\":7213:7240   */\n      mstore\n        /* \"#utility.yul\":7099:7247   */\n      pop\n      pop\n      pop\n      jump\t// out\n        /* \"#utility.yul\":7253:7678   */\n    tag_93:\n        /* \"#utility.yul\":7331:7336   */\n      0x00\n        /* \"#utility.yul\":7356:7422   */\n      tag_196\n        /* \"#utility.yul\":7372:7421   */\n      tag_197\n        /* \"#utility.yul\":7414:7420   */\n      dup5\n        /* \"#utility.yul\":7372:7421   */\n      tag_91\n      jump\t// in\n    tag_197:\n        /* \"#utility.yul\":7356:7422   */\n      tag_90\n      jump\t// in\n    tag_196:\n        /* \"#utility.yul\":7347:7422   */\n      swap1\n      pop\n        /* \"#utility.yul\":7445:7451   */\n      dup3\n        /* \"#utility.yul\":7438:7443   */\n      dup2\n        /* \"#utility.yul\":7431:7452   */\n      mstore\n        /* \"#utility.yul\":7483:7487   */\n      0x20\n        /* \"#utility.yul\":7476:7481   */\n      dup2\n        /* \"#utility.yul\":7472:7488   */\n      add\n        /* \"#utility.yul\":7521:7524   */\n      dup5\n        /* \"#utility.yul\":7512:7518   */\n      dup5\n        /* \"#utility.yul\":7507:7510   */\n      dup5\n        /* \"#utility.yul\":7503:7519   */\n      add\n        /* \"#utility.yul\":7500:7525   */\n      gt\n        /* \"#utility.yul\":7497:7609   */\n      iszero\n      tag_198\n      jumpi\n        /* \"#utility.yul\":7528:7607   */\n      tag_199\n      tag_87\n      jump\t// in\n    tag_199:\n        /* \"#utility.yul\":7497:7609   */\n    tag_198:\n        /* \"#utility.yul\":7618:7672   */\n      tag_200\n        /* \"#utility.yul\":7665:7671   */\n      dup5\n        /* \"#utility.yul\":7660:7663   */\n      dup3\n        /* \"#utility.yul\":7655:7658   */\n      dup6\n        /* \"#utility.yul\":7618:7672   */\n      tag_92\n      jump\t// in\n    tag_200:\n        /* \"#utility.yul\":7337:7678   */\n      pop\n        /* \"#utility.yul\":7253:7678   */\n      swap4\n      swap3\n      pop\n      pop\n      pop\n      jump\t// out\n        /* \"#utility.yul\":7698:8038   */\n    tag_94:\n        /* \"#utility.yul\":7754:7759   */\n      0x00\n        /* \"#utility.yul\":7803:7806   */\n      dup3\n        /* \"#utility.yul\":7796:7800   */\n      0x1f\n        /* \"#utility.yul\":7788:7794   */\n      dup4\n        /* \"#utility.yul\":7784:7801   */\n      add\n        /* \"#utility.yul\":7780:7807   */\n      slt\n        /* \"#utility.yul\":7770:7892   */\n      tag_202\n      jumpi\n        /* \"#utility.yul\":7811:7890   */\n      tag_203\n      tag_86\n      jump\t// in\n    tag_203:\n        /* \"#utility.yul\":7770:7892   */\n    tag_202:\n        /* \"#utility.yul\":7928:7934   */\n      dup2\n        /* \"#utility.yul\":7915:7935   */\n      calldataload\n        /* \"#utility.yul\":7953:8032   */\n      tag_204\n        /* \"#utility.yul\":8028:8031   */\n      dup5\n        /* \"#utility.yul\":8020:8026   */\n      dup3\n        /* \"#utility.yul\":8013:8017   */\n      0x20\n        /* \"#utility.yul\":8005:8011   */\n      dup7\n        /* \"#utility.yul\":8001:8018   */\n      add\n        /* \"#utility.yul\":7953:8032   */\n      tag_93\n      jump\t// in\n    tag_204:\n        /* \"#utility.yul\":7944:8032   */\n      swap2\n      pop\n        /* \"#utility.yul\":7760:8038   */\n      pop\n        /* \"#utility.yul\":7698:8038   */\n      swap3\n      swap2\n      pop\n      pop\n      jump\t// out\n        /* \"#utility.yul\":8044:8160   */\n    tag_95:\n        /* \"#utility.yul\":8114:8135   */\n      tag_206\n        /* \"#utility.yul\":8129:8134   */\n      dup2\n        /* \"#utility.yul\":8114:8135   */\n      tag_78\n      jump\t// in\n    tag_206:\n        /* \"#utility.yul\":8107:8112   */\n      dup2\n        /* \"#utility.yul\":8104:8136   */\n      eq\n        /* \"#utility.yul\":8094:8154   */\n      tag_207\n      jumpi\n        /* \"#utility.yul\":8150:8151   */\n      0x00\n        /* \"#utility.yul\":8147:8148   */\n      0x00\n        /* \"#utility.yul\":8140:8152   */\n      revert\n        /* \"#utility.yul\":8094:8154   */\n    tag_207:\n        /* \"#utility.yul\":8044:8160   */\n      pop\n      jump\t// out\n        /* \"#utility.yul\":8166:8299   */\n    tag_96:\n        /* \"#utility.yul\":8209:8214   */\n      0x00\n        /* \"#utility.yul\":8247:8253   */\n      dup2\n        /* \"#utility.yul\":8234:8254   */\n      calldataload\n        /* \"#utility.yul\":8225:8254   */\n      swap1\n      pop\n        /* \"#utility.yul\":8263:8293   */\n      tag_209\n        /* \"#utility.yul\":8287:8292   */\n      dup2\n        /* \"#utility.yul\":8263:8293   */\n      tag_95\n      jump\t// in\n    tag_209:\n        /* \"#utility.yul\":8166:8299   */\n      swap3\n      swap2\n      pop\n      pop\n      jump\t// out\n        /* \"#utility.yul\":8305:9098   */\n    tag_32:\n        /* \"#utility.yul\":8389:8395   */\n      0x00\n        /* \"#utility.yul\":8397:8403   */\n      0x00\n        /* \"#utility.yul\":8405:8411   */\n      0x00\n        /* \"#utility.yul\":8454:8456   */\n      0x60\n        /* \"#utility.yul\":8442:8451   */\n      dup5\n        /* \"#utility.yul\":8433:8440   */\n      dup7\n        /* \"#utility.yul\":8429:8452   */\n      sub\n        /* \"#utility.yul\":8425:8457   */\n      slt\n        /* \"#utility.yul\":8422:8541   */\n      iszero\n      tag_211\n      jumpi\n        /* \"#utility.yul\":8460:8539   */\n      tag_212\n      tag_64\n      jump\t// in\n    tag_212:\n        /* \"#utility.yul\":8422:8541   */\n    tag_211:\n        /* \"#utility.yul\":8580:8581   */\n      0x00\n        /* \"#utility.yul\":8605:8658   */\n      tag_213\n        /* \"#utility.yul\":8650:8657   */\n      dup7\n        /* \"#utility.yul\":8641:8647   */\n      dup3\n        /* \"#utility.yul\":8630:8639   */\n      dup8\n        /* \"#utility.yul\":8626:8648   */\n      add\n        /* \"#utility.yul\":8605:8658   */\n      tag_68\n      jump\t// in\n    tag_213:\n        /* \"#utility.yul\":8595:8658   */\n      swap4\n      pop\n        /* \"#utility.yul\":8551:8668   */\n      pop\n        /* \"#utility.yul\":8735:8737   */\n      0x20\n        /* \"#utility.yul\":8724:8733   */\n      dup5\n        /* \"#utility.yul\":8720:8738   */\n      add\n        /* \"#utility.yul\":8707:8739   */\n      calldataload\n        /* \"#utility.yul\":8766:8784   */\n      0xffffffffffffffff\n        /* \"#utility.yul\":8758:8764   */\n      dup2\n        /* \"#utility.yul\":8755:8785   */\n      gt\n        /* \"#utility.yul\":8752:8869   */\n      iszero\n      tag_214\n      jumpi\n        /* \"#utility.yul\":8788:8867   */\n      tag_215\n      tag_65\n      jump\t// in\n    tag_215:\n        /* \"#utility.yul\":8752:8869   */\n    tag_214:\n        /* \"#utility.yul\":8893:8956   */\n      tag_216\n        /* \"#utility.yul\":8948:8955   */\n      dup7\n        /* \"#utility.yul\":8939:8945   */\n      dup3\n        /* \"#utility.yul\":8928:8937   */\n      dup8\n        /* \"#utility.yul\":8924:8946   */\n      add\n        /* \"#utility.yul\":8893:8956   */\n      tag_94\n      jump\t// in\n    tag_216:\n        /* \"#utility.yul\":8883:8956   */\n      swap3\n      pop\n        /* \"#utility.yul\":8678:8966   */\n      pop\n        /* \"#utility.yul\":9005:9007   */\n      0x40\n        /* \"#utility.yul\":9031:9081   */\n      tag_217\n        /* \"#utility.yul\":9073:9080   */\n      dup7\n        /* \"#utility.yul\":9064:9070   */\n      dup3\n        /* \"#utility.yul\":9053:9062   */\n      dup8\n        /* \"#utility.yul\":9049:9071   */\n      add\n        /* \"#utility.yul\":9031:9081   */\n      tag_96\n      jump\t// in\n    tag_217:\n        /* \"#utility.yul\":9021:9081   */\n      swap2\n      pop\n        /* \"#utility.yul\":8976:9091   */\n      pop\n        /* \"#utility.yul\":8305:9098   */\n      swap3\n      pop\n      swap3\n      pop\n      swap3\n      jump\t// out\n        /* \"#utility.yul\":9104:9284   */\n    tag_97:\n        /* \"#utility.yul\":9152:9229   */\n      0x4e487b7100000000000000000000000000000000000000000000000000000000\n        /* \"#utility.yul\":9149:9150   */\n      0x00\n        /* \"#utility.yul\":9142:9230   */\n      mstore\n        /* \"#utility.yul\":9249:9253   */\n      0x22\n        /* \"#utility.yul\":9246:9247   */\n      0x04\n        /* \"#utility.yul\":9239:9254   */\n      mstore\n        /* \"#utility.yul\":9273:9277   */\n      0x24\n        /* \"#utility.yul\":9270:9271   */\n      0x00\n        /* \"#utility.yul\":9263:9278   */\n      revert\n        /* \"#utility.yul\":9290:9610   */\n    tag_35:\n        /* \"#utility.yul\":9334:9340   */\n      0x00\n        /* \"#utility.yul\":9371:9372   */\n      0x02\n        /* \"#utility.yul\":9365:9369   */\n      dup3\n        /* \"#utility.yul\":9361:9373   */\n      div\n        /* \"#utility.yul\":9351:9373   */\n      swap1\n      pop\n        /* \"#utility.yul\":9418:9419   */\n      0x01\n        /* \"#utility.yul\":9412:9416   */\n      dup3\n        /* \"#utility.yul\":9408:9420   */\n      and\n        /* \"#utility.yul\":9439:9457   */\n      dup1\n        /* \"#utility.yul\":9429:9510   */\n      tag_220\n      jumpi\n        /* \"#utility.yul\":9495:9499   */\n      0x7f\n        /* \"#utility.yul\":9487:9493   */\n      dup3\n        /* \"#utility.yul\":9483:9500   */\n      and\n        /* \"#utility.yul\":9473:9500   */\n      swap2\n      pop\n        /* \"#utility.yul\":9429:9510   */\n    tag_220:\n        /* \"#utility.yul\":9557:9559   */\n      0x20\n        /* \"#utility.yul\":9549:9555   */\n      dup3\n        /* \"#utility.yul\":9546:9560   */\n      lt\n        /* \"#utility.yul\":9526:9544   */\n      dup2\n        /* \"#utility.yul\":9523:9561   */\n      sub\n        /* \"#utility.yul\":9520:9604   */\n      tag_221\n      jumpi\n        /* \"#utility.yul\":9576:9594   */\n      tag_222\n      tag_97\n      jump\t// in\n    tag_222:\n        /* \"#utility.yul\":9520:9604   */\n    tag_221:\n        /* \"#utility.yul\":9341:9610   */\n      pop\n        /* \"#utility.yul\":9290:9610   */\n      swap2\n      swap1\n      pop\n      jump\t// out\n        /* \"#utility.yul\":9616:9780   */\n    tag_98:\n        /* \"#utility.yul\":9756:9772   */\n      0x557365722068617320766f746564000000000000000000000000000000000000\n        /* \"#utility.yul\":9752:9753   */\n      0x00\n        /* \"#utility.yul\":9744:9750   */\n      dup3\n        /* \"#utility.yul\":9740:9754   */\n      add\n        /* \"#utility.yul\":9733:9773   */\n      mstore\n        /* \"#utility.yul\":9616:9780   */\n      pop\n      jump\t// out\n        /* \"#utility.yul\":9786:10152   */\n    tag_99:\n        /* \"#utility.yul\":9928:9931   */\n      0x00\n        /* \"#utility.yul\":9949:10016   */\n      tag_225\n        /* \"#utility.yul\":10013:10015   */\n      0x0e\n        /* \"#utility.yul\":10008:10011   */\n      dup4\n        /* \"#utility.yul\":9949:10016   */\n      tag_71\n      jump\t// in\n    tag_225:\n        /* \"#utility.yul\":9942:10016   */\n      swap2\n      pop\n        /* \"#utility.yul\":10025:10118   */\n      tag_226\n        /* \"#utility.yul\":10114:10117   */\n      dup3\n        /* \"#utility.yul\":10025:10118   */\n      tag_98\n      jump\t// in\n    tag_226:\n        /* \"#utility.yul\":10143:10145   */\n      0x20\n        /* \"#utility.yul\":10138:10141   */\n      dup3\n        /* \"#utility.yul\":10134:10146   */\n      add\n        /* \"#utility.yul\":10127:10146   */\n      swap1\n      pop\n        /* \"#utility.yul\":9786:10152   */\n      swap2\n      swap1\n      pop\n      jump\t// out\n        /* \"#utility.yul\":10158:10577   */\n    tag_51:\n        /* \"#utility.yul\":10324:10328   */\n      0x00\n        /* \"#utility.yul\":10362:10364   */\n      0x20\n        /* \"#utility.yul\":10351:10360   */\n      dup3\n        /* \"#utility.yul\":10347:10365   */\n      add\n        /* \"#utility.yul\":10339:10365   */\n      swap1\n      pop\n        /* \"#utility.yul\":10411:10420   */\n      dup2\n        /* \"#utility.yul\":10405:10409   */\n      dup2\n        /* \"#utility.yul\":10401:10421   */\n      sub\n        /* \"#utility.yul\":10397:10398   */\n      0x00\n        /* \"#utility.yul\":10386:10395   */\n      dup4\n        /* \"#utility.yul\":10382:10399   */\n      add\n        /* \"#utility.yul\":10375:10422   */\n      mstore\n        /* \"#utility.yul\":10439:10570   */\n      tag_228\n        /* \"#utility.yul\":10565:10569   */\n      dup2\n        /* \"#utility.yul\":10439:10570   */\n      tag_99\n      jump\t// in\n    tag_228:\n        /* \"#utility.yul\":10431:10570   */\n      swap1\n      pop\n        /* \"#utility.yul\":10158:10577   */\n      swap2\n      swap1\n      pop\n      jump\t// out\n        /* \"#utility.yul\":10583:10755   */\n    tag_100:\n        /* \"#utility.yul\":10723:10747   */\n      0x5573657220696420616c72656164792065786973747300000000000000000000\n        /* \"#utility.yul\":10719:10720   */\n      0x00\n        /* \"#utility.yul\":10711:10717   */\n      dup3\n        /* \"#utility.yul\":10707:10721   */\n      add\n        /* \"#utility.yul\":10700:10748   */\n      mstore\n        /* \"#utility.yul\":10583:10755   */\n      pop\n      jump\t// out\n        /* \"#utility.yul\":10761:11127   */\n    tag_101:\n        /* \"#utility.yul\":10903:10906   */\n      0x00\n        /* \"#utility.yul\":10924:10991   */\n      tag_231\n        /* \"#utility.yul\":10988:10990   */\n      0x16\n        /* \"#utility.yul\":10983:10986   */\n      dup4\n        /* \"#utility.yul\":10924:10991   */\n      tag_71\n      jump\t// in\n    tag_231:\n        /* \"#utility.yul\":10917:10991   */\n      swap2\n      pop\n        /* \"#utility.yul\":11000:11093   */\n      tag_232\n        /* \"#utility.yul\":11089:11092   */\n      dup3\n        /* \"#utility.yul\":11000:11093   */\n      tag_100\n      jump\t// in\n    tag_232:\n        /* \"#utility.yul\":11118:11120   */\n      0x20\n        /* \"#utility.yul\":11113:11116   */\n      dup3\n        /* \"#utility.yul\":11109:11121   */\n      add\n        /* \"#utility.yul\":11102:11121   */\n      swap1\n      pop\n        /* \"#utility.yul\":10761:11127   */\n      swap2\n      swap1\n      pop\n      jump\t// out\n        /* \"#utility.yul\":11133:11552   */\n    tag_56:\n        /* \"#utility.yul\":11299:11303   */\n      0x00\n        /* \"#utility.yul\":11337:11339   */\n      0x20\n        /* \"#utility.yul\":11326:11335   */\n      dup3\n        /* \"#utility.yul\":11322:11340   */\n      add\n        /* \"#utility.yul\":11314:11340   */\n      swap1\n      pop\n        /* \"#utility.yul\":11386:11395   */\n      dup2\n        /* \"#utility.yul\":11380:11384   */\n      dup2\n        /* \"#utility.yul\":11376:11396   */\n      sub\n        /* \"#utility.yul\":11372:11373   */\n      0x00\n        /* \"#utility.yul\":11361:11370   */\n      dup4\n        /* \"#utility.yul\":11357:11374   */\n      add\n        /* \"#utility.yul\":11350:11397   */\n      mstore\n        /* \"#utility.yul\":11414:11545   */\n      tag_234\n        /* \"#utility.yul\":11540:11544   */\n      dup2\n        /* \"#utility.yul\":11414:11545   */\n      tag_101\n      jump\t// in\n    tag_234:\n        /* \"#utility.yul\":11406:11545   */\n      swap1\n      pop\n        /* \"#utility.yul\":11133:11552   */\n      swap2\n      swap1\n      pop\n      jump\t// out\n        /* \"#utility.yul\":11558:11699   */\n    tag_102:\n        /* \"#utility.yul\":11607:11611   */\n      0x00\n        /* \"#utility.yul\":11630:11633   */\n      dup2\n        /* \"#utility.yul\":11622:11633   */\n      swap1\n      pop\n        /* \"#utility.yul\":11653:11656   */\n      dup2\n        /* \"#utility.yul\":11650:11651   */\n      0x00\n        /* \"#utility.yul\":11643:11657   */\n      mstore\n        /* \"#utility.yul\":11687:11691   */\n      0x20\n        /* \"#utility.yul\":11684:11685   */\n      0x00\n        /* \"#utility.yul\":11674:11692   */\n      keccak256\n        /* \"#utility.yul\":11666:11692   */\n      swap1\n      pop\n        /* \"#utility.yul\":11558:11699   */\n      swap2\n      swap1\n      pop\n      jump\t// out\n        /* \"#utility.yul\":11705:11798   */\n    tag_103:\n        /* \"#utility.yul\":11742:11748   */\n      0x00\n        /* \"#utility.yul\":11789:11791   */\n      0x20\n        /* \"#utility.yul\":11784:11786   */\n      0x1f\n        /* \"#utility.yul\":11777:11782   */\n      dup4\n        /* \"#utility.yul\":11773:11787   */\n      add\n        /* \"#utility.yul\":11769:11792   */\n      div\n        /* \"#utility.yul\":11759:11792   */\n      swap1\n      pop\n        /* \"#utility.yul\":11705:11798   */\n      swap2\n      swap1\n      pop\n      jump\t// out\n        /* \"#utility.yul\":11804:11911   */\n    tag_104:\n        /* \"#utility.yul\":11848:11856   */\n      0x00\n        /* \"#utility.yul\":11898:11903   */\n      dup3\n        /* \"#utility.yul\":11892:11896   */\n      dup3\n        /* \"#utility.yul\":11888:11904   */\n      shl\n        /* \"#utility.yul\":11867:11904   */\n      swap1\n      pop\n        /* \"#utility.yul\":11804:11911   */\n      swap3\n      swap2\n      pop\n      pop\n      jump\t// out\n        /* \"#utility.yul\":11917:12310   */\n    tag_105:\n        /* \"#utility.yul\":11986:11992   */\n      0x00\n        /* \"#utility.yul\":12036:12037   */\n      0x08\n        /* \"#utility.yul\":12024:12034   */\n      dup4\n        /* \"#utility.yul\":12020:12038   */\n      mul\n        /* \"#utility.yul\":12059:12156   */\n      tag_239\n        /* \"#utility.yul\":12089:12155   */\n      0xffffffffffffffffffffffffffffffffffffffffffffffffffffffffffffffff\n        /* \"#utility.yul\":12078:12087   */\n      dup3\n        /* \"#utility.yul\":12059:12156   */\n      tag_104\n      jump\t// in\n    tag_239:\n        /* \"#utility.yul\":12177:12216   */\n      tag_240\n        /* \"#utility.yul\":12207:12215   */\n      dup7\n        /* \"#utility.yul\":12196:12205   */\n      dup4\n        /* \"#utility.yul\":12177:12216   */\n      tag_104\n      jump\t// in\n    tag_240:\n        /* \"#utility.yul\":12165:12216   */\n      swap6\n      pop\n        /* \"#utility.yul\":12249:12253   */\n      dup1\n        /* \"#utility.yul\":12245:12254   */\n      not\n        /* \"#utility.yul\":12238:12243   */\n      dup5\n        /* \"#utility.yul\":12234:12255   */\n      and\n        /* \"#utility.yul\":12225:12255   */\n      swap4\n      pop\n        /* \"#utility.yul\":12298:12302   */\n      dup1\n        /* \"#utility.yul\":12288:12296   */\n      dup7\n        /* \"#utility.yul\":12284:12303   */\n      and\n        /* \"#utility.yul\":12277:12282   */\n      dup5\n        /* \"#utility.yul\":12274:12304   */\n      or\n        /* \"#utility.yul\":12264:12304   */\n      swap3\n      pop\n        /* \"#utility.yul\":11993:12310   */\n      pop\n      pop\n        /* \"#utility.yul\":11917:12310   */\n      swap4\n      swap3\n      pop\n      pop\n      pop\n      jump\t// out\n        /* \"#utility.yul\":12316:12376   */\n    tag_106:\n        /* \"#utility.yul\":12344:12347   */\n      0x00\n        /* \"#utility.yul\":12365:12370   */\n      dup2\n        /* \"#utility.yul\":12358:12370   */\n      swap1\n      pop\n        /* \"#utility.yul\":12316:12376   */\n      swap2\n      swap1\n      pop\n      jump\t// out\n        /* \"#utility.yul\":12382:12524   */\n    tag_107:\n        /* \"#utility.yul\":12432:12441   */\n      0x00\n        /* \"#utility.yul\":12465:12518   */\n      tag_243\n        /* \"#utility.yul\":12483:12517   */\n      tag_244\n        /* \"#utility.yul\":12492:12516   */\n      tag_245\n        /* \"#utility.yul\":12510:12515   */\n      dup5\n        /* \"#utility.yul\":12492:12516   */\n      tag_66\n      jump\t// in\n    tag_245:\n        /* \"#utility.yul\":12483:12517   */\n      tag_106\n      jump\t// in\n    tag_244:\n        /* \"#utility.yul\":12465:12518   */\n      tag_66\n      jump\t// in\n    tag_243:\n        /* \"#utility.yul\":12452:12518   */\n      swap1\n      pop\n        /* \"#utility.yul\":12382:12524   */\n      swap2\n      swap1\n      pop\n      jump\t// out\n        /* \"#utility.yul\":12530:12605   */\n    tag_108:\n        /* \"#utility.yul\":12573:12576   */\n      0x00\n        /* \"#utility.yul\":12594:12599   */\n      dup2\n        /* \"#utility.yul\":12587:12599   */\n      swap1\n      pop\n        /* \"#utility.yul\":12530:12605   */\n      swap2\n      swap1\n      pop\n      jump\t// out\n        /* \"#utility.yul\":12611:12880   */\n    tag_109:\n        /* \"#utility.yul\":12721:12760   */\n      tag_248\n        /* \"#utility.yul\":12752:12759   */\n      dup4\n        /* \"#utility.yul\":12721:12760   */\n      tag_107\n      jump\t// in\n    tag_248:\n        /* \"#utility.yul\":12782:12873   */\n      tag_249\n        /* \"#utility.yul\":12831:12872   */\n      tag_250\n        /* \"#utility.yul\":12855:12871   */\n      dup3\n        /* \"#utility.yul\":12831:12872   */\n      tag_108\n      jump\t// in\n    tag_250:\n        /* \"#utility.yul\":12823:12829   */\n      dup5\n        /* \"#utility.yul\":12816:12820   */\n      dup5\n        /* \"#utility.yul\":12810:12821   */\n      sload\n        /* \"#utility.yul\":12782:12873   */\n      tag_105\n      jump\t// in\n    tag_249:\n        /* \"#utility.yul\":12776:12780   */\n      dup3\n        /* \"#utility.yul\":12769:12874   */\n      sstore\n        /* \"#utility.yul\":12687:12880   */\n      pop\n        /* \"#utility.yul\":12611:12880   */\n      pop\n      pop\n      pop\n      jump\t// out\n        /* \"#utility.yul\":12886:12959   */\n    tag_110:\n        /* \"#utility.yul\":12931:12934   */\n      0x00\n        /* \"#utility.yul\":12952:12953   */\n      0x00\n        /* \"#utility.yul\":12945:12953   */\n      swap1\n      pop\n        /* \"#utility.yul\":12886:12959   */\n      swap1\n      jump\t// out\n        /* \"#utility.yul\":12965:13154   */\n    tag_111:\n        /* \"#utility.yul\":13042:13074   */\n      tag_253\n      tag_110\n      jump\t// in\n    tag_253:\n        /* \"#utility.yul\":13083:13148   */\n      tag_254\n        /* \"#utility.yul\":13141:13147   */\n      dup2\n        /* \"#utility.yul\":13133:13139   */\n      dup5\n        /* \"#utility.yul\":13127:13131   */\n      dup5\n        /* \"#utility.yul\":13083:13148   */\n      tag_109\n      jump\t// in\n    tag_254:\n        /* \"#utility.yul\":13018:13154   */\n      pop\n        /* \"#utility.yul\":12965:13154   */\n      pop\n      pop\n      jump\t// out\n        /* \"#utility.yul\":13160:13346   */\n    tag_112:\n        /* \"#utility.yul\":13220:13340   */\n    tag_256:\n        /* \"#utility.yul\":13237:13240   */\n      dup2\n        /* \"#utility.yul\":13230:13235   */\n      dup2\n        /* \"#utility.yul\":13227:13241   */\n      lt\n        /* \"#utility.yul\":13220:13340   */\n      iszero\n      tag_258\n      jumpi\n        /* \"#utility.yul\":13291:13330   */\n      tag_259\n        /* \"#utility.yul\":13328:13329   */\n      0x00\n        /* \"#utility.yul\":13321:13326   */\n      dup3\n        /* \"#utility.yul\":13291:13330   */\n      tag_111\n      jump\t// in\n    tag_259:\n        /* \"#utility.yul\":13264:13265   */\n      0x01\n        /* \"#utility.yul\":13257:13262   */\n      dup2\n        /* \"#utility.yul\":13253:13266   */\n      add\n        /* \"#utility.yul\":13244:13266   */\n      swap1\n      pop\n        /* \"#utility.yul\":13220:13340   */\n      jump(tag_256)\n    tag_258:\n        /* \"#utility.yul\":13160:13346   */\n      pop\n      pop\n      jump\t// out\n        /* \"#utility.yul\":13352:13895   */\n    tag_113:\n        /* \"#utility.yul\":13453:13455   */\n      0x1f\n        /* \"#utility.yul\":13448:13451   */\n      dup3\n        /* \"#utility.yul\":13445:13456   */\n      gt\n        /* \"#utility.yul\":13442:13888   */\n      iszero\n      tag_261\n      jumpi\n        /* \"#utility.yul\":13487:13525   */\n      tag_262\n        /* \"#utility.yul\":13519:13524   */\n      dup2\n        /* \"#utility.yul\":13487:13525   */\n      tag_102\n      jump\t// in\n    tag_262:\n        /* \"#utility.yul\":13571:13600   */\n      tag_263\n        /* \"#utility.yul\":13589:13599   */\n      dup5\n        /* \"#utility.yul\":13571:13600   */\n      tag_103\n      jump\t// in\n    tag_263:\n        /* \"#utility.yul\":13561:13569   */\n      dup2\n        /* \"#utility.yul\":13557:13601   */\n      add\n        /* \"#utility.yul\":13754:13756   */\n      0x20\n        /* \"#utility.yul\":13742:13752   */\n      dup6\n        /* \"#utility.yul\":13739:13757   */\n      lt\n        /* \"#utility.yul\":13736:13785   */\n      iszero\n      tag_264\n      jumpi\n        /* \"#utility.yul\":13775:13783   */\n      dup2\n        /* \"#utility.yul\":13760:13783   */\n      swap1\n      pop\n        /* \"#utility.yul\":13736:13785   */\n    tag_264:\n        /* \"#utility.yul\":13798:13878   */\n      tag_265\n        /* \"#utility.yul\":13854:13876   */\n      tag_266\n        /* \"#utility.yul\":13872:13875   */\n      dup6\n        /* \"#utility.yul\":13854:13876   */\n      tag_103\n      jump\t// in\n    tag_266:\n        /* \"#utility.yul\":13844:13852   */\n      dup4\n        /* \"#utility.yul\":13840:13877   */\n      add\n        /* \"#utility.yul\":13827:13838   */\n      dup3\n        /* \"#utility.yul\":13798:13878   */\n      tag_112\n      jump\t// in\n    tag_265:\n        /* \"#utility.yul\":13457:13888   */\n      pop\n      pop\n        /* \"#utility.yul\":13442:13888   */\n    tag_261:\n        /* \"#utility.yul\":13352:13895   */\n      pop\n      pop\n      pop\n      jump\t// out\n        /* \"#utility.yul\":13901:14018   */\n    tag_114:\n        /* \"#utility.yul\":13955:13963   */\n      0x00\n        /* \"#utility.yul\":14005:14010   */\n      dup3\n        /* \"#utility.yul\":13999:14003   */\n      dup3\n        /* \"#utility.yul\":13995:14011   */\n      shr\n        /* \"#utility.yul\":13974:14011   */\n      swap1\n      pop\n        /* \"#utility.yul\":13901:14018   */\n      swap3\n      swap2\n      pop\n      pop\n      jump\t// out\n        /* \"#utility.yul\":14024:14193   */\n    tag_115:\n        /* \"#utility.yul\":14068:14074   */\n      0x00\n        /* \"#utility.yul\":14101:14152   */\n      tag_269\n        /* \"#utility.yul\":14149:14150   */\n      0x00\n        /* \"#utility.yul\":14145:14151   */\n      not\n        /* \"#utility.yul\":14137:14142   */\n      dup5\n        /* \"#utility.yul\":14134:14135   */\n      0x08\n        /* \"#utility.yul\":14130:14143   */\n      mul\n        /* \"#utility.yul\":14101:14152   */\n      tag_114\n      jump\t// in\n    tag_269:\n        /* \"#utility.yul\":14097:14153   */\n      not\n        /* \"#utility.yul\":14182:14186   */\n      dup1\n        /* \"#utility.yul\":14176:14180   */\n      dup4\n        /* \"#utility.yul\":14172:14187   */\n      and\n        /* \"#utility.yul\":14162:14187   */\n      swap2\n      pop\n        /* \"#utility.yul\":14075:14193   */\n      pop\n        /* \"#utility.yul\":14024:14193   */\n      swap3\n      swap2\n      pop\n      pop\n      jump\t// out\n        /* \"#utility.yul\":14198:14493   */\n    tag_116:\n        /* \"#utility.yul\":14274:14278   */\n      0x00\n        /* \"#utility.yul\":14420:14449   */\n      tag_271\n        /* \"#utility.yul\":14445:14448   */\n      dup4\n        /* \"#utility.yul\":14439:14443   */\n      dup4\n        /* \"#utility.yul\":14420:14449   */\n      tag_115\n      jump\t// in\n    tag_271:\n        /* \"#utility.yul\":14412:14449   */\n      swap2\n      pop\n        /* \"#utility.yul\":14482:14485   */\n      dup3\n        /* \"#utility.yul\":14479:14480   */\n      0x02\n        /* \"#utility.yul\":14475:14486   */\n      mul\n        /* \"#utility.yul\":14469:14473   */\n      dup3\n        /* \"#utility.yul\":14466:14487   */\n      or\n        /* \"#utility.yul\":14458:14487   */\n      swap1\n      pop\n        /* \"#utility.yul\":14198:14493   */\n      swap3\n      swap2\n      pop\n      pop\n      jump\t// out\n        /* \"#utility.yul\":14498:15893   */\n    tag_58:\n        /* \"#utility.yul\":14615:14652   */\n      tag_273\n        /* \"#utility.yul\":14648:14651   */\n      dup3\n        /* \"#utility.yul\":14615:14652   */\n      tag_70\n      jump\t// in\n    tag_273:\n        /* \"#utility.yul\":14717:14735   */\n      0xffffffffffffffff\n        /* \"#utility.yul\":14709:14715   */\n      dup2\n        /* \"#utility.yul\":14706:14736   */\n      gt\n        /* \"#utility.yul\":14703:14759   */\n      iszero\n      tag_274\n      jumpi\n        /* \"#utility.yul\":14739:14757   */\n      tag_275\n      tag_88\n      jump\t// in\n    tag_275:\n        /* \"#utility.yul\":14703:14759   */\n    tag_274:\n        /* \"#utility.yul\":14783:14821   */\n      tag_276\n        /* \"#utility.yul\":14815:14819   */\n      dup3\n        /* \"#utility.yul\":14809:14820   */\n      sload\n        /* \"#utility.yul\":14783:14821   */\n      tag_35\n      jump\t// in\n    tag_276:\n        /* \"#utility.yul\":14868:14935   */\n      tag_277\n        /* \"#utility.yul\":14928:14934   */\n      dup3\n        /* \"#utility.yul\":14920:14926   */\n      dup3\n        /* \"#utility.yul\":14914:14918   */\n      dup6\n        /* \"#utility.yul\":14868:14935   */\n      tag_113\n      jump\t// in\n    tag_277:\n        /* \"#utility.yul\":14962:14963   */\n      0x00\n        /* \"#utility.yul\":14986:14990   */\n      0x20\n        /* \"#utility.yul\":14973:14990   */\n      swap1\n      pop\n        /* \"#utility.yul\":15018:15020   */\n      0x1f\n        /* \"#utility.yul\":15010:15016   */\n      dup4\n        /* \"#utility.yul\":15007:15021   */\n      gt\n        /* \"#utility.yul\":15035:15036   */\n      0x01\n        /* \"#utility.yul\":15030:15648   */\n      dup2\n      eq\n      tag_279\n      jumpi\n        /* \"#utility.yul\":15692:15693   */\n      0x00\n        /* \"#utility.yul\":15709:15715   */\n      dup5\n        /* \"#utility.yul\":15706:15783   */\n      iszero\n      tag_280\n      jumpi\n        /* \"#utility.yul\":15758:15767   */\n      dup3\n        /* \"#utility.yul\":15753:15756   */\n      dup8\n        /* \"#utility.yul\":15749:15768   */\n      add\n        /* \"#utility.yul\":15743:15769   */\n      mload\n        /* \"#utility.yul\":15734:15769   */\n      swap1\n      pop\n        /* \"#utility.yul\":15706:15783   */\n    tag_280:\n        /* \"#utility.yul\":15809:15876   */\n      tag_281\n        /* \"#utility.yul\":15869:15875   */\n      dup6\n        /* \"#utility.yul\":15862:15867   */\n      dup3\n        /* \"#utility.yul\":15809:15876   */\n      tag_116\n      jump\t// in\n    tag_281:\n        /* \"#utility.yul\":15803:15807   */\n      dup7\n        /* \"#utility.yul\":15796:15877   */\n      sstore\n        /* \"#utility.yul\":15665:15887   */\n      pop\n        /* \"#utility.yul\":15000:15887   */\n      jump(tag_278)\n        /* \"#utility.yul\":15030:15648   */\n    tag_279:\n        /* \"#utility.yul\":15082:15086   */\n      0x1f\n        /* \"#utility.yul\":15078:15087   */\n      not\n        /* \"#utility.yul\":15070:15076   */\n      dup5\n        /* \"#utility.yul\":15066:15088   */\n      and\n        /* \"#utility.yul\":15116:15153   */\n      tag_282\n        /* \"#utility.yul\":15148:15152   */\n      dup7\n        /* \"#utility.yul\":15116:15153   */\n      tag_102\n      jump\t// in\n    tag_282:\n        /* \"#utility.yul\":15175:15176   */\n      0x00\n        /* \"#utility.yul\":15189:15397   */\n    tag_283:\n        /* \"#utility.yul\":15203:15210   */\n      dup3\n        /* \"#utility.yul\":15200:15201   */\n      dup2\n        /* \"#utility.yul\":15197:15211   */\n      lt\n        /* \"#utility.yul\":15189:15397   */\n      iszero\n      tag_285\n      jumpi\n        /* \"#utility.yul\":15282:15291   */\n      dup5\n        /* \"#utility.yul\":15277:15280   */\n      dup10\n        /* \"#utility.yul\":15273:15292   */\n      add\n        /* \"#utility.yul\":15267:15293   */\n      mload\n        /* \"#utility.yul\":15259:15265   */\n      dup3\n        /* \"#utility.yul\":15252:15294   */\n      sstore\n        /* \"#utility.yul\":15333:15334   */\n      0x01\n        /* \"#utility.yul\":15325:15331   */\n      dup3\n        /* \"#utility.yul\":15321:15335   */\n      add\n        /* \"#utility.yul\":15311:15335   */\n      swap2\n      pop\n        /* \"#utility.yul\":15380:15382   */\n      0x20\n        /* \"#utility.yul\":15369:15378   */\n      dup6\n        /* \"#utility.yul\":15365:15383   */\n      add\n        /* \"#utility.yul\":15352:15383   */\n      swap5\n      pop\n        /* \"#utility.yul\":15226:15230   */\n      0x20\n        /* \"#utility.yul\":15223:15224   */\n      dup2\n        /* \"#utility.yul\":15219:15231   */\n      add\n        /* \"#utility.yul\":15214:15231   */\n      swap1\n      pop\n        /* \"#utility.yul\":15189:15397   */\n      jump(tag_283)\n    tag_285:\n        /* \"#utility.yul\":15425:15431   */\n      dup7\n        /* \"#utility.yul\":15416:15423   */\n      dup4\n        /* \"#utility.yul\":15413:15432   */\n      lt\n        /* \"#utility.yul\":15410:15589   */\n      iszero\n      tag_286\n      jumpi\n        /* \"#utility.yul\":15483:15492   */\n      dup5\n        /* \"#utility.yul\":15478:15481   */\n      dup10\n        /* \"#utility.yul\":15474:15493   */\n      add\n        /* \"#utility.yul\":15468:15494   */\n      mload\n        /* \"#utility.yul\":15526:15574   */\n      tag_287\n        /* \"#utility.yul\":15568:15572   */\n      0x1f\n        /* \"#utility.yul\":15560:15566   */\n      dup10\n        /* \"#utility.yul\":15556:15573   */\n      and\n        /* \"#utility.yul\":15545:15554   */\n      dup3\n        /* \"#utility.yul\":15526:15574   */\n      tag_115\n      jump\t// in\n    tag_287:\n        /* \"#utility.yul\":15518:15524   */\n      dup4\n        /* \"#utility.yul\":15511:15575   */\n      sstore\n        /* \"#utility.yul\":15433:15589   */\n      pop\n        /* \"#utility.yul\":15410:15589   */\n    tag_286:\n        /* \"#utility.yul\":15635:15636   */\n      0x01\n        /* \"#utility.yul\":15631:15632   */\n      0x02\n        /* \"#utility.yul\":15623:15629   */\n      dup9\n        /* \"#utility.yul\":15619:15633   */\n      mul\n        /* \"#utility.yul\":15615:15637   */\n      add\n        /* \"#utility.yul\":15609:15613   */\n      dup9\n        /* \"#utility.yul\":15602:15638   */\n      sstore\n        /* \"#utility.yul\":15037:15648   */\n      pop\n      pop\n      pop\n        /* \"#utility.yul\":15000:15887   */\n    tag_278:\n      pop\n        /* \"#utility.yul\":14590:15893   */\n      pop\n      pop\n      pop\n        /* \"#utility.yul\":14498:15893   */\n      pop\n      pop\n      jump\t// out\n        /* \"#utility.yul\":15899:16079   */\n    tag_117:\n        /* \"#utility.yul\":15947:16024   */\n      0x4e487b7100000000000000000000000000000000000000000000000000000000\n        /* \"#utility.yul\":15944:15945   */\n      0x00\n        /* \"#utility.yul\":15937:16025   */\n      mstore\n        /* \"#utility.yul\":16044:16048   */\n      0x11\n        /* \"#utility.yul\":16041:16042   */\n      0x04\n        /* \"#utility.yul\":16034:16049   */\n      mstore\n        /* \"#utility.yul\":16068:16072   */\n      0x24\n        /* \"#utility.yul\":16065:16066   */\n      0x00\n        /* \"#utility.yul\":16058:16073   */\n      revert\n        /* \"#utility.yul\":16085:16252   */\n    tag_60:\n        /* \"#utility.yul\":16122:16125   */\n      0x00\n        /* \"#utility.yul\":16145:16167   */\n      tag_290\n        /* \"#utility.yul\":16161:16166   */\n      dup3\n        /* \"#utility.yul\":16145:16167   */\n      tag_61\n      jump\t// in\n    tag_290:\n        /* \"#utility.yul\":16136:16167   */\n      swap2\n      pop\n        /* \"#utility.yul\":16189:16193   */\n      0xff\n        /* \"#utility.yul\":16182:16187   */\n      dup3\n        /* \"#utility.yul\":16179:16194   */\n      sub\n        /* \"#utility.yul\":16176:16217   */\n      tag_291\n      jumpi\n        /* \"#utility.yul\":16197:16215   */\n      tag_292\n      tag_117\n      jump\t// in\n    tag_292:\n        /* \"#utility.yul\":16176:16217   */\n    tag_291:\n        /* \"#utility.yul\":16244:16245   */\n      0x01\n        /* \"#utility.yul\":16237:16242   */\n      dup3\n        /* \"#utility.yul\":16233:16246   */\n      add\n        /* \"#utility.yul\":16226:16246   */\n      swap1\n      pop\n        /* \"#utility.yul\":16085:16252   */\n      swap2\n      swap1\n      pop\n      jump\t// out\n\n    auxdata: 0xa26469706673582212207c31642473bdbc1d723a75dd23686b52ae0fccf4073dd4f897ff7f6e97922afc64736f6c634300081e0033\n}\n",
				"bytecode": {
					"linkReferences": {},
					"object": "60806040525f60015f6101000a81548160ff021916908360ff1602179055503480156028575f5ffd5b50610e93806100365f395ff3fe608060405234801561000f575f5ffd5b5060043610610060575f3560e01c806307973ccf14610064578063365b98b2146100825780636ed6da9e146100b55780638c08a4dc146100e5578063b5cb15f714610101578063c74394911461011f575b5f5ffd5b61006c61013b565b604051610079919061060b565b60405180910390f35b61009c60048036038101906100979190610668565b61014d565b6040516100ac949392919061076b565b60405180910390f35b6100cf60048036038101906100ca9190610668565b61022a565b6040516100dc919061088a565b60405180910390f35b6100ff60048036038101906100fa9190610668565b61035d565b005b6101096103f2565b604051610116919061060b565b60405180910390f35b61013960048036038101906101349190610a00565b610407565b005b60015f9054906101000a900460ff1681565b5f602052805f5260405f205f91509050805f01549080600101805461017190610a99565b80601f016020809104026020016040519081016040528092919081815260200182805461019d90610a99565b80156101e85780601f106101bf576101008083540402835291602001916101e8565b820191905f5260205f20905b8154815290600101906020018083116101cb57829003601f168201915b505050505090806002015f9054906101000a900473ffffffffffffffffffffffffffffffffffffffff16908060020160149054906101000a900460ff16905084565b6102326105b3565b5f5f8381526020019081526020015f206040518060800160405290815f820154815260200160018201805461026690610a99565b80601f016020809104026020016040519081016040528092919081815260200182805461029290610a99565b80156102dd5780601f106102b4576101008083540402835291602001916102dd565b820191905f5260205f20905b8154815290600101906020018083116102c057829003601f168201915b50505050508152602001600282015f9054906101000a900473ffffffffffffffffffffffffffffffffffffffff1673ffffffffffffffffffffffffffffffffffffffff1673ffffffffffffffffffffffffffffffffffffffff1681526020016002820160149054906101000a900460ff1615151515815250509050919050565b600115155f5f8381526020019081526020015f2060020160149054906101000a900460ff161515146103c4576040517f08c379a00000000000000000000000000000000000000000000000000000000081526004016103bb90610b13565b60405180910390fd5b5f5f5f8381526020019081526020015f2060020160146101000a81548160ff02191690831515021790555050565b5f60015f9054906101000a900460ff16905090565b5f73ffffffffffffffffffffffffffffffffffffffff165f5f8581526020019081526020015f206002015f9054906101000a900473ffffffffffffffffffffffffffffffffffffffff1673ffffffffffffffffffffffffffffffffffffffff16146104a7576040517f08c379a000000000000000000000000000000000000000000000000000000000815260040161049e90610b7b565b60405180910390fd5b60405180608001604052808481526020018381526020013373ffffffffffffffffffffffffffffffffffffffff1681526020015f15158152505f5f8581526020019081526020015f205f820151815f0155602082015181600101908161050d9190610d39565b506040820151816002015f6101000a81548173ffffffffffffffffffffffffffffffffffffffff021916908373ffffffffffffffffffffffffffffffffffffffff16021790555060608201518160020160146101000a81548160ff02191690831515021790555090505060015f81819054906101000a900460ff168092919061059590610e35565b91906101000a81548160ff021916908360ff16021790555050505050565b60405180608001604052805f8152602001606081526020015f73ffffffffffffffffffffffffffffffffffffffff1681526020015f151581525090565b5f60ff82169050919050565b610605816105f0565b82525050565b5f60208201905061061e5f8301846105fc565b92915050565b5f604051905090565b5f5ffd5b5f5ffd5b5f819050919050565b61064781610635565b8114610651575f5ffd5b50565b5f813590506106628161063e565b92915050565b5f6020828403121561067d5761067c61062d565b5b5f61068a84828501610654565b91505092915050565b61069c81610635565b82525050565b5f81519050919050565b5f82825260208201905092915050565b8281835e5f83830152505050565b5f601f19601f8301169050919050565b5f6106e4826106a2565b6106ee81856106ac565b93506106fe8185602086016106bc565b610707816106ca565b840191505092915050565b5f73ffffffffffffffffffffffffffffffffffffffff82169050919050565b5f61073b82610712565b9050919050565b61074b81610731565b82525050565b5f8115159050919050565b61076581610751565b82525050565b5f60808201905061077e5f830187610693565b818103602083015261079081866106da565b905061079f6040830185610742565b6107ac606083018461075c565b95945050505050565b6107be81610635565b82525050565b5f82825260208201905092915050565b5f6107de826106a2565b6107e881856107c4565b93506107f88185602086016106bc565b610801816106ca565b840191505092915050565b61081581610731565b82525050565b61082481610751565b82525050565b5f608083015f83015161083f5f8601826107b5565b506020830151848203602086015261085782826107d4565b915050604083015161086c604086018261080c565b50606083015161087f606086018261081b565b508091505092915050565b5f6020820190508181035f8301526108a2818461082a565b905092915050565b5f5ffd5b5f5ffd5b7f4e487b71000000000000000000000000000000000000000000000000000000005f52604160045260245ffd5b6108e8826106ca565b810181811067ffffffffffffffff82111715610907576109066108b2565b5b80604052505050565b5f610919610624565b905061092582826108df565b919050565b5f67ffffffffffffffff821115610944576109436108b2565b5b61094d826106ca565b9050602081019050919050565b828183375f83830152505050565b5f61097a6109758461092a565b610910565b905082815260208101848484011115610996576109956108ae565b5b6109a184828561095a565b509392505050565b5f82601f8301126109bd576109bc6108aa565b5b81356109cd848260208601610968565b91505092915050565b6109df81610751565b81146109e9575f5ffd5b50565b5f813590506109fa816109d6565b92915050565b5f5f5f60608486031215610a1757610a1661062d565b5b5f610a2486828701610654565b935050602084013567ffffffffffffffff811115610a4557610a44610631565b5b610a51868287016109a9565b9250506040610a62868287016109ec565b9150509250925092565b7f4e487b71000000000000000000000000000000000000000000000000000000005f52602260045260245ffd5b5f6002820490506001821680610ab057607f821691505b602082108103610ac357610ac2610a6c565b5b50919050565b7f557365722068617320766f7465640000000000000000000000000000000000005f82015250565b5f610afd600e836106ac565b9150610b0882610ac9565b602082019050919050565b5f6020820190508181035f830152610b2a81610af1565b9050919050565b7f5573657220696420616c726561647920657869737473000000000000000000005f82015250565b5f610b656016836106ac565b9150610b7082610b31565b602082019050919050565b5f6020820190508181035f830152610b9281610b59565b9050919050565b5f819050815f5260205f209050919050565b5f6020601f8301049050919050565b5f82821b905092915050565b5f60088302610bf57fffffffffffffffffffffffffffffffffffffffffffffffffffffffffffffffff82610bba565b610bff8683610bba565b95508019841693508086168417925050509392505050565b5f819050919050565b5f610c3a610c35610c3084610635565b610c17565b610635565b9050919050565b5f819050919050565b610c5383610c20565b610c67610c5f82610c41565b848454610bc6565b825550505050565b5f5f905090565b610c7e610c6f565b610c89818484610c4a565b505050565b5b81811015610cac57610ca15f82610c76565b600181019050610c8f565b5050565b601f821115610cf157610cc281610b99565b610ccb84610bab565b81016020851015610cda578190505b610cee610ce685610bab565b830182610c8e565b50505b505050565b5f82821c905092915050565b5f610d115f1984600802610cf6565b1980831691505092915050565b5f610d298383610d02565b9150826002028217905092915050565b610d42826106a2565b67ffffffffffffffff811115610d5b57610d5a6108b2565b5b610d658254610a99565b610d70828285610cb0565b5f60209050601f831160018114610da1575f8415610d8f578287015190505b610d998582610d1e565b865550610e00565b601f198416610daf86610b99565b5f5b82811015610dd657848901518255600182019150602085019450602081019050610db1565b86831015610df35784890151610def601f891682610d02565b8355505b6001600288020188555050505b505050505050565b7f4e487b71000000000000000000000000000000000000000000000000000000005f52601160045260245ffd5b5f610e3f826105f0565b915060ff8203610e5257610e51610e08565b5b60018201905091905056fea26469706673582212207c31642473bdbc1d723a75dd23686b52ae0fccf4073dd4f897ff7f6e97922afc64736f6c634300081e0033",
					"opcodes": "PUSH1 0x80 PUSH1 0x40 MSTORE PUSH0 PUSH1 0x1 PUSH0 PUSH2 0x100 EXP DUP2 SLOAD DUP2 PUSH1 0xFF MUL NOT AND SWAP1 DUP4 PUSH1 0xFF AND MUL OR SWAP1 SSTORE POP CALLVALUE DUP1 ISZERO PUSH1 0x28 JUMPI PUSH0 PUSH0 REVERT JUMPDEST POP PUSH2 0xE93 DUP1 PUSH2 0x36 PUSH0 CODECOPY PUSH0 RETURN INVALID PUSH1 0x80 PUSH1 0x40 MSTORE CALLVALUE DUP1 ISZERO PUSH2 0xF JUMPI PUSH0 PUSH0 REVERT JUMPDEST POP PUSH1 0x4 CALLDATASIZE LT PUSH2 0x60 JUMPI PUSH0 CALLDATALOAD PUSH1 0xE0 SHR DUP1 PUSH4 0x7973CCF EQ PUSH2 0x64 JUMPI DUP1 PUSH4 0x365B98B2 EQ PUSH2 0x82 JUMPI DUP1 PUSH4 0x6ED6DA9E EQ PUSH2 0xB5 JUMPI DUP1 PUSH4 0x8C08A4DC EQ PUSH2 0xE5 JUMPI DUP1 PUSH4 0xB5CB15F7 EQ PUSH2 0x101 JUMPI DUP1 PUSH4 0xC7439491 EQ PUSH2 0x11F JUMPI JUMPDEST PUSH0 PUSH0 REVERT JUMPDEST PUSH2 0x6C PUSH2 0x13B JUMP JUMPDEST PUSH1 0x40 MLOAD PUSH2 0x79 SWAP2 SWAP1 PUSH2 0x60B JUMP JUMPDEST PUSH1 0x40 MLOAD DUP1 SWAP2 SUB SWAP1 RETURN JUMPDEST PUSH2 0x9C PUSH1 0x4 DUP1 CALLDATASIZE SUB DUP2 ADD SWAP1 PUSH2 0x97 SWAP2 SWAP1 PUSH2 0x668 JUMP JUMPDEST PUSH2 0x14D JUMP JUMPDEST PUSH1 0x40 MLOAD PUSH2 0xAC SWAP5 SWAP4 SWAP3 SWAP2 SWAP1 PUSH2 0x76B JUMP JUMPDEST PUSH1 0x40 MLOAD DUP1 SWAP2 SUB SWAP1 RETURN JUMPDEST PUSH2 0xCF PUSH1 0x4 DUP1 CALLDATASIZE SUB DUP2 ADD SWAP1 PUSH2 0xCA SWAP2 SWAP1 PUSH2 0x668 JUMP JUMPDEST PUSH2 0x22A JUMP JUMPDEST PUSH1 0x40 MLOAD PUSH2 0xDC SWAP2 SWAP1 PUSH2 0x88A JUMP JUMPDEST PUSH1 0x40 MLOAD DUP1 SWAP2 SUB SWAP1 RETURN JUMPDEST PUSH2 0xFF PUSH1 0x4 DUP1 CALLDATASIZE SUB DUP2 ADD SWAP1 PUSH2 0xFA SWAP2 SWAP1 PUSH2 0x668 JUMP JUMPDEST PUSH2 0x35D JUMP JUMPDEST STOP JUMPDEST PUSH2 0x109 PUSH2 0x3F2 JUMP JUMPDEST PUSH1 0x40 MLOAD PUSH2 0x116 SWAP2 SWAP1 PUSH2 0x60B JUMP JUMPDEST PUSH1 0x40 MLOAD DUP1 SWAP2 SUB SWAP1 RETURN JUMPDEST PUSH2 0x139 PUSH1 0x4 DUP1 CALLDATASIZE SUB DUP2 ADD SWAP1 PUSH2 0x134 SWAP2 SWAP1 PUSH2 0xA00 JUMP JUMPDEST PUSH2 0x407 JUMP JUMPDEST STOP JUMPDEST PUSH1 0x1 PUSH0 SWAP1 SLOAD SWAP1 PUSH2 0x100 EXP SWAP1 DIV PUSH1 0xFF AND DUP2 JUMP JUMPDEST PUSH0 PUSH1 0x20 MSTORE DUP1 PUSH0 MSTORE PUSH1 0x40 PUSH0 KECCAK256 PUSH0 SWAP2 POP SWAP1 POP DUP1 PUSH0 ADD SLOAD SWAP1 DUP1 PUSH1 0x1 ADD DUP1 SLOAD PUSH2 0x171 SWAP1 PUSH2 0xA99 JUMP JUMPDEST DUP1 PUSH1 0x1F ADD PUSH1 0x20 DUP1 SWAP2 DIV MUL PUSH1 0x20 ADD PUSH1 0x40 MLOAD SWAP1 DUP2 ADD PUSH1 0x40 MSTORE DUP1 SWAP3 SWAP2 SWAP1 DUP2 DUP2 MSTORE PUSH1 0x20 ADD DUP3 DUP1 SLOAD PUSH2 0x19D SWAP1 PUSH2 0xA99 JUMP JUMPDEST DUP1 ISZERO PUSH2 0x1E8 JUMPI DUP1 PUSH1 0x1F LT PUSH2 0x1BF JUMPI PUSH2 0x100 DUP1 DUP4 SLOAD DIV MUL DUP4 MSTORE SWAP2 PUSH1 0x20 ADD SWAP2 PUSH2 0x1E8 JUMP JUMPDEST DUP3 ADD SWAP2 SWAP1 PUSH0 MSTORE PUSH1 0x20 PUSH0 KECCAK256 SWAP1 JUMPDEST DUP2 SLOAD DUP2 MSTORE SWAP1 PUSH1 0x1 ADD SWAP1 PUSH1 0x20 ADD DUP1 DUP4 GT PUSH2 0x1CB JUMPI DUP3 SWAP1 SUB PUSH1 0x1F AND DUP3 ADD SWAP2 JUMPDEST POP POP POP POP POP SWAP1 DUP1 PUSH1 0x2 ADD PUSH0 SWAP1 SLOAD SWAP1 PUSH2 0x100 EXP SWAP1 DIV PUSH20 0xFFFFFFFFFFFFFFFFFFFFFFFFFFFFFFFFFFFFFFFF AND SWAP1 DUP1 PUSH1 0x2 ADD PUSH1 0x14 SWAP1 SLOAD SWAP1 PUSH2 0x100 EXP SWAP1 DIV PUSH1 0xFF AND SWAP1 POP DUP5 JUMP JUMPDEST PUSH2 0x232 PUSH2 0x5B3 JUMP JUMPDEST PUSH0 PUSH0 DUP4 DUP2 MSTORE PUSH1 0x20 ADD SWAP1 DUP2 MSTORE PUSH1 0x20 ADD PUSH0 KECCAK256 PUSH1 0x40 MLOAD DUP1 PUSH1 0x80 ADD PUSH1 0x40 MSTORE SWAP1 DUP2 PUSH0 DUP3 ADD SLOAD DUP2 MSTORE PUSH1 0x20 ADD PUSH1 0x1 DUP3 ADD DUP1 SLOAD PUSH2 0x266 SWAP1 PUSH2 0xA99 JUMP JUMPDEST DUP1 PUSH1 0x1F ADD PUSH1 0x20 DUP1 SWAP2 DIV MUL PUSH1 0x20 ADD PUSH1 0x40 MLOAD SWAP1 DUP2 ADD PUSH1 0x40 MSTORE DUP1 SWAP3 SWAP2 SWAP1 DUP2 DUP2 MSTORE PUSH1 0x20 ADD DUP3 DUP1 SLOAD PUSH2 0x292 SWAP1 PUSH2 0xA99 JUMP JUMPDEST DUP1 ISZERO PUSH2 0x2DD JUMPI DUP1 PUSH1 0x1F LT PUSH2 0x2B4 JUMPI PUSH2 0x100 DUP1 DUP4 SLOAD DIV MUL DUP4 MSTORE SWAP2 PUSH1 0x20 ADD SWAP2 PUSH2 0x2DD JUMP JUMPDEST DUP3 ADD SWAP2 SWAP1 PUSH0 MSTORE PUSH1 0x20 PUSH0 KECCAK256 SWAP1 JUMPDEST DUP2 SLOAD DUP2 MSTORE SWAP1 PUSH1 0x1 ADD SWAP1 PUSH1 0x20 ADD DUP1 DUP4 GT PUSH2 0x2C0 JUMPI DUP3 SWAP1 SUB PUSH1 0x1F AND DUP3 ADD SWAP2 JUMPDEST POP POP POP POP POP DUP2 MSTORE PUSH1 0x20 ADD PUSH1 0x2 DUP3 ADD PUSH0 SWAP1 SLOAD SWAP1 PUSH2 0x100 EXP SWAP1 DIV PUSH20 0xFFFFFFFFFFFFFFFFFFFFFFFFFFFFFFFFFFFFFFFF AND PUSH20 0xFFFFFFFFFFFFFFFFFFFFFFFFFFFFFFFFFFFFFFFF AND PUSH20 0xFFFFFFFFFFFFFFFFFFFFFFFFFFFFFFFFFFFFFFFF AND DUP2 MSTORE PUSH1 0x20 ADD PUSH1 0x2 DUP3 ADD PUSH1 0x14 SWAP1 SLOAD SWAP1 PUSH2 0x100 EXP SWAP1 DIV PUSH1 0xFF AND ISZERO ISZERO ISZERO ISZERO DUP2 MSTORE POP POP SWAP1 POP SWAP2 SWAP1 POP JUMP JUMPDEST PUSH1 0x1 ISZERO ISZERO PUSH0 PUSH0 DUP4 DUP2 MSTORE PUSH1 0x20 ADD SWAP1 DUP2 MSTORE PUSH1 0x20 ADD PUSH0 KECCAK256 PUSH1 0x2 ADD PUSH1 0x14 SWAP1 SLOAD SWAP1 PUSH2 0x100 EXP SWAP1 DIV PUSH1 0xFF AND ISZERO ISZERO EQ PUSH2 0x3C4 JUMPI PUSH1 0x40 MLOAD PUSH32 0x8C379A000000000000000000000000000000000000000000000000000000000 DUP2 MSTORE PUSH1 0x4 ADD PUSH2 0x3BB SWAP1 PUSH2 0xB13 JUMP JUMPDEST PUSH1 0x40 MLOAD DUP1 SWAP2 SUB SWAP1 REVERT JUMPDEST PUSH0 PUSH0 PUSH0 DUP4 DUP2 MSTORE PUSH1 0x20 ADD SWAP1 DUP2 MSTORE PUSH1 0x20 ADD PUSH0 KECCAK256 PUSH1 0x2 ADD PUSH1 0x14 PUSH2 0x100 EXP DUP2 SLOAD DUP2 PUSH1 0xFF MUL NOT AND SWAP1 DUP4 ISZERO ISZERO MUL OR SWAP1 SSTORE POP POP JUMP JUMPDEST PUSH0 PUSH1 0x1 PUSH0 SWAP1 SLOAD SWAP1 PUSH2 0x100 EXP SWAP1 DIV PUSH1 0xFF AND SWAP1 POP SWAP1 JUMP JUMPDEST PUSH0 PUSH20 0xFFFFFFFFFFFFFFFFFFFFFFFFFFFFFFFFFFFFFFFF AND PUSH0 PUSH0 DUP6 DUP2 MSTORE PUSH1 0x20 ADD SWAP1 DUP2 MSTORE PUSH1 0x20 ADD PUSH0 KECCAK256 PUSH1 0x2 ADD PUSH0 SWAP1 SLOAD SWAP1 PUSH2 0x100 EXP SWAP1 DIV PUSH20 0xFFFFFFFFFFFFFFFFFFFFFFFFFFFFFFFFFFFFFFFF AND PUSH20 0xFFFFFFFFFFFFFFFFFFFFFFFFFFFFFFFFFFFFFFFF AND EQ PUSH2 0x4A7 JUMPI PUSH1 0x40 MLOAD PUSH32 0x8C379A000000000000000000000000000000000000000000000000000000000 DUP2 MSTORE PUSH1 0x4 ADD PUSH2 0x49E SWAP1 PUSH2 0xB7B JUMP JUMPDEST PUSH1 0x40 MLOAD DUP1 SWAP2 SUB SWAP1 REVERT JUMPDEST PUSH1 0x40 MLOAD DUP1 PUSH1 0x80 ADD PUSH1 0x40 MSTORE DUP1 DUP5 DUP2 MSTORE PUSH1 0x20 ADD DUP4 DUP2 MSTORE PUSH1 0x20 ADD CALLER PUSH20 0xFFFFFFFFFFFFFFFFFFFFFFFFFFFFFFFFFFFFFFFF AND DUP2 MSTORE PUSH1 0x20 ADD PUSH0 ISZERO ISZERO DUP2 MSTORE POP PUSH0 PUSH0 DUP6 DUP2 MSTORE PUSH1 0x20 ADD SWAP1 DUP2 MSTORE PUSH1 0x20 ADD PUSH0 KECCAK256 PUSH0 DUP3 ADD MLOAD DUP2 PUSH0 ADD SSTORE PUSH1 0x20 DUP3 ADD MLOAD DUP2 PUSH1 0x1 ADD SWAP1 DUP2 PUSH2 0x50D SWAP2 SWAP1 PUSH2 0xD39 JUMP JUMPDEST POP PUSH1 0x40 DUP3 ADD MLOAD DUP2 PUSH1 0x2 ADD PUSH0 PUSH2 0x100 EXP DUP2 SLOAD DUP2 PUSH20 0xFFFFFFFFFFFFFFFFFFFFFFFFFFFFFFFFFFFFFFFF MUL NOT AND SWAP1 DUP4 PUSH20 0xFFFFFFFFFFFFFFFFFFFFFFFFFFFFFFFFFFFFFFFF AND MUL OR SWAP1 SSTORE POP PUSH1 0x60 DUP3 ADD MLOAD DUP2 PUSH1 0x2 ADD PUSH1 0x14 PUSH2 0x100 EXP DUP2 SLOAD DUP2 PUSH1 0xFF MUL NOT AND SWAP1 DUP4 ISZERO ISZERO MUL OR SWAP1 SSTORE POP SWAP1 POP POP PUSH1 0x1 PUSH0 DUP2 DUP2 SWAP1 SLOAD SWAP1 PUSH2 0x100 EXP SWAP1 DIV PUSH1 0xFF AND DUP1 SWAP3 SWAP2 SWAP1 PUSH2 0x595 SWAP1 PUSH2 0xE35 JUMP JUMPDEST SWAP2 SWAP1 PUSH2 0x100 EXP DUP2 SLOAD DUP2 PUSH1 0xFF MUL NOT AND SWAP1 DUP4 PUSH1 0xFF AND MUL OR SWAP1 SSTORE POP POP POP POP POP JUMP JUMPDEST PUSH1 0x40 MLOAD DUP1 PUSH1 0x80 ADD PUSH1 0x40 MSTORE DUP1 PUSH0 DUP2 MSTORE PUSH1 0x20 ADD PUSH1 0x60 DUP2 MSTORE PUSH1 0x20 ADD PUSH0 PUSH20 0xFFFFFFFFFFFFFFFFFFFFFFFFFFFFFFFFFFFFFFFF AND DUP2 MSTORE PUSH1 0x20 ADD PUSH0 ISZERO ISZERO DUP2 MSTORE POP SWAP1 JUMP JUMPDEST PUSH0 PUSH1 0xFF DUP3 AND SWAP1 POP SWAP2 SWAP1 POP JUMP JUMPDEST PUSH2 0x605 DUP2 PUSH2 0x5F0 JUMP JUMPDEST DUP3 MSTORE POP POP JUMP JUMPDEST PUSH0 PUSH1 0x20 DUP3 ADD SWAP1 POP PUSH2 0x61E PUSH0 DUP4 ADD DUP5 PUSH2 0x5FC JUMP JUMPDEST SWAP3 SWAP2 POP POP JUMP JUMPDEST PUSH0 PUSH1 0x40 MLOAD SWAP1 POP SWAP1 JUMP JUMPDEST PUSH0 PUSH0 REVERT JUMPDEST PUSH0 PUSH0 REVERT JUMPDEST PUSH0 DUP2 SWAP1 POP SWAP2 SWAP1 POP JUMP JUMPDEST PUSH2 0x647 DUP2 PUSH2 0x635 JUMP JUMPDEST DUP2 EQ PUSH2 0x651 JUMPI PUSH0 PUSH0 REVERT JUMPDEST POP JUMP JUMPDEST PUSH0 DUP2 CALLDATALOAD SWAP1 POP PUSH2 0x662 DUP2 PUSH2 0x63E JUMP JUMPDEST SWAP3 SWAP2 POP POP JUMP JUMPDEST PUSH0 PUSH1 0x20 DUP3 DUP5 SUB SLT ISZERO PUSH2 0x67D JUMPI PUSH2 0x67C PUSH2 0x62D JUMP JUMPDEST JUMPDEST PUSH0 PUSH2 0x68A DUP5 DUP3 DUP6 ADD PUSH2 0x654 JUMP JUMPDEST SWAP2 POP POP SWAP3 SWAP2 POP POP JUMP JUMPDEST PUSH2 0x69C DUP2 PUSH2 0x635 JUMP JUMPDEST DUP3 MSTORE POP POP JUMP JUMPDEST PUSH0 DUP2 MLOAD SWAP1 POP SWAP2 SWAP1 POP JUMP JUMPDEST PUSH0 DUP3 DUP3 MSTORE PUSH1 0x20 DUP3 ADD SWAP1 POP SWAP3 SWAP2 POP POP JUMP JUMPDEST DUP3 DUP2 DUP4 MCOPY PUSH0 DUP4 DUP4 ADD MSTORE POP POP POP JUMP JUMPDEST PUSH0 PUSH1 0x1F NOT PUSH1 0x1F DUP4 ADD AND SWAP1 POP SWAP2 SWAP1 POP JUMP JUMPDEST PUSH0 PUSH2 0x6E4 DUP3 PUSH2 0x6A2 JUMP JUMPDEST PUSH2 0x6EE DUP2 DUP6 PUSH2 0x6AC JUMP JUMPDEST SWAP4 POP PUSH2 0x6FE DUP2 DUP6 PUSH1 0x20 DUP7 ADD PUSH2 0x6BC JUMP JUMPDEST PUSH2 0x707 DUP2 PUSH2 0x6CA JUMP JUMPDEST DUP5 ADD SWAP2 POP POP SWAP3 SWAP2 POP POP JUMP JUMPDEST PUSH0 PUSH20 0xFFFFFFFFFFFFFFFFFFFFFFFFFFFFFFFFFFFFFFFF DUP3 AND SWAP1 POP SWAP2 SWAP1 POP JUMP JUMPDEST PUSH0 PUSH2 0x73B DUP3 PUSH2 0x712 JUMP JUMPDEST SWAP1 POP SWAP2 SWAP1 POP JUMP JUMPDEST PUSH2 0x74B DUP2 PUSH2 0x731 JUMP JUMPDEST DUP3 MSTORE POP POP JUMP JUMPDEST PUSH0 DUP2 ISZERO ISZERO SWAP1 POP SWAP2 SWAP1 POP JUMP JUMPDEST PUSH2 0x765 DUP2 PUSH2 0x751 JUMP JUMPDEST DUP3 MSTORE POP POP JUMP JUMPDEST PUSH0 PUSH1 0x80 DUP3 ADD SWAP1 POP PUSH2 0x77E PUSH0 DUP4 ADD DUP8 PUSH2 0x693 JUMP JUMPDEST DUP2 DUP2 SUB PUSH1 0x20 DUP4 ADD MSTORE PUSH2 0x790 DUP2 DUP7 PUSH2 0x6DA JUMP JUMPDEST SWAP1 POP PUSH2 0x79F PUSH1 0x40 DUP4 ADD DUP6 PUSH2 0x742 JUMP JUMPDEST PUSH2 0x7AC PUSH1 0x60 DUP4 ADD DUP5 PUSH2 0x75C JUMP JUMPDEST SWAP6 SWAP5 POP POP POP POP POP JUMP JUMPDEST PUSH2 0x7BE DUP2 PUSH2 0x635 JUMP JUMPDEST DUP3 MSTORE POP POP JUMP JUMPDEST PUSH0 DUP3 DUP3 MSTORE PUSH1 0x20 DUP3 ADD SWAP1 POP SWAP3 SWAP2 POP POP JUMP JUMPDEST PUSH0 PUSH2 0x7DE DUP3 PUSH2 0x6A2 JUMP JUMPDEST PUSH2 0x7E8 DUP2 DUP6 PUSH2 0x7C4 JUMP JUMPDEST SWAP4 POP PUSH2 0x7F8 DUP2 DUP6 PUSH1 0x20 DUP7 ADD PUSH2 0x6BC JUMP JUMPDEST PUSH2 0x801 DUP2 PUSH2 0x6CA JUMP JUMPDEST DUP5 ADD SWAP2 POP POP SWAP3 SWAP2 POP POP JUMP JUMPDEST PUSH2 0x815 DUP2 PUSH2 0x731 JUMP JUMPDEST DUP3 MSTORE POP POP JUMP JUMPDEST PUSH2 0x824 DUP2 PUSH2 0x751 JUMP JUMPDEST DUP3 MSTORE POP POP JUMP JUMPDEST PUSH0 PUSH1 0x80 DUP4 ADD PUSH0 DUP4 ADD MLOAD PUSH2 0x83F PUSH0 DUP7 ADD DUP3 PUSH2 0x7B5 JUMP JUMPDEST POP PUSH1 0x20 DUP4 ADD MLOAD DUP5 DUP3 SUB PUSH1 0x20 DUP7 ADD MSTORE PUSH2 0x857 DUP3 DUP3 PUSH2 0x7D4 JUMP JUMPDEST SWAP2 POP POP PUSH1 0x40 DUP4 ADD MLOAD PUSH2 0x86C PUSH1 0x40 DUP7 ADD DUP3 PUSH2 0x80C JUMP JUMPDEST POP PUSH1 0x60 DUP4 ADD MLOAD PUSH2 0x87F PUSH1 0x60 DUP7 ADD DUP3 PUSH2 0x81B JUMP JUMPDEST POP DUP1 SWAP2 POP POP SWAP3 SWAP2 POP POP JUMP JUMPDEST PUSH0 PUSH1 0x20 DUP3 ADD SWAP1 POP DUP2 DUP2 SUB PUSH0 DUP4 ADD MSTORE PUSH2 0x8A2 DUP2 DUP5 PUSH2 0x82A JUMP JUMPDEST SWAP1 POP SWAP3 SWAP2 POP POP JUMP JUMPDEST PUSH0 PUSH0 REVERT JUMPDEST PUSH0 PUSH0 REVERT JUMPDEST PUSH32 0x4E487B7100000000000000000000000000000000000000000000000000000000 PUSH0 MSTORE PUSH1 0x41 PUSH1 0x4 MSTORE PUSH1 0x24 PUSH0 REVERT JUMPDEST PUSH2 0x8E8 DUP3 PUSH2 0x6CA JUMP JUMPDEST DUP2 ADD DUP2 DUP2 LT PUSH8 0xFFFFFFFFFFFFFFFF DUP3 GT OR ISZERO PUSH2 0x907 JUMPI PUSH2 0x906 PUSH2 0x8B2 JUMP JUMPDEST JUMPDEST DUP1 PUSH1 0x40 MSTORE POP POP POP JUMP JUMPDEST PUSH0 PUSH2 0x919 PUSH2 0x624 JUMP JUMPDEST SWAP1 POP PUSH2 0x925 DUP3 DUP3 PUSH2 0x8DF JUMP JUMPDEST SWAP2 SWAP1 POP JUMP JUMPDEST PUSH0 PUSH8 0xFFFFFFFFFFFFFFFF DUP3 GT ISZERO PUSH2 0x944 JUMPI PUSH2 0x943 PUSH2 0x8B2 JUMP JUMPDEST JUMPDEST PUSH2 0x94D DUP3 PUSH2 0x6CA JUMP JUMPDEST SWAP1 POP PUSH1 0x20 DUP2 ADD SWAP1 POP SWAP2 SWAP1 POP JUMP JUMPDEST DUP3 DUP2 DUP4 CALLDATACOPY PUSH0 DUP4 DUP4 ADD MSTORE POP POP POP JUMP JUMPDEST PUSH0 PUSH2 0x97A PUSH2 0x975 DUP5 PUSH2 0x92A JUMP JUMPDEST PUSH2 0x910 JUMP JUMPDEST SWAP1 POP DUP3 DUP2 MSTORE PUSH1 0x20 DUP2 ADD DUP5 DUP5 DUP5 ADD GT ISZERO PUSH2 0x996 JUMPI PUSH2 0x995 PUSH2 0x8AE JUMP JUMPDEST JUMPDEST PUSH2 0x9A1 DUP5 DUP3 DUP6 PUSH2 0x95A JUMP JUMPDEST POP SWAP4 SWAP3 POP POP POP JUMP JUMPDEST PUSH0 DUP3 PUSH1 0x1F DUP4 ADD SLT PUSH2 0x9BD JUMPI PUSH2 0x9BC PUSH2 0x8AA JUMP JUMPDEST JUMPDEST DUP2 CALLDATALOAD PUSH2 0x9CD DUP5 DUP3 PUSH1 0x20 DUP7 ADD PUSH2 0x968 JUMP JUMPDEST SWAP2 POP POP SWAP3 SWAP2 POP POP JUMP JUMPDEST PUSH2 0x9DF DUP2 PUSH2 0x751 JUMP JUMPDEST DUP2 EQ PUSH2 0x9E9 JUMPI PUSH0 PUSH0 REVERT JUMPDEST POP JUMP JUMPDEST PUSH0 DUP2 CALLDATALOAD SWAP1 POP PUSH2 0x9FA DUP2 PUSH2 0x9D6 JUMP JUMPDEST SWAP3 SWAP2 POP POP JUMP JUMPDEST PUSH0 PUSH0 PUSH0 PUSH1 0x60 DUP5 DUP7 SUB SLT ISZERO PUSH2 0xA17 JUMPI PUSH2 0xA16 PUSH2 0x62D JUMP JUMPDEST JUMPDEST PUSH0 PUSH2 0xA24 DUP7 DUP3 DUP8 ADD PUSH2 0x654 JUMP JUMPDEST SWAP4 POP POP PUSH1 0x20 DUP5 ADD CALLDATALOAD PUSH8 0xFFFFFFFFFFFFFFFF DUP2 GT ISZERO PUSH2 0xA45 JUMPI PUSH2 0xA44 PUSH2 0x631 JUMP JUMPDEST JUMPDEST PUSH2 0xA51 DUP7 DUP3 DUP8 ADD PUSH2 0x9A9 JUMP JUMPDEST SWAP3 POP POP PUSH1 0x40 PUSH2 0xA62 DUP7 DUP3 DUP8 ADD PUSH2 0x9EC JUMP JUMPDEST SWAP2 POP POP SWAP3 POP SWAP3 POP SWAP3 JUMP JUMPDEST PUSH32 0x4E487B7100000000000000000000000000000000000000000000000000000000 PUSH0 MSTORE PUSH1 0x22 PUSH1 0x4 MSTORE PUSH1 0x24 PUSH0 REVERT JUMPDEST PUSH0 PUSH1 0x2 DUP3 DIV SWAP1 POP PUSH1 0x1 DUP3 AND DUP1 PUSH2 0xAB0 JUMPI PUSH1 0x7F DUP3 AND SWAP2 POP JUMPDEST PUSH1 0x20 DUP3 LT DUP2 SUB PUSH2 0xAC3 JUMPI PUSH2 0xAC2 PUSH2 0xA6C JUMP JUMPDEST JUMPDEST POP SWAP2 SWAP1 POP JUMP JUMPDEST PUSH32 0x557365722068617320766F746564000000000000000000000000000000000000 PUSH0 DUP3 ADD MSTORE POP JUMP JUMPDEST PUSH0 PUSH2 0xAFD PUSH1 0xE DUP4 PUSH2 0x6AC JUMP JUMPDEST SWAP2 POP PUSH2 0xB08 DUP3 PUSH2 0xAC9 JUMP JUMPDEST PUSH1 0x20 DUP3 ADD SWAP1 POP SWAP2 SWAP1 POP JUMP JUMPDEST PUSH0 PUSH1 0x20 DUP3 ADD SWAP1 POP DUP2 DUP2 SUB PUSH0 DUP4 ADD MSTORE PUSH2 0xB2A DUP2 PUSH2 0xAF1 JUMP JUMPDEST SWAP1 POP SWAP2 SWAP1 POP JUMP JUMPDEST PUSH32 0x5573657220696420616C72656164792065786973747300000000000000000000 PUSH0 DUP3 ADD MSTORE POP JUMP JUMPDEST PUSH0 PUSH2 0xB65 PUSH1 0x16 DUP4 PUSH2 0x6AC JUMP JUMPDEST SWAP2 POP PUSH2 0xB70 DUP3 PUSH2 0xB31 JUMP JUMPDEST PUSH1 0x20 DUP3 ADD SWAP1 POP SWAP2 SWAP1 POP JUMP JUMPDEST PUSH0 PUSH1 0x20 DUP3 ADD SWAP1 POP DUP2 DUP2 SUB PUSH0 DUP4 ADD MSTORE PUSH2 0xB92 DUP2 PUSH2 0xB59 JUMP JUMPDEST SWAP1 POP SWAP2 SWAP1 POP JUMP JUMPDEST PUSH0 DUP2 SWAP1 POP DUP2 PUSH0 MSTORE PUSH1 0x20 PUSH0 KECCAK256 SWAP1 POP SWAP2 SWAP1 POP JUMP JUMPDEST PUSH0 PUSH1 0x20 PUSH1 0x1F DUP4 ADD DIV SWAP1 POP SWAP2 SWAP1 POP JUMP JUMPDEST PUSH0 DUP3 DUP3 SHL SWAP1 POP SWAP3 SWAP2 POP POP JUMP JUMPDEST PUSH0 PUSH1 0x8 DUP4 MUL PUSH2 0xBF5 PUSH32 0xFFFFFFFFFFFFFFFFFFFFFFFFFFFFFFFFFFFFFFFFFFFFFFFFFFFFFFFFFFFFFFFF DUP3 PUSH2 0xBBA JUMP JUMPDEST PUSH2 0xBFF DUP7 DUP4 PUSH2 0xBBA JUMP JUMPDEST SWAP6 POP DUP1 NOT DUP5 AND SWAP4 POP DUP1 DUP7 AND DUP5 OR SWAP3 POP POP POP SWAP4 SWAP3 POP POP POP JUMP JUMPDEST PUSH0 DUP2 SWAP1 POP SWAP2 SWAP1 POP JUMP JUMPDEST PUSH0 PUSH2 0xC3A PUSH2 0xC35 PUSH2 0xC30 DUP5 PUSH2 0x635 JUMP JUMPDEST PUSH2 0xC17 JUMP JUMPDEST PUSH2 0x635 JUMP JUMPDEST SWAP1 POP SWAP2 SWAP1 POP JUMP JUMPDEST PUSH0 DUP2 SWAP1 POP SWAP2 SWAP1 POP JUMP JUMPDEST PUSH2 0xC53 DUP4 PUSH2 0xC20 JUMP JUMPDEST PUSH2 0xC67 PUSH2 0xC5F DUP3 PUSH2 0xC41 JUMP JUMPDEST DUP5 DUP5 SLOAD PUSH2 0xBC6 JUMP JUMPDEST DUP3 SSTORE POP POP POP POP JUMP JUMPDEST PUSH0 PUSH0 SWAP1 POP SWAP1 JUMP JUMPDEST PUSH2 0xC7E PUSH2 0xC6F JUMP JUMPDEST PUSH2 0xC89 DUP2 DUP5 DUP5 PUSH2 0xC4A JUMP JUMPDEST POP POP POP JUMP JUMPDEST JUMPDEST DUP2 DUP2 LT ISZERO PUSH2 0xCAC JUMPI PUSH2 0xCA1 PUSH0 DUP3 PUSH2 0xC76 JUMP JUMPDEST PUSH1 0x1 DUP2 ADD SWAP1 POP PUSH2 0xC8F JUMP JUMPDEST POP POP JUMP JUMPDEST PUSH1 0x1F DUP3 GT ISZERO PUSH2 0xCF1 JUMPI PUSH2 0xCC2 DUP2 PUSH2 0xB99 JUMP JUMPDEST PUSH2 0xCCB DUP5 PUSH2 0xBAB JUMP JUMPDEST DUP2 ADD PUSH1 0x20 DUP6 LT ISZERO PUSH2 0xCDA JUMPI DUP2 SWAP1 POP JUMPDEST PUSH2 0xCEE PUSH2 0xCE6 DUP6 PUSH2 0xBAB JUMP JUMPDEST DUP4 ADD DUP3 PUSH2 0xC8E JUMP JUMPDEST POP POP JUMPDEST POP POP POP JUMP JUMPDEST PUSH0 DUP3 DUP3 SHR SWAP1 POP SWAP3 SWAP2 POP POP JUMP JUMPDEST PUSH0 PUSH2 0xD11 PUSH0 NOT DUP5 PUSH1 0x8 MUL PUSH2 0xCF6 JUMP JUMPDEST NOT DUP1 DUP4 AND SWAP2 POP POP SWAP3 SWAP2 POP POP JUMP JUMPDEST PUSH0 PUSH2 0xD29 DUP4 DUP4 PUSH2 0xD02 JUMP JUMPDEST SWAP2 POP DUP3 PUSH1 0x2 MUL DUP3 OR SWAP1 POP SWAP3 SWAP2 POP POP JUMP JUMPDEST PUSH2 0xD42 DUP3 PUSH2 0x6A2 JUMP JUMPDEST PUSH8 0xFFFFFFFFFFFFFFFF DUP2 GT ISZERO PUSH2 0xD5B JUMPI PUSH2 0xD5A PUSH2 0x8B2 JUMP JUMPDEST JUMPDEST PUSH2 0xD65 DUP3 SLOAD PUSH2 0xA99 JUMP JUMPDEST PUSH2 0xD70 DUP3 DUP3 DUP6 PUSH2 0xCB0 JUMP JUMPDEST PUSH0 PUSH1 0x20 SWAP1 POP PUSH1 0x1F DUP4 GT PUSH1 0x1 DUP2 EQ PUSH2 0xDA1 JUMPI PUSH0 DUP5 ISZERO PUSH2 0xD8F JUMPI DUP3 DUP8 ADD MLOAD SWAP1 POP JUMPDEST PUSH2 0xD99 DUP6 DUP3 PUSH2 0xD1E JUMP JUMPDEST DUP7 SSTORE POP PUSH2 0xE00 JUMP JUMPDEST PUSH1 0x1F NOT DUP5 AND PUSH2 0xDAF DUP7 PUSH2 0xB99 JUMP JUMPDEST PUSH0 JUMPDEST DUP3 DUP2 LT ISZERO PUSH2 0xDD6 JUMPI DUP5 DUP10 ADD MLOAD DUP3 SSTORE PUSH1 0x1 DUP3 ADD SWAP2 POP PUSH1 0x20 DUP6 ADD SWAP5 POP PUSH1 0x20 DUP2 ADD SWAP1 POP PUSH2 0xDB1 JUMP JUMPDEST DUP7 DUP4 LT ISZERO PUSH2 0xDF3 JUMPI DUP5 DUP10 ADD MLOAD PUSH2 0xDEF PUSH1 0x1F DUP10 AND DUP3 PUSH2 0xD02 JUMP JUMPDEST DUP4 SSTORE POP JUMPDEST PUSH1 0x1 PUSH1 0x2 DUP9 MUL ADD DUP9 SSTORE POP POP POP JUMPDEST POP POP POP POP POP POP JUMP JUMPDEST PUSH32 0x4E487B7100000000000000000000000000000000000000000000000000000000 PUSH0 MSTORE PUSH1 0x11 PUSH1 0x4 MSTORE PUSH1 0x24 PUSH0 REVERT JUMPDEST PUSH0 PUSH2 0xE3F DUP3 PUSH2 0x5F0 JUMP JUMPDEST SWAP2 POP PUSH1 0xFF DUP3 SUB PUSH2 0xE52 JUMPI PUSH2 0xE51 PUSH2 0xE08 JUMP JUMPDEST JUMPDEST PUSH1 0x1 DUP3 ADD SWAP1 POP SWAP2 SWAP1 POP JUMP INVALID LOG2 PUSH5 0x6970667358 0x22 SLT KECCAK256 PUSH29 0x31642473BDBC1D723A75DD23686B52AE0FCCF4073DD4F897FF7F6E9792 0x2A 0xFC PUSH5 0x736F6C6343 STOP ADDMOD 0x1E STOP CALLER "
				},
				"gasEstimates": {
					"creation": {
						"codeDepositCost": "746200",
						"executionCost": "25042",
						"totalCost": "771242"
					},
					"external": {
						"addUser(uint256,string,bool)": "infinite",
						"getUserById(uint256)": "infinite",
						"getUserCount()": "2539",
						"userCount()": "2444",
						"users(uint256)": "infinite",
						"voteCandidate(uint256)": "27144"
					}
				},
				"methodIdentifiers": {
					"addUser(uint256,string,bool)": "c7439491",
					"getUserById(uint256)": "6ed6da9e",
					"getUserCount()": "b5cb15f7",
					"userCount()": "07973ccf",
					"users(uint256)": "365b98b2",
					"voteCandidate(uint256)": "8c08a4dc"
				}
			},
			"storageLayout": {
				"storage": [
					{
						"astId": 15,
						"contract": "contracts/qlds/UserManager.sol:UserManager",
						"label": "users",
						"offset": 0,
						"slot": "0",
						"type": "t_mapping(t_uint256,t_struct(User)10_storage)"
					},
					{
						"astId": 18,
						"contract": "contracts/qlds/UserManager.sol:UserManager",
						"label": "userCount",
						"offset": 0,
						"slot": "1",
						"type": "t_uint8"
					}
				],
				"types": {
					"t_address": {
						"encoding": "inplace",
						"label": "address",
						"numberOfBytes": "20"
					},
					"t_bool": {
						"encoding": "inplace",
						"label": "bool",
						"numberOfBytes": "1"
					},
					"t_mapping(t_uint256,t_struct(User)10_storage)": {
						"encoding": "mapping",
						"key": "t_uint256",
						"label": "mapping(uint256 => struct UserManager.User)",
						"numberOfBytes": "32",
						"value": "t_struct(User)10_storage"
					},
					"t_string_storage": {
						"encoding": "bytes",
						"label": "string",
						"numberOfBytes": "32"
					},
					"t_struct(User)10_storage": {
						"encoding": "inplace",
						"label": "struct UserManager.User",
						"members": [
							{
								"astId": 3,
								"contract": "contracts/qlds/UserManager.sol:UserManager",
								"label": "id",
								"offset": 0,
								"slot": "0",
								"type": "t_uint256"
							},
							{
								"astId": 5,
								"contract": "contracts/qlds/UserManager.sol:UserManager",
								"label": "name",
								"offset": 0,
								"slot": "1",
								"type": "t_string_storage"
							},
							{
								"astId": 7,
								"contract": "contracts/qlds/UserManager.sol:UserManager",
								"label": "userAddress",
								"offset": 0,
								"slot": "2",
								"type": "t_address"
							},
							{
								"astId": 9,
								"contract": "contracts/qlds/UserManager.sol:UserManager",
								"label": "isVote",
								"offset": 20,
								"slot": "2",
								"type": "t_bool"
							}
						],
						"numberOfBytes": "96"
					},
					"t_uint256": {
						"encoding": "inplace",
						"label": "uint256",
						"numberOfBytes": "32"
					},
					"t_uint8": {
						"encoding": "inplace",
						"label": "uint8",
						"numberOfBytes": "1"
					}
				}
			},
			"userdoc": {
				"kind": "user",
				"methods": {},
				"version": 1
			}
		}
	}
}