{
	"contracts/qlds/ICandidateManager.sol": {
		"UserManager": {
			"abi": [
				{
					"inputs": [
						{
							"internalType": "address",
							"name": "_candidateContractAddress",
							"type": "address"
						}
					],
					"stateMutability": "nonpayable",
					"type": "constructor"
				},
				{
					"inputs": [
						{
							"internalType": "uint256",
							"name": "_id",
							"type": "uint256"
						},
						{
							"internalType": "string",
							"name": "_name",
							"type": "string"
						},
						{
							"internalType": "string",
							"name": "_nameCandidate",
							"type": "string"
						}
					],
					"name": "addVoter",
					"outputs": [],
					"stateMutability": "nonpayable",
					"type": "function"
				},
				{
					"inputs": [],
					"name": "candidateContract",
					"outputs": [
						{
							"internalType": "contract ICandidateManager",
							"name": "",
							"type": "address"
						}
					],
					"stateMutability": "view",
					"type": "function"
				},
				{
					"inputs": [
						{
							"internalType": "uint256",
							"name": "_id",
							"type": "uint256"
						}
					],
					"name": "getUserById",
					"outputs": [
						{
							"components": [
								{
									"internalType": "uint256",
									"name": "id",
									"type": "uint256"
								},
								{
									"internalType": "string",
									"name": "name",
									"type": "string"
								},
								{
									"internalType": "string",
									"name": "nameCandidate",
									"type": "string"
								},
								{
									"internalType": "address",
									"name": "userAddress",
									"type": "address"
								},
								{
									"internalType": "bool",
									"name": "isVote",
									"type": "bool"
								}
							],
							"internalType": "struct UserManager.User",
							"name": "",
							"type": "tuple"
						}
					],
					"stateMutability": "view",
					"type": "function"
				},
				{
					"inputs": [],
					"name": "getUserCount",
					"outputs": [
						{
							"internalType": "uint256",
							"name": "",
							"type": "uint256"
						}
					],
					"stateMutability": "view",
					"type": "function"
				},
				{
					"inputs": [
						{
							"internalType": "uint256",
							"name": "_id",
							"type": "uint256"
						}
					],
					"name": "getUserVote",
					"outputs": [
						{
							"internalType": "string",
							"name": "",
							"type": "string"
						}
					],
					"stateMutability": "view",
					"type": "function"
				},
				{
					"inputs": [],
					"name": "userCount",
					"outputs": [
						{
							"internalType": "uint256",
							"name": "",
							"type": "uint256"
						}
					],
					"stateMutability": "view",
					"type": "function"
				},
				{
					"inputs": [
						{
							"internalType": "uint256",
							"name": "",
							"type": "uint256"
						}
					],
					"name": "users",
					"outputs": [
						{
							"internalType": "uint256",
							"name": "id",
							"type": "uint256"
						},
						{
							"internalType": "string",
							"name": "name",
							"type": "string"
						},
						{
							"internalType": "string",
							"name": "nameCandidate",
							"type": "string"
						},
						{
							"internalType": "address",
							"name": "userAddress",
							"type": "address"
						},
						{
							"internalType": "bool",
							"name": "isVote",
							"type": "bool"
						}
					],
					"stateMutability": "view",
					"type": "function"
				}
			],
			"devdoc": {
				"kind": "dev",
				"methods": {},
				"version": 1
			},
			"evm": {
				"assembly": "    /* \"contracts/qlds/ICandidateManager.sol\":226:1579  contract UserManager{... */\n  mstore(0x40, 0x80)\n    /* \"contracts/qlds/ICandidateManager.sol\":468:469  0 */\n  0x00\n    /* \"contracts/qlds/ICandidateManager.sol\":444:469  uint public userCount = 0 */\n  0x01\n  sstore\n    /* \"contracts/qlds/ICandidateManager.sol\":527:657  constructor(address _candidateContractAddress) {... */\n  callvalue\n  dup1\n  iszero\n  tag_1\n  jumpi\n  revert(0x00, 0x00)\ntag_1:\n  pop\n  mload(0x40)\n  sub(codesize, bytecodeSize)\n  dup1\n  bytecodeSize\n  dup4\n  codecopy\n  dup2\n  dup2\n  add\n  0x40\n  mstore\n  dup2\n  add\n  swap1\n  tag_2\n  swap2\n  swap1\n  tag_3\n  jump\t// in\ntag_2:\n    /* \"contracts/qlds/ICandidateManager.sol\":623:648  _candidateContractAddress */\n  dup1\n    /* \"contracts/qlds/ICandidateManager.sol\":585:602  candidateContract */\n  0x02\n  0x00\n    /* \"contracts/qlds/ICandidateManager.sol\":585:649  candidateContract = ICandidateManager(_candidateContractAddress) */\n  0x0100\n  exp\n  dup2\n  sload\n  dup2\n  0xffffffffffffffffffffffffffffffffffffffff\n  mul\n  not\n  and\n  swap1\n  dup4\n  0xffffffffffffffffffffffffffffffffffffffff\n  and\n  mul\n  or\n  swap1\n  sstore\n  pop\n    /* \"contracts/qlds/ICandidateManager.sol\":527:657  constructor(address _candidateContractAddress) {... */\n  pop\n    /* \"contracts/qlds/ICandidateManager.sol\":226:1579  contract UserManager{... */\n  jump(tag_6)\n    /* \"#utility.yul\":88:205   */\ntag_8:\n    /* \"#utility.yul\":197:198   */\n  0x00\n    /* \"#utility.yul\":194:195   */\n  0x00\n    /* \"#utility.yul\":187:199   */\n  revert\n    /* \"#utility.yul\":334:460   */\ntag_10:\n    /* \"#utility.yul\":371:378   */\n  0x00\n    /* \"#utility.yul\":411:453   */\n  0xffffffffffffffffffffffffffffffffffffffff\n    /* \"#utility.yul\":404:409   */\n  dup3\n    /* \"#utility.yul\":400:454   */\n  and\n    /* \"#utility.yul\":389:454   */\n  swap1\n  pop\n    /* \"#utility.yul\":334:460   */\n  swap2\n  swap1\n  pop\n  jump\t// out\n    /* \"#utility.yul\":466:562   */\ntag_11:\n    /* \"#utility.yul\":503:510   */\n  0x00\n    /* \"#utility.yul\":532:556   */\n  tag_20\n    /* \"#utility.yul\":550:555   */\n  dup3\n    /* \"#utility.yul\":532:556   */\n  tag_10\n  jump\t// in\ntag_20:\n    /* \"#utility.yul\":521:556   */\n  swap1\n  pop\n    /* \"#utility.yul\":466:562   */\n  swap2\n  swap1\n  pop\n  jump\t// out\n    /* \"#utility.yul\":568:690   */\ntag_12:\n    /* \"#utility.yul\":641:665   */\n  tag_22\n    /* \"#utility.yul\":659:664   */\n  dup2\n    /* \"#utility.yul\":641:665   */\n  tag_11\n  jump\t// in\ntag_22:\n    /* \"#utility.yul\":634:639   */\n  dup2\n    /* \"#utility.yul\":631:666   */\n  eq\n    /* \"#utility.yul\":621:684   */\n  tag_23\n  jumpi\n    /* \"#utility.yul\":680:681   */\n  0x00\n    /* \"#utility.yul\":677:678   */\n  0x00\n    /* \"#utility.yul\":670:682   */\n  revert\n    /* \"#utility.yul\":621:684   */\ntag_23:\n    /* \"#utility.yul\":568:690   */\n  pop\n  jump\t// out\n    /* \"#utility.yul\":696:839   */\ntag_13:\n    /* \"#utility.yul\":753:758   */\n  0x00\n    /* \"#utility.yul\":784:790   */\n  dup2\n    /* \"#utility.yul\":778:791   */\n  mload\n    /* \"#utility.yul\":769:791   */\n  swap1\n  pop\n    /* \"#utility.yul\":800:833   */\n  tag_25\n    /* \"#utility.yul\":827:832   */\n  dup2\n    /* \"#utility.yul\":800:833   */\n  tag_12\n  jump\t// in\ntag_25:\n    /* \"#utility.yul\":696:839   */\n  swap3\n  swap2\n  pop\n  pop\n  jump\t// out\n    /* \"#utility.yul\":845:1196   */\ntag_3:\n    /* \"#utility.yul\":915:921   */\n  0x00\n    /* \"#utility.yul\":964:966   */\n  0x20\n    /* \"#utility.yul\":952:961   */\n  dup3\n    /* \"#utility.yul\":943:950   */\n  dup5\n    /* \"#utility.yul\":939:962   */\n  sub\n    /* \"#utility.yul\":935:967   */\n  slt\n    /* \"#utility.yul\":932:1051   */\n  iszero\n  tag_27\n  jumpi\n    /* \"#utility.yul\":970:1049   */\n  tag_28\n  tag_8\n  jump\t// in\ntag_28:\n    /* \"#utility.yul\":932:1051   */\ntag_27:\n    /* \"#utility.yul\":1090:1091   */\n  0x00\n    /* \"#utility.yul\":1115:1179   */\n  tag_29\n    /* \"#utility.yul\":1171:1178   */\n  dup5\n    /* \"#utility.yul\":1162:1168   */\n  dup3\n    /* \"#utility.yul\":1151:1160   */\n  dup6\n    /* \"#utility.yul\":1147:1169   */\n  add\n    /* \"#utility.yul\":1115:1179   */\n  tag_13\n  jump\t// in\ntag_29:\n    /* \"#utility.yul\":1105:1179   */\n  swap2\n  pop\n    /* \"#utility.yul\":1061:1189   */\n  pop\n    /* \"#utility.yul\":845:1196   */\n  swap3\n  swap2\n  pop\n  pop\n  jump\t// out\n    /* \"contracts/qlds/ICandidateManager.sol\":226:1579  contract UserManager{... */\ntag_6:\n  dataSize(sub_0)\n  dup1\n  dataOffset(sub_0)\n  0x00\n  codecopy\n  0x00\n  return\nstop\n\nsub_0: assembly {\n        /* \"contracts/qlds/ICandidateManager.sol\":226:1579  contract UserManager{... */\n      mstore(0x40, 0x80)\n      callvalue\n      dup1\n      iszero\n      tag_1\n      jumpi\n      revert(0x00, 0x00)\n    tag_1:\n      pop\n      jumpi(tag_2, lt(calldatasize, 0x04))\n      shr(0xe0, calldataload(0x00))\n      dup1\n      0x6ed6da9e\n      gt\n      tag_10\n      jumpi\n      dup1\n      0x6ed6da9e\n      eq\n      tag_6\n      jumpi\n      dup1\n      0x86194c19\n      eq\n      tag_7\n      jumpi\n      dup1\n      0xb4a3a162\n      eq\n      tag_8\n      jumpi\n      dup1\n      0xb5cb15f7\n      eq\n      tag_9\n      jumpi\n      jump(tag_2)\n    tag_10:\n      dup1\n      0x07973ccf\n      eq\n      tag_3\n      jumpi\n      dup1\n      0x1522bb87\n      eq\n      tag_4\n      jumpi\n      dup1\n      0x365b98b2\n      eq\n      tag_5\n      jumpi\n    tag_2:\n      revert(0x00, 0x00)\n        /* \"contracts/qlds/ICandidateManager.sol\":444:469  uint public userCount = 0 */\n    tag_3:\n      tag_11\n      tag_12\n      jump\t// in\n    tag_11:\n      mload(0x40)\n      tag_13\n      swap2\n      swap1\n      tag_14\n      jump\t// in\n    tag_13:\n      mload(0x40)\n      dup1\n      swap2\n      sub\n      swap1\n      return\n        /* \"contracts/qlds/ICandidateManager.sol\":665:1152  function addVoter(uint _id, string memory _name, string memory _nameCandidate) public {... */\n    tag_4:\n      tag_15\n      0x04\n      dup1\n      calldatasize\n      sub\n      dup2\n      add\n      swap1\n      tag_16\n      swap2\n      swap1\n      tag_17\n      jump\t// in\n    tag_16:\n      tag_18\n      jump\t// in\n    tag_15:\n      stop\n        /* \"contracts/qlds/ICandidateManager.sol\":403:437  mapping(uint => User) public users */\n    tag_5:\n      tag_19\n      0x04\n      dup1\n      calldatasize\n      sub\n      dup2\n      add\n      swap1\n      tag_20\n      swap2\n      swap1\n      tag_21\n      jump\t// in\n    tag_20:\n      tag_22\n      jump\t// in\n    tag_19:\n      mload(0x40)\n      tag_23\n      swap6\n      swap5\n      swap4\n      swap3\n      swap2\n      swap1\n      tag_24\n      jump\t// in\n    tag_23:\n      mload(0x40)\n      dup1\n      swap2\n      sub\n      swap1\n      return\n        /* \"contracts/qlds/ICandidateManager.sol\":1254:1355  function getUserById(uint _id) public view returns (User memory) {... */\n    tag_6:\n      tag_25\n      0x04\n      dup1\n      calldatasize\n      sub\n      dup2\n      add\n      swap1\n      tag_26\n      swap2\n      swap1\n      tag_21\n      jump\t// in\n    tag_26:\n      tag_27\n      jump\t// in\n    tag_25:\n      mload(0x40)\n      tag_28\n      swap2\n      swap1\n      tag_29\n      jump\t// in\n    tag_28:\n      mload(0x40)\n      dup1\n      swap2\n      sub\n      swap1\n      return\n        /* \"contracts/qlds/ICandidateManager.sol\":1363:1568  function getUserVote(uint _id) public view returns(string memory) {... */\n    tag_7:\n      tag_30\n      0x04\n      dup1\n      calldatasize\n      sub\n      dup2\n      add\n      swap1\n      tag_31\n      swap2\n      swap1\n      tag_21\n      jump\t// in\n    tag_31:\n      tag_32\n      jump\t// in\n    tag_30:\n      mload(0x40)\n      tag_33\n      swap2\n      swap1\n      tag_34\n      jump\t// in\n    tag_33:\n      mload(0x40)\n      dup1\n      swap2\n      sub\n      swap1\n      return\n        /* \"contracts/qlds/ICandidateManager.sol\":476:518  ICandidateManager public candidateContract */\n    tag_8:\n      tag_35\n      tag_36\n      jump\t// in\n    tag_35:\n      mload(0x40)\n      tag_37\n      swap2\n      swap1\n      tag_38\n      jump\t// in\n    tag_37:\n      mload(0x40)\n      dup1\n      swap2\n      sub\n      swap1\n      return\n        /* \"contracts/qlds/ICandidateManager.sol\":1160:1246  function getUserCount() public view returns (uint) {... */\n    tag_9:\n      tag_39\n      tag_40\n      jump\t// in\n    tag_39:\n      mload(0x40)\n      tag_41\n      swap2\n      swap1\n      tag_14\n      jump\t// in\n    tag_41:\n      mload(0x40)\n      dup1\n      swap2\n      sub\n      swap1\n      return\n        /* \"contracts/qlds/ICandidateManager.sol\":444:469  uint public userCount = 0 */\n    tag_12:\n      sload(0x01)\n      dup2\n      jump\t// out\n        /* \"contracts/qlds/ICandidateManager.sol\":665:1152  function addVoter(uint _id, string memory _name, string memory _nameCandidate) public {... */\n    tag_18:\n        /* \"contracts/qlds/ICandidateManager.sol\":804:805  0 */\n      0x00\n        /* \"contracts/qlds/ICandidateManager.sol\":770:806  users[_id].userAddress == address(0) */\n      0xffffffffffffffffffffffffffffffffffffffff\n      and\n        /* \"contracts/qlds/ICandidateManager.sol\":770:775  users */\n      0x00\n        /* \"contracts/qlds/ICandidateManager.sol\":770:780  users[_id] */\n      0x00\n        /* \"contracts/qlds/ICandidateManager.sol\":776:779  _id */\n      dup6\n        /* \"contracts/qlds/ICandidateManager.sol\":770:780  users[_id] */\n      dup2\n      mstore\n      0x20\n      add\n      swap1\n      dup2\n      mstore\n      0x20\n      add\n      0x00\n      keccak256\n        /* \"contracts/qlds/ICandidateManager.sol\":770:792  users[_id].userAddress */\n      0x03\n      add\n      0x00\n      swap1\n      sload\n      swap1\n      0x0100\n      exp\n      swap1\n      div\n      0xffffffffffffffffffffffffffffffffffffffff\n      and\n        /* \"contracts/qlds/ICandidateManager.sol\":770:806  users[_id].userAddress == address(0) */\n      0xffffffffffffffffffffffffffffffffffffffff\n      and\n      eq\n        /* \"contracts/qlds/ICandidateManager.sol\":762:833  require(users[_id].userAddress == address(0), \"User id already exists\") */\n      tag_43\n      jumpi\n      mload(0x40)\n      0x08c379a000000000000000000000000000000000000000000000000000000000\n      dup2\n      mstore\n      0x04\n      add\n      tag_44\n      swap1\n      tag_45\n      jump\t// in\n    tag_44:\n      mload(0x40)\n      dup1\n      swap2\n      sub\n      swap1\n      revert\n    tag_43:\n        /* \"contracts/qlds/ICandidateManager.sol\":875:876  0 */\n      0x00\n        /* \"contracts/qlds/ICandidateManager.sol\":858:863  _name */\n      dup3\n        /* \"contracts/qlds/ICandidateManager.sol\":852:871  bytes(_name).length */\n      mload\n        /* \"contracts/qlds/ICandidateManager.sol\":852:876  bytes(_name).length != 0 */\n      sub\n        /* \"contracts/qlds/ICandidateManager.sol\":844:901  require(bytes(_name).length != 0, \"Name cannot be empty\") */\n      tag_46\n      jumpi\n      mload(0x40)\n      0x08c379a000000000000000000000000000000000000000000000000000000000\n      dup2\n      mstore\n      0x04\n      add\n      tag_47\n      swap1\n      tag_48\n      jump\t// in\n    tag_47:\n      mload(0x40)\n      dup1\n      swap2\n      sub\n      swap1\n      revert\n    tag_46:\n        /* \"contracts/qlds/ICandidateManager.sol\":920:937  candidateContract */\n      0x02\n      0x00\n      swap1\n      sload\n      swap1\n      0x0100\n      exp\n      swap1\n      div\n      0xffffffffffffffffffffffffffffffffffffffff\n      and\n        /* \"contracts/qlds/ICandidateManager.sol\":920:954  candidateContract.isCandidateExist */\n      0xffffffffffffffffffffffffffffffffffffffff\n      and\n      0x7e797dee\n        /* \"contracts/qlds/ICandidateManager.sol\":955:969  _nameCandidate */\n      dup3\n        /* \"contracts/qlds/ICandidateManager.sol\":920:970  candidateContract.isCandidateExist(_nameCandidate) */\n      mload(0x40)\n      dup3\n      0xffffffff\n      and\n      0xe0\n      shl\n      dup2\n      mstore\n      0x04\n      add\n      tag_49\n      swap2\n      swap1\n      tag_34\n      jump\t// in\n    tag_49:\n      0x20\n      mload(0x40)\n      dup1\n      dup4\n      sub\n      dup2\n      dup7\n      gas\n      staticcall\n      iszero\n      dup1\n      iszero\n      tag_51\n      jumpi\n      returndatacopy(0x00, 0x00, returndatasize)\n      revert(0x00, returndatasize)\n    tag_51:\n      pop\n      pop\n      pop\n      pop\n      mload(0x40)\n      returndatasize\n      not(0x1f)\n      0x1f\n      dup3\n      add\n      and\n      dup3\n      add\n      dup1\n      0x40\n      mstore\n      pop\n      dup2\n      add\n      swap1\n      tag_52\n      swap2\n      swap1\n      tag_53\n      jump\t// in\n    tag_52:\n        /* \"contracts/qlds/ICandidateManager.sol\":912:999  require(candidateContract.isCandidateExist(_nameCandidate), \"Candidate does not exist\") */\n      tag_54\n      jumpi\n      mload(0x40)\n      0x08c379a000000000000000000000000000000000000000000000000000000000\n      dup2\n      mstore\n      0x04\n      add\n      tag_55\n      swap1\n      tag_56\n      jump\t// in\n    tag_55:\n      mload(0x40)\n      dup1\n      swap2\n      sub\n      swap1\n      revert\n    tag_54:\n        /* \"contracts/qlds/ICandidateManager.sol\":1023:1073  User(_id, _name, _nameCandidate, msg.sender, true) */\n      mload(0x40)\n      dup1\n      0xa0\n      add\n      0x40\n      mstore\n      dup1\n        /* \"contracts/qlds/ICandidateManager.sol\":1028:1031  _id */\n      dup5\n        /* \"contracts/qlds/ICandidateManager.sol\":1023:1073  User(_id, _name, _nameCandidate, msg.sender, true) */\n      dup2\n      mstore\n      0x20\n      add\n        /* \"contracts/qlds/ICandidateManager.sol\":1033:1038  _name */\n      dup4\n        /* \"contracts/qlds/ICandidateManager.sol\":1023:1073  User(_id, _name, _nameCandidate, msg.sender, true) */\n      dup2\n      mstore\n      0x20\n      add\n        /* \"contracts/qlds/ICandidateManager.sol\":1040:1054  _nameCandidate */\n      dup3\n        /* \"contracts/qlds/ICandidateManager.sol\":1023:1073  User(_id, _name, _nameCandidate, msg.sender, true) */\n      dup2\n      mstore\n      0x20\n      add\n        /* \"contracts/qlds/ICandidateManager.sol\":1056:1066  msg.sender */\n      caller\n        /* \"contracts/qlds/ICandidateManager.sol\":1023:1073  User(_id, _name, _nameCandidate, msg.sender, true) */\n      0xffffffffffffffffffffffffffffffffffffffff\n      and\n      dup2\n      mstore\n      0x20\n      add\n        /* \"contracts/qlds/ICandidateManager.sol\":1068:1072  true */\n      0x01\n        /* \"contracts/qlds/ICandidateManager.sol\":1023:1073  User(_id, _name, _nameCandidate, msg.sender, true) */\n      iszero\n      iszero\n      dup2\n      mstore\n      pop\n        /* \"contracts/qlds/ICandidateManager.sol\":1010:1015  users */\n      0x00\n        /* \"contracts/qlds/ICandidateManager.sol\":1010:1020  users[_id] */\n      0x00\n        /* \"contracts/qlds/ICandidateManager.sol\":1016:1019  _id */\n      dup6\n        /* \"contracts/qlds/ICandidateManager.sol\":1010:1020  users[_id] */\n      dup2\n      mstore\n      0x20\n      add\n      swap1\n      dup2\n      mstore\n      0x20\n      add\n      0x00\n      keccak256\n        /* \"contracts/qlds/ICandidateManager.sol\":1010:1073  users[_id] = User(_id, _name, _nameCandidate, msg.sender, true) */\n      0x00\n      dup3\n      add\n      mload\n      dup2\n      0x00\n      add\n      sstore\n      0x20\n      dup3\n      add\n      mload\n      dup2\n      0x01\n      add\n      swap1\n      dup2\n      tag_57\n      swap2\n      swap1\n      tag_58\n      jump\t// in\n    tag_57:\n      pop\n      0x40\n      dup3\n      add\n      mload\n      dup2\n      0x02\n      add\n      swap1\n      dup2\n      tag_59\n      swap2\n      swap1\n      tag_58\n      jump\t// in\n    tag_59:\n      pop\n      0x60\n      dup3\n      add\n      mload\n      dup2\n      0x03\n      add\n      exp(0x0100, 0x00)\n      dup2\n      sload\n      dup2\n      0xffffffffffffffffffffffffffffffffffffffff\n      mul\n      not\n      and\n      swap1\n      dup4\n      0xffffffffffffffffffffffffffffffffffffffff\n      and\n      mul\n      or\n      swap1\n      sstore\n      pop\n      0x80\n      dup3\n      add\n      mload\n      dup2\n      0x03\n      add\n      exp(0x0100, 0x14)\n      dup2\n      sload\n      dup2\n      0xff\n      mul\n      not\n      and\n      swap1\n      dup4\n      iszero\n      iszero\n      mul\n      or\n      swap1\n      sstore\n      pop\n      swap1\n      pop\n      pop\n        /* \"contracts/qlds/ICandidateManager.sol\":1084:1093  userCount */\n      0x01\n      0x00\n        /* \"contracts/qlds/ICandidateManager.sol\":1084:1095  userCount++ */\n      dup2\n      sload\n      dup1\n      swap3\n      swap2\n      swap1\n      tag_60\n      swap1\n      tag_61\n      jump\t// in\n    tag_60:\n      swap2\n      swap1\n      pop\n      sstore\n      pop\n        /* \"contracts/qlds/ICandidateManager.sol\":1106:1123  candidateContract */\n      0x02\n      0x00\n      swap1\n      sload\n      swap1\n      0x0100\n      exp\n      swap1\n      div\n      0xffffffffffffffffffffffffffffffffffffffff\n      and\n        /* \"contracts/qlds/ICandidateManager.sol\":1106:1128  candidateContract.vote */\n      0xffffffffffffffffffffffffffffffffffffffff\n      and\n      0xfc36e15b\n        /* \"contracts/qlds/ICandidateManager.sol\":1129:1143  _nameCandidate */\n      dup3\n        /* \"contracts/qlds/ICandidateManager.sol\":1106:1144  candidateContract.vote(_nameCandidate) */\n      mload(0x40)\n      dup3\n      0xffffffff\n      and\n      0xe0\n      shl\n      dup2\n      mstore\n      0x04\n      add\n      tag_62\n      swap2\n      swap1\n      tag_34\n      jump\t// in\n    tag_62:\n      0x00\n      mload(0x40)\n      dup1\n      dup4\n      sub\n      dup2\n      0x00\n      dup8\n      dup1\n      extcodesize\n      iszero\n      dup1\n      iszero\n      tag_63\n      jumpi\n      revert(0x00, 0x00)\n    tag_63:\n      pop\n      gas\n      call\n      iszero\n      dup1\n      iszero\n      tag_65\n      jumpi\n      returndatacopy(0x00, 0x00, returndatasize)\n      revert(0x00, returndatasize)\n    tag_65:\n      pop\n      pop\n      pop\n      pop\n        /* \"contracts/qlds/ICandidateManager.sol\":665:1152  function addVoter(uint _id, string memory _name, string memory _nameCandidate) public {... */\n      pop\n      pop\n      pop\n      jump\t// out\n        /* \"contracts/qlds/ICandidateManager.sol\":403:437  mapping(uint => User) public users */\n    tag_22:\n      mstore(0x20, 0x00)\n      dup1\n      0x00\n      mstore\n      keccak256(0x00, 0x40)\n      0x00\n      swap2\n      pop\n      swap1\n      pop\n      dup1\n      0x00\n      add\n      sload\n      swap1\n      dup1\n      0x01\n      add\n      dup1\n      sload\n      tag_66\n      swap1\n      tag_67\n      jump\t// in\n    tag_66:\n      dup1\n      0x1f\n      add\n      0x20\n      dup1\n      swap2\n      div\n      mul\n      0x20\n      add\n      mload(0x40)\n      swap1\n      dup2\n      add\n      0x40\n      mstore\n      dup1\n      swap3\n      swap2\n      swap1\n      dup2\n      dup2\n      mstore\n      0x20\n      add\n      dup3\n      dup1\n      sload\n      tag_68\n      swap1\n      tag_67\n      jump\t// in\n    tag_68:\n      dup1\n      iszero\n      tag_69\n      jumpi\n      dup1\n      0x1f\n      lt\n      tag_70\n      jumpi\n      0x0100\n      dup1\n      dup4\n      sload\n      div\n      mul\n      dup4\n      mstore\n      swap2\n      0x20\n      add\n      swap2\n      jump(tag_69)\n    tag_70:\n      dup3\n      add\n      swap2\n      swap1\n      0x00\n      mstore\n      keccak256(0x00, 0x20)\n      swap1\n    tag_71:\n      dup2\n      sload\n      dup2\n      mstore\n      swap1\n      0x01\n      add\n      swap1\n      0x20\n      add\n      dup1\n      dup4\n      gt\n      tag_71\n      jumpi\n      dup3\n      swap1\n      sub\n      0x1f\n      and\n      dup3\n      add\n      swap2\n    tag_69:\n      pop\n      pop\n      pop\n      pop\n      pop\n      swap1\n      dup1\n      0x02\n      add\n      dup1\n      sload\n      tag_72\n      swap1\n      tag_67\n      jump\t// in\n    tag_72:\n      dup1\n      0x1f\n      add\n      0x20\n      dup1\n      swap2\n      div\n      mul\n      0x20\n      add\n      mload(0x40)\n      swap1\n      dup2\n      add\n      0x40\n      mstore\n      dup1\n      swap3\n      swap2\n      swap1\n      dup2\n      dup2\n      mstore\n      0x20\n      add\n      dup3\n      dup1\n      sload\n      tag_73\n      swap1\n      tag_67\n      jump\t// in\n    tag_73:\n      dup1\n      iszero\n      tag_74\n      jumpi\n      dup1\n      0x1f\n      lt\n      tag_75\n      jumpi\n      0x0100\n      dup1\n      dup4\n      sload\n      div\n      mul\n      dup4\n      mstore\n      swap2\n      0x20\n      add\n      swap2\n      jump(tag_74)\n    tag_75:\n      dup3\n      add\n      swap2\n      swap1\n      0x00\n      mstore\n      keccak256(0x00, 0x20)\n      swap1\n    tag_76:\n      dup2\n      sload\n      dup2\n      mstore\n      swap1\n      0x01\n      add\n      swap1\n      0x20\n      add\n      dup1\n      dup4\n      gt\n      tag_76\n      jumpi\n      dup3\n      swap1\n      sub\n      0x1f\n      and\n      dup3\n      add\n      swap2\n    tag_74:\n      pop\n      pop\n      pop\n      pop\n      pop\n      swap1\n      dup1\n      0x03\n      add\n      0x00\n      swap1\n      sload\n      swap1\n      0x0100\n      exp\n      swap1\n      div\n      0xffffffffffffffffffffffffffffffffffffffff\n      and\n      swap1\n      dup1\n      0x03\n      add\n      0x14\n      swap1\n      sload\n      swap1\n      0x0100\n      exp\n      swap1\n      div\n      0xff\n      and\n      swap1\n      pop\n      dup6\n      jump\t// out\n        /* \"contracts/qlds/ICandidateManager.sol\":1254:1355  function getUserById(uint _id) public view returns (User memory) {... */\n    tag_27:\n        /* \"contracts/qlds/ICandidateManager.sol\":1306:1317  User memory */\n      tag_77\n      tag_78\n      jump\t// in\n    tag_77:\n        /* \"contracts/qlds/ICandidateManager.sol\":1337:1342  users */\n      0x00\n        /* \"contracts/qlds/ICandidateManager.sol\":1337:1347  users[_id] */\n      0x00\n        /* \"contracts/qlds/ICandidateManager.sol\":1343:1346  _id */\n      dup4\n        /* \"contracts/qlds/ICandidateManager.sol\":1337:1347  users[_id] */\n      dup2\n      mstore\n      0x20\n      add\n      swap1\n      dup2\n      mstore\n      0x20\n      add\n      0x00\n      keccak256\n        /* \"contracts/qlds/ICandidateManager.sol\":1330:1347  return users[_id] */\n      mload(0x40)\n      dup1\n      0xa0\n      add\n      0x40\n      mstore\n      swap1\n      dup2\n      0x00\n      dup3\n      add\n      sload\n      dup2\n      mstore\n      0x20\n      add\n      0x01\n      dup3\n      add\n      dup1\n      sload\n      tag_80\n      swap1\n      tag_67\n      jump\t// in\n    tag_80:\n      dup1\n      0x1f\n      add\n      0x20\n      dup1\n      swap2\n      div\n      mul\n      0x20\n      add\n      mload(0x40)\n      swap1\n      dup2\n      add\n      0x40\n      mstore\n      dup1\n      swap3\n      swap2\n      swap1\n      dup2\n      dup2\n      mstore\n      0x20\n      add\n      dup3\n      dup1\n      sload\n      tag_81\n      swap1\n      tag_67\n      jump\t// in\n    tag_81:\n      dup1\n      iszero\n      tag_82\n      jumpi\n      dup1\n      0x1f\n      lt\n      tag_83\n      jumpi\n      0x0100\n      dup1\n      dup4\n      sload\n      div\n      mul\n      dup4\n      mstore\n      swap2\n      0x20\n      add\n      swap2\n      jump(tag_82)\n    tag_83:\n      dup3\n      add\n      swap2\n      swap1\n      0x00\n      mstore\n      keccak256(0x00, 0x20)\n      swap1\n    tag_84:\n      dup2\n      sload\n      dup2\n      mstore\n      swap1\n      0x01\n      add\n      swap1\n      0x20\n      add\n      dup1\n      dup4\n      gt\n      tag_84\n      jumpi\n      dup3\n      swap1\n      sub\n      0x1f\n      and\n      dup3\n      add\n      swap2\n    tag_82:\n      pop\n      pop\n      pop\n      pop\n      pop\n      dup2\n      mstore\n      0x20\n      add\n      0x02\n      dup3\n      add\n      dup1\n      sload\n      tag_85\n      swap1\n      tag_67\n      jump\t// in\n    tag_85:\n      dup1\n      0x1f\n      add\n      0x20\n      dup1\n      swap2\n      div\n      mul\n      0x20\n      add\n      mload(0x40)\n      swap1\n      dup2\n      add\n      0x40\n      mstore\n      dup1\n      swap3\n      swap2\n      swap1\n      dup2\n      dup2\n      mstore\n      0x20\n      add\n      dup3\n      dup1\n      sload\n      tag_86\n      swap1\n      tag_67\n      jump\t// in\n    tag_86:\n      dup1\n      iszero\n      tag_87\n      jumpi\n      dup1\n      0x1f\n      lt\n      tag_88\n      jumpi\n      0x0100\n      dup1\n      dup4\n      sload\n      div\n      mul\n      dup4\n      mstore\n      swap2\n      0x20\n      add\n      swap2\n      jump(tag_87)\n    tag_88:\n      dup3\n      add\n      swap2\n      swap1\n      0x00\n      mstore\n      keccak256(0x00, 0x20)\n      swap1\n    tag_89:\n      dup2\n      sload\n      dup2\n      mstore\n      swap1\n      0x01\n      add\n      swap1\n      0x20\n      add\n      dup1\n      dup4\n      gt\n      tag_89\n      jumpi\n      dup3\n      swap1\n      sub\n      0x1f\n      and\n      dup3\n      add\n      swap2\n    tag_87:\n      pop\n      pop\n      pop\n      pop\n      pop\n      dup2\n      mstore\n      0x20\n      add\n      0x03\n      dup3\n      add\n      0x00\n      swap1\n      sload\n      swap1\n      0x0100\n      exp\n      swap1\n      div\n      0xffffffffffffffffffffffffffffffffffffffff\n      and\n      0xffffffffffffffffffffffffffffffffffffffff\n      and\n      0xffffffffffffffffffffffffffffffffffffffff\n      and\n      dup2\n      mstore\n      0x20\n      add\n      0x03\n      dup3\n      add\n      0x14\n      swap1\n      sload\n      swap1\n      0x0100\n      exp\n      swap1\n      div\n      0xff\n      and\n      iszero\n      iszero\n      iszero\n      iszero\n      dup2\n      mstore\n      pop\n      pop\n      swap1\n      pop\n        /* \"contracts/qlds/ICandidateManager.sol\":1254:1355  function getUserById(uint _id) public view returns (User memory) {... */\n      swap2\n      swap1\n      pop\n      jump\t// out\n        /* \"contracts/qlds/ICandidateManager.sol\":1363:1568  function getUserVote(uint _id) public view returns(string memory) {... */\n    tag_32:\n        /* \"contracts/qlds/ICandidateManager.sol\":1414:1427  string memory */\n      0x60\n        /* \"contracts/qlds/ICandidateManager.sol\":1490:1491  0 */\n      0x00\n        /* \"contracts/qlds/ICandidateManager.sol\":1454:1459  users */\n      0x00\n        /* \"contracts/qlds/ICandidateManager.sol\":1454:1464  users[_id] */\n      0x00\n        /* \"contracts/qlds/ICandidateManager.sol\":1460:1463  _id */\n      dup5\n        /* \"contracts/qlds/ICandidateManager.sol\":1454:1464  users[_id] */\n      dup2\n      mstore\n      0x20\n      add\n      swap1\n      dup2\n      mstore\n      0x20\n      add\n      0x00\n      keccak256\n        /* \"contracts/qlds/ICandidateManager.sol\":1454:1478  users[_id].nameCandidate */\n      0x02\n      add\n        /* \"contracts/qlds/ICandidateManager.sol\":1448:1486  bytes(users[_id].nameCandidate).length */\n      dup1\n      sload\n      tag_91\n      swap1\n      tag_67\n      jump\t// in\n    tag_91:\n      swap1\n      pop\n        /* \"contracts/qlds/ICandidateManager.sol\":1448:1491  bytes(users[_id].nameCandidate).length != 0 */\n      sub\n        /* \"contracts/qlds/ICandidateManager.sol\":1440:1518  require(bytes(users[_id].nameCandidate).length != 0, \"User has not voted yet\") */\n      tag_92\n      jumpi\n      mload(0x40)\n      0x08c379a000000000000000000000000000000000000000000000000000000000\n      dup2\n      mstore\n      0x04\n      add\n      tag_93\n      swap1\n      tag_94\n      jump\t// in\n    tag_93:\n      mload(0x40)\n      dup1\n      swap2\n      sub\n      swap1\n      revert\n    tag_92:\n        /* \"contracts/qlds/ICandidateManager.sol\":1536:1541  users */\n      0x00\n        /* \"contracts/qlds/ICandidateManager.sol\":1536:1546  users[_id] */\n      0x00\n        /* \"contracts/qlds/ICandidateManager.sol\":1542:1545  _id */\n      dup4\n        /* \"contracts/qlds/ICandidateManager.sol\":1536:1546  users[_id] */\n      dup2\n      mstore\n      0x20\n      add\n      swap1\n      dup2\n      mstore\n      0x20\n      add\n      0x00\n      keccak256\n        /* \"contracts/qlds/ICandidateManager.sol\":1536:1560  users[_id].nameCandidate */\n      0x02\n      add\n        /* \"contracts/qlds/ICandidateManager.sol\":1529:1560  return users[_id].nameCandidate */\n      dup1\n      sload\n      tag_95\n      swap1\n      tag_67\n      jump\t// in\n    tag_95:\n      dup1\n      0x1f\n      add\n      0x20\n      dup1\n      swap2\n      div\n      mul\n      0x20\n      add\n      mload(0x40)\n      swap1\n      dup2\n      add\n      0x40\n      mstore\n      dup1\n      swap3\n      swap2\n      swap1\n      dup2\n      dup2\n      mstore\n      0x20\n      add\n      dup3\n      dup1\n      sload\n      tag_96\n      swap1\n      tag_67\n      jump\t// in\n    tag_96:\n      dup1\n      iszero\n      tag_97\n      jumpi\n      dup1\n      0x1f\n      lt\n      tag_98\n      jumpi\n      0x0100\n      dup1\n      dup4\n      sload\n      div\n      mul\n      dup4\n      mstore\n      swap2\n      0x20\n      add\n      swap2\n      jump(tag_97)\n    tag_98:\n      dup3\n      add\n      swap2\n      swap1\n      0x00\n      mstore\n      keccak256(0x00, 0x20)\n      swap1\n    tag_99:\n      dup2\n      sload\n      dup2\n      mstore\n      swap1\n      0x01\n      add\n      swap1\n      0x20\n      add\n      dup1\n      dup4\n      gt\n      tag_99\n      jumpi\n      dup3\n      swap1\n      sub\n      0x1f\n      and\n      dup3\n      add\n      swap2\n    tag_97:\n      pop\n      pop\n      pop\n      pop\n      pop\n      swap1\n      pop\n        /* \"contracts/qlds/ICandidateManager.sol\":1363:1568  function getUserVote(uint _id) public view returns(string memory) {... */\n      swap2\n      swap1\n      pop\n      jump\t// out\n        /* \"contracts/qlds/ICandidateManager.sol\":476:518  ICandidateManager public candidateContract */\n    tag_36:\n      0x02\n      0x00\n      swap1\n      sload\n      swap1\n      0x0100\n      exp\n      swap1\n      div\n      0xffffffffffffffffffffffffffffffffffffffff\n      and\n      dup2\n      jump\t// out\n        /* \"contracts/qlds/ICandidateManager.sol\":1160:1246  function getUserCount() public view returns (uint) {... */\n    tag_40:\n        /* \"contracts/qlds/ICandidateManager.sol\":1205:1209  uint */\n      0x00\n        /* \"contracts/qlds/ICandidateManager.sol\":1229:1238  userCount */\n      sload(0x01)\n        /* \"contracts/qlds/ICandidateManager.sol\":1222:1238  return userCount */\n      swap1\n      pop\n        /* \"contracts/qlds/ICandidateManager.sol\":1160:1246  function getUserCount() public view returns (uint) {... */\n      swap1\n      jump\t// out\n    tag_78:\n      mload(0x40)\n      dup1\n      0xa0\n      add\n      0x40\n      mstore\n      dup1\n      0x00\n      dup2\n      mstore\n      0x20\n      add\n      0x60\n      dup2\n      mstore\n      0x20\n      add\n      0x60\n      dup2\n      mstore\n      0x20\n      add\n      and(0xffffffffffffffffffffffffffffffffffffffff, 0x00)\n      dup2\n      mstore\n      0x20\n      add\n      iszero(iszero(0x00))\n      dup2\n      mstore\n      pop\n      swap1\n      jump\t// out\n        /* \"#utility.yul\":7:84   */\n    tag_101:\n        /* \"#utility.yul\":44:51   */\n      0x00\n        /* \"#utility.yul\":73:78   */\n      dup2\n        /* \"#utility.yul\":62:78   */\n      swap1\n      pop\n        /* \"#utility.yul\":7:84   */\n      swap2\n      swap1\n      pop\n      jump\t// out\n        /* \"#utility.yul\":90:208   */\n    tag_102:\n        /* \"#utility.yul\":177:201   */\n      tag_167\n        /* \"#utility.yul\":195:200   */\n      dup2\n        /* \"#utility.yul\":177:201   */\n      tag_101\n      jump\t// in\n    tag_167:\n        /* \"#utility.yul\":172:175   */\n      dup3\n        /* \"#utility.yul\":165:202   */\n      mstore\n        /* \"#utility.yul\":90:208   */\n      pop\n      pop\n      jump\t// out\n        /* \"#utility.yul\":214:436   */\n    tag_14:\n        /* \"#utility.yul\":307:311   */\n      0x00\n        /* \"#utility.yul\":345:347   */\n      0x20\n        /* \"#utility.yul\":334:343   */\n      dup3\n        /* \"#utility.yul\":330:348   */\n      add\n        /* \"#utility.yul\":322:348   */\n      swap1\n      pop\n        /* \"#utility.yul\":358:429   */\n      tag_169\n        /* \"#utility.yul\":426:427   */\n      0x00\n        /* \"#utility.yul\":415:424   */\n      dup4\n        /* \"#utility.yul\":411:428   */\n      add\n        /* \"#utility.yul\":402:408   */\n      dup5\n        /* \"#utility.yul\":358:429   */\n      tag_102\n      jump\t// in\n    tag_169:\n        /* \"#utility.yul\":214:436   */\n      swap3\n      swap2\n      pop\n      pop\n      jump\t// out\n        /* \"#utility.yul\":442:517   */\n    tag_103:\n        /* \"#utility.yul\":475:481   */\n      0x00\n        /* \"#utility.yul\":508:510   */\n      0x40\n        /* \"#utility.yul\":502:511   */\n      mload\n        /* \"#utility.yul\":492:511   */\n      swap1\n      pop\n        /* \"#utility.yul\":442:517   */\n      swap1\n      jump\t// out\n        /* \"#utility.yul\":523:640   */\n    tag_104:\n        /* \"#utility.yul\":632:633   */\n      0x00\n        /* \"#utility.yul\":629:630   */\n      0x00\n        /* \"#utility.yul\":622:634   */\n      revert\n        /* \"#utility.yul\":646:763   */\n    tag_105:\n        /* \"#utility.yul\":755:756   */\n      0x00\n        /* \"#utility.yul\":752:753   */\n      0x00\n        /* \"#utility.yul\":745:757   */\n      revert\n        /* \"#utility.yul\":769:891   */\n    tag_106:\n        /* \"#utility.yul\":842:866   */\n      tag_174\n        /* \"#utility.yul\":860:865   */\n      dup2\n        /* \"#utility.yul\":842:866   */\n      tag_101\n      jump\t// in\n    tag_174:\n        /* \"#utility.yul\":835:840   */\n      dup2\n        /* \"#utility.yul\":832:867   */\n      eq\n        /* \"#utility.yul\":822:885   */\n      tag_175\n      jumpi\n        /* \"#utility.yul\":881:882   */\n      0x00\n        /* \"#utility.yul\":878:879   */\n      0x00\n        /* \"#utility.yul\":871:883   */\n      revert\n        /* \"#utility.yul\":822:885   */\n    tag_175:\n        /* \"#utility.yul\":769:891   */\n      pop\n      jump\t// out\n        /* \"#utility.yul\":897:1036   */\n    tag_107:\n        /* \"#utility.yul\":943:948   */\n      0x00\n        /* \"#utility.yul\":981:987   */\n      dup2\n        /* \"#utility.yul\":968:988   */\n      calldataload\n        /* \"#utility.yul\":959:988   */\n      swap1\n      pop\n        /* \"#utility.yul\":997:1030   */\n      tag_177\n        /* \"#utility.yul\":1024:1029   */\n      dup2\n        /* \"#utility.yul\":997:1030   */\n      tag_106\n      jump\t// in\n    tag_177:\n        /* \"#utility.yul\":897:1036   */\n      swap3\n      swap2\n      pop\n      pop\n      jump\t// out\n        /* \"#utility.yul\":1042:1159   */\n    tag_108:\n        /* \"#utility.yul\":1151:1152   */\n      0x00\n        /* \"#utility.yul\":1148:1149   */\n      0x00\n        /* \"#utility.yul\":1141:1153   */\n      revert\n        /* \"#utility.yul\":1165:1282   */\n    tag_109:\n        /* \"#utility.yul\":1274:1275   */\n      0x00\n        /* \"#utility.yul\":1271:1272   */\n      0x00\n        /* \"#utility.yul\":1264:1276   */\n      revert\n        /* \"#utility.yul\":1288:1390   */\n    tag_110:\n        /* \"#utility.yul\":1329:1335   */\n      0x00\n        /* \"#utility.yul\":1380:1382   */\n      0x1f\n        /* \"#utility.yul\":1376:1383   */\n      not\n        /* \"#utility.yul\":1371:1373   */\n      0x1f\n        /* \"#utility.yul\":1364:1369   */\n      dup4\n        /* \"#utility.yul\":1360:1374   */\n      add\n        /* \"#utility.yul\":1356:1384   */\n      and\n        /* \"#utility.yul\":1346:1384   */\n      swap1\n      pop\n        /* \"#utility.yul\":1288:1390   */\n      swap2\n      swap1\n      pop\n      jump\t// out\n        /* \"#utility.yul\":1396:1576   */\n    tag_111:\n        /* \"#utility.yul\":1444:1521   */\n      0x4e487b7100000000000000000000000000000000000000000000000000000000\n        /* \"#utility.yul\":1441:1442   */\n      0x00\n        /* \"#utility.yul\":1434:1522   */\n      mstore\n        /* \"#utility.yul\":1541:1545   */\n      0x41\n        /* \"#utility.yul\":1538:1539   */\n      0x04\n        /* \"#utility.yul\":1531:1546   */\n      mstore\n        /* \"#utility.yul\":1565:1569   */\n      0x24\n        /* \"#utility.yul\":1562:1563   */\n      0x00\n        /* \"#utility.yul\":1555:1570   */\n      revert\n        /* \"#utility.yul\":1582:1863   */\n    tag_112:\n        /* \"#utility.yul\":1665:1692   */\n      tag_183\n        /* \"#utility.yul\":1687:1691   */\n      dup3\n        /* \"#utility.yul\":1665:1692   */\n      tag_110\n      jump\t// in\n    tag_183:\n        /* \"#utility.yul\":1657:1663   */\n      dup2\n        /* \"#utility.yul\":1653:1693   */\n      add\n        /* \"#utility.yul\":1795:1801   */\n      dup2\n        /* \"#utility.yul\":1783:1793   */\n      dup2\n        /* \"#utility.yul\":1780:1802   */\n      lt\n        /* \"#utility.yul\":1759:1777   */\n      0xffffffffffffffff\n        /* \"#utility.yul\":1747:1757   */\n      dup3\n        /* \"#utility.yul\":1744:1778   */\n      gt\n        /* \"#utility.yul\":1741:1803   */\n      or\n        /* \"#utility.yul\":1738:1826   */\n      iszero\n      tag_184\n      jumpi\n        /* \"#utility.yul\":1806:1824   */\n      tag_185\n      tag_111\n      jump\t// in\n    tag_185:\n        /* \"#utility.yul\":1738:1826   */\n    tag_184:\n        /* \"#utility.yul\":1846:1856   */\n      dup1\n        /* \"#utility.yul\":1842:1844   */\n      0x40\n        /* \"#utility.yul\":1835:1857   */\n      mstore\n        /* \"#utility.yul\":1625:1863   */\n      pop\n        /* \"#utility.yul\":1582:1863   */\n      pop\n      pop\n      jump\t// out\n        /* \"#utility.yul\":1869:1998   */\n    tag_113:\n        /* \"#utility.yul\":1903:1909   */\n      0x00\n        /* \"#utility.yul\":1930:1950   */\n      tag_187\n      tag_103\n      jump\t// in\n    tag_187:\n        /* \"#utility.yul\":1920:1950   */\n      swap1\n      pop\n        /* \"#utility.yul\":1959:1992   */\n      tag_188\n        /* \"#utility.yul\":1987:1991   */\n      dup3\n        /* \"#utility.yul\":1979:1985   */\n      dup3\n        /* \"#utility.yul\":1959:1992   */\n      tag_112\n      jump\t// in\n    tag_188:\n        /* \"#utility.yul\":1869:1998   */\n      swap2\n      swap1\n      pop\n      jump\t// out\n        /* \"#utility.yul\":2004:2312   */\n    tag_114:\n        /* \"#utility.yul\":2066:2070   */\n      0x00\n        /* \"#utility.yul\":2156:2174   */\n      0xffffffffffffffff\n        /* \"#utility.yul\":2148:2154   */\n      dup3\n        /* \"#utility.yul\":2145:2175   */\n      gt\n        /* \"#utility.yul\":2142:2198   */\n      iszero\n      tag_190\n      jumpi\n        /* \"#utility.yul\":2178:2196   */\n      tag_191\n      tag_111\n      jump\t// in\n    tag_191:\n        /* \"#utility.yul\":2142:2198   */\n    tag_190:\n        /* \"#utility.yul\":2216:2245   */\n      tag_192\n        /* \"#utility.yul\":2238:2244   */\n      dup3\n        /* \"#utility.yul\":2216:2245   */\n      tag_110\n      jump\t// in\n    tag_192:\n        /* \"#utility.yul\":2208:2245   */\n      swap1\n      pop\n        /* \"#utility.yul\":2300:2304   */\n      0x20\n        /* \"#utility.yul\":2294:2298   */\n      dup2\n        /* \"#utility.yul\":2290:2305   */\n      add\n        /* \"#utility.yul\":2282:2305   */\n      swap1\n      pop\n        /* \"#utility.yul\":2004:2312   */\n      swap2\n      swap1\n      pop\n      jump\t// out\n        /* \"#utility.yul\":2318:2466   */\n    tag_115:\n        /* \"#utility.yul\":2416:2422   */\n      dup3\n        /* \"#utility.yul\":2411:2414   */\n      dup2\n        /* \"#utility.yul\":2406:2409   */\n      dup4\n        /* \"#utility.yul\":2393:2423   */\n      calldatacopy\n        /* \"#utility.yul\":2457:2458   */\n      0x00\n        /* \"#utility.yul\":2448:2454   */\n      dup4\n        /* \"#utility.yul\":2443:2446   */\n      dup4\n        /* \"#utility.yul\":2439:2455   */\n      add\n        /* \"#utility.yul\":2432:2459   */\n      mstore\n        /* \"#utility.yul\":2318:2466   */\n      pop\n      pop\n      pop\n      jump\t// out\n        /* \"#utility.yul\":2472:2897   */\n    tag_116:\n        /* \"#utility.yul\":2550:2555   */\n      0x00\n        /* \"#utility.yul\":2575:2641   */\n      tag_195\n        /* \"#utility.yul\":2591:2640   */\n      tag_196\n        /* \"#utility.yul\":2633:2639   */\n      dup5\n        /* \"#utility.yul\":2591:2640   */\n      tag_114\n      jump\t// in\n    tag_196:\n        /* \"#utility.yul\":2575:2641   */\n      tag_113\n      jump\t// in\n    tag_195:\n        /* \"#utility.yul\":2566:2641   */\n      swap1\n      pop\n        /* \"#utility.yul\":2664:2670   */\n      dup3\n        /* \"#utility.yul\":2657:2662   */\n      dup2\n        /* \"#utility.yul\":2650:2671   */\n      mstore\n        /* \"#utility.yul\":2702:2706   */\n      0x20\n        /* \"#utility.yul\":2695:2700   */\n      dup2\n        /* \"#utility.yul\":2691:2707   */\n      add\n        /* \"#utility.yul\":2740:2743   */\n      dup5\n        /* \"#utility.yul\":2731:2737   */\n      dup5\n        /* \"#utility.yul\":2726:2729   */\n      dup5\n        /* \"#utility.yul\":2722:2738   */\n      add\n        /* \"#utility.yul\":2719:2744   */\n      gt\n        /* \"#utility.yul\":2716:2828   */\n      iszero\n      tag_197\n      jumpi\n        /* \"#utility.yul\":2747:2826   */\n      tag_198\n      tag_109\n      jump\t// in\n    tag_198:\n        /* \"#utility.yul\":2716:2828   */\n    tag_197:\n        /* \"#utility.yul\":2837:2891   */\n      tag_199\n        /* \"#utility.yul\":2884:2890   */\n      dup5\n        /* \"#utility.yul\":2879:2882   */\n      dup3\n        /* \"#utility.yul\":2874:2877   */\n      dup6\n        /* \"#utility.yul\":2837:2891   */\n      tag_115\n      jump\t// in\n    tag_199:\n        /* \"#utility.yul\":2556:2897   */\n      pop\n        /* \"#utility.yul\":2472:2897   */\n      swap4\n      swap3\n      pop\n      pop\n      pop\n      jump\t// out\n        /* \"#utility.yul\":2917:3257   */\n    tag_117:\n        /* \"#utility.yul\":2973:2978   */\n      0x00\n        /* \"#utility.yul\":3022:3025   */\n      dup3\n        /* \"#utility.yul\":3015:3019   */\n      0x1f\n        /* \"#utility.yul\":3007:3013   */\n      dup4\n        /* \"#utility.yul\":3003:3020   */\n      add\n        /* \"#utility.yul\":2999:3026   */\n      slt\n        /* \"#utility.yul\":2989:3111   */\n      tag_201\n      jumpi\n        /* \"#utility.yul\":3030:3109   */\n      tag_202\n      tag_108\n      jump\t// in\n    tag_202:\n        /* \"#utility.yul\":2989:3111   */\n    tag_201:\n        /* \"#utility.yul\":3147:3153   */\n      dup2\n        /* \"#utility.yul\":3134:3154   */\n      calldataload\n        /* \"#utility.yul\":3172:3251   */\n      tag_203\n        /* \"#utility.yul\":3247:3250   */\n      dup5\n        /* \"#utility.yul\":3239:3245   */\n      dup3\n        /* \"#utility.yul\":3232:3236   */\n      0x20\n        /* \"#utility.yul\":3224:3230   */\n      dup7\n        /* \"#utility.yul\":3220:3237   */\n      add\n        /* \"#utility.yul\":3172:3251   */\n      tag_116\n      jump\t// in\n    tag_203:\n        /* \"#utility.yul\":3163:3251   */\n      swap2\n      pop\n        /* \"#utility.yul\":2979:3257   */\n      pop\n        /* \"#utility.yul\":2917:3257   */\n      swap3\n      swap2\n      pop\n      pop\n      jump\t// out\n        /* \"#utility.yul\":3263:4242   */\n    tag_17:\n        /* \"#utility.yul\":3360:3366   */\n      0x00\n        /* \"#utility.yul\":3368:3374   */\n      0x00\n        /* \"#utility.yul\":3376:3382   */\n      0x00\n        /* \"#utility.yul\":3425:3427   */\n      0x60\n        /* \"#utility.yul\":3413:3422   */\n      dup5\n        /* \"#utility.yul\":3404:3411   */\n      dup7\n        /* \"#utility.yul\":3400:3423   */\n      sub\n        /* \"#utility.yul\":3396:3428   */\n      slt\n        /* \"#utility.yul\":3393:3512   */\n      iszero\n      tag_205\n      jumpi\n        /* \"#utility.yul\":3431:3510   */\n      tag_206\n      tag_104\n      jump\t// in\n    tag_206:\n        /* \"#utility.yul\":3393:3512   */\n    tag_205:\n        /* \"#utility.yul\":3551:3552   */\n      0x00\n        /* \"#utility.yul\":3576:3629   */\n      tag_207\n        /* \"#utility.yul\":3621:3628   */\n      dup7\n        /* \"#utility.yul\":3612:3618   */\n      dup3\n        /* \"#utility.yul\":3601:3610   */\n      dup8\n        /* \"#utility.yul\":3597:3619   */\n      add\n        /* \"#utility.yul\":3576:3629   */\n      tag_107\n      jump\t// in\n    tag_207:\n        /* \"#utility.yul\":3566:3629   */\n      swap4\n      pop\n        /* \"#utility.yul\":3522:3639   */\n      pop\n        /* \"#utility.yul\":3706:3708   */\n      0x20\n        /* \"#utility.yul\":3695:3704   */\n      dup5\n        /* \"#utility.yul\":3691:3709   */\n      add\n        /* \"#utility.yul\":3678:3710   */\n      calldataload\n        /* \"#utility.yul\":3737:3755   */\n      0xffffffffffffffff\n        /* \"#utility.yul\":3729:3735   */\n      dup2\n        /* \"#utility.yul\":3726:3756   */\n      gt\n        /* \"#utility.yul\":3723:3840   */\n      iszero\n      tag_208\n      jumpi\n        /* \"#utility.yul\":3759:3838   */\n      tag_209\n      tag_105\n      jump\t// in\n    tag_209:\n        /* \"#utility.yul\":3723:3840   */\n    tag_208:\n        /* \"#utility.yul\":3864:3927   */\n      tag_210\n        /* \"#utility.yul\":3919:3926   */\n      dup7\n        /* \"#utility.yul\":3910:3916   */\n      dup3\n        /* \"#utility.yul\":3899:3908   */\n      dup8\n        /* \"#utility.yul\":3895:3917   */\n      add\n        /* \"#utility.yul\":3864:3927   */\n      tag_117\n      jump\t// in\n    tag_210:\n        /* \"#utility.yul\":3854:3927   */\n      swap3\n      pop\n        /* \"#utility.yul\":3649:3937   */\n      pop\n        /* \"#utility.yul\":4004:4006   */\n      0x40\n        /* \"#utility.yul\":3993:4002   */\n      dup5\n        /* \"#utility.yul\":3989:4007   */\n      add\n        /* \"#utility.yul\":3976:4008   */\n      calldataload\n        /* \"#utility.yul\":4035:4053   */\n      0xffffffffffffffff\n        /* \"#utility.yul\":4027:4033   */\n      dup2\n        /* \"#utility.yul\":4024:4054   */\n      gt\n        /* \"#utility.yul\":4021:4138   */\n      iszero\n      tag_211\n      jumpi\n        /* \"#utility.yul\":4057:4136   */\n      tag_212\n      tag_105\n      jump\t// in\n    tag_212:\n        /* \"#utility.yul\":4021:4138   */\n    tag_211:\n        /* \"#utility.yul\":4162:4225   */\n      tag_213\n        /* \"#utility.yul\":4217:4224   */\n      dup7\n        /* \"#utility.yul\":4208:4214   */\n      dup3\n        /* \"#utility.yul\":4197:4206   */\n      dup8\n        /* \"#utility.yul\":4193:4215   */\n      add\n        /* \"#utility.yul\":4162:4225   */\n      tag_117\n      jump\t// in\n    tag_213:\n        /* \"#utility.yul\":4152:4225   */\n      swap2\n      pop\n        /* \"#utility.yul\":3947:4235   */\n      pop\n        /* \"#utility.yul\":3263:4242   */\n      swap3\n      pop\n      swap3\n      pop\n      swap3\n      jump\t// out\n        /* \"#utility.yul\":4248:4577   */\n    tag_21:\n        /* \"#utility.yul\":4307:4313   */\n      0x00\n        /* \"#utility.yul\":4356:4358   */\n      0x20\n        /* \"#utility.yul\":4344:4353   */\n      dup3\n        /* \"#utility.yul\":4335:4342   */\n      dup5\n        /* \"#utility.yul\":4331:4354   */\n      sub\n        /* \"#utility.yul\":4327:4359   */\n      slt\n        /* \"#utility.yul\":4324:4443   */\n      iszero\n      tag_215\n      jumpi\n        /* \"#utility.yul\":4362:4441   */\n      tag_216\n      tag_104\n      jump\t// in\n    tag_216:\n        /* \"#utility.yul\":4324:4443   */\n    tag_215:\n        /* \"#utility.yul\":4482:4483   */\n      0x00\n        /* \"#utility.yul\":4507:4560   */\n      tag_217\n        /* \"#utility.yul\":4552:4559   */\n      dup5\n        /* \"#utility.yul\":4543:4549   */\n      dup3\n        /* \"#utility.yul\":4532:4541   */\n      dup6\n        /* \"#utility.yul\":4528:4550   */\n      add\n        /* \"#utility.yul\":4507:4560   */\n      tag_107\n      jump\t// in\n    tag_217:\n        /* \"#utility.yul\":4497:4560   */\n      swap2\n      pop\n        /* \"#utility.yul\":4453:4570   */\n      pop\n        /* \"#utility.yul\":4248:4577   */\n      swap3\n      swap2\n      pop\n      pop\n      jump\t// out\n        /* \"#utility.yul\":4583:4682   */\n    tag_118:\n        /* \"#utility.yul\":4635:4641   */\n      0x00\n        /* \"#utility.yul\":4669:4674   */\n      dup2\n        /* \"#utility.yul\":4663:4675   */\n      mload\n        /* \"#utility.yul\":4653:4675   */\n      swap1\n      pop\n        /* \"#utility.yul\":4583:4682   */\n      swap2\n      swap1\n      pop\n      jump\t// out\n        /* \"#utility.yul\":4688:4857   */\n    tag_119:\n        /* \"#utility.yul\":4772:4783   */\n      0x00\n        /* \"#utility.yul\":4806:4812   */\n      dup3\n        /* \"#utility.yul\":4801:4804   */\n      dup3\n        /* \"#utility.yul\":4794:4813   */\n      mstore\n        /* \"#utility.yul\":4846:4850   */\n      0x20\n        /* \"#utility.yul\":4841:4844   */\n      dup3\n        /* \"#utility.yul\":4837:4851   */\n      add\n        /* \"#utility.yul\":4822:4851   */\n      swap1\n      pop\n        /* \"#utility.yul\":4688:4857   */\n      swap3\n      swap2\n      pop\n      pop\n      jump\t// out\n        /* \"#utility.yul\":4863:5002   */\n    tag_120:\n        /* \"#utility.yul\":4952:4958   */\n      dup3\n        /* \"#utility.yul\":4947:4950   */\n      dup2\n        /* \"#utility.yul\":4942:4945   */\n      dup4\n        /* \"#utility.yul\":4936:4959   */\n      mcopy\n        /* \"#utility.yul\":4993:4994   */\n      0x00\n        /* \"#utility.yul\":4984:4990   */\n      dup4\n        /* \"#utility.yul\":4979:4982   */\n      dup4\n        /* \"#utility.yul\":4975:4991   */\n      add\n        /* \"#utility.yul\":4968:4995   */\n      mstore\n        /* \"#utility.yul\":4863:5002   */\n      pop\n      pop\n      pop\n      jump\t// out\n        /* \"#utility.yul\":5008:5385   */\n    tag_121:\n        /* \"#utility.yul\":5096:5099   */\n      0x00\n        /* \"#utility.yul\":5124:5163   */\n      tag_222\n        /* \"#utility.yul\":5157:5162   */\n      dup3\n        /* \"#utility.yul\":5124:5163   */\n      tag_118\n      jump\t// in\n    tag_222:\n        /* \"#utility.yul\":5179:5250   */\n      tag_223\n        /* \"#utility.yul\":5243:5249   */\n      dup2\n        /* \"#utility.yul\":5238:5241   */\n      dup6\n        /* \"#utility.yul\":5179:5250   */\n      tag_119\n      jump\t// in\n    tag_223:\n        /* \"#utility.yul\":5172:5250   */\n      swap4\n      pop\n        /* \"#utility.yul\":5259:5324   */\n      tag_224\n        /* \"#utility.yul\":5317:5323   */\n      dup2\n        /* \"#utility.yul\":5312:5315   */\n      dup6\n        /* \"#utility.yul\":5305:5309   */\n      0x20\n        /* \"#utility.yul\":5298:5303   */\n      dup7\n        /* \"#utility.yul\":5294:5310   */\n      add\n        /* \"#utility.yul\":5259:5324   */\n      tag_120\n      jump\t// in\n    tag_224:\n        /* \"#utility.yul\":5349:5378   */\n      tag_225\n        /* \"#utility.yul\":5371:5377   */\n      dup2\n        /* \"#utility.yul\":5349:5378   */\n      tag_110\n      jump\t// in\n    tag_225:\n        /* \"#utility.yul\":5344:5347   */\n      dup5\n        /* \"#utility.yul\":5340:5379   */\n      add\n        /* \"#utility.yul\":5333:5379   */\n      swap2\n      pop\n        /* \"#utility.yul\":5100:5385   */\n      pop\n        /* \"#utility.yul\":5008:5385   */\n      swap3\n      swap2\n      pop\n      pop\n      jump\t// out\n        /* \"#utility.yul\":5391:5517   */\n    tag_122:\n        /* \"#utility.yul\":5428:5435   */\n      0x00\n        /* \"#utility.yul\":5468:5510   */\n      0xffffffffffffffffffffffffffffffffffffffff\n        /* \"#utility.yul\":5461:5466   */\n      dup3\n        /* \"#utility.yul\":5457:5511   */\n      and\n        /* \"#utility.yul\":5446:5511   */\n      swap1\n      pop\n        /* \"#utility.yul\":5391:5517   */\n      swap2\n      swap1\n      pop\n      jump\t// out\n        /* \"#utility.yul\":5523:5619   */\n    tag_123:\n        /* \"#utility.yul\":5560:5567   */\n      0x00\n        /* \"#utility.yul\":5589:5613   */\n      tag_228\n        /* \"#utility.yul\":5607:5612   */\n      dup3\n        /* \"#utility.yul\":5589:5613   */\n      tag_122\n      jump\t// in\n    tag_228:\n        /* \"#utility.yul\":5578:5613   */\n      swap1\n      pop\n        /* \"#utility.yul\":5523:5619   */\n      swap2\n      swap1\n      pop\n      jump\t// out\n        /* \"#utility.yul\":5625:5743   */\n    tag_124:\n        /* \"#utility.yul\":5712:5736   */\n      tag_230\n        /* \"#utility.yul\":5730:5735   */\n      dup2\n        /* \"#utility.yul\":5712:5736   */\n      tag_123\n      jump\t// in\n    tag_230:\n        /* \"#utility.yul\":5707:5710   */\n      dup3\n        /* \"#utility.yul\":5700:5737   */\n      mstore\n        /* \"#utility.yul\":5625:5743   */\n      pop\n      pop\n      jump\t// out\n        /* \"#utility.yul\":5749:5839   */\n    tag_125:\n        /* \"#utility.yul\":5783:5790   */\n      0x00\n        /* \"#utility.yul\":5826:5831   */\n      dup2\n        /* \"#utility.yul\":5819:5832   */\n      iszero\n        /* \"#utility.yul\":5812:5833   */\n      iszero\n        /* \"#utility.yul\":5801:5833   */\n      swap1\n      pop\n        /* \"#utility.yul\":5749:5839   */\n      swap2\n      swap1\n      pop\n      jump\t// out\n        /* \"#utility.yul\":5845:5954   */\n    tag_126:\n        /* \"#utility.yul\":5926:5947   */\n      tag_233\n        /* \"#utility.yul\":5941:5946   */\n      dup2\n        /* \"#utility.yul\":5926:5947   */\n      tag_125\n      jump\t// in\n    tag_233:\n        /* \"#utility.yul\":5921:5924   */\n      dup3\n        /* \"#utility.yul\":5914:5948   */\n      mstore\n        /* \"#utility.yul\":5845:5954   */\n      pop\n      pop\n      jump\t// out\n        /* \"#utility.yul\":5960:6794   */\n    tag_24:\n        /* \"#utility.yul\":6199:6203   */\n      0x00\n        /* \"#utility.yul\":6237:6240   */\n      0xa0\n        /* \"#utility.yul\":6226:6235   */\n      dup3\n        /* \"#utility.yul\":6222:6241   */\n      add\n        /* \"#utility.yul\":6214:6241   */\n      swap1\n      pop\n        /* \"#utility.yul\":6251:6322   */\n      tag_235\n        /* \"#utility.yul\":6319:6320   */\n      0x00\n        /* \"#utility.yul\":6308:6317   */\n      dup4\n        /* \"#utility.yul\":6304:6321   */\n      add\n        /* \"#utility.yul\":6295:6301   */\n      dup9\n        /* \"#utility.yul\":6251:6322   */\n      tag_102\n      jump\t// in\n    tag_235:\n        /* \"#utility.yul\":6369:6378   */\n      dup2\n        /* \"#utility.yul\":6363:6367   */\n      dup2\n        /* \"#utility.yul\":6359:6379   */\n      sub\n        /* \"#utility.yul\":6354:6356   */\n      0x20\n        /* \"#utility.yul\":6343:6352   */\n      dup4\n        /* \"#utility.yul\":6339:6357   */\n      add\n        /* \"#utility.yul\":6332:6380   */\n      mstore\n        /* \"#utility.yul\":6397:6475   */\n      tag_236\n        /* \"#utility.yul\":6470:6474   */\n      dup2\n        /* \"#utility.yul\":6461:6467   */\n      dup8\n        /* \"#utility.yul\":6397:6475   */\n      tag_121\n      jump\t// in\n    tag_236:\n        /* \"#utility.yul\":6389:6475   */\n      swap1\n      pop\n        /* \"#utility.yul\":6522:6531   */\n      dup2\n        /* \"#utility.yul\":6516:6520   */\n      dup2\n        /* \"#utility.yul\":6512:6532   */\n      sub\n        /* \"#utility.yul\":6507:6509   */\n      0x40\n        /* \"#utility.yul\":6496:6505   */\n      dup4\n        /* \"#utility.yul\":6492:6510   */\n      add\n        /* \"#utility.yul\":6485:6533   */\n      mstore\n        /* \"#utility.yul\":6550:6628   */\n      tag_237\n        /* \"#utility.yul\":6623:6627   */\n      dup2\n        /* \"#utility.yul\":6614:6620   */\n      dup7\n        /* \"#utility.yul\":6550:6628   */\n      tag_121\n      jump\t// in\n    tag_237:\n        /* \"#utility.yul\":6542:6628   */\n      swap1\n      pop\n        /* \"#utility.yul\":6638:6710   */\n      tag_238\n        /* \"#utility.yul\":6706:6708   */\n      0x60\n        /* \"#utility.yul\":6695:6704   */\n      dup4\n        /* \"#utility.yul\":6691:6709   */\n      add\n        /* \"#utility.yul\":6682:6688   */\n      dup6\n        /* \"#utility.yul\":6638:6710   */\n      tag_124\n      jump\t// in\n    tag_238:\n        /* \"#utility.yul\":6720:6787   */\n      tag_239\n        /* \"#utility.yul\":6782:6785   */\n      0x80\n        /* \"#utility.yul\":6771:6780   */\n      dup4\n        /* \"#utility.yul\":6767:6786   */\n      add\n        /* \"#utility.yul\":6758:6764   */\n      dup5\n        /* \"#utility.yul\":6720:6787   */\n      tag_126\n      jump\t// in\n    tag_239:\n        /* \"#utility.yul\":5960:6794   */\n      swap7\n      swap6\n      pop\n      pop\n      pop\n      pop\n      pop\n      pop\n      jump\t// out\n        /* \"#utility.yul\":6800:6908   */\n    tag_127:\n        /* \"#utility.yul\":6877:6901   */\n      tag_241\n        /* \"#utility.yul\":6895:6900   */\n      dup2\n        /* \"#utility.yul\":6877:6901   */\n      tag_101\n      jump\t// in\n    tag_241:\n        /* \"#utility.yul\":6872:6875   */\n      dup3\n        /* \"#utility.yul\":6865:6902   */\n      mstore\n        /* \"#utility.yul\":6800:6908   */\n      pop\n      pop\n      jump\t// out\n        /* \"#utility.yul\":6914:7073   */\n    tag_128:\n        /* \"#utility.yul\":6988:6999   */\n      0x00\n        /* \"#utility.yul\":7022:7028   */\n      dup3\n        /* \"#utility.yul\":7017:7020   */\n      dup3\n        /* \"#utility.yul\":7010:7029   */\n      mstore\n        /* \"#utility.yul\":7062:7066   */\n      0x20\n        /* \"#utility.yul\":7057:7060   */\n      dup3\n        /* \"#utility.yul\":7053:7067   */\n      add\n        /* \"#utility.yul\":7038:7067   */\n      swap1\n      pop\n        /* \"#utility.yul\":6914:7073   */\n      swap3\n      swap2\n      pop\n      pop\n      jump\t// out\n        /* \"#utility.yul\":7079:7436   */\n    tag_129:\n        /* \"#utility.yul\":7157:7160   */\n      0x00\n        /* \"#utility.yul\":7185:7224   */\n      tag_244\n        /* \"#utility.yul\":7218:7223   */\n      dup3\n        /* \"#utility.yul\":7185:7224   */\n      tag_118\n      jump\t// in\n    tag_244:\n        /* \"#utility.yul\":7240:7301   */\n      tag_245\n        /* \"#utility.yul\":7294:7300   */\n      dup2\n        /* \"#utility.yul\":7289:7292   */\n      dup6\n        /* \"#utility.yul\":7240:7301   */\n      tag_128\n      jump\t// in\n    tag_245:\n        /* \"#utility.yul\":7233:7301   */\n      swap4\n      pop\n        /* \"#utility.yul\":7310:7375   */\n      tag_246\n        /* \"#utility.yul\":7368:7374   */\n      dup2\n        /* \"#utility.yul\":7363:7366   */\n      dup6\n        /* \"#utility.yul\":7356:7360   */\n      0x20\n        /* \"#utility.yul\":7349:7354   */\n      dup7\n        /* \"#utility.yul\":7345:7361   */\n      add\n        /* \"#utility.yul\":7310:7375   */\n      tag_120\n      jump\t// in\n    tag_246:\n        /* \"#utility.yul\":7400:7429   */\n      tag_247\n        /* \"#utility.yul\":7422:7428   */\n      dup2\n        /* \"#utility.yul\":7400:7429   */\n      tag_110\n      jump\t// in\n    tag_247:\n        /* \"#utility.yul\":7395:7398   */\n      dup5\n        /* \"#utility.yul\":7391:7430   */\n      add\n        /* \"#utility.yul\":7384:7430   */\n      swap2\n      pop\n        /* \"#utility.yul\":7161:7436   */\n      pop\n        /* \"#utility.yul\":7079:7436   */\n      swap3\n      swap2\n      pop\n      pop\n      jump\t// out\n        /* \"#utility.yul\":7442:7550   */\n    tag_130:\n        /* \"#utility.yul\":7519:7543   */\n      tag_249\n        /* \"#utility.yul\":7537:7542   */\n      dup2\n        /* \"#utility.yul\":7519:7543   */\n      tag_123\n      jump\t// in\n    tag_249:\n        /* \"#utility.yul\":7514:7517   */\n      dup3\n        /* \"#utility.yul\":7507:7544   */\n      mstore\n        /* \"#utility.yul\":7442:7550   */\n      pop\n      pop\n      jump\t// out\n        /* \"#utility.yul\":7556:7655   */\n    tag_131:\n        /* \"#utility.yul\":7627:7648   */\n      tag_251\n        /* \"#utility.yul\":7642:7647   */\n      dup2\n        /* \"#utility.yul\":7627:7648   */\n      tag_125\n      jump\t// in\n    tag_251:\n        /* \"#utility.yul\":7622:7625   */\n      dup3\n        /* \"#utility.yul\":7615:7649   */\n      mstore\n        /* \"#utility.yul\":7556:7655   */\n      pop\n      pop\n      jump\t// out\n        /* \"#utility.yul\":7719:8918   */\n    tag_132:\n        /* \"#utility.yul\":7828:7831   */\n      0x00\n        /* \"#utility.yul\":7864:7868   */\n      0xa0\n        /* \"#utility.yul\":7859:7862   */\n      dup4\n        /* \"#utility.yul\":7855:7869   */\n      add\n        /* \"#utility.yul\":7949:7953   */\n      0x00\n        /* \"#utility.yul\":7942:7947   */\n      dup4\n        /* \"#utility.yul\":7938:7954   */\n      add\n        /* \"#utility.yul\":7932:7955   */\n      mload\n        /* \"#utility.yul\":7968:8031   */\n      tag_253\n        /* \"#utility.yul\":8025:8029   */\n      0x00\n        /* \"#utility.yul\":8020:8023   */\n      dup7\n        /* \"#utility.yul\":8016:8030   */\n      add\n        /* \"#utility.yul\":8002:8014   */\n      dup3\n        /* \"#utility.yul\":7968:8031   */\n      tag_127\n      jump\t// in\n    tag_253:\n        /* \"#utility.yul\":7879:8041   */\n      pop\n        /* \"#utility.yul\":8123:8127   */\n      0x20\n        /* \"#utility.yul\":8116:8121   */\n      dup4\n        /* \"#utility.yul\":8112:8128   */\n      add\n        /* \"#utility.yul\":8106:8129   */\n      mload\n        /* \"#utility.yul\":8176:8179   */\n      dup5\n        /* \"#utility.yul\":8170:8174   */\n      dup3\n        /* \"#utility.yul\":8166:8180   */\n      sub\n        /* \"#utility.yul\":8159:8163   */\n      0x20\n        /* \"#utility.yul\":8154:8157   */\n      dup7\n        /* \"#utility.yul\":8150:8164   */\n      add\n        /* \"#utility.yul\":8143:8181   */\n      mstore\n        /* \"#utility.yul\":8202:8275   */\n      tag_254\n        /* \"#utility.yul\":8270:8274   */\n      dup3\n        /* \"#utility.yul\":8256:8268   */\n      dup3\n        /* \"#utility.yul\":8202:8275   */\n      tag_129\n      jump\t// in\n    tag_254:\n        /* \"#utility.yul\":8194:8275   */\n      swap2\n      pop\n        /* \"#utility.yul\":8051:8286   */\n      pop\n        /* \"#utility.yul\":8377:8381   */\n      0x40\n        /* \"#utility.yul\":8370:8375   */\n      dup4\n        /* \"#utility.yul\":8366:8382   */\n      add\n        /* \"#utility.yul\":8360:8383   */\n      mload\n        /* \"#utility.yul\":8430:8433   */\n      dup5\n        /* \"#utility.yul\":8424:8428   */\n      dup3\n        /* \"#utility.yul\":8420:8434   */\n      sub\n        /* \"#utility.yul\":8413:8417   */\n      0x40\n        /* \"#utility.yul\":8408:8411   */\n      dup7\n        /* \"#utility.yul\":8404:8418   */\n      add\n        /* \"#utility.yul\":8397:8435   */\n      mstore\n        /* \"#utility.yul\":8456:8529   */\n      tag_255\n        /* \"#utility.yul\":8524:8528   */\n      dup3\n        /* \"#utility.yul\":8510:8522   */\n      dup3\n        /* \"#utility.yul\":8456:8529   */\n      tag_129\n      jump\t// in\n    tag_255:\n        /* \"#utility.yul\":8448:8529   */\n      swap2\n      pop\n        /* \"#utility.yul\":8296:8540   */\n      pop\n        /* \"#utility.yul\":8629:8633   */\n      0x60\n        /* \"#utility.yul\":8622:8627   */\n      dup4\n        /* \"#utility.yul\":8618:8634   */\n      add\n        /* \"#utility.yul\":8612:8635   */\n      mload\n        /* \"#utility.yul\":8648:8711   */\n      tag_256\n        /* \"#utility.yul\":8705:8709   */\n      0x60\n        /* \"#utility.yul\":8700:8703   */\n      dup7\n        /* \"#utility.yul\":8696:8710   */\n      add\n        /* \"#utility.yul\":8682:8694   */\n      dup3\n        /* \"#utility.yul\":8648:8711   */\n      tag_130\n      jump\t// in\n    tag_256:\n        /* \"#utility.yul\":8550:8721   */\n      pop\n        /* \"#utility.yul\":8805:8809   */\n      0x80\n        /* \"#utility.yul\":8798:8803   */\n      dup4\n        /* \"#utility.yul\":8794:8810   */\n      add\n        /* \"#utility.yul\":8788:8811   */\n      mload\n        /* \"#utility.yul\":8824:8881   */\n      tag_257\n        /* \"#utility.yul\":8875:8879   */\n      0x80\n        /* \"#utility.yul\":8870:8873   */\n      dup7\n        /* \"#utility.yul\":8866:8880   */\n      add\n        /* \"#utility.yul\":8852:8864   */\n      dup3\n        /* \"#utility.yul\":8824:8881   */\n      tag_131\n      jump\t// in\n    tag_257:\n        /* \"#utility.yul\":8731:8891   */\n      pop\n        /* \"#utility.yul\":8908:8912   */\n      dup1\n        /* \"#utility.yul\":8901:8912   */\n      swap2\n      pop\n        /* \"#utility.yul\":7833:8918   */\n      pop\n        /* \"#utility.yul\":7719:8918   */\n      swap3\n      swap2\n      pop\n      pop\n      jump\t// out\n        /* \"#utility.yul\":8924:9277   */\n    tag_29:\n        /* \"#utility.yul\":9057:9061   */\n      0x00\n        /* \"#utility.yul\":9095:9097   */\n      0x20\n        /* \"#utility.yul\":9084:9093   */\n      dup3\n        /* \"#utility.yul\":9080:9098   */\n      add\n        /* \"#utility.yul\":9072:9098   */\n      swap1\n      pop\n        /* \"#utility.yul\":9144:9153   */\n      dup2\n        /* \"#utility.yul\":9138:9142   */\n      dup2\n        /* \"#utility.yul\":9134:9154   */\n      sub\n        /* \"#utility.yul\":9130:9131   */\n      0x00\n        /* \"#utility.yul\":9119:9128   */\n      dup4\n        /* \"#utility.yul\":9115:9132   */\n      add\n        /* \"#utility.yul\":9108:9155   */\n      mstore\n        /* \"#utility.yul\":9172:9270   */\n      tag_259\n        /* \"#utility.yul\":9265:9269   */\n      dup2\n        /* \"#utility.yul\":9256:9262   */\n      dup5\n        /* \"#utility.yul\":9172:9270   */\n      tag_132\n      jump\t// in\n    tag_259:\n        /* \"#utility.yul\":9164:9270   */\n      swap1\n      pop\n        /* \"#utility.yul\":8924:9277   */\n      swap3\n      swap2\n      pop\n      pop\n      jump\t// out\n        /* \"#utility.yul\":9283:9596   */\n    tag_34:\n        /* \"#utility.yul\":9396:9400   */\n      0x00\n        /* \"#utility.yul\":9434:9436   */\n      0x20\n        /* \"#utility.yul\":9423:9432   */\n      dup3\n        /* \"#utility.yul\":9419:9437   */\n      add\n        /* \"#utility.yul\":9411:9437   */\n      swap1\n      pop\n        /* \"#utility.yul\":9483:9492   */\n      dup2\n        /* \"#utility.yul\":9477:9481   */\n      dup2\n        /* \"#utility.yul\":9473:9493   */\n      sub\n        /* \"#utility.yul\":9469:9470   */\n      0x00\n        /* \"#utility.yul\":9458:9467   */\n      dup4\n        /* \"#utility.yul\":9454:9471   */\n      add\n        /* \"#utility.yul\":9447:9494   */\n      mstore\n        /* \"#utility.yul\":9511:9589   */\n      tag_261\n        /* \"#utility.yul\":9584:9588   */\n      dup2\n        /* \"#utility.yul\":9575:9581   */\n      dup5\n        /* \"#utility.yul\":9511:9589   */\n      tag_121\n      jump\t// in\n    tag_261:\n        /* \"#utility.yul\":9503:9589   */\n      swap1\n      pop\n        /* \"#utility.yul\":9283:9596   */\n      swap3\n      swap2\n      pop\n      pop\n      jump\t// out\n        /* \"#utility.yul\":9602:9662   */\n    tag_133:\n        /* \"#utility.yul\":9630:9633   */\n      0x00\n        /* \"#utility.yul\":9651:9656   */\n      dup2\n        /* \"#utility.yul\":9644:9656   */\n      swap1\n      pop\n        /* \"#utility.yul\":9602:9662   */\n      swap2\n      swap1\n      pop\n      jump\t// out\n        /* \"#utility.yul\":9668:9810   */\n    tag_134:\n        /* \"#utility.yul\":9718:9727   */\n      0x00\n        /* \"#utility.yul\":9751:9804   */\n      tag_264\n        /* \"#utility.yul\":9769:9803   */\n      tag_265\n        /* \"#utility.yul\":9778:9802   */\n      tag_266\n        /* \"#utility.yul\":9796:9801   */\n      dup5\n        /* \"#utility.yul\":9778:9802   */\n      tag_122\n      jump\t// in\n    tag_266:\n        /* \"#utility.yul\":9769:9803   */\n      tag_133\n      jump\t// in\n    tag_265:\n        /* \"#utility.yul\":9751:9804   */\n      tag_122\n      jump\t// in\n    tag_264:\n        /* \"#utility.yul\":9738:9804   */\n      swap1\n      pop\n        /* \"#utility.yul\":9668:9810   */\n      swap2\n      swap1\n      pop\n      jump\t// out\n        /* \"#utility.yul\":9816:9942   */\n    tag_135:\n        /* \"#utility.yul\":9866:9875   */\n      0x00\n        /* \"#utility.yul\":9899:9936   */\n      tag_268\n        /* \"#utility.yul\":9930:9935   */\n      dup3\n        /* \"#utility.yul\":9899:9936   */\n      tag_134\n      jump\t// in\n    tag_268:\n        /* \"#utility.yul\":9886:9936   */\n      swap1\n      pop\n        /* \"#utility.yul\":9816:9942   */\n      swap2\n      swap1\n      pop\n      jump\t// out\n        /* \"#utility.yul\":9948:10098   */\n    tag_136:\n        /* \"#utility.yul\":10022:10031   */\n      0x00\n        /* \"#utility.yul\":10055:10092   */\n      tag_270\n        /* \"#utility.yul\":10086:10091   */\n      dup3\n        /* \"#utility.yul\":10055:10092   */\n      tag_135\n      jump\t// in\n    tag_270:\n        /* \"#utility.yul\":10042:10092   */\n      swap1\n      pop\n        /* \"#utility.yul\":9948:10098   */\n      swap2\n      swap1\n      pop\n      jump\t// out\n        /* \"#utility.yul\":10104:10283   */\n    tag_137:\n        /* \"#utility.yul\":10215:10276   */\n      tag_272\n        /* \"#utility.yul\":10270:10275   */\n      dup2\n        /* \"#utility.yul\":10215:10276   */\n      tag_136\n      jump\t// in\n    tag_272:\n        /* \"#utility.yul\":10210:10213   */\n      dup3\n        /* \"#utility.yul\":10203:10277   */\n      mstore\n        /* \"#utility.yul\":10104:10283   */\n      pop\n      pop\n      jump\t// out\n        /* \"#utility.yul\":10289:10559   */\n    tag_38:\n        /* \"#utility.yul\":10406:10410   */\n      0x00\n        /* \"#utility.yul\":10444:10446   */\n      0x20\n        /* \"#utility.yul\":10433:10442   */\n      dup3\n        /* \"#utility.yul\":10429:10447   */\n      add\n        /* \"#utility.yul\":10421:10447   */\n      swap1\n      pop\n        /* \"#utility.yul\":10457:10552   */\n      tag_274\n        /* \"#utility.yul\":10549:10550   */\n      0x00\n        /* \"#utility.yul\":10538:10547   */\n      dup4\n        /* \"#utility.yul\":10534:10551   */\n      add\n        /* \"#utility.yul\":10525:10531   */\n      dup5\n        /* \"#utility.yul\":10457:10552   */\n      tag_137\n      jump\t// in\n    tag_274:\n        /* \"#utility.yul\":10289:10559   */\n      swap3\n      swap2\n      pop\n      pop\n      jump\t// out\n        /* \"#utility.yul\":10565:10737   */\n    tag_138:\n        /* \"#utility.yul\":10705:10729   */\n      0x5573657220696420616c72656164792065786973747300000000000000000000\n        /* \"#utility.yul\":10701:10702   */\n      0x00\n        /* \"#utility.yul\":10693:10699   */\n      dup3\n        /* \"#utility.yul\":10689:10703   */\n      add\n        /* \"#utility.yul\":10682:10730   */\n      mstore\n        /* \"#utility.yul\":10565:10737   */\n      pop\n      jump\t// out\n        /* \"#utility.yul\":10743:11109   */\n    tag_139:\n        /* \"#utility.yul\":10885:10888   */\n      0x00\n        /* \"#utility.yul\":10906:10973   */\n      tag_277\n        /* \"#utility.yul\":10970:10972   */\n      0x16\n        /* \"#utility.yul\":10965:10968   */\n      dup4\n        /* \"#utility.yul\":10906:10973   */\n      tag_119\n      jump\t// in\n    tag_277:\n        /* \"#utility.yul\":10899:10973   */\n      swap2\n      pop\n        /* \"#utility.yul\":10982:11075   */\n      tag_278\n        /* \"#utility.yul\":11071:11074   */\n      dup3\n        /* \"#utility.yul\":10982:11075   */\n      tag_138\n      jump\t// in\n    tag_278:\n        /* \"#utility.yul\":11100:11102   */\n      0x20\n        /* \"#utility.yul\":11095:11098   */\n      dup3\n        /* \"#utility.yul\":11091:11103   */\n      add\n        /* \"#utility.yul\":11084:11103   */\n      swap1\n      pop\n        /* \"#utility.yul\":10743:11109   */\n      swap2\n      swap1\n      pop\n      jump\t// out\n        /* \"#utility.yul\":11115:11534   */\n    tag_45:\n        /* \"#utility.yul\":11281:11285   */\n      0x00\n        /* \"#utility.yul\":11319:11321   */\n      0x20\n        /* \"#utility.yul\":11308:11317   */\n      dup3\n        /* \"#utility.yul\":11304:11322   */\n      add\n        /* \"#utility.yul\":11296:11322   */\n      swap1\n      pop\n        /* \"#utility.yul\":11368:11377   */\n      dup2\n        /* \"#utility.yul\":11362:11366   */\n      dup2\n        /* \"#utility.yul\":11358:11378   */\n      sub\n        /* \"#utility.yul\":11354:11355   */\n      0x00\n        /* \"#utility.yul\":11343:11352   */\n      dup4\n        /* \"#utility.yul\":11339:11356   */\n      add\n        /* \"#utility.yul\":11332:11379   */\n      mstore\n        /* \"#utility.yul\":11396:11527   */\n      tag_280\n        /* \"#utility.yul\":11522:11526   */\n      dup2\n        /* \"#utility.yul\":11396:11527   */\n      tag_139\n      jump\t// in\n    tag_280:\n        /* \"#utility.yul\":11388:11527   */\n      swap1\n      pop\n        /* \"#utility.yul\":11115:11534   */\n      swap2\n      swap1\n      pop\n      jump\t// out\n        /* \"#utility.yul\":11540:11710   */\n    tag_140:\n        /* \"#utility.yul\":11680:11702   */\n      0x4e616d652063616e6e6f7420626520656d707479000000000000000000000000\n        /* \"#utility.yul\":11676:11677   */\n      0x00\n        /* \"#utility.yul\":11668:11674   */\n      dup3\n        /* \"#utility.yul\":11664:11678   */\n      add\n        /* \"#utility.yul\":11657:11703   */\n      mstore\n        /* \"#utility.yul\":11540:11710   */\n      pop\n      jump\t// out\n        /* \"#utility.yul\":11716:12082   */\n    tag_141:\n        /* \"#utility.yul\":11858:11861   */\n      0x00\n        /* \"#utility.yul\":11879:11946   */\n      tag_283\n        /* \"#utility.yul\":11943:11945   */\n      0x14\n        /* \"#utility.yul\":11938:11941   */\n      dup4\n        /* \"#utility.yul\":11879:11946   */\n      tag_119\n      jump\t// in\n    tag_283:\n        /* \"#utility.yul\":11872:11946   */\n      swap2\n      pop\n        /* \"#utility.yul\":11955:12048   */\n      tag_284\n        /* \"#utility.yul\":12044:12047   */\n      dup3\n        /* \"#utility.yul\":11955:12048   */\n      tag_140\n      jump\t// in\n    tag_284:\n        /* \"#utility.yul\":12073:12075   */\n      0x20\n        /* \"#utility.yul\":12068:12071   */\n      dup3\n        /* \"#utility.yul\":12064:12076   */\n      add\n        /* \"#utility.yul\":12057:12076   */\n      swap1\n      pop\n        /* \"#utility.yul\":11716:12082   */\n      swap2\n      swap1\n      pop\n      jump\t// out\n        /* \"#utility.yul\":12088:12507   */\n    tag_48:\n        /* \"#utility.yul\":12254:12258   */\n      0x00\n        /* \"#utility.yul\":12292:12294   */\n      0x20\n        /* \"#utility.yul\":12281:12290   */\n      dup3\n        /* \"#utility.yul\":12277:12295   */\n      add\n        /* \"#utility.yul\":12269:12295   */\n      swap1\n      pop\n        /* \"#utility.yul\":12341:12350   */\n      dup2\n        /* \"#utility.yul\":12335:12339   */\n      dup2\n        /* \"#utility.yul\":12331:12351   */\n      sub\n        /* \"#utility.yul\":12327:12328   */\n      0x00\n        /* \"#utility.yul\":12316:12325   */\n      dup4\n        /* \"#utility.yul\":12312:12329   */\n      add\n        /* \"#utility.yul\":12305:12352   */\n      mstore\n        /* \"#utility.yul\":12369:12500   */\n      tag_286\n        /* \"#utility.yul\":12495:12499   */\n      dup2\n        /* \"#utility.yul\":12369:12500   */\n      tag_141\n      jump\t// in\n    tag_286:\n        /* \"#utility.yul\":12361:12500   */\n      swap1\n      pop\n        /* \"#utility.yul\":12088:12507   */\n      swap2\n      swap1\n      pop\n      jump\t// out\n        /* \"#utility.yul\":12513:12629   */\n    tag_142:\n        /* \"#utility.yul\":12583:12604   */\n      tag_288\n        /* \"#utility.yul\":12598:12603   */\n      dup2\n        /* \"#utility.yul\":12583:12604   */\n      tag_125\n      jump\t// in\n    tag_288:\n        /* \"#utility.yul\":12576:12581   */\n      dup2\n        /* \"#utility.yul\":12573:12605   */\n      eq\n        /* \"#utility.yul\":12563:12623   */\n      tag_289\n      jumpi\n        /* \"#utility.yul\":12619:12620   */\n      0x00\n        /* \"#utility.yul\":12616:12617   */\n      0x00\n        /* \"#utility.yul\":12609:12621   */\n      revert\n        /* \"#utility.yul\":12563:12623   */\n    tag_289:\n        /* \"#utility.yul\":12513:12629   */\n      pop\n      jump\t// out\n        /* \"#utility.yul\":12635:12772   */\n    tag_143:\n        /* \"#utility.yul\":12689:12694   */\n      0x00\n        /* \"#utility.yul\":12720:12726   */\n      dup2\n        /* \"#utility.yul\":12714:12727   */\n      mload\n        /* \"#utility.yul\":12705:12727   */\n      swap1\n      pop\n        /* \"#utility.yul\":12736:12766   */\n      tag_291\n        /* \"#utility.yul\":12760:12765   */\n      dup2\n        /* \"#utility.yul\":12736:12766   */\n      tag_142\n      jump\t// in\n    tag_291:\n        /* \"#utility.yul\":12635:12772   */\n      swap3\n      swap2\n      pop\n      pop\n      jump\t// out\n        /* \"#utility.yul\":12778:13123   */\n    tag_53:\n        /* \"#utility.yul\":12845:12851   */\n      0x00\n        /* \"#utility.yul\":12894:12896   */\n      0x20\n        /* \"#utility.yul\":12882:12891   */\n      dup3\n        /* \"#utility.yul\":12873:12880   */\n      dup5\n        /* \"#utility.yul\":12869:12892   */\n      sub\n        /* \"#utility.yul\":12865:12897   */\n      slt\n        /* \"#utility.yul\":12862:12981   */\n      iszero\n      tag_293\n      jumpi\n        /* \"#utility.yul\":12900:12979   */\n      tag_294\n      tag_104\n      jump\t// in\n    tag_294:\n        /* \"#utility.yul\":12862:12981   */\n    tag_293:\n        /* \"#utility.yul\":13020:13021   */\n      0x00\n        /* \"#utility.yul\":13045:13106   */\n      tag_295\n        /* \"#utility.yul\":13098:13105   */\n      dup5\n        /* \"#utility.yul\":13089:13095   */\n      dup3\n        /* \"#utility.yul\":13078:13087   */\n      dup6\n        /* \"#utility.yul\":13074:13096   */\n      add\n        /* \"#utility.yul\":13045:13106   */\n      tag_143\n      jump\t// in\n    tag_295:\n        /* \"#utility.yul\":13035:13106   */\n      swap2\n      pop\n        /* \"#utility.yul\":12991:13116   */\n      pop\n        /* \"#utility.yul\":12778:13123   */\n      swap3\n      swap2\n      pop\n      pop\n      jump\t// out\n        /* \"#utility.yul\":13129:13303   */\n    tag_144:\n        /* \"#utility.yul\":13269:13295   */\n      0x43616e64696461746520646f6573206e6f742065786973740000000000000000\n        /* \"#utility.yul\":13265:13266   */\n      0x00\n        /* \"#utility.yul\":13257:13263   */\n      dup3\n        /* \"#utility.yul\":13253:13267   */\n      add\n        /* \"#utility.yul\":13246:13296   */\n      mstore\n        /* \"#utility.yul\":13129:13303   */\n      pop\n      jump\t// out\n        /* \"#utility.yul\":13309:13675   */\n    tag_145:\n        /* \"#utility.yul\":13451:13454   */\n      0x00\n        /* \"#utility.yul\":13472:13539   */\n      tag_298\n        /* \"#utility.yul\":13536:13538   */\n      0x18\n        /* \"#utility.yul\":13531:13534   */\n      dup4\n        /* \"#utility.yul\":13472:13539   */\n      tag_119\n      jump\t// in\n    tag_298:\n        /* \"#utility.yul\":13465:13539   */\n      swap2\n      pop\n        /* \"#utility.yul\":13548:13641   */\n      tag_299\n        /* \"#utility.yul\":13637:13640   */\n      dup3\n        /* \"#utility.yul\":13548:13641   */\n      tag_144\n      jump\t// in\n    tag_299:\n        /* \"#utility.yul\":13666:13668   */\n      0x20\n        /* \"#utility.yul\":13661:13664   */\n      dup3\n        /* \"#utility.yul\":13657:13669   */\n      add\n        /* \"#utility.yul\":13650:13669   */\n      swap1\n      pop\n        /* \"#utility.yul\":13309:13675   */\n      swap2\n      swap1\n      pop\n      jump\t// out\n        /* \"#utility.yul\":13681:14100   */\n    tag_56:\n        /* \"#utility.yul\":13847:13851   */\n      0x00\n        /* \"#utility.yul\":13885:13887   */\n      0x20\n        /* \"#utility.yul\":13874:13883   */\n      dup3\n        /* \"#utility.yul\":13870:13888   */\n      add\n        /* \"#utility.yul\":13862:13888   */\n      swap1\n      pop\n        /* \"#utility.yul\":13934:13943   */\n      dup2\n        /* \"#utility.yul\":13928:13932   */\n      dup2\n        /* \"#utility.yul\":13924:13944   */\n      sub\n        /* \"#utility.yul\":13920:13921   */\n      0x00\n        /* \"#utility.yul\":13909:13918   */\n      dup4\n        /* \"#utility.yul\":13905:13922   */\n      add\n        /* \"#utility.yul\":13898:13945   */\n      mstore\n        /* \"#utility.yul\":13962:14093   */\n      tag_301\n        /* \"#utility.yul\":14088:14092   */\n      dup2\n        /* \"#utility.yul\":13962:14093   */\n      tag_145\n      jump\t// in\n    tag_301:\n        /* \"#utility.yul\":13954:14093   */\n      swap1\n      pop\n        /* \"#utility.yul\":13681:14100   */\n      swap2\n      swap1\n      pop\n      jump\t// out\n        /* \"#utility.yul\":14106:14286   */\n    tag_146:\n        /* \"#utility.yul\":14154:14231   */\n      0x4e487b7100000000000000000000000000000000000000000000000000000000\n        /* \"#utility.yul\":14151:14152   */\n      0x00\n        /* \"#utility.yul\":14144:14232   */\n      mstore\n        /* \"#utility.yul\":14251:14255   */\n      0x22\n        /* \"#utility.yul\":14248:14249   */\n      0x04\n        /* \"#utility.yul\":14241:14256   */\n      mstore\n        /* \"#utility.yul\":14275:14279   */\n      0x24\n        /* \"#utility.yul\":14272:14273   */\n      0x00\n        /* \"#utility.yul\":14265:14280   */\n      revert\n        /* \"#utility.yul\":14292:14612   */\n    tag_67:\n        /* \"#utility.yul\":14336:14342   */\n      0x00\n        /* \"#utility.yul\":14373:14374   */\n      0x02\n        /* \"#utility.yul\":14367:14371   */\n      dup3\n        /* \"#utility.yul\":14363:14375   */\n      div\n        /* \"#utility.yul\":14353:14375   */\n      swap1\n      pop\n        /* \"#utility.yul\":14420:14421   */\n      0x01\n        /* \"#utility.yul\":14414:14418   */\n      dup3\n        /* \"#utility.yul\":14410:14422   */\n      and\n        /* \"#utility.yul\":14441:14459   */\n      dup1\n        /* \"#utility.yul\":14431:14512   */\n      tag_304\n      jumpi\n        /* \"#utility.yul\":14497:14501   */\n      0x7f\n        /* \"#utility.yul\":14489:14495   */\n      dup3\n        /* \"#utility.yul\":14485:14502   */\n      and\n        /* \"#utility.yul\":14475:14502   */\n      swap2\n      pop\n        /* \"#utility.yul\":14431:14512   */\n    tag_304:\n        /* \"#utility.yul\":14559:14561   */\n      0x20\n        /* \"#utility.yul\":14551:14557   */\n      dup3\n        /* \"#utility.yul\":14548:14562   */\n      lt\n        /* \"#utility.yul\":14528:14546   */\n      dup2\n        /* \"#utility.yul\":14525:14563   */\n      sub\n        /* \"#utility.yul\":14522:14606   */\n      tag_305\n      jumpi\n        /* \"#utility.yul\":14578:14596   */\n      tag_306\n      tag_146\n      jump\t// in\n    tag_306:\n        /* \"#utility.yul\":14522:14606   */\n    tag_305:\n        /* \"#utility.yul\":14343:14612   */\n      pop\n        /* \"#utility.yul\":14292:14612   */\n      swap2\n      swap1\n      pop\n      jump\t// out\n        /* \"#utility.yul\":14618:14759   */\n    tag_147:\n        /* \"#utility.yul\":14667:14671   */\n      0x00\n        /* \"#utility.yul\":14690:14693   */\n      dup2\n        /* \"#utility.yul\":14682:14693   */\n      swap1\n      pop\n        /* \"#utility.yul\":14713:14716   */\n      dup2\n        /* \"#utility.yul\":14710:14711   */\n      0x00\n        /* \"#utility.yul\":14703:14717   */\n      mstore\n        /* \"#utility.yul\":14747:14751   */\n      0x20\n        /* \"#utility.yul\":14744:14745   */\n      0x00\n        /* \"#utility.yul\":14734:14752   */\n      keccak256\n        /* \"#utility.yul\":14726:14752   */\n      swap1\n      pop\n        /* \"#utility.yul\":14618:14759   */\n      swap2\n      swap1\n      pop\n      jump\t// out\n        /* \"#utility.yul\":14765:14858   */\n    tag_148:\n        /* \"#utility.yul\":14802:14808   */\n      0x00\n        /* \"#utility.yul\":14849:14851   */\n      0x20\n        /* \"#utility.yul\":14844:14846   */\n      0x1f\n        /* \"#utility.yul\":14837:14842   */\n      dup4\n        /* \"#utility.yul\":14833:14847   */\n      add\n        /* \"#utility.yul\":14829:14852   */\n      div\n        /* \"#utility.yul\":14819:14852   */\n      swap1\n      pop\n        /* \"#utility.yul\":14765:14858   */\n      swap2\n      swap1\n      pop\n      jump\t// out\n        /* \"#utility.yul\":14864:14971   */\n    tag_149:\n        /* \"#utility.yul\":14908:14916   */\n      0x00\n        /* \"#utility.yul\":14958:14963   */\n      dup3\n        /* \"#utility.yul\":14952:14956   */\n      dup3\n        /* \"#utility.yul\":14948:14964   */\n      shl\n        /* \"#utility.yul\":14927:14964   */\n      swap1\n      pop\n        /* \"#utility.yul\":14864:14971   */\n      swap3\n      swap2\n      pop\n      pop\n      jump\t// out\n        /* \"#utility.yul\":14977:15370   */\n    tag_150:\n        /* \"#utility.yul\":15046:15052   */\n      0x00\n        /* \"#utility.yul\":15096:15097   */\n      0x08\n        /* \"#utility.yul\":15084:15094   */\n      dup4\n        /* \"#utility.yul\":15080:15098   */\n      mul\n        /* \"#utility.yul\":15119:15216   */\n      tag_311\n        /* \"#utility.yul\":15149:15215   */\n      0xffffffffffffffffffffffffffffffffffffffffffffffffffffffffffffffff\n        /* \"#utility.yul\":15138:15147   */\n      dup3\n        /* \"#utility.yul\":15119:15216   */\n      tag_149\n      jump\t// in\n    tag_311:\n        /* \"#utility.yul\":15237:15276   */\n      tag_312\n        /* \"#utility.yul\":15267:15275   */\n      dup7\n        /* \"#utility.yul\":15256:15265   */\n      dup4\n        /* \"#utility.yul\":15237:15276   */\n      tag_149\n      jump\t// in\n    tag_312:\n        /* \"#utility.yul\":15225:15276   */\n      swap6\n      pop\n        /* \"#utility.yul\":15309:15313   */\n      dup1\n        /* \"#utility.yul\":15305:15314   */\n      not\n        /* \"#utility.yul\":15298:15303   */\n      dup5\n        /* \"#utility.yul\":15294:15315   */\n      and\n        /* \"#utility.yul\":15285:15315   */\n      swap4\n      pop\n        /* \"#utility.yul\":15358:15362   */\n      dup1\n        /* \"#utility.yul\":15348:15356   */\n      dup7\n        /* \"#utility.yul\":15344:15363   */\n      and\n        /* \"#utility.yul\":15337:15342   */\n      dup5\n        /* \"#utility.yul\":15334:15364   */\n      or\n        /* \"#utility.yul\":15324:15364   */\n      swap3\n      pop\n        /* \"#utility.yul\":15053:15370   */\n      pop\n      pop\n        /* \"#utility.yul\":14977:15370   */\n      swap4\n      swap3\n      pop\n      pop\n      pop\n      jump\t// out\n        /* \"#utility.yul\":15376:15518   */\n    tag_151:\n        /* \"#utility.yul\":15426:15435   */\n      0x00\n        /* \"#utility.yul\":15459:15512   */\n      tag_314\n        /* \"#utility.yul\":15477:15511   */\n      tag_315\n        /* \"#utility.yul\":15486:15510   */\n      tag_316\n        /* \"#utility.yul\":15504:15509   */\n      dup5\n        /* \"#utility.yul\":15486:15510   */\n      tag_101\n      jump\t// in\n    tag_316:\n        /* \"#utility.yul\":15477:15511   */\n      tag_133\n      jump\t// in\n    tag_315:\n        /* \"#utility.yul\":15459:15512   */\n      tag_101\n      jump\t// in\n    tag_314:\n        /* \"#utility.yul\":15446:15512   */\n      swap1\n      pop\n        /* \"#utility.yul\":15376:15518   */\n      swap2\n      swap1\n      pop\n      jump\t// out\n        /* \"#utility.yul\":15524:15599   */\n    tag_152:\n        /* \"#utility.yul\":15567:15570   */\n      0x00\n        /* \"#utility.yul\":15588:15593   */\n      dup2\n        /* \"#utility.yul\":15581:15593   */\n      swap1\n      pop\n        /* \"#utility.yul\":15524:15599   */\n      swap2\n      swap1\n      pop\n      jump\t// out\n        /* \"#utility.yul\":15605:15874   */\n    tag_153:\n        /* \"#utility.yul\":15715:15754   */\n      tag_319\n        /* \"#utility.yul\":15746:15753   */\n      dup4\n        /* \"#utility.yul\":15715:15754   */\n      tag_151\n      jump\t// in\n    tag_319:\n        /* \"#utility.yul\":15776:15867   */\n      tag_320\n        /* \"#utility.yul\":15825:15866   */\n      tag_321\n        /* \"#utility.yul\":15849:15865   */\n      dup3\n        /* \"#utility.yul\":15825:15866   */\n      tag_152\n      jump\t// in\n    tag_321:\n        /* \"#utility.yul\":15817:15823   */\n      dup5\n        /* \"#utility.yul\":15810:15814   */\n      dup5\n        /* \"#utility.yul\":15804:15815   */\n      sload\n        /* \"#utility.yul\":15776:15867   */\n      tag_150\n      jump\t// in\n    tag_320:\n        /* \"#utility.yul\":15770:15774   */\n      dup3\n        /* \"#utility.yul\":15763:15868   */\n      sstore\n        /* \"#utility.yul\":15681:15874   */\n      pop\n        /* \"#utility.yul\":15605:15874   */\n      pop\n      pop\n      pop\n      jump\t// out\n        /* \"#utility.yul\":15880:15953   */\n    tag_154:\n        /* \"#utility.yul\":15925:15928   */\n      0x00\n        /* \"#utility.yul\":15946:15947   */\n      0x00\n        /* \"#utility.yul\":15939:15947   */\n      swap1\n      pop\n        /* \"#utility.yul\":15880:15953   */\n      swap1\n      jump\t// out\n        /* \"#utility.yul\":15959:16148   */\n    tag_155:\n        /* \"#utility.yul\":16036:16068   */\n      tag_324\n      tag_154\n      jump\t// in\n    tag_324:\n        /* \"#utility.yul\":16077:16142   */\n      tag_325\n        /* \"#utility.yul\":16135:16141   */\n      dup2\n        /* \"#utility.yul\":16127:16133   */\n      dup5\n        /* \"#utility.yul\":16121:16125   */\n      dup5\n        /* \"#utility.yul\":16077:16142   */\n      tag_153\n      jump\t// in\n    tag_325:\n        /* \"#utility.yul\":16012:16148   */\n      pop\n        /* \"#utility.yul\":15959:16148   */\n      pop\n      pop\n      jump\t// out\n        /* \"#utility.yul\":16154:16340   */\n    tag_156:\n        /* \"#utility.yul\":16214:16334   */\n    tag_327:\n        /* \"#utility.yul\":16231:16234   */\n      dup2\n        /* \"#utility.yul\":16224:16229   */\n      dup2\n        /* \"#utility.yul\":16221:16235   */\n      lt\n        /* \"#utility.yul\":16214:16334   */\n      iszero\n      tag_329\n      jumpi\n        /* \"#utility.yul\":16285:16324   */\n      tag_330\n        /* \"#utility.yul\":16322:16323   */\n      0x00\n        /* \"#utility.yul\":16315:16320   */\n      dup3\n        /* \"#utility.yul\":16285:16324   */\n      tag_155\n      jump\t// in\n    tag_330:\n        /* \"#utility.yul\":16258:16259   */\n      0x01\n        /* \"#utility.yul\":16251:16256   */\n      dup2\n        /* \"#utility.yul\":16247:16260   */\n      add\n        /* \"#utility.yul\":16238:16260   */\n      swap1\n      pop\n        /* \"#utility.yul\":16214:16334   */\n      jump(tag_327)\n    tag_329:\n        /* \"#utility.yul\":16154:16340   */\n      pop\n      pop\n      jump\t// out\n        /* \"#utility.yul\":16346:16889   */\n    tag_157:\n        /* \"#utility.yul\":16447:16449   */\n      0x1f\n        /* \"#utility.yul\":16442:16445   */\n      dup3\n        /* \"#utility.yul\":16439:16450   */\n      gt\n        /* \"#utility.yul\":16436:16882   */\n      iszero\n      tag_332\n      jumpi\n        /* \"#utility.yul\":16481:16519   */\n      tag_333\n        /* \"#utility.yul\":16513:16518   */\n      dup2\n        /* \"#utility.yul\":16481:16519   */\n      tag_147\n      jump\t// in\n    tag_333:\n        /* \"#utility.yul\":16565:16594   */\n      tag_334\n        /* \"#utility.yul\":16583:16593   */\n      dup5\n        /* \"#utility.yul\":16565:16594   */\n      tag_148\n      jump\t// in\n    tag_334:\n        /* \"#utility.yul\":16555:16563   */\n      dup2\n        /* \"#utility.yul\":16551:16595   */\n      add\n        /* \"#utility.yul\":16748:16750   */\n      0x20\n        /* \"#utility.yul\":16736:16746   */\n      dup6\n        /* \"#utility.yul\":16733:16751   */\n      lt\n        /* \"#utility.yul\":16730:16779   */\n      iszero\n      tag_335\n      jumpi\n        /* \"#utility.yul\":16769:16777   */\n      dup2\n        /* \"#utility.yul\":16754:16777   */\n      swap1\n      pop\n        /* \"#utility.yul\":16730:16779   */\n    tag_335:\n        /* \"#utility.yul\":16792:16872   */\n      tag_336\n        /* \"#utility.yul\":16848:16870   */\n      tag_337\n        /* \"#utility.yul\":16866:16869   */\n      dup6\n        /* \"#utility.yul\":16848:16870   */\n      tag_148\n      jump\t// in\n    tag_337:\n        /* \"#utility.yul\":16838:16846   */\n      dup4\n        /* \"#utility.yul\":16834:16871   */\n      add\n        /* \"#utility.yul\":16821:16832   */\n      dup3\n        /* \"#utility.yul\":16792:16872   */\n      tag_156\n      jump\t// in\n    tag_336:\n        /* \"#utility.yul\":16451:16882   */\n      pop\n      pop\n        /* \"#utility.yul\":16436:16882   */\n    tag_332:\n        /* \"#utility.yul\":16346:16889   */\n      pop\n      pop\n      pop\n      jump\t// out\n        /* \"#utility.yul\":16895:17012   */\n    tag_158:\n        /* \"#utility.yul\":16949:16957   */\n      0x00\n        /* \"#utility.yul\":16999:17004   */\n      dup3\n        /* \"#utility.yul\":16993:16997   */\n      dup3\n        /* \"#utility.yul\":16989:17005   */\n      shr\n        /* \"#utility.yul\":16968:17005   */\n      swap1\n      pop\n        /* \"#utility.yul\":16895:17012   */\n      swap3\n      swap2\n      pop\n      pop\n      jump\t// out\n        /* \"#utility.yul\":17018:17187   */\n    tag_159:\n        /* \"#utility.yul\":17062:17068   */\n      0x00\n        /* \"#utility.yul\":17095:17146   */\n      tag_340\n        /* \"#utility.yul\":17143:17144   */\n      0x00\n        /* \"#utility.yul\":17139:17145   */\n      not\n        /* \"#utility.yul\":17131:17136   */\n      dup5\n        /* \"#utility.yul\":17128:17129   */\n      0x08\n        /* \"#utility.yul\":17124:17137   */\n      mul\n        /* \"#utility.yul\":17095:17146   */\n      tag_158\n      jump\t// in\n    tag_340:\n        /* \"#utility.yul\":17091:17147   */\n      not\n        /* \"#utility.yul\":17176:17180   */\n      dup1\n        /* \"#utility.yul\":17170:17174   */\n      dup4\n        /* \"#utility.yul\":17166:17181   */\n      and\n        /* \"#utility.yul\":17156:17181   */\n      swap2\n      pop\n        /* \"#utility.yul\":17069:17187   */\n      pop\n        /* \"#utility.yul\":17018:17187   */\n      swap3\n      swap2\n      pop\n      pop\n      jump\t// out\n        /* \"#utility.yul\":17192:17487   */\n    tag_160:\n        /* \"#utility.yul\":17268:17272   */\n      0x00\n        /* \"#utility.yul\":17414:17443   */\n      tag_342\n        /* \"#utility.yul\":17439:17442   */\n      dup4\n        /* \"#utility.yul\":17433:17437   */\n      dup4\n        /* \"#utility.yul\":17414:17443   */\n      tag_159\n      jump\t// in\n    tag_342:\n        /* \"#utility.yul\":17406:17443   */\n      swap2\n      pop\n        /* \"#utility.yul\":17476:17479   */\n      dup3\n        /* \"#utility.yul\":17473:17474   */\n      0x02\n        /* \"#utility.yul\":17469:17480   */\n      mul\n        /* \"#utility.yul\":17463:17467   */\n      dup3\n        /* \"#utility.yul\":17460:17481   */\n      or\n        /* \"#utility.yul\":17452:17481   */\n      swap1\n      pop\n        /* \"#utility.yul\":17192:17487   */\n      swap3\n      swap2\n      pop\n      pop\n      jump\t// out\n        /* \"#utility.yul\":17492:18887   */\n    tag_58:\n        /* \"#utility.yul\":17609:17646   */\n      tag_344\n        /* \"#utility.yul\":17642:17645   */\n      dup3\n        /* \"#utility.yul\":17609:17646   */\n      tag_118\n      jump\t// in\n    tag_344:\n        /* \"#utility.yul\":17711:17729   */\n      0xffffffffffffffff\n        /* \"#utility.yul\":17703:17709   */\n      dup2\n        /* \"#utility.yul\":17700:17730   */\n      gt\n        /* \"#utility.yul\":17697:17753   */\n      iszero\n      tag_345\n      jumpi\n        /* \"#utility.yul\":17733:17751   */\n      tag_346\n      tag_111\n      jump\t// in\n    tag_346:\n        /* \"#utility.yul\":17697:17753   */\n    tag_345:\n        /* \"#utility.yul\":17777:17815   */\n      tag_347\n        /* \"#utility.yul\":17809:17813   */\n      dup3\n        /* \"#utility.yul\":17803:17814   */\n      sload\n        /* \"#utility.yul\":17777:17815   */\n      tag_67\n      jump\t// in\n    tag_347:\n        /* \"#utility.yul\":17862:17929   */\n      tag_348\n        /* \"#utility.yul\":17922:17928   */\n      dup3\n        /* \"#utility.yul\":17914:17920   */\n      dup3\n        /* \"#utility.yul\":17908:17912   */\n      dup6\n        /* \"#utility.yul\":17862:17929   */\n      tag_157\n      jump\t// in\n    tag_348:\n        /* \"#utility.yul\":17956:17957   */\n      0x00\n        /* \"#utility.yul\":17980:17984   */\n      0x20\n        /* \"#utility.yul\":17967:17984   */\n      swap1\n      pop\n        /* \"#utility.yul\":18012:18014   */\n      0x1f\n        /* \"#utility.yul\":18004:18010   */\n      dup4\n        /* \"#utility.yul\":18001:18015   */\n      gt\n        /* \"#utility.yul\":18029:18030   */\n      0x01\n        /* \"#utility.yul\":18024:18642   */\n      dup2\n      eq\n      tag_350\n      jumpi\n        /* \"#utility.yul\":18686:18687   */\n      0x00\n        /* \"#utility.yul\":18703:18709   */\n      dup5\n        /* \"#utility.yul\":18700:18777   */\n      iszero\n      tag_351\n      jumpi\n        /* \"#utility.yul\":18752:18761   */\n      dup3\n        /* \"#utility.yul\":18747:18750   */\n      dup8\n        /* \"#utility.yul\":18743:18762   */\n      add\n        /* \"#utility.yul\":18737:18763   */\n      mload\n        /* \"#utility.yul\":18728:18763   */\n      swap1\n      pop\n        /* \"#utility.yul\":18700:18777   */\n    tag_351:\n        /* \"#utility.yul\":18803:18870   */\n      tag_352\n        /* \"#utility.yul\":18863:18869   */\n      dup6\n        /* \"#utility.yul\":18856:18861   */\n      dup3\n        /* \"#utility.yul\":18803:18870   */\n      tag_160\n      jump\t// in\n    tag_352:\n        /* \"#utility.yul\":18797:18801   */\n      dup7\n        /* \"#utility.yul\":18790:18871   */\n      sstore\n        /* \"#utility.yul\":18659:18881   */\n      pop\n        /* \"#utility.yul\":17994:18881   */\n      jump(tag_349)\n        /* \"#utility.yul\":18024:18642   */\n    tag_350:\n        /* \"#utility.yul\":18076:18080   */\n      0x1f\n        /* \"#utility.yul\":18072:18081   */\n      not\n        /* \"#utility.yul\":18064:18070   */\n      dup5\n        /* \"#utility.yul\":18060:18082   */\n      and\n        /* \"#utility.yul\":18110:18147   */\n      tag_353\n        /* \"#utility.yul\":18142:18146   */\n      dup7\n        /* \"#utility.yul\":18110:18147   */\n      tag_147\n      jump\t// in\n    tag_353:\n        /* \"#utility.yul\":18169:18170   */\n      0x00\n        /* \"#utility.yul\":18183:18391   */\n    tag_354:\n        /* \"#utility.yul\":18197:18204   */\n      dup3\n        /* \"#utility.yul\":18194:18195   */\n      dup2\n        /* \"#utility.yul\":18191:18205   */\n      lt\n        /* \"#utility.yul\":18183:18391   */\n      iszero\n      tag_356\n      jumpi\n        /* \"#utility.yul\":18276:18285   */\n      dup5\n        /* \"#utility.yul\":18271:18274   */\n      dup10\n        /* \"#utility.yul\":18267:18286   */\n      add\n        /* \"#utility.yul\":18261:18287   */\n      mload\n        /* \"#utility.yul\":18253:18259   */\n      dup3\n        /* \"#utility.yul\":18246:18288   */\n      sstore\n        /* \"#utility.yul\":18327:18328   */\n      0x01\n        /* \"#utility.yul\":18319:18325   */\n      dup3\n        /* \"#utility.yul\":18315:18329   */\n      add\n        /* \"#utility.yul\":18305:18329   */\n      swap2\n      pop\n        /* \"#utility.yul\":18374:18376   */\n      0x20\n        /* \"#utility.yul\":18363:18372   */\n      dup6\n        /* \"#utility.yul\":18359:18377   */\n      add\n        /* \"#utility.yul\":18346:18377   */\n      swap5\n      pop\n        /* \"#utility.yul\":18220:18224   */\n      0x20\n        /* \"#utility.yul\":18217:18218   */\n      dup2\n        /* \"#utility.yul\":18213:18225   */\n      add\n        /* \"#utility.yul\":18208:18225   */\n      swap1\n      pop\n        /* \"#utility.yul\":18183:18391   */\n      jump(tag_354)\n    tag_356:\n        /* \"#utility.yul\":18419:18425   */\n      dup7\n        /* \"#utility.yul\":18410:18417   */\n      dup4\n        /* \"#utility.yul\":18407:18426   */\n      lt\n        /* \"#utility.yul\":18404:18583   */\n      iszero\n      tag_357\n      jumpi\n        /* \"#utility.yul\":18477:18486   */\n      dup5\n        /* \"#utility.yul\":18472:18475   */\n      dup10\n        /* \"#utility.yul\":18468:18487   */\n      add\n        /* \"#utility.yul\":18462:18488   */\n      mload\n        /* \"#utility.yul\":18520:18568   */\n      tag_358\n        /* \"#utility.yul\":18562:18566   */\n      0x1f\n        /* \"#utility.yul\":18554:18560   */\n      dup10\n        /* \"#utility.yul\":18550:18567   */\n      and\n        /* \"#utility.yul\":18539:18548   */\n      dup3\n        /* \"#utility.yul\":18520:18568   */\n      tag_159\n      jump\t// in\n    tag_358:\n        /* \"#utility.yul\":18512:18518   */\n      dup4\n        /* \"#utility.yul\":18505:18569   */\n      sstore\n        /* \"#utility.yul\":18427:18583   */\n      pop\n        /* \"#utility.yul\":18404:18583   */\n    tag_357:\n        /* \"#utility.yul\":18629:18630   */\n      0x01\n        /* \"#utility.yul\":18625:18626   */\n      0x02\n        /* \"#utility.yul\":18617:18623   */\n      dup9\n        /* \"#utility.yul\":18613:18627   */\n      mul\n        /* \"#utility.yul\":18609:18631   */\n      add\n        /* \"#utility.yul\":18603:18607   */\n      dup9\n        /* \"#utility.yul\":18596:18632   */\n      sstore\n        /* \"#utility.yul\":18031:18642   */\n      pop\n      pop\n      pop\n        /* \"#utility.yul\":17994:18881   */\n    tag_349:\n      pop\n        /* \"#utility.yul\":17584:18887   */\n      pop\n      pop\n      pop\n        /* \"#utility.yul\":17492:18887   */\n      pop\n      pop\n      jump\t// out\n        /* \"#utility.yul\":18893:19073   */\n    tag_161:\n        /* \"#utility.yul\":18941:19018   */\n      0x4e487b7100000000000000000000000000000000000000000000000000000000\n        /* \"#utility.yul\":18938:18939   */\n      0x00\n        /* \"#utility.yul\":18931:19019   */\n      mstore\n        /* \"#utility.yul\":19038:19042   */\n      0x11\n        /* \"#utility.yul\":19035:19036   */\n      0x04\n        /* \"#utility.yul\":19028:19043   */\n      mstore\n        /* \"#utility.yul\":19062:19066   */\n      0x24\n        /* \"#utility.yul\":19059:19060   */\n      0x00\n        /* \"#utility.yul\":19052:19067   */\n      revert\n        /* \"#utility.yul\":19079:19312   */\n    tag_61:\n        /* \"#utility.yul\":19118:19121   */\n      0x00\n        /* \"#utility.yul\":19141:19165   */\n      tag_361\n        /* \"#utility.yul\":19159:19164   */\n      dup3\n        /* \"#utility.yul\":19141:19165   */\n      tag_101\n      jump\t// in\n    tag_361:\n        /* \"#utility.yul\":19132:19165   */\n      swap2\n      pop\n        /* \"#utility.yul\":19187:19253   */\n      0xffffffffffffffffffffffffffffffffffffffffffffffffffffffffffffffff\n        /* \"#utility.yul\":19180:19185   */\n      dup3\n        /* \"#utility.yul\":19177:19254   */\n      sub\n        /* \"#utility.yul\":19174:19277   */\n      tag_362\n      jumpi\n        /* \"#utility.yul\":19257:19275   */\n      tag_363\n      tag_161\n      jump\t// in\n    tag_363:\n        /* \"#utility.yul\":19174:19277   */\n    tag_362:\n        /* \"#utility.yul\":19304:19305   */\n      0x01\n        /* \"#utility.yul\":19297:19302   */\n      dup3\n        /* \"#utility.yul\":19293:19306   */\n      add\n        /* \"#utility.yul\":19286:19306   */\n      swap1\n      pop\n        /* \"#utility.yul\":19079:19312   */\n      swap2\n      swap1\n      pop\n      jump\t// out\n        /* \"#utility.yul\":19318:19490   */\n    tag_162:\n        /* \"#utility.yul\":19458:19482   */\n      0x5573657220686173206e6f7420766f7465642079657400000000000000000000\n        /* \"#utility.yul\":19454:19455   */\n      0x00\n        /* \"#utility.yul\":19446:19452   */\n      dup3\n        /* \"#utility.yul\":19442:19456   */\n      add\n        /* \"#utility.yul\":19435:19483   */\n      mstore\n        /* \"#utility.yul\":19318:19490   */\n      pop\n      jump\t// out\n        /* \"#utility.yul\":19496:19862   */\n    tag_163:\n        /* \"#utility.yul\":19638:19641   */\n      0x00\n        /* \"#utility.yul\":19659:19726   */\n      tag_366\n        /* \"#utility.yul\":19723:19725   */\n      0x16\n        /* \"#utility.yul\":19718:19721   */\n      dup4\n        /* \"#utility.yul\":19659:19726   */\n      tag_119\n      jump\t// in\n    tag_366:\n        /* \"#utility.yul\":19652:19726   */\n      swap2\n      pop\n        /* \"#utility.yul\":19735:19828   */\n      tag_367\n        /* \"#utility.yul\":19824:19827   */\n      dup3\n        /* \"#utility.yul\":19735:19828   */\n      tag_162\n      jump\t// in\n    tag_367:\n        /* \"#utility.yul\":19853:19855   */\n      0x20\n        /* \"#utility.yul\":19848:19851   */\n      dup3\n        /* \"#utility.yul\":19844:19856   */\n      add\n        /* \"#utility.yul\":19837:19856   */\n      swap1\n      pop\n        /* \"#utility.yul\":19496:19862   */\n      swap2\n      swap1\n      pop\n      jump\t// out\n        /* \"#utility.yul\":19868:20287   */\n    tag_94:\n        /* \"#utility.yul\":20034:20038   */\n      0x00\n        /* \"#utility.yul\":20072:20074   */\n      0x20\n        /* \"#utility.yul\":20061:20070   */\n      dup3\n        /* \"#utility.yul\":20057:20075   */\n      add\n        /* \"#utility.yul\":20049:20075   */\n      swap1\n      pop\n        /* \"#utility.yul\":20121:20130   */\n      dup2\n        /* \"#utility.yul\":20115:20119   */\n      dup2\n        /* \"#utility.yul\":20111:20131   */\n      sub\n        /* \"#utility.yul\":20107:20108   */\n      0x00\n        /* \"#utility.yul\":20096:20105   */\n      dup4\n        /* \"#utility.yul\":20092:20109   */\n      add\n        /* \"#utility.yul\":20085:20132   */\n      mstore\n        /* \"#utility.yul\":20149:20280   */\n      tag_369\n        /* \"#utility.yul\":20275:20279   */\n      dup2\n        /* \"#utility.yul\":20149:20280   */\n      tag_163\n      jump\t// in\n    tag_369:\n        /* \"#utility.yul\":20141:20280   */\n      swap1\n      pop\n        /* \"#utility.yul\":19868:20287   */\n      swap2\n      swap1\n      pop\n      jump\t// out\n\n    auxdata: 0xa2646970667358221220940de940c320a3124f825f1a9021b0dc1d54fca78609197d56b217216978cf6c64736f6c634300081e0033\n}\n",
				"bytecode": {
					"linkReferences": {},
					"object": "60806040525f600155348015610013575f5ffd5b50604051611505380380611505833981810160405281019061003591906100d9565b8060025f6101000a81548173ffffffffffffffffffffffffffffffffffffffff021916908373ffffffffffffffffffffffffffffffffffffffff16021790555050610104565b5f5ffd5b5f73ffffffffffffffffffffffffffffffffffffffff82169050919050565b5f6100a88261007f565b9050919050565b6100b88161009e565b81146100c2575f5ffd5b50565b5f815190506100d3816100af565b92915050565b5f602082840312156100ee576100ed61007b565b5b5f6100fb848285016100c5565b91505092915050565b6113f4806101115f395ff3fe608060405234801561000f575f5ffd5b506004361061007b575f3560e01c80636ed6da9e116100595780636ed6da9e146100ed57806386194c191461011d578063b4a3a1621461014d578063b5cb15f71461016b5761007b565b806307973ccf1461007f5780631522bb871461009d578063365b98b2146100b9575b5f5ffd5b610087610189565b6040516100949190610994565b60405180910390f35b6100b760048036038101906100b29190610b24565b61018f565b005b6100d360048036038101906100ce9190610bac565b6104da565b6040516100e4959493929190610c90565b60405180910390f35b61010760048036038101906101029190610bac565b610643565b6040516101149190610dde565b60405180910390f35b61013760048036038101906101329190610bac565b610806565b6040516101449190610dfe565b60405180910390f35b61015561090a565b6040516101629190610e79565b60405180910390f35b61017361092f565b6040516101809190610994565b60405180910390f35b60015481565b5f73ffffffffffffffffffffffffffffffffffffffff165f5f8581526020019081526020015f206003015f9054906101000a900473ffffffffffffffffffffffffffffffffffffffff1673ffffffffffffffffffffffffffffffffffffffff161461022f576040517f08c379a000000000000000000000000000000000000000000000000000000000815260040161022690610edc565b60405180910390fd5b5f825103610272576040517f08c379a000000000000000000000000000000000000000000000000000000000815260040161026990610f44565b60405180910390fd5b60025f9054906101000a900473ffffffffffffffffffffffffffffffffffffffff1673ffffffffffffffffffffffffffffffffffffffff16637e797dee826040518263ffffffff1660e01b81526004016102cc9190610dfe565b602060405180830381865afa1580156102e7573d5f5f3e3d5ffd5b505050506040513d601f19601f8201168201806040525081019061030b9190610f8c565b61034a576040517f08c379a000000000000000000000000000000000000000000000000000000000815260040161034190611001565b60405180910390fd5b6040518060a001604052808481526020018381526020018281526020013373ffffffffffffffffffffffffffffffffffffffff168152602001600115158152505f5f8581526020019081526020015f205f820151815f015560208201518160010190816103b79190611213565b5060408201518160020190816103cd9190611213565b506060820151816003015f6101000a81548173ffffffffffffffffffffffffffffffffffffffff021916908373ffffffffffffffffffffffffffffffffffffffff16021790555060808201518160030160146101000a81548160ff02191690831515021790555090505060015f8154809291906104499061130f565b919050555060025f9054906101000a900473ffffffffffffffffffffffffffffffffffffffff1673ffffffffffffffffffffffffffffffffffffffff1663fc36e15b826040518263ffffffff1660e01b81526004016104a89190610dfe565b5f604051808303815f87803b1580156104bf575f5ffd5b505af11580156104d1573d5f5f3e3d5ffd5b50505050505050565b5f602052805f5260405f205f91509050805f0154908060010180546104fe9061104c565b80601f016020809104026020016040519081016040528092919081815260200182805461052a9061104c565b80156105755780601f1061054c57610100808354040283529160200191610575565b820191905f5260205f20905b81548152906001019060200180831161055857829003601f168201915b50505050509080600201805461058a9061104c565b80601f01602080910402602001604051908101604052809291908181526020018280546105b69061104c565b80156106015780601f106105d857610100808354040283529160200191610601565b820191905f5260205f20905b8154815290600101906020018083116105e457829003601f168201915b505050505090806003015f9054906101000a900473ffffffffffffffffffffffffffffffffffffffff16908060030160149054906101000a900460ff16905085565b61064b610938565b5f5f8381526020019081526020015f206040518060a00160405290815f820154815260200160018201805461067f9061104c565b80601f01602080910402602001604051908101604052809291908181526020018280546106ab9061104c565b80156106f65780601f106106cd576101008083540402835291602001916106f6565b820191905f5260205f20905b8154815290600101906020018083116106d957829003601f168201915b5050505050815260200160028201805461070f9061104c565b80601f016020809104026020016040519081016040528092919081815260200182805461073b9061104c565b80156107865780601f1061075d57610100808354040283529160200191610786565b820191905f5260205f20905b81548152906001019060200180831161076957829003601f168201915b50505050508152602001600382015f9054906101000a900473ffffffffffffffffffffffffffffffffffffffff1673ffffffffffffffffffffffffffffffffffffffff1673ffffffffffffffffffffffffffffffffffffffff1681526020016003820160149054906101000a900460ff1615151515815250509050919050565b60605f5f5f8481526020019081526020015f2060020180546108279061104c565b905003610869576040517f08c379a0000000000000000000000000000000000000000000000000000000008152600401610860906113a0565b60405180910390fd5b5f5f8381526020019081526020015f2060020180546108879061104c565b80601f01602080910402602001604051908101604052809291908181526020018280546108b39061104c565b80156108fe5780601f106108d5576101008083540402835291602001916108fe565b820191905f5260205f20905b8154815290600101906020018083116108e157829003601f168201915b50505050509050919050565b60025f9054906101000a900473ffffffffffffffffffffffffffffffffffffffff1681565b5f600154905090565b6040518060a001604052805f815260200160608152602001606081526020015f73ffffffffffffffffffffffffffffffffffffffff1681526020015f151581525090565b5f819050919050565b61098e8161097c565b82525050565b5f6020820190506109a75f830184610985565b92915050565b5f604051905090565b5f5ffd5b5f5ffd5b6109c78161097c565b81146109d1575f5ffd5b50565b5f813590506109e2816109be565b92915050565b5f5ffd5b5f5ffd5b5f601f19601f8301169050919050565b7f4e487b71000000000000000000000000000000000000000000000000000000005f52604160045260245ffd5b610a36826109f0565b810181811067ffffffffffffffff82111715610a5557610a54610a00565b5b80604052505050565b5f610a676109ad565b9050610a738282610a2d565b919050565b5f67ffffffffffffffff821115610a9257610a91610a00565b5b610a9b826109f0565b9050602081019050919050565b828183375f83830152505050565b5f610ac8610ac384610a78565b610a5e565b905082815260208101848484011115610ae457610ae36109ec565b5b610aef848285610aa8565b509392505050565b5f82601f830112610b0b57610b0a6109e8565b5b8135610b1b848260208601610ab6565b91505092915050565b5f5f5f60608486031215610b3b57610b3a6109b6565b5b5f610b48868287016109d4565b935050602084013567ffffffffffffffff811115610b6957610b686109ba565b5b610b7586828701610af7565b925050604084013567ffffffffffffffff811115610b9657610b956109ba565b5b610ba286828701610af7565b9150509250925092565b5f60208284031215610bc157610bc06109b6565b5b5f610bce848285016109d4565b91505092915050565b5f81519050919050565b5f82825260208201905092915050565b8281835e5f83830152505050565b5f610c0982610bd7565b610c138185610be1565b9350610c23818560208601610bf1565b610c2c816109f0565b840191505092915050565b5f73ffffffffffffffffffffffffffffffffffffffff82169050919050565b5f610c6082610c37565b9050919050565b610c7081610c56565b82525050565b5f8115159050919050565b610c8a81610c76565b82525050565b5f60a082019050610ca35f830188610985565b8181036020830152610cb58187610bff565b90508181036040830152610cc98186610bff565b9050610cd86060830185610c67565b610ce56080830184610c81565b9695505050505050565b610cf88161097c565b82525050565b5f82825260208201905092915050565b5f610d1882610bd7565b610d228185610cfe565b9350610d32818560208601610bf1565b610d3b816109f0565b840191505092915050565b610d4f81610c56565b82525050565b610d5e81610c76565b82525050565b5f60a083015f830151610d795f860182610cef565b5060208301518482036020860152610d918282610d0e565b91505060408301518482036040860152610dab8282610d0e565b9150506060830151610dc06060860182610d46565b506080830151610dd36080860182610d55565b508091505092915050565b5f6020820190508181035f830152610df68184610d64565b905092915050565b5f6020820190508181035f830152610e168184610bff565b905092915050565b5f819050919050565b5f610e41610e3c610e3784610c37565b610e1e565b610c37565b9050919050565b5f610e5282610e27565b9050919050565b5f610e6382610e48565b9050919050565b610e7381610e59565b82525050565b5f602082019050610e8c5f830184610e6a565b92915050565b7f5573657220696420616c726561647920657869737473000000000000000000005f82015250565b5f610ec6601683610be1565b9150610ed182610e92565b602082019050919050565b5f6020820190508181035f830152610ef381610eba565b9050919050565b7f4e616d652063616e6e6f7420626520656d7074790000000000000000000000005f82015250565b5f610f2e601483610be1565b9150610f3982610efa565b602082019050919050565b5f6020820190508181035f830152610f5b81610f22565b9050919050565b610f6b81610c76565b8114610f75575f5ffd5b50565b5f81519050610f8681610f62565b92915050565b5f60208284031215610fa157610fa06109b6565b5b5f610fae84828501610f78565b91505092915050565b7f43616e64696461746520646f6573206e6f7420657869737400000000000000005f82015250565b5f610feb601883610be1565b9150610ff682610fb7565b602082019050919050565b5f6020820190508181035f83015261101881610fdf565b9050919050565b7f4e487b71000000000000000000000000000000000000000000000000000000005f52602260045260245ffd5b5f600282049050600182168061106357607f821691505b6020821081036110765761107561101f565b5b50919050565b5f819050815f5260205f209050919050565b5f6020601f8301049050919050565b5f82821b905092915050565b5f600883026110d87fffffffffffffffffffffffffffffffffffffffffffffffffffffffffffffffff8261109d565b6110e2868361109d565b95508019841693508086168417925050509392505050565b5f61111461110f61110a8461097c565b610e1e565b61097c565b9050919050565b5f819050919050565b61112d836110fa565b6111416111398261111b565b8484546110a9565b825550505050565b5f5f905090565b611158611149565b611163818484611124565b505050565b5b818110156111865761117b5f82611150565b600181019050611169565b5050565b601f8211156111cb5761119c8161107c565b6111a58461108e565b810160208510156111b4578190505b6111c86111c08561108e565b830182611168565b50505b505050565b5f82821c905092915050565b5f6111eb5f19846008026111d0565b1980831691505092915050565b5f61120383836111dc565b9150826002028217905092915050565b61121c82610bd7565b67ffffffffffffffff81111561123557611234610a00565b5b61123f825461104c565b61124a82828561118a565b5f60209050601f83116001811461127b575f8415611269578287015190505b61127385826111f8565b8655506112da565b601f1984166112898661107c565b5f5b828110156112b05784890151825560018201915060208501945060208101905061128b565b868310156112cd57848901516112c9601f8916826111dc565b8355505b6001600288020188555050505b505050505050565b7f4e487b71000000000000000000000000000000000000000000000000000000005f52601160045260245ffd5b5f6113198261097c565b91507fffffffffffffffffffffffffffffffffffffffffffffffffffffffffffffffff820361134b5761134a6112e2565b5b600182019050919050565b7f5573657220686173206e6f7420766f74656420796574000000000000000000005f82015250565b5f61138a601683610be1565b915061139582611356565b602082019050919050565b5f6020820190508181035f8301526113b78161137e565b905091905056fea2646970667358221220940de940c320a3124f825f1a9021b0dc1d54fca78609197d56b217216978cf6c64736f6c634300081e0033",
					"opcodes": "PUSH1 0x80 PUSH1 0x40 MSTORE PUSH0 PUSH1 0x1 SSTORE CALLVALUE DUP1 ISZERO PUSH2 0x13 JUMPI PUSH0 PUSH0 REVERT JUMPDEST POP PUSH1 0x40 MLOAD PUSH2 0x1505 CODESIZE SUB DUP1 PUSH2 0x1505 DUP4 CODECOPY DUP2 DUP2 ADD PUSH1 0x40 MSTORE DUP2 ADD SWAP1 PUSH2 0x35 SWAP2 SWAP1 PUSH2 0xD9 JUMP JUMPDEST DUP1 PUSH1 0x2 PUSH0 PUSH2 0x100 EXP DUP2 SLOAD DUP2 PUSH20 0xFFFFFFFFFFFFFFFFFFFFFFFFFFFFFFFFFFFFFFFF MUL NOT AND SWAP1 DUP4 PUSH20 0xFFFFFFFFFFFFFFFFFFFFFFFFFFFFFFFFFFFFFFFF AND MUL OR SWAP1 SSTORE POP POP PUSH2 0x104 JUMP JUMPDEST PUSH0 PUSH0 REVERT JUMPDEST PUSH0 PUSH20 0xFFFFFFFFFFFFFFFFFFFFFFFFFFFFFFFFFFFFFFFF DUP3 AND SWAP1 POP SWAP2 SWAP1 POP JUMP JUMPDEST PUSH0 PUSH2 0xA8 DUP3 PUSH2 0x7F JUMP JUMPDEST SWAP1 POP SWAP2 SWAP1 POP JUMP JUMPDEST PUSH2 0xB8 DUP2 PUSH2 0x9E JUMP JUMPDEST DUP2 EQ PUSH2 0xC2 JUMPI PUSH0 PUSH0 REVERT JUMPDEST POP JUMP JUMPDEST PUSH0 DUP2 MLOAD SWAP1 POP PUSH2 0xD3 DUP2 PUSH2 0xAF JUMP JUMPDEST SWAP3 SWAP2 POP POP JUMP JUMPDEST PUSH0 PUSH1 0x20 DUP3 DUP5 SUB SLT ISZERO PUSH2 0xEE JUMPI PUSH2 0xED PUSH2 0x7B JUMP JUMPDEST JUMPDEST PUSH0 PUSH2 0xFB DUP5 DUP3 DUP6 ADD PUSH2 0xC5 JUMP JUMPDEST SWAP2 POP POP SWAP3 SWAP2 POP POP JUMP JUMPDEST PUSH2 0x13F4 DUP1 PUSH2 0x111 PUSH0 CODECOPY PUSH0 RETURN INVALID PUSH1 0x80 PUSH1 0x40 MSTORE CALLVALUE DUP1 ISZERO PUSH2 0xF JUMPI PUSH0 PUSH0 REVERT JUMPDEST POP PUSH1 0x4 CALLDATASIZE LT PUSH2 0x7B JUMPI PUSH0 CALLDATALOAD PUSH1 0xE0 SHR DUP1 PUSH4 0x6ED6DA9E GT PUSH2 0x59 JUMPI DUP1 PUSH4 0x6ED6DA9E EQ PUSH2 0xED JUMPI DUP1 PUSH4 0x86194C19 EQ PUSH2 0x11D JUMPI DUP1 PUSH4 0xB4A3A162 EQ PUSH2 0x14D JUMPI DUP1 PUSH4 0xB5CB15F7 EQ PUSH2 0x16B JUMPI PUSH2 0x7B JUMP JUMPDEST DUP1 PUSH4 0x7973CCF EQ PUSH2 0x7F JUMPI DUP1 PUSH4 0x1522BB87 EQ PUSH2 0x9D JUMPI DUP1 PUSH4 0x365B98B2 EQ PUSH2 0xB9 JUMPI JUMPDEST PUSH0 PUSH0 REVERT JUMPDEST PUSH2 0x87 PUSH2 0x189 JUMP JUMPDEST PUSH1 0x40 MLOAD PUSH2 0x94 SWAP2 SWAP1 PUSH2 0x994 JUMP JUMPDEST PUSH1 0x40 MLOAD DUP1 SWAP2 SUB SWAP1 RETURN JUMPDEST PUSH2 0xB7 PUSH1 0x4 DUP1 CALLDATASIZE SUB DUP2 ADD SWAP1 PUSH2 0xB2 SWAP2 SWAP1 PUSH2 0xB24 JUMP JUMPDEST PUSH2 0x18F JUMP JUMPDEST STOP JUMPDEST PUSH2 0xD3 PUSH1 0x4 DUP1 CALLDATASIZE SUB DUP2 ADD SWAP1 PUSH2 0xCE SWAP2 SWAP1 PUSH2 0xBAC JUMP JUMPDEST PUSH2 0x4DA JUMP JUMPDEST PUSH1 0x40 MLOAD PUSH2 0xE4 SWAP6 SWAP5 SWAP4 SWAP3 SWAP2 SWAP1 PUSH2 0xC90 JUMP JUMPDEST PUSH1 0x40 MLOAD DUP1 SWAP2 SUB SWAP1 RETURN JUMPDEST PUSH2 0x107 PUSH1 0x4 DUP1 CALLDATASIZE SUB DUP2 ADD SWAP1 PUSH2 0x102 SWAP2 SWAP1 PUSH2 0xBAC JUMP JUMPDEST PUSH2 0x643 JUMP JUMPDEST PUSH1 0x40 MLOAD PUSH2 0x114 SWAP2 SWAP1 PUSH2 0xDDE JUMP JUMPDEST PUSH1 0x40 MLOAD DUP1 SWAP2 SUB SWAP1 RETURN JUMPDEST PUSH2 0x137 PUSH1 0x4 DUP1 CALLDATASIZE SUB DUP2 ADD SWAP1 PUSH2 0x132 SWAP2 SWAP1 PUSH2 0xBAC JUMP JUMPDEST PUSH2 0x806 JUMP JUMPDEST PUSH1 0x40 MLOAD PUSH2 0x144 SWAP2 SWAP1 PUSH2 0xDFE JUMP JUMPDEST PUSH1 0x40 MLOAD DUP1 SWAP2 SUB SWAP1 RETURN JUMPDEST PUSH2 0x155 PUSH2 0x90A JUMP JUMPDEST PUSH1 0x40 MLOAD PUSH2 0x162 SWAP2 SWAP1 PUSH2 0xE79 JUMP JUMPDEST PUSH1 0x40 MLOAD DUP1 SWAP2 SUB SWAP1 RETURN JUMPDEST PUSH2 0x173 PUSH2 0x92F JUMP JUMPDEST PUSH1 0x40 MLOAD PUSH2 0x180 SWAP2 SWAP1 PUSH2 0x994 JUMP JUMPDEST PUSH1 0x40 MLOAD DUP1 SWAP2 SUB SWAP1 RETURN JUMPDEST PUSH1 0x1 SLOAD DUP2 JUMP JUMPDEST PUSH0 PUSH20 0xFFFFFFFFFFFFFFFFFFFFFFFFFFFFFFFFFFFFFFFF AND PUSH0 PUSH0 DUP6 DUP2 MSTORE PUSH1 0x20 ADD SWAP1 DUP2 MSTORE PUSH1 0x20 ADD PUSH0 KECCAK256 PUSH1 0x3 ADD PUSH0 SWAP1 SLOAD SWAP1 PUSH2 0x100 EXP SWAP1 DIV PUSH20 0xFFFFFFFFFFFFFFFFFFFFFFFFFFFFFFFFFFFFFFFF AND PUSH20 0xFFFFFFFFFFFFFFFFFFFFFFFFFFFFFFFFFFFFFFFF AND EQ PUSH2 0x22F JUMPI PUSH1 0x40 MLOAD PUSH32 0x8C379A000000000000000000000000000000000000000000000000000000000 DUP2 MSTORE PUSH1 0x4 ADD PUSH2 0x226 SWAP1 PUSH2 0xEDC JUMP JUMPDEST PUSH1 0x40 MLOAD DUP1 SWAP2 SUB SWAP1 REVERT JUMPDEST PUSH0 DUP3 MLOAD SUB PUSH2 0x272 JUMPI PUSH1 0x40 MLOAD PUSH32 0x8C379A000000000000000000000000000000000000000000000000000000000 DUP2 MSTORE PUSH1 0x4 ADD PUSH2 0x269 SWAP1 PUSH2 0xF44 JUMP JUMPDEST PUSH1 0x40 MLOAD DUP1 SWAP2 SUB SWAP1 REVERT JUMPDEST PUSH1 0x2 PUSH0 SWAP1 SLOAD SWAP1 PUSH2 0x100 EXP SWAP1 DIV PUSH20 0xFFFFFFFFFFFFFFFFFFFFFFFFFFFFFFFFFFFFFFFF AND PUSH20 0xFFFFFFFFFFFFFFFFFFFFFFFFFFFFFFFFFFFFFFFF AND PUSH4 0x7E797DEE DUP3 PUSH1 0x40 MLOAD DUP3 PUSH4 0xFFFFFFFF AND PUSH1 0xE0 SHL DUP2 MSTORE PUSH1 0x4 ADD PUSH2 0x2CC SWAP2 SWAP1 PUSH2 0xDFE JUMP JUMPDEST PUSH1 0x20 PUSH1 0x40 MLOAD DUP1 DUP4 SUB DUP2 DUP7 GAS STATICCALL ISZERO DUP1 ISZERO PUSH2 0x2E7 JUMPI RETURNDATASIZE PUSH0 PUSH0 RETURNDATACOPY RETURNDATASIZE PUSH0 REVERT JUMPDEST POP POP POP POP PUSH1 0x40 MLOAD RETURNDATASIZE PUSH1 0x1F NOT PUSH1 0x1F DUP3 ADD AND DUP3 ADD DUP1 PUSH1 0x40 MSTORE POP DUP2 ADD SWAP1 PUSH2 0x30B SWAP2 SWAP1 PUSH2 0xF8C JUMP JUMPDEST PUSH2 0x34A JUMPI PUSH1 0x40 MLOAD PUSH32 0x8C379A000000000000000000000000000000000000000000000000000000000 DUP2 MSTORE PUSH1 0x4 ADD PUSH2 0x341 SWAP1 PUSH2 0x1001 JUMP JUMPDEST PUSH1 0x40 MLOAD DUP1 SWAP2 SUB SWAP1 REVERT JUMPDEST PUSH1 0x40 MLOAD DUP1 PUSH1 0xA0 ADD PUSH1 0x40 MSTORE DUP1 DUP5 DUP2 MSTORE PUSH1 0x20 ADD DUP4 DUP2 MSTORE PUSH1 0x20 ADD DUP3 DUP2 MSTORE PUSH1 0x20 ADD CALLER PUSH20 0xFFFFFFFFFFFFFFFFFFFFFFFFFFFFFFFFFFFFFFFF AND DUP2 MSTORE PUSH1 0x20 ADD PUSH1 0x1 ISZERO ISZERO DUP2 MSTORE POP PUSH0 PUSH0 DUP6 DUP2 MSTORE PUSH1 0x20 ADD SWAP1 DUP2 MSTORE PUSH1 0x20 ADD PUSH0 KECCAK256 PUSH0 DUP3 ADD MLOAD DUP2 PUSH0 ADD SSTORE PUSH1 0x20 DUP3 ADD MLOAD DUP2 PUSH1 0x1 ADD SWAP1 DUP2 PUSH2 0x3B7 SWAP2 SWAP1 PUSH2 0x1213 JUMP JUMPDEST POP PUSH1 0x40 DUP3 ADD MLOAD DUP2 PUSH1 0x2 ADD SWAP1 DUP2 PUSH2 0x3CD SWAP2 SWAP1 PUSH2 0x1213 JUMP JUMPDEST POP PUSH1 0x60 DUP3 ADD MLOAD DUP2 PUSH1 0x3 ADD PUSH0 PUSH2 0x100 EXP DUP2 SLOAD DUP2 PUSH20 0xFFFFFFFFFFFFFFFFFFFFFFFFFFFFFFFFFFFFFFFF MUL NOT AND SWAP1 DUP4 PUSH20 0xFFFFFFFFFFFFFFFFFFFFFFFFFFFFFFFFFFFFFFFF AND MUL OR SWAP1 SSTORE POP PUSH1 0x80 DUP3 ADD MLOAD DUP2 PUSH1 0x3 ADD PUSH1 0x14 PUSH2 0x100 EXP DUP2 SLOAD DUP2 PUSH1 0xFF MUL NOT AND SWAP1 DUP4 ISZERO ISZERO MUL OR SWAP1 SSTORE POP SWAP1 POP POP PUSH1 0x1 PUSH0 DUP2 SLOAD DUP1 SWAP3 SWAP2 SWAP1 PUSH2 0x449 SWAP1 PUSH2 0x130F JUMP JUMPDEST SWAP2 SWAP1 POP SSTORE POP PUSH1 0x2 PUSH0 SWAP1 SLOAD SWAP1 PUSH2 0x100 EXP SWAP1 DIV PUSH20 0xFFFFFFFFFFFFFFFFFFFFFFFFFFFFFFFFFFFFFFFF AND PUSH20 0xFFFFFFFFFFFFFFFFFFFFFFFFFFFFFFFFFFFFFFFF AND PUSH4 0xFC36E15B DUP3 PUSH1 0x40 MLOAD DUP3 PUSH4 0xFFFFFFFF AND PUSH1 0xE0 SHL DUP2 MSTORE PUSH1 0x4 ADD PUSH2 0x4A8 SWAP2 SWAP1 PUSH2 0xDFE JUMP JUMPDEST PUSH0 PUSH1 0x40 MLOAD DUP1 DUP4 SUB DUP2 PUSH0 DUP8 DUP1 EXTCODESIZE ISZERO DUP1 ISZERO PUSH2 0x4BF JUMPI PUSH0 PUSH0 REVERT JUMPDEST POP GAS CALL ISZERO DUP1 ISZERO PUSH2 0x4D1 JUMPI RETURNDATASIZE PUSH0 PUSH0 RETURNDATACOPY RETURNDATASIZE PUSH0 REVERT JUMPDEST POP POP POP POP POP POP POP JUMP JUMPDEST PUSH0 PUSH1 0x20 MSTORE DUP1 PUSH0 MSTORE PUSH1 0x40 PUSH0 KECCAK256 PUSH0 SWAP2 POP SWAP1 POP DUP1 PUSH0 ADD SLOAD SWAP1 DUP1 PUSH1 0x1 ADD DUP1 SLOAD PUSH2 0x4FE SWAP1 PUSH2 0x104C JUMP JUMPDEST DUP1 PUSH1 0x1F ADD PUSH1 0x20 DUP1 SWAP2 DIV MUL PUSH1 0x20 ADD PUSH1 0x40 MLOAD SWAP1 DUP2 ADD PUSH1 0x40 MSTORE DUP1 SWAP3 SWAP2 SWAP1 DUP2 DUP2 MSTORE PUSH1 0x20 ADD DUP3 DUP1 SLOAD PUSH2 0x52A SWAP1 PUSH2 0x104C JUMP JUMPDEST DUP1 ISZERO PUSH2 0x575 JUMPI DUP1 PUSH1 0x1F LT PUSH2 0x54C JUMPI PUSH2 0x100 DUP1 DUP4 SLOAD DIV MUL DUP4 MSTORE SWAP2 PUSH1 0x20 ADD SWAP2 PUSH2 0x575 JUMP JUMPDEST DUP3 ADD SWAP2 SWAP1 PUSH0 MSTORE PUSH1 0x20 PUSH0 KECCAK256 SWAP1 JUMPDEST DUP2 SLOAD DUP2 MSTORE SWAP1 PUSH1 0x1 ADD SWAP1 PUSH1 0x20 ADD DUP1 DUP4 GT PUSH2 0x558 JUMPI DUP3 SWAP1 SUB PUSH1 0x1F AND DUP3 ADD SWAP2 JUMPDEST POP POP POP POP POP SWAP1 DUP1 PUSH1 0x2 ADD DUP1 SLOAD PUSH2 0x58A SWAP1 PUSH2 0x104C JUMP JUMPDEST DUP1 PUSH1 0x1F ADD PUSH1 0x20 DUP1 SWAP2 DIV MUL PUSH1 0x20 ADD PUSH1 0x40 MLOAD SWAP1 DUP2 ADD PUSH1 0x40 MSTORE DUP1 SWAP3 SWAP2 SWAP1 DUP2 DUP2 MSTORE PUSH1 0x20 ADD DUP3 DUP1 SLOAD PUSH2 0x5B6 SWAP1 PUSH2 0x104C JUMP JUMPDEST DUP1 ISZERO PUSH2 0x601 JUMPI DUP1 PUSH1 0x1F LT PUSH2 0x5D8 JUMPI PUSH2 0x100 DUP1 DUP4 SLOAD DIV MUL DUP4 MSTORE SWAP2 PUSH1 0x20 ADD SWAP2 PUSH2 0x601 JUMP JUMPDEST DUP3 ADD SWAP2 SWAP1 PUSH0 MSTORE PUSH1 0x20 PUSH0 KECCAK256 SWAP1 JUMPDEST DUP2 SLOAD DUP2 MSTORE SWAP1 PUSH1 0x1 ADD SWAP1 PUSH1 0x20 ADD DUP1 DUP4 GT PUSH2 0x5E4 JUMPI DUP3 SWAP1 SUB PUSH1 0x1F AND DUP3 ADD SWAP2 JUMPDEST POP POP POP POP POP SWAP1 DUP1 PUSH1 0x3 ADD PUSH0 SWAP1 SLOAD SWAP1 PUSH2 0x100 EXP SWAP1 DIV PUSH20 0xFFFFFFFFFFFFFFFFFFFFFFFFFFFFFFFFFFFFFFFF AND SWAP1 DUP1 PUSH1 0x3 ADD PUSH1 0x14 SWAP1 SLOAD SWAP1 PUSH2 0x100 EXP SWAP1 DIV PUSH1 0xFF AND SWAP1 POP DUP6 JUMP JUMPDEST PUSH2 0x64B PUSH2 0x938 JUMP JUMPDEST PUSH0 PUSH0 DUP4 DUP2 MSTORE PUSH1 0x20 ADD SWAP1 DUP2 MSTORE PUSH1 0x20 ADD PUSH0 KECCAK256 PUSH1 0x40 MLOAD DUP1 PUSH1 0xA0 ADD PUSH1 0x40 MSTORE SWAP1 DUP2 PUSH0 DUP3 ADD SLOAD DUP2 MSTORE PUSH1 0x20 ADD PUSH1 0x1 DUP3 ADD DUP1 SLOAD PUSH2 0x67F SWAP1 PUSH2 0x104C JUMP JUMPDEST DUP1 PUSH1 0x1F ADD PUSH1 0x20 DUP1 SWAP2 DIV MUL PUSH1 0x20 ADD PUSH1 0x40 MLOAD SWAP1 DUP2 ADD PUSH1 0x40 MSTORE DUP1 SWAP3 SWAP2 SWAP1 DUP2 DUP2 MSTORE PUSH1 0x20 ADD DUP3 DUP1 SLOAD PUSH2 0x6AB SWAP1 PUSH2 0x104C JUMP JUMPDEST DUP1 ISZERO PUSH2 0x6F6 JUMPI DUP1 PUSH1 0x1F LT PUSH2 0x6CD JUMPI PUSH2 0x100 DUP1 DUP4 SLOAD DIV MUL DUP4 MSTORE SWAP2 PUSH1 0x20 ADD SWAP2 PUSH2 0x6F6 JUMP JUMPDEST DUP3 ADD SWAP2 SWAP1 PUSH0 MSTORE PUSH1 0x20 PUSH0 KECCAK256 SWAP1 JUMPDEST DUP2 SLOAD DUP2 MSTORE SWAP1 PUSH1 0x1 ADD SWAP1 PUSH1 0x20 ADD DUP1 DUP4 GT PUSH2 0x6D9 JUMPI DUP3 SWAP1 SUB PUSH1 0x1F AND DUP3 ADD SWAP2 JUMPDEST POP POP POP POP POP DUP2 MSTORE PUSH1 0x20 ADD PUSH1 0x2 DUP3 ADD DUP1 SLOAD PUSH2 0x70F SWAP1 PUSH2 0x104C JUMP JUMPDEST DUP1 PUSH1 0x1F ADD PUSH1 0x20 DUP1 SWAP2 DIV MUL PUSH1 0x20 ADD PUSH1 0x40 MLOAD SWAP1 DUP2 ADD PUSH1 0x40 MSTORE DUP1 SWAP3 SWAP2 SWAP1 DUP2 DUP2 MSTORE PUSH1 0x20 ADD DUP3 DUP1 SLOAD PUSH2 0x73B SWAP1 PUSH2 0x104C JUMP JUMPDEST DUP1 ISZERO PUSH2 0x786 JUMPI DUP1 PUSH1 0x1F LT PUSH2 0x75D JUMPI PUSH2 0x100 DUP1 DUP4 SLOAD DIV MUL DUP4 MSTORE SWAP2 PUSH1 0x20 ADD SWAP2 PUSH2 0x786 JUMP JUMPDEST DUP3 ADD SWAP2 SWAP1 PUSH0 MSTORE PUSH1 0x20 PUSH0 KECCAK256 SWAP1 JUMPDEST DUP2 SLOAD DUP2 MSTORE SWAP1 PUSH1 0x1 ADD SWAP1 PUSH1 0x20 ADD DUP1 DUP4 GT PUSH2 0x769 JUMPI DUP3 SWAP1 SUB PUSH1 0x1F AND DUP3 ADD SWAP2 JUMPDEST POP POP POP POP POP DUP2 MSTORE PUSH1 0x20 ADD PUSH1 0x3 DUP3 ADD PUSH0 SWAP1 SLOAD SWAP1 PUSH2 0x100 EXP SWAP1 DIV PUSH20 0xFFFFFFFFFFFFFFFFFFFFFFFFFFFFFFFFFFFFFFFF AND PUSH20 0xFFFFFFFFFFFFFFFFFFFFFFFFFFFFFFFFFFFFFFFF AND PUSH20 0xFFFFFFFFFFFFFFFFFFFFFFFFFFFFFFFFFFFFFFFF AND DUP2 MSTORE PUSH1 0x20 ADD PUSH1 0x3 DUP3 ADD PUSH1 0x14 SWAP1 SLOAD SWAP1 PUSH2 0x100 EXP SWAP1 DIV PUSH1 0xFF AND ISZERO ISZERO ISZERO ISZERO DUP2 MSTORE POP POP SWAP1 POP SWAP2 SWAP1 POP JUMP JUMPDEST PUSH1 0x60 PUSH0 PUSH0 PUSH0 DUP5 DUP2 MSTORE PUSH1 0x20 ADD SWAP1 DUP2 MSTORE PUSH1 0x20 ADD PUSH0 KECCAK256 PUSH1 0x2 ADD DUP1 SLOAD PUSH2 0x827 SWAP1 PUSH2 0x104C JUMP JUMPDEST SWAP1 POP SUB PUSH2 0x869 JUMPI PUSH1 0x40 MLOAD PUSH32 0x8C379A000000000000000000000000000000000000000000000000000000000 DUP2 MSTORE PUSH1 0x4 ADD PUSH2 0x860 SWAP1 PUSH2 0x13A0 JUMP JUMPDEST PUSH1 0x40 MLOAD DUP1 SWAP2 SUB SWAP1 REVERT JUMPDEST PUSH0 PUSH0 DUP4 DUP2 MSTORE PUSH1 0x20 ADD SWAP1 DUP2 MSTORE PUSH1 0x20 ADD PUSH0 KECCAK256 PUSH1 0x2 ADD DUP1 SLOAD PUSH2 0x887 SWAP1 PUSH2 0x104C JUMP JUMPDEST DUP1 PUSH1 0x1F ADD PUSH1 0x20 DUP1 SWAP2 DIV MUL PUSH1 0x20 ADD PUSH1 0x40 MLOAD SWAP1 DUP2 ADD PUSH1 0x40 MSTORE DUP1 SWAP3 SWAP2 SWAP1 DUP2 DUP2 MSTORE PUSH1 0x20 ADD DUP3 DUP1 SLOAD PUSH2 0x8B3 SWAP1 PUSH2 0x104C JUMP JUMPDEST DUP1 ISZERO PUSH2 0x8FE JUMPI DUP1 PUSH1 0x1F LT PUSH2 0x8D5 JUMPI PUSH2 0x100 DUP1 DUP4 SLOAD DIV MUL DUP4 MSTORE SWAP2 PUSH1 0x20 ADD SWAP2 PUSH2 0x8FE JUMP JUMPDEST DUP3 ADD SWAP2 SWAP1 PUSH0 MSTORE PUSH1 0x20 PUSH0 KECCAK256 SWAP1 JUMPDEST DUP2 SLOAD DUP2 MSTORE SWAP1 PUSH1 0x1 ADD SWAP1 PUSH1 0x20 ADD DUP1 DUP4 GT PUSH2 0x8E1 JUMPI DUP3 SWAP1 SUB PUSH1 0x1F AND DUP3 ADD SWAP2 JUMPDEST POP POP POP POP POP SWAP1 POP SWAP2 SWAP1 POP JUMP JUMPDEST PUSH1 0x2 PUSH0 SWAP1 SLOAD SWAP1 PUSH2 0x100 EXP SWAP1 DIV PUSH20 0xFFFFFFFFFFFFFFFFFFFFFFFFFFFFFFFFFFFFFFFF AND DUP2 JUMP JUMPDEST PUSH0 PUSH1 0x1 SLOAD SWAP1 POP SWAP1 JUMP JUMPDEST PUSH1 0x40 MLOAD DUP1 PUSH1 0xA0 ADD PUSH1 0x40 MSTORE DUP1 PUSH0 DUP2 MSTORE PUSH1 0x20 ADD PUSH1 0x60 DUP2 MSTORE PUSH1 0x20 ADD PUSH1 0x60 DUP2 MSTORE PUSH1 0x20 ADD PUSH0 PUSH20 0xFFFFFFFFFFFFFFFFFFFFFFFFFFFFFFFFFFFFFFFF AND DUP2 MSTORE PUSH1 0x20 ADD PUSH0 ISZERO ISZERO DUP2 MSTORE POP SWAP1 JUMP JUMPDEST PUSH0 DUP2 SWAP1 POP SWAP2 SWAP1 POP JUMP JUMPDEST PUSH2 0x98E DUP2 PUSH2 0x97C JUMP JUMPDEST DUP3 MSTORE POP POP JUMP JUMPDEST PUSH0 PUSH1 0x20 DUP3 ADD SWAP1 POP PUSH2 0x9A7 PUSH0 DUP4 ADD DUP5 PUSH2 0x985 JUMP JUMPDEST SWAP3 SWAP2 POP POP JUMP JUMPDEST PUSH0 PUSH1 0x40 MLOAD SWAP1 POP SWAP1 JUMP JUMPDEST PUSH0 PUSH0 REVERT JUMPDEST PUSH0 PUSH0 REVERT JUMPDEST PUSH2 0x9C7 DUP2 PUSH2 0x97C JUMP JUMPDEST DUP2 EQ PUSH2 0x9D1 JUMPI PUSH0 PUSH0 REVERT JUMPDEST POP JUMP JUMPDEST PUSH0 DUP2 CALLDATALOAD SWAP1 POP PUSH2 0x9E2 DUP2 PUSH2 0x9BE JUMP JUMPDEST SWAP3 SWAP2 POP POP JUMP JUMPDEST PUSH0 PUSH0 REVERT JUMPDEST PUSH0 PUSH0 REVERT JUMPDEST PUSH0 PUSH1 0x1F NOT PUSH1 0x1F DUP4 ADD AND SWAP1 POP SWAP2 SWAP1 POP JUMP JUMPDEST PUSH32 0x4E487B7100000000000000000000000000000000000000000000000000000000 PUSH0 MSTORE PUSH1 0x41 PUSH1 0x4 MSTORE PUSH1 0x24 PUSH0 REVERT JUMPDEST PUSH2 0xA36 DUP3 PUSH2 0x9F0 JUMP JUMPDEST DUP2 ADD DUP2 DUP2 LT PUSH8 0xFFFFFFFFFFFFFFFF DUP3 GT OR ISZERO PUSH2 0xA55 JUMPI PUSH2 0xA54 PUSH2 0xA00 JUMP JUMPDEST JUMPDEST DUP1 PUSH1 0x40 MSTORE POP POP POP JUMP JUMPDEST PUSH0 PUSH2 0xA67 PUSH2 0x9AD JUMP JUMPDEST SWAP1 POP PUSH2 0xA73 DUP3 DUP3 PUSH2 0xA2D JUMP JUMPDEST SWAP2 SWAP1 POP JUMP JUMPDEST PUSH0 PUSH8 0xFFFFFFFFFFFFFFFF DUP3 GT ISZERO PUSH2 0xA92 JUMPI PUSH2 0xA91 PUSH2 0xA00 JUMP JUMPDEST JUMPDEST PUSH2 0xA9B DUP3 PUSH2 0x9F0 JUMP JUMPDEST SWAP1 POP PUSH1 0x20 DUP2 ADD SWAP1 POP SWAP2 SWAP1 POP JUMP JUMPDEST DUP3 DUP2 DUP4 CALLDATACOPY PUSH0 DUP4 DUP4 ADD MSTORE POP POP POP JUMP JUMPDEST PUSH0 PUSH2 0xAC8 PUSH2 0xAC3 DUP5 PUSH2 0xA78 JUMP JUMPDEST PUSH2 0xA5E JUMP JUMPDEST SWAP1 POP DUP3 DUP2 MSTORE PUSH1 0x20 DUP2 ADD DUP5 DUP5 DUP5 ADD GT ISZERO PUSH2 0xAE4 JUMPI PUSH2 0xAE3 PUSH2 0x9EC JUMP JUMPDEST JUMPDEST PUSH2 0xAEF DUP5 DUP3 DUP6 PUSH2 0xAA8 JUMP JUMPDEST POP SWAP4 SWAP3 POP POP POP JUMP JUMPDEST PUSH0 DUP3 PUSH1 0x1F DUP4 ADD SLT PUSH2 0xB0B JUMPI PUSH2 0xB0A PUSH2 0x9E8 JUMP JUMPDEST JUMPDEST DUP2 CALLDATALOAD PUSH2 0xB1B DUP5 DUP3 PUSH1 0x20 DUP7 ADD PUSH2 0xAB6 JUMP JUMPDEST SWAP2 POP POP SWAP3 SWAP2 POP POP JUMP JUMPDEST PUSH0 PUSH0 PUSH0 PUSH1 0x60 DUP5 DUP7 SUB SLT ISZERO PUSH2 0xB3B JUMPI PUSH2 0xB3A PUSH2 0x9B6 JUMP JUMPDEST JUMPDEST PUSH0 PUSH2 0xB48 DUP7 DUP3 DUP8 ADD PUSH2 0x9D4 JUMP JUMPDEST SWAP4 POP POP PUSH1 0x20 DUP5 ADD CALLDATALOAD PUSH8 0xFFFFFFFFFFFFFFFF DUP2 GT ISZERO PUSH2 0xB69 JUMPI PUSH2 0xB68 PUSH2 0x9BA JUMP JUMPDEST JUMPDEST PUSH2 0xB75 DUP7 DUP3 DUP8 ADD PUSH2 0xAF7 JUMP JUMPDEST SWAP3 POP POP PUSH1 0x40 DUP5 ADD CALLDATALOAD PUSH8 0xFFFFFFFFFFFFFFFF DUP2 GT ISZERO PUSH2 0xB96 JUMPI PUSH2 0xB95 PUSH2 0x9BA JUMP JUMPDEST JUMPDEST PUSH2 0xBA2 DUP7 DUP3 DUP8 ADD PUSH2 0xAF7 JUMP JUMPDEST SWAP2 POP POP SWAP3 POP SWAP3 POP SWAP3 JUMP JUMPDEST PUSH0 PUSH1 0x20 DUP3 DUP5 SUB SLT ISZERO PUSH2 0xBC1 JUMPI PUSH2 0xBC0 PUSH2 0x9B6 JUMP JUMPDEST JUMPDEST PUSH0 PUSH2 0xBCE DUP5 DUP3 DUP6 ADD PUSH2 0x9D4 JUMP JUMPDEST SWAP2 POP POP SWAP3 SWAP2 POP POP JUMP JUMPDEST PUSH0 DUP2 MLOAD SWAP1 POP SWAP2 SWAP1 POP JUMP JUMPDEST PUSH0 DUP3 DUP3 MSTORE PUSH1 0x20 DUP3 ADD SWAP1 POP SWAP3 SWAP2 POP POP JUMP JUMPDEST DUP3 DUP2 DUP4 MCOPY PUSH0 DUP4 DUP4 ADD MSTORE POP POP POP JUMP JUMPDEST PUSH0 PUSH2 0xC09 DUP3 PUSH2 0xBD7 JUMP JUMPDEST PUSH2 0xC13 DUP2 DUP6 PUSH2 0xBE1 JUMP JUMPDEST SWAP4 POP PUSH2 0xC23 DUP2 DUP6 PUSH1 0x20 DUP7 ADD PUSH2 0xBF1 JUMP JUMPDEST PUSH2 0xC2C DUP2 PUSH2 0x9F0 JUMP JUMPDEST DUP5 ADD SWAP2 POP POP SWAP3 SWAP2 POP POP JUMP JUMPDEST PUSH0 PUSH20 0xFFFFFFFFFFFFFFFFFFFFFFFFFFFFFFFFFFFFFFFF DUP3 AND SWAP1 POP SWAP2 SWAP1 POP JUMP JUMPDEST PUSH0 PUSH2 0xC60 DUP3 PUSH2 0xC37 JUMP JUMPDEST SWAP1 POP SWAP2 SWAP1 POP JUMP JUMPDEST PUSH2 0xC70 DUP2 PUSH2 0xC56 JUMP JUMPDEST DUP3 MSTORE POP POP JUMP JUMPDEST PUSH0 DUP2 ISZERO ISZERO SWAP1 POP SWAP2 SWAP1 POP JUMP JUMPDEST PUSH2 0xC8A DUP2 PUSH2 0xC76 JUMP JUMPDEST DUP3 MSTORE POP POP JUMP JUMPDEST PUSH0 PUSH1 0xA0 DUP3 ADD SWAP1 POP PUSH2 0xCA3 PUSH0 DUP4 ADD DUP9 PUSH2 0x985 JUMP JUMPDEST DUP2 DUP2 SUB PUSH1 0x20 DUP4 ADD MSTORE PUSH2 0xCB5 DUP2 DUP8 PUSH2 0xBFF JUMP JUMPDEST SWAP1 POP DUP2 DUP2 SUB PUSH1 0x40 DUP4 ADD MSTORE PUSH2 0xCC9 DUP2 DUP7 PUSH2 0xBFF JUMP JUMPDEST SWAP1 POP PUSH2 0xCD8 PUSH1 0x60 DUP4 ADD DUP6 PUSH2 0xC67 JUMP JUMPDEST PUSH2 0xCE5 PUSH1 0x80 DUP4 ADD DUP5 PUSH2 0xC81 JUMP JUMPDEST SWAP7 SWAP6 POP POP POP POP POP POP JUMP JUMPDEST PUSH2 0xCF8 DUP2 PUSH2 0x97C JUMP JUMPDEST DUP3 MSTORE POP POP JUMP JUMPDEST PUSH0 DUP3 DUP3 MSTORE PUSH1 0x20 DUP3 ADD SWAP1 POP SWAP3 SWAP2 POP POP JUMP JUMPDEST PUSH0 PUSH2 0xD18 DUP3 PUSH2 0xBD7 JUMP JUMPDEST PUSH2 0xD22 DUP2 DUP6 PUSH2 0xCFE JUMP JUMPDEST SWAP4 POP PUSH2 0xD32 DUP2 DUP6 PUSH1 0x20 DUP7 ADD PUSH2 0xBF1 JUMP JUMPDEST PUSH2 0xD3B DUP2 PUSH2 0x9F0 JUMP JUMPDEST DUP5 ADD SWAP2 POP POP SWAP3 SWAP2 POP POP JUMP JUMPDEST PUSH2 0xD4F DUP2 PUSH2 0xC56 JUMP JUMPDEST DUP3 MSTORE POP POP JUMP JUMPDEST PUSH2 0xD5E DUP2 PUSH2 0xC76 JUMP JUMPDEST DUP3 MSTORE POP POP JUMP JUMPDEST PUSH0 PUSH1 0xA0 DUP4 ADD PUSH0 DUP4 ADD MLOAD PUSH2 0xD79 PUSH0 DUP7 ADD DUP3 PUSH2 0xCEF JUMP JUMPDEST POP PUSH1 0x20 DUP4 ADD MLOAD DUP5 DUP3 SUB PUSH1 0x20 DUP7 ADD MSTORE PUSH2 0xD91 DUP3 DUP3 PUSH2 0xD0E JUMP JUMPDEST SWAP2 POP POP PUSH1 0x40 DUP4 ADD MLOAD DUP5 DUP3 SUB PUSH1 0x40 DUP7 ADD MSTORE PUSH2 0xDAB DUP3 DUP3 PUSH2 0xD0E JUMP JUMPDEST SWAP2 POP POP PUSH1 0x60 DUP4 ADD MLOAD PUSH2 0xDC0 PUSH1 0x60 DUP7 ADD DUP3 PUSH2 0xD46 JUMP JUMPDEST POP PUSH1 0x80 DUP4 ADD MLOAD PUSH2 0xDD3 PUSH1 0x80 DUP7 ADD DUP3 PUSH2 0xD55 JUMP JUMPDEST POP DUP1 SWAP2 POP POP SWAP3 SWAP2 POP POP JUMP JUMPDEST PUSH0 PUSH1 0x20 DUP3 ADD SWAP1 POP DUP2 DUP2 SUB PUSH0 DUP4 ADD MSTORE PUSH2 0xDF6 DUP2 DUP5 PUSH2 0xD64 JUMP JUMPDEST SWAP1 POP SWAP3 SWAP2 POP POP JUMP JUMPDEST PUSH0 PUSH1 0x20 DUP3 ADD SWAP1 POP DUP2 DUP2 SUB PUSH0 DUP4 ADD MSTORE PUSH2 0xE16 DUP2 DUP5 PUSH2 0xBFF JUMP JUMPDEST SWAP1 POP SWAP3 SWAP2 POP POP JUMP JUMPDEST PUSH0 DUP2 SWAP1 POP SWAP2 SWAP1 POP JUMP JUMPDEST PUSH0 PUSH2 0xE41 PUSH2 0xE3C PUSH2 0xE37 DUP5 PUSH2 0xC37 JUMP JUMPDEST PUSH2 0xE1E JUMP JUMPDEST PUSH2 0xC37 JUMP JUMPDEST SWAP1 POP SWAP2 SWAP1 POP JUMP JUMPDEST PUSH0 PUSH2 0xE52 DUP3 PUSH2 0xE27 JUMP JUMPDEST SWAP1 POP SWAP2 SWAP1 POP JUMP JUMPDEST PUSH0 PUSH2 0xE63 DUP3 PUSH2 0xE48 JUMP JUMPDEST SWAP1 POP SWAP2 SWAP1 POP JUMP JUMPDEST PUSH2 0xE73 DUP2 PUSH2 0xE59 JUMP JUMPDEST DUP3 MSTORE POP POP JUMP JUMPDEST PUSH0 PUSH1 0x20 DUP3 ADD SWAP1 POP PUSH2 0xE8C PUSH0 DUP4 ADD DUP5 PUSH2 0xE6A JUMP JUMPDEST SWAP3 SWAP2 POP POP JUMP JUMPDEST PUSH32 0x5573657220696420616C72656164792065786973747300000000000000000000 PUSH0 DUP3 ADD MSTORE POP JUMP JUMPDEST PUSH0 PUSH2 0xEC6 PUSH1 0x16 DUP4 PUSH2 0xBE1 JUMP JUMPDEST SWAP2 POP PUSH2 0xED1 DUP3 PUSH2 0xE92 JUMP JUMPDEST PUSH1 0x20 DUP3 ADD SWAP1 POP SWAP2 SWAP1 POP JUMP JUMPDEST PUSH0 PUSH1 0x20 DUP3 ADD SWAP1 POP DUP2 DUP2 SUB PUSH0 DUP4 ADD MSTORE PUSH2 0xEF3 DUP2 PUSH2 0xEBA JUMP JUMPDEST SWAP1 POP SWAP2 SWAP1 POP JUMP JUMPDEST PUSH32 0x4E616D652063616E6E6F7420626520656D707479000000000000000000000000 PUSH0 DUP3 ADD MSTORE POP JUMP JUMPDEST PUSH0 PUSH2 0xF2E PUSH1 0x14 DUP4 PUSH2 0xBE1 JUMP JUMPDEST SWAP2 POP PUSH2 0xF39 DUP3 PUSH2 0xEFA JUMP JUMPDEST PUSH1 0x20 DUP3 ADD SWAP1 POP SWAP2 SWAP1 POP JUMP JUMPDEST PUSH0 PUSH1 0x20 DUP3 ADD SWAP1 POP DUP2 DUP2 SUB PUSH0 DUP4 ADD MSTORE PUSH2 0xF5B DUP2 PUSH2 0xF22 JUMP JUMPDEST SWAP1 POP SWAP2 SWAP1 POP JUMP JUMPDEST PUSH2 0xF6B DUP2 PUSH2 0xC76 JUMP JUMPDEST DUP2 EQ PUSH2 0xF75 JUMPI PUSH0 PUSH0 REVERT JUMPDEST POP JUMP JUMPDEST PUSH0 DUP2 MLOAD SWAP1 POP PUSH2 0xF86 DUP2 PUSH2 0xF62 JUMP JUMPDEST SWAP3 SWAP2 POP POP JUMP JUMPDEST PUSH0 PUSH1 0x20 DUP3 DUP5 SUB SLT ISZERO PUSH2 0xFA1 JUMPI PUSH2 0xFA0 PUSH2 0x9B6 JUMP JUMPDEST JUMPDEST PUSH0 PUSH2 0xFAE DUP5 DUP3 DUP6 ADD PUSH2 0xF78 JUMP JUMPDEST SWAP2 POP POP SWAP3 SWAP2 POP POP JUMP JUMPDEST PUSH32 0x43616E64696461746520646F6573206E6F742065786973740000000000000000 PUSH0 DUP3 ADD MSTORE POP JUMP JUMPDEST PUSH0 PUSH2 0xFEB PUSH1 0x18 DUP4 PUSH2 0xBE1 JUMP JUMPDEST SWAP2 POP PUSH2 0xFF6 DUP3 PUSH2 0xFB7 JUMP JUMPDEST PUSH1 0x20 DUP3 ADD SWAP1 POP SWAP2 SWAP1 POP JUMP JUMPDEST PUSH0 PUSH1 0x20 DUP3 ADD SWAP1 POP DUP2 DUP2 SUB PUSH0 DUP4 ADD MSTORE PUSH2 0x1018 DUP2 PUSH2 0xFDF JUMP JUMPDEST SWAP1 POP SWAP2 SWAP1 POP JUMP JUMPDEST PUSH32 0x4E487B7100000000000000000000000000000000000000000000000000000000 PUSH0 MSTORE PUSH1 0x22 PUSH1 0x4 MSTORE PUSH1 0x24 PUSH0 REVERT JUMPDEST PUSH0 PUSH1 0x2 DUP3 DIV SWAP1 POP PUSH1 0x1 DUP3 AND DUP1 PUSH2 0x1063 JUMPI PUSH1 0x7F DUP3 AND SWAP2 POP JUMPDEST PUSH1 0x20 DUP3 LT DUP2 SUB PUSH2 0x1076 JUMPI PUSH2 0x1075 PUSH2 0x101F JUMP JUMPDEST JUMPDEST POP SWAP2 SWAP1 POP JUMP JUMPDEST PUSH0 DUP2 SWAP1 POP DUP2 PUSH0 MSTORE PUSH1 0x20 PUSH0 KECCAK256 SWAP1 POP SWAP2 SWAP1 POP JUMP JUMPDEST PUSH0 PUSH1 0x20 PUSH1 0x1F DUP4 ADD DIV SWAP1 POP SWAP2 SWAP1 POP JUMP JUMPDEST PUSH0 DUP3 DUP3 SHL SWAP1 POP SWAP3 SWAP2 POP POP JUMP JUMPDEST PUSH0 PUSH1 0x8 DUP4 MUL PUSH2 0x10D8 PUSH32 0xFFFFFFFFFFFFFFFFFFFFFFFFFFFFFFFFFFFFFFFFFFFFFFFFFFFFFFFFFFFFFFFF DUP3 PUSH2 0x109D JUMP JUMPDEST PUSH2 0x10E2 DUP7 DUP4 PUSH2 0x109D JUMP JUMPDEST SWAP6 POP DUP1 NOT DUP5 AND SWAP4 POP DUP1 DUP7 AND DUP5 OR SWAP3 POP POP POP SWAP4 SWAP3 POP POP POP JUMP JUMPDEST PUSH0 PUSH2 0x1114 PUSH2 0x110F PUSH2 0x110A DUP5 PUSH2 0x97C JUMP JUMPDEST PUSH2 0xE1E JUMP JUMPDEST PUSH2 0x97C JUMP JUMPDEST SWAP1 POP SWAP2 SWAP1 POP JUMP JUMPDEST PUSH0 DUP2 SWAP1 POP SWAP2 SWAP1 POP JUMP JUMPDEST PUSH2 0x112D DUP4 PUSH2 0x10FA JUMP JUMPDEST PUSH2 0x1141 PUSH2 0x1139 DUP3 PUSH2 0x111B JUMP JUMPDEST DUP5 DUP5 SLOAD PUSH2 0x10A9 JUMP JUMPDEST DUP3 SSTORE POP POP POP POP JUMP JUMPDEST PUSH0 PUSH0 SWAP1 POP SWAP1 JUMP JUMPDEST PUSH2 0x1158 PUSH2 0x1149 JUMP JUMPDEST PUSH2 0x1163 DUP2 DUP5 DUP5 PUSH2 0x1124 JUMP JUMPDEST POP POP POP JUMP JUMPDEST JUMPDEST DUP2 DUP2 LT ISZERO PUSH2 0x1186 JUMPI PUSH2 0x117B PUSH0 DUP3 PUSH2 0x1150 JUMP JUMPDEST PUSH1 0x1 DUP2 ADD SWAP1 POP PUSH2 0x1169 JUMP JUMPDEST POP POP JUMP JUMPDEST PUSH1 0x1F DUP3 GT ISZERO PUSH2 0x11CB JUMPI PUSH2 0x119C DUP2 PUSH2 0x107C JUMP JUMPDEST PUSH2 0x11A5 DUP5 PUSH2 0x108E JUMP JUMPDEST DUP2 ADD PUSH1 0x20 DUP6 LT ISZERO PUSH2 0x11B4 JUMPI DUP2 SWAP1 POP JUMPDEST PUSH2 0x11C8 PUSH2 0x11C0 DUP6 PUSH2 0x108E JUMP JUMPDEST DUP4 ADD DUP3 PUSH2 0x1168 JUMP JUMPDEST POP POP JUMPDEST POP POP POP JUMP JUMPDEST PUSH0 DUP3 DUP3 SHR SWAP1 POP SWAP3 SWAP2 POP POP JUMP JUMPDEST PUSH0 PUSH2 0x11EB PUSH0 NOT DUP5 PUSH1 0x8 MUL PUSH2 0x11D0 JUMP JUMPDEST NOT DUP1 DUP4 AND SWAP2 POP POP SWAP3 SWAP2 POP POP JUMP JUMPDEST PUSH0 PUSH2 0x1203 DUP4 DUP4 PUSH2 0x11DC JUMP JUMPDEST SWAP2 POP DUP3 PUSH1 0x2 MUL DUP3 OR SWAP1 POP SWAP3 SWAP2 POP POP JUMP JUMPDEST PUSH2 0x121C DUP3 PUSH2 0xBD7 JUMP JUMPDEST PUSH8 0xFFFFFFFFFFFFFFFF DUP2 GT ISZERO PUSH2 0x1235 JUMPI PUSH2 0x1234 PUSH2 0xA00 JUMP JUMPDEST JUMPDEST PUSH2 0x123F DUP3 SLOAD PUSH2 0x104C JUMP JUMPDEST PUSH2 0x124A DUP3 DUP3 DUP6 PUSH2 0x118A JUMP JUMPDEST PUSH0 PUSH1 0x20 SWAP1 POP PUSH1 0x1F DUP4 GT PUSH1 0x1 DUP2 EQ PUSH2 0x127B JUMPI PUSH0 DUP5 ISZERO PUSH2 0x1269 JUMPI DUP3 DUP8 ADD MLOAD SWAP1 POP JUMPDEST PUSH2 0x1273 DUP6 DUP3 PUSH2 0x11F8 JUMP JUMPDEST DUP7 SSTORE POP PUSH2 0x12DA JUMP JUMPDEST PUSH1 0x1F NOT DUP5 AND PUSH2 0x1289 DUP7 PUSH2 0x107C JUMP JUMPDEST PUSH0 JUMPDEST DUP3 DUP2 LT ISZERO PUSH2 0x12B0 JUMPI DUP5 DUP10 ADD MLOAD DUP3 SSTORE PUSH1 0x1 DUP3 ADD SWAP2 POP PUSH1 0x20 DUP6 ADD SWAP5 POP PUSH1 0x20 DUP2 ADD SWAP1 POP PUSH2 0x128B JUMP JUMPDEST DUP7 DUP4 LT ISZERO PUSH2 0x12CD JUMPI DUP5 DUP10 ADD MLOAD PUSH2 0x12C9 PUSH1 0x1F DUP10 AND DUP3 PUSH2 0x11DC JUMP JUMPDEST DUP4 SSTORE POP JUMPDEST PUSH1 0x1 PUSH1 0x2 DUP9 MUL ADD DUP9 SSTORE POP POP POP JUMPDEST POP POP POP POP POP POP JUMP JUMPDEST PUSH32 0x4E487B7100000000000000000000000000000000000000000000000000000000 PUSH0 MSTORE PUSH1 0x11 PUSH1 0x4 MSTORE PUSH1 0x24 PUSH0 REVERT JUMPDEST PUSH0 PUSH2 0x1319 DUP3 PUSH2 0x97C JUMP JUMPDEST SWAP2 POP PUSH32 0xFFFFFFFFFFFFFFFFFFFFFFFFFFFFFFFFFFFFFFFFFFFFFFFFFFFFFFFFFFFFFFFF DUP3 SUB PUSH2 0x134B JUMPI PUSH2 0x134A PUSH2 0x12E2 JUMP JUMPDEST JUMPDEST PUSH1 0x1 DUP3 ADD SWAP1 POP SWAP2 SWAP1 POP JUMP JUMPDEST PUSH32 0x5573657220686173206E6F7420766F7465642079657400000000000000000000 PUSH0 DUP3 ADD MSTORE POP JUMP JUMPDEST PUSH0 PUSH2 0x138A PUSH1 0x16 DUP4 PUSH2 0xBE1 JUMP JUMPDEST SWAP2 POP PUSH2 0x1395 DUP3 PUSH2 0x1356 JUMP JUMPDEST PUSH1 0x20 DUP3 ADD SWAP1 POP SWAP2 SWAP1 POP JUMP JUMPDEST PUSH0 PUSH1 0x20 DUP3 ADD SWAP1 POP DUP2 DUP2 SUB PUSH0 DUP4 ADD MSTORE PUSH2 0x13B7 DUP2 PUSH2 0x137E JUMP JUMPDEST SWAP1 POP SWAP2 SWAP1 POP JUMP INVALID LOG2 PUSH5 0x6970667358 0x22 SLT KECCAK256 SWAP5 0xD 0xE9 BLOCKHASH 0xC3 KECCAK256 LOG3 SLT 0x4F DUP3 PUSH0 BYTE SWAP1 0x21 0xB0 0xDC SAR SLOAD 0xFC 0xA7 DUP7 MULMOD NOT PUSH30 0x56B217216978CF6C64736F6C634300081E00330000000000000000000000 "
				},
				"gasEstimates": {
					"creation": {
						"codeDepositCost": "1021600",
						"executionCost": "infinite",
						"totalCost": "infinite"
					},
					"external": {
						"addVoter(uint256,string,string)": "infinite",
						"candidateContract()": "infinite",
						"getUserById(uint256)": "infinite",
						"getUserCount()": "2498",
						"getUserVote(uint256)": "infinite",
						"userCount()": "2426",
						"users(uint256)": "infinite"
					}
				},
				"methodIdentifiers": {
					"addVoter(uint256,string,string)": "1522bb87",
					"candidateContract()": "b4a3a162",
					"getUserById(uint256)": "6ed6da9e",
					"getUserCount()": "b5cb15f7",
					"getUserVote(uint256)": "86194c19",
					"userCount()": "07973ccf",
					"users(uint256)": "365b98b2"
				}
			},
			"storageLayout": {
				"storage": [
					{
						"astId": 30,
						"contract": "contracts/qlds/ICandidateManager.sol:UserManager",
						"label": "users",
						"offset": 0,
						"slot": "0",
						"type": "t_mapping(t_uint256,t_struct(User)25_storage)"
					},
					{
						"astId": 33,
						"contract": "contracts/qlds/ICandidateManager.sol:UserManager",
						"label": "userCount",
						"offset": 0,
						"slot": "1",
						"type": "t_uint256"
					},
					{
						"astId": 36,
						"contract": "contracts/qlds/ICandidateManager.sol:UserManager",
						"label": "candidateContract",
						"offset": 0,
						"slot": "2",
						"type": "t_contract(ICandidateManager)14"
					}
				],
				"types": {
					"t_address": {
						"encoding": "inplace",
						"label": "address",
						"numberOfBytes": "20"
					},
					"t_bool": {
						"encoding": "inplace",
						"label": "bool",
						"numberOfBytes": "1"
					},
					"t_contract(ICandidateManager)14": {
						"encoding": "inplace",
						"label": "contract ICandidateManager",
						"numberOfBytes": "20"
					},
					"t_mapping(t_uint256,t_struct(User)25_storage)": {
						"encoding": "mapping",
						"key": "t_uint256",
						"label": "mapping(uint256 => struct UserManager.User)",
						"numberOfBytes": "32",
						"value": "t_struct(User)25_storage"
					},
					"t_string_storage": {
						"encoding": "bytes",
						"label": "string",
						"numberOfBytes": "32"
					},
					"t_struct(User)25_storage": {
						"encoding": "inplace",
						"label": "struct UserManager.User",
						"members": [
							{
								"astId": 16,
								"contract": "contracts/qlds/ICandidateManager.sol:UserManager",
								"label": "id",
								"offset": 0,
								"slot": "0",
								"type": "t_uint256"
							},
							{
								"astId": 18,
								"contract": "contracts/qlds/ICandidateManager.sol:UserManager",
								"label": "name",
								"offset": 0,
								"slot": "1",
								"type": "t_string_storage"
							},
							{
								"astId": 20,
								"contract": "contracts/qlds/ICandidateManager.sol:UserManager",
								"label": "nameCandidate",
								"offset": 0,
								"slot": "2",
								"type": "t_string_storage"
							},
							{
								"astId": 22,
								"contract": "contracts/qlds/ICandidateManager.sol:UserManager",
								"label": "userAddress",
								"offset": 0,
								"slot": "3",
								"type": "t_address"
							},
							{
								"astId": 24,
								"contract": "contracts/qlds/ICandidateManager.sol:UserManager",
								"label": "isVote",
								"offset": 20,
								"slot": "3",
								"type": "t_bool"
							}
						],
						"numberOfBytes": "128"
					},
					"t_uint256": {
						"encoding": "inplace",
						"label": "uint256",
						"numberOfBytes": "32"
					}
				}
			},
			"userdoc": {
				"kind": "user",
				"methods": {},
				"version": 1
			}
		}
	}
}