{
	"data": {
		"bytecode": {
			"linkReferences": {},
			"object": "60806040525f6001553480156012575f5ffd5b50610eda806100205f395ff3fe608060405234801561000f575f5ffd5b506004361061009c575f3560e01c806394a5c2e41161006457806394a5c2e4146101475780639a0e7d6614610165578063b61add9a14610183578063c5539cc2146101b4578063fc36e15b146101e55761009c565b80630d15fd77146100a0578063462e91ec146100be5780634c162f2a146100da5780634c9eb4d4146100f85780637e797dee14610117575b5f5ffd5b6100a8610201565b6040516100b5919061074e565b60405180910390f35b6100d860048036038101906100d391906108b4565b610207565b005b6100e26102a6565b6040516100ef919061095b565b60405180910390f35b610100610332565b60405161010e92919061097b565b60405180910390f35b610131600480360381019061012c91906108b4565b61041c565b60405161013e91906109c3565b60405180910390f35b61014f610453565b60405161015c919061074e565b60405180910390f35b61016d610459565b60405161017a919061074e565b60405180910390f35b61019d600480360381019061019891906108b4565b610462565b6040516101ab92919061097b565b60405180910390f35b6101ce60048036038101906101c991906108b4565b610580565b6040516101dc92919061097b565b60405180910390f35b6101ff60048036038101906101fa91906108b4565b61063d565b005b60015481565b6102108161041c565b15610250576040517f08c379a000000000000000000000000000000000000000000000000000000000815260040161024790610a26565b60405180910390fd5b60405180604001604052808281526020015f8152505f826040516102749190610a7e565b90815260200160405180910390205f820151815f0190816102959190610c91565b506020820151816001015590505050565b600380546102b390610ac1565b80601f01602080910402602001604051908101604052809291908181526020018280546102df90610ac1565b801561032a5780601f106103015761010080835404028352916020019161032a565b820191905f5260205f20905b81548152906001019060200180831161030d57829003601f168201915b505050505081565b60605f5f6003805461034390610ac1565b905003610385576040517f08c379a000000000000000000000000000000000000000000000000000000000815260040161037c90610daa565b60405180910390fd5b600360025481805461039690610ac1565b80601f01602080910402602001604051908101604052809291908181526020018280546103c290610ac1565b801561040d5780601f106103e45761010080835404028352916020019161040d565b820191905f5260205f20905b8154815290600101906020018083116103f057829003601f168201915b50505050509150915091509091565b5f5f5f8360405161042d9190610a7e565b90815260200160405180910390205f01805461044890610ac1565b905014159050919050565b60025481565b5f600154905090565b60605f61046e8361041c565b6104ad576040517f08c379a00000000000000000000000000000000000000000000000000000000081526004016104a490610e12565b60405180910390fd5b5f836040516104bc9190610a7e565b90815260200160405180910390205f015f846040516104db9190610a7e565b9081526020016040518091039020600101548180546104f990610ac1565b80601f016020809104026020016040519081016040528092919081815260200182805461052590610ac1565b80156105705780601f1061054757610100808354040283529160200191610570565b820191905f5260205f20905b81548152906001019060200180831161055357829003601f168201915b5050505050915091509150915091565b5f818051602081018201805184825260208301602085012081835280955050505050505f91509050805f0180546105b690610ac1565b80601f01602080910402602001604051908101604052809291908181526020018280546105e290610ac1565b801561062d5780601f106106045761010080835404028352916020019161062d565b820191905f5260205f20905b81548152906001019060200180831161061057829003601f168201915b5050505050908060010154905082565b6106468161041c565b610685576040517f08c379a000000000000000000000000000000000000000000000000000000000815260040161067c90610e12565b60405180910390fd5b5f816040516106949190610a7e565b90815260200160405180910390206001015f8154809291906106b590610e5d565b919050555060015f8154809291906106cc90610e5d565b91905055506002545f826040516106e39190610a7e565b9081526020016040518091039020600101541115610733575f8160405161070a9190610a7e565b90815260200160405180910390206001015460028190555080600390816107319190610c91565b505b50565b5f819050919050565b61074881610736565b82525050565b5f6020820190506107615f83018461073f565b92915050565b5f604051905090565b5f5ffd5b5f5ffd5b5f5ffd5b5f5ffd5b5f601f19601f8301169050919050565b7f4e487b71000000000000000000000000000000000000000000000000000000005f52604160045260245ffd5b6107c682610780565b810181811067ffffffffffffffff821117156107e5576107e4610790565b5b80604052505050565b5f6107f7610767565b905061080382826107bd565b919050565b5f67ffffffffffffffff82111561082257610821610790565b5b61082b82610780565b9050602081019050919050565b828183375f83830152505050565b5f61085861085384610808565b6107ee565b9050828152602081018484840111156108745761087361077c565b5b61087f848285610838565b509392505050565b5f82601f83011261089b5761089a610778565b5b81356108ab848260208601610846565b91505092915050565b5f602082840312156108c9576108c8610770565b5b5f82013567ffffffffffffffff8111156108e6576108e5610774565b5b6108f284828501610887565b91505092915050565b5f81519050919050565b5f82825260208201905092915050565b8281835e5f83830152505050565b5f61092d826108fb565b6109378185610905565b9350610947818560208601610915565b61095081610780565b840191505092915050565b5f6020820190508181035f8301526109738184610923565b905092915050565b5f6040820190508181035f8301526109938185610923565b90506109a2602083018461073f565b9392505050565b5f8115159050919050565b6109bd816109a9565b82525050565b5f6020820190506109d65f8301846109b4565b92915050565b7f43616e64696461746520616c72656164792065786973747300000000000000005f82015250565b5f610a10601883610905565b9150610a1b826109dc565b602082019050919050565b5f6020820190508181035f830152610a3d81610a04565b9050919050565b5f81905092915050565b5f610a58826108fb565b610a628185610a44565b9350610a72818560208601610915565b80840191505092915050565b5f610a898284610a4e565b915081905092915050565b7f4e487b71000000000000000000000000000000000000000000000000000000005f52602260045260245ffd5b5f6002820490506001821680610ad857607f821691505b602082108103610aeb57610aea610a94565b5b50919050565b5f819050815f5260205f209050919050565b5f6020601f8301049050919050565b5f82821b905092915050565b5f60088302610b4d7fffffffffffffffffffffffffffffffffffffffffffffffffffffffffffffffff82610b12565b610b578683610b12565b95508019841693508086168417925050509392505050565b5f819050919050565b5f610b92610b8d610b8884610736565b610b6f565b610736565b9050919050565b5f819050919050565b610bab83610b78565b610bbf610bb782610b99565b848454610b1e565b825550505050565b5f5f905090565b610bd6610bc7565b610be1818484610ba2565b505050565b5b81811015610c0457610bf95f82610bce565b600181019050610be7565b5050565b601f821115610c4957610c1a81610af1565b610c2384610b03565b81016020851015610c32578190505b610c46610c3e85610b03565b830182610be6565b50505b505050565b5f82821c905092915050565b5f610c695f1984600802610c4e565b1980831691505092915050565b5f610c818383610c5a565b9150826002028217905092915050565b610c9a826108fb565b67ffffffffffffffff811115610cb357610cb2610790565b5b610cbd8254610ac1565b610cc8828285610c08565b5f60209050601f831160018114610cf9575f8415610ce7578287015190505b610cf18582610c76565b865550610d58565b601f198416610d0786610af1565b5f5b82811015610d2e57848901518255600182019150602085019450602081019050610d09565b86831015610d4b5784890151610d47601f891682610c5a565b8355505b6001600288020188555050505b505050505050565b7f4e6f20766f7465732079657400000000000000000000000000000000000000005f82015250565b5f610d94600c83610905565b9150610d9f82610d60565b602082019050919050565b5f6020820190508181035f830152610dc181610d88565b9050919050565b7f43616e64696461746520646f6573206e6f7420657869737400000000000000005f82015250565b5f610dfc601883610905565b9150610e0782610dc8565b602082019050919050565b5f6020820190508181035f830152610e2981610df0565b9050919050565b7f4e487b71000000000000000000000000000000000000000000000000000000005f52601160045260245ffd5b5f610e6782610736565b91507fffffffffffffffffffffffffffffffffffffffffffffffffffffffffffffffff8203610e9957610e98610e30565b5b60018201905091905056fea2646970667358221220b0989b4d6b361eac223b1a9ab85293aa65bb514fc250880d1461efafb7d1c24f64736f6c634300081e0033",
			"opcodes": "PUSH1 0x80 PUSH1 0x40 MSTORE PUSH0 PUSH1 0x1 SSTORE CALLVALUE DUP1 ISZERO PUSH1 0x12 JUMPI PUSH0 PUSH0 REVERT JUMPDEST POP PUSH2 0xEDA DUP1 PUSH2 0x20 PUSH0 CODECOPY PUSH0 RETURN INVALID PUSH1 0x80 PUSH1 0x40 MSTORE CALLVALUE DUP1 ISZERO PUSH2 0xF JUMPI PUSH0 PUSH0 REVERT JUMPDEST POP PUSH1 0x4 CALLDATASIZE LT PUSH2 0x9C JUMPI PUSH0 CALLDATALOAD PUSH1 0xE0 SHR DUP1 PUSH4 0x94A5C2E4 GT PUSH2 0x64 JUMPI DUP1 PUSH4 0x94A5C2E4 EQ PUSH2 0x147 JUMPI DUP1 PUSH4 0x9A0E7D66 EQ PUSH2 0x165 JUMPI DUP1 PUSH4 0xB61ADD9A EQ PUSH2 0x183 JUMPI DUP1 PUSH4 0xC5539CC2 EQ PUSH2 0x1B4 JUMPI DUP1 PUSH4 0xFC36E15B EQ PUSH2 0x1E5 JUMPI PUSH2 0x9C JUMP JUMPDEST DUP1 PUSH4 0xD15FD77 EQ PUSH2 0xA0 JUMPI DUP1 PUSH4 0x462E91EC EQ PUSH2 0xBE JUMPI DUP1 PUSH4 0x4C162F2A EQ PUSH2 0xDA JUMPI DUP1 PUSH4 0x4C9EB4D4 EQ PUSH2 0xF8 JUMPI DUP1 PUSH4 0x7E797DEE EQ PUSH2 0x117 JUMPI JUMPDEST PUSH0 PUSH0 REVERT JUMPDEST PUSH2 0xA8 PUSH2 0x201 JUMP JUMPDEST PUSH1 0x40 MLOAD PUSH2 0xB5 SWAP2 SWAP1 PUSH2 0x74E JUMP JUMPDEST PUSH1 0x40 MLOAD DUP1 SWAP2 SUB SWAP1 RETURN JUMPDEST PUSH2 0xD8 PUSH1 0x4 DUP1 CALLDATASIZE SUB DUP2 ADD SWAP1 PUSH2 0xD3 SWAP2 SWAP1 PUSH2 0x8B4 JUMP JUMPDEST PUSH2 0x207 JUMP JUMPDEST STOP JUMPDEST PUSH2 0xE2 PUSH2 0x2A6 JUMP JUMPDEST PUSH1 0x40 MLOAD PUSH2 0xEF SWAP2 SWAP1 PUSH2 0x95B JUMP JUMPDEST PUSH1 0x40 MLOAD DUP1 SWAP2 SUB SWAP1 RETURN JUMPDEST PUSH2 0x100 PUSH2 0x332 JUMP JUMPDEST PUSH1 0x40 MLOAD PUSH2 0x10E SWAP3 SWAP2 SWAP1 PUSH2 0x97B JUMP JUMPDEST PUSH1 0x40 MLOAD DUP1 SWAP2 SUB SWAP1 RETURN JUMPDEST PUSH2 0x131 PUSH1 0x4 DUP1 CALLDATASIZE SUB DUP2 ADD SWAP1 PUSH2 0x12C SWAP2 SWAP1 PUSH2 0x8B4 JUMP JUMPDEST PUSH2 0x41C JUMP JUMPDEST PUSH1 0x40 MLOAD PUSH2 0x13E SWAP2 SWAP1 PUSH2 0x9C3 JUMP JUMPDEST PUSH1 0x40 MLOAD DUP1 SWAP2 SUB SWAP1 RETURN JUMPDEST PUSH2 0x14F PUSH2 0x453 JUMP JUMPDEST PUSH1 0x40 MLOAD PUSH2 0x15C SWAP2 SWAP1 PUSH2 0x74E JUMP JUMPDEST PUSH1 0x40 MLOAD DUP1 SWAP2 SUB SWAP1 RETURN JUMPDEST PUSH2 0x16D PUSH2 0x459 JUMP JUMPDEST PUSH1 0x40 MLOAD PUSH2 0x17A SWAP2 SWAP1 PUSH2 0x74E JUMP JUMPDEST PUSH1 0x40 MLOAD DUP1 SWAP2 SUB SWAP1 RETURN JUMPDEST PUSH2 0x19D PUSH1 0x4 DUP1 CALLDATASIZE SUB DUP2 ADD SWAP1 PUSH2 0x198 SWAP2 SWAP1 PUSH2 0x8B4 JUMP JUMPDEST PUSH2 0x462 JUMP JUMPDEST PUSH1 0x40 MLOAD PUSH2 0x1AB SWAP3 SWAP2 SWAP1 PUSH2 0x97B JUMP JUMPDEST PUSH1 0x40 MLOAD DUP1 SWAP2 SUB SWAP1 RETURN JUMPDEST PUSH2 0x1CE PUSH1 0x4 DUP1 CALLDATASIZE SUB DUP2 ADD SWAP1 PUSH2 0x1C9 SWAP2 SWAP1 PUSH2 0x8B4 JUMP JUMPDEST PUSH2 0x580 JUMP JUMPDEST PUSH1 0x40 MLOAD PUSH2 0x1DC SWAP3 SWAP2 SWAP1 PUSH2 0x97B JUMP JUMPDEST PUSH1 0x40 MLOAD DUP1 SWAP2 SUB SWAP1 RETURN JUMPDEST PUSH2 0x1FF PUSH1 0x4 DUP1 CALLDATASIZE SUB DUP2 ADD SWAP1 PUSH2 0x1FA SWAP2 SWAP1 PUSH2 0x8B4 JUMP JUMPDEST PUSH2 0x63D JUMP JUMPDEST STOP JUMPDEST PUSH1 0x1 SLOAD DUP2 JUMP JUMPDEST PUSH2 0x210 DUP2 PUSH2 0x41C JUMP JUMPDEST ISZERO PUSH2 0x250 JUMPI PUSH1 0x40 MLOAD PUSH32 0x8C379A000000000000000000000000000000000000000000000000000000000 DUP2 MSTORE PUSH1 0x4 ADD PUSH2 0x247 SWAP1 PUSH2 0xA26 JUMP JUMPDEST PUSH1 0x40 MLOAD DUP1 SWAP2 SUB SWAP1 REVERT JUMPDEST PUSH1 0x40 MLOAD DUP1 PUSH1 0x40 ADD PUSH1 0x40 MSTORE DUP1 DUP3 DUP2 MSTORE PUSH1 0x20 ADD PUSH0 DUP2 MSTORE POP PUSH0 DUP3 PUSH1 0x40 MLOAD PUSH2 0x274 SWAP2 SWAP1 PUSH2 0xA7E JUMP JUMPDEST SWAP1 DUP2 MSTORE PUSH1 0x20 ADD PUSH1 0x40 MLOAD DUP1 SWAP2 SUB SWAP1 KECCAK256 PUSH0 DUP3 ADD MLOAD DUP2 PUSH0 ADD SWAP1 DUP2 PUSH2 0x295 SWAP2 SWAP1 PUSH2 0xC91 JUMP JUMPDEST POP PUSH1 0x20 DUP3 ADD MLOAD DUP2 PUSH1 0x1 ADD SSTORE SWAP1 POP POP POP JUMP JUMPDEST PUSH1 0x3 DUP1 SLOAD PUSH2 0x2B3 SWAP1 PUSH2 0xAC1 JUMP JUMPDEST DUP1 PUSH1 0x1F ADD PUSH1 0x20 DUP1 SWAP2 DIV MUL PUSH1 0x20 ADD PUSH1 0x40 MLOAD SWAP1 DUP2 ADD PUSH1 0x40 MSTORE DUP1 SWAP3 SWAP2 SWAP1 DUP2 DUP2 MSTORE PUSH1 0x20 ADD DUP3 DUP1 SLOAD PUSH2 0x2DF SWAP1 PUSH2 0xAC1 JUMP JUMPDEST DUP1 ISZERO PUSH2 0x32A JUMPI DUP1 PUSH1 0x1F LT PUSH2 0x301 JUMPI PUSH2 0x100 DUP1 DUP4 SLOAD DIV MUL DUP4 MSTORE SWAP2 PUSH1 0x20 ADD SWAP2 PUSH2 0x32A JUMP JUMPDEST DUP3 ADD SWAP2 SWAP1 PUSH0 MSTORE PUSH1 0x20 PUSH0 KECCAK256 SWAP1 JUMPDEST DUP2 SLOAD DUP2 MSTORE SWAP1 PUSH1 0x1 ADD SWAP1 PUSH1 0x20 ADD DUP1 DUP4 GT PUSH2 0x30D JUMPI DUP3 SWAP1 SUB PUSH1 0x1F AND DUP3 ADD SWAP2 JUMPDEST POP POP POP POP POP DUP2 JUMP JUMPDEST PUSH1 0x60 PUSH0 PUSH0 PUSH1 0x3 DUP1 SLOAD PUSH2 0x343 SWAP1 PUSH2 0xAC1 JUMP JUMPDEST SWAP1 POP SUB PUSH2 0x385 JUMPI PUSH1 0x40 MLOAD PUSH32 0x8C379A000000000000000000000000000000000000000000000000000000000 DUP2 MSTORE PUSH1 0x4 ADD PUSH2 0x37C SWAP1 PUSH2 0xDAA JUMP JUMPDEST PUSH1 0x40 MLOAD DUP1 SWAP2 SUB SWAP1 REVERT JUMPDEST PUSH1 0x3 PUSH1 0x2 SLOAD DUP2 DUP1 SLOAD PUSH2 0x396 SWAP1 PUSH2 0xAC1 JUMP JUMPDEST DUP1 PUSH1 0x1F ADD PUSH1 0x20 DUP1 SWAP2 DIV MUL PUSH1 0x20 ADD PUSH1 0x40 MLOAD SWAP1 DUP2 ADD PUSH1 0x40 MSTORE DUP1 SWAP3 SWAP2 SWAP1 DUP2 DUP2 MSTORE PUSH1 0x20 ADD DUP3 DUP1 SLOAD PUSH2 0x3C2 SWAP1 PUSH2 0xAC1 JUMP JUMPDEST DUP1 ISZERO PUSH2 0x40D JUMPI DUP1 PUSH1 0x1F LT PUSH2 0x3E4 JUMPI PUSH2 0x100 DUP1 DUP4 SLOAD DIV MUL DUP4 MSTORE SWAP2 PUSH1 0x20 ADD SWAP2 PUSH2 0x40D JUMP JUMPDEST DUP3 ADD SWAP2 SWAP1 PUSH0 MSTORE PUSH1 0x20 PUSH0 KECCAK256 SWAP1 JUMPDEST DUP2 SLOAD DUP2 MSTORE SWAP1 PUSH1 0x1 ADD SWAP1 PUSH1 0x20 ADD DUP1 DUP4 GT PUSH2 0x3F0 JUMPI DUP3 SWAP1 SUB PUSH1 0x1F AND DUP3 ADD SWAP2 JUMPDEST POP POP POP POP POP SWAP2 POP SWAP2 POP SWAP2 POP SWAP1 SWAP2 JUMP JUMPDEST PUSH0 PUSH0 PUSH0 DUP4 PUSH1 0x40 MLOAD PUSH2 0x42D SWAP2 SWAP1 PUSH2 0xA7E JUMP JUMPDEST SWAP1 DUP2 MSTORE PUSH1 0x20 ADD PUSH1 0x40 MLOAD DUP1 SWAP2 SUB SWAP1 KECCAK256 PUSH0 ADD DUP1 SLOAD PUSH2 0x448 SWAP1 PUSH2 0xAC1 JUMP JUMPDEST SWAP1 POP EQ ISZERO SWAP1 POP SWAP2 SWAP1 POP JUMP JUMPDEST PUSH1 0x2 SLOAD DUP2 JUMP JUMPDEST PUSH0 PUSH1 0x1 SLOAD SWAP1 POP SWAP1 JUMP JUMPDEST PUSH1 0x60 PUSH0 PUSH2 0x46E DUP4 PUSH2 0x41C JUMP JUMPDEST PUSH2 0x4AD JUMPI PUSH1 0x40 MLOAD PUSH32 0x8C379A000000000000000000000000000000000000000000000000000000000 DUP2 MSTORE PUSH1 0x4 ADD PUSH2 0x4A4 SWAP1 PUSH2 0xE12 JUMP JUMPDEST PUSH1 0x40 MLOAD DUP1 SWAP2 SUB SWAP1 REVERT JUMPDEST PUSH0 DUP4 PUSH1 0x40 MLOAD PUSH2 0x4BC SWAP2 SWAP1 PUSH2 0xA7E JUMP JUMPDEST SWAP1 DUP2 MSTORE PUSH1 0x20 ADD PUSH1 0x40 MLOAD DUP1 SWAP2 SUB SWAP1 KECCAK256 PUSH0 ADD PUSH0 DUP5 PUSH1 0x40 MLOAD PUSH2 0x4DB SWAP2 SWAP1 PUSH2 0xA7E JUMP JUMPDEST SWAP1 DUP2 MSTORE PUSH1 0x20 ADD PUSH1 0x40 MLOAD DUP1 SWAP2 SUB SWAP1 KECCAK256 PUSH1 0x1 ADD SLOAD DUP2 DUP1 SLOAD PUSH2 0x4F9 SWAP1 PUSH2 0xAC1 JUMP JUMPDEST DUP1 PUSH1 0x1F ADD PUSH1 0x20 DUP1 SWAP2 DIV MUL PUSH1 0x20 ADD PUSH1 0x40 MLOAD SWAP1 DUP2 ADD PUSH1 0x40 MSTORE DUP1 SWAP3 SWAP2 SWAP1 DUP2 DUP2 MSTORE PUSH1 0x20 ADD DUP3 DUP1 SLOAD PUSH2 0x525 SWAP1 PUSH2 0xAC1 JUMP JUMPDEST DUP1 ISZERO PUSH2 0x570 JUMPI DUP1 PUSH1 0x1F LT PUSH2 0x547 JUMPI PUSH2 0x100 DUP1 DUP4 SLOAD DIV MUL DUP4 MSTORE SWAP2 PUSH1 0x20 ADD SWAP2 PUSH2 0x570 JUMP JUMPDEST DUP3 ADD SWAP2 SWAP1 PUSH0 MSTORE PUSH1 0x20 PUSH0 KECCAK256 SWAP1 JUMPDEST DUP2 SLOAD DUP2 MSTORE SWAP1 PUSH1 0x1 ADD SWAP1 PUSH1 0x20 ADD DUP1 DUP4 GT PUSH2 0x553 JUMPI DUP3 SWAP1 SUB PUSH1 0x1F AND DUP3 ADD SWAP2 JUMPDEST POP POP POP POP POP SWAP2 POP SWAP2 POP SWAP2 POP SWAP2 POP SWAP2 JUMP JUMPDEST PUSH0 DUP2 DUP1 MLOAD PUSH1 0x20 DUP2 ADD DUP3 ADD DUP1 MLOAD DUP5 DUP3 MSTORE PUSH1 0x20 DUP4 ADD PUSH1 0x20 DUP6 ADD KECCAK256 DUP2 DUP4 MSTORE DUP1 SWAP6 POP POP POP POP POP POP PUSH0 SWAP2 POP SWAP1 POP DUP1 PUSH0 ADD DUP1 SLOAD PUSH2 0x5B6 SWAP1 PUSH2 0xAC1 JUMP JUMPDEST DUP1 PUSH1 0x1F ADD PUSH1 0x20 DUP1 SWAP2 DIV MUL PUSH1 0x20 ADD PUSH1 0x40 MLOAD SWAP1 DUP2 ADD PUSH1 0x40 MSTORE DUP1 SWAP3 SWAP2 SWAP1 DUP2 DUP2 MSTORE PUSH1 0x20 ADD DUP3 DUP1 SLOAD PUSH2 0x5E2 SWAP1 PUSH2 0xAC1 JUMP JUMPDEST DUP1 ISZERO PUSH2 0x62D JUMPI DUP1 PUSH1 0x1F LT PUSH2 0x604 JUMPI PUSH2 0x100 DUP1 DUP4 SLOAD DIV MUL DUP4 MSTORE SWAP2 PUSH1 0x20 ADD SWAP2 PUSH2 0x62D JUMP JUMPDEST DUP3 ADD SWAP2 SWAP1 PUSH0 MSTORE PUSH1 0x20 PUSH0 KECCAK256 SWAP1 JUMPDEST DUP2 SLOAD DUP2 MSTORE SWAP1 PUSH1 0x1 ADD SWAP1 PUSH1 0x20 ADD DUP1 DUP4 GT PUSH2 0x610 JUMPI DUP3 SWAP1 SUB PUSH1 0x1F AND DUP3 ADD SWAP2 JUMPDEST POP POP POP POP POP SWAP1 DUP1 PUSH1 0x1 ADD SLOAD SWAP1 POP DUP3 JUMP JUMPDEST PUSH2 0x646 DUP2 PUSH2 0x41C JUMP JUMPDEST PUSH2 0x685 JUMPI PUSH1 0x40 MLOAD PUSH32 0x8C379A000000000000000000000000000000000000000000000000000000000 DUP2 MSTORE PUSH1 0x4 ADD PUSH2 0x67C SWAP1 PUSH2 0xE12 JUMP JUMPDEST PUSH1 0x40 MLOAD DUP1 SWAP2 SUB SWAP1 REVERT JUMPDEST PUSH0 DUP2 PUSH1 0x40 MLOAD PUSH2 0x694 SWAP2 SWAP1 PUSH2 0xA7E JUMP JUMPDEST SWAP1 DUP2 MSTORE PUSH1 0x20 ADD PUSH1 0x40 MLOAD DUP1 SWAP2 SUB SWAP1 KECCAK256 PUSH1 0x1 ADD PUSH0 DUP2 SLOAD DUP1 SWAP3 SWAP2 SWAP1 PUSH2 0x6B5 SWAP1 PUSH2 0xE5D JUMP JUMPDEST SWAP2 SWAP1 POP SSTORE POP PUSH1 0x1 PUSH0 DUP2 SLOAD DUP1 SWAP3 SWAP2 SWAP1 PUSH2 0x6CC SWAP1 PUSH2 0xE5D JUMP JUMPDEST SWAP2 SWAP1 POP SSTORE POP PUSH1 0x2 SLOAD PUSH0 DUP3 PUSH1 0x40 MLOAD PUSH2 0x6E3 SWAP2 SWAP1 PUSH2 0xA7E JUMP JUMPDEST SWAP1 DUP2 MSTORE PUSH1 0x20 ADD PUSH1 0x40 MLOAD DUP1 SWAP2 SUB SWAP1 KECCAK256 PUSH1 0x1 ADD SLOAD GT ISZERO PUSH2 0x733 JUMPI PUSH0 DUP2 PUSH1 0x40 MLOAD PUSH2 0x70A SWAP2 SWAP1 PUSH2 0xA7E JUMP JUMPDEST SWAP1 DUP2 MSTORE PUSH1 0x20 ADD PUSH1 0x40 MLOAD DUP1 SWAP2 SUB SWAP1 KECCAK256 PUSH1 0x1 ADD SLOAD PUSH1 0x2 DUP2 SWAP1 SSTORE POP DUP1 PUSH1 0x3 SWAP1 DUP2 PUSH2 0x731 SWAP2 SWAP1 PUSH2 0xC91 JUMP JUMPDEST POP JUMPDEST POP JUMP JUMPDEST PUSH0 DUP2 SWAP1 POP SWAP2 SWAP1 POP JUMP JUMPDEST PUSH2 0x748 DUP2 PUSH2 0x736 JUMP JUMPDEST DUP3 MSTORE POP POP JUMP JUMPDEST PUSH0 PUSH1 0x20 DUP3 ADD SWAP1 POP PUSH2 0x761 PUSH0 DUP4 ADD DUP5 PUSH2 0x73F JUMP JUMPDEST SWAP3 SWAP2 POP POP JUMP JUMPDEST PUSH0 PUSH1 0x40 MLOAD SWAP1 POP SWAP1 JUMP JUMPDEST PUSH0 PUSH0 REVERT JUMPDEST PUSH0 PUSH0 REVERT JUMPDEST PUSH0 PUSH0 REVERT JUMPDEST PUSH0 PUSH0 REVERT JUMPDEST PUSH0 PUSH1 0x1F NOT PUSH1 0x1F DUP4 ADD AND SWAP1 POP SWAP2 SWAP1 POP JUMP JUMPDEST PUSH32 0x4E487B7100000000000000000000000000000000000000000000000000000000 PUSH0 MSTORE PUSH1 0x41 PUSH1 0x4 MSTORE PUSH1 0x24 PUSH0 REVERT JUMPDEST PUSH2 0x7C6 DUP3 PUSH2 0x780 JUMP JUMPDEST DUP2 ADD DUP2 DUP2 LT PUSH8 0xFFFFFFFFFFFFFFFF DUP3 GT OR ISZERO PUSH2 0x7E5 JUMPI PUSH2 0x7E4 PUSH2 0x790 JUMP JUMPDEST JUMPDEST DUP1 PUSH1 0x40 MSTORE POP POP POP JUMP JUMPDEST PUSH0 PUSH2 0x7F7 PUSH2 0x767 JUMP JUMPDEST SWAP1 POP PUSH2 0x803 DUP3 DUP3 PUSH2 0x7BD JUMP JUMPDEST SWAP2 SWAP1 POP JUMP JUMPDEST PUSH0 PUSH8 0xFFFFFFFFFFFFFFFF DUP3 GT ISZERO PUSH2 0x822 JUMPI PUSH2 0x821 PUSH2 0x790 JUMP JUMPDEST JUMPDEST PUSH2 0x82B DUP3 PUSH2 0x780 JUMP JUMPDEST SWAP1 POP PUSH1 0x20 DUP2 ADD SWAP1 POP SWAP2 SWAP1 POP JUMP JUMPDEST DUP3 DUP2 DUP4 CALLDATACOPY PUSH0 DUP4 DUP4 ADD MSTORE POP POP POP JUMP JUMPDEST PUSH0 PUSH2 0x858 PUSH2 0x853 DUP5 PUSH2 0x808 JUMP JUMPDEST PUSH2 0x7EE JUMP JUMPDEST SWAP1 POP DUP3 DUP2 MSTORE PUSH1 0x20 DUP2 ADD DUP5 DUP5 DUP5 ADD GT ISZERO PUSH2 0x874 JUMPI PUSH2 0x873 PUSH2 0x77C JUMP JUMPDEST JUMPDEST PUSH2 0x87F DUP5 DUP3 DUP6 PUSH2 0x838 JUMP JUMPDEST POP SWAP4 SWAP3 POP POP POP JUMP JUMPDEST PUSH0 DUP3 PUSH1 0x1F DUP4 ADD SLT PUSH2 0x89B JUMPI PUSH2 0x89A PUSH2 0x778 JUMP JUMPDEST JUMPDEST DUP2 CALLDATALOAD PUSH2 0x8AB DUP5 DUP3 PUSH1 0x20 DUP7 ADD PUSH2 0x846 JUMP JUMPDEST SWAP2 POP POP SWAP3 SWAP2 POP POP JUMP JUMPDEST PUSH0 PUSH1 0x20 DUP3 DUP5 SUB SLT ISZERO PUSH2 0x8C9 JUMPI PUSH2 0x8C8 PUSH2 0x770 JUMP JUMPDEST JUMPDEST PUSH0 DUP3 ADD CALLDATALOAD PUSH8 0xFFFFFFFFFFFFFFFF DUP2 GT ISZERO PUSH2 0x8E6 JUMPI PUSH2 0x8E5 PUSH2 0x774 JUMP JUMPDEST JUMPDEST PUSH2 0x8F2 DUP5 DUP3 DUP6 ADD PUSH2 0x887 JUMP JUMPDEST SWAP2 POP POP SWAP3 SWAP2 POP POP JUMP JUMPDEST PUSH0 DUP2 MLOAD SWAP1 POP SWAP2 SWAP1 POP JUMP JUMPDEST PUSH0 DUP3 DUP3 MSTORE PUSH1 0x20 DUP3 ADD SWAP1 POP SWAP3 SWAP2 POP POP JUMP JUMPDEST DUP3 DUP2 DUP4 MCOPY PUSH0 DUP4 DUP4 ADD MSTORE POP POP POP JUMP JUMPDEST PUSH0 PUSH2 0x92D DUP3 PUSH2 0x8FB JUMP JUMPDEST PUSH2 0x937 DUP2 DUP6 PUSH2 0x905 JUMP JUMPDEST SWAP4 POP PUSH2 0x947 DUP2 DUP6 PUSH1 0x20 DUP7 ADD PUSH2 0x915 JUMP JUMPDEST PUSH2 0x950 DUP2 PUSH2 0x780 JUMP JUMPDEST DUP5 ADD SWAP2 POP POP SWAP3 SWAP2 POP POP JUMP JUMPDEST PUSH0 PUSH1 0x20 DUP3 ADD SWAP1 POP DUP2 DUP2 SUB PUSH0 DUP4 ADD MSTORE PUSH2 0x973 DUP2 DUP5 PUSH2 0x923 JUMP JUMPDEST SWAP1 POP SWAP3 SWAP2 POP POP JUMP JUMPDEST PUSH0 PUSH1 0x40 DUP3 ADD SWAP1 POP DUP2 DUP2 SUB PUSH0 DUP4 ADD MSTORE PUSH2 0x993 DUP2 DUP6 PUSH2 0x923 JUMP JUMPDEST SWAP1 POP PUSH2 0x9A2 PUSH1 0x20 DUP4 ADD DUP5 PUSH2 0x73F JUMP JUMPDEST SWAP4 SWAP3 POP POP POP JUMP JUMPDEST PUSH0 DUP2 ISZERO ISZERO SWAP1 POP SWAP2 SWAP1 POP JUMP JUMPDEST PUSH2 0x9BD DUP2 PUSH2 0x9A9 JUMP JUMPDEST DUP3 MSTORE POP POP JUMP JUMPDEST PUSH0 PUSH1 0x20 DUP3 ADD SWAP1 POP PUSH2 0x9D6 PUSH0 DUP4 ADD DUP5 PUSH2 0x9B4 JUMP JUMPDEST SWAP3 SWAP2 POP POP JUMP JUMPDEST PUSH32 0x43616E64696461746520616C7265616479206578697374730000000000000000 PUSH0 DUP3 ADD MSTORE POP JUMP JUMPDEST PUSH0 PUSH2 0xA10 PUSH1 0x18 DUP4 PUSH2 0x905 JUMP JUMPDEST SWAP2 POP PUSH2 0xA1B DUP3 PUSH2 0x9DC JUMP JUMPDEST PUSH1 0x20 DUP3 ADD SWAP1 POP SWAP2 SWAP1 POP JUMP JUMPDEST PUSH0 PUSH1 0x20 DUP3 ADD SWAP1 POP DUP2 DUP2 SUB PUSH0 DUP4 ADD MSTORE PUSH2 0xA3D DUP2 PUSH2 0xA04 JUMP JUMPDEST SWAP1 POP SWAP2 SWAP1 POP JUMP JUMPDEST PUSH0 DUP2 SWAP1 POP SWAP3 SWAP2 POP POP JUMP JUMPDEST PUSH0 PUSH2 0xA58 DUP3 PUSH2 0x8FB JUMP JUMPDEST PUSH2 0xA62 DUP2 DUP6 PUSH2 0xA44 JUMP JUMPDEST SWAP4 POP PUSH2 0xA72 DUP2 DUP6 PUSH1 0x20 DUP7 ADD PUSH2 0x915 JUMP JUMPDEST DUP1 DUP5 ADD SWAP2 POP POP SWAP3 SWAP2 POP POP JUMP JUMPDEST PUSH0 PUSH2 0xA89 DUP3 DUP5 PUSH2 0xA4E JUMP JUMPDEST SWAP2 POP DUP2 SWAP1 POP SWAP3 SWAP2 POP POP JUMP JUMPDEST PUSH32 0x4E487B7100000000000000000000000000000000000000000000000000000000 PUSH0 MSTORE PUSH1 0x22 PUSH1 0x4 MSTORE PUSH1 0x24 PUSH0 REVERT JUMPDEST PUSH0 PUSH1 0x2 DUP3 DIV SWAP1 POP PUSH1 0x1 DUP3 AND DUP1 PUSH2 0xAD8 JUMPI PUSH1 0x7F DUP3 AND SWAP2 POP JUMPDEST PUSH1 0x20 DUP3 LT DUP2 SUB PUSH2 0xAEB JUMPI PUSH2 0xAEA PUSH2 0xA94 JUMP JUMPDEST JUMPDEST POP SWAP2 SWAP1 POP JUMP JUMPDEST PUSH0 DUP2 SWAP1 POP DUP2 PUSH0 MSTORE PUSH1 0x20 PUSH0 KECCAK256 SWAP1 POP SWAP2 SWAP1 POP JUMP JUMPDEST PUSH0 PUSH1 0x20 PUSH1 0x1F DUP4 ADD DIV SWAP1 POP SWAP2 SWAP1 POP JUMP JUMPDEST PUSH0 DUP3 DUP3 SHL SWAP1 POP SWAP3 SWAP2 POP POP JUMP JUMPDEST PUSH0 PUSH1 0x8 DUP4 MUL PUSH2 0xB4D PUSH32 0xFFFFFFFFFFFFFFFFFFFFFFFFFFFFFFFFFFFFFFFFFFFFFFFFFFFFFFFFFFFFFFFF DUP3 PUSH2 0xB12 JUMP JUMPDEST PUSH2 0xB57 DUP7 DUP4 PUSH2 0xB12 JUMP JUMPDEST SWAP6 POP DUP1 NOT DUP5 AND SWAP4 POP DUP1 DUP7 AND DUP5 OR SWAP3 POP POP POP SWAP4 SWAP3 POP POP POP JUMP JUMPDEST PUSH0 DUP2 SWAP1 POP SWAP2 SWAP1 POP JUMP JUMPDEST PUSH0 PUSH2 0xB92 PUSH2 0xB8D PUSH2 0xB88 DUP5 PUSH2 0x736 JUMP JUMPDEST PUSH2 0xB6F JUMP JUMPDEST PUSH2 0x736 JUMP JUMPDEST SWAP1 POP SWAP2 SWAP1 POP JUMP JUMPDEST PUSH0 DUP2 SWAP1 POP SWAP2 SWAP1 POP JUMP JUMPDEST PUSH2 0xBAB DUP4 PUSH2 0xB78 JUMP JUMPDEST PUSH2 0xBBF PUSH2 0xBB7 DUP3 PUSH2 0xB99 JUMP JUMPDEST DUP5 DUP5 SLOAD PUSH2 0xB1E JUMP JUMPDEST DUP3 SSTORE POP POP POP POP JUMP JUMPDEST PUSH0 PUSH0 SWAP1 POP SWAP1 JUMP JUMPDEST PUSH2 0xBD6 PUSH2 0xBC7 JUMP JUMPDEST PUSH2 0xBE1 DUP2 DUP5 DUP5 PUSH2 0xBA2 JUMP JUMPDEST POP POP POP JUMP JUMPDEST JUMPDEST DUP2 DUP2 LT ISZERO PUSH2 0xC04 JUMPI PUSH2 0xBF9 PUSH0 DUP3 PUSH2 0xBCE JUMP JUMPDEST PUSH1 0x1 DUP2 ADD SWAP1 POP PUSH2 0xBE7 JUMP JUMPDEST POP POP JUMP JUMPDEST PUSH1 0x1F DUP3 GT ISZERO PUSH2 0xC49 JUMPI PUSH2 0xC1A DUP2 PUSH2 0xAF1 JUMP JUMPDEST PUSH2 0xC23 DUP5 PUSH2 0xB03 JUMP JUMPDEST DUP2 ADD PUSH1 0x20 DUP6 LT ISZERO PUSH2 0xC32 JUMPI DUP2 SWAP1 POP JUMPDEST PUSH2 0xC46 PUSH2 0xC3E DUP6 PUSH2 0xB03 JUMP JUMPDEST DUP4 ADD DUP3 PUSH2 0xBE6 JUMP JUMPDEST POP POP JUMPDEST POP POP POP JUMP JUMPDEST PUSH0 DUP3 DUP3 SHR SWAP1 POP SWAP3 SWAP2 POP POP JUMP JUMPDEST PUSH0 PUSH2 0xC69 PUSH0 NOT DUP5 PUSH1 0x8 MUL PUSH2 0xC4E JUMP JUMPDEST NOT DUP1 DUP4 AND SWAP2 POP POP SWAP3 SWAP2 POP POP JUMP JUMPDEST PUSH0 PUSH2 0xC81 DUP4 DUP4 PUSH2 0xC5A JUMP JUMPDEST SWAP2 POP DUP3 PUSH1 0x2 MUL DUP3 OR SWAP1 POP SWAP3 SWAP2 POP POP JUMP JUMPDEST PUSH2 0xC9A DUP3 PUSH2 0x8FB JUMP JUMPDEST PUSH8 0xFFFFFFFFFFFFFFFF DUP2 GT ISZERO PUSH2 0xCB3 JUMPI PUSH2 0xCB2 PUSH2 0x790 JUMP JUMPDEST JUMPDEST PUSH2 0xCBD DUP3 SLOAD PUSH2 0xAC1 JUMP JUMPDEST PUSH2 0xCC8 DUP3 DUP3 DUP6 PUSH2 0xC08 JUMP JUMPDEST PUSH0 PUSH1 0x20 SWAP1 POP PUSH1 0x1F DUP4 GT PUSH1 0x1 DUP2 EQ PUSH2 0xCF9 JUMPI PUSH0 DUP5 ISZERO PUSH2 0xCE7 JUMPI DUP3 DUP8 ADD MLOAD SWAP1 POP JUMPDEST PUSH2 0xCF1 DUP6 DUP3 PUSH2 0xC76 JUMP JUMPDEST DUP7 SSTORE POP PUSH2 0xD58 JUMP JUMPDEST PUSH1 0x1F NOT DUP5 AND PUSH2 0xD07 DUP7 PUSH2 0xAF1 JUMP JUMPDEST PUSH0 JUMPDEST DUP3 DUP2 LT ISZERO PUSH2 0xD2E JUMPI DUP5 DUP10 ADD MLOAD DUP3 SSTORE PUSH1 0x1 DUP3 ADD SWAP2 POP PUSH1 0x20 DUP6 ADD SWAP5 POP PUSH1 0x20 DUP2 ADD SWAP1 POP PUSH2 0xD09 JUMP JUMPDEST DUP7 DUP4 LT ISZERO PUSH2 0xD4B JUMPI DUP5 DUP10 ADD MLOAD PUSH2 0xD47 PUSH1 0x1F DUP10 AND DUP3 PUSH2 0xC5A JUMP JUMPDEST DUP4 SSTORE POP JUMPDEST PUSH1 0x1 PUSH1 0x2 DUP9 MUL ADD DUP9 SSTORE POP POP POP JUMPDEST POP POP POP POP POP POP JUMP JUMPDEST PUSH32 0x4E6F20766F746573207965740000000000000000000000000000000000000000 PUSH0 DUP3 ADD MSTORE POP JUMP JUMPDEST PUSH0 PUSH2 0xD94 PUSH1 0xC DUP4 PUSH2 0x905 JUMP JUMPDEST SWAP2 POP PUSH2 0xD9F DUP3 PUSH2 0xD60 JUMP JUMPDEST PUSH1 0x20 DUP3 ADD SWAP1 POP SWAP2 SWAP1 POP JUMP JUMPDEST PUSH0 PUSH1 0x20 DUP3 ADD SWAP1 POP DUP2 DUP2 SUB PUSH0 DUP4 ADD MSTORE PUSH2 0xDC1 DUP2 PUSH2 0xD88 JUMP JUMPDEST SWAP1 POP SWAP2 SWAP1 POP JUMP JUMPDEST PUSH32 0x43616E64696461746520646F6573206E6F742065786973740000000000000000 PUSH0 DUP3 ADD MSTORE POP JUMP JUMPDEST PUSH0 PUSH2 0xDFC PUSH1 0x18 DUP4 PUSH2 0x905 JUMP JUMPDEST SWAP2 POP PUSH2 0xE07 DUP3 PUSH2 0xDC8 JUMP JUMPDEST PUSH1 0x20 DUP3 ADD SWAP1 POP SWAP2 SWAP1 POP JUMP JUMPDEST PUSH0 PUSH1 0x20 DUP3 ADD SWAP1 POP DUP2 DUP2 SUB PUSH0 DUP4 ADD MSTORE PUSH2 0xE29 DUP2 PUSH2 0xDF0 JUMP JUMPDEST SWAP1 POP SWAP2 SWAP1 POP JUMP JUMPDEST PUSH32 0x4E487B7100000000000000000000000000000000000000000000000000000000 PUSH0 MSTORE PUSH1 0x11 PUSH1 0x4 MSTORE PUSH1 0x24 PUSH0 REVERT JUMPDEST PUSH0 PUSH2 0xE67 DUP3 PUSH2 0x736 JUMP JUMPDEST SWAP2 POP PUSH32 0xFFFFFFFFFFFFFFFFFFFFFFFFFFFFFFFFFFFFFFFFFFFFFFFFFFFFFFFFFFFFFFFF DUP3 SUB PUSH2 0xE99 JUMPI PUSH2 0xE98 PUSH2 0xE30 JUMP JUMPDEST JUMPDEST PUSH1 0x1 DUP3 ADD SWAP1 POP SWAP2 SWAP1 POP JUMP INVALID LOG2 PUSH5 0x6970667358 0x22 SLT KECCAK256 0xB0 SWAP9 SWAP12 0x4D PUSH12 0x361EAC223B1A9AB85293AA65 0xBB MLOAD 0x4F 0xC2 POP DUP9 0xD EQ PUSH2 0xEFAF 0xB7 DATALOADN 0xC24F PUSH5 0x736F6C6343 STOP ADDMOD 0x1E STOP CALLER "
		},
		"gasEstimates": {
			"creation": {
				"codeDepositCost": "760400",
				"executionCost": "5795",
				"totalCost": "766195"
			},
			"external": {
				"addCandidate(string)": "infinite",
				"candidates(string)": "infinite",
				"getCandidateInfo(string)": "infinite",
				"getMaxValue()": "infinite",
				"getTotalVotes()": "2454",
				"isCandidateExist(string)": "infinite",
				"maxValue()": "2425",
				"nameTop()": "infinite",
				"totalVotes()": "2426",
				"vote(string)": "infinite"
			}
		},
		"methodIdentifiers": {
			"addCandidate(string)": "462e91ec",
			"candidates(string)": "c5539cc2",
			"getCandidateInfo(string)": "b61add9a",
			"getMaxValue()": "4c9eb4d4",
			"getTotalVotes()": "9a0e7d66",
			"isCandidateExist(string)": "7e797dee",
			"maxValue()": "94a5c2e4",
			"nameTop()": "4c162f2a",
			"totalVotes()": "0d15fd77",
			"vote(string)": "fc36e15b"
		}
	},
	"abi": [
		{
			"inputs": [
				{
					"internalType": "string",
					"name": "_name",
					"type": "string"
				}
			],
			"name": "addCandidate",
			"outputs": [],
			"stateMutability": "nonpayable",
			"type": "function"
		},
		{
			"inputs": [
				{
					"internalType": "string",
					"name": "",
					"type": "string"
				}
			],
			"name": "candidates",
			"outputs": [
				{
					"internalType": "string",
					"name": "name",
					"type": "string"
				},
				{
					"internalType": "uint256",
					"name": "voteCount",
					"type": "uint256"
				}
			],
			"stateMutability": "view",
			"type": "function"
		},
		{
			"inputs": [
				{
					"internalType": "string",
					"name": "_name",
					"type": "string"
				}
			],
			"name": "getCandidateInfo",
			"outputs": [
				{
					"internalType": "string",
					"name": "",
					"type": "string"
				},
				{
					"internalType": "uint256",
					"name": "",
					"type": "uint256"
				}
			],
			"stateMutability": "view",
			"type": "function"
		},
		{
			"inputs": [],
			"name": "getMaxValue",
			"outputs": [
				{
					"internalType": "string",
					"name": "",
					"type": "string"
				},
				{
					"internalType": "uint256",
					"name": "",
					"type": "uint256"
				}
			],
			"stateMutability": "view",
			"type": "function"
		},
		{
			"inputs": [],
			"name": "getTotalVotes",
			"outputs": [
				{
					"internalType": "uint256",
					"name": "",
					"type": "uint256"
				}
			],
			"stateMutability": "view",
			"type": "function"
		},
		{
			"inputs": [
				{
					"internalType": "string",
					"name": "_name",
					"type": "string"
				}
			],
			"name": "isCandidateExist",
			"outputs": [
				{
					"internalType": "bool",
					"name": "",
					"type": "bool"
				}
			],
			"stateMutability": "view",
			"type": "function"
		},
		{
			"inputs": [],
			"name": "maxValue",
			"outputs": [
				{
					"internalType": "uint256",
					"name": "",
					"type": "uint256"
				}
			],
			"stateMutability": "view",
			"type": "function"
		},
		{
			"inputs": [],
			"name": "nameTop",
			"outputs": [
				{
					"internalType": "string",
					"name": "",
					"type": "string"
				}
			],
			"stateMutability": "view",
			"type": "function"
		},
		{
			"inputs": [],
			"name": "totalVotes",
			"outputs": [
				{
					"internalType": "uint256",
					"name": "",
					"type": "uint256"
				}
			],
			"stateMutability": "view",
			"type": "function"
		},
		{
			"inputs": [
				{
					"internalType": "string",
					"name": "_name",
					"type": "string"
				}
			],
			"name": "vote",
			"outputs": [],
			"stateMutability": "nonpayable",
			"type": "function"
		}
	]
}