{
	"data": {
		"bytecode": {
			"linkReferences": {},
			"object": "60806040525f60015f6101000a81548160ff021916908360ff160217905550348015610029575f5ffd5b50604051611803380380611803833981810160405281019061004b91906100ef565b806001806101000a81548173ffffffffffffffffffffffffffffffffffffffff021916908373ffffffffffffffffffffffffffffffffffffffff1602179055505061011a565b5f5ffd5b5f73ffffffffffffffffffffffffffffffffffffffff82169050919050565b5f6100be82610095565b9050919050565b6100ce816100b4565b81146100d8575f5ffd5b50565b5f815190506100e9816100c5565b92915050565b5f6020828403121561010457610103610091565b5b5f610111848285016100db565b91505092915050565b6116dc806101275f395ff3fe608060405234801561000f575f5ffd5b5060043610610091575f3560e01c8063531d37a711610064578063531d37a71461011f5780636ed6da9e1461013b57806386194c191461016b578063b4a3a1621461019b578063b5cb15f7146101b957610091565b806307973ccf1461009557806321508169146100b3578063218bff1a146100cf578063365b98b2146100eb575b5f5ffd5b61009d6101d7565b6040516100aa9190610c29565b60405180910390f35b6100cd60048036038101906100c89190610dc2565b6101e9565b005b6100e960048036038101906100e49190610dc2565b610323565b005b61010560048036038101906101009190610e1c565b610460565b604051610116959493929190610f0f565b60405180910390f35b61013960048036038101906101349190610f6e565b6105c9565b005b61015560048036038101906101509190610e1c565b610872565b60405161016291906110e5565b60405180910390f35b61018560048036038101906101809190610e1c565b610a35565b6040516101929190611105565b60405180910390f35b6101a3610b39565b6040516101b09190611180565b60405180910390f35b6101c1610b5d565b6040516101ce9190610c29565b60405180910390f35b60015f9054906101000a900460ff1681565b600115155f5f8481526020019081526020015f2060030160149054906101000a900460ff16151514610250576040517f08c379a0000000000000000000000000000000000000000000000000000000008152600401610247906111e3565b60405180910390fd5b5f5f8381526020019081526020015f206002015f61026e9190610b72565b5f5f5f8481526020019081526020015f2060030160146101000a81548160ff02191690831515021790555060018054906101000a900473ffffffffffffffffffffffffffffffffffffffff1673ffffffffffffffffffffffffffffffffffffffff16638cbef3f1826040518263ffffffff1660e01b81526004016102f29190611105565b5f604051808303815f87803b158015610309575f5ffd5b505af115801561031b573d5f5f3e3d5ffd5b505050505050565b5f15155f5f8481526020019081526020015f2060030160149054906101000a900460ff16151514610389576040517f08c379a00000000000000000000000000000000000000000000000000000000081526004016103809061124b565b60405180910390fd5b60015f5f8481526020019081526020015f2060030160146101000a81548160ff021916908315150217905550805f5f8481526020019081526020015f2060020190816103d5919061145d565b5060018054906101000a900473ffffffffffffffffffffffffffffffffffffffff1673ffffffffffffffffffffffffffffffffffffffff1663fc36e15b826040518263ffffffff1660e01b815260040161042f9190611105565b5f604051808303815f87803b158015610446575f5ffd5b505af1158015610458573d5f5f3e3d5ffd5b505050505050565b5f602052805f5260405f205f91509050805f01549080600101805461048490611296565b80601f01602080910402602001604051908101604052809291908181526020018280546104b090611296565b80156104fb5780601f106104d2576101008083540402835291602001916104fb565b820191905f5260205f20905b8154815290600101906020018083116104de57829003601f168201915b50505050509080600201805461051090611296565b80601f016020809104026020016040519081016040528092919081815260200182805461053c90611296565b80156105875780601f1061055e57610100808354040283529160200191610587565b820191905f5260205f20905b81548152906001019060200180831161056a57829003601f168201915b505050505090806003015f9054906101000a900473ffffffffffffffffffffffffffffffffffffffff16908060030160149054906101000a900460ff16905085565b5f73ffffffffffffffffffffffffffffffffffffffff165f5f8581526020019081526020015f206003015f9054906101000a900473ffffffffffffffffffffffffffffffffffffffff1673ffffffffffffffffffffffffffffffffffffffff1614610669576040517f08c379a000000000000000000000000000000000000000000000000000000000815260040161066090611576565b60405180910390fd5b60018054906101000a900473ffffffffffffffffffffffffffffffffffffffff1673ffffffffffffffffffffffffffffffffffffffff166385453ea7826040518263ffffffff1660e01b81526004016106c29190611105565b602060405180830381865afa1580156106dd573d5f5f3e3d5ffd5b505050506040513d601f19601f8201168201806040525081019061070191906115be565b610740576040517f08c379a000000000000000000000000000000000000000000000000000000000815260040161073790611633565b60405180910390fd5b6040518060a001604052808481526020018381526020018281526020013373ffffffffffffffffffffffffffffffffffffffff1681526020015f15158152505f5f8581526020019081526020015f205f820151815f015560208201518160010190816107ac919061145d565b5060408201518160020190816107c2919061145d565b506060820151816003015f6101000a81548173ffffffffffffffffffffffffffffffffffffffff021916908373ffffffffffffffffffffffffffffffffffffffff16021790555060808201518160030160146101000a81548160ff0219169083151502179055509050506108368382610323565b60015f81819054906101000a900460ff16809291906108549061167e565b91906101000a81548160ff021916908360ff16021790555050505050565b61087a610baf565b5f5f8381526020019081526020015f206040518060a00160405290815f82015481526020016001820180546108ae90611296565b80601f01602080910402602001604051908101604052809291908181526020018280546108da90611296565b80156109255780601f106108fc57610100808354040283529160200191610925565b820191905f5260205f20905b81548152906001019060200180831161090857829003601f168201915b5050505050815260200160028201805461093e90611296565b80601f016020809104026020016040519081016040528092919081815260200182805461096a90611296565b80156109b55780601f1061098c576101008083540402835291602001916109b5565b820191905f5260205f20905b81548152906001019060200180831161099857829003601f168201915b50505050508152602001600382015f9054906101000a900473ffffffffffffffffffffffffffffffffffffffff1673ffffffffffffffffffffffffffffffffffffffff1673ffffffffffffffffffffffffffffffffffffffff1681526020016003820160149054906101000a900460ff1615151515815250509050919050565b60605f5f5f8481526020019081526020015f206002018054610a5690611296565b905003610a98576040517f08c379a0000000000000000000000000000000000000000000000000000000008152600401610a8f906111e3565b60405180910390fd5b5f5f8381526020019081526020015f206002018054610ab690611296565b80601f0160208091040260200160405190810160405280929190818152602001828054610ae290611296565b8015610b2d5780601f10610b0457610100808354040283529160200191610b2d565b820191905f5260205f20905b815481529060010190602001808311610b1057829003601f168201915b50505050509050919050565b60018054906101000a900473ffffffffffffffffffffffffffffffffffffffff1681565b5f60015f9054906101000a900460ff16905090565b508054610b7e90611296565b5f825580601f10610b8f5750610bac565b601f0160209004905f5260205f2090810190610bab9190610bf3565b5b50565b6040518060a001604052805f815260200160608152602001606081526020015f73ffffffffffffffffffffffffffffffffffffffff1681526020015f151581525090565b5b80821115610c0a575f815f905550600101610bf4565b5090565b5f60ff82169050919050565b610c2381610c0e565b82525050565b5f602082019050610c3c5f830184610c1a565b92915050565b5f604051905090565b5f5ffd5b5f5ffd5b5f819050919050565b610c6581610c53565b8114610c6f575f5ffd5b50565b5f81359050610c8081610c5c565b92915050565b5f5ffd5b5f5ffd5b5f601f19601f8301169050919050565b7f4e487b71000000000000000000000000000000000000000000000000000000005f52604160045260245ffd5b610cd482610c8e565b810181811067ffffffffffffffff82111715610cf357610cf2610c9e565b5b80604052505050565b5f610d05610c42565b9050610d118282610ccb565b919050565b5f67ffffffffffffffff821115610d3057610d2f610c9e565b5b610d3982610c8e565b9050602081019050919050565b828183375f83830152505050565b5f610d66610d6184610d16565b610cfc565b905082815260208101848484011115610d8257610d81610c8a565b5b610d8d848285610d46565b509392505050565b5f82601f830112610da957610da8610c86565b5b8135610db9848260208601610d54565b91505092915050565b5f5f60408385031215610dd857610dd7610c4b565b5b5f610de585828601610c72565b925050602083013567ffffffffffffffff811115610e0657610e05610c4f565b5b610e1285828601610d95565b9150509250929050565b5f60208284031215610e3157610e30610c4b565b5b5f610e3e84828501610c72565b91505092915050565b610e5081610c53565b82525050565b5f81519050919050565b5f82825260208201905092915050565b8281835e5f83830152505050565b5f610e8882610e56565b610e928185610e60565b9350610ea2818560208601610e70565b610eab81610c8e565b840191505092915050565b5f73ffffffffffffffffffffffffffffffffffffffff82169050919050565b5f610edf82610eb6565b9050919050565b610eef81610ed5565b82525050565b5f8115159050919050565b610f0981610ef5565b82525050565b5f60a082019050610f225f830188610e47565b8181036020830152610f348187610e7e565b90508181036040830152610f488186610e7e565b9050610f576060830185610ee6565b610f646080830184610f00565b9695505050505050565b5f5f5f60608486031215610f8557610f84610c4b565b5b5f610f9286828701610c72565b935050602084013567ffffffffffffffff811115610fb357610fb2610c4f565b5b610fbf86828701610d95565b925050604084013567ffffffffffffffff811115610fe057610fdf610c4f565b5b610fec86828701610d95565b9150509250925092565b610fff81610c53565b82525050565b5f82825260208201905092915050565b5f61101f82610e56565b6110298185611005565b9350611039818560208601610e70565b61104281610c8e565b840191505092915050565b61105681610ed5565b82525050565b61106581610ef5565b82525050565b5f60a083015f8301516110805f860182610ff6565b50602083015184820360208601526110988282611015565b915050604083015184820360408601526110b28282611015565b91505060608301516110c7606086018261104d565b5060808301516110da608086018261105c565b508091505092915050565b5f6020820190508181035f8301526110fd818461106b565b905092915050565b5f6020820190508181035f83015261111d8184610e7e565b905092915050565b5f819050919050565b5f61114861114361113e84610eb6565b611125565b610eb6565b9050919050565b5f6111598261112e565b9050919050565b5f61116a8261114f565b9050919050565b61117a81611160565b82525050565b5f6020820190506111935f830184611171565b92915050565b7f5573657220686173206e6f7420766f74656420796574000000000000000000005f82015250565b5f6111cd601683610e60565b91506111d882611199565b602082019050919050565b5f6020820190508181035f8301526111fa816111c1565b9050919050565b7f557365722068617320766f7465640000000000000000000000000000000000005f82015250565b5f611235600e83610e60565b915061124082611201565b602082019050919050565b5f6020820190508181035f83015261126281611229565b9050919050565b7f4e487b71000000000000000000000000000000000000000000000000000000005f52602260045260245ffd5b5f60028204905060018216806112ad57607f821691505b6020821081036112c0576112bf611269565b5b50919050565b5f819050815f5260205f209050919050565b5f6020601f8301049050919050565b5f82821b905092915050565b5f600883026113227fffffffffffffffffffffffffffffffffffffffffffffffffffffffffffffffff826112e7565b61132c86836112e7565b95508019841693508086168417925050509392505050565b5f61135e61135961135484610c53565b611125565b610c53565b9050919050565b5f819050919050565b61137783611344565b61138b61138382611365565b8484546112f3565b825550505050565b5f5f905090565b6113a2611393565b6113ad81848461136e565b505050565b5b818110156113d0576113c55f8261139a565b6001810190506113b3565b5050565b601f821115611415576113e6816112c6565b6113ef846112d8565b810160208510156113fe578190505b61141261140a856112d8565b8301826113b2565b50505b505050565b5f82821c905092915050565b5f6114355f198460080261141a565b1980831691505092915050565b5f61144d8383611426565b9150826002028217905092915050565b61146682610e56565b67ffffffffffffffff81111561147f5761147e610c9e565b5b6114898254611296565b6114948282856113d4565b5f60209050601f8311600181146114c5575f84156114b3578287015190505b6114bd8582611442565b865550611524565b601f1984166114d3866112c6565b5f5b828110156114fa578489015182556001820191506020850194506020810190506114d5565b868310156115175784890151611513601f891682611426565b8355505b6001600288020188555050505b505050505050565b7f5573657220696420616c726561647920657869737473000000000000000000005f82015250565b5f611560601683610e60565b915061156b8261152c565b602082019050919050565b5f6020820190508181035f83015261158d81611554565b9050919050565b61159d81610ef5565b81146115a7575f5ffd5b50565b5f815190506115b881611594565b92915050565b5f602082840312156115d3576115d2610c4b565b5b5f6115e0848285016115aa565b91505092915050565b7f43616e64696461746520646f6573206e6f7420657869737400000000000000005f82015250565b5f61161d601883610e60565b9150611628826115e9565b602082019050919050565b5f6020820190508181035f83015261164a81611611565b9050919050565b7f4e487b71000000000000000000000000000000000000000000000000000000005f52601160045260245ffd5b5f61168882610c0e565b915060ff820361169b5761169a611651565b5b60018201905091905056fea26469706673582212209d42cc98c58cf2a405bc8edc6a5195f26021c82db789b4ffd9d7837f895e992264736f6c634300081e0033",
			"opcodes": "PUSH1 0x80 PUSH1 0x40 MSTORE PUSH0 PUSH1 0x1 PUSH0 PUSH2 0x100 EXP DUP2 SLOAD DUP2 PUSH1 0xFF MUL NOT AND SWAP1 DUP4 PUSH1 0xFF AND MUL OR SWAP1 SSTORE POP CALLVALUE DUP1 ISZERO PUSH2 0x29 JUMPI PUSH0 PUSH0 REVERT JUMPDEST POP PUSH1 0x40 MLOAD PUSH2 0x1803 CODESIZE SUB DUP1 PUSH2 0x1803 DUP4 CODECOPY DUP2 DUP2 ADD PUSH1 0x40 MSTORE DUP2 ADD SWAP1 PUSH2 0x4B SWAP2 SWAP1 PUSH2 0xEF JUMP JUMPDEST DUP1 PUSH1 0x1 DUP1 PUSH2 0x100 EXP DUP2 SLOAD DUP2 PUSH20 0xFFFFFFFFFFFFFFFFFFFFFFFFFFFFFFFFFFFFFFFF MUL NOT AND SWAP1 DUP4 PUSH20 0xFFFFFFFFFFFFFFFFFFFFFFFFFFFFFFFFFFFFFFFF AND MUL OR SWAP1 SSTORE POP POP PUSH2 0x11A JUMP JUMPDEST PUSH0 PUSH0 REVERT JUMPDEST PUSH0 PUSH20 0xFFFFFFFFFFFFFFFFFFFFFFFFFFFFFFFFFFFFFFFF DUP3 AND SWAP1 POP SWAP2 SWAP1 POP JUMP JUMPDEST PUSH0 PUSH2 0xBE DUP3 PUSH2 0x95 JUMP JUMPDEST SWAP1 POP SWAP2 SWAP1 POP JUMP JUMPDEST PUSH2 0xCE DUP2 PUSH2 0xB4 JUMP JUMPDEST DUP2 EQ PUSH2 0xD8 JUMPI PUSH0 PUSH0 REVERT JUMPDEST POP JUMP JUMPDEST PUSH0 DUP2 MLOAD SWAP1 POP PUSH2 0xE9 DUP2 PUSH2 0xC5 JUMP JUMPDEST SWAP3 SWAP2 POP POP JUMP JUMPDEST PUSH0 PUSH1 0x20 DUP3 DUP5 SUB SLT ISZERO PUSH2 0x104 JUMPI PUSH2 0x103 PUSH2 0x91 JUMP JUMPDEST JUMPDEST PUSH0 PUSH2 0x111 DUP5 DUP3 DUP6 ADD PUSH2 0xDB JUMP JUMPDEST SWAP2 POP POP SWAP3 SWAP2 POP POP JUMP JUMPDEST PUSH2 0x16DC DUP1 PUSH2 0x127 PUSH0 CODECOPY PUSH0 RETURN INVALID PUSH1 0x80 PUSH1 0x40 MSTORE CALLVALUE DUP1 ISZERO PUSH2 0xF JUMPI PUSH0 PUSH0 REVERT JUMPDEST POP PUSH1 0x4 CALLDATASIZE LT PUSH2 0x91 JUMPI PUSH0 CALLDATALOAD PUSH1 0xE0 SHR DUP1 PUSH4 0x531D37A7 GT PUSH2 0x64 JUMPI DUP1 PUSH4 0x531D37A7 EQ PUSH2 0x11F JUMPI DUP1 PUSH4 0x6ED6DA9E EQ PUSH2 0x13B JUMPI DUP1 PUSH4 0x86194C19 EQ PUSH2 0x16B JUMPI DUP1 PUSH4 0xB4A3A162 EQ PUSH2 0x19B JUMPI DUP1 PUSH4 0xB5CB15F7 EQ PUSH2 0x1B9 JUMPI PUSH2 0x91 JUMP JUMPDEST DUP1 PUSH4 0x7973CCF EQ PUSH2 0x95 JUMPI DUP1 PUSH4 0x21508169 EQ PUSH2 0xB3 JUMPI DUP1 PUSH4 0x218BFF1A EQ PUSH2 0xCF JUMPI DUP1 PUSH4 0x365B98B2 EQ PUSH2 0xEB JUMPI JUMPDEST PUSH0 PUSH0 REVERT JUMPDEST PUSH2 0x9D PUSH2 0x1D7 JUMP JUMPDEST PUSH1 0x40 MLOAD PUSH2 0xAA SWAP2 SWAP1 PUSH2 0xC29 JUMP JUMPDEST PUSH1 0x40 MLOAD DUP1 SWAP2 SUB SWAP1 RETURN JUMPDEST PUSH2 0xCD PUSH1 0x4 DUP1 CALLDATASIZE SUB DUP2 ADD SWAP1 PUSH2 0xC8 SWAP2 SWAP1 PUSH2 0xDC2 JUMP JUMPDEST PUSH2 0x1E9 JUMP JUMPDEST STOP JUMPDEST PUSH2 0xE9 PUSH1 0x4 DUP1 CALLDATASIZE SUB DUP2 ADD SWAP1 PUSH2 0xE4 SWAP2 SWAP1 PUSH2 0xDC2 JUMP JUMPDEST PUSH2 0x323 JUMP JUMPDEST STOP JUMPDEST PUSH2 0x105 PUSH1 0x4 DUP1 CALLDATASIZE SUB DUP2 ADD SWAP1 PUSH2 0x100 SWAP2 SWAP1 PUSH2 0xE1C JUMP JUMPDEST PUSH2 0x460 JUMP JUMPDEST PUSH1 0x40 MLOAD PUSH2 0x116 SWAP6 SWAP5 SWAP4 SWAP3 SWAP2 SWAP1 PUSH2 0xF0F JUMP JUMPDEST PUSH1 0x40 MLOAD DUP1 SWAP2 SUB SWAP1 RETURN JUMPDEST PUSH2 0x139 PUSH1 0x4 DUP1 CALLDATASIZE SUB DUP2 ADD SWAP1 PUSH2 0x134 SWAP2 SWAP1 PUSH2 0xF6E JUMP JUMPDEST PUSH2 0x5C9 JUMP JUMPDEST STOP JUMPDEST PUSH2 0x155 PUSH1 0x4 DUP1 CALLDATASIZE SUB DUP2 ADD SWAP1 PUSH2 0x150 SWAP2 SWAP1 PUSH2 0xE1C JUMP JUMPDEST PUSH2 0x872 JUMP JUMPDEST PUSH1 0x40 MLOAD PUSH2 0x162 SWAP2 SWAP1 PUSH2 0x10E5 JUMP JUMPDEST PUSH1 0x40 MLOAD DUP1 SWAP2 SUB SWAP1 RETURN JUMPDEST PUSH2 0x185 PUSH1 0x4 DUP1 CALLDATASIZE SUB DUP2 ADD SWAP1 PUSH2 0x180 SWAP2 SWAP1 PUSH2 0xE1C JUMP JUMPDEST PUSH2 0xA35 JUMP JUMPDEST PUSH1 0x40 MLOAD PUSH2 0x192 SWAP2 SWAP1 PUSH2 0x1105 JUMP JUMPDEST PUSH1 0x40 MLOAD DUP1 SWAP2 SUB SWAP1 RETURN JUMPDEST PUSH2 0x1A3 PUSH2 0xB39 JUMP JUMPDEST PUSH1 0x40 MLOAD PUSH2 0x1B0 SWAP2 SWAP1 PUSH2 0x1180 JUMP JUMPDEST PUSH1 0x40 MLOAD DUP1 SWAP2 SUB SWAP1 RETURN JUMPDEST PUSH2 0x1C1 PUSH2 0xB5D JUMP JUMPDEST PUSH1 0x40 MLOAD PUSH2 0x1CE SWAP2 SWAP1 PUSH2 0xC29 JUMP JUMPDEST PUSH1 0x40 MLOAD DUP1 SWAP2 SUB SWAP1 RETURN JUMPDEST PUSH1 0x1 PUSH0 SWAP1 SLOAD SWAP1 PUSH2 0x100 EXP SWAP1 DIV PUSH1 0xFF AND DUP2 JUMP JUMPDEST PUSH1 0x1 ISZERO ISZERO PUSH0 PUSH0 DUP5 DUP2 MSTORE PUSH1 0x20 ADD SWAP1 DUP2 MSTORE PUSH1 0x20 ADD PUSH0 KECCAK256 PUSH1 0x3 ADD PUSH1 0x14 SWAP1 SLOAD SWAP1 PUSH2 0x100 EXP SWAP1 DIV PUSH1 0xFF AND ISZERO ISZERO EQ PUSH2 0x250 JUMPI PUSH1 0x40 MLOAD PUSH32 0x8C379A000000000000000000000000000000000000000000000000000000000 DUP2 MSTORE PUSH1 0x4 ADD PUSH2 0x247 SWAP1 PUSH2 0x11E3 JUMP JUMPDEST PUSH1 0x40 MLOAD DUP1 SWAP2 SUB SWAP1 REVERT JUMPDEST PUSH0 PUSH0 DUP4 DUP2 MSTORE PUSH1 0x20 ADD SWAP1 DUP2 MSTORE PUSH1 0x20 ADD PUSH0 KECCAK256 PUSH1 0x2 ADD PUSH0 PUSH2 0x26E SWAP2 SWAP1 PUSH2 0xB72 JUMP JUMPDEST PUSH0 PUSH0 PUSH0 DUP5 DUP2 MSTORE PUSH1 0x20 ADD SWAP1 DUP2 MSTORE PUSH1 0x20 ADD PUSH0 KECCAK256 PUSH1 0x3 ADD PUSH1 0x14 PUSH2 0x100 EXP DUP2 SLOAD DUP2 PUSH1 0xFF MUL NOT AND SWAP1 DUP4 ISZERO ISZERO MUL OR SWAP1 SSTORE POP PUSH1 0x1 DUP1 SLOAD SWAP1 PUSH2 0x100 EXP SWAP1 DIV PUSH20 0xFFFFFFFFFFFFFFFFFFFFFFFFFFFFFFFFFFFFFFFF AND PUSH20 0xFFFFFFFFFFFFFFFFFFFFFFFFFFFFFFFFFFFFFFFF AND PUSH4 0x8CBEF3F1 DUP3 PUSH1 0x40 MLOAD DUP3 PUSH4 0xFFFFFFFF AND PUSH1 0xE0 SHL DUP2 MSTORE PUSH1 0x4 ADD PUSH2 0x2F2 SWAP2 SWAP1 PUSH2 0x1105 JUMP JUMPDEST PUSH0 PUSH1 0x40 MLOAD DUP1 DUP4 SUB DUP2 PUSH0 DUP8 DUP1 EXTCODESIZE ISZERO DUP1 ISZERO PUSH2 0x309 JUMPI PUSH0 PUSH0 REVERT JUMPDEST POP GAS CALL ISZERO DUP1 ISZERO PUSH2 0x31B JUMPI RETURNDATASIZE PUSH0 PUSH0 RETURNDATACOPY RETURNDATASIZE PUSH0 REVERT JUMPDEST POP POP POP POP POP POP JUMP JUMPDEST PUSH0 ISZERO ISZERO PUSH0 PUSH0 DUP5 DUP2 MSTORE PUSH1 0x20 ADD SWAP1 DUP2 MSTORE PUSH1 0x20 ADD PUSH0 KECCAK256 PUSH1 0x3 ADD PUSH1 0x14 SWAP1 SLOAD SWAP1 PUSH2 0x100 EXP SWAP1 DIV PUSH1 0xFF AND ISZERO ISZERO EQ PUSH2 0x389 JUMPI PUSH1 0x40 MLOAD PUSH32 0x8C379A000000000000000000000000000000000000000000000000000000000 DUP2 MSTORE PUSH1 0x4 ADD PUSH2 0x380 SWAP1 PUSH2 0x124B JUMP JUMPDEST PUSH1 0x40 MLOAD DUP1 SWAP2 SUB SWAP1 REVERT JUMPDEST PUSH1 0x1 PUSH0 PUSH0 DUP5 DUP2 MSTORE PUSH1 0x20 ADD SWAP1 DUP2 MSTORE PUSH1 0x20 ADD PUSH0 KECCAK256 PUSH1 0x3 ADD PUSH1 0x14 PUSH2 0x100 EXP DUP2 SLOAD DUP2 PUSH1 0xFF MUL NOT AND SWAP1 DUP4 ISZERO ISZERO MUL OR SWAP1 SSTORE POP DUP1 PUSH0 PUSH0 DUP5 DUP2 MSTORE PUSH1 0x20 ADD SWAP1 DUP2 MSTORE PUSH1 0x20 ADD PUSH0 KECCAK256 PUSH1 0x2 ADD SWAP1 DUP2 PUSH2 0x3D5 SWAP2 SWAP1 PUSH2 0x145D JUMP JUMPDEST POP PUSH1 0x1 DUP1 SLOAD SWAP1 PUSH2 0x100 EXP SWAP1 DIV PUSH20 0xFFFFFFFFFFFFFFFFFFFFFFFFFFFFFFFFFFFFFFFF AND PUSH20 0xFFFFFFFFFFFFFFFFFFFFFFFFFFFFFFFFFFFFFFFF AND PUSH4 0xFC36E15B DUP3 PUSH1 0x40 MLOAD DUP3 PUSH4 0xFFFFFFFF AND PUSH1 0xE0 SHL DUP2 MSTORE PUSH1 0x4 ADD PUSH2 0x42F SWAP2 SWAP1 PUSH2 0x1105 JUMP JUMPDEST PUSH0 PUSH1 0x40 MLOAD DUP1 DUP4 SUB DUP2 PUSH0 DUP8 DUP1 EXTCODESIZE ISZERO DUP1 ISZERO PUSH2 0x446 JUMPI PUSH0 PUSH0 REVERT JUMPDEST POP GAS CALL ISZERO DUP1 ISZERO PUSH2 0x458 JUMPI RETURNDATASIZE PUSH0 PUSH0 RETURNDATACOPY RETURNDATASIZE PUSH0 REVERT JUMPDEST POP POP POP POP POP POP JUMP JUMPDEST PUSH0 PUSH1 0x20 MSTORE DUP1 PUSH0 MSTORE PUSH1 0x40 PUSH0 KECCAK256 PUSH0 SWAP2 POP SWAP1 POP DUP1 PUSH0 ADD SLOAD SWAP1 DUP1 PUSH1 0x1 ADD DUP1 SLOAD PUSH2 0x484 SWAP1 PUSH2 0x1296 JUMP JUMPDEST DUP1 PUSH1 0x1F ADD PUSH1 0x20 DUP1 SWAP2 DIV MUL PUSH1 0x20 ADD PUSH1 0x40 MLOAD SWAP1 DUP2 ADD PUSH1 0x40 MSTORE DUP1 SWAP3 SWAP2 SWAP1 DUP2 DUP2 MSTORE PUSH1 0x20 ADD DUP3 DUP1 SLOAD PUSH2 0x4B0 SWAP1 PUSH2 0x1296 JUMP JUMPDEST DUP1 ISZERO PUSH2 0x4FB JUMPI DUP1 PUSH1 0x1F LT PUSH2 0x4D2 JUMPI PUSH2 0x100 DUP1 DUP4 SLOAD DIV MUL DUP4 MSTORE SWAP2 PUSH1 0x20 ADD SWAP2 PUSH2 0x4FB JUMP JUMPDEST DUP3 ADD SWAP2 SWAP1 PUSH0 MSTORE PUSH1 0x20 PUSH0 KECCAK256 SWAP1 JUMPDEST DUP2 SLOAD DUP2 MSTORE SWAP1 PUSH1 0x1 ADD SWAP1 PUSH1 0x20 ADD DUP1 DUP4 GT PUSH2 0x4DE JUMPI DUP3 SWAP1 SUB PUSH1 0x1F AND DUP3 ADD SWAP2 JUMPDEST POP POP POP POP POP SWAP1 DUP1 PUSH1 0x2 ADD DUP1 SLOAD PUSH2 0x510 SWAP1 PUSH2 0x1296 JUMP JUMPDEST DUP1 PUSH1 0x1F ADD PUSH1 0x20 DUP1 SWAP2 DIV MUL PUSH1 0x20 ADD PUSH1 0x40 MLOAD SWAP1 DUP2 ADD PUSH1 0x40 MSTORE DUP1 SWAP3 SWAP2 SWAP1 DUP2 DUP2 MSTORE PUSH1 0x20 ADD DUP3 DUP1 SLOAD PUSH2 0x53C SWAP1 PUSH2 0x1296 JUMP JUMPDEST DUP1 ISZERO PUSH2 0x587 JUMPI DUP1 PUSH1 0x1F LT PUSH2 0x55E JUMPI PUSH2 0x100 DUP1 DUP4 SLOAD DIV MUL DUP4 MSTORE SWAP2 PUSH1 0x20 ADD SWAP2 PUSH2 0x587 JUMP JUMPDEST DUP3 ADD SWAP2 SWAP1 PUSH0 MSTORE PUSH1 0x20 PUSH0 KECCAK256 SWAP1 JUMPDEST DUP2 SLOAD DUP2 MSTORE SWAP1 PUSH1 0x1 ADD SWAP1 PUSH1 0x20 ADD DUP1 DUP4 GT PUSH2 0x56A JUMPI DUP3 SWAP1 SUB PUSH1 0x1F AND DUP3 ADD SWAP2 JUMPDEST POP POP POP POP POP SWAP1 DUP1 PUSH1 0x3 ADD PUSH0 SWAP1 SLOAD SWAP1 PUSH2 0x100 EXP SWAP1 DIV PUSH20 0xFFFFFFFFFFFFFFFFFFFFFFFFFFFFFFFFFFFFFFFF AND SWAP1 DUP1 PUSH1 0x3 ADD PUSH1 0x14 SWAP1 SLOAD SWAP1 PUSH2 0x100 EXP SWAP1 DIV PUSH1 0xFF AND SWAP1 POP DUP6 JUMP JUMPDEST PUSH0 PUSH20 0xFFFFFFFFFFFFFFFFFFFFFFFFFFFFFFFFFFFFFFFF AND PUSH0 PUSH0 DUP6 DUP2 MSTORE PUSH1 0x20 ADD SWAP1 DUP2 MSTORE PUSH1 0x20 ADD PUSH0 KECCAK256 PUSH1 0x3 ADD PUSH0 SWAP1 SLOAD SWAP1 PUSH2 0x100 EXP SWAP1 DIV PUSH20 0xFFFFFFFFFFFFFFFFFFFFFFFFFFFFFFFFFFFFFFFF AND PUSH20 0xFFFFFFFFFFFFFFFFFFFFFFFFFFFFFFFFFFFFFFFF AND EQ PUSH2 0x669 JUMPI PUSH1 0x40 MLOAD PUSH32 0x8C379A000000000000000000000000000000000000000000000000000000000 DUP2 MSTORE PUSH1 0x4 ADD PUSH2 0x660 SWAP1 PUSH2 0x1576 JUMP JUMPDEST PUSH1 0x40 MLOAD DUP1 SWAP2 SUB SWAP1 REVERT JUMPDEST PUSH1 0x1 DUP1 SLOAD SWAP1 PUSH2 0x100 EXP SWAP1 DIV PUSH20 0xFFFFFFFFFFFFFFFFFFFFFFFFFFFFFFFFFFFFFFFF AND PUSH20 0xFFFFFFFFFFFFFFFFFFFFFFFFFFFFFFFFFFFFFFFF AND PUSH4 0x85453EA7 DUP3 PUSH1 0x40 MLOAD DUP3 PUSH4 0xFFFFFFFF AND PUSH1 0xE0 SHL DUP2 MSTORE PUSH1 0x4 ADD PUSH2 0x6C2 SWAP2 SWAP1 PUSH2 0x1105 JUMP JUMPDEST PUSH1 0x20 PUSH1 0x40 MLOAD DUP1 DUP4 SUB DUP2 DUP7 GAS STATICCALL ISZERO DUP1 ISZERO PUSH2 0x6DD JUMPI RETURNDATASIZE PUSH0 PUSH0 RETURNDATACOPY RETURNDATASIZE PUSH0 REVERT JUMPDEST POP POP POP POP PUSH1 0x40 MLOAD RETURNDATASIZE PUSH1 0x1F NOT PUSH1 0x1F DUP3 ADD AND DUP3 ADD DUP1 PUSH1 0x40 MSTORE POP DUP2 ADD SWAP1 PUSH2 0x701 SWAP2 SWAP1 PUSH2 0x15BE JUMP JUMPDEST PUSH2 0x740 JUMPI PUSH1 0x40 MLOAD PUSH32 0x8C379A000000000000000000000000000000000000000000000000000000000 DUP2 MSTORE PUSH1 0x4 ADD PUSH2 0x737 SWAP1 PUSH2 0x1633 JUMP JUMPDEST PUSH1 0x40 MLOAD DUP1 SWAP2 SUB SWAP1 REVERT JUMPDEST PUSH1 0x40 MLOAD DUP1 PUSH1 0xA0 ADD PUSH1 0x40 MSTORE DUP1 DUP5 DUP2 MSTORE PUSH1 0x20 ADD DUP4 DUP2 MSTORE PUSH1 0x20 ADD DUP3 DUP2 MSTORE PUSH1 0x20 ADD CALLER PUSH20 0xFFFFFFFFFFFFFFFFFFFFFFFFFFFFFFFFFFFFFFFF AND DUP2 MSTORE PUSH1 0x20 ADD PUSH0 ISZERO ISZERO DUP2 MSTORE POP PUSH0 PUSH0 DUP6 DUP2 MSTORE PUSH1 0x20 ADD SWAP1 DUP2 MSTORE PUSH1 0x20 ADD PUSH0 KECCAK256 PUSH0 DUP3 ADD MLOAD DUP2 PUSH0 ADD SSTORE PUSH1 0x20 DUP3 ADD MLOAD DUP2 PUSH1 0x1 ADD SWAP1 DUP2 PUSH2 0x7AC SWAP2 SWAP1 PUSH2 0x145D JUMP JUMPDEST POP PUSH1 0x40 DUP3 ADD MLOAD DUP2 PUSH1 0x2 ADD SWAP1 DUP2 PUSH2 0x7C2 SWAP2 SWAP1 PUSH2 0x145D JUMP JUMPDEST POP PUSH1 0x60 DUP3 ADD MLOAD DUP2 PUSH1 0x3 ADD PUSH0 PUSH2 0x100 EXP DUP2 SLOAD DUP2 PUSH20 0xFFFFFFFFFFFFFFFFFFFFFFFFFFFFFFFFFFFFFFFF MUL NOT AND SWAP1 DUP4 PUSH20 0xFFFFFFFFFFFFFFFFFFFFFFFFFFFFFFFFFFFFFFFF AND MUL OR SWAP1 SSTORE POP PUSH1 0x80 DUP3 ADD MLOAD DUP2 PUSH1 0x3 ADD PUSH1 0x14 PUSH2 0x100 EXP DUP2 SLOAD DUP2 PUSH1 0xFF MUL NOT AND SWAP1 DUP4 ISZERO ISZERO MUL OR SWAP1 SSTORE POP SWAP1 POP POP PUSH2 0x836 DUP4 DUP3 PUSH2 0x323 JUMP JUMPDEST PUSH1 0x1 PUSH0 DUP2 DUP2 SWAP1 SLOAD SWAP1 PUSH2 0x100 EXP SWAP1 DIV PUSH1 0xFF AND DUP1 SWAP3 SWAP2 SWAP1 PUSH2 0x854 SWAP1 PUSH2 0x167E JUMP JUMPDEST SWAP2 SWAP1 PUSH2 0x100 EXP DUP2 SLOAD DUP2 PUSH1 0xFF MUL NOT AND SWAP1 DUP4 PUSH1 0xFF AND MUL OR SWAP1 SSTORE POP POP POP POP POP JUMP JUMPDEST PUSH2 0x87A PUSH2 0xBAF JUMP JUMPDEST PUSH0 PUSH0 DUP4 DUP2 MSTORE PUSH1 0x20 ADD SWAP1 DUP2 MSTORE PUSH1 0x20 ADD PUSH0 KECCAK256 PUSH1 0x40 MLOAD DUP1 PUSH1 0xA0 ADD PUSH1 0x40 MSTORE SWAP1 DUP2 PUSH0 DUP3 ADD SLOAD DUP2 MSTORE PUSH1 0x20 ADD PUSH1 0x1 DUP3 ADD DUP1 SLOAD PUSH2 0x8AE SWAP1 PUSH2 0x1296 JUMP JUMPDEST DUP1 PUSH1 0x1F ADD PUSH1 0x20 DUP1 SWAP2 DIV MUL PUSH1 0x20 ADD PUSH1 0x40 MLOAD SWAP1 DUP2 ADD PUSH1 0x40 MSTORE DUP1 SWAP3 SWAP2 SWAP1 DUP2 DUP2 MSTORE PUSH1 0x20 ADD DUP3 DUP1 SLOAD PUSH2 0x8DA SWAP1 PUSH2 0x1296 JUMP JUMPDEST DUP1 ISZERO PUSH2 0x925 JUMPI DUP1 PUSH1 0x1F LT PUSH2 0x8FC JUMPI PUSH2 0x100 DUP1 DUP4 SLOAD DIV MUL DUP4 MSTORE SWAP2 PUSH1 0x20 ADD SWAP2 PUSH2 0x925 JUMP JUMPDEST DUP3 ADD SWAP2 SWAP1 PUSH0 MSTORE PUSH1 0x20 PUSH0 KECCAK256 SWAP1 JUMPDEST DUP2 SLOAD DUP2 MSTORE SWAP1 PUSH1 0x1 ADD SWAP1 PUSH1 0x20 ADD DUP1 DUP4 GT PUSH2 0x908 JUMPI DUP3 SWAP1 SUB PUSH1 0x1F AND DUP3 ADD SWAP2 JUMPDEST POP POP POP POP POP DUP2 MSTORE PUSH1 0x20 ADD PUSH1 0x2 DUP3 ADD DUP1 SLOAD PUSH2 0x93E SWAP1 PUSH2 0x1296 JUMP JUMPDEST DUP1 PUSH1 0x1F ADD PUSH1 0x20 DUP1 SWAP2 DIV MUL PUSH1 0x20 ADD PUSH1 0x40 MLOAD SWAP1 DUP2 ADD PUSH1 0x40 MSTORE DUP1 SWAP3 SWAP2 SWAP1 DUP2 DUP2 MSTORE PUSH1 0x20 ADD DUP3 DUP1 SLOAD PUSH2 0x96A SWAP1 PUSH2 0x1296 JUMP JUMPDEST DUP1 ISZERO PUSH2 0x9B5 JUMPI DUP1 PUSH1 0x1F LT PUSH2 0x98C JUMPI PUSH2 0x100 DUP1 DUP4 SLOAD DIV MUL DUP4 MSTORE SWAP2 PUSH1 0x20 ADD SWAP2 PUSH2 0x9B5 JUMP JUMPDEST DUP3 ADD SWAP2 SWAP1 PUSH0 MSTORE PUSH1 0x20 PUSH0 KECCAK256 SWAP1 JUMPDEST DUP2 SLOAD DUP2 MSTORE SWAP1 PUSH1 0x1 ADD SWAP1 PUSH1 0x20 ADD DUP1 DUP4 GT PUSH2 0x998 JUMPI DUP3 SWAP1 SUB PUSH1 0x1F AND DUP3 ADD SWAP2 JUMPDEST POP POP POP POP POP DUP2 MSTORE PUSH1 0x20 ADD PUSH1 0x3 DUP3 ADD PUSH0 SWAP1 SLOAD SWAP1 PUSH2 0x100 EXP SWAP1 DIV PUSH20 0xFFFFFFFFFFFFFFFFFFFFFFFFFFFFFFFFFFFFFFFF AND PUSH20 0xFFFFFFFFFFFFFFFFFFFFFFFFFFFFFFFFFFFFFFFF AND PUSH20 0xFFFFFFFFFFFFFFFFFFFFFFFFFFFFFFFFFFFFFFFF AND DUP2 MSTORE PUSH1 0x20 ADD PUSH1 0x3 DUP3 ADD PUSH1 0x14 SWAP1 SLOAD SWAP1 PUSH2 0x100 EXP SWAP1 DIV PUSH1 0xFF AND ISZERO ISZERO ISZERO ISZERO DUP2 MSTORE POP POP SWAP1 POP SWAP2 SWAP1 POP JUMP JUMPDEST PUSH1 0x60 PUSH0 PUSH0 PUSH0 DUP5 DUP2 MSTORE PUSH1 0x20 ADD SWAP1 DUP2 MSTORE PUSH1 0x20 ADD PUSH0 KECCAK256 PUSH1 0x2 ADD DUP1 SLOAD PUSH2 0xA56 SWAP1 PUSH2 0x1296 JUMP JUMPDEST SWAP1 POP SUB PUSH2 0xA98 JUMPI PUSH1 0x40 MLOAD PUSH32 0x8C379A000000000000000000000000000000000000000000000000000000000 DUP2 MSTORE PUSH1 0x4 ADD PUSH2 0xA8F SWAP1 PUSH2 0x11E3 JUMP JUMPDEST PUSH1 0x40 MLOAD DUP1 SWAP2 SUB SWAP1 REVERT JUMPDEST PUSH0 PUSH0 DUP4 DUP2 MSTORE PUSH1 0x20 ADD SWAP1 DUP2 MSTORE PUSH1 0x20 ADD PUSH0 KECCAK256 PUSH1 0x2 ADD DUP1 SLOAD PUSH2 0xAB6 SWAP1 PUSH2 0x1296 JUMP JUMPDEST DUP1 PUSH1 0x1F ADD PUSH1 0x20 DUP1 SWAP2 DIV MUL PUSH1 0x20 ADD PUSH1 0x40 MLOAD SWAP1 DUP2 ADD PUSH1 0x40 MSTORE DUP1 SWAP3 SWAP2 SWAP1 DUP2 DUP2 MSTORE PUSH1 0x20 ADD DUP3 DUP1 SLOAD PUSH2 0xAE2 SWAP1 PUSH2 0x1296 JUMP JUMPDEST DUP1 ISZERO PUSH2 0xB2D JUMPI DUP1 PUSH1 0x1F LT PUSH2 0xB04 JUMPI PUSH2 0x100 DUP1 DUP4 SLOAD DIV MUL DUP4 MSTORE SWAP2 PUSH1 0x20 ADD SWAP2 PUSH2 0xB2D JUMP JUMPDEST DUP3 ADD SWAP2 SWAP1 PUSH0 MSTORE PUSH1 0x20 PUSH0 KECCAK256 SWAP1 JUMPDEST DUP2 SLOAD DUP2 MSTORE SWAP1 PUSH1 0x1 ADD SWAP1 PUSH1 0x20 ADD DUP1 DUP4 GT PUSH2 0xB10 JUMPI DUP3 SWAP1 SUB PUSH1 0x1F AND DUP3 ADD SWAP2 JUMPDEST POP POP POP POP POP SWAP1 POP SWAP2 SWAP1 POP JUMP JUMPDEST PUSH1 0x1 DUP1 SLOAD SWAP1 PUSH2 0x100 EXP SWAP1 DIV PUSH20 0xFFFFFFFFFFFFFFFFFFFFFFFFFFFFFFFFFFFFFFFF AND DUP2 JUMP JUMPDEST PUSH0 PUSH1 0x1 PUSH0 SWAP1 SLOAD SWAP1 PUSH2 0x100 EXP SWAP1 DIV PUSH1 0xFF AND SWAP1 POP SWAP1 JUMP JUMPDEST POP DUP1 SLOAD PUSH2 0xB7E SWAP1 PUSH2 0x1296 JUMP JUMPDEST PUSH0 DUP3 SSTORE DUP1 PUSH1 0x1F LT PUSH2 0xB8F JUMPI POP PUSH2 0xBAC JUMP JUMPDEST PUSH1 0x1F ADD PUSH1 0x20 SWAP1 DIV SWAP1 PUSH0 MSTORE PUSH1 0x20 PUSH0 KECCAK256 SWAP1 DUP2 ADD SWAP1 PUSH2 0xBAB SWAP2 SWAP1 PUSH2 0xBF3 JUMP JUMPDEST JUMPDEST POP JUMP JUMPDEST PUSH1 0x40 MLOAD DUP1 PUSH1 0xA0 ADD PUSH1 0x40 MSTORE DUP1 PUSH0 DUP2 MSTORE PUSH1 0x20 ADD PUSH1 0x60 DUP2 MSTORE PUSH1 0x20 ADD PUSH1 0x60 DUP2 MSTORE PUSH1 0x20 ADD PUSH0 PUSH20 0xFFFFFFFFFFFFFFFFFFFFFFFFFFFFFFFFFFFFFFFF AND DUP2 MSTORE PUSH1 0x20 ADD PUSH0 ISZERO ISZERO DUP2 MSTORE POP SWAP1 JUMP JUMPDEST JUMPDEST DUP1 DUP3 GT ISZERO PUSH2 0xC0A JUMPI PUSH0 DUP2 PUSH0 SWAP1 SSTORE POP PUSH1 0x1 ADD PUSH2 0xBF4 JUMP JUMPDEST POP SWAP1 JUMP JUMPDEST PUSH0 PUSH1 0xFF DUP3 AND SWAP1 POP SWAP2 SWAP1 POP JUMP JUMPDEST PUSH2 0xC23 DUP2 PUSH2 0xC0E JUMP JUMPDEST DUP3 MSTORE POP POP JUMP JUMPDEST PUSH0 PUSH1 0x20 DUP3 ADD SWAP1 POP PUSH2 0xC3C PUSH0 DUP4 ADD DUP5 PUSH2 0xC1A JUMP JUMPDEST SWAP3 SWAP2 POP POP JUMP JUMPDEST PUSH0 PUSH1 0x40 MLOAD SWAP1 POP SWAP1 JUMP JUMPDEST PUSH0 PUSH0 REVERT JUMPDEST PUSH0 PUSH0 REVERT JUMPDEST PUSH0 DUP2 SWAP1 POP SWAP2 SWAP1 POP JUMP JUMPDEST PUSH2 0xC65 DUP2 PUSH2 0xC53 JUMP JUMPDEST DUP2 EQ PUSH2 0xC6F JUMPI PUSH0 PUSH0 REVERT JUMPDEST POP JUMP JUMPDEST PUSH0 DUP2 CALLDATALOAD SWAP1 POP PUSH2 0xC80 DUP2 PUSH2 0xC5C JUMP JUMPDEST SWAP3 SWAP2 POP POP JUMP JUMPDEST PUSH0 PUSH0 REVERT JUMPDEST PUSH0 PUSH0 REVERT JUMPDEST PUSH0 PUSH1 0x1F NOT PUSH1 0x1F DUP4 ADD AND SWAP1 POP SWAP2 SWAP1 POP JUMP JUMPDEST PUSH32 0x4E487B7100000000000000000000000000000000000000000000000000000000 PUSH0 MSTORE PUSH1 0x41 PUSH1 0x4 MSTORE PUSH1 0x24 PUSH0 REVERT JUMPDEST PUSH2 0xCD4 DUP3 PUSH2 0xC8E JUMP JUMPDEST DUP2 ADD DUP2 DUP2 LT PUSH8 0xFFFFFFFFFFFFFFFF DUP3 GT OR ISZERO PUSH2 0xCF3 JUMPI PUSH2 0xCF2 PUSH2 0xC9E JUMP JUMPDEST JUMPDEST DUP1 PUSH1 0x40 MSTORE POP POP POP JUMP JUMPDEST PUSH0 PUSH2 0xD05 PUSH2 0xC42 JUMP JUMPDEST SWAP1 POP PUSH2 0xD11 DUP3 DUP3 PUSH2 0xCCB JUMP JUMPDEST SWAP2 SWAP1 POP JUMP JUMPDEST PUSH0 PUSH8 0xFFFFFFFFFFFFFFFF DUP3 GT ISZERO PUSH2 0xD30 JUMPI PUSH2 0xD2F PUSH2 0xC9E JUMP JUMPDEST JUMPDEST PUSH2 0xD39 DUP3 PUSH2 0xC8E JUMP JUMPDEST SWAP1 POP PUSH1 0x20 DUP2 ADD SWAP1 POP SWAP2 SWAP1 POP JUMP JUMPDEST DUP3 DUP2 DUP4 CALLDATACOPY PUSH0 DUP4 DUP4 ADD MSTORE POP POP POP JUMP JUMPDEST PUSH0 PUSH2 0xD66 PUSH2 0xD61 DUP5 PUSH2 0xD16 JUMP JUMPDEST PUSH2 0xCFC JUMP JUMPDEST SWAP1 POP DUP3 DUP2 MSTORE PUSH1 0x20 DUP2 ADD DUP5 DUP5 DUP5 ADD GT ISZERO PUSH2 0xD82 JUMPI PUSH2 0xD81 PUSH2 0xC8A JUMP JUMPDEST JUMPDEST PUSH2 0xD8D DUP5 DUP3 DUP6 PUSH2 0xD46 JUMP JUMPDEST POP SWAP4 SWAP3 POP POP POP JUMP JUMPDEST PUSH0 DUP3 PUSH1 0x1F DUP4 ADD SLT PUSH2 0xDA9 JUMPI PUSH2 0xDA8 PUSH2 0xC86 JUMP JUMPDEST JUMPDEST DUP2 CALLDATALOAD PUSH2 0xDB9 DUP5 DUP3 PUSH1 0x20 DUP7 ADD PUSH2 0xD54 JUMP JUMPDEST SWAP2 POP POP SWAP3 SWAP2 POP POP JUMP JUMPDEST PUSH0 PUSH0 PUSH1 0x40 DUP4 DUP6 SUB SLT ISZERO PUSH2 0xDD8 JUMPI PUSH2 0xDD7 PUSH2 0xC4B JUMP JUMPDEST JUMPDEST PUSH0 PUSH2 0xDE5 DUP6 DUP3 DUP7 ADD PUSH2 0xC72 JUMP JUMPDEST SWAP3 POP POP PUSH1 0x20 DUP4 ADD CALLDATALOAD PUSH8 0xFFFFFFFFFFFFFFFF DUP2 GT ISZERO PUSH2 0xE06 JUMPI PUSH2 0xE05 PUSH2 0xC4F JUMP JUMPDEST JUMPDEST PUSH2 0xE12 DUP6 DUP3 DUP7 ADD PUSH2 0xD95 JUMP JUMPDEST SWAP2 POP POP SWAP3 POP SWAP3 SWAP1 POP JUMP JUMPDEST PUSH0 PUSH1 0x20 DUP3 DUP5 SUB SLT ISZERO PUSH2 0xE31 JUMPI PUSH2 0xE30 PUSH2 0xC4B JUMP JUMPDEST JUMPDEST PUSH0 PUSH2 0xE3E DUP5 DUP3 DUP6 ADD PUSH2 0xC72 JUMP JUMPDEST SWAP2 POP POP SWAP3 SWAP2 POP POP JUMP JUMPDEST PUSH2 0xE50 DUP2 PUSH2 0xC53 JUMP JUMPDEST DUP3 MSTORE POP POP JUMP JUMPDEST PUSH0 DUP2 MLOAD SWAP1 POP SWAP2 SWAP1 POP JUMP JUMPDEST PUSH0 DUP3 DUP3 MSTORE PUSH1 0x20 DUP3 ADD SWAP1 POP SWAP3 SWAP2 POP POP JUMP JUMPDEST DUP3 DUP2 DUP4 MCOPY PUSH0 DUP4 DUP4 ADD MSTORE POP POP POP JUMP JUMPDEST PUSH0 PUSH2 0xE88 DUP3 PUSH2 0xE56 JUMP JUMPDEST PUSH2 0xE92 DUP2 DUP6 PUSH2 0xE60 JUMP JUMPDEST SWAP4 POP PUSH2 0xEA2 DUP2 DUP6 PUSH1 0x20 DUP7 ADD PUSH2 0xE70 JUMP JUMPDEST PUSH2 0xEAB DUP2 PUSH2 0xC8E JUMP JUMPDEST DUP5 ADD SWAP2 POP POP SWAP3 SWAP2 POP POP JUMP JUMPDEST PUSH0 PUSH20 0xFFFFFFFFFFFFFFFFFFFFFFFFFFFFFFFFFFFFFFFF DUP3 AND SWAP1 POP SWAP2 SWAP1 POP JUMP JUMPDEST PUSH0 PUSH2 0xEDF DUP3 PUSH2 0xEB6 JUMP JUMPDEST SWAP1 POP SWAP2 SWAP1 POP JUMP JUMPDEST PUSH2 0xEEF DUP2 PUSH2 0xED5 JUMP JUMPDEST DUP3 MSTORE POP POP JUMP JUMPDEST PUSH0 DUP2 ISZERO ISZERO SWAP1 POP SWAP2 SWAP1 POP JUMP JUMPDEST PUSH2 0xF09 DUP2 PUSH2 0xEF5 JUMP JUMPDEST DUP3 MSTORE POP POP JUMP JUMPDEST PUSH0 PUSH1 0xA0 DUP3 ADD SWAP1 POP PUSH2 0xF22 PUSH0 DUP4 ADD DUP9 PUSH2 0xE47 JUMP JUMPDEST DUP2 DUP2 SUB PUSH1 0x20 DUP4 ADD MSTORE PUSH2 0xF34 DUP2 DUP8 PUSH2 0xE7E JUMP JUMPDEST SWAP1 POP DUP2 DUP2 SUB PUSH1 0x40 DUP4 ADD MSTORE PUSH2 0xF48 DUP2 DUP7 PUSH2 0xE7E JUMP JUMPDEST SWAP1 POP PUSH2 0xF57 PUSH1 0x60 DUP4 ADD DUP6 PUSH2 0xEE6 JUMP JUMPDEST PUSH2 0xF64 PUSH1 0x80 DUP4 ADD DUP5 PUSH2 0xF00 JUMP JUMPDEST SWAP7 SWAP6 POP POP POP POP POP POP JUMP JUMPDEST PUSH0 PUSH0 PUSH0 PUSH1 0x60 DUP5 DUP7 SUB SLT ISZERO PUSH2 0xF85 JUMPI PUSH2 0xF84 PUSH2 0xC4B JUMP JUMPDEST JUMPDEST PUSH0 PUSH2 0xF92 DUP7 DUP3 DUP8 ADD PUSH2 0xC72 JUMP JUMPDEST SWAP4 POP POP PUSH1 0x20 DUP5 ADD CALLDATALOAD PUSH8 0xFFFFFFFFFFFFFFFF DUP2 GT ISZERO PUSH2 0xFB3 JUMPI PUSH2 0xFB2 PUSH2 0xC4F JUMP JUMPDEST JUMPDEST PUSH2 0xFBF DUP7 DUP3 DUP8 ADD PUSH2 0xD95 JUMP JUMPDEST SWAP3 POP POP PUSH1 0x40 DUP5 ADD CALLDATALOAD PUSH8 0xFFFFFFFFFFFFFFFF DUP2 GT ISZERO PUSH2 0xFE0 JUMPI PUSH2 0xFDF PUSH2 0xC4F JUMP JUMPDEST JUMPDEST PUSH2 0xFEC DUP7 DUP3 DUP8 ADD PUSH2 0xD95 JUMP JUMPDEST SWAP2 POP POP SWAP3 POP SWAP3 POP SWAP3 JUMP JUMPDEST PUSH2 0xFFF DUP2 PUSH2 0xC53 JUMP JUMPDEST DUP3 MSTORE POP POP JUMP JUMPDEST PUSH0 DUP3 DUP3 MSTORE PUSH1 0x20 DUP3 ADD SWAP1 POP SWAP3 SWAP2 POP POP JUMP JUMPDEST PUSH0 PUSH2 0x101F DUP3 PUSH2 0xE56 JUMP JUMPDEST PUSH2 0x1029 DUP2 DUP6 PUSH2 0x1005 JUMP JUMPDEST SWAP4 POP PUSH2 0x1039 DUP2 DUP6 PUSH1 0x20 DUP7 ADD PUSH2 0xE70 JUMP JUMPDEST PUSH2 0x1042 DUP2 PUSH2 0xC8E JUMP JUMPDEST DUP5 ADD SWAP2 POP POP SWAP3 SWAP2 POP POP JUMP JUMPDEST PUSH2 0x1056 DUP2 PUSH2 0xED5 JUMP JUMPDEST DUP3 MSTORE POP POP JUMP JUMPDEST PUSH2 0x1065 DUP2 PUSH2 0xEF5 JUMP JUMPDEST DUP3 MSTORE POP POP JUMP JUMPDEST PUSH0 PUSH1 0xA0 DUP4 ADD PUSH0 DUP4 ADD MLOAD PUSH2 0x1080 PUSH0 DUP7 ADD DUP3 PUSH2 0xFF6 JUMP JUMPDEST POP PUSH1 0x20 DUP4 ADD MLOAD DUP5 DUP3 SUB PUSH1 0x20 DUP7 ADD MSTORE PUSH2 0x1098 DUP3 DUP3 PUSH2 0x1015 JUMP JUMPDEST SWAP2 POP POP PUSH1 0x40 DUP4 ADD MLOAD DUP5 DUP3 SUB PUSH1 0x40 DUP7 ADD MSTORE PUSH2 0x10B2 DUP3 DUP3 PUSH2 0x1015 JUMP JUMPDEST SWAP2 POP POP PUSH1 0x60 DUP4 ADD MLOAD PUSH2 0x10C7 PUSH1 0x60 DUP7 ADD DUP3 PUSH2 0x104D JUMP JUMPDEST POP PUSH1 0x80 DUP4 ADD MLOAD PUSH2 0x10DA PUSH1 0x80 DUP7 ADD DUP3 PUSH2 0x105C JUMP JUMPDEST POP DUP1 SWAP2 POP POP SWAP3 SWAP2 POP POP JUMP JUMPDEST PUSH0 PUSH1 0x20 DUP3 ADD SWAP1 POP DUP2 DUP2 SUB PUSH0 DUP4 ADD MSTORE PUSH2 0x10FD DUP2 DUP5 PUSH2 0x106B JUMP JUMPDEST SWAP1 POP SWAP3 SWAP2 POP POP JUMP JUMPDEST PUSH0 PUSH1 0x20 DUP3 ADD SWAP1 POP DUP2 DUP2 SUB PUSH0 DUP4 ADD MSTORE PUSH2 0x111D DUP2 DUP5 PUSH2 0xE7E JUMP JUMPDEST SWAP1 POP SWAP3 SWAP2 POP POP JUMP JUMPDEST PUSH0 DUP2 SWAP1 POP SWAP2 SWAP1 POP JUMP JUMPDEST PUSH0 PUSH2 0x1148 PUSH2 0x1143 PUSH2 0x113E DUP5 PUSH2 0xEB6 JUMP JUMPDEST PUSH2 0x1125 JUMP JUMPDEST PUSH2 0xEB6 JUMP JUMPDEST SWAP1 POP SWAP2 SWAP1 POP JUMP JUMPDEST PUSH0 PUSH2 0x1159 DUP3 PUSH2 0x112E JUMP JUMPDEST SWAP1 POP SWAP2 SWAP1 POP JUMP JUMPDEST PUSH0 PUSH2 0x116A DUP3 PUSH2 0x114F JUMP JUMPDEST SWAP1 POP SWAP2 SWAP1 POP JUMP JUMPDEST PUSH2 0x117A DUP2 PUSH2 0x1160 JUMP JUMPDEST DUP3 MSTORE POP POP JUMP JUMPDEST PUSH0 PUSH1 0x20 DUP3 ADD SWAP1 POP PUSH2 0x1193 PUSH0 DUP4 ADD DUP5 PUSH2 0x1171 JUMP JUMPDEST SWAP3 SWAP2 POP POP JUMP JUMPDEST PUSH32 0x5573657220686173206E6F7420766F7465642079657400000000000000000000 PUSH0 DUP3 ADD MSTORE POP JUMP JUMPDEST PUSH0 PUSH2 0x11CD PUSH1 0x16 DUP4 PUSH2 0xE60 JUMP JUMPDEST SWAP2 POP PUSH2 0x11D8 DUP3 PUSH2 0x1199 JUMP JUMPDEST PUSH1 0x20 DUP3 ADD SWAP1 POP SWAP2 SWAP1 POP JUMP JUMPDEST PUSH0 PUSH1 0x20 DUP3 ADD SWAP1 POP DUP2 DUP2 SUB PUSH0 DUP4 ADD MSTORE PUSH2 0x11FA DUP2 PUSH2 0x11C1 JUMP JUMPDEST SWAP1 POP SWAP2 SWAP1 POP JUMP JUMPDEST PUSH32 0x557365722068617320766F746564000000000000000000000000000000000000 PUSH0 DUP3 ADD MSTORE POP JUMP JUMPDEST PUSH0 PUSH2 0x1235 PUSH1 0xE DUP4 PUSH2 0xE60 JUMP JUMPDEST SWAP2 POP PUSH2 0x1240 DUP3 PUSH2 0x1201 JUMP JUMPDEST PUSH1 0x20 DUP3 ADD SWAP1 POP SWAP2 SWAP1 POP JUMP JUMPDEST PUSH0 PUSH1 0x20 DUP3 ADD SWAP1 POP DUP2 DUP2 SUB PUSH0 DUP4 ADD MSTORE PUSH2 0x1262 DUP2 PUSH2 0x1229 JUMP JUMPDEST SWAP1 POP SWAP2 SWAP1 POP JUMP JUMPDEST PUSH32 0x4E487B7100000000000000000000000000000000000000000000000000000000 PUSH0 MSTORE PUSH1 0x22 PUSH1 0x4 MSTORE PUSH1 0x24 PUSH0 REVERT JUMPDEST PUSH0 PUSH1 0x2 DUP3 DIV SWAP1 POP PUSH1 0x1 DUP3 AND DUP1 PUSH2 0x12AD JUMPI PUSH1 0x7F DUP3 AND SWAP2 POP JUMPDEST PUSH1 0x20 DUP3 LT DUP2 SUB PUSH2 0x12C0 JUMPI PUSH2 0x12BF PUSH2 0x1269 JUMP JUMPDEST JUMPDEST POP SWAP2 SWAP1 POP JUMP JUMPDEST PUSH0 DUP2 SWAP1 POP DUP2 PUSH0 MSTORE PUSH1 0x20 PUSH0 KECCAK256 SWAP1 POP SWAP2 SWAP1 POP JUMP JUMPDEST PUSH0 PUSH1 0x20 PUSH1 0x1F DUP4 ADD DIV SWAP1 POP SWAP2 SWAP1 POP JUMP JUMPDEST PUSH0 DUP3 DUP3 SHL SWAP1 POP SWAP3 SWAP2 POP POP JUMP JUMPDEST PUSH0 PUSH1 0x8 DUP4 MUL PUSH2 0x1322 PUSH32 0xFFFFFFFFFFFFFFFFFFFFFFFFFFFFFFFFFFFFFFFFFFFFFFFFFFFFFFFFFFFFFFFF DUP3 PUSH2 0x12E7 JUMP JUMPDEST PUSH2 0x132C DUP7 DUP4 PUSH2 0x12E7 JUMP JUMPDEST SWAP6 POP DUP1 NOT DUP5 AND SWAP4 POP DUP1 DUP7 AND DUP5 OR SWAP3 POP POP POP SWAP4 SWAP3 POP POP POP JUMP JUMPDEST PUSH0 PUSH2 0x135E PUSH2 0x1359 PUSH2 0x1354 DUP5 PUSH2 0xC53 JUMP JUMPDEST PUSH2 0x1125 JUMP JUMPDEST PUSH2 0xC53 JUMP JUMPDEST SWAP1 POP SWAP2 SWAP1 POP JUMP JUMPDEST PUSH0 DUP2 SWAP1 POP SWAP2 SWAP1 POP JUMP JUMPDEST PUSH2 0x1377 DUP4 PUSH2 0x1344 JUMP JUMPDEST PUSH2 0x138B PUSH2 0x1383 DUP3 PUSH2 0x1365 JUMP JUMPDEST DUP5 DUP5 SLOAD PUSH2 0x12F3 JUMP JUMPDEST DUP3 SSTORE POP POP POP POP JUMP JUMPDEST PUSH0 PUSH0 SWAP1 POP SWAP1 JUMP JUMPDEST PUSH2 0x13A2 PUSH2 0x1393 JUMP JUMPDEST PUSH2 0x13AD DUP2 DUP5 DUP5 PUSH2 0x136E JUMP JUMPDEST POP POP POP JUMP JUMPDEST JUMPDEST DUP2 DUP2 LT ISZERO PUSH2 0x13D0 JUMPI PUSH2 0x13C5 PUSH0 DUP3 PUSH2 0x139A JUMP JUMPDEST PUSH1 0x1 DUP2 ADD SWAP1 POP PUSH2 0x13B3 JUMP JUMPDEST POP POP JUMP JUMPDEST PUSH1 0x1F DUP3 GT ISZERO PUSH2 0x1415 JUMPI PUSH2 0x13E6 DUP2 PUSH2 0x12C6 JUMP JUMPDEST PUSH2 0x13EF DUP5 PUSH2 0x12D8 JUMP JUMPDEST DUP2 ADD PUSH1 0x20 DUP6 LT ISZERO PUSH2 0x13FE JUMPI DUP2 SWAP1 POP JUMPDEST PUSH2 0x1412 PUSH2 0x140A DUP6 PUSH2 0x12D8 JUMP JUMPDEST DUP4 ADD DUP3 PUSH2 0x13B2 JUMP JUMPDEST POP POP JUMPDEST POP POP POP JUMP JUMPDEST PUSH0 DUP3 DUP3 SHR SWAP1 POP SWAP3 SWAP2 POP POP JUMP JUMPDEST PUSH0 PUSH2 0x1435 PUSH0 NOT DUP5 PUSH1 0x8 MUL PUSH2 0x141A JUMP JUMPDEST NOT DUP1 DUP4 AND SWAP2 POP POP SWAP3 SWAP2 POP POP JUMP JUMPDEST PUSH0 PUSH2 0x144D DUP4 DUP4 PUSH2 0x1426 JUMP JUMPDEST SWAP2 POP DUP3 PUSH1 0x2 MUL DUP3 OR SWAP1 POP SWAP3 SWAP2 POP POP JUMP JUMPDEST PUSH2 0x1466 DUP3 PUSH2 0xE56 JUMP JUMPDEST PUSH8 0xFFFFFFFFFFFFFFFF DUP2 GT ISZERO PUSH2 0x147F JUMPI PUSH2 0x147E PUSH2 0xC9E JUMP JUMPDEST JUMPDEST PUSH2 0x1489 DUP3 SLOAD PUSH2 0x1296 JUMP JUMPDEST PUSH2 0x1494 DUP3 DUP3 DUP6 PUSH2 0x13D4 JUMP JUMPDEST PUSH0 PUSH1 0x20 SWAP1 POP PUSH1 0x1F DUP4 GT PUSH1 0x1 DUP2 EQ PUSH2 0x14C5 JUMPI PUSH0 DUP5 ISZERO PUSH2 0x14B3 JUMPI DUP3 DUP8 ADD MLOAD SWAP1 POP JUMPDEST PUSH2 0x14BD DUP6 DUP3 PUSH2 0x1442 JUMP JUMPDEST DUP7 SSTORE POP PUSH2 0x1524 JUMP JUMPDEST PUSH1 0x1F NOT DUP5 AND PUSH2 0x14D3 DUP7 PUSH2 0x12C6 JUMP JUMPDEST PUSH0 JUMPDEST DUP3 DUP2 LT ISZERO PUSH2 0x14FA JUMPI DUP5 DUP10 ADD MLOAD DUP3 SSTORE PUSH1 0x1 DUP3 ADD SWAP2 POP PUSH1 0x20 DUP6 ADD SWAP5 POP PUSH1 0x20 DUP2 ADD SWAP1 POP PUSH2 0x14D5 JUMP JUMPDEST DUP7 DUP4 LT ISZERO PUSH2 0x1517 JUMPI DUP5 DUP10 ADD MLOAD PUSH2 0x1513 PUSH1 0x1F DUP10 AND DUP3 PUSH2 0x1426 JUMP JUMPDEST DUP4 SSTORE POP JUMPDEST PUSH1 0x1 PUSH1 0x2 DUP9 MUL ADD DUP9 SSTORE POP POP POP JUMPDEST POP POP POP POP POP POP JUMP JUMPDEST PUSH32 0x5573657220696420616C72656164792065786973747300000000000000000000 PUSH0 DUP3 ADD MSTORE POP JUMP JUMPDEST PUSH0 PUSH2 0x1560 PUSH1 0x16 DUP4 PUSH2 0xE60 JUMP JUMPDEST SWAP2 POP PUSH2 0x156B DUP3 PUSH2 0x152C JUMP JUMPDEST PUSH1 0x20 DUP3 ADD SWAP1 POP SWAP2 SWAP1 POP JUMP JUMPDEST PUSH0 PUSH1 0x20 DUP3 ADD SWAP1 POP DUP2 DUP2 SUB PUSH0 DUP4 ADD MSTORE PUSH2 0x158D DUP2 PUSH2 0x1554 JUMP JUMPDEST SWAP1 POP SWAP2 SWAP1 POP JUMP JUMPDEST PUSH2 0x159D DUP2 PUSH2 0xEF5 JUMP JUMPDEST DUP2 EQ PUSH2 0x15A7 JUMPI PUSH0 PUSH0 REVERT JUMPDEST POP JUMP JUMPDEST PUSH0 DUP2 MLOAD SWAP1 POP PUSH2 0x15B8 DUP2 PUSH2 0x1594 JUMP JUMPDEST SWAP3 SWAP2 POP POP JUMP JUMPDEST PUSH0 PUSH1 0x20 DUP3 DUP5 SUB SLT ISZERO PUSH2 0x15D3 JUMPI PUSH2 0x15D2 PUSH2 0xC4B JUMP JUMPDEST JUMPDEST PUSH0 PUSH2 0x15E0 DUP5 DUP3 DUP6 ADD PUSH2 0x15AA JUMP JUMPDEST SWAP2 POP POP SWAP3 SWAP2 POP POP JUMP JUMPDEST PUSH32 0x43616E64696461746520646F6573206E6F742065786973740000000000000000 PUSH0 DUP3 ADD MSTORE POP JUMP JUMPDEST PUSH0 PUSH2 0x161D PUSH1 0x18 DUP4 PUSH2 0xE60 JUMP JUMPDEST SWAP2 POP PUSH2 0x1628 DUP3 PUSH2 0x15E9 JUMP JUMPDEST PUSH1 0x20 DUP3 ADD SWAP1 POP SWAP2 SWAP1 POP JUMP JUMPDEST PUSH0 PUSH1 0x20 DUP3 ADD SWAP1 POP DUP2 DUP2 SUB PUSH0 DUP4 ADD MSTORE PUSH2 0x164A DUP2 PUSH2 0x1611 JUMP JUMPDEST SWAP1 POP SWAP2 SWAP1 POP JUMP JUMPDEST PUSH32 0x4E487B7100000000000000000000000000000000000000000000000000000000 PUSH0 MSTORE PUSH1 0x11 PUSH1 0x4 MSTORE PUSH1 0x24 PUSH0 REVERT JUMPDEST PUSH0 PUSH2 0x1688 DUP3 PUSH2 0xC0E JUMP JUMPDEST SWAP2 POP PUSH1 0xFF DUP3 SUB PUSH2 0x169B JUMPI PUSH2 0x169A PUSH2 0x1651 JUMP JUMPDEST JUMPDEST PUSH1 0x1 DUP3 ADD SWAP1 POP SWAP2 SWAP1 POP JUMP INVALID LOG2 PUSH5 0x6970667358 0x22 SLT KECCAK256 SWAP14 TIMESTAMP 0xCC SWAP9 0xC5 DUP13 CALLCODE LOG4 SDIV 0xBC DUP15 0xDC PUSH11 0x5195F26021C82DB789B4FF 0xD9 0xD7 DUP4 PUSH32 0x895E992264736F6C634300081E00330000000000000000000000000000000000 "
		},
		"gasEstimates": {
			"creation": {
				"codeDepositCost": "1170400",
				"executionCost": "infinite",
				"totalCost": "infinite"
			},
			"external": {
				"addUser(uint256,string,string)": "infinite",
				"candidateContract()": "infinite",
				"getUserById(uint256)": "infinite",
				"getUserCount()": "2561",
				"getUserVote(uint256)": "infinite",
				"unVoteCadidate(uint256,string)": "infinite",
				"userCount()": "2467",
				"users(uint256)": "infinite",
				"voteCadidate(uint256,string)": "infinite"
			}
		},
		"methodIdentifiers": {
			"addUser(uint256,string,string)": "531d37a7",
			"candidateContract()": "b4a3a162",
			"getUserById(uint256)": "6ed6da9e",
			"getUserCount()": "b5cb15f7",
			"getUserVote(uint256)": "86194c19",
			"unVoteCadidate(uint256,string)": "21508169",
			"userCount()": "07973ccf",
			"users(uint256)": "365b98b2",
			"voteCadidate(uint256,string)": "218bff1a"
		}
	},
	"abi": [
		{
			"inputs": [
				{
					"internalType": "address",
					"name": "_candidateContractAddress",
					"type": "address"
				}
			],
			"stateMutability": "nonpayable",
			"type": "constructor"
		},
		{
			"inputs": [
				{
					"internalType": "uint256",
					"name": "_id",
					"type": "uint256"
				},
				{
					"internalType": "string",
					"name": "_name",
					"type": "string"
				},
				{
					"internalType": "string",
					"name": "_nameCandidate",
					"type": "string"
				}
			],
			"name": "addUser",
			"outputs": [],
			"stateMutability": "nonpayable",
			"type": "function"
		},
		{
			"inputs": [],
			"name": "candidateContract",
			"outputs": [
				{
					"internalType": "contract ICandidateManager",
					"name": "",
					"type": "address"
				}
			],
			"stateMutability": "view",
			"type": "function"
		},
		{
			"inputs": [
				{
					"internalType": "uint256",
					"name": "_id",
					"type": "uint256"
				}
			],
			"name": "getUserById",
			"outputs": [
				{
					"components": [
						{
							"internalType": "uint256",
							"name": "id",
							"type": "uint256"
						},
						{
							"internalType": "string",
							"name": "name",
							"type": "string"
						},
						{
							"internalType": "string",
							"name": "nameCandidate",
							"type": "string"
						},
						{
							"internalType": "address",
							"name": "userAddress",
							"type": "address"
						},
						{
							"internalType": "bool",
							"name": "isVote",
							"type": "bool"
						}
					],
					"internalType": "struct UserManager.User",
					"name": "",
					"type": "tuple"
				}
			],
			"stateMutability": "view",
			"type": "function"
		},
		{
			"inputs": [],
			"name": "getUserCount",
			"outputs": [
				{
					"internalType": "uint8",
					"name": "",
					"type": "uint8"
				}
			],
			"stateMutability": "view",
			"type": "function"
		},
		{
			"inputs": [
				{
					"internalType": "uint256",
					"name": "_id",
					"type": "uint256"
				}
			],
			"name": "getUserVote",
			"outputs": [
				{
					"internalType": "string",
					"name": "",
					"type": "string"
				}
			],
			"stateMutability": "view",
			"type": "function"
		},
		{
			"inputs": [
				{
					"internalType": "uint256",
					"name": "_id",
					"type": "uint256"
				},
				{
					"internalType": "string",
					"name": "_nameCandidate",
					"type": "string"
				}
			],
			"name": "unVoteCadidate",
			"outputs": [],
			"stateMutability": "nonpayable",
			"type": "function"
		},
		{
			"inputs": [],
			"name": "userCount",
			"outputs": [
				{
					"internalType": "uint8",
					"name": "",
					"type": "uint8"
				}
			],
			"stateMutability": "view",
			"type": "function"
		},
		{
			"inputs": [
				{
					"internalType": "uint256",
					"name": "",
					"type": "uint256"
				}
			],
			"name": "users",
			"outputs": [
				{
					"internalType": "uint256",
					"name": "id",
					"type": "uint256"
				},
				{
					"internalType": "string",
					"name": "name",
					"type": "string"
				},
				{
					"internalType": "string",
					"name": "nameCandidate",
					"type": "string"
				},
				{
					"internalType": "address",
					"name": "userAddress",
					"type": "address"
				},
				{
					"internalType": "bool",
					"name": "isVote",
					"type": "bool"
				}
			],
			"stateMutability": "view",
			"type": "function"
		},
		{
			"inputs": [
				{
					"internalType": "uint256",
					"name": "_id",
					"type": "uint256"
				},
				{
					"internalType": "string",
					"name": "_nameCandidate",
					"type": "string"
				}
			],
			"name": "voteCadidate",
			"outputs": [],
			"stateMutability": "nonpayable",
			"type": "function"
		}
	]
}